:06000000000080316828B9
:100008007E14803123009D1C18281D120000230037
:100018001D1618282000911E1B2823001908F70018
:1000280077088431972480312100911A0E28210005
:10003800911C23282000911C23281C1191108B1A35
:100048000B1D3D28FB0A8631DC2680317B06031D0B
:100058002F2822008E120A307B02031C3628220029
:100068008E16FB01FA183C2820001508053E95005D
:100078000B112100931C5D282000931C5D28FC03B4
:10008800FA1C49287C08031D5B288431C52480316B
:1000980005308431E92480317A1C592803308431B1
:1000A800E9248031280017117A100A30FC0020005A
:1000B80093102100111C66282000111C6628843129
:1000C800922411107E10090020000308A0008A3134
:1000D8007F2A9C30A1002130A2002C30A3004D22A1
:1000E80080312208B5002108B400B40A0319B50A02
:1000F8006A102200C701CD0120003508A500340888
:10010800A4000230A6002B2280312200C300200068
:100118003408023EA4000030353DA5000230A60098
:100128002B2280312200C40020003408043EA400A1
:100138000030353DA5000230A6002B228031220078
:10014800C50020003508A2003408A1002C30A30007
:100158004D2280312208B5002108B400B40A0319E1
:10016800B50A340886003508870056300106031D95
:10017800C1282200C601C60ACD28340886003508E1
:10018800870041300106031DCD282200C60120004A
:100198006A1420003508A2003408A1002C30A300FE
:1001A8004D2280312208B5002108B400B40A031991
:1001B800B50A34088600350887002C300106031973
:1001C80027292200C701C70A20003508A5003408DE
:1001D800A4000230A6002B2280312200C800200093
:1001E8003408023EA4000030353DA5000230A600C8
:1001F8002B2280312200C90020003408073EA400C9
:100208000030353DA5000230A6002B228031B20017
:100218000230B301A6003408053EA4000030353D85
:10022800A5002B22AC006430AD01AE00AF018B31CC
:100238005723803132082C072200CA0020003308D7
:100248002D3D2200CB0020003508A2003408A10073
:100258002C30A3004D2280312208B5002108B400BB
:10026800B40A0319B50A2200470B512920003408A3
:100278008600350887004E300106031D46292200F6
:10028800CC0151293408860035088700533001060F
:10029800031D51292200CC01CC0A20003508A200F8
:1002A8003408A1002C30A3004D2280312208B5006B
:1002B8002108B400B40A0319B50A340886003508C1
:1002C80087002C3001060319AB292200CD01CD0A85
:1002D80020003508A5003408A4000330A6002B220E
:1002E80080312200CE0020003408033EA4000030F4
:1002F800353DA5000230A6002B2280312200CF0018
:1003080020003408083EA4000030353DA500023026
:10031800A6002B228031B2000230B301A6003408B7
:10032800063EA4000030353DA5002B22AC00643009
:10033800AD01AE00AF018B315723803132082C0755
:100348002200D000200033082D3D2200D1002000DB
:100358003508A2003408A1002C30A3004D228031BA
:100368002208B5002108B400B40A0319B50A22000E
:100378004D0BD529200034088600350887005730F2
:100388000106031DCB292200D201D20AD52934083F
:1003980086003508870045300106031DD52922004F
:1003A800D20120003508A2003408A1002C30A30097
:1003B8004D2280312208B5002108B400B40A03197F
:1003C800B50A3508A2003408A1002C30A3004D223C
:1003D80080312208B5002108B400B40A0319B50A0F
:1003E8003508A2003408A1002C30A3004D2280312A
:1003F8002208B5002108B400B40A0319B50A350863
:10040800A5003408A4000230A6002B228031220067
:10041800D90020003408023EA4000030353DA50074
:100428000230A6002B2280312200DA002000340896
:10043800043EA4000030353DA5000230A6002B2262
:1004480080312200DB0020006A1C0800632AA90111
:10045800AA01AB01472A26082A0203184B2A2A08B0
:10046800A700A801240786002808253D8700010861
:10047800D03EAB000A30A10029088C31B624803167
:100488002B07A900AA0A0A302B02031C2F2A2908C5
:100498000800210886002208870001080319602A3D
:1004A800210886002208870001082306031908008E
:1004B800A10A0319A20A4D2AA101A20108002200DB
:1004C80043082000A1000E30A201A301A401A80145
:1004D800A701A6001030A5008D31F725803124082A
:1004E8002100BD00200023082100BC0020002208B4
:1004F8002100BB00200021082100BA002200440886
:100508002000AC003C30AD01AE00AF018B31572369
:100518002C082100BA0720002D082100BB3D00301F
:10052800BC3DBD3D220045082100BA070130031833
:10053800BB070318BC070318BD07080003340034C1
:1005480000340034003400340034533400340034B0
:100558002334003400340B340034003400340034C5
:1005680000340034003400340034003400340034E3
:1005780000340034003400340034003413345B3465
:10058800473417344B3400342F346B347B342734DE
:10059800003400341B3463341F345F343734773409
:1005A800673443342B3407345734733433340F34BB
:1005B8003B343F347F3400346F344F340034633479
:1005C8004F343B344B3443345B342F341734333497
:1005D8006B347B3427341F341B340F34373477346F
:1005E8002B345334073473343F3467345F3457340F
:1005F800473400340034B734063401348D341034B1
:1006080002342534133403344B34143404344B3457
:10061800103405341834103406342E3411340734A9
:10062800193410340834AC34103409342C341834E8
:100638000A34983406340B345E3411340C34DF3405
:1006480006340D34DF3406340E34CB3410342234FF
:100658002334243425342734283429342A342C34B8
:100668002D342E342F343134323433343434363458
:100678003734383439343A343B343C343D343E34FE
:100688003F344034423443344434453446344734A8
:10069800483401340034023400340434003408345B
:1006A80000341034003420340034403400348034B2
:1006B800003400340134003402340034043400348B
:1006C800083400341034003420340034403400340A
:1006D8008034CD348334BF348334C6348334B8345F
:1006E8008334B1348334223427342C343134043401
:1006F8003C3496344B3456343E34333432343C3400
:1007080052343E34363439343C3420344334203483
:1007180000344134433454344934563441344E342B
:1007280044344F3453344534203400344E344F3439
:1007380054344934433445342034473450345334E2
:1007480020343E3400342434503441344934523453
:100758003034363432342C3400342434453445347F
:1007680053344C3466340034243447344E344734DC
:10077800533441340034243447344E3452344D34E5
:1007880043340034243447345034473453344134E8
:10079800003424344734503452344D344334003414
:1007A8000734003400340034003400340834003492
:1007B8000034013404340034093400340034023481
:1007C800083400340A340034003403340C34003460
:1007D800003480340034003440342C3430342A342B
:1007E8003334003401341834083424340D340A34D2
:1007F800003424345034413449345234303436349B
:1008080036342C3431342C3430342C3431342C34C8
:1008180031342C3431342C3430342A3433344134A8
:100828000D340A34003424345034413449345234B9
:100838003834363434342C3430342C3430342C348A
:100848003134313435343234303430342A3431347C
:1008580042340D340A3400340D340A3467347034A9
:1008680073345F346334663467345F34313431341D
:100878003534323430343034003424345034413454
:10088800493452343034363437342A3433344234E9
:100898000D340A3400342434503441344934523449
:1008A8003534313433342A34333444340D340A344F
:1008B80000342D3432343134343437343434383429
:1008C800333436343434383400340D340A34523442
:1008D80058345F344C3455345A340D340A340034A7
:1008E80045343034003445343134003445343234FE
:1008F800003445343334003445343434003445341A
:100908003534003445343634003445343734003413
:10091800453438340034453439340034FD037D0817
:10092800031D0800AC2CF60028304A060319A92C30
:100938004908A03E860001308700760881002830EB
:10094800CA0AC90A49060319C9010730E924080077
:10095800B72CFA15C22C0E30E9248431C22C22009F
:100968008D120D12C22C6F08003A0319AD2C013AF2
:100978000319AF2C033A0319B32CC22C200018100A
:100988000800ED0A05306D02031C0800ED01043073
:10099800E924843101302100B6070030B73DB83D65
:1009A800B93D39088030031DE12C36025130373B00
:1009B8000130383B031C08008030B607AE30B73D25
:1009C800FE30B83DFF30B93D0800F40000308B1B05
:1009D8000130F5008B137408F0004D30F101F0354B
:1009E800F10D700784008330713D8500003FF200EF
:1009F800013FF30072082000E7047308E804751C3F
:100A0800072D8B1708008B1308002408031D152DCC
:100A18002308031D152DE83021020330223B031C57
:100A2800352D0B30A6006230A500A50B192DA60B9D
:100A3800192D0000E8302000A1020330A23B00304D
:100A4800A33BA43B092DC730A5000000A50B292D09
:100A58000032000064302000A1020030A23BA33B1A
:100A6800A43B2408031D272D2308031D272D220836
:100A7800031D272D64302102031C4F2D272D1A300A
:100A8800A500A50B452D00000A302000A10200306A
:100A9800A23BA33BA43B2408031D432D2308031DAD
:100AA800432D2208031D432D0A302102031C682D03
:100AB800432D003200320032003201302000A10202
:100AC8000030A23BA33BA43B2408230422042104B6
:100AD800031908005D2D3D08C5003C08C4003B080B
:100AE800C3003A08C2000E30B001AF01AE001030AA
:100AF800AD004508B4004408B3004308B2004208FA
:100B0800B1008E31562685312D082100D5003C30A4
:100B18002000AD00AE01AF01B00121005508200052
:100B2800A100FF30A201A301A401A800A700F13091
:100B3800A600F030A5008D31F72585312108420740
:100B4800BE002208433DBF002308443DC0002408DE
:100B5800453DC100B4004008B3003F08B2003E085C
:100B6800B1008E31562685312D082100D600C430BB
:100B78002000A100210056088C31B6248531BE0022
:100B8800F030A100210055088C31B6243E074207F9
:100B98002100D70008000930BB01BC01BD01BE011E
:100BA800B200B3013A08AD003908AC000530AE0018
:100BB800AF018B31572385312D08B5002C08B400BF
:100BC8008E31312685313308C0003208BF0002302B
:100BD800BF070318C00A3030B200B3013A08AD00AD
:100BE8003908AC001130AE00AF018B315723853185
:100BF8002C08313EB40000302D3DB5008E31312631
:100C080085313308BC003208BB000730B200B3019D
:100C18003B083F07B4003C08403DB5008E31312603
:100C28003308BE003208BD000800C3340634D63489
:100C38000634D3340634D0340634D9340634CD34AB
:100C48000634BE340634CA340634C7340634303465
:100C58003134333435343634373438343934453430
:100C68004634443442343834393436343734200046
:100C7800EA112200BD01A001A101A201A301A40162
:100C8800A501A601A7012000A1012135283E860063
:100C9800013087001E30C03F0030C13F0630A10A36
:100CA8002102031C492E1E302200B400B5010800A1
:100CB8003C3400349C34213402343C3404340A3447
:100CC8003C343C340D340A34003458340D340A347E
:100CD8000034AD34003400340034D4348334DA348E
:100CE8008334E0348334E63483343034333430347A
:100CF8003734323430340034FE0012001E00013024
:100D0800FE020030FF3B7F087E0403190034812E69
:100D18006400013080010131FE020030FF3B7F0892
:100D28007E04031900348D2EE701E801FA18A12E7C
:100D38008B31C92386318B31A7238F31C22F95314F
:100D4800EF2D9531EF2D9531F12D9531F12D95310F
:100D5800F22D9731562F9731592F9731562F9731BA
:100D6800592F97315C2F88313F202100171402300A
:100D78008A31FE2A0C308C31C3248E312B2E21006F
:100D8800C301C201080002308C31C32C0B308C31F6
:100D9800C32C08308C31C32C08308C31C32C0A305A
:100DA8008C31C32C00308C31C32C09308C31C32CCE
:080DB8002100410808000800B9
:101004000330D101D0015D2188311C1505305221F6
:101014008831342288313528FC268831013A031D71
:101024003328D00ADD268831CF00342288312228A3
:1010340002302028D101D10A2D280330D1002D28D7
:101044004F086E3A03191F281C3A03191A28053A47
:1010540003191C282D285108031935280522883125
:1010640035280430D10020005108031D3D280530E7
:101074005002031C0E285108080095278831952634
:1010840088316930A1008430A200192788315A3090
:101094002D2188311930AD00AE01C72188310330CC
:1010A400BD20883100302522883105228831111471
:1010B40020001814A7282330AA218831013A031DDF
:1010C400B628233096218831003A031DB628A72775
:1010D40088310030BD2088310100B6280430AA21AF
:1010E4008831013A031DB628043096218831003A2C
:1010F400031DB6289D268831013A031D9F28D4017B
:1011040054089C3E860021308701873D0108A100D8
:101114005408433E840083300318013E85000008D0
:10112400E324883120000330D40A5402031C8228AB
:101134000130BD2088310100B6280230BD2088313D
:10114400B6280030BD208831B62802208831013A03
:1011540003195D28033A0319A328013A03197028D7
:10116400073A0319B628B6282000181021001110D8
:1011740020001C11C92BA6000030A701A9015D2184
:1011840088311C1514305221883101305D21883199
:101194001D29A80128082B3E840083300318013E32
:1011A400850000089A2488312000A900A7062D2173
:1011B40088312230A80A280203182B29CC28A80138
:1011C4002808433E840083300318013E850000084C
:1011D4009A2488312000A900A7062D2188310330E4
:1011E400A80A280203182B29E2286530A7062D2116
:1011F40088314B3084008330850000089A2488317C
:101204002000A900A7062D2188315530A7062D21DD
:1012140088312B29A8012808653E86000130870003
:101224000108A900A7062D2188310630A80A280242
:1012340003182B290D292608003A0319CB28013A53
:101244000319E128033A0319F728013A03190C2971
:101254002B2927082D29A4001C119A0191101C1573
:1012640022008E16063052218831A5012408A300DD
:10127400250A3D29A336890B3C2923184429220039
:101284008E16462922008E120630522188310830EB
:10129400A50A2502031C382922008E120630522981
:1012A4002000A100A200220803190800911C58295B
:1012B400A20391105529A1003422883187291C08E2
:1012C400FC3901389C001C08873970389C00FA30BE
:1012D4009B0008001C08FC3901389C0087309C05E1
:1012E40069291C08FC3901389C007D309B0087303B
:1012F4009C0508001C08FC3901389C0060309B00E8
:101304001C08873938389C0008002108003A031962
:101314006129013A03196C29033A03197329013A23
:1013240003197C2995290800A100A301A201A301A6
:10133400210823020318A82923089C3E8600213093
:101344008701873D0108A206A30A9A2922080800FA
:10135400D200D301D3015208530203180134FC26EE
:101364008831013A031D0034DD268831CF0053084B
:101374009C3ED0002130D101D13D50088600510857
:1013840087004F088100D30AAD292D08A1002E083B
:10139400A2000330A301A401A801A701A600E8301C
:1013A400A500F72588312408B6002308B5002208D3
:1013B400B4002108B300FA18FB292030AF00B001B3
:1013C400B101B2013308AF073408B03D3508B13D6F
:1013D4003608B23D0630B236B10CB00CAF0C890BF6
:1013E400ED293208B6003108B5003008B4002F08E2
:1013F400B3003608A4003508A3003408A20033085B
:10140400A1008531092D0030200018180130A100F9
:1014140000302100111801302000A2001810FA1128
:1014240021005E08FD002000111097019601210C97
:10143400031C181003181814220C2100031C11108B
:101444000318111408002000A10018181810EF0048
:101454007B3E840083300318013E85000008210090
:10146400DE0008001C119A01911008002000D2002F
:1014740004258831D30002309A2488312000D60014
:10148400A32488312308D5002208D400043052064E
:10149400031D542A73305302031C560B08000230F8
:1014A400A101E32C79305302031C08005608031DE4
:1014B40008000230A101A10AE32488312F30200062
:1014C4005502863003195402031C702A0130A1010D
:1014D400E324883120000030A101E32CD40A03194D
:1014E400D50A5508D600A1000130E3248831200034
:1014F4005408D600A1000030E32C0A30FC0004306C
:10150400FD005230EE000330EF005C308400863082
:101514008500D8308600003087000030FF00153089
:1015240086318026883171308400863085005D30B4
:101534008600013087000030FF000F30863180269E
:1015440088311930840086308500CB308600013024
:1015540087000030FF0022308631802688319C309D
:101564008400213085005430FE000030FF008631B5
:101574008C268831F801F901FA01FB01E701E80141
:10158400E901EA01EB01EC01ED01A0308400003037
:1015940085003830FE000030FF0086318C2688310B
:1015A40020308400013085003D30FE000030FF0013
:1015B40086318C268831A0308400013085002B30A0
:1015C400FE000030FF0086318C26883120308400F4
:1015D400023085001A30FE000030FF0086318C2670
:1015E40088317E102000F62A8E2388310130FE22B5
:1015F40088311323803168282000A7002100420885
:10160400C30020002735CB3E860001308700413FD0
:101614008A00403F0A008B31200027082100C200C5
:10162400080020001F30E201E3013F00ED0020002C
:10163400E401E40AE501E6016400200067086804A7
:10164400031D262B64001F2B6808E3006708E200D3
:1016540064086205DE0065086305DF005E04031D9F
:10166400372BE435E50DE60A2A2B6608AC00033077
:10167400AD01AE00AF0157232D0885002C0884006E
:10168400FF3084078230853D003FE000013FE100E8
:101694008A0060080A0007308B31200066060319AF
:1016A400192B66086C238831192BB001B1012C1C4D
:1016B4005F2B2E08B0072F08B13DAE35AF0DAD3608
:1016C400AC0C2C082D04031D592B3108AD00300837
:1016D400AC0008002000A50000308B1B0130A600E0
:1016E4008B132508A1004D30A201A135A20D2107BD
:1016F40084008330223D8500003FA300013FA40005
:10170400A309A4092308E7052408E805261C8C2B53
:101714008B1708008B1308006400C923883101303B
:10172400FA23883120268831E82388311C26883121
:1017340012248831EA238831A7238831E2238831AF
:10174400DB238831F0278831C22F28001711FA1CB7
:10175400B92B033097041708873948389700FA30B3
:1017640096000A302100DF00853095000800170834
:10177400FC390238970017088739503897008E30A3
:10178400960001302100DF00883095000800FC300D
:1017940021009905190887397038990099171A1E7C
:1017A400D12B9A1DD32B0530FA142000AD00AE01C5
:1017B400C72921001708C1391C38970017100800E1
:1017C40002302100C500C601C70108000030FE2A0E
:1017D40023008C0109308D002B2621008C01093057
:1017E4008D0082308E0024008D01083090000800A6
:1017F400A10028001E1187309E05FC309E05203074
:101804009D0020002108031D0A2C203028009D0083
:101814002000931121000D138D1722000D170800CD
:10182400C301EC01C40144083E3E9A2488310F39B7
:101834002000C1000A30A1004308B62488314107C2
:10184400C3000330C40A4402031C152C43082100BE
:10185400AC0042309A2488312100AE0043309A24EF
:1018640088312100AF0047309A2488312100AD002F
:101874002E082000AC00AD0121002D082000AE0090
:10188400AF01572388312D082100A50020002C0822
:101894002100A40048309A242000C100C201C135AF
:1018A400C20DC135C20D4108B9004208BA008531E4
:1018B400CF2588312100B100053EB20044309A247E
:1018C40088312100C10045309A2488312000C500A8
:1018D4002100BF000F30BF052000450E0F39210045
:1018E400BE000F30BE053F08C00046309A24883140
:1018F4002000C500451C6C15C5186C16451AFA164F
:10190400C51E7A156C1E892C0130C3248831A3248A
:1019140088312F302302873003192202031C080068
:101924000130A101E324883120000030A101E32C1F
:101934002000A100230091009201951315141308AF
:10194400080001309A2488312000A600A500003048
:10195400A4019A242000A600A4070318A50A2508B8
:10196400A3002408A20008002000A300A20121086B
:101974002318A207A135A3362308031DB92C220876
:1019840008002000A50000308B1B0130A6008B133B
:101994002508A1004D30A201A135A20D2107840024
:1019A4008330223D8500003FA300013FA4002308AB
:1019B400E7042408E804261CE12C8B1708008B1389
:1019C4000800A200230091009201200021082300B6
:1019D40093009513151500308B1B01302000A300D4
:1019E4008B13553023009600AA30960095142000DE
:1019F400230C031C8B1303188B1723009518FF2C3F
:101A040015110800823022009700171F072D1F3080
:101A14002000B9000130502588313A08D100390836
:101A2400D000220097130C302000B900013050255B
:101A340088313A08CC003908CB0050085104031906
:101A4400452D5008AD005108AE00AF01B0014B0860
:101A5400A1004C08A2002030A301A401A801A70101
:101A6400A6000C30A500F72588312408B40023080B
:101A7400B3002208B2002108B100562688312E088E
:101A8400CE002D08CD006430B200B3014E08B5007D
:101A94004D08B40031263208CF000800BD00FF30E5
:101AA400C801C80AC101C201C301C401C500C600FE
:101AB4006030C70121009E0020003D0C2100031C62
:101AC4009E1303189E1720003908BB00BB0DBB0DE5
:101AD40021001D0820003B0683393B0621009D00A0
:101AE4001D1442302000BB00BB0B762D00000C30CF
:101AF400200039060319822D1F303906031D8C2D51
:101B04004230BB00BB0B842D000012302000C80003
:101B1400C701C70AC001480840020318C62D1A307D
:101B2400BB00BB0B932D000021009D14000021007D
:101B34009D18992D1C082000CA00C90121001B080A
:101B44002000C9070318CA0A470BC02D4A084402DB
:101B5400031DAE2D490843020318B42D4A08C400DE
:101B64004908C30046084A02031DBA2D4508490224
:101B74000318C02D4A08C6004908C5004908C10712
:101B84004A08C23DC00A8D2D21001D102000470BBC
:101B9400E62D43084507BB004408463DBC00BB098D
:101BA400BC09BB0A0319BC0A3B08B4003C08B500D5
:101BB4004108B4074208B53D4808B200FE30B301FD
:101BC400B207FF30B33DED2D4808B200B30142081F
:101BD400B5004108B40031263308BF003208BE0006
:101BE4003F08BA003E08B9000800A901AA01AB01E8
:101BF400AC01211C052E2508A9072608AA3D2708A3
:101C0400AB3D2808AC3DA535A60DA70DA80DA436FF
:101C1400A30CA20CA10C2408230422042104031DF8
:101C2400FB2D2C08A4002B08A3002A08A2002908D5
:101C3400A10008002000E701E8010800303020007E
:101C4400980418102100111020001110970196011A
:101C5400080022008C018D0104308E000800B601BA
:101C6400B701320833040319512EB801B80AB31B63
:101C74003E2EB235B30D382EB635B70D33083502C6
:101C8400031D462E32083402031C4D2E3208B402C2
:101C94003308B53B3614B336B20CB80B3E2E3708B6
:101CA400B3003608B2000800B501B601B701B801A7
:101CB40030082F042E042D0403198C2EB901B90AFF
:101CC400B01B692EAD35AE0DAF0DB00D612EB5351F
:101CD400B60DB70DB80D30083402031D7B2E2F0846
:101CE4003302031D7B2E2E083202031D7B2E2D088A
:101CF4003102031C862E2D08B1022E08B23B2F0898
:101D0400B33B3008B43B3514B036AF0CAE0CAD0C5D
:101D1400B90B692E3808B0003708AF003608AE009A
:101D24003508AD0008002F00910121001113200097
:101D3400111301305D294B30B401B601B7018400A1
:101D44008330850000089A2488312000B400B8014B
:101D540038089C3E860021308701873D0108D03E2B
:101D6400B5000A303502031800343708AD003608D0
:101D7400AC000A30AE00AF01572388312D08B700FC
:101D84002C08B6003508B6070318B70A0330B80A9A
:101D94003802031CAA2E3408B200B30137083302F8
:101DA400031DD62E36083202031C003436083704CD
:101DB400031D01340034CD01CC01052288312000FB
:101DC4001C15053052218831CE010A305221883148
:101DD40010278831CC009B304C02031CF32ECD36E7
:101DE400F52E0314CD0C0830CE0A4E02031CE72E48
:101DF4004D080800FA19003410278831CC009A30B5
:101E04004C02031C0D2FFC2E10278831CC009B3074
:101E14004C0203180134FA19FC2E062F0930B900BC
:101E24000030502521001C082000CB000800203081
:101E3400A601B20128009D002000A8010130B100D4
:101E4400210884002208850012000319080060306C
:101E540026020318080021088400220885000008CF
:101E6400A400A701A70AB201B20A2408270503198E
:101E7400422F3208283E8600013087018100472F17
:101E84003208283E8600870181010930A735B20A4D
:101E94003202031C372F28001E119C0100308B1BBB
:101EA40001302000A5008B139311F900080E2200C5
:101EB400BF00030EBE000408C0000508C1000A08E4
:101EC400C20028308400003085000A30F8008F31C9
:101ED40028001E151200090C2200031C0D13031800
:101EE4000D1720009311931D752FF80B6C2F2200F2
:101EF400400884004108850042088A003E0E8300A1
:101F04003F0E8800F90E790E28001E11200093114F
:101F1400251C8E2F8B178F2F8B132000A10A0319DA
:101F2400A20AA60A222FFC30210099051908873934
:101F34006838990099131A1E9D2F9A1D9F2FFA1421
:101F44002000AD01AD0AAE01C729A401A4012408F3
:101F54009C3E860021308701873D0108A1002408AA
:101F64002B3E840083300318013E85000008E324DF
:101F7400883120002230A40A240203180800A92F63
:101F84002000EB01E22386313B2688317A127A1352
:101F9400E8278831B001DB2788310B118B120B172E
:101FA4008B1720009310210093142800171502307A
:101FB400382A20000230EC10EC126B162100D800F5
:101FC400D9013F08C0003C30DD0008002100B60103
:101FD400B701B801B9010A30FC00080002309C3195
:101FE4008A248831FB2722000E169C3129240E12E4
:0C1FF400080023009D171D169E16080013
:10203000572B21301E2090312108642CA80000303D
:10204000A9018B1B0130A7008B1323004A08031939
:102050003C284808A03E8600013087000108200087
:10206000A90023002830CA03C80A48060319C8017A
:102070004A08031D3C2848202000270C031C8B1312
:1020800003188B172808860087012908810008009B
:1020900007308B316C2B7A1F592801302100A802A0
:1020A0000030A93B28082904031D59287A13EA2087
:1020B000903120006B1F5E28612090317A1D08004E
:1020C0008C2F2100B40B6D2820006B1322000D1201
:1020D0008D1204302100B500080002303506031DC2
:1020E0007D28031022000D1E0314031C7A282200F1
:1020F0000D16080022000D12080003303506031DDE
:102100000800031022008D1E0314031C8A282200DD
:102110008D16080022008D1208000030EB2290314D
:1021200020006B1B972822008D160D129A28220082
:102130000D168D12031020006B1F0314031CA3281F
:1021400020006B17A52820006B1300309831442025
:102150009031640020008D287A1EB828E521903146
:10216000003027020430031926020318BC28C928AE
:1021700078302100A600A70127082000A200210036
:1021800026082000A100FD30A107FF30A23DDD217F
:1021900090317A17852F6C2790312000A8002223D8
:1021A0009031033A031D080020002808031DE02891
:1021B0000030EB2290312000EB1AE3280130E428B4
:1021C0000330EB22903102304D27903152230430FE
:1021D0008A31FE2A212905307A148A31FE2A5223B7
:1021E00090311B2790312A26903121003008031DA1
:1021F00003292000EC1D03290130F0229031023028
:10220000EB22903108290330EB2290312000EC11B1
:1022100021000330B00A2000A100A201DD21063018
:102220008A31FE227A170800FA1C192904308A31F3
:10223000FE2A03307A142000A100A201DD21903192
:10224000122922239031053A0319EF28033A031982
:102250001429013A0319EB282D290800E5219031B2
:10226000B00122239031053A031D08000030F0220E
:102270009031003021002702063003192602031C8A
:102280004D2927082000A200210026082000A100D7
:10229000FD30A107FF30A23DDD29522390312708F0
:1022A0002000A200210026082000A100DD2190319D
:1022B00001307A17EB2206308A31FE2AE222220808
:1022C000D5002108D4000A30B200B3015508AD0092
:1022D0005408AC000F30AE00AF018B315723903162
:1022E0002D08B5002C08B4008E313126903133080A
:1022F000D5003208D400003055021E3003195402B4
:10230000031885291E30D400D501E5219031200025
:102310006C1B6C1D9A29A430860006308701A03EF4
:1023200084008501403F00072100A6000131413FA4
:10233000003DA7002000EC1FB0295508D10054082B
:10234000D0001030D035D10DD2000E30D30050085F
:1023500052022100A60020005108533B2100A70093
:102360002100270820005502031DBA292100260854
:10237000200054020318CF29210027082000A200C2
:10238000210026082000A1005408A1025508A23B04
:10239000DD21903105307A14DD229031DB292100D6
:1023A00027082000A200210026082000A100DD212E
:1023B00005308A31FE227A17080022082100A90080
:1023C000200021082100A8000800CB01CC01CD018C
:1023D000CE011A2590312408CE002308CD00220812
:1023E000CC002108CB000F30B90021002E082000BE
:1023F0003902C300C401031CC403C501C6014B0854
:10240000C3074C08C43D4D08C53D4E08C63D2100DC
:1024100024082000A100210025082000A200A3011B
:10242000A4014608A8004508A7004408A6004308E0
:10243000A500A7222208CA002108C90021002E08F1
:102440002000B200B3014A08B5004908B4008E313B
:10245000312690313208013EC10021002C02FF3E9E
:102460002000CF0021002E082000A100A2014A0870
:10247000A4004908A3009D31532590312108210073
:102480002E022000C2004F08AC00AD01AC1BAD0312
:1024900021002E082000AE00AF018B315723903170
:1024A0002D08C8002C08C7004208C7070318C80A2F
:1024B000CF1F622A210024082000C7072100250819
:1024C0002000C83D48082100A7002000470821003F
:1024D000A60020004B08B9004C08BA004D08BB000C
:1024E0004E08BC00210026082000BD00210027085E
:1024F0002000BE00BF01C0013D08B9073E08BA3D3B
:102500003F08BB3D4008BC3D3C082100A300200023
:102510003B082100A20020003A082100A100200071
:1025200039082100A00023088030031D9F2A2002C3
:102530005130213B0130223B031C08008030A007B2
:10254000AE30A13DFE30A23DFF30A33D080024087F
:102550002304220421040319D42AA901A90AA41BD3
:10256000B62AA135A20DA30DA40DAE2A2408280277
:10257000031DC42A23082702031DC42A2208260299
:10258000031DC42A21082502031CCE2A2108A50206
:102590002208A63B2308A73B2408A83BA436A30C8B
:1025A000A20CA10CA90BB62A2808A4002708A30096
:1025B0002608A2002508A10008002000A100210093
:1025C000C4000800220035082000A20022003408C0
:1025D0002000A10008002000A1002100CA0008007E
:1025E0002000A6002608031D012B2030A100023088
:1025F000A2004330A3000130A4000A232000EC1500
:1026000008004330A1000130A2002030A3000230B6
:10261000A4000A2B2108220403190800230824041B
:1026200003190800210886002208870020002308DB
:102630008400240885001A30A50012001E00A50B96
:102640001D2B0800210042080800FA1C292B4B24EE
:10265000903152230B138B13931028001711200075
:102660001C1128001E11200018108E312B269031CD
:1026700057239031003A031D452B21001708C1391B
:102680001438970017146300382B8B31DB239031FB
:10269000FA184F2B8B31C92390318B31A72302308D
:1026A0008A31FE2A22000E122100911208007F2397
:1026B0009031BB00BC013B08031D6D2BBC01BC0A63
:1026C0002100450803197C2B0B30C60AC7014602BE
:1026D000031C7C2B0330C5017A2B21004503031911
:1026E0007C2B1F30C70AC6014702031C7C2B083015
:1026F000C501C50A8A31FE2220003C0808002800D6
:102700001D082000B901BA0122000E1520001C117D
:10271000FA189C2B0430B8003C30B700B70B8E2B56
:10272000B80B8E2B0000FC3020009C051C0887395C
:1027300008389C00FA30A92B0530AD00AE01893174
:10274000C72190311C08FC3902389C0078309C0469
:102750007D309B009A01911020302100E9001C304F
:10276000EA000230FC2390318F302100E900023072
:10277000EA01FC23903121005208D3003330520685
:102780000319C52B2000EB16C72B2000EB12A73036
:102790002100E900EA01911420001C15D82B023019
:1027A000FC2390312100521DD82B2000BA01BA0A17
:1027B00020003A08031DDE2B1C19CF2B1C11210011
:1027C0009110AD30E9000230FC2390312100520815
:1027D000031DED2B0230FC23903122000E118E11CF
:1027E0000E108030210052020318F92B2000B9018D
:1027F000B90A2000390808002000A800E930A90023
:10280000D130AA0022008E150E112000AB012B083A
:10281000A500A601A51BA6032608803AA7008030C4
:102820002702031D152C280825020318262C20003A
:102830002A088600870129088400850100082924C8
:1028400090318100AA0AA90AAB0A072C22000E15B2
:102850000800A1008030A201A300A40121082305E3
:102860000319352C22000E14372C22000E108E1165
:102870000000000022008E15000000002000230848
:102880008E18A204A336A40A2408803A783E031CBA
:102890002E2C22080800FA1C502C58249031532C5E
:1028A0008B31C92390318B31A723280017150800DD
:1028B000FC30210099051908873938389900991397
:1028C0001A1D602CFA100800C500C4016A1A08001D
:1028D000243069154506031D7F2C04252000E916C8
:1028E00021005A0886005B08870020004508810007
:1028F0002100DA0A0319DB0A2000EE030800E91EB2
:10290000080021005A0886005B088700200045085F
:1029100081002100DA0A0319DB0A2000EE03E91F17
:10292000AB2C2100DC035C08031DCC2C9C30200068
:10293000A1002130A2006E08523CA3003E25903138
:10294000013A031DA82C691622003C08EC259031A1
:1029500004259031FF2D691FB32C2A304506031D35
:10296000CC2CE917CC2C4C306E06031DCC2C21004E
:102970005A0886005B0887009C3081012000A60071
:102980002130A700A0259031013A031DCA2C6917F8
:10299000E915CC2C0425903120006E08031D080099
:1029A000042D2000E901EA0104258F31FB27903135
:1029B0001D162100911622000E16E8302000AD00F1
:1029C0000330AE008931C721903121000130CB01A5
:1029D0008A3125229031142590316A151A25240850
:1029E0002200A300200023082200A20020002208C9
:1029F0002200A100200021082200A0006430200055
:102A0000AD00AE018931C72920009C30E91269135D
:102A1000E9132100DA002130DB0052302000EE0003
:102A200002302100DC0008008A3105221114200048
:102A30001814080000308B1B0130A9008B132100F3
:102A400039082000A800210038082000A700210034
:102A500037082000A600210036082000A500291C08
:102A6000332D8B17342D8B1320002808A400270842
:102A7000A3002608A2002508A1000800A601A701BE
:102A8000A10A0319A20AAA01AA0A2308FD3EA4006A
:102A9000FF3003180030A500803A803C031D522D02
:102AA00024082A0203185F2D20002108860022082E
:102AB00087000108A606A10A0319A20A442D2000D6
:102AC000AA01A10A0319A20A210886002208870088
:102AD000473001022A08031C772D283E8600870113
:102AE00021088400220885000008DF397F2D283E58
:102AF0008600870121088400220885000008D03E56
:102B000081002A08283E86000A3087010102031C42
:102B1000932D2A08283E86002A08283E8400850135
:102B20000008F93E81000230AA0A2A02031C612D26
:102B3000280EF0392904A7002606031901340034B1
:102B4000AC01AB01AC012708A2002608A1002C08AB
:102B5000A8006D30A901A835A90D2807840083308D
:102B6000293D8500003FA300013FA400CA25903104
:102B700021082204031DC22DAB01AB0A2C08220040
:102B8000BC00C72D0530AC0A2C02031CA32D20006D
:102B90002B080800D82D210886002208870001088C
:102BA0000319E62DA10A0319A20AA30A0319A40A0C
:102BB0002108860022088700230884002408850055
:102BC00000080102A50025080319CB2D2508A10046
:102BD000A201A11BA20308002000B600F42D803141
:102BE0006D28E12E0100080036088400053004023B
:102BF0000318080086310435A33E82000800200037
:102C0000EA186A1C0800EA106A1021000A30CB0A90
:102C10004B02031C0800CB032000EA1A162EEA150B
:102C2000D02690312A2690312000EA1621003D0856
:102C30002000A40021003C082000A30021003B0844
:102C40002000A20021003A082000A100B32606308F
:102C50008C31C32C2000BE01BF01C001C101220084
:102C600023082702031D3E2E22082602031D3E2EA6
:102C700021082502031D3E2E200824020318642E7D
:102C800080302000BA005130BB000130BC0004305D
:102C9000BD01203E860001308700403FBA07413F1A
:102CA000BB3D423FBC3D433FBD3D3D082200A70028
:102CB00020003C082200A60020003B082200A500BE
:102CC00020003A082200A400200824022000BA00B4
:102CD00022002108253B2000BB0022003D35283E74
:102CE00086000130870020003A08C03F3B08C13F02
:102CF00022003D35283E8600403FB600413FB700E8
:102D00002000C2014235283E860001308700403F46
:102D1000BA00413FBB003A08BE073B08BF3D003048
:102D2000C03DC13D0630C20A4202031C822E06305D
:102D3000AD00AE01AF01B0014108B4004008B300DE
:102D40003F08B2003E08B1008E3156262E08220000
:102D5000B50020002D082200B4000630BD0A3D0257
:102D60000318BD01080000308B1B0130A5008B1338
:102D700024082100B900200023082100B800200009
:102D800022082100B700200021082100B6007A1691
:102D90002000ED01251CCE2E8B1708008B13080098
:102DA0001A2524082200A700200023082200A600DC
:102DB000200022082200A500200021082200A400F3
:102DC00008009C30EA10A1002130A2002C30A300A2
:102DD00082314D2290312208A5002108A400A40AC6
:102DE0000319A50A24088600250887004D3001062E
:102DF000031DFD2E2100C80108002508A20024089B
:102E0000A1002C30A30082314D2290312208A50070
:102E10002108A400A40A0319A50A2408860025088D
:102E2000870033300106031D080003302100C9006C
:102E30002000EA140800220020082000A10022003F
:102E400021082000A200220022082000A300220066
:102E500023082000A400210024082000A500210050
:102E600025082000A600A701A8012508A10726081B
:102E7000A23D2708A33D2808A43D24082200A7005E
:102E8000200023082200A600200022082200A5001E
:102E9000200021082200A40008002000A100210039
:102EA000B5000F30B40020006B17602F22000D1604
:102EB000080022008D16080022000D128D12080055
:102EC000210035088400053004020318080086310B
:102ED0000435AD3E8200080018106A11691E732F78
:102EE0002200BA01822F6919792F02302200BA001C
:102EF0007E2FE919702F2200BA01BA0A9B31E22312
:102F00009031D12422003A08080002309C318A24F2
:102F100090312200BB01D12C20006B1E942F210088
:102F2000DD0B942F20006B122100C00BB22F20006C
:102F3000EC1EA52F21003F08C0002000EC12EC1C65
:102F4000B22F8B1222008E12B22F21003E08C00039
:102F50002000EC16EB1DB02FC72790312000EB119D
:102F6000EC188B1601302100D8020030D93B5808EC
:102F70005904031D080020006B1EC02F0230C12F12
:102F80003C302100D800D9012000EB1508000030AA
:102F9000CE018B1A0130CC008B1222008E12FA184F
:102FA000D32F0430D42F20302000AD00AE01893162
:102FB000C72190318F3110279031CD004C0C031C6C
:102FC0008B1203188B1646304D020318E92F01307F
:102FD000EA2F0030CE006C0C01394E0603190800B0
:102FE0000310EC1C0314031CF82F2000EC14FA2F20
:102FF0002000EC10EC1808008B1222008E12080042
:10305800210017100030442004308A31382298317A
:1030680021001714FE279831033A031D3E28053026
:103078008A31FE2A07308A31FE2298318E312B2E72
:10308800CD2298312000D9000030DD01210011182F
:1030980001302000DA002100111000308B1A0130B5
:1030A8002000DB008B12EB13922298310822983112
:1030B800053020005D0203187328A32098310A21E7
:1030C8009831013A031D6B280530DD005C28220089
:1030D8008D142000DD0AEB1722008D105C28D02209
:1030E80022000D150A302000AD00AE018931C7213C
:1030F800983122000C128C162000DC0159085C0261
:1031080003188F28E830AD000330AE008931C7219D
:103118009831DC0A82281F22983122008C16FE2161
:10312800983138265A0C2100031C11100318111469
:1031380020005B0C031C8B1203188B160800003050
:10314800A421983164219831EC302000A400833008
:10315800A5000530A600E2209831F6302000A40032
:103168008330A5000430A600E22098312000AB018E
:103178002B08A42198316421983120002B355D3E1D
:10318800860001308700403FA400413FA50006307B
:10319800A600E220983120002B08DF219831CC309E
:1031A800A4000030A5000530A600E22098312000D8
:1031B8000230AB0A2B0203180800BC2822000C13AB
:1031C8002000AA012A08A700A801A71BA80328080D
:1031D800803AA90080302902031DF4282608270216
:1031E8000318072920002A08A700A801A71BA8037D
:1031F8002408270784002508283D85000008C121E8
:103208009831AA0AE62822000C1764290030AC017C
:10321800AC0AA421983164219831EC302000A40034
:103228008330A5000530A6006E219831003A031DB1
:103238001F292000AC0164219831F6302000A40039
:103248008330A5000430A6006E219831003A031D92
:103258002F292000AC01642198312000AD012D08F0
:10326800A42198316421983120002D355D3E8600D7
:1032780001308700403FA400413FA5000630A6006A
:103288006E219831003A031D4B292000AC01200023
:103298002D08DF219831CC30A4000030A50005307E
:1032A800A6006E219831003A031D5C292000AC016C
:1032B80020000230AD0A2D02031C33292C08080017
:1032C80020001C1522008C1520001C1968292200DA
:1032D8008C1108002408840025088500000880381F
:1032E800AA00A901A90A22000C1320002A08C1215A
:1032F800983121008C172000AB01AB0A26082B025D
:1033080003189D29B5229831AA002508A800240889
:10331800A7002B082707840028080318280A850017
:1033280000082A060319812922000C1721008C1392
:10333800003422000C1721008C13200029080800F3
:103348002000A20022360139A100A10E22000C089B
:1033580020002106EF39210622008C0020002208D7
:103368000139A100A10EA10D22000C0820002106A0
:10337800DF39210622008C000800A1008030A2005D
:10338800A30122000C112000210822050319CF29CE
:1033980022008C17D12922008C1300000000220083
:1033A8000C150000000020000830A236A30A2302F2
:1033B80003180800C529A200773E8400833003184B
:1033C800013E85000008A3000B302100CC0020003E
:1033D800A4012408CD3E86008701230824078C31E8
:1033E8009A249831810020000430A40A240203188A
:1033F8000800ED290C100D118D100C138C130C11F5
:103408008C118C120C12080020001C1187309C05AE
:10341800FC309C05A0309B009A019110210091146A
:1034280022000C146E302000AD00AE018931C72196
:1034380022008D100800CB239831AB00EE308600B7
:10344800213087002B088100E030A5000030A6005D
:103458000430A700432298319C30A5002130A600F3
:10346800EE308600213087000108A70043229831FA
:10347800E530A5000030A6000330A700432AAA01C2
:10348800AA0127082A02031808002A08A800A90187
:10349800250786002908263D87000108A23E8400EA
:1034A80082300318013E850000085D229831AA0A7F
:1034B800452AA1008030A2002108A300FF30A306FE
:1034C800FA1A6E2A1C08FC3902389C001C08873935
:1034D8003038752A1C08873968389C001C08FC3964
:1034E80002389C00EE309B009A0191102100911443
:1034F8002000A401230822050319852A22008C161E
:10350800872A22008C122000A2361C151C198A2A30
:103518000830A40A2402031808007E2A8D310425E5
:1035280098312100B30020006C1FA32A2100320823
:103538003302031CA32A20006C13EC13AD2A2000CD
:103548006C1BAD2A210033083102031CAD2A200070
:103558006C17513021003302031808002000EC17C3
:1035680008008030A101A200A30122000C11000074
:10357800000022000C1500000000200022088C1B0F
:10358800A1040830A236A30A2302031CB92A210881
:10359800080021002F0808003826983121004A0821
:1035A800003A0319E12A013A0319E22A033A0319F6
:1035B800E22A013A0319E32AE42AE52A4E2E1F2BB0
:1035C800080073259831B330A1002130A2008D3056
:1035D800A3008330A4003B259831CB239831D30036
:1035E8009C30A1002130A2005308A1070318A20AA9
:1035F8007F30A3008330A4003B2598318023983185
:10360800CB23D3009C3ED1002130D201D23D5108BA
:1036180086005208870020308100D30A53089C3E58
:10362800D1002130D201D23D5108860052088700CE
:103638002030810008002000D70173259831B3306D
:10364800A1002130A2009A30A3008330A4003B25BA
:103658009831CB239831D800F52598312000D70030
:10366800303ED10058089C3ED2002130D301D33DD2
:103678005208860053088700510881005808013E07
:10368800F82598315808D1009E30D201D300213056
:10369800D40051085307D5005208543DD6005508A8
:1036A8008600560887003C3081005808D1009F30BA
:1036B800D201D3002130D40051085307D500520855
:1036C800543DD600550886005608870020308100F2
:1036D800CB239831D8009C30A1002130A200580893
:1036E800A1070318A20A7F30A3008330A4003B255A
:1036F8009831CB239831802B1130C1000230C200A1
:103708008C31A32498312308BF002208BE00CB23A4
:10371800BD00C0014208B3004108B2003F08B5002F
:103728003E08B4008E31312698313208BC00413E43
:10373800B9003D089C3EBA002130BB01BB3D3A08A8
:1037480086003B08870039088100BD0A4208A200AC
:103758004108A1003F08A4003E08A3005325220801
:10376800BF002108BE001730B200B3014208B500FF
:103778004108B4008E31312698313308C20032082E
:10378800C1000330C00A4002031808008E2B9C3089
:10379800A301A1002130A200D92B52302302031823
:1037A800E02BA30AA10A0319A20A2108860022080D
:1037B80087000108031DD12B230808002000BC0145
:1037C800BA01BB01BC01172CBA01EF2BBA01BA0A26
:1037D800EF2B0230BA00BB013A088A24983117301F
:1037E800A2008430A300BD249030AD000130AE00AB
:1037F8008931C721983122000E12C8302000AD004F
:10380800AE018931C721983122000E16F43020000C
:10381800AD000130AE008931C72198310330BC0AB0
:103828003C020318232C3C08003A0319E82B013A00
:103838000319EA2B033A0319ED2BF02BF02B023076
:103848008A249831E1249831F12C02302000BA0002
:10385800BB018B17BC015D2CBA01372CBA01BA0A1F
:10386800372C0230BA00BB013A088A243030A10054
:103878008430A2008F31192798311730A200843084
:10388800A300BD240430AD00AE018931C7219831B1
:1038980022000E1264302000AD00AE018931C7212C
:1038A800983122000E1620000330BC0A3C0203188F
:1038B800692C3C08003A0319302C013A0319322CC0
:1038C800033A0319352C382C382C02308A24E83076
:1038D800AD000330AE008931C7219831E124E830CA
:1038E800AD000330AE008931C7219831F1249831F9
:1038F8004F30A2008430A300BD24D030AD00073083
:10390800AE008931C72122000E1208002000B9003C
:1039180023001E129F151E15A82C033023009C009F
:103928004030A12C23009C018A30A12C23009C014B
:103938004430A12C23009C010C309B00B72CB8010B
:103948003908303EB700B72C20003908003A03196F
:10395800912C013A0319962C033A03199A2C013A2F
:1039680003199E2CA32C64302000AD00AE018931D0
:10397800C729A5012308A7002208A6002608840055
:103988002708850012000319080080302502031853
:10399800080026088400270885000008DA249831E2
:1039A8002000A60A0319A70AA50AC22CA100111E05
:1039B800DB2C210823009A000800FD30A200833088
:1039C800A300BD243230AD00AE018931C721983142
:1039D8004130A2008430A300BD2C9C30A1002130CE
:1039E800A200A730A3008330A4003B259831A6305D
:1039F800A1002130A200F130A3008330A4003B25B0
:103A08009831AB30A1002130A200FA30A3008330F6
:103A1800A4003B259831B8013808DD3E8600013006
:103A280087000108B700A5308600213087003708D5
:103A380081003808E53E8600013087000108B7009C
:103A4800AA30860021308700370881009C30A20008
:103A58002130A300BD246430AD00AE018931C721F7
:103A680098310830B80A380203180800102D2208C7
:103A7800A6002108A5002508860026088700230837
:103A88008400240885000008C03F8908031908003D
:103A9800A50A0319A60AA30A0319A40A3F2D210897
:103AA800220403196E2DA501A50AA21B5E2DA135BE
:103AB800A20D582D22082402031D642D210823027B
:103AC800031C6A2D2108A3022208A43BA236A10CDC
:103AD800A50B5E2D2408A2002308A1000800D42508
:103AE800CF014F08363E8C319A2498312000C80007
:103AF8004F089C3EC9002130CA01CA3D49088600CA
:103B08004A088700480881000430CF0A4F02031C86
:103B1800752DD00150083A3E8C319A2498312000F6
:103B2800C8005008C900A130CA01CB002130CC0020
:103B380049084B07CD004A084C3DCE004D08860089
:103B48004E088700480881000730D00A5002031C3D
:103B58008E2DA0308600213087003E308100AE30A7
:103B680086003E308100A83086002C308100A930C4
:103B780086003C308100B13086003C308100AC309A
:103B880086002E308100AF30860056308100B0307C
:103B9800860042308100B230860020308100080063
:103BA800210033082000C4004530B9000030BA00B5
:103BB8004408BB000330BC00BD013027AA30860092
:103BC80021308700450881004608C300AB308600D5
:103BD800430881004708C300AD30860043088100D0
:103BE800080022003A080800A4009C3EA1002130E9
:103BF800A201A23D210886002208870030308100FA
:103C08006C1F122E24089C3EA1002130A201A23D67
:103C1800210886002208870031308100EC1F202E01
:103C280024089C3EA1002130A201A23D2108860063
:103C38002208870032308100EB1F080024089C3ED0
:103C4800860021308701873D0108033EA100240832
:103C58009C3EA2002130A301A33D22088600230830
:103C680087002108810008002000A1012108803A6E
:103C7800313E0318482E21089C3E860021308701DA
:103C8800873D8101A10A3A2EEE3086002130870057
:103C98008101080073259831BE30860021308700E5
:103CA8003E308100CE3086003E308100D83086001C
:103CB8003E308100B23086002C308100BD30860055
:103CC8002C308100C13086002C308100CD30860038
:103CD8002C308100D13086002C308100C030860025
:103CE8003C308100D03086003C308100B8308600FE
:103CF8002E308100C83086002E308100B530860015
:103D08003A308100C53086003A308100D9308600CB
:103D180048308100BF3086004E30810022004C0BB5
:103D2800992EBF30860053308100CF308600213075
:103D3800870045308100520BA52ECF3086005730C2
:103D48008100B3302000B9002130BA0022004808B1
:103D58002000BB000230BC00BD0130279831B630CE
:103D6800B9002130BA00220049082000BB00023007
:103D7800BC00BD0130279831C230B9002130BA00EB
:103D880022004E082000BB000330BC00BD013027D4
:103D98009831C630B9002130BA0022004F082000FF
:103DA800BB000230BC00BD01302795311A2598317F
:103DB8002408BD002308BC002208BB002108BA0063
:103DC80085316F259831D2302000B9002130BA00F2
:103DD800210055082000BB000230BC00BD0130277F
:103DE8009831D430B9002130BA002100560820009B
:103DF800BB000230BC00BD0130279831D630B90075
:103E08002130BA00210057082000BB000230BC0056
:103E1800BD0130279831B930C3002130C4002200D9
:103E28004B082000C60022004A082000C5000430C4
:103E3800C700C801B5279831C930C3002130C40074
:103E4800220051082000C600220050082000C500AA
:103E58000430C700C801B52F64303B02031C382F5B
:103E680003303C0203184B2F64303B020A3003181E
:103E7800452F3B02031C442F02303C0203184B2FF2
:103E88000A303B02031808003C08031908003D0BE0
:103E9800562F3C08BE00BF01390786003F083A3D4F
:103EA8008700810102303C020A30031C782FBC03D2
:103EB800A1003B0885279831C2000A30A1003B08C1
:103EC8009D279831BB003030C2073C08BE00BF01B7
:103ED8003907C0003F083A3DC10040088600410844
:103EE800870042088100562FA1003B088527C200A1
:103EF8003030C207390886003A0887004208810036
:103F08000800A3000830A400A5012308A200073078
:103F1800A236890B8C2F25352204A500A33521084C
:103F28002502031C992F2108A502A40B892F250817
:103F38000800A200A40121080319B32FA301A30AB2
:103F4800A11BA82FA135A32FA43521082202031CE9
:103F5800B02F2108A2022414A136A30BA82F2408ED
:103F6800080027304602103003194502031CC02FF1
:103F7800053047020318CB2F2730460210300319AB
:103F880045020318080004304702031C08004408CF
:103F9800BA004308B9006430B200B3014608B5005E
:103FA8004508B4008E31312698313208BB004708E5
:103FB800FE3EBC004808BD00302798314408BA00CE
:103FC8004308B9004708B9070318BA0AFE30B90709
:103FD800031CBA036430A100A2014608A4004508E6
:103FE800A300532598312108BB000230BC004808C3
:083FF800BD00302F4308080052
:020000040001F9
:04000E00CCEFFFDE56
:10E00000000000000000FF00FF00FF00FF00FF0015
:10E01000FF00FF00FF00FF00FF00FF00FF00FF0008
:10E02000FF00FF00FF00FF00FF00FF00FF00FF00F8
:10E03000FF00FF00FF00FF00FF00FF00FF00FF00E8
:10E04000FF00FF0015007000E0002200FF00150037
:10E050007000FA005900FF0015007000E000220077
:10E06000FF0015007000FA005800FF004400430054
:10E0700054004300300030003100310030003000E7
:10E080003200FF0006000100010028009400140087
:10E09000CF00FF00FF00FF00FF00FF00FF00FF00B8
:10E0A000FF00FF00FF00FF00FF00FF00FF00FF0078
:10E0B000FF00FF00FF00FF00FF00FF00FF00FF0068
:10E0C000FF00FF00FF00FF00FF00FF00FF00FF0058
:10E0D000FF00FF00FF00FF00FF00FF00FF00FF0048
:10E0E000FF00FF00FF00FF00FF00FF00FF00FF0038
:10E0F000FF00FF00FF00FF00FF00FF00FF00FF0028
:10E10000FF00FF00FF00FF00FF00FF00FF00FF0017
:10E11000FF00FF00FF00FF00FF00FF00FF00FF0007
:10E12000FF00FF00FF00FF00FF00FF00FF00FF00F7
:10E13000FF00FF00FF00FF00FF00FF00FF00FF00E7
:10E14000FF00FF00FF00FF00FF00FF00FF00FF00D7
:10E15000FF00FF00FF00FF00FF00FF00FF00FF00C7
:10E16000FF00FF00FF00FF00FF00FF00FF00FF00B7
:10E17000FF00FF00FF00FF00FF00FF00FF00FF00A7
:10E18000FF00FF00FF00FF00FF00FF00FF00FF0097
:10E19000FF00FF00FF00FF00FF00FF00FF00FF0087
:10E1A000FF00FF00FF00FF00FF00FF00FF00FF0077
:10E1B000FF00FF00FF00FF00FF00FF00FF00FF0067
:10E1C000FF00FF00FF00FF00FF00FF00FF00FF0057
:10E1D000FF00FF00FF00FF00FF00FF00FF00FF0047
:10E1E000FF00FF00FF00FF00FF00FF00FF00FF0037
:10E1F000FF00FF00FF00FF00FF00FF00FF00FF0027
:00000001FF
