:060000001F308A00002FF2
:103DFA00000000000000BC278A27C8270230F5000F
:103E0A004530A327C13C03190D2FF50B052F3A2F77
:103E1A00D030B6278130B6270330B62783014B301E
:103E2A00B627F001A227A22723009200F600A227B4
:103E3A0023009100A227F700A227F1002030840076
:103E4A00A2278000840AF10B252FF008031D7A2F80
:103E5A0020308400771C332F7814132FF7183D2F46
:103E6A007719692F5530B627162F99278301FD2E0A
:103E7A00781C442F94307D2723001512F80108304E
:103E8A00F900FA00000823009300840A000894004D
:103E9A00840A84307D272300910AF90B472F910366
:103EAA0023009517151400000000840300083F3909
:103EBA0023009402031D772F840300089302031D35
:103ECA00772FFA0B542F132F000823009300043086
:103EDA007D2795186E2F1514000823009302031DE1
:103EEA00772F132F5630B627162F4E30B627162F98
:103EFA002300950055309600AA30960095140000CC
:103F0A0000009518862F1511080023008A309B009F
:103F1A00003023009C0023009F15903023009D0051
:103F2A00243023009E00080023009D0123009E01E7
:103F3A0023009C0123009F0108004530F2006430F1
:103F4A00F300F40164002000911EAF2F230019082A
:103F5A00F0070800F40BA72FF30BA62FF20BA42FE0
:103F6A003A2F23009A0023009E1CB92F0800220032
:103F7A000308EF002100F03099001A1FC22F1A1E01
:103F8A00C42F080008000D30B6270A30B627423081
:103F9A00B6274C30B6275F30B6274730B6275030A1
:103FAA00B6275330B6274430B6277630B6272E3098
:103FBA00B6272030B6273130B6272E30B627303014
:0C3FCA00B6270D30B6270A30B6270800D5
:020000040001F9
:04000E00EC3FFF3E86
:00000001FF
