:06000000000080316B28B6
:100008007E14803123009D1C18281D120000230037
:100018001D1618282000911E1B2823001908F70018
:1000280077089031322080312100911A0E28210062
:10003800911C23282000911C23281C1191108B1A35
:100048000B1D3D28FD0A9C31EB2480317D06031DE4
:100058002F2822008C130A307D02031C3628220028
:100068008C17FD01FB183C2820001508053E95005B
:100078000B112100931C5F282000931C5F2821008E
:10008800E003FB1C4A286008031D5D2890315C20B2
:100098008031053090317C2080317B1C5A28033018
:1000A80090317C208031280017117B100A30210004
:1000B800E000200093102100111C69282000111C69
:1000C800692890312C20200011107E100900200092
:1000D8000308A0008A31E32A0C309731DC278031ED
:1000E800792D9D31FA2580312000B90065248031B1
:1000F800033A031D080020003908031D8A28003030
:100108002F248031FA1A8D2801308E2803302F24AD
:10011800803102304E2704308C31DE2C00302F2401
:10012800003089316F218031640006302000E300FF
:100138001330E200B130E100E10BA028E20BA02867
:10014800E30BA02800320430ED25803103302F2442
:10015800003089316F218031640006302000E300CF
:100168001330E200B130E100E10BB828E20BB82807
:10017800E30BB82800320230ED25803120009228A8
:100188009C30A1002130A2002C30A300A222803193
:100198002208B5002108B400B40A0319B50A791079
:1001A8002200C201C80120003508A5003408A400B7
:1001B8000230A600802280312200BE0020003408D0
:1001C800023EA4000030353DA5000230A600802282
:1001D80080312200BF0020003408043EA400003013
:1001E800353DA5000230A600802280312200C000E3
:1001F80020003508A2003408A1002C30A300A22258
:1002080080312208B5002108B400B40A0319B50AE0
:10021800340886003508870056300106031D182962
:100228002200C101C10A2329340886003508870045
:1002380041300106031D23292200C1017914200041
:100248003508A2003408A1002C30A300A222803176
:100258002208B5002108B400B40A0319B50A340805
:100268008600350887002C30010603197D292200F5
:10027800C201C20A20003508A5003408A4000230D3
:10028800A600802280312200C30020003408023EEC
:10029800A4000030353DA5000230A6008022803140
:1002A8002200C40020003408073EA4000030353D79
:1002B800A5000230A60080228031B2000230B301CE
:1002C800A6003408053EA4000030353DA500802274
:1002D800AC006430AD01AE00AF018D3157258031DF
:1002E80032082C072200C500200033082D3D2200CB
:1002F800C60020003508A2003408A1002C30A30055
:10030800A22280312208B5002108B400B40A0319DA
:10031800B50A2200420BA7292000340886003508B8
:1003280087004E300106031D9C292200C701A7291A
:10033800340886003508870053300106031DA729B5
:100348002200C701C70A20003508A2003408A1000E
:100358002C30A300A22280312208B5002108B40065
:10036800B40A0319B50A34088600350887002C300A
:1003780001060319012A2200C801C80A200035080D
:10038800A5003408A4000330A60080228031220092
:10039800C90020003408033EA4000030353DA50004
:1003A8000230A600802280312200CA0020003408D2
:1003B800083EA4000030353DA5000230A60080228A
:1003C8008031B2000230B301A6003408063EA40012
:1003D8000030353DA5008022AC006430AD01AE0090
:1003E800AF018D315725803132082C072200CB0010
:1003F800200033082D3D2200CC0020003508A20043
:100408003408A1002C30A300A22280312208B500B4
:100418002108B400B40A0319B50A2200480B2B2A94
:100428002000340886003508870057300106031D70
:10043800212A2200CD01CD0A2B2A3408860035084E
:10044800870045300106031D2B2A2200CD0120001C
:100458003508A2003408A1002C30A300A222803164
:100468002208B5002108B400B40A0319B50A3508F2
:10047800A2003408A1002C30A300A2228031220857
:10048800B5002108B400B40A0319B50A3508A2005A
:100498003408A1002C30A300A22280312208B50024
:1004A8002108B400B40A0319B50A3508A5003408B0
:1004B800A4000230A600802280312200D40020004F
:1004C8003408023EA4000030353DA5000230A600E5
:1004D800802280312200D50020003408043EA40088
:1004E8000030353DA5000230A60080228031220070
:1004F800D600791C0800B82AA901AA01AB019C2AD8
:1005080026082A020318A02A2A08A700A8012407F7
:1005180086002808253D87000108D03EAB000A3038
:10052800A10029088F314E2780312B07A900AA0A7C
:100538000A302B02031C842A290808002108860097
:100548002208870001080319B52A21088600220815
:1005580087000108230603190800A10A0319A20A43
:10056800A22AA101A20108003E082000A1000E3025
:10057800A201A301A401A801A701A6001030A500AB
:10058800C82524082100BD00200023082100BC0044
:10059800200022082100BB00200021082100BA0009
:1005A80022003F082000AC003C30AD01AE00AF0196
:1005B8008D3157252C082100BA0720002D0821006D
:1005C800BB3D0030BC3DBD3D220040082100BA07BC
:1005D80001300318BB070318BC070318BD07080040
:1005E80021001710003089316F2180310430ED254A
:1005F80080312100171455268031033A031D092B39
:1006080005308C31DE2480310F2B07308C31DE240D
:10061800803179258031222380312408BD002308C8
:10062800BC002208BB002108BA00472380312127DB
:10063800DC30A1009930A2008C31642C00308B1B77
:1006480001302000A9008B13210039082000A800E0
:10065800210038082000A700210037082000A60044
:10066800210036082000A500291C3C2B8B173D2BA8
:100678008B1320002808A4002708A3002608A2003E
:100688002508A10008003D08C5003C08C4003B0837
:10069800C3003A08C2000E30B001AF01AE001030FE
:1006A800AD004508B4004408B3004308B20042084E
:1006B800B100892580312D082100D3003C3020006D
:1006C800AD00AE01AF01B001210053082000A10028
:1006D800FF30A201A301A401A800A700F130A600E1
:1006E800F030A500C825803121084207BE00220845
:1006F800433DBF002308443DC0002408453DC100D8
:10070800B4004008B3003F08B2003E08B100892594
:100718002D082100D400C4302000A1002100540875
:100728008F314E278031BE00F030A10021005308E0
:100738008F314E273E0742072100D50008007F254C
:10074800803168248D316C25803157302000A1001C
:100758009A30A2008C31642480312100B0016524D4
:100768008031053A031D0800003034248031003000
:1007780021002702063003192602031CD32B260862
:10078800FD3EA800FF30273DA90016302000A1003B
:100798009A30A2008C31642480317B14D72B27082F
:1007A800A9002608A80001307B172F2406308C31B9
:1007B800DE2C222C00302000A1009A30A2008C31BF
:1007C8006424803105307B148C31DE2C7F25803108
:1007D8001225803168248031210030080319FC1D5E
:1007E800FC2B01303424803102302F248031FF2B40
:1007F80003302F24FC110330B00AA8000630A901E9
:100808008C31DE2480314D307B172000A1009A30D6
:10081800A2008C31642CFB1C142C04308C31DE2C8F
:100828000B302000A1009A30A2008C3164240330E0
:100838007B142100A800A9017B17080065248031DA
:10084800053A0319EA2B033A03190F2C013A031945
:10085800DE2B2E2C08002000A1002100CC0008006F
:100868002000A6002608031D442C2030A1000230D9
:10087800A2003E30A3000130A4004D24FC1508005E
:100888003E30A1000130A2002030A3000230A400B5
:100898004D2C2108220403190800230824040319F5
:1008A8000800210886002208870020002308840009
:1008B800240885001A30A50012001E00A50B602C24
:1008C80008002100420808002000E201E301E401D9
:1008D800E501220023082702031D7C2C220826029A
:1008E800031D7C2C21082502031D7C2C20082402D2
:1008F8000318A22C80302000DE005130DF000130C8
:10090800E0000430E101203E860001308700403FCE
:10091800DE07413FDF3D423FE03D433FE13D6108A7
:100928002200A700200060082200A60020005F081F
:100938002200A50020005E082200A400200824024E
:100948002000DE0022002108253B2000DF002200D5
:100958003D35283E86000130870020005E08C03FF4
:100968005F08C13F22003D35283E8600403FB60063
:10097800413FB70099302000A1009930A2008C3186
:100988006424803122003D35283E860001308700EE
:10099800403F2000DE00413FDF005E08CF005F08D7
:1009A800D000D101D2018C31CC2480316C30A1002F
:1009B8009930A2008C3164248031E6016635283EE6
:1009C800860001308700403FDE00413FDF005E08BF
:1009D800E2075F08E33D0030E43DE53D0630E60A06
:1009E8006602031CE22C0630AD00AE01AF01B00177
:1009F8006508B4006408B3006308B2006208B10077
:100A080089252E082200B50020002D082200B400F8
:100A18000630BD0A3D020318BD0108002200200867
:100A28002000A100220021082000A20022002208A4
:100A38002000A300220023082000A400210024088D
:100A48002000A500210025082000A600A701A80174
:100A58002508A1072608A23D2708A33D2808A43D8C
:100A680024082200A700200023082200A600200056
:100A780022082200A500200021082200A400080066
:100A8800FB184C2D8D313C2580318D311825803156
:100A980074302000A1009A30A2008C316424803187
:100AA8007F2580310B138B13210093102800171119
:100AB80079258031210015170B168B101708C139BD
:100AC8002438970017148B186B2D6300672D8D3110
:100AD8004A2580310B1202308C31DE24A8302000E8
:100AE800A1009A30A2008C31642C403022008C0086
:100AF8008D008E01080022008E1221009112842D93
:100B080023009D131D129E120800B501B601B701FE
:100B1800B80130082F042E042D040319BF2DB90184
:100B2800B90AB01B9C2DAD35AE0DAF0DB00D942D8F
:100B3800B535B60DB70DB80D30083402031DAE2D0E
:100B48002F083302031DAE2D2E083202031DAE2DD1
:100B58002D083102031CB92D2D08B1022E08B23B15
:100B68002F08B33B3008B43B3514B036AF0CAE0C8D
:100B7800AD0CB90B9C2D3808B0003708AF0036080B
:100B8800AE003508AD000800A901AA01AB01AC010F
:100B9800211CD62D2508A9072608AA3D2708AB3D04
:100BA8002808AC3DA535A60DA70DA80DA436A30CA5
:100BB800A20CA10C2408230422042104031DCC2D1B
:100BC8002C08A4002B08A3002A08A2002908A100C9
:100BD80008002000CA005726CB0002308F31452775
:100BE80080312000CE000C2780312308CD00220858
:100BF800CC0004304A06031D092E73304B02031C37
:100C08004E0B08000230A101342E79304B02031C30
:100C180008004E08031D08000230A101A10A34266D
:100C280080312F3020004D02863003194C02031CFE
:100C3800252E0130A1013426803120000030A10189
:100C4800342ECC0A0319CD0A4D08CE00A10001307C
:100C58003426803120004C08CE00A1000030342E0C
:100C6800A200230091009201200021082300930094
:100C78009513151500308B1B01302000A3008B1332
:100C8800553023009600AA30960095142000230CB6
:100C9800031C8B1303188B1723009518502E15115E
:100CA800080043080800823022009700171F5A2EB8
:100CB8001F302000B9000130AB2680313A08C90046
:100CC8003908C8002200971304302000B900013009
:100CD800AB2680313A08C7003908C60048084904DD
:100CE8000319972E4808AD004908AE00AF01B001BE
:100CF8004608A1004708A2002030A301A401A801CA
:100D0800A701A6000C30A500C82580312408B4002E
:100D18002308B3002208B2002108B10089252E0853
:100D2800C4002D08C30047082100AB002000460876
:100D38002100AA0064302000B200B3014408B500C5
:100D48004308B4008C31F3243208C5000800BC0005
:100D5800C201C20ABD01BE0121001E088F39103828
:100D68009E00FC309E051E1120003908BB00BB0DFB
:100D7800BB0D21001D0820003B0683393B062100DE
:100D88009D0020003C0C2100031C9E1303189E1795
:100D98001D1453302000BB00BB0BD02E04302000A4
:100DA80039060319DB2E1F303906031DE32EF930EF
:100DB800BB00BB0BDD2E003204302000C200C10195
:100DC800420841020318F72E21009D14000021005B
:100DD8009D18EB2E1B082000BD0721001C082000D1
:100DE800BE3DC10AE42E21001D1020004208B200B9
:100DF800B3013E08B5003D08B4008C31F324330834
:100E0800C0003208BF004008BA003F08B900080017
:100E180001308F31452780312000A600A500003021
:100E2800A4018F3145272000A600A4070318A50AAE
:100E38002508A3002408A200080043302000B900B8
:100E48000030BA00210053082000BB000230BC006B
:100E5800BD019331322380313A30C500C800463095
:100E6800B9000030BA00210054082000BB0002304D
:100E7800BC00BD01933132234930B9000030BA00BB
:100E8800210055082000BB000230BC00BD01BD0A8E
:100E98009331322B2000A1002100B5000F30B4009F
:100EA8007A173508840005300402031808009A31BF
:100EB8000435DB3E82000800383065273808963153
:100EC800542EA8000030A9018B1B0130A7008B13FA
:100ED80023004A080319832F4808A03E86000130E2
:100EE800870001082000A90023002830CA03C80A87
:100EF80048060319C8014A08031D832F8F272000BD
:100F0800270C031C8B1303188B17280886008701EE
:100F18002908810008000730D92F20001F30EB0175
:100F2800EC013F00ED002000ED01ED0AEE01EF01BC
:100F3800210048084904031DA32F64009C2F490879
:100F48002000EC00210048082000EB006D086B052C
:100F5800E7006E086C05E8006704031DB72FED3540
:100F6800EE0DEF0AAA2F6F08AC000330AD01AE00FA
:100F7800AF018D31572587312D0885002C08840055
:100F88005D3084079830853D003FE900013FEA0065
:100F98008A0069080A000730873120006F060319A4
:100FA800972F6F08D9278731972F2000A500003089
:100FB8008B1B0130A6008B132508A1008930A201E4
:100FC800A135A20D210784009830223D8500003FFD
:100FD800A300013FA400A309A40923082100C80510
:100FE800200024082100C9052000261CFD2F8B178E
:080FF80008008B13080008003B
:101004002100C301C20108002100C801C901FB1865
:1010140011288D313C2588318D31182588311920CE
:1010240042302000A1009A30A2008C31642CFA01D5
:101034008D31512588313A2088317B127B1332203F
:101044008831B0015A200B118B120B178B1720001B
:101054009310210093142800171502308531ED2DCB
:101064002100B601B701B801B9010A30E000080057
:10107400F9112200BD01A001A101A201A301A40153
:10108400A501A601A7012000A1012135283E860063
:10109400013087003230C03F0030C13F0630A10A22
:1010A4002102031C472832302200B400B501080095
:1010B4000A30FC10FC127A16DB003F08C0002C300A
:1010C400D6000130D7000800CD01CE013D083C0414
:1010D4003B043A04031DAC283E08860030308701E7
:1010E4008100CD0A0319CE0A4D083E07BF008600D1
:1010F400810108004D08403E86000A308701A100A6
:10110400A201A301A4013D08A8003C08A7003B08D4
:10111400A6003A08A500DB202108303E8100CD0A54
:101124000319CE0A0A30AD00AE01AF01B0013D088B
:10113400B4003C08B3003B08B2003A08B100853162
:10114400892588313008BD002F08BC002E08BB005B
:101154002D08BA003D083C043B043A04031D7C28D6
:10116400CB01CC014E08803ABF0080303F02031D02
:10117400BD2801304D02031CD32820004B083E0734
:10118400BF008600FF308701CD07031CCE034D0846
:10119400403E8400850100088100CB0A0319CC0A73
:1011A400B42820004B083E07BF0086008701810158
:1011B4000800240823042204210403190829A9018E
:1011C400A90AA41BEA28A135A20DA30DA40DE228A7
:1011D40024082802031DF82823082702031DF828E1
:1011E40022082602031DF82821082502031C0229CF
:1011F4002108A5022208A63B2308A73B2408A83BF4
:10120400A436A30CA20CA10CA90BEA282808A4005C
:101214002708A3002608A2002508A1000800210031
:1012240017140230DE2C0030AC01AC0A6F22893175
:101234006522893137302000A4009930A50005309B
:10124400A6008E228931003A031D2A292000AC0110
:101254006522893141302000A4009930A500043072
:10126400A6008E228931003A031D3A292000AC01E0
:10127400652289312000AD012D086F228931652254
:10128400893120002D35583E860001308700403FCB
:10129400A400413FA5000630A6008E228931003A01
:1012A400031D56292000AC0120002D085626893143
:1012B400CE30A4000030A5000530A6008E2289316E
:1012C400003A031D67292000AC0120000230AD0A5A
:1012D4002D02031C3E292C080800FE272000DC00F8
:1012E4000030E0012100111801302000DD00210050
:1012F400111000308B1A01302000DE008B12FA131B
:101304009D317B2589315B278931053020006002BE
:101314000318A529FE21893115218931013A031DBC
:1013240096290530E000872922000E152000E00AE6
:10133400FA1722000E11A1302000A1009A30A20059
:101344006424893187299D31C925893122000C13F0
:101354000D302000DA00FB30D900D90BAF29DA0BAD
:10136400AF29003222008D110D152000DF015C0829
:101374005F020318CD290730DB001730DA006F3025
:10138400D900D90BC329DA0BC329DB0BC32900000D
:101394002000DF0AB9297627893122000D15F421AE
:1013A40089316C302000A1009930A2006424893175
:1013B4009C30A1002130A200642489316C30A1004A
:1013C4009930A20064249D31E5255D0C2100031CA5
:1013D40011100318111420005E0C031C8B12031847
:1013E4008B1608000C120C170E110C108C100C111B
:1013F4000D120D118D11080000306F228931652204
:10140400893137302000A4009930A5000530A600AA
:101414003D22893141302000A4009930A5000430D8
:10142400A6003D2289312000AB012B086F228931AF
:101434006522893120002B35583E86000130870013
:10144400403FA400413FA5000630A6003D2289315B
:1014540020002B0856268931CE30A4000030A50088
:101464000530A6003D22893120000230AB0A2B0250
:1014740003180800172A22000C102000AA012A08C9
:10148400A700A801A71BA8032808803AA900803058
:101494002902031D4F2A260827020318622A200066
:1014A4002A08A700A801A71BA8032408270784006B
:1014B4002508283D85000008C5228931AA0A412A49
:1014C40022000C14652A20001C1522000D16200091
:1014D4001C19692A22000D1208002000A2002236DD
:1014E4000139A100A10DA10DA10D22000D082000BC
:1014F4002106F739210622008D0020002208013937
:10150400A100A10DA10D22000D0820002106FB3928
:10151400210622008D000800240884002508850087
:1015240000088038AA00A901A90A22000C10200092
:101534002A08C522893121008C142000AB01AB0A92
:1015440026082B020318BE2A9D3163258931AA007F
:101554002508A8002408A7002B08270784002808CA
:101564000318280A850000082A060319A12A220064
:101574000C1421008C10003422000C1421008C1057
:10158400200029080800A1008030A200A301220045
:101594000C112000210822050319D32A22008C14DF
:1015A400D52A22008C100000000022000C15000037
:1015B400000020000830A236A30A23020318080002
:1015C400C92A4C3084009D308500D6308600003016
:1015D40087000030FF0017309031002089312A3015
:1015E40084009D308500583086000130870000302B
:1015F400FF001030903100208931AF3084009D30DD
:101604008500CB308600013087000030FF001A309F
:101614009031002089319C30840021308500543081
:10162400FE000030FF009D311E258931F801F901CB
:10163400FA01FB01FC01FD01A030840000308500AB
:101644003630FE000030FF009D311E2589312030E8
:101654008400013085003830FE000030FF009D31E9
:101664001E258931A0308400013085002B30FE0016
:101674000030FF009D311E25893120308400023066
:1016840085001A30FE000030FF009D311E2589318F
:101694007E1020004D2B5D238931BA302000A1003B
:1016A4009830A200642489310130DE2487319127E7
:1016B400893180316B2864003C2589310730200052
:1016C400D0007D30CF00CF0B652BD00B652B0130C4
:1016D4009D31952589319D31132589316130A100D2
:1016E4009A30A20064248931F430A1009930A20018
:1016F40064248931CC30A1009A30A2006424893159
:101704009830A1009A30A200642489318F30A1005E
:101714009A30A200642489316C30A1009930A2006F
:10172400642489315126893153268931AD269D316E
:101734003A25893118258931512589314A259D3128
:1017440009258931883119289D31002589312208DC
:10175400E3002108E2000A30B200B3016308AD00DF
:101764006208AC000F30AE00AF01572589312D0857
:10177400B5002C08B400F32489313308E30032089F
:10178400E200003063023230031962020318CD2BE9
:101794003230E200E3016C2589317C1B7C1DE02B97
:1017A400A430860006308701A03E84008501403FB6
:1017B4000007A6000131413F003DA700FC1FF62BA6
:1017C40020006308DF006208DE001030DE35DF0D24
:1017D400E0000E30E1005E0860022100A600200057
:1017E4005F08613B2100A700270820006302031D56
:1017F400FF2B21002608200062020318162C620821
:1018040021002602A800200063082100273BA9002C
:1018140021302000A1009A30A200642489310530CF
:101824007B144D2689311E2C21002708A900260887
:10183400A8000530DE24893186302000A1009A30CA
:10184400A20064248931210026082000CF00210051
:1018540027082000D000D101D201CC2489316C307A
:10186400A1009930A200642489313730A1009A3054
:10187400A200642489316208CF006308D000D1013A
:10188400D201CC2489316C30A1009930A2006424A7
:101894008931E830A1009930A20064248931210003
:1018A40028082000CF00210029082000D000D10101
:1018B400D201CC2489316C30A1009930A200642477
:1018C4007B170800B001B201FB186A2C0C306B2C9A
:1018D400683028009D002000A401AD01AD0A210854
:1018E40084002208850012000319080060303002C9
:1018F4000318080021088400220885000008AE00AF
:10190400B101B10AB201B20A2E0831050319912CB2
:101914003208243E860087018101810A962C320810
:10192400243E8600870181010930B135B20A3202B2
:10193400031C862C28001E119C0100308B1B0130D7
:101944002000AF008B13931128001E152000B20154
:101954003208243E86008701010C2200031C0D136B
:1019640003180D1720009311931DB62C0A30B20AE8
:101974003202031CAA2C28001E11200093112F1CD4
:10198400C52C8B17C62C8B132000A10A0319A20A9D
:10199400B00A712C5208BD005108BC005008BB00AD
:1019A4004F08BA005330BE00883166208931533065
:1019B400A1000030A200642C2000A70021004208EE
:1019C400C30020002735CB3E860001308700413F0D
:1019D4008A00403F0A008C31200027082100C20001
:1019E4000800B601B701320833040319132DB801F6
:1019F400B80AB31B002DB235B30DFA2CB635B70DAA
:101A040033083502031D082D32083402031C0F2D40
:101A14003208B4023308B53B3614B336B20CB80BF3
:101A2400002D3708B3003608B2000800280017114B
:101A3400FB1C2C2D1708FC3902389700170887392E
:101A4400483897007D3096000A302100DF0082304C
:101A5400950008001708FC390238970017088739E1
:101A6400503897008E30960001302100DF00883016
:101A740095000800FC302100990519088739683859
:101A8400990099131A1E442D9A1D462DFB14080023
:101A940021001708C1391C389700171008000230BC
:101AA4002100C500C601C7010800B001B1012C1C0A
:101AB4005F2D2E08B0072F08B13DAE35AF0DAD3602
:101AC400AC0C2C082D04031D592D3108AD00300831
:101AD400AC0008008331222389312408C80023087C
:101AE400C7002208C6002108C500BA0121002E083B
:101AF4000F3C2000B900031CBA03BB003A08BC0029
:101B04000030BC1BFF30BD00BE003B08C5073C08CD
:101B1400C63D3D08C73D3E08C83D210024082000BD
:101B2400A100210025082000A200A301A401480867
:101B3400A8004708A7004608A6004508A500883164
:101B4400DB2089312208C3002108C20021002E08AD
:101B54002000B200B3014308B5004208B400F324E6
:101B640089313208C90021002D082000A100A201FA
:101B74004908A300A401A31BA403742689312108E6
:101B8400013EC90021002D082000A100A20149083E
:101B9400A300A401A31BA4037426210821002C0282
:101BA400FF3E2000C40021002E082000A100A20155
:101BB4004308A4004208A300943140248931210839
:101BC40021002E022000C100B900BA014408AC0073
:101BD400AD01AC1BAD0321002E082000AE00AF0107
:101BE4005725893139082C072100A60020003A081E
:101BF4002D3D2100A7002000C41F0F2EA430860015
:101C040006308701A03E84008501403F0007210083
:101C1400A6000131413F003DA70020004508B9005E
:101C24004608BA004708BB004808BC002100260843
:101C34002000BD00210027082000BE00BF01C00114
:101C44003D08B9073E08BA3D3F08BB3D4008BC3DCE
:101C54003C082100A30020003B082100A200200032
:101C64003A082100A100200039082100A00023081F
:101C7400031D442E813020025130213B0130223B90
:101C8400031C08008030A007AE30A13DFE30A23D09
:101C9400FF30A33D0800A1002100C400080000306B
:101CA400DE2CC801C9010800A200B33E84009830AC
:101CB4000318013E85000008A3000B302100CE006C
:101CC4002000A4012408CF3E8600870123082407AE
:101CD40045278931810020000430A40A2402031816
:101CE4000800642EA601A41F7E2EA309A409A30A3A
:101CF4000319A40AA601A60AA21F852EA109A209F6
:101D0400A10A0319A20A210822040319A02EA5017D
:101D1400A50AA21B902EA135A20D8A2E2208240208
:101D2400031D962E21082302031C9C2E2108A302C6
:101D34002208A43BA236A10CA50B902E2608031959
:101D4400A82EA309A409A30A0319A40A2408A2001B
:101D54002308A10008002000C301FC01C4014408B9
:101D64003E3E452789310F392000C1000A30A100C9
:101D740043084E2789314107C3000330C40A440293
:101D8400031CB12E43082100AC00423045278931A1
:101D94002100AE004330452789312100AF00473090
:101DA400452789312100AD002E082000AC00AD018B
:101DB40021002D082000AE00AF01572589312D08E0
:101DC4002100A50020002C082100A400483045274C
:101DD4002000C100C201C135C20DC135C20D410888
:101DE400B9004208BA009E31A62689312100B1000B
:101DF400053EB2004430452789312100C1004530F9
:101E0400452789312000C5000530A10045080F3958
:101E14004E2789312100BF0005302000A10045086C
:101E2400C1000430C136890B142F41080F394E27E5
:101E340089312100BE003F08C00046304527893162
:101E44002000C500451C7C15C5187C16451AFB16D8
:101E5400C51E7B157C1E322F01309731DC2789315A
:101E640087310C2789312F3023028730031922024E
:101E7400031C08000130A101863134262000003003
:101E8400A1018631342E2000A1002300910092018B
:101E940095131514130808002000A300A2012108BB
:101EA4002318A207A135A3362308031D512F2208A6
:101EB400080020001C1187309C05FC309C05143060
:101EC4009B009A0191102100911422000C168F306E
:101ED4002000A200DA30A100A10B6E2FA20B6E2FFE
:101EE400000022000E110800E7278931AB00EE3014
:101EF4008600213087002B088100E430A5000030E3
:101F0400A6000430A7009A2789319C30A50021300F
:101F1400A600EE308600213087000108A7009A272A
:101F24008931E930A5000030A6000330A7009A2FBC
:101F3400AA01AA0127082A02031808002A08A800EF
:101F4400A901250786002908263D87000108003ECF
:101F5400840098300318013E85000008B4278931B5
:101F6400AA0A9C2FA1008030A2002108A300FF3000
:101F7400A306FB1AC32FFC309C051C08873968385C
:101F8400CA2F1C08873930389C001C08FC390138DA
:101F94009C00EE309B009A019110210091142000C6
:101FA400A401230822050319DA2F22000D15DC2FC2
:101FB40022000D112000A2361C151C19DF2F083039
:101FC400A40A240203180800D32F9C30A301A10003
:101FD4002130A200F52F523023020318FC2FA30A4C
:101FE400A10A0319A20A2108860022088700010811
:101FF400031DED2F230808002F080800FE0012001F
:102004001E000130FE020030FF3B7F087E040319EE
:1020140000340128FB1C18282C30A1009A30A2009F
:102024008C3164249031202090311B288D313C2543
:1020340090318D311825280017150800FC30210037
:102044009905190887393838990099131A1D2828D1
:10205400FB1008002100E2036208031D0800472862
:10206400F60028304A06031944284908A03E860091
:1020740001308700760881002830CA0AC90A490657
:102084000319C90107307C2008004E28FB15592884
:102094000E307C20903159285E08003A03194828F4
:1020A400013A03194A28033A0319592859282000E8
:1020B40018100800CD0A05304D02031C0800CD019C
:1020C40004307C20903101302100B6070030B73D48
:1020D400B83DB93D3908031D7728803036025130A8
:1020E400373B0130383B031C0800B601B701B80187
:1020F400B9010800F40000308B1B0130F5008B138C
:102104007408F0008930F101F035F10D7007840096
:102114009830713D8500003FF200013FF3007208E2
:102124002100C8047308C904751C9A288B17080079
:102134008B1308007B1DA028A120903108297A1E4A
:10214400AC2801302100D6020030D73B5608570492
:1021540003197A12FC1CBE282100C00BBE28FC1EE9
:10216400BA283F08C0008B12FC1222008C13BE2830
:102174003E08C0008B16FC162100DB0B08007A1EFB
:10218400C5280A30C6282C30DB00C82820000030BF
:10219400C8018B1A0130C6008B1222008C13273021
:1021A4002000C500F530C400C40BD628C50BD628C2
:1021B400FD209031C700460C031C8B1203188B16AC
:1021C400E7304702031CE8280130E9280030C80042
:1021D4007C0C01394806031908000310FC1C031485
:1021E400031CF628FC14F728FC10FC1808008B12BA
:1021F40022008C13080003302000B900003086311F
:10220400AB2621001C082000C300080020000D0894
:1022140021004508031908000330C5018C31DE2C68
:102224000930DC2F2000D701C2219131B330A10045
:102234002130A200E530A3009830A400C0258F31DE
:10224400E7279131D800602491312000D700303E37
:10225400D10058089C3ED2002130D301D33D52080E
:10226400860053088700510881005808013EB723AF
:102274005808D1009E30D201D3002130D400510837
:102284005307D5005208543DD60055088600560819
:1022940087003C3081005808D1009F30D201D30020
:1022A4002130D40051085307D5005208543DD600BC
:1022B4005508860056088700203081008F31E727B3
:1022C4009131D8009C30A1002130A2005808A10708
:1022D4000318A20ACA30A3009830A400C0258F3185
:1022E400E727913175291130C1000230C2008731CE
:1022F4000C2791312308BF002208BE008F31E72745
:102304009131BD00C0014208B3004108B2003F084A
:10231400B5003E08B4008C31F32491313208BC007E
:10232400413EB9003D089C3EBA002130BB01BB3D93
:102334003A0886003B08870039088100BD0A420834
:10234400A2004108A1003F08A4003E08A3004024C5
:102354002208BF002108BE001730B200B3014208B2
:10236400B5004108B4008C31F32491313308C20024
:102374003208C1000330C00A40020318080085294E
:10238400B5302000A1009930A2008C316424913131
:102394002B22CF014F08363E8F3145279131200043
:1023A400C8004F089C3EC9002130CA01CA3D4908F3
:1023B40086004A088700480881000430CF0A4F028B
:1023C400031CCC29D00150083A3E8F314527913166
:1023D4002000C8005008C900A130CA01CB00213038
:1023E400CC0049084B07CD004A084C3DCE004D08AF
:1023F40086004E088700480881000730D00A500242
:10240400031CE529A0308600213087003E3081007E
:10241400AE3086003E308100A83086002C3081002A
:10242400A93086003C308100B13086003C30810008
:10243400AC3086002E308100AF30860056308100EB
:10244400B030860042308100B230860020308100F6
:102454000800210033082000C4004530B9000030D2
:10246400BA004408BB000330BC00BD013223AA30CB
:10247400860021308700450881004608C300AB3040
:102484008600430881004708C300AD308600430836
:10249400810008002000D100C2219131BE308600A5
:1024A400213087003E308100CE3086003E308100EE
:1024B400D83086003E308100B23086002C30810056
:1024C400BD3086002C308100C13086002C30810064
:1024D400CD3086002C308100D13086002C30810034
:1024E400C03086003C308100D03086003C30810012
:1024F400B83086002E308100C83086002E3081002E
:10250400B53086003A308100C53086003A3081000B
:10251400D930860048308100BF3086004E308100BB
:102524002200470B992ABF30860053308100CF30F8
:10253400860021308700453081004D0BA52ACF301D
:10254400860057308100B3302000B9002130BA0032
:10255400220043082000BB000230BC00BD0132232E
:102564009131B630B9002130BA002200440820006D
:10257400BB000230BC00BD0132239131C230B9002E
:102584002130BA00220049082000BB000330BC00FF
:10259400BD0132239131C630B9002130BA00220086
:1025A4004A082000BB000230BC00BD013223833145
:1025B400222391312408BD002308BC002208BB005B
:1025C4002108BA00833147239131D2302000B90069
:1025D4002130BA00210053082000BB000230BC00A7
:1025E400BD0132239131D430B9002130BA00210029
:1025F40054082000BB000230BC00BD0132239131DD
:10260400D63086002130870030308100510B0E2BEC
:10261400D6308600313081003B30B7239131B93058
:10262400C3002130C400220046082000C600220056
:1026340045082000C5000430C700C801F7239131C4
:10264400C930C3002130C40022004C082000C60059
:1026540022004B082000C5000430C700C801F72B36
:1026640064303B02031C3A2B03303C0203184D2B0D
:1026740064303B020A300318472B3B02031C462BF1
:1026840002303C0203184D2B0A303B0203180800A9
:102694003C08031908003D0B582B3C08BE00BF0141
:1026A400390786003F083A3D8700810102303C0229
:1026B4000A30031C7A2BBC03A1003B088723913109
:1026C400C2000A30A1003B089F239131BB00303087
:1026D400C2073C08BE00BF013907C0003F083A3DAD
:1026E400C100400886004108870042088100582B39
:1026F400A1003B088723C2003030C2073908860096
:102704003A088700420881000800A3000830A400AA
:10271400A5012308A2000730A236890B8E2B25358C
:102724002204A500A33521082502031C9B2B2108A4
:10273400A502A40B8B2B25080800A200A4012108E4
:102744000319B52BA301A30AA11BAA2BA135A52B01
:10275400A43521082202031CB22B2108A20224144E
:10276400A136A30BAA2B24080800A4009C3EA100B8
:102774002130A201A23D21088600220887003030C2
:1027840081007C1FD12B24089C3EA1002130A20192
:10279400A23D210886002208870031308100FC1FF9
:1027A400DF2B24089C3EA1002130A201A23D210878
:1027B40086002208870032308100FA1F08002408AE
:1027C4009C3E860021308701873D0108033EA1001D
:1027D40024089C3EA2002130A301A33D22088600C8
:1027E40023088700210881000800273046021030A2
:1027F40003194502031C022C0530470203180D2C53
:10280400273046021030031945020318080004302B
:102814004702031C08004408BA004308B9006430A6
:10282400B200B3014608B5004508B4008C31F32466
:1028340091313208BB004708FE3EBC004808BD0089
:10284400322391314408BA004308B9004708B90754
:102854000318BA0AFE30B907031CBA036430A10096
:10286400A2014608A4004508A30040249131210890
:10287400BB000230BC004808BD00322B21082204F2
:1028840003195B2CA501A50AA21B4B2CA135A20D93
:10289400452C22082402031D512C21082302031C69
:1028A400572C2108A3022208A43BA236A10CA50B95
:1028B4004B2C2408A2002308A100080022003A0897
:1028C40008007D30A1009A30A2008C31642491313B
:1028D4007B1E772C8D316C2591310030270204301A
:1028E4000319260203187C2C822C58302100A600E0
:1028F4000230A7002608FD3EA800FF30273DA900AE
:102904007B17842C80302000A1002530A2001F25D5
:102914009131FC2591312200BB01012EC22191315C
:10292400B330A1002130A200D830A3009830A40015
:10293400C0258F31E7279131D3009C30A10021308D
:10294400A2005308A1070318A20ACA30A3009830B2
:10295400A400C025913175218F31E727D3009C3E17
:10296400D1002130D201D23D51088600520887009F
:1029740020308100D30A53089C3ED1002130D2017B
:10298400D23D51088600520887002030810008009B
:1029940080302000A1000430A2001F259131823034
:1029A4002000B700DD30B600B60BD62CB70BD62C02
:1029B400003248302000A2009930A300D82591317C
:1029C4008230B700DD30B600B60BE62CB70BE62C30
:1029D400003222008E1206302000B8001330B700F7
:1029E400B130B600B60BF42CB70BF42CB80BF42CA6
:1029F400003222008E1660302000A100A2011F25A3
:102A0400913182302000B700DD30B600B60B082DBE
:102A1400B70B082D00325E2591318230B700DD30CE
:102A2400B600B60B132DB70B132D0032A7302000C0
:102A3400A1009930A2008C31642C23001E129F1532
:102A44001E15352D23009C016730332D23009C0176
:102A54001030332D23009C010830332D23009C01BA
:102A64000C309B00532D20002208003A0319412DFD
:102A7400023A0319462D063A03194B2D532D21080A
:102A8400603A0319242D532D2108403A0319282DA7
:102A9400532D2108803A03192C2D013A0319302DA6
:102AA400532D82302000A400DD30A300A30B582D49
:102AB400A40B582D003208006C302000A10099307E
:102AC400A2008C31642491319C30A1002130A200F9
:102AD400F230A3009830A400C0259131A630A100A3
:102AE4002130A2003C30A3009930A400C0259131CC
:102AF400AB30A1002130A2004530A3009930A400DE
:102B0400C025B5013508603E860001308700010804
:102B1400B300A530860021308700330881003508D2
:102B2400DD3E8600013087000108B300AA3086002C
:102B340021308700330881009C30A1002130A2009D
:102B44008C31642491319C30A2002130A300D8251B
:102B540091318230B400DD30B300B30BAF2DB40B30
:102B6400AF2D003220000830B50A3502031C842D35
:102B7400CF30A1009930A2008C31642C2208A60029
:102B84002108A5002508860026088700230884005C
:102B9400240885000008C03F890803190800A50A15
:102BA4000319A60AA30A0319A40AC42DA50123081C
:102BB400A7002208A6002608840027088500120022
:102BC4000319080080302502031808002608840031
:102BD400270885000008F52591312000A60A03196D
:102BE400A70AA50ADD2DA100111EF62D2108230038
:102BF4009A00080023009D171D169E160800F80170
:102C0400F901DE26913123001D16210091162200C0
:102C14008E160130452691312526111420001814F2
:102C240079158331222324082200A30020002308DD
:102C34002200A200200022082200A1002000210876
:102C44002200A00008000030200018180130A10064
:102C540000302100111801302000A2001810FB11CF
:102C640021005D08E2002000111097019601210C5B
:102C7400031C181003181814220C2100031C111033
:102C84000318111408002000A100181818102100BE
:102C9400DE00B73E840098300318013E850000082A
:102CA400DD000800B700791A0800781521005808DB
:102CB4008600590887002000370881002100D80ABF
:102CC4000319D90ADC03F81F882EDA035A08031DF6
:102CD400B32E9C302000A1002130A20021005C080A
:102CE400523C2000A300EB269131013A031D852EAE
:102CF40078162100580886005908870081012200AF
:102D04003C08B6279131DE269131B32E781F912EDF
:102D14002A3020003706031DB32EF817B32EF81EF1
:102D2400AA2E0630E30A6306031DB32E5808860054
:102D3400590887009C3081012000A6002130A7009B
:102D44004D279131013A031D852E7817F815B32EBE
:102D5400243020003706031D852EF8162100E301D8
:102D6400E30A21005C08031DB92EDE269131F9180F
:102D7400791C08006B302000A1009A30A2008C312D
:102D840064249131F915CA27913121003D082000AE
:102D9400A40021003C082000A30021003B082000DF
:102DA400A20021003A082000A100992791310630A1
:102DB400DC27F910791008009C30F8127813F81306
:102DC4002100D8002130D9005230DC000230DA0072
:102DD4000800A601A701A10A0319A20AAA01AA0AC6
:102DE4002308FD3EA400FF3003180030A500803AFC
:102DF400803C031DFF2E24082A0203180C2F2000F8
:102E040021088600220887000108A606A10A0319E2
:102E1400A20AF12E2000AA01A10A0319A20A21087C
:102E2400860022088700473001022A08031C242F49
:102E3400283E8600870121088400220885000008B6
:102E4400DF392C2F283E86008701210884002208C0
:102E540085000008D03E81002A08283E86000A30FA
:102E640087010102031C402F2A08283E86002A08F5
:102E7400283E840085010008F93E81000230AA0A38
:102E84002A02031C0E2F280EF0392904A700260657
:102E9400031901340034AC01AB01AC012708A200D2
:102EA4002608A1002C08A800A930A901A835A90D5D
:102EB400280784009830293D8500003FA300013F86
:102EC400A4007727913121082204031D6F2FAB0141
:102ED400AB0A2C082200BC00742F0530AC0A2C026B
:102EE400031C502F20002B080800852F2108860082
:102EF4002208870001080319932FA10A0319A20AC3
:102F0400A30A0319A40A21088600220887002308BB
:102F140084002408850000080102A500250803197F
:102F2400782F2508A100A201A11BA20308000030EC
:102F34008B1B0130A5008B1324082100B90020004D
:102F440023082100B800200022082100B700200037
:102F540021082100B6007B16CD012000251CB42FCA
:102F64008B1708008B1308002000B600BF2F803198
:102F7400C4289E312F2E0100080036088400053035
:102F84000402031808009A310435D13E8200080077
:102F94008331222324082200A700200023082200D2
:102FA400A600200022082200A500200021082200FB
:102FB400A40008002000A50000308B1B0130A600EF
:102FC4008B132508A1008930A201A135A20D210788
:102FD40084009830223D8500003FA300013FA400F7
:102FE40023082100C804200024082100C90420006B
:102FF400261CFE2F8B1708008B13080003340034A3
:1030040000340034003400340034533400340034C9
:103014002334003400340B340034003400340034DE
:1030240000340034003400340034003400340034FC
:1030340000340034003400340034003413345B347E
:10304400473417344B3400342F346B347B342734F7
:10305400003400341B3463341F345F343734773422
:10306400673443342B3407345734733433340F34D4
:103074003B343F347F3400346F344F340034633492
:103084004F343B344B3443345B342F3417343334B0
:103094006B347B3427341F341B340F343734773488
:1030A4002B345334073473343F3467345F34573428
:1030B4004734003400341134093401349234003478
:1030C40002344434053403340C3410340434683486
:1030D4001E3405349C3410340634A33403340734CA
:1030E400603407340834633414340934F434023457
:1030F4000A34063408340B34A6340B340C34FF344D
:1031040007340D34FF3407340E347534003401347D
:1031140000340234003404340034083400341034ED
:10312400003420340034403400348034003400341B
:1031340001340034023400340434003408340034DC
:1031440010340034203400344034003480341834D3
:1031540099340A3499341134993403349934FC344D
:103164009834223427342C3431341E343C3496348D
:1031740047345034533444345F3476342E34313449
:103184002E3430345F34643462340D340A34003401
:1031940056343E34323434343C3444343E3436349D
:1031A40036343C3420344334203400344134433402
:1031B40054344934563441344E3444344F34533403
:1031C4004534203400344E344F3454344934433479
:1031D4004534203447345034533420343E3400349E
:1031E4002434503441344934523430343634323453
:1031F4002C34003424344534453453344C3466344C
:103204000034243447344E34473453344134003486
:10321400243447344E3452344D344334003424344B
:10322400473450344734533441340034243447341D
:10323400503452344D3443340034073400340034B1
:1032440000340034003408340034003401340434CD
:1032540000340934003400340234083400340A34AD
:103264000034003403340C3400340034803400342B
:10327400003440342C3430342A34333400340134B0
:103284001834083424340D340A34003424345034CB
:103294004134493452343834363434342C343034B0
:1032A4002C3430342C3439343634303430342A34F9
:1032B400313433340D340A3400340D340A342034B8
:1032C4005534443420344534523452344F34523417
:1032D400203421340D340A3400340D340A34473494
:1032E400503453342034423420344534523452342C
:1032F4000D340A3400340D340A3447345034533412
:103304002034463420344534523452340D340A3493
:1033140000340D340A344734503453342034573491
:103324006F3472346B3473340D340A3400340D3416
:103334000A344C346F3463346B345F34743469341A
:103344006D3465343A34203400340D340A34633433
:10335400663467345F34733465346E3474340D34D6
:103364000A34623400346D34733467345F3468343F
:10337400653461346434653472340D340A34003491
:103384000D340A3447345034533420344F342E34FB
:103394004B342E340D340A3400340D340A3453348F
:1033A40065346E34743420346334663467340D34D5
:1033B4000A3400340D340A34543478345F346434B9
:1033C4006F346E3465340D340A340034723474341A
:1033D40063345F3461346C34613472346D343A3440
:1033E400203400344134703472342034303438346E
:1033F4002034323430343234353400340D340A3429
:1034040043344C3443344B345F3431340D340A3454
:1034140000340D340A3443344C3443344B345F3475
:1034240032340D340A3400340D340A3443344C3409
:1034340043344B345F3433340D340A3400340D34A4
:103444000A3443344C3443344B345F3434340D3411
:103454000A3400340D340A3443344C3443344B348A
:103464005F344C340D340A34003453345F346C34D8
:103474006F3463346B34653472343A34203400343A
:10348400473444345F347334743461347234743480
:103494007534703400344E346F34203470346F34E7
:1034A40073342E340D340A340034473450345334D6
:1034B4005F344F34463446340D340A3400340D340A
:1034C4000A344234553449344C3444343A34203484
:1034D40000340D340A34533479346E3463340D3487
:1034E4000A3400344734443420344F3446344634A8
:1034F4000D340A3400344734503453345F344F3479
:103504004E340D340A34003453345F3432345F346F
:10351400743478343A34203400340D340A344D345D
:103524004934503453343A3420340034313433344D
:103534003A34353434343A343034333400340D349A
:103544000A34443465347234723400345334553498
:1035540050340D340A3400344534303400344534A6
:103564003134003445343234003445343334003497
:103574004534343400344534353400344534363439
:103584000034453437340034453438340034453459
:10359400393400342034203400342E34003497314C
:1035A400B92F9731B92F9731BB2F9731BB2F973153
:1035B400BD2F87315F2F87315F2F87315F2F873191
:0635C4005F2F87315F2F2D
:1039D60021004108080000309731DC2F0A3097316A
:1039E600DC2F08309731DC2F08309731DC2F0B3075
:1039F6009731DC2F02309731DC2F2200350820006A
:103A0600A200220034082000A10008009531FC2500
:103A16009D3122008E169431CA2422008E1208008F
:103A2600CF30200098051810210011102000111029
:103A36009701960108006400013080010131FE0201
:103A46000030FF3B7F087E04031900341F2D1F340E
:103A56009934253499342B349934313499343034AB
:103A66003134333435343634373438343934283015
:103A760023008C008D0185317925283021008C00AA
:103A860001308D0080308E0024008D0108309000BA
:103A960008002C3401349C34213402342C34523442
:103AA6001E3403340A340A340A341E3401343C34D6
:103AB6003C340D340A34003458340D340A3400349E
:103AC6008030A101A200A30122000C110000000019
:103AD60022000C1500000000200022088C18A1040A
:103AE6000830A236A30A2302031C672D210808000A
:103AF600863157269D312100B3007C1F892D32085F
:103B06003302031C892D7C13FC13902D7C1B902DF6
:103B160033083102031C902D7C1751303302031CED
:103B2600FC1708002000A10028001E111E08873976
:103B360008389E00FC309E0568309D002000210854
:103B4600031DA82D0C3028009D0020009311210094
:103B56000D1322000D17080002340834EE341C340D
:103B6600F1341C34F4341C3412341134F7341C345C
:103B760070340034FA341C34FD341C344534463475
:103B8600443442343834393436343734E5259D31BB
:103B960021004C08003A0319DA2D013A0319DC2DED
:103BA600033A0319DF2D013A0319E22DE42D94316E
:103BB600902C003092314C2A013092314C2A9131AE
:103BC60014290800A1012108803A313E0318F42D7A
:103BD60021089C3E860021308701873D8101A10A8C
:103BE600E62DEE308600213087008101080018108E
:103BF6007911781E052E22008B30BA012000A10013
:103C06009930292E7819192E02302200BA007D30FB
:103C16002000A1009930A2008C3164249D3194319A
:103C2600CA249D31963101269D312C2EF819232E5A
:103C360022006F30BA01BA0A2000A10099300E2E78
:103C46002200C230BA012000A1009930A2008C31B6
:103C5600642422003A0808009C30F910A1002130A3
:103C6600A2002C30A3008231A2229E312208A50098
:103C76002108A400A40A0319A50A24088600250819
:103C860087004D300106031D4B2E2100CA01080096
:103C96002508A2002408A1002C30A3008231A2220C
:103CA6009E312208A5002108A400A40A0319A50A2A
:103CB600240886002508870033300106031D080006
:103CC60003302100CB00F91408007B1F9A2E013027
:103CD6002100A8020030A93BCF302000A1009A3075
:103CE600A2008C3164249E312100E10B912E6C30B0
:103CF6002000A1009930A2008C3164249E310A3044
:103D06002100E10028082000CF002100290820001A
:103D1600D000D101D2018C31CC249E31210028085B
:103D26002904031D9A2E7B138331DD239E317A1FCE
:103D360008009D2E2100B4033408031D080004303A
:103D46007A13B50008000930BB01BC01BD01BE01F4
:103D5600B200B3013A08AD003908AC000530AE0038
:103D6600AF018D3157259E312D08B5002C08B400C2
:103D76008C31F3249E313308C0003208BF00023074
:103D8600BF070318C00A3030B200B3013A08AD00CD
:103D96003908AC001130AE00AF018D3157259E3188
:103DA6002C08313EB40000302D3DB5008C31F32493
:103DB6009E313308BC003208BB000730B200B301A5
:103DC6003B083F07B4003C08403DB5008C31F32466
:0A3DD6003308BE003208BD000800EB
:020000040001F9
:04000E00CCEFFFDE56
:10E00000000000000000FF00FF00FF00FF00FF0015
:10E01000FF00FF00FF00FF00FF00FF00FF00FF0008
:10E02000FF00FF00FF00FF00FF00FF00FF00FF00F8
:10E03000FF00FF00FF00FF00FF00FF00FF00FF00E8
:10E04000FF00FF00150039002B007F00FF001500C6
:10E0500039004500B600FF00150039002B007F0095
:10E06000FF00150039004500B600FF0044004300E2
:10E0700054004300390039003900380030003000C6
:10E080003400FF000A00010001001A0094000C0097
:10E09000CF00FF00FF00FF00FF00FF00FF00FF00B8
:10E0A000FF00FF00FF00FF00FF00FF00FF00FF0078
:10E0B000FF00FF00FF00FF00FF00FF00FF00FF0068
:10E0C000FF00FF00FF00FF00FF00FF00FF00FF0058
:10E0D000FF00FF00FF00FF00FF00FF00FF00FF0048
:10E0E000FF00FF00FF00FF00FF00FF00FF00FF0038
:10E0F000FF00FF00FF00FF00FF00FF00FF00FF0028
:10E10000FF00FF00FF00FF00FF00FF00FF00FF0017
:10E11000FF00FF00FF00FF00FF00FF00FF00FF0007
:10E12000FF00FF00FF00FF00FF00FF00FF00FF00F7
:10E13000FF00FF00FF00FF00FF00FF00FF00FF00E7
:10E14000FF00FF00FF00FF00FF00FF00FF00FF00D7
:10E15000FF00FF00FF00FF00FF00FF00FF00FF00C7
:10E16000FF00FF00FF00FF00FF00FF00FF00FF00B7
:10E17000FF00FF00FF00FF00FF00FF00FF00FF00A7
:10E18000FF00FF00FF00FF00FF00FF00FF00FF0097
:10E19000FF00FF00FF00FF00FF00FF00FF00FF0087
:10E1A000FF00FF00FF00FF00FF00FF00FF00FF0077
:10E1B000FF00FF00FF00FF00FF00FF00FF00FF0067
:10E1C000FF00FF00FF00FF00FF00FF00FF00FF0057
:10E1D000FF00FF00FF00FF00FF00FF00FF00FF0047
:10E1E000FF00FF00FF00FF00FF00FF00FF00FF0037
:10E1F000FF00FF00FF00FF00FF00FF00FF00FF0027
:00000001FF
