:1000000000008031682808007E14803123009D1C88
:1000100018281D12000023001D1618282000911E0C
:100020001B2823001908F7007708873160278031E3
:100030002100911A0E282100911C23282000911CD8
:1000400023281C1191108B1A0B1D3D28F90A9131A0
:10005000542180317906031D2F2822008E120A3088
:100060007902031C362822008E16F901F8183C2864
:1000700020001508053E95000B112100931C5D28FA
:100080002000931C5D28FC03F81C49287C08031DF4
:100090005B2887318E27803105308731AE2780314C
:1000A000781C592803308731AE278031280017117A
:1000B00078100A30FC00200093102100111C6628E3
:1000C0002000111C662887315B2711107E10090063
:1000D00020000308A0008231A62A0330C901C8010C
:1000E000C62180311C150530BB2180315B22803157
:1000F000A0284D268031013A031D9E28C80A2E26CD
:100100008031C7005B2280318D2802308B28C901E5
:10011000C90A98280330C900982847086E3A03197D
:100120008A281C3A03198528053A03198728982834
:1001300049080319A02830228031A0280430C900C2
:1001400020004908031DA82805304802031C79280F
:1001500049080800CF2680315A309621803102307C
:10016000CE000430CD00BA30CC00CC0BB528CD0B7E
:10017000B528CE0BB5280000033025218031003092
:100180004D228031302280311114200018141029A2
:10019000233013228031013A031D1F292330FF2110
:1001A0008031003A031D1F29172780310030252197
:1001B00080311F29043013228031013A031D1F2989
:1001C0000430FF218031003A031D1F29D7268031DA
:1001D000013A031D0829CF014F089C3E86002130BB
:1001E0008701873D0108A1004F08A13E8400983097
:1001F0000318013E850000082825803120000330C7
:10020000CF0A4F02031CEC280130252180311F2921
:100210000230252180311F290030252180311F29FE
:100220006D208031013A0319C828033A03190C29BB
:10023000013A0319DA28073A03191F291F29181050
:100240002100111020001C1108002000A600003021
:10025000A701A901C62180311C151430BB218031B2
:100260000130C62180318629A8012808893E8400F2
:1002700098300318013E85000008DB2480312000FF
:10028000A900A706962180312230A80A2802031867
:1002900094293529A8012808A13E84009830031824
:1002A000013E85000008DB2480312000A900A7065C
:1002B000962180310330A80A2802031894294B297B
:1002C0006530A70696218031A930840098308500DA
:1002D0000008DB2480312000A900A7069621803188
:1002E0005530A706962180319429A8012808683E38
:1002F0008600013087000108A900A70696218031F9
:100300000630A80A28020318942976292608003AFC
:1003100003193429013A03194A29033A03196029B8
:10032000013A03197529942927089629A4001C115C
:100330009A0191101C1522008E160630BB218031C7
:10034000A5012408A300250AA629A336890BA529FF
:100350002318AD2922008E16AF2922008E120630F6
:10036000BB2180310830A50A2502031CA1292200E7
:100370008E120630BB292000A100A200220803191A
:100380000800911CC129A2039110BE29A1005B2283
:100390008031F0291C08FC3901389C001C08873981
:1003A00070389C00FA309B0008001C08FC390138AA
:1003B0009C0087309C05D2291C08FC3901389C0020
:1003C0007D309B0087309C0508001C08FC390138F3
:1003D0009C0060309B001C08873938389C0008005E
:1003E0002108003A0319CA29013A0319D529033A09
:1003F0000319DC29013A0319E529FE290800A100A7
:10040000A301A201A301210823020318112A230832
:100410009C3E860021308701873D0108A206A30A81
:10042000032A22080800CA00CB01CB014A084B026C
:10043000031801344D268031013A031D00342E2665
:100440008031C7004B089C3EC8002130C901C93D1E
:10045000480886004908870047088100CB0A162A09
:10046000003018180130A1000030210011180130AF
:100470002000A2001810F8116F08FD00111097015C
:100480009601210C031C181003181814220C2100CB
:10049000031C11100318111408002000A1001818E3
:1004A0001810FB00D93E840098300318013E8500E7
:1004B0000008EF0008001C119A01911008002000AC
:1004C000CA0049258031CB000230DB248031200076
:1004D000CE00F12480312308CD002208CC00043066
:1004E0004A06031D7B2A73304B02031C4E0B080087
:1004F0000230A101282D79304B02031C08004E0860
:10050000031D08000230A101A10A282580312F30E7
:1005100020004D02863003194C02031C972A01303B
:10052000A1012825803120000030A101282DCC0A0E
:100530000319CD0A4D08CE00A100013028258031D5
:1005400020004C08CE00A1000030282D0330FB0015
:100550000A30FC001E30FD005230EE001E30EF006D
:100560000B30840088308500D93086000030870049
:100570000030FF0016308731EF27803121308400B2
:100580008830850058308600013087000030FF0039
:1005900017308731EF27803138308400883085006C
:1005A000CB308600013087000030FF001A308731E1
:1005B000EF2780319C308400213085005430FE00CC
:1005C0000030FF0091318B218031F801F901FA01EF
:1005D000EA01EB01EC01ED01A03084000030850060
:1005E0003930FE000030FF0091318B218031203006
:1005F0008400013085003830FE000030FF0091316A
:100600008B218031A0308400013085002B30FE002A
:100610000030FF0091318B21803120308400023086
:1006200085001A30FE000030FF0091318B218031AF
:100630007E1020001B2BB923803101302323803111
:100640003823803168282000A70021004208C30019
:1006500020002735CB3E860001308700413F8A00CD
:10066000403F0A008331200027082100C200080013
:1006700020001F30E501E6013F00ED002000E7010A
:10068000E70AE801E901210048084904031D4A2B53
:100690006400432B49082000E600210048082000A0
:1006A000E50067086505E10068086605E200610489
:1006B000031D5E2BE735E80DE90A512B6908AC00F4
:1006C0000330AD01AE00AF017E232D0885002C085C
:1006D00084005D3084079830853D003FE300013F92
:1006E000E4008A0063080A000730833120006906AD
:1006F00003193E2B6908932380313E2BB001B101D1
:100700002C1C862B2E08B0072F08B13DAE35AF0D3F
:10071000AD36AC0C2C082D04031D802B3108AD0028
:100720003008AC0008002000A50000308B1B013011
:10073000A6008B132508A100AB30A201A135A20DA4
:10074000210784009830223D8500003FA300013F2F
:10075000A400A309A40923082100C8052000240837
:100760002100C9052000261CB72B8B1708008B130E
:1007700008006400FF23803107302000D0007D3066
:10078000CF00CF0BC12BD00BC12B01302C248031DB
:10079000BD2580311A248031BA258031462480312C
:1007A0001C248031DB238031142480310D249231CC
:1007B0002B228031322F28001711F81CEF2B17083D
:1007C000FC390238970017088739483897007D3080
:1007D00096000A302100E0008230950008001708DA
:1007E000FC390238970017088739503897008E3047
:1007F000960001302100E000883095000800FC30B0
:1008000021009905190887396838990099131A1E2B
:10081000072C9A1D092CF814080021001708C1396B
:100820001C3897001710080002302100C500C601CF
:10083000C70108000030232B23008C0109308D00F4
:10084000C82521008C0109308D0082308E002400E3
:100850008D010830900008002000A10028001E1122
:100860001E08873908389E00FC309E0568309D00C0
:1008700020002108031D3F2C0C3028009D00200083
:10088000931121000D1322000D1708002000C30151
:10089000ED01C40144083E3EDB2480310F392000C5
:1008A000C1000A30A1004308E42480314107C3009D
:1008B0000330C40A4402031C4A2C43082100AC0044
:1008C0004230DB2480312100AE004330DB24803114
:1008D0002100AF004730DB2480312100AD002E081D
:1008E0002000AC00AD0121002D082000AE00AF01BA
:1008F0007E2380312D082100A50020002C08210036
:10090000A4004830DB242000C100C201C135C20D63
:10091000C135C20D4108B9004208BA0088315220E1
:1009200080312100B100053EB2004430DB2480312B
:100930002100C1004530DB2480312000C500053096
:10094000A10045080F39E42480312100BF000530A3
:100950002000A1004508C1000430C136890BAD2C30
:1009600041080F39E42480312100BE003F08C00057
:100970004630DB2480312000C500451C6D15C518AC
:100980006D16451AF816C51E78156D1ECA2C013055
:1009900004258031F12480312F3023028730031960
:1009A0002202031C08000130A1012825803120000B
:1009B0000030A101282D2000A10023009100920108
:1009C00095131514130808002000A300A2012108A4
:1009D0002318A207A135A3362308031DE72C2208FC
:1009E00008000130DB2480312000A600A500003083
:1009F000A401DB242000A600A4070318A50A2508EB
:100A0000A3002408A20008002000A50000308B1BD2
:100A10000130A6008B132508A100AB30A201A1353F
:100A2000A20D210784009830223D8500003FA300DD
:100A3000013FA40023082100C8042000240821004D
:100A4000C9042000261C262D8B1708008B130800D4
:100A5000A2002300910092012000210823009300AE
:100A60009513151500308B1B01302000A3008B134C
:100A7000553023009600AA30960095142000230CD0
:100A8000031C8B1303188B1723009518442D151185
:100A90000800823022009700171F4C2D1F302000C5
:100AA000B9000130CE2580313A08C9003908C800A4
:100AB000220097130C302000B9000130CE25803180
:100AC0003A08C4003908C3004808490403198A2DAC
:100AD0004808AD004908AE00AF01B0014308A100CD
:100AE0004408A2002030A301A401A801A701A60088
:100AF0000C30A500952580312408B4002308B300EC
:100B00002208B2002108B100902680312E08C600CC
:100B10002D08C5006430B200B3014608B500450891
:100B2000B4006B263208C7000800A901AA01AB0176
:100B3000AC01211CA32D2508A9072608AA3D2708DA
:100B4000AB3D2808AC3DA535A60DA70DA80DA436D4
:100B5000A30CA20CA10C2408230422042104031DCD
:100B6000992D2C08A4002B08A3002A08A20029080C
:100B7000A1000800C801C9010800CF302000980575
:100B80001810210011102000111097019601080083
:100B900022008C018D0104308E000800BC00C201CF
:100BA000C20ABD01BE0121001E088F3910389E0007
:100BB000FC309E051E1120003908BB00BB0DBB0D8B
:100BC00021001D0820003B0683393B0621009D00C3
:100BD00020003C0C2100031C9E1303189E171D14BB
:100BE00053302000BB00BB0BF32D0C302000390626
:100BF0000319FE2D1F303906031D062EF930BB00E8
:100C0000BB0B002E003204302000C200C10142089C
:100C1000410203181A2E21009D14000021009D1886
:100C20000E2E1B082000BD0721001C082000BE3D21
:100C3000C10A072E21001D1020004208B200B30196
:100C40003E08B5003D08B4006B263308C0003208EA
:100C5000BF004008BA003F08B9000800C501C40140
:100C60003022803120001C150530BB218031C601A7
:100C70000A30BB21803161268031C4009B304402A0
:100C8000031C442EC536462E0314C50C0830C60A74
:100C90004602031C382E45080800F8190034612666
:100CA0008031C4009A304402031C5E2E4D2E612612
:100CB0008031C4009B30440203180134F8194D2ED2
:100CC000572E09302000B9000030CE2521001C0825
:100CD0002000C3000800B601B7013208330403192D
:100CE0008B2EB801B80AB31B782EB235B30D722E15
:100CF000B635B70D33083502031D802E3208340295
:100D0000031C872E3208B4023308B53B3614B336C1
:100D1000B20CB80B782E3708B3003608B2000800C2
:100D2000B501B601B701B80130082F042E042D0417
:100D30000319C62EB901B90AB01BA32EAD35AE0DED
:100D4000AF0DB00D9B2EB535B60DB70DB80D3008F3
:100D50003402031DB52E2F083302031DB52E2E08B5
:100D60003202031DB52E2D083102031CC02E2D08A2
:100D7000B1022E08B23B2F08B33B3008B43B351408
:100D8000B036AF0CAE0CAD0CB90BA32E3808B000CA
:100D90003708AF003608AE003508AD0008002F0058
:100DA000910121001113200011130130C629A9302F
:100DB000B401B601B7018400983085000008DB2437
:100DC00080312000B400B80138089C3E86002130F4
:100DD0008701873D0108D03EB5000A30350203186F
:100DE00000343708AD003608AC000A30AE00AF0161
:100DF0007E2380312D08B7002C08B6003508B607D1
:100E00000318B70A0330B80A3802031CE42E34086A
:100E1000B200B30137083302031D102F3608320227
:100E2000031C003436083704031D01340034A401C8
:100E3000A40124089C3E860021308701873D0108DB
:100E4000A1002408893E840098300318013E8500E3
:100E500000082825803120002230A40A240203182B
:100E60000800192F2000EC0114248731CE2780318F
:100E700078127813913177218031B0014C2780317D
:100E80000B118B120B178B1720009310210093145A
:100E90002800171502305F2A20000A30ED10ED12ED
:100EA0006C162100D900DA013F08C0002C30DB00AD
:100EB0000130DC000800FD037D08031D0800752FCC
:100EC000F60028304A060319722F4908A03E860012
:100ED00001308700760881002830CA0AC90A49060D
:100EE0000319C9010730AE270800802FF8158B2F92
:100EF0000E30AE2787318B2F22008D120D128B2FD3
:100F00007B08003A0319762F013A0319782F033A28
:100F100003197C2F8B2F200018100800FA0A0530C7
:100F20007A02031C0800FA010430AE278731013031
:100F30002100B6070030B73DB83DB93D3908031D63
:100F4000A92F803036025130373B0130383B031C2B
:100F50000800B601B701B801B9010800F40000307B
:100F60008B1B0130F5008B137408F000AB30F101DE
:100F7000F035F10D700784009830713D8500003F19
:100F8000F200013FF30072082100C8047308C9048D
:100F9000751CCC2F8B1708008B1308002000EB1159
:100FA0002200BD01A001A101A201A301A401A5018C
:100FB000A601A7012000A1012135283E86000130AD
:100FC00087003230C03F0030C13F0630A10A210205
:100FD000031CDC2F32302200B400B5010800FE00F3
:100FE00012001E000130FE020030FF3B7F087E042D
:100FF00003190034F02F0C30853104258531C82DBC
:101000009C31332C9C31332C9C31352C9C31352C2C
:041010009C31372CAC
:101016002C3401342C3401349C34213402340A3407
:1010260001343C343C340D340A34003458340D3425
:101036000A340034AD340034003400343134993489
:10104600373499343D349934433499343034313417
:101056003334353436343734383439343034333441
:10106600303437343234303400346C3411345A343A
:1010760011345D341134603411345734113463340F
:101086001134FB3407346634113469341134453471
:1010960046344434423438343934363437340930FB
:1010A600BB01BC01BD01BE01B200B3013A08AD00EF
:1010B6003908AC000530AE00AF0183317E2388319C
:1010C6002D08B5002C08B40086316B26883133080C
:1010D600C0003208BF000230BF070318C00A303014
:1010E600B200B3013A08AD003908AC001130AE00C9
:1010F600AF0183317E2388312C08313EB4000030A5
:101106002D3DB50086316B2688313308BC00320888
:10111600BB000730B200B3013B083F07B4003C08F0
:10112600403DB50086316B263308BE003208BD004F
:10113600080027304602103003194502031CA72871
:10114600053047020318B22827304602103003192B
:1011560045020318080004304702031C080044082F
:10116600BA004308B9006430B200B3014608B500BE
:101176004508B40086316B2688313208BB00470823
:10118600FE3EBC004808BD008F31792788314408EF
:10119600BA004308B9004708B9070318BA0AFE306F
:1011A600B907031CBA036430A100A2014608A400D3
:1011B6004508A3008D31D5252108BB000230BC00AF
:1011C6004808BD008F31792F3D08C5003C08C40092
:1011D6003B08C3003A08C2000E30B001AF01AE00B2
:1011E6001030AD004508B4004408B3004308B2000F
:1011F6004208B1008631902688312D082100D6009C
:101206003C302000AD00AE01AF01B0012100560810
:101216002000A100FF30A201A301A401A800A7009D
:10122600F130A600F030A5008531952588312108DA
:101236004207BE002208433DBF002308443DC000CC
:101246002408453DC100B4004008B3003F08B20081
:101256003E08B1008631902688312D082100D7003E
:10126600C4302000A100210057088431E4248831CD
:10127600BE00F030A100210056088431E4243E0768
:1012860042072100D80008002100171000305F2116
:10129600043082315F22893121001714FE278931FB
:1012A600033A031D592905308331232B0730833137
:1012B600232389318531C82DF52389312000DC00AF
:1012C6000030E0012100111801302000DD0021006E
:1012D600111000308B1A01302000DE008B12EC1347
:1012E600BA2389312E238931053020006002031884
:1012F6008E29C921893130228931013A031D862977
:101306000530E000772922008D142000E00AEC1752
:1013160022008D107729F723893122000D150D3013
:101326002000DA00FB30D900D90B9729DA0B972970
:10133600003222000C128C162000DF015C085F02CE
:101346000318B5290630DB001330DA00B130D900B6
:10135600D90BAB29DA0BAB29DB0BAB29003220000A
:10136600DF0AA1294923893122008C1624238931D9
:101376007D265D0C2100031C11100318111420009A
:101386005E0C031C8B1203188B1608000030CA2251
:1013960089318A22893149302000A4009930A5007C
:1013A6000530A6000822893153302000A400993068
:1013B600A5000430A600082289312000AB012B08C5
:1013C600CA2289318A22893120002B35583E86006F
:1013D60001308700403FA400413FA5000630A6002B
:1013E6000822893120002B0805238931CD30A4003D
:1013F6000030A5000530A600082289312000023001
:10140600AB0A2B0203180800E22922000C13200065
:10141600AA012A08A700A801A71BA8032808803A42
:10142600A90080302902031D1A2A2608270203185C
:101436002D2A20002A08A700A801A71BA803240814
:10144600270784002508283D85000008E722893102
:10145600AA0A0C2A22000C178A2A0030AC01AC0A10
:10146600CA2289318A22893149302000A400993064
:10147600A5000530A60094228931003A031D452AAD
:101486002000AC018A22893153302000A400993013
:10149600A5000430A60094228931003A031D552A7E
:1014A6002000AC018A2289312000AD012D08CA2214
:1014B60089318A22893120002D35583E8600013037
:1014C6008700403FA400413FA5000630A6009422B5
:1014D6008931003A031D712A2000AC0120002D0835
:1014E60005238931CD30A4000030A5000530A600C3
:1014F60094228931003A031D822A2000AC01200083
:101506000230AD0A2D02031C592A2C0808002000BF
:101516001C1522008C1520001C198E2A22008C1105
:101526000800240884002508850000088038AA00E1
:10153600A901A90A22000C1320002A08E7228931F2
:1015460021008C172000AB01AB0A26082B020318DA
:10155600C32ADD238931AA002508A8002408A7008C
:101566002B082707840028080318280A8500000886
:101576002A060319A72A22000C1721008C1300340F
:1015860022000C1721008C132000290808002000D7
:10159600A20022360139A100A10E22000C0820006B
:1015A6002106EF39210622008C002000220801398D
:1015B600A100A10EA10D22000C0820002106DF3992
:1015C600210622008C000800A1008030A200A301A1
:1015D60022000C112000210822050319F52A2200F9
:1015E6008C17F72A22008C130000000022000C152D
:1015F6000000000020000830A236A30A23020318C8
:101606000800EB2AA200D53E840098300318013E5C
:1016160085000008A3000B302100CD002000A401A6
:101626002408CE3E86008701230824078431DB2464
:101636008931810020000430A40A2402031808001E
:10164600132B0C100D118D100C138C130C118C1107
:101656008C120C12080020001C1187309C05FC30EF
:101666009C0514309B009A019110210091142200D0
:101676000C148F302000A200DA30A100A10B412B00
:10168600A20B412B000022008D100800F5248931A1
:10169600AB00EE308600213087002B088100E23057
:1016A600A5000030A6000430A7006D2389319C30C8
:1016B600A5002130A600EE30860021308700010803
:1016C600A7006D238931E730A5000030A60003305E
:1016D600A7006D2BAA01AA0127082A0203180800F1
:1016E6002A08A800A901250786002908263D8700A3
:1016F6000108003E840098300318013E850000086A
:1017060087238931AA0A6F2BA1008030A200210805
:10171600A300FF30A306F81A962BFC309C051C0884
:10172600873968389D2B1C08873930389C001C087F
:10173600FC3901389C00EE309B009A019110210083
:1017460091142000A401230822050319AD2B2200C1
:101756008C16AF2B22008C122000A2361C151C19E9
:10176600B22B0830A40A240203180800A62B8531E0
:10177600492589312100B30020006D1FCB2B2100A4
:1017860032083302031CCB2B20006D13ED13D52B2F
:1017960020006D1BD52B210033083102031CD52BED
:1017A60020006D1751302100330203180800200075
:1017B600ED1708008030A101A200A30122000C1140
:1017C6000000000022000C15000000002000220886
:1017D6008C1BA1040830A236A30A2302031CE12BAA
:1017E600210808002F0808007D26893121004C08B1
:1017F600003A0319082C013A0319092C033A031974
:101806000B2C013A03190D2C0E2C0F2C0030932EA5
:101816000130932E492C080074258931B330A1007C
:101826002130A200EA30A3009830A4005C2589315B
:10183600F5248931D3009C30A1002130A200530841
:10184600A1070318A20ADC30A3009830A4005C2587
:101856008931AA248931F524D3009C3ED100213058
:10186600D201D23D510886005208870020308100FF
:10187600D30A53089C3ED1002130D201D23D5108F3
:101886008600520887002030810008002000D7011A
:1018960074258931B330A1002130A200F730A300AE
:1018A6009830A4005C258931F5248931D8001626A4
:1018B60089312000D700303ED10058089C3ED20026
:1018C6002130D301D33D52088600530887005108C2
:1018D60081005808013E192689315808D1009E30EA
:1018E600D201D3002130D40051085307D500520845
:1018F600543DD60055088600560887003C308100C6
:101906005808D1009F30D201D3002130D4005108AD
:101916005307D5005208543DD60055088600560890
:10192600870020308100F5248931D8009C30A10041
:101936002130A2005808A1070318A20ADC30A30030
:101946009830A4005C258931F5248931AA2C113000
:10195600C1000230C2008431F12489312308BF005E
:101966002208BE00F524BD00C0014208B3004108AC
:10197600B2003F08B5003E08B40086316B268931B7
:101986003208BC00413EB9003D089C3EBA002130F9
:10199600BB01BB3D3A0886003B0887003908810039
:1019A600BD0A4208A2004108A1003F08A4003E0863
:1019B600A300D5252208BF002108BE001730B200BB
:1019C600B3014208B5004108B40086316B2689315F
:1019D6003308C2003208C1000330C00A40020318AF
:1019E6000800B82C9C30A301A1002130A200032DD1
:1019F6005230230203180A2DA30AA10A0319A20AC8
:101A060021088600220887000108031DFB2C2308F5
:101A160008009C302000A1002130A2000430A30061
:101A26009930A4005C258931A630A1002130A2009E
:101A36004E30A3009930A4005C258931AB30A1005B
:101A46002130A2005730A3009930A4005C258931CB
:101A5600AA012A08603E8600013087000108A80016
:101A6600A530860021308700280881002A08DD3E3F
:101A76008600013087000108A800AA3086002130C0
:101A86008700280881009C30A2002130A300592637
:101A960089318230A900DD30A800A80B502DA90B92
:101AA600502D003220000830AA0A2A020318080026
:101AB6002C2D2208A6002108A50025088600260848
:101AC600870023088400240885000008C03F890891
:101AD60003190800A50A0319A60AA30A0319A40AEA
:101AE600602DF525CF014F08363E8431DB24893140
:101AF6002000C8004F089C3EC9002130CA01CA3DDB
:101B0600490886004A088700480881000430CF0A41
:101B16004F02031C762DD00150083A3E8431DB2457
:101B260089312000C8005008C900A130CA01CB0085
:101B36002130CC0049084B07CD004A084C3DCE0069
:101B46004D0886004E088700480881000730D00AF5
:101B56005002031C8F2DA0308600213087003E30B6
:101B66008100AE3086003E308100A83086002C30E1
:101B76008100A93086003C308100B13086003C30BF
:101B86008100AC3086002E308100AF3086005630A2
:101B96008100B030860042308100B23086002030AD
:101BA60081000800210822040319F02DA501A50AC9
:101BB600A21BE02DA135A20DDA2D22082402031D59
:101BC600E62D21082302031CEC2D2108A30222087E
:101BD600A43BA236A10CA50BE02D2408A2002308E5
:101BE600A1000800210033082000C4004530B900D8
:101BF6000030BA004408BB000330BC00BD017927A1
:101C0600AA30860021308700450881004608C300B7
:101C1600AB308600430881004708C300AD3086001C
:101C260043088100080022003A080800A4009C3EF0
:101C3600A1002130A201A23D2108860022088700CA
:101C4600303081006D1F332E24089C3EA1002130C8
:101C5600A201A23D210886002208870031308100BA
:101C6600ED1F412E24089C3EA1002130A201A23D79
:101C7600210886002208870032308100EC1F080008
:101C860024089C3E860021308701873D0108033EDB
:101C9600A10024089C3EA2002130A301A33D2208F6
:101CA600860023088700210881000800A501230873
:101CB600A7002208A600260884002708850012002F
:101CC600031908008030250203180800260884003E
:101CD600270885000008762689312000A60A031900
:101CE600A70AA50A5E2EA100111E772E2108230041
:101CF6009A0008002000A1012108803A313E03180D
:101D06008D2E21089C3E860021308701873D81016A
:101D1600A10A7F2EEE30860021308700810108005F
:101D26002000D10074258931BE308600213087001D
:101D36003E308100CE3086003E308100D8308600AD
:101D46003E308100B23086002C308100BD308600E6
:101D56002C308100C13086002C308100CD308600C9
:101D66002C308100D13086002C308100C0308600B6
:101D76003C308100D03086003C308100B83086008F
:101D86002E308100C83086002E308100B5308600A6
:101D96003A308100C53086003A308100D93086005D
:101DA60048308100BF3086004E3081002200470B4C
:101DB600E02EBF30860053308100CF3086002130C0
:101DC6008700453081004D0BEC2ECF308600573012
:101DD6008100B3302000B9002130BA002200430848
:101DE6002000BB000230BC00BD0179278931B63026
:101DF600B9002130BA00220044082000BB0002309E
:101E0600BC00BD0179278931C230B9002130BA0042
:101E1600220049082000BB000330BC00BD01792721
:101E26008931C630B9002130BA0022004A082000A4
:101E3600BB000230BC00BD017927973128278931C4
:101E46002408BD002308BC002208BB002108BA00F4
:101E56008831E7208931D2302000B9002130BA001C
:101E6600210056082000BB000230BC00BD017927C6
:101E76008931D430B9002130BA002100570820003A
:101E8600BB000230BC00BD0179278931D6308600FF
:101E96002130870030308100510B552FD630860017
:101EA600313081003B301926B930C3002130C400DF
:101EB600220046082000C600220045082000C50072
:101EC6000430C700C80188319C20C930C3002130C6
:101ED600C40022004C082000C60022004B08200047
:101EE600C5000430C700C80188319C2864303B0215
:101EF600031C812F03303C020318942F64303B02ED
:101F06000A3003188E2F3B02031C8D2F02303C0231
:101F16000318942F0A303B02031808003C080319E3
:101F260008003D0B9F2F3C08BE00BF013907860005
:101F36003F083A3D8700810102303C020A30031C0B
:101F4600C12FBC03A1003B08CE278931C2000A304D
:101F5600A1003B08E6278931BB003030C2073C08A8
:101F6600BE00BF013907C0003F083A3DC100400826
:101F7600860041088700420881009F2FA1003B0888
:101F8600CE27C2003030C207390886003A088700DB
:101F9600420881000800A3000830A400A501230818
:101FA600A2000730A236890BD52F25352204A500BD
:101FB600A33521082502031CE22F2108A502A40B44
:101FC600D22F25080800A200A40121080319FC2F1E
:101FD600A301A30AA11BF12FA135EC2FA4352108DB
:101FE6002202031CF92F2108A2022414A136A30BF6
:101FF600F12F24080800430808009431DC2C9431A2
:0E200600DF2C9431DC2C9431DF2C9431E22C51
:1022A80021004108080009308531042D00308531AE
:1022B800042D0A308531042D08308531042D08306D
:1022C8008531042D0B308531042D02308531042DE4
:1022D8002100C301C20108008031AA20210017147F
:1022E80002308331232B2100B601B701B801B901AF
:1022F8000A30FC0008002100C801C901F818892922
:102308008331FF2391318331DB238731322F6400FE
:10231800013080010131FE020030FF3B7F087E045E
:10232800031900348C29781D9B299C219131AF2BEE
:102338006C1EA92901302100DB020030DC3B5B0860
:102348005C04031DA92920006C122000ED1CC12982
:102358002100C00BC1292000ED1EBB2921003F0828
:10236800C0008B122000ED1222008E12C12921001C
:102378003E08C0008B162000ED1601302100D9025E
:102388000030DA3B59085A04031D080020006C1E6F
:10239800D2290A302100D900DA01D7292C302100AE
:1023A800D9000130DA00D82920000030C8018B1A82
:1023B8000130C6008B1222008E1227302000C50083
:1023C800F530C400C40BE629C50BE6298631612621
:1023D8009131C700460C031C8B1203188B1646302C
:1023E80047020318F9290130FA290030C8006D0C9A
:1023F80001394806031908000310ED1C0314031CD7
:10240800082A2000ED140A2A2000ED10ED18080013
:102418008B1222008E1208000030D0220030893141
:102428005F21913164002000102A781F272A01308B
:102438002100A8020030A93B28082904031D272AE7
:1024480078139222913120006C1F0800D42FCF27D7
:10245800913122000E16092522000E120800781E5E
:102468003F2A0F2691310030270204300319260233
:102478000318442A4A2A58302100A6000230A7002F
:102488002608FD3EA800FF30273DA9007817C32F76
:10249800AA239131F22291310F269131B001D52230
:1024A8009131053A031D08000030D82291310030DF
:1024B80021002702063003192602031C6B2A26086E
:1024C800FD3EA800FF30273DA90078146F2A270891
:1024D800A9002608A80001307817D02206308331D9
:1024E800232BF22491312000A800D5229131033A00
:1024F800031D080020002808031D8A2A0030D02266
:1025080091312000EC1A8D2A01308E2A0330D02216
:1025180091310230D32404308331232BC32A053070
:1025280078148331232BAA23913191279131F222F8
:10253800913121003008031DAB2A2000ED1DAB2A84
:102548000130D82291310230D0229131AF2A0330A4
:10255800D0222000ED1121000330B00AA800063077
:10256800A9018331232378170800F81CBE2A0430F8
:102578008331232B03307814A800A901B72AD52268
:102588009131053A0319972A033A0319B92A013AEE
:102598000319932ACF2A08002000A1002100CC00AB
:1025A80008002100420808002000A6002608031D94
:1025B800E92A2030A1000230A2003E30A3000130F9
:1025C800A400BB242000ED1508003E30A100013016
:1025D800A2002030A3000230A400BB2C2000BE01C2
:1025E800BF01C001C101220023082702031D062BD9
:1025F80022082602031D062B21082502031D062B8F
:102608002008240203182C2B80302000BA005130F7
:10261800BB000130BC000430BD01203E8600013003
:102628008700403FBA07413FBB3D423FBC3D433F67
:10263800BD3D3D082200A70020003C082200A6005E
:1026480020003B082200A50020003A082200A40030
:10265800200824022000BA0022002108253B20007F
:10266800BB0022003D35283E86000130870020004F
:102678003A08C03F3B08C13F22003D35283E86004E
:10268800403FB600413FB7002000C2014235283E16
:10269800860001308700403FBA00413FBB003A083E
:1026A800BE073B08BF3D0030C03DC13D0630C20AF1
:1026B8004202031C4A2B0630AD00AE01AF01B00147
:1026C8004108B4004008B3003F08B2003E08B1001A
:1026D800863190262E082200B50020002D08220001
:1026E800B4000630BD0A3D020318BD010800F81CFD
:1026F8007F2B9D249131AA230B138B132100931058
:102708002800171120001C1128001E112000181085
:102718008531C8259131AF239131003A031D9C2B97
:1027280021001708C13914389700171463008F2B3C
:1027380084310D249131F818A72B8331FF2391316F
:102748008331DB23913102308331232B22000E1297
:1027580021009112B62CD7239131B100B201310872
:10276800031DC52BB201B20A210045080319D42B59
:102778000B30C60AC7014602031CD42B0330C5011F
:10278800D22B210045030319D42B1F30C70AC601D9
:102798004702031CD42B0830C501C50A8331232303
:1027A80020003208080028001D082000AE00AF01F4
:1027B800B00122000E15F818E82BD0302000AC002C
:1027C800AC0BE42B1F30F22B07302000AD007D301E
:1027D800AC00AC0BED2BAD0BED2BFA3028009D00B7
:1027E80078309E049C012000931120302100EB00DA
:1027F8001C30EC0002304E2491318F302100EB0068
:102808000230EC014E24913121005308D4003330BA
:1028180053060319122C2000EC16142C2000EC127D
:10282800A7302100EB00EC0128001E15242C0230F3
:102838004E2491312100531D242C2000B001B00AF0
:1028480020003008031D2A2C931D1B2C2E0828005D
:102858009D001E08873908389E001E11AD302100E2
:10286800EB0002304E24913121005308031D3F2C08
:1028780002304E24913122000E118E110E1080303C
:102888002100530203184B2C2000AF01AF0A20008F
:102898002F0808002000A800EB30A900D230AA00B9
:1028A80022008E150E112000AB012B08A500A601F1
:1028B800A51BA6032608803AA70080302702031D1F
:1028C800672C280825020318782C20002A0886007F
:1028D800870129088400850100087B249131810043
:1028E800AA0AA90AAB0A592C22000E150800A10051
:1028F8008030A201A300A401210823050319872C15
:1029080022000E14892C22000E108E1100000000E7
:1029180022008E1500000000200023088E18A20453
:10292800A336A40A2408803A783E031C802C220887
:102938000800F81CA22CAA249131A52C8331FF236E
:1029480091318331DB23280017150800FC30210062
:102958009905190887393838990099131A1DB22C26
:10296800F810080023009D131D129E12080021086C
:102978002204031908002308240403190800210865
:102988008600220887002000230884002408850088
:102998001A30A50012001E00A50BCE2C080020003E
:1029A800A1002100B5000F30B40020006C17E62C00
:1029B80022000D16080022008D16080022000D12B4
:1029C8008D12080021003508840005300402031820
:1029D800080090310435003E8200080018106B1181
:1029E8006A1EF92C2200BA01072D6A19FF2C023041
:1029F8002200BA00042DEA19F62C2200BA01BA0AFC
:102A080009259A31B1223A08080080302000A10037
:102A18000430A2005A25913182302000AC00DD300C
:102A2800AB00AB0B152DAC0B152D00325A30200026
:102A3800A2009930A3008E31592691318230AC0022
:102A4800DD30AB00AB0B262DAC0B262D003222005F
:102A58000E1206302000AD001330AC00B130AB00D0
:102A6800AB0B342DAC0B342DAD0B342D00322200C2
:102A78000E1660302000A100A2015A259131823043
:102A88002000AC00DD30AB00AB0B482DAC0B482D63
:102A980000328D310C2591318230AC00DD30AB0035
:102AA800AB0B542DAC0B542D0032080023001E1222
:102AB8009F151E15702D23009C0167306E2D230075
:102AC8009C0110306E2D23009C0108306E2D2300D0
:102AD8009C010C309B008E2D20002208003A03191F
:102AE8007C2D023A0319812D063A0319862D8E2D65
:102AF8002108603A03195F2D8E2D2108403A0319E9
:102B0800632D8E2D2108803A0319672D013A031988
:102B18006B2D8E2D82302000A400DD30A300A30B86
:102B2800932DA40B932D0032080088272208CF008C
:102B38002108CE000A30B200B3014F08AD004E089C
:102B4800AC000F30AE00AF0183317E2391312D08E8
:102B5800B5002C08B40086316B2691313308CF00BC
:102B68003208CE0000304F02323003194E020318EB
:102B7800C02D3230CE00CF010F26913120006D1BC1
:102B88006D1DD52DA430860006308701A03E840037
:102B98008501403F00072100A6000131413F003D6B
:102BA800A7002000ED1FEB2D4F08CB004E08CA00F0
:102BB8001030CA35CB0DCC000E30CD004A084C027F
:102BC8002100A60020004B084D3B2100A700210052
:102BD800270820004F02031DF52D2100260820009C
:102BE8004E020318052E4E0821002602A8002000D8
:102BF8004F082100273BA90005307814832791311D
:102C08000D2E21002708A9002608A80005308331C9
:102C1800232378170800282791312408C80023089F
:102C2800C7002208C6002108C500BA0121002E08E5
:102C38000F3C2000B900031CBA03BB003A08BC00D3
:102C48000030BC1BFF30BD00BE003B08C5073C0878
:102C5800C63D3D08C73D3E08C83D21002408200068
:102C6800A100210025082000A200A301A401480812
:102C7800A8004708A7004608A6004508A5004D2754
:102C88002208C3002108C20021002E082000B2003B
:102C9800B3014308B5004208B40086316B26913170
:102CA8003208C90021002D082000A100A20149080E
:102CB800A300A401A31BA403EF2691312108013E20
:102CC800C90021002D082000A100A2014908A30085
:102CD800A401A31BA403EF26210821002C02FF3E18
:102CE8002000C40021002E082000A100A2014308F2
:102CF800A4004208A3008D31D52591312108210077
:102D08002E022000C100B900BA014408AC00AD0190
:102D1800AC1BAD0321002E082000AE00AF018331AB
:102D28007E23913139082C072100A60020003A089B
:102D38002D3D2100A7002000C41FB12EA43086001D
:102D480006308701A03E84008501403F000721002E
:102D5800A6000131413F003DA70020004508B90009
:102D68004608BA004708BB004808BC0021002608EE
:102D78002000BD00210027082000BE00BF01C001BF
:102D88003D08B9073E08BA3D3F08BB3D4008BC3D79
:102D98003C082100A30020003B082100A2002000DD
:102DA8003A082100A100200039082100A0002308CA
:102DB800031DE62E813020025130213B0130223B99
:102DC800031C08008030A007AE30A13DFE30A23DB4
:102DD800FF30A33D0800A601A41FF92EA309A409EA
:102DE800A30A0319A40AA601A60AA21F002FA10973
:102DF800A209A10A0319A20A2108220403191B2FF8
:102E0800A501A50AA21B0B2FA135A20D052F22088B
:102E18002402031D112F21082302031C172F210848
:102E2800A3022208A43BA236A10CA50B0B2F26084F
:102E38000319232FA309A409A30A0319A40A240820
:102E4800A2002308A100080000308B1B01302000DD
:102E5800A9008B13210039082000A8002100380898
:102E68002000A700210037082000A600210036080E
:102E78002000A500291C422F8B17432F8B132000FD
:102E88002808A4002708A3002608A2002508A100F6
:102E98000800240823042204210403197A2FA90115
:102EA800A90AA41B5C2FA135A20DA30DA40D542FB4
:102EB80024082802031D6A2F23082702031D6A2FEE
:102EC80022082602031D6A2F21082502031C742FDD
:102ED8002108A5022208A63B2308A73B2408A83BF3
:102EE800A436A30CA20CA10CA90B5C2F2808A400E3
:102EF8002708A3002608A2002508A1000800200032
:102F0800A1002100C4000800220035082000A2000A
:102F1800220034082000A100080022002008200018
:102F2800A100220021082000A2002200220820007F
:102F3800A300220023082000A40021002408200068
:102F4800A500210025082000A600A701A801250842
:102F5800A1072608A23D2708A33D2808A43D240868
:102F68002200A700200023082200A6002000220833
:102F78002200A500200021082200A40008008030BB
:102F88002000A1002530A2005A259131CF27220028
:102F9800BB019A31B12A23009D171D169E16080001
:102FA8002100B40BE02F20006C1322000D128D12AB
:102FB80004302100B500080002303506031DF02F4B
:102FC800031022000D1E0314031CED2F22000D1602
:102FD800080022000D12080003303506031D080002
:102FE800031022008D1E0314031CFD2F22008D16D2
:102FF800080022008D120800033400340034003425
:1030080000340034003453340034003423340034A2
:1030180000340B34003400340034003400340034FD
:1030280000340034003400340034003400340034F8
:10303800003400340034003413345B34473417341C
:103048004B3400342F346B347B3427340034003451
:103058001B3463341F345F34373477346734433474
:103068002B3407345734733433340F343B343F3400
:103078007F3400346F344F34003463344F343B347E
:103088004B3443345B342F34173433346B347B3450
:1030980027341F341B340F34373477342B345334EC
:1030A800073473343F3467345F345734473400345B
:1030B80000347034113401341034123402347B3447
:1030C800133403349D34143404341934123405345D
:1030D8009734113406344C3412340734AC341A346F
:1030E8000834333412340934473409340A347F3409
:1030F80011340B34993415340C34033400340D3442
:10310800033400340E347534123422342334243416
:1031180025342734283429342A342C342D342E34B9
:103128002F34313432343334343436343734383459
:1031380039343A343B343C343D343E343F34403403
:1031480042344334443445344634473448340134F3
:1031580000340234003404340034083400341034A9
:1031680000342034003440340034803400340034D7
:103178000134003402340034043400340834003498
:1031880010340034203400344034003480342A347D
:1031980099341C34993423349934153499340E34C1
:1031A8009934223427342C3431341E343C34963448
:1031B80056343E34323434343C3452343E3436346B
:1031C80037343C34203443342034003441344334DD
:1031D80054344934563441344E3444344F345334DF
:1031E8004534203400344E344F3454344934433455
:1031F8004534203447345034533420343E3400347A
:10320800243450344134493452343034363432342E
:103218002C34003424344534453453344C34663427
:103228000034243447344E34473453344134003462
:10323800243447344E3452344D3443340034243427
:1032480047345034473453344134003424344734F9
:10325800503452344D34433400340734003400348D
:1032680000340034003408340034003401340434A9
:1032780000340934003400340234083400340A3489
:103288000034003403340C34003400348034003407
:10329800003440342C3430342A343334003401348C
:1032A8001834083424340D340A34003424345034A7
:1032B8004134493452343834363434342C3430348C
:1032C8002C3430342C3439343634303430342A34D5
:1032D800313433340D340A34003445343034003456
:1032E80045343134003445343234003445343334D1
:1032F80000344534343400344534353400344534EE
:1033080036340034453437340034453438340034E6
:0633180045343934003495
:10355800213056249A312108D82A2000EA01EB01AB
:10356800552323001D162100911622000E16013046
:1035780082314D229A31823130229A311114200041
:1035880018146B159731282724082200A30020005F
:1035980023082200A200200022082200A100200007
:1035A80021082200A0000800B7006B1A08006A155D
:1035B80021005D0886005E0887002000370881002A
:1035C8002100DD0A0319DE0A2000EE03EA1F062B9C
:1035D8002100DF035F08031D302B9C302000A10071
:1035E8002130A2006E08523CA30065239A31013AAB
:1035F800031D032B6A1622003C0830249A315523F8
:103608009A31302B6A1F0E2B2A303706031D302BB8
:10361800EA17302BEA1E282B21000630E10A610642
:10362800031D302B5D0886005E0887009C308101F1
:103638002000A6002130A700C7239A31013A031DB4
:10364800032B6A17EA15302B24303706031D032B8A
:10365800EA162100E101E10A20006E08031D362B5D
:1036680055239A312000EB186B1C0800EB154424F5
:103678009A3121003D082000A40021003C082000C8
:10368800A30021003B082000A20021003A082000E6
:10369800A10013240630853104252000EB106B109F
:1036A800080020009C30EA126A13EA132100DD00AA
:1036B8002130DE0052302000EE0002302100DF0011
:1036C8000800A601A701A10A0319A20AAA01AA0AC9
:1036D8002308FD3EA400FF3003180030A500803AFF
:1036E800803C031D792B24082A020318862B20000E
:1036F80021088600220887000108A606A10A0319E6
:10370800A20A6B2B2000AA01A10A0319A20A210808
:10371800860022088700473001022A08031C9E2BD6
:10372800283E8600870121088400220885000008B9
:10373800DF39A62B283E860087012108840022084D
:1037480085000008D03E81002A08283E86000A30FD
:1037580087010102031CBA2B2A08283E86002A0882
:10376800283E840085010008F93E81000230AA0A3B
:103778002A02031C882B280EF0392904A7002606E4
:10378800031901340034AC01AB01AC012708A200D5
:103798002608A1002C08A800CB30A901A835A90D3E
:1037A800280784009830293D8500003FA300013F89
:1037B800A400F1239A3121082204031DE92BAB014F
:1037C800AB0A2C082200BC00EE2B0530AC0A2C02F8
:1037D800031CCA2B20002B080800FF2B2108860099
:1037E80022088700010803190D2CA10A0319A20A4F
:1037F800A30A0319A40A21088600220887002308BF
:1038080084002408850000080102A5002508031982
:10381800F22B2508A100A201A11BA2030800003079
:103828008B1B0130A5008B1324082100B900200050
:1038380023082100B800200022082100B70020003A
:1038480021082100B6007816FA012000251C2E2C2C
:103858008B1708008B1308002000B600392C9C3108
:10386800BB2C9C31832C01000800360884000530ED
:1038780004020318080088310435003E820008005D
:103888009731282724082200A700200023082200B7
:10389800A600200022082200A500200021082200FE
:1038A800A4000800A8000030A9018B1B0130A70064
:1038B8008B1323004A080319742C4808A03E86007D
:1038C8000130870001082000A90023002830CA031E
:1038D800C80A48060319C8014A08031D742C802425
:1038E8002000270C031C8B1303188B17280886004D
:1038F800870129088100080007308331932B9C3009
:10390800EB10A1002130A2002C30A3009B269C3193
:103918002208A5002108A400A40A0319A50A24085E
:103928008600250887004D300106031D9E2C2100C6
:10393800CA0108002508A2002408A1002C30A30011
:103948009B269C312208A5002108A400A40A03197B
:10395800A50A240886002508870033300106031DC0
:10396800080003302100CB002000EB1408009C3035
:10397800A1002130A2002C30A3009B269C312208F4
:10398800B5002108B400B40A0319B50A6B10220067
:10399800C201C80120003508A5003408A40002307F
:1039A800A60079269C312200BE0020003408023E81
:1039B800A4000030353DA5000230A60079269C31D0
:1039C8002200BF0020003408043EA4000030353D2A
:1039D800A5000230A60079269C312200C0002000F4
:1039E8003508A2003408A1002C30A3009B269C3186
:1039F8002208B5002108B400B40A0319B50A34082E
:103A080086003508870056300106031D0F2D220059
:103A1800C101C10A1B2D34088600350887004130D2
:103A28000106031D1B2D2200C10120006B1420007C
:103A38003508A2003408A1002C30A3009B269C3135
:103A48002208B5002108B400B40A0319B50A3408DD
:103A58008600350887002C3001060319752D2200D1
:103A6800C201C20A20003508A5003408A4000230AB
:103A7800A60079269C312200C30020003408023EAB
:103A8800A4000030353DA5000230A60079269C31FF
:103A98002200C40020003408073EA4000030353D51
:103AA800A5000230A60079269C31B2000230B3018D
:103AB800A6003408053EA4000030353DA50079264F
:103AC800AC006430AD01AE00AF0183317E239C3180
:103AD80032082C072200C500200033082D3D2200A3
:103AE800C60020003508A2003408A1002C30A3002D
:103AF8009B269C312208B5002108B400B40A03199A
:103B0800B50A2200420B9F2D200034088600350894
:103B180087004E300106031D942D2200C7019F2DFA
:103B2800340886003508870053300106031D9F2D91
:103B38002200C701C70A20003508A2003408A100E6
:103B48002C30A3009B269C312208B5002108B40024
:103B5800B40A0319B50A34088600350887002C30E2
:103B680001060319F92D2200C801C80A20003508EA
:103B7800A5003408A4000330A60079269C31220051
:103B8800C90020003408033EA4000030353DA500DC
:103B98000230A60079269C312200CA002000340891
:103BA800083EA4000030353DA5000230A600792665
:103BB8009C31B2000230B301A6003408063EA400CE
:103BC8000030353DA5007926AC006430AD01AE006B
:103BD800AF0183317E239C3132082C072200CB00B1
:103BE800200033082D3D2200CC0020003508A2001B
:103BF8003408A1002C30A3009B269C312208B50074
:103C08002108B400B40A0319B50A2200480B232E70
:103C18002000340886003508870057300106031D48
:103C2800192E2200CD01CD0A232E3408860035082E
:103C3800870045300106031D232E2200CD012000F8
:103C48003508A2003408A1002C30A3009B269C3123
:103C58002208B5002108B400B40A0319B50A3508CA
:103C6800A2003408A1002C30A3009B269C31220816
:103C7800B5002108B400B40A0319B50A3508A20032
:103C88003408A1002C30A3009B269C312208B500E3
:103C98002108B400B40A0319B50A3508A500340888
:103CA800A4000230A60079269C312200D40020000E
:103CB8003408023EA4000030353DA5000230A600BD
:103CC80079269C312200D50020003408043EA40047
:103CD8000030353DA5000230A60079269C3122002F
:103CE800D60020006B1C0800B12EA901AA01AB0167
:103CF800952E26082A020318992E2A08A700A8013B
:103D0800240786002808253D87000108D03EAB001F
:103D18000A30A10029088431E4249C312B07A9002A
:103D2800AA0A0A302B02031C7D2E29080800210844
:103D380086002208870001080319AE2E2108860094
:103D4800220887000108230603190800A10A03199D
:103D5800A20A9B2EA101A201080022003E08200011
:103D6800A1000E30A201A301A401A801A701A60089
:103D78001030A500853195259C3124082100BD000F
:103D8800200023082100BC00200022082100BB00DD
:103D9800200021082100BA0022003F082000AC00C2
:103DA8003C30AD01AE00AF0183317E232C082100E9
:103DB800BA0720002D082100BB3D0030BC3DBD3DA9
:103DC800220040082100BA0701300318BB07031876
:083DD800BC070318BD07080039
:020000040001F9
:04000E00CCEFFFDE56
:10E00000000000000000FF00FF00FF00FF00FF0015
:10E01000FF00FF00FF00FF00FF00FF00FF00FF0008
:10E02000FF00FF00FF00FF00FF00FF00FF00FF00F8
:10E03000FF00FF00FF00FF00FF00FF00FF00FF00E8
:10E04000FF00FF0015007000E0002200FF00150037
:10E050007000FA005900FF0015007000E000220077
:10E06000FF0015007000FA005900FF004400430053
:10E0700054004300300030003100310030003000E7
:10E080003400FF000A00010001001A0094000C0097
:10E09000CF00FF00FF00FF00FF00FF00FF00FF00B8
:10E0A000FF00FF00FF00FF00FF00FF00FF00FF0078
:10E0B000FF00FF00FF00FF00FF00FF00FF00FF0068
:10E0C000FF00FF00FF00FF00FF00FF00FF00FF0058
:10E0D000FF00FF00FF00FF00FF00FF00FF00FF0048
:10E0E000FF00FF00FF00FF00FF00FF00FF00FF0038
:10E0F000FF00FF00FF00FF00FF00FF00FF00FF0028
:10E10000FF00FF00FF00FF00FF00FF00FF00FF0017
:10E11000FF00FF00FF00FF00FF00FF00FF00FF0007
:10E12000FF00FF00FF00FF00FF00FF00FF00FF00F7
:10E13000FF00FF00FF00FF00FF00FF00FF00FF00E7
:10E14000FF00FF00FF00FF00FF00FF00FF00FF00D7
:10E15000FF00FF00FF00FF00FF00FF00FF00FF00C7
:10E16000FF00FF00FF00FF00FF00FF00FF00FF00B7
:10E17000FF00FF00FF00FF00FF00FF00FF00FF00A7
:10E18000FF00FF00FF00FF00FF00FF00FF00FF0097
:10E19000FF00FF00FF00FF00FF00FF00FF00FF0087
:10E1A000FF00FF00FF00FF00FF00FF00FF00FF0077
:10E1B000FF00FF00FF00FF00FF00FF00FF00FF0067
:10E1C000FF00FF00FF00FF00FF00FF00FF00FF0057
:10E1D000FF00FF00FF00FF00FF00FF00FF00FF0047
:10E1E000FF00FF00FF00FF00FF00FF00FF00FF0037
:10E1F000FF00FF00FF00FF00FF00FF00FF00FF0027
:00000001FF
