:1000000000008031682808007E14803123009D1C88
:1000100018281D12000023001D1618282000911E0C
:100020001B2823001908F7007708873161278031E2
:100030002100911A0E282100911C23282000911CD8
:1000400023281C1191108B1A0B1D3D28F90A9131A0
:10005000652180317906031D2F2822008E120A3077
:100060007902031C362822008E16F901F8183C2864
:1000700020001508053E95000B112100931C5D28FA
:100080002000931C5D28FC03F81C49287C08031DF4
:100090005B2887318F27803105308731AF2780314A
:1000A000781C592803308731AF2780312800171179
:1000B00078100A30FC00200093102100111C6628E3
:1000C0002000111C662887315C2711107E10090062
:1000D00020000308A0008231AE2A0930002DB22092
:1000E00080312100171402302B2B0330C901C801C5
:1000F000CE2180311C150530C3218031632280312F
:10010000A82858268031013A031DA628C80A392696
:100110008031C70063228031952802309328C901BD
:10012000C90AA0280330C900A02847086E3A03195D
:1001300092281C3A03198D28053A03198F28A02804
:1001400049080319A82838228031A8280430C9009A
:1001500020004908031DB02805304802031C8128EF
:1001600049080800C02680315A309E218031023073
:10017000CE000430CD00BA30CC00CC0BBD28CD0B66
:10018000BD28CE0BBD28000003302D21803100306A
:10019000552280313822803111142000181418297A
:1001A00023301B228031013A031D272923300722E7
:1001B0008031003A031D27290827803100302D2186
:1001C0008031272904301B228031013A031D272961
:1001D000043007228031003A031D2729C8268031C8
:1001E000013A031D1029CF014F089C3E86002130A3
:1001F0008701873D0108A1004F08A13E8400983087
:100200000318013E850000082425803120000330BA
:10021000CF0A4F02031CF42801302D2180312729F9
:1002200002302D218031272900302D2180312729CE
:1002300075208031013A0319D028033A0319142993
:10024000013A0319E228073A031927292729181028
:100250002100111020001C1108002000A600003011
:10026000A701A901CE2180311C151430C321803192
:100270000130CE2180318E29A8012808893E8400D2
:1002800098300318013E85000008D72480312000F3
:10029000A900A7069E2180312230A80A280203184F
:1002A0009C293D29A8012808A13E84009830031804
:1002B000013E85000008D72480312000A900A70650
:1002C0009E2180310330A80A280203189C29532953
:1002D0006530A7069E218031A930840098308500C2
:1002E0000008D72480312000A900A7069E21803174
:1002F0005530A7069E2180319C29A8012808683E18
:100300008600013087000108A900A7069E218031E0
:100310000630A80A280203189C297E292608003ADC
:1003200003193C29013A03195229033A0319682990
:10033000013A03197D299C2927089E29A4001C1134
:100340009A0191101C1522008E160630C3218031AF
:10035000A5012408A300250AAE29A336890BAD29DF
:100360002318B52922008E16B72922008E120630D6
:10037000C32180310830A50A2502031CA9292200C7
:100380008E120630C3292000A100A2002208031902
:100390000800911CC929A2039110C629A10063225B
:1003A0008031F8291C08FC3901389C001C08873969
:1003B00070389C00FA309B0008001C08FC3901389A
:1003C0009C0087309C05DA291C08FC3901389C0008
:1003D0007D309B0087309C0508001C08FC390138E3
:1003E0009C0060309B001C08873938389C0008004E
:1003F0002108003A0319D229013A0319DD29033AE9
:100400000319E429013A0319ED29062A0800A1007D
:10041000A301A201A301210823020318192A23081A
:100420009C3E860021308701873D0108A206A30A71
:100430000B2A22080800CA00CB01CB014A084B0254
:100440000318013458268031013A031D003439263F
:100450008031C7004B089C3EC8002130C901C93D0E
:10046000480886004908870047088100CB0A1E2AF1
:10047000003018180130A10000302100111801309F
:100480002000A2001810F8116F08FD00111097014C
:100490009601210C031C181003181814220C2100BB
:1004A000031C11100318111408002000A1001818D3
:1004B0001810FB00D93E840098300318013E8500D7
:1004C0000008EF0008001C119A019110080020009C
:1004D000CA0045258031CB000230D724803120006E
:1004E000CE00E02480312308CD002208CC00043067
:1004F0004A06031D832A73304B02031C4E0B08006F
:100500000230A101242D79304B02031C08004E0853
:10051000031D08000230A101A10A242580312F30DB
:1005200020004D02863003194C02031C9F2A013023
:10053000A1012425803120000030A101242DCC0A06
:100540000319CD0A4D08CE00A100013024258031C9
:1005500020004C08CE00A1000030242D0330FB0009
:100560000A30FC001E30FD005230EE001E30EF005D
:100570000C30840088308500D93086000030870038
:100580000030FF0015308731F027803121308400A2
:100590008830850058308600013087000030FF0029
:1005A00017308731F027803138308400883085005B
:1005B000CB308600013087000030FF001A308731D1
:1005C000F02780319C308400213085005430FE00BB
:1005D0000030FF00883100208031F801F901FA0174
:1005E000EA01EB01EC01ED01A03084000030850050
:1005F0003930FE000030FF0088310020803120308B
:100600008400013085003830FE000030FF00883162
:1006100000208031A0308400013085002B30FE00A6
:100620000030FF008831002080312030840002300B
:1006300085001A30FE000030FF0088310020803134
:100640007E102000232BC123803101302B238031E9
:100650004023803168282000A70021004208C30001
:1006600020002735CB3E860001308700413F8A00BD
:10067000403F0A008331200027082100C200080003
:1006800020001F30E501E6013F00ED002000E701FA
:10069000E70AE801E901210048084904031D522B3B
:1006A00064004B2B49082000E60021004808200088
:1006B000E50067086505E10068086605E200610479
:1006C000031D662BE735E80DE90A592B6908AC00D4
:1006D0000330AD01AE00AF0186232D0885002C0844
:1006E00084005D3084079830853D003FE300013F82
:1006F000E4008A0063080A0007308331200069069D
:100700000319462B69089B238031462BB001B101A8
:100710002C1C8E2B2E08B0072F08B13DAE35AF0D27
:10072000AD36AC0C2C082D04031D882B3108AD0010
:100730003008AC0008002000A50000308B1B013001
:10074000A6008B132508A100AB30A201A135A20D94
:10075000210784009830223D8500003FA300013F1F
:10076000A400A309A40923082100C8052000240827
:100770002100C9052000261CBF2B8B1708008B13F6
:10078000080064000724803107302000D0007D304D
:10079000CF00CF0BC92BD00BC92B013034248031B3
:1007A0002327803122248031D02580314E2480318E
:1007B00024248031E32380311C248031152491319D
:1007C000D72180312E2F28001711F81CF72B17087E
:1007D000FC390238970017088739483897007D3070
:1007E00096000A302100DF008230950008001708CB
:1007F000FC390238970017088739503897008E3037
:10080000960001302100DF00883095000800FC30A0
:1008100021009905190887396838990099131A1E1B
:100820000F2C9A1D112CF814080021001708C1394B
:100830001C3897001710080002302100C500C601BF
:10084000C701080000302B2B23008C0109308D00DC
:10085000D32521008C0109308D0082308E002400C8
:100860008D010830900008002000A10028001E1112
:100870001E08873908389E00FC309E0568309D00B0
:1008800020002108031D472C0C3028009D0020006B
:10089000931121000D1322000D1708002000C30141
:1008A000ED01C40144083E3ED72480310F392000B9
:1008B000C1000A30A1004308F32480314107C3007E
:1008C0000330C40A4402031C522C43082100AC002C
:1008D0004230D72480312100AE004330D72480310C
:1008E0002100AF004730D72480312100AD002E0811
:1008F0002000AC00AD0121002D082000AE00AF01AA
:10090000862380312D082100A50020002C0821001D
:10091000A4004830D7242000C100C201C135C20D57
:10092000C135C20D4108B9004208BA0088315220D1
:1009300080312100B100053EB2004430D72480311F
:100940002100C1004530D72480312000C50021009E
:10095000BF000F30BF052000450E0F392100BE003B
:100960000F30BE053F08C0004630D724803120003C
:10097000C500451C6D15C5186D16451AF816C51E1F
:1009800078156D1EC62C013000258031E0248031A1
:100990002F302302873003192202031C0800013084
:1009A000A1012425803120000030A101242D200048
:1009B000A10023009100920195131514130808005B
:1009C0000130D72480312000A600A5000030A4010A
:1009D000D7242000A600A4070318A50A2508A30011
:1009E0002408A20008002000A300A2012108231867
:1009F000A207A135A3362308031DF62C2208080000
:100A00002000A50000308B1B0130A6008B132508A9
:100A1000A100AB30A201A135A20D210784009830BE
:100A2000223D8500003FA300013FA40023082100D0
:100A3000C804200024082100C9042000261C222DFF
:100A40008B1708008B130800A2002300910092016D
:100A500020002108230093009513151500308B1BEF
:100A600001302000A3008B13553023009600AA30DC
:100A7000960095142000230C031C8B1303188B176E
:100A800023009518402D1511080082302200970090
:100A9000171F482D1F302000B9000130D9258031A3
:100AA0003A08C9003908C800220097130C3020000A
:100AB000B9000130D92580313A08C4003908C30093
:100AC000480849040319862D4808AD004908AE00BE
:100AD000AF01B0014308A1004408A2002030A301E7
:100AE000A401A801A701A6000C30A5009B26803117
:100AF0002408B4002308B3002208B2002108B10082
:100B0000912580312E08C6002D08C5006430B20042
:100B1000B3014608B5004508B40076263208C70080
:100B20000800B501B601B701B80130082F042E0442
:100B30002D040319C72DB901B90AB01BA42DAD3579
:100B4000AE0DAF0DB00D9C2DB535B60DB70DB80D72
:100B500030083402031DB62D2F083302031DB62DB5
:100B60002E083202031DB62D2D083102031CC12DA3
:100B70002D08B1022E08B23B2F08B33B3008B43B1E
:100B80003514B036AF0CAE0CAD0CB90BA42D380833
:100B9000B0003708AF003608AE003508AD000800D9
:100BA000C801C901080022008C018D0104308E00AB
:100BB0000800BC00C201C20ABD01BE0121001E081E
:100BC0008F3910389E00FC309E051E112000390818
:100BD000BB00BB0DBB0D21001D0820003B06833967
:100BE0003B0621009D0020003C0C2100031C9E13AD
:100BF00003189E171D1453302000BB00BB0BFE2DA5
:100C00000C30200039060319092E1F303906031D48
:100C1000112EF930BB00BB0B0B2E0032043020002C
:100C2000C200C101420841020318252E21009D1473
:100C3000000021009D18192E1B082000BD0721006F
:100C40001C082000BE3DC10A122E21001D102000EC
:100C50004208B200B3013E08B5003D08B400762654
:100C60003308C0003208BF004008BA003F08B9008E
:100C70000800C501C4013822803120001C15053050
:100C8000C3218031C6010A30C32180316C268031F6
:100C9000C4009B304402031C4F2EC536512E031452
:100CA000C50C0830C60A4602031C432E450808003E
:100CB000F81900346C268031C4009A304402031CB9
:100CC000692E582E6C268031C4009B3044020318D4
:100CD0000134F819582E622E09302000B900003076
:100CE000D92521001C082000C3000800B601B70167
:100CF000320833040319962EB801B80AB31B832EA9
:100D0000B235B30D7D2EB635B70D33083502031D50
:100D10008B2E32083402031C922E3208B4023308A0
:100D2000B53B3614B336B20CB80B832E3708B3007C
:100D30003608B2000800A901AA01AB01AC01211CD0
:100D4000A92E2508A9072608AA3D2708AB3D280893
:100D5000AC3DA535A60DA70DA80DA436A30CA20C7D
:100D6000A10C2408230422042104031D9F2E2C0817
:100D7000A4002B08A3002A08A2002908A10008004B
:100D80002F00910121001113200011130130CE29F1
:100D9000A930B401B601B70184009830850000087D
:100DA000D72480312000B400B80138089C3E86006A
:100DB00021308701873D0108D03EB5000A30350259
:100DC000031800343708AD003608AC000A30AE0016
:100DD000AF01862380312D08B7002C08B6003508F6
:100DE000B6070318B70A0330B80A3802031CD52E19
:100DF0003408B200B30137083302031D012F36084F
:100E00003202031C003436083704031D0134003459
:100E1000A401A40124089C3E860021308701873D5F
:100E20000108A1002408893E840098300318013E7F
:100E3000850000082425803120002230A40A2402E5
:100E4000031808000A2FCF30200098051810210041
:100E50001110200011109701960108002000EC01EC
:100E60001C248731CF2780317812781354278031A2
:100E7000B001472780310B118B120B178B17200005
:100E8000931021009314280017150230672A2000C0
:100E90000230ED10ED126C162100D900DA013F0886
:100EA000C0003C30DE0008002100B601B701B801E7
:100EB000B9010A30FC000800FD037D08031D08008D
:100EC000762FF60028304A060319732F4908A03EF2
:100ED000860001308700760881002830CA0AC90AD6
:100EE00049060319C9010730AF270800812FF815FB
:100EF0008C2F0E30AF2787318C2F22008D120D12D0
:100F00008C2F7B08003A0319772F013A0319792FA8
:100F1000033A03197D2F8C2F200018100800FA0ABD
:100F200005307A02031C0800FA010430AF2787312C
:100F300001302100B6070030B73DB83DB93D390852
:100F4000031DAA2F803036025130373B0130383B29
:100F5000031C0800B601B701B801B9010800F4008C
:100F600000308B1B0130F5008B137408F000AB30A0
:100F7000F101F035F10D700784009830713D850066
:100F8000003FF200013FF30072082100C80473081B
:100F9000C904751CCD2F8B1708008B130800200087
:100FA000EB112200BD01A001A101A201A301A40136
:100FB000A501A601A7012000A1012135283E860038
:100FC000013087003230C03F0030C13F0630A10AF7
:100FD0002102031CDD2F32302200B400B5010800CD
:100FE000FE0012001E000130FE020030FF3B7F08B1
:100FF0007E0403190034F12F2100C301C20108004F
:101000006400013080010131FE020030FF3B7F08A7
:101010007E040319003401283C3400349C3421340C
:1010200002343C340A3401343C343C340D340A3448
:10103000003458340D340A340034AD3400340034F4
:10104000003431349934373499343D34993443344D
:1010500099343034313433343534363437343834E9
:10106000393430343334303437343234303400347B
:10107000FC340734683411346B3411346E34113459
:101080006D340034713411347A34113474341134C1
:1010900077341134453446344434423438343934A6
:1010A000363437340930BB01BC01BD01BE01B2008A
:1010B000B3013A08AD003908AC000530AE00AF010D
:1010C0008331862388312D08B5002C08B400863181
:1010D000762688313308C0003208BF000230BF07CF
:1010E0000318C00A3030B200B3013A08AD00390825
:1010F000AC001130AE00AF018331862388312C085B
:10110000313EB40000302D3DB50086317626883161
:101110003308BC003208BB000730B200B3013B0803
:101120003F07B4003C08403DB500863176263308C1
:10113000BE003208BD0008002730460210300319F7
:101140004502031CA728053047020318B2282730A0
:101150004602103003194502031808000430470204
:10116000031C08004408BA004308B9006430B20008
:10117000B3014608B5004508B400863176268831AB
:101180003208BB004708FE3EBC004808BD008F3156
:10119000792788314408BA004308B9004708B907DD
:1011A0000318BA0AFE30B907031CBA036430A10061
:1011B000A2014608A4004508A3008D31D5252108C9
:1011C000BB000230BC004808BD008F31792F3D08BC
:1011D000C5003C08C4003B08C3003A08C2000E30FA
:1011E000B001AF01AE001030AD004508B4004408B6
:1011F000B3004308B2004208B1008531912588311F
:101200002D082100D6003C302000AD00AE01AF011A
:10121000B001210056082000A100FF30A201A30167
:10122000A401A800A700F130A600F030A500863187
:101230009B26883121084207BE002208433DBF009B
:101240002308443DC0002408453DC100B4004008C7
:10125000B3003F08B2003E08B100853191258831C6
:101260002D082100D700C4302000A100210057081C
:101270008431F3248831BE00F030A10021005608EB
:101280008431F3243E0742072100D80008002100E2
:10129000171000305F21043082316722893121002C
:1012A0001714FE278931033A031D5929053083316C
:1012B0002B2B073083312B2389318531D32DF52317
:1012C00089312000DC000030E001210011180130DC
:1012D0002000DD002100111000308B1A01302000A9
:1012E000DE008B12EC13BA2389312E2389310530AD
:1012F0002000600203188E29C921893130228931EA
:10130000013A031D86290530E000772922008D145B
:101310002000E00AEC1722008D107729F72389318D
:1013200022000D150D302000DA00FB30D900D90B5A
:101330009729DA0B9729003222000C128C16200014
:10134000DF015C085F020318B5290630DB001330AB
:10135000DA00B130D900D90BAB29DA0BAB29DB0BA2
:10136000AB2900322000DF0AA1294923893122005C
:101370008C16242389317D265D0C2100031C11105D
:101380000318111420005E0C031C8B1203188B161B
:1013900008000030CA2289318A2289314930200070
:1013A000A4009930A5000530A600082289315330E9
:1013B0002000A4009930A5000430A600082289313D
:1013C0002000AB012B08CA2289318A2289312000F2
:1013D0002B35583E860001308700403FA400413F36
:1013E000A5000630A6000822893120002B0805231D
:1013F0008931CD30A4000030A5000530A6000822B8
:10140000893120000230AB0A2B0203180800E229C0
:1014100022000C132000AA012A08A700A801A71B7C
:10142000A8032808803AA90080302902031D1A2A3F
:101430002608270203182D2A20002A08A700A80141
:10144000A71BA8032408270784002508283D85003A
:101450000008E7228931AA0A0C2A22000C178A2ADE
:101460000030AC01AC0ACA2289318A228931493064
:101470002000A4009930A5000530A60094228931EF
:10148000003A031D452A2000AC018A2289315330DD
:101490002000A4009930A5000430A60094228931D0
:1014A000003A031D552A2000AC018A228931200010
:1014B000AD012D08CA2289318A22893120002D35BB
:1014C000583E860001308700403FA400413FA50000
:1014D0000630A60094228931003A031D712A2000AB
:1014E000AC0120002D0805238931CD30A400003047
:1014F000A5000530A60094228931003A031D822AF6
:101500002000AC0120000230AD0A2D02031C592A34
:101510002C08080020001C1522008C1520001C1926
:101520008E2A22008C1108002408840025088500DA
:1015300000088038AA00A901A90A22000C13200083
:101540002A08E722893121008C172000AB01AB0A61
:1015500026082B020318C32ADD238931AA00250897
:10156000A8002408A7002B082707840028080318D0
:10157000280A850000082A060319A72A22000C174A
:1015800021008C13003422000C1721008C13200042
:10159000290808002000A20022360139A100A10E6E
:1015A00022000C0820002106EF39210622008C00C1
:1015B000200022080139A100A10EA10D22000C0873
:1015C00020002106DF39210622008C000800A1003E
:1015D0008030A200A30122000C1120002108220566
:1015E0000319F52A22008C17F72A22008C13000019
:1015F000000022000C150000000020000830A23678
:10160000A30A230203180800EB2AA200D53E840097
:1016100098300318013E85000008A3000B3021001C
:10162000CD002000A4012408CE3E860087012308B7
:1016300024078431D7248931810020000430A40A92
:10164000240203180800132B0C100D118D100C131D
:101650008C130C118C118C120C12080020001C1120
:1016600087309C05FC309C0514309B009A0191103A
:101670002100911422000C148F302000A200DA30D7
:10168000A100A10B412BA20B412B000022008D10C9
:101690000800F5248931AB00EE3086002130870048
:1016A0002B088100E130A5000030A6000430A7001F
:1016B0006D2389319C30A5002130A600EE308600D4
:1016C000213087000108A7006D238931E630A5008D
:1016D0000030A6000330A7006D2BAA01AA0127083D
:1016E0002A02031808002A08A800A9012507860075
:1016F0002908263D87000108003E84009830031821
:10170000013E8500000887238931AA0A6F2BA100BA
:101710008030A2002108A300FF30A306F81A962B00
:10172000FC309C051C08873968389D2B1C088739BC
:1017300030389C001C08FC3901389C00EE309B00BE
:101740009A019110210091142000A4012308220580
:101750000319AD2B22008C16AF2B22008C12200017
:10176000A2361C151C19B22B0830A40A2402031837
:101770000800A62B8531452589312100B3002000C2
:101780006D1FCB2B210032083302031CCB2B200012
:101790006D13ED13D52B20006D1BD52B21003308C5
:1017A0003102031CD52B20006D175130210033026C
:1017B000031808002000ED1708008030A101A200E6
:1017C000A30122000C110000000022000C150000F3
:1017D0000000200022088C1BA1040830A236A30AB6
:1017E0002302031CE12B210808002F0808007D2696
:1017F000893121004C08003A0319082C013A0319D9
:10180000092C033A03190B2C013A03190D2C0E2C49
:101810000F2C0030932E0130932E492C0800742594
:101820008931B330A1002130A200EA30A300983002
:10183000A4005C258931F5248931D3009C30A100B6
:101840002130A2005308A1070318A20ADC30A3002C
:101850009830A4005C258931AA248931F524D3006D
:101860009C3ED1002130D201D23D51088600520861
:10187000870020308100D30A53089C3ED1002130DC
:10188000D201D23D510886005208870020308100E5
:1018900008002000D70174258931B330A100213020
:1018A000A200F730A3009830A4005C258931F5240C
:1018B0008931D800162689312000D700303ED1006A
:1018C00058089C3ED2002130D301D33D52088600F7
:1018D00053088700510881005808013E19268931B4
:1018E0005808D1009E30D201D3002130D4005108D5
:1018F0005307D5005208543DD600550886005608B7
:1019000087003C3081005808D1009F30D201D300BD
:101910002130D40051085307D5005208543DD60059
:10192000550886005608870020308100F52489314B
:10193000D8009C30A1002130A2005808A10703184C
:10194000A20ADC30A3009830A4005C258931F5247C
:101950008931AA2C1130C1000230C2008431E02448
:1019600089312308BF002208BE00F524BD00C00154
:101970004208B3004108B2003F08B5003E08B40079
:101980008631762689313208BC00413EB9003D08D7
:101990009C3EBA002130BB01BB3D3A0886003B08A3
:1019A000870039088100BD0A4208A2004108A10051
:1019B0003F08A4003E08A300D5252208BF00210847
:1019C000BE001730B200B3014208B5004108B400B0
:1019D0008631762689313308C2003208C1000330CF
:1019E000C00A400203180800B82C9C30A301A100D3
:1019F0002130A200032D5230230203180A2DA30A1E
:101A0000A10A0319A20A21088600220887000108FA
:101A1000031DFB2C230808009C302000A10021306E
:101A2000A2000430A3009930A4005C258931A630BF
:101A3000A1002130A2004E30A3009930A4005C2503
:101A40008931AB30A1002130A2005730A30099307A
:101A5000A4005C258931AA012A08603E8600013075
:101A600087000108A800A5308600213087002808DB
:101A700081002A08DD3E8600013087000108A800A9
:101A8000AA30860021308700280881009C30A200FF
:101A90002130A300592689318230A900DD30A80009
:101AA000A80B502DA90B502D003220000830AA0A97
:101AB0002A02031808002C2D2208A6002108A500E0
:101AC000250886002608870023088400240885004E
:101AD0000008C03F890803190800A50A0319A60ACF
:101AE000A30A0319A40A602DF525CF014F08363E3D
:101AF0008431D72489312000C8004F089C3EC9009A
:101B00002130CA01CA3D490886004A0887004808B2
:101B100081000430CF0A4F02031C762DD0015008FB
:101B20003A3E8431D72489312000C8005008C900CA
:101B3000A130CA01CB002130CC0049084B07CD00B1
:101B40004A084C3DCE004D0886004E0887004808E4
:101B500081000730D00A5002031C8F2DA030860070
:101B6000213087003E308100AE3086003E3081005B
:101B7000A83086002C308100A93086003C308100DE
:101B8000B13086003C308100AC3086002E308100C0
:101B9000AF30860056308100B03086004230810080
:101BA000B230860020308100080021082204031989
:101BB000F02DA501A50AA21BE02DA135A20DDA2D5D
:101BC00022082402031DE62D21082302031CEC2D0C
:101BD0002108A3022208A43BA236A10CA50BE02DEC
:101BE0002408A2002308A1000800210033082000D7
:101BF000C4004530B9000030BA004408BB000330CF
:101C0000BC00BD017927AA30860021308700450835
:101C100081004608C300AB308600430881004708B6
:101C2000C300AD30860043088100080022003A0856
:101C30000800A4009C3EA1002130A201A23D210881
:101C4000860022088700303081006D1F332E240863
:101C50009C3EA1002130A201A23D2108860022085D
:101C6000870031308100ED1F412E24089C3EA100E9
:101C70002130A201A23D21088600220887003230CF
:101C80008100EC1F080024089C3E8600213087015B
:101C9000873D0108033EA10024089C3EA20021309C
:101CA000A301A33D220886002308870021088100A4
:101CB0000800A5012308A7002208A6002608840022
:101CC0002708850012000319080080302502031838
:101CD0000800260884002708850000087626893138
:101CE0002000A60A0319A70AA50A5E2EA100111E4C
:101CF000772E210823009A0008002000A101210866
:101D0000803A313E03188D2E21089C3E86002130FA
:101D10008701873D8101A10A7F2EEE3086002130A8
:101D20008700810108002000D10074258931BE3070
:101D30008600213087003E308100CE3086003E3064
:101D40008100D83086003E308100B23086002C30D1
:101D50008100BD3086002C308100C13086002C30DF
:101D60008100CD3086002C308100D13086002C30AF
:101D70008100C03086003C308100D03086003C308D
:101D80008100B83086002E308100C83086002E30A9
:101D90008100B53086003A308100C53086003A3087
:101DA0008100D930860048308100BF3086004E3037
:101DB00081002200470BE02EBF30860053308100A7
:101DC000CF30860021308700453081004D0BEC2E4E
:101DD000CF30860057308100B3302000B900213069
:101DE000BA00220043082000BB000230BC00BD0145
:101DF00079278931B630B9002130BA002200440871
:101E00002000BB000230BC00BD0179278931C230FF
:101E1000B9002130BA00220049082000BB0003307D
:101E2000BC00BD0179278931C630B9002130BA0024
:101E300022004A082000BB000230BC00BD01792707
:101E40009631D42689312408BD002308BC0022081D
:101E5000BB002108BA008831E7208931D230200048
:101E6000B9002130BA00210056082000BB00023022
:101E7000BC00BD0179278931D430B9002130BA00C6
:101E8000210057082000BB000230BC00BD017927AB
:101E90008931D63086002130870030308100510BE7
:101EA000552FD6308600313081003B301926B930AD
:101EB000C3002130C400220046082000C6002200D2
:101EC00045082000C5000430C700C80188319C20A7
:101ED000C930C3002130C40022004C082000C600D5
:101EE00022004B082000C5000430C700C80188311B
:101EF0009C2864303B02031C812F03303C020318F2
:101F0000942F64303B020A3003188E2F3B02031CCF
:101F10008D2F02303C020318942F0A303B02031825
:101F200008003C08031908003D0B9F2F3C08BE0029
:101F3000BF01390786003F083A3D87008101023022
:101F40003C020A30031CC12FBC03A1003B08CE2772
:101F50008931C2000A30A1003B08E6278931BB0065
:101F60003030C2073C08BE00BF013907C0003F083F
:101F70003A3DC100400886004108870042088100C0
:101F80009F2FA1003B08CE27C2003030C20739087E
:101F900086003A088700420881000800A300083044
:101FA000A400A5012308A2000730A236890BD52F73
:101FB00025352204A500A33521082502031CE22FA4
:101FC0002108A502A40BD22F25080800A200A40115
:101FD00021080319FC2FA301A30AA11BF12FA1358E
:101FE000EC2FA43521082202031CF92F2108A2029C
:101FF0002414A136A30BF12F24080800430808007D
:102000009C31332C9C31332C9C31352C9C31352C1C
:102010009C31372C9431882C94318B2C9431882C22
:0820200094318B2C94318E2CBD
:1022CA0021004108080000308531002D0A3085318F
:1022DA00002D08308531002D08308531002D0B3056
:1022EA008531002D02308531002D0C3085310025D5
:1022FA008531D32D2100C801C901F81889298431F3
:10230A00072491318331E32387312E2F5B2B003051
:10231A007C22003089315F219131640020008C29B0
:10232A00781FA32901302100A8020030A93B280800
:10233A002904031DA32978133E22913120006C1F22
:10234A00A829AB219131781D0800802F2100B40BF8
:10235A00B72920006C1322000D128D1204302100BF
:10236A00B500080002303506031DC72903102200F4
:10237A000D1E0314031CC42922000D160800220096
:10238A000D12080003303506031D08000310220051
:10239A008D1E0314031CD42922008D160800220066
:1023AA008D1208007B27913122000E16B5242200D7
:1023BA000E120800781EEB29BB2591310030270246
:1023CA000430031926020318F029F629583021008F
:1023DA00A6000230A7002608FD3EA800FF30273DD0
:1023EA00A90078176F2F562391319E229131BB2570
:1023FA009131B00181229131053A031D0800003064
:10240A008422913100302100270206300319260266
:10241A00031C172A2608FD3EA800FF30273DA90005
:10242A0078141B2A2708A9002608A8000130781763
:10243A007C22063083312B2B9E2491312000A80068
:10244A0081229131033A031D080020002808031D48
:10245A00362A00307C2291312000EC1A392A0130C8
:10246A003A2A03307C22913102307F2404308331AE
:10247A002B2B6F2A0530781483312B2B562391315D
:10248A003D2791319E22913121003008031D572AA0
:10249A002000ED1D572A01308422913102307C221E
:1024AA0091315B2A03307C222000ED112100033098
:1024BA00B00AA8000630A90183312B237817080037
:1024CA00F81C6A2A043083312B2B03307814A800B5
:1024DA00A901632A81229131053A0319432A033A51
:1024EA000319652A013A03193F2A7B2A08002000AA
:1024FA00A1002100CC0008002100420808002000A9
:10250A00A6002608031D952A2030A1000230A20049
:10251A003E30A3000130A40067242000ED15080016
:10252A003E30A1000130A2002030A3000230A400F6
:10253A00672C2000BE01BF01C001C101220023088F
:10254A002702031DB22A22082602031DB22A2108E5
:10255A002502031DB22A200824020318D82A803033
:10256A002000BA005130BB000130BC000430BD016C
:10257A00203E860001308700403FBA07413FBB3DFD
:10258A00423FBC3D433FBD3D3D082200A70020001D
:10259A003C082200A60020003B082200A5002000DB
:1025AA003A082200A400200824022000BA002200CF
:1025BA002108253B2000BB0022003D35283E86002D
:1025CA000130870020003A08C03F3B08C13F220083
:1025DA003D35283E8600403FB600413FB700200007
:1025EA00C2014235283E860001308700403FBA00CA
:1025FA00413FBB003A08BE073B08BF3D0030C03D23
:10260A00C13D0630C20A4202031CF62A0630AD005A
:10261A00AE01AF01B0014108B4004008B3003F0861
:10262A00B2003E08B100853191252E082200B5007E
:10263A0020002D082200B4000630BD0A3D0203180E
:10264A00BD010800F81C2B2B4924913156230B138A
:10265A008B13210093102800171120001C11280049
:10266A001E11200018108531D32591315B23913139
:10267A00003A031D482B21001708C1391438970066
:10268A00171463003B2B843115249131F818532B0E
:10269A008431072491318331E3239131023083312C
:1026AA002B2B22000E1221009112622C83239131CE
:1026BA00B100B2013108031D712BB201B20A210027
:1026CA0045080319802B0B30C60AC7014602031CB2
:1026DA00802B0330C5017E2B210045030319802B73
:1026EA001F30C70AC6014702031C802B0830C501E8
:1026FA00C50A83312B2320003208080028001D0850
:10270A002000AE00AF01B00122000E15F818942B7C
:10271A00D0302000AC00AC0B902B1F309E2B073022
:10272A002000AD007D30AC00AC0B992BAD0B992B82
:10273A00FA3028009D0078309E049C0120009311F5
:10274A0020302100EA001C30EB000230FA239131DC
:10275A008F302100EA000230EB01FA239131210087
:10276A005308D400333053060319BE2B2000EC164D
:10277A00C02B2000EC12A7302100EA00EB01280050
:10278A001E15D02B0230FA2391312100531DD02B74
:10279A002000B001B00A20003008031DD62B931D7B
:1027AA00C72B2E0828009D001E08873908389E006E
:1027BA001E11AD302100EA000230FA2391312100C6
:1027CA005308031DEB2B0230FA23913122000E111C
:1027DA008E110E108030210053020318F72B2000AF
:1027EA00AF01AF0A20002F0808002000A800EA3035
:1027FA00A900D230AA0022008E150E112000AB01CA
:10280A002B08A500A601A51BA6032608803AA70047
:10281A0080302702031D132C280825020318242CB4
:10282A0020002A08860087012908840085010008FB
:10283A00272491318100AA0AA90AAB0A052C220091
:10284A000E150800A1008030A201A300A4012108EE
:10285A0023050319332C22000E14352C22000E10E6
:10286A008E110000000022008E15000000002000DA
:10287A0023088E18A204A336A40A2408803A783EB4
:10288A00031C2C2C22080800F81C4E2C56249131CB
:10289A00512C8431072491318331E3232800171501
:1028AA000800FC3021009905190887393838990041
:1028BA0099131A1D5E2CF810080023009D131D128F
:1028CA009E12080021082204031908002308240480
:1028DA00031908002108860022088700200023081F
:1028EA008400240885001A30A50012001E00A50BDA
:1028FA007A2C08002000A1002100B5000F30B40096
:10290A0020006C17922C22000D16080022008D164A
:10291A00080022000D128D120800210035088400DB
:10292A000530040203180800903104350A3E82007B
:10293A00080018106B116A1EA52C2200BA01B32CCC
:10294A006A19AB2C02302200BA00B02CEA19A22C68
:10295A002200BA01BA0AB5249A31B1223A0808000B
:10296A0080302000A1000430A20006259131823077
:10297A002000AC00DD30AB00AB0BC12CAC0BC12C82
:10298A0000325A302000A2009930A3008E31592615
:10299A0091318230AC00DD30AB00AB0BD22CAC0BEA
:1029AA00D22C003222000E1206302000AD00133065
:1029BA00AC00B130AB00AB0BE02CAC0BE02CAD0B98
:1029CA00E02C003222000E1660302000A100A20185
:1029DA000625913182302000AC00DD30AB00AB0B14
:1029EA00F42CAC0BF42C00328D310C259131823051
:1029FA00AC00DD30AB00AB0B002DAC0B002D003270
:102A0A00080023001E129F151E151C2D23009C0171
:102A1A0067301A2D23009C0110301A2D23009C01C7
:102A2A0008301A2D23009C010C309B003A2D2000FF
:102A3A002208003A0319282D023A03192D2D063AC5
:102A4A000319322D3A2D2108603A03190B2D3A2D1C
:102A5A002108403A03190F2D3A2D2108803A03190B
:102A6A00132D013A0319172D3A2D82302000A400A4
:102A7A00DD30A300A30B3F2DA40B3F2D003208002D
:102A8A0034272208CF002108CE000A30B200B30151
:102A9A004F08AD004E08AC000F30AE00AF018331D5
:102AAA00862391312D08B5002C08B400863176268C
:102ABA0091313308CF003208CE0000304F02323055
:102ACA0003194E0203186C2D3230CE00CF01BB25FC
:102ADA00913120006D1B6D1D812DA43086000630BA
:102AEA008701A03E84008501403F00072100A6001F
:102AFA000131413F003DA7002000ED1F972D4F08EF
:102B0A00CB004E08CA001030CA35CB0DCC000E30AF
:102B1A00CD004A084C022100A60020004B084D3B7C
:102B2A002100A7002100270820004F02031DA12D24
:102B3A002100260820004E020318B12D4E0821005C
:102B4A002602A80020004F082100273BA9000530D3
:102B5A0078142F279131B92D21002708A9002608BA
:102B6A00A800053083312B2378170800D426913129
:102B7A002408C8002308C7002208C6002108C50087
:102B8A00BA0121002E080F3C2000B900031CBA0329
:102B9A00BB003A08BC000030BC1BFF30BD00BE00C1
:102BAA003B08C5073C08C63D3D08C73D3E08C83D31
:102BBA00210024082000A100210025082000A200ED
:102BCA00A301A4014808A8004708A7004608A600D0
:102BDA004508A500F9262208C3002108C2002100E1
:102BEA002E082000B200B3014308B5004208B40021
:102BFA008631762691313208C90021002D0820003D
:102C0A00A100A2014908A300A401A31BA4039B26B7
:102C1A0091312108013EC90021002D082000A100A0
:102C2A00A2014908A300A401A31BA4039B2621080F
:102C3A0021002C02FF3E2000C40021002E082000A3
:102C4A00A100A2014308A4004208A3008D31D525A2
:102C5A009131210821002E022000C100B900BA01D9
:102C6A004408AC00AD01AC1BAD0321002E082000C6
:102C7A00AE00AF0183318623913139082C07210038
:102C8A00A60020003A082D3D2100A7002000C41FFD
:102C9A005D2EA430860006308701A03E840085019F
:102CAA00403F00072100A6000131413F003DA70037
:102CBA0020004508B9004608BA004708BB00480882
:102CCA00BC00210026082000BD00210027082000A2
:102CDA00BE00BF01C0013D08B9073E08BA3D3F0822
:102CEA00BB3D4008BC3D3C082100A30020003B0836
:102CFA002100A20020003A082100A1002000390882
:102D0A002100A0002308031D922E81302002513099
:102D1A00213B0130223B031C08008030A007AE3063
:102D2A00A13DFE30A23DFF30A33D0800A601A41F2D
:102D3A00A52EA309A409A30A0319A40AA601A60A8F
:102D4A00A21FAC2EA109A209A10A0319A20A2108ED
:102D5A0022040319C72EA501A50AA21BB72EA13565
:102D6A00A20DB12E22082402031DBD2E2108230222
:102D7A00031CC32E2108A3022208A43BA236A10CDD
:102D8A00A50BB72E26080319CF2EA309A409A30A57
:102D9A000319A40A2408A2002308A100080000308D
:102DAA008B1B01302000A9008B1321003908200059
:102DBA00A800210038082000A700210037082000B9
:102DCA00A600210036082000A500291CEE2E8B172C
:102DDA00EF2E8B1320002808A4002708A30026083A
:102DEA00A2002508A10008002408230422042104C3
:102DFA000319262FA901A90AA41B082FA135A20D80
:102E0A00A30DA40D002F24082802031D162F230842
:102E1A002702031D162F22082602031D162F21083A
:102E2A002502031C202F2108A5022208A63B2308FD
:102E3A00A73B2408A83BA436A30CA20CA10CA90BFF
:102E4A00082F2808A4002708A3002608A20025089E
:102E5A00A10008002000A1002100C40008002200EF
:102E6A0035082000A200220034082000A100080032
:102E7A00220020082000A100220021082000A20030
:102E8A00220022082000A300220023082000A40018
:102E9A00210024082000A500210025082000A60002
:102EAA00A701A8012508A1072608A23D2708A33DD6
:102EBA002808A43D24082200A70020002308220095
:102ECA00A600200022082200A500200021082200D6
:102EDA00A400080080302000A1002530A2000625A9
:102EEA0091317B272200BB019A31B12A23009D1719
:102EFA001D169E16080020006C1E882F2100DE0B6E
:102F0A00882F20006C122100C00BA62F2000ED1E76
:102F1A00992F21003F08C0002000ED12ED1CA62FBA
:102F2A008B1222008E12A62F21003E08C00020001C
:102F3A00ED16EC1DA42FBB2791312000EC11ED18E2
:102F4A008B1601302100D9020030DA3B59085A04A5
:102F5A00031D080020006C1EB42F0230B52F3C3030
:102F6A002100D900DA012000EC1508000030C80160
:102F7A008B1A0130C6008B1222008E12F818D02F3D
:102F8A0006302000C5003030C400C40BCA2FC50B60
:102F9A00CA2F0000DA2F2A302000C5008D30C40065
:102FAA00C40BD52FC50BD52F003286316C26913133
:102FBA00C700460C031C8B1203188B1646304702B7
:102FCA000318E92F0130EA2F0030C8006D0C0139CF
:102FDA004806031908000310ED1C0314031CF82FFC
:102FEA002000ED14FA2F2000ED10ED1808008B12C6
:102FFA0022008E12080003340034003400340034F6
:10300A0000340034533400340034233400340034A0
:10301A000B340034003400340034003400340034FB
:10302A0000340034003400340034003400340034F6
:10303A0000340034003413345B34473417344B34CF
:10304A0000342F346B347B342734003400341B347F
:10305A0063341F345F3437347734673443342B3462
:10306A0007345734733433340F343B343F347F34AA
:10307A0000346F344F34003463344F343B344B34B0
:10308A0043345B342F34173433346B347B34273472
:10309A001F341B340F34373477342B34533407340A
:1030AA0073343F3467345F34573447340034003460
:1030BA006F34003401348C3411340234273413341D
:1030CA0003344934143404349534113405348B34BC
:1030DA0011340634F83411340734AC341A34083451
:1030EA00DF3411340934473409340A347F34113453
:1030FA000B34453415340C34033400340D340334A2
:10310A0000340E3421341234223423342434253446
:10311A002734283429342A342C342D342E342F34AD
:10312A00313432343334343436343734383439344D
:10313A003A343B343C343D343E343F3440344234F8
:10314A004334443445344634473448340134003433
:10315A0002340034043400340834003410340034A7
:10316A0020340034403400348034003400340134D4
:10317A000034023400340434003408340034103487
:10318A000034203400344034003480342A349934F2
:10319A001C34993423349934153499340E349934BF
:1031AA00223427342C3431341E343C349634563489
:1031BA003E34323434343C3452343E343634373488
:1031CA003C342034433420340034413443345434BE
:1031DA004934563441344E3444344F3453344534EC
:1031EA00203400344E344F34543449344334453453
:1031FA00203447345034533420343E340034243499
:10320A0050344134493452343034363432342C3424
:10321A00003424344534453453344C346634003451
:10322A00243447344E34473453344134003424343C
:10323A0047344E3452344D34433400342434473402
:10324A0050344734533441340034243447345034EE
:10325A0052344D34433400340734003400340034DB
:10326A0000340034083400340034013404340034A7
:10327A000934003400340234083400340A34003487
:10328A00003403340C340034003480340034003405
:10329A0040342C3430342A34333400340134183472
:1032AA00083424340D340A3400342434503441347C
:1032BA00493452343834363434342C3430342C349F
:1032CA0030342C3439343634303430342A343134CE
:1032DA0033340D340A340034453430340034453440
:1032EA003134003445343234003445343334003414
:1032FA0045343434003445343534003445343634B6
:10330A0000344534373400344534383400344534D5
:04331A00393400340E
:10355800213056249A312108D82A2000EA01EB01AB
:10356800552323001D162100911622000E16013046
:10357800823155229A31823138229A311114200031
:1035880018146B159631D42624082200A3002000B5
:1035980023082200A200200022082200A100200007
:1035A80021082200A0000800B7006B1A08006A155D
:1035B80021005B0886005C0887002000370881002E
:1035C8002100DB0A0319DC0A2000EE03EA1F062BA0
:1035D8002100DD035D08031D302B9C302000A10075
:1035E8002130A2006E08523CA30065239A31013AAB
:1035F800031D032B6A1622003C0830249A315523F8
:103608009A31302B6A1F0E2B2A303706031D302BB8
:10361800EA17302BEA1E282B21000630E00A600644
:10362800031D302B5B0886005C0887009C308101F5
:103638002000A6002130A700C7239A31013A031DB4
:10364800032B6A17EA15302B24303706031D032B8A
:10365800EA162100E001E00A20006E08031D362B5F
:1036680055239A312000EB186B1C0800EB154424F5
:103678009A3121003D082000A40021003C082000C8
:10368800A30021003B082000A20021003A082000E6
:10369800A10013240630853100252000EB106B10A3
:1036A800080020009C30EA126A13EA132100DB00AC
:1036B8002130DC0052302000EE0002302100DD0015
:1036C8000800A601A701A10A0319A20AAA01AA0AC9
:1036D8002308FD3EA400FF3003180030A500803AFF
:1036E800803C031D792B24082A020318862B20000E
:1036F80021088600220887000108A606A10A0319E6
:10370800A20A6B2B2000AA01A10A0319A20A210808
:10371800860022088700473001022A08031C9E2BD6
:10372800283E8600870121088400220885000008B9
:10373800DF39A62B283E860087012108840022084D
:1037480085000008D03E81002A08283E86000A30FD
:1037580087010102031CBA2B2A08283E86002A0882
:10376800283E840085010008F93E81000230AA0A3B
:103778002A02031C882B280EF0392904A7002606E4
:10378800031901340034AC01AB01AC012708A200D5
:103798002608A1002C08A800CB30A901A835A90D3E
:1037A800280784009830293D8500003FA300013F89
:1037B800A400F1239A3121082204031DE92BAB014F
:1037C800AB0A2C082200BC00EE2B0530AC0A2C02F8
:1037D800031CCA2B20002B080800FF2B2108860099
:1037E80022088700010803190D2CA10A0319A20A4F
:1037F800A30A0319A40A21088600220887002308BF
:1038080084002408850000080102A5002508031982
:10381800F22B2508A100A201A11BA2030800003079
:103828008B1B0130A5008B1324082100B900200050
:1038380023082100B800200022082100B70020003A
:1038480021082100B6007816FA012000251C2E2C2C
:103858008B1708008B1308002000B600392C9C3108
:10386800BB2C9C31832C01000800360884000530ED
:1038780004020318080090310435003E8200080055
:103888009631D42624082200A7002000230822000D
:10389800A600200022082200A500200021082200FE
:1038A800A4000800A8000030A9018B1B0130A70064
:1038B8008B1323004A080319742C4808A03E86007D
:1038C8000130870001082000A90023002830CA031E
:1038D800C80A48060319C8014A08031D742C802425
:1038E8002000270C031C8B1303188B17280886004D
:1038F8008701290881000800073083319B2B9C3001
:10390800EB10A1002130A2002C30A3009B269C3193
:103918002208A5002108A400A40A0319A50A24085E
:103928008600250887004D300106031D9E2C2100C6
:10393800CA0108002508A2002408A1002C30A30011
:103948009B269C312208A5002108A400A40A03197B
:10395800A50A240886002508870033300106031DC0
:10396800080003302100CB002000EB1408009C3035
:10397800A1002130A2002C30A3009B269C312208F4
:10398800B5002108B400B40A0319B50A6B10220067
:10399800C201C80120003508A5003408A40002307F
:1039A800A60079269C312200BE0020003408023E81
:1039B800A4000030353DA5000230A60079269C31D0
:1039C8002200BF0020003408043EA4000030353D2A
:1039D800A5000230A60079269C312200C0002000F4
:1039E8003508A2003408A1002C30A3009B269C3186
:1039F8002208B5002108B400B40A0319B50A34082E
:103A080086003508870056300106031D0F2D220059
:103A1800C101C10A1B2D34088600350887004130D2
:103A28000106031D1B2D2200C10120006B1420007C
:103A38003508A2003408A1002C30A3009B269C3135
:103A48002208B5002108B400B40A0319B50A3408DD
:103A58008600350887002C3001060319752D2200D1
:103A6800C201C20A20003508A5003408A4000230AB
:103A7800A60079269C312200C30020003408023EAB
:103A8800A4000030353DA5000230A60079269C31FF
:103A98002200C40020003408073EA4000030353D51
:103AA800A5000230A60079269C31B2000230B3018D
:103AB800A6003408053EA4000030353DA50079264F
:103AC800AC006430AD01AE00AF01833186239C3178
:103AD80032082C072200C500200033082D3D2200A3
:103AE800C60020003508A2003408A1002C30A3002D
:103AF8009B269C312208B5002108B400B40A03199A
:103B0800B50A2200420B9F2D200034088600350894
:103B180087004E300106031D942D2200C7019F2DFA
:103B2800340886003508870053300106031D9F2D91
:103B38002200C701C70A20003508A2003408A100E6
:103B48002C30A3009B269C312208B5002108B40024
:103B5800B40A0319B50A34088600350887002C30E2
:103B680001060319F92D2200C801C80A20003508EA
:103B7800A5003408A4000330A60079269C31220051
:103B8800C90020003408033EA4000030353DA500DC
:103B98000230A60079269C312200CA002000340891
:103BA800083EA4000030353DA5000230A600792665
:103BB8009C31B2000230B301A6003408063EA400CE
:103BC8000030353DA5007926AC006430AD01AE006B
:103BD800AF01833186239C3132082C072200CB00A9
:103BE800200033082D3D2200CC0020003508A2001B
:103BF8003408A1002C30A3009B269C312208B50074
:103C08002108B400B40A0319B50A2200480B232E70
:103C18002000340886003508870057300106031D48
:103C2800192E2200CD01CD0A232E3408860035082E
:103C3800870045300106031D232E2200CD012000F8
:103C48003508A2003408A1002C30A3009B269C3123
:103C58002208B5002108B400B40A0319B50A3508CA
:103C6800A2003408A1002C30A3009B269C31220816
:103C7800B5002108B400B40A0319B50A3508A20032
:103C88003408A1002C30A3009B269C312208B500E3
:103C98002108B400B40A0319B50A3508A500340888
:103CA800A4000230A60079269C312200D40020000E
:103CB8003408023EA4000030353DA5000230A600BD
:103CC80079269C312200D50020003408043EA40047
:103CD8000030353DA5000230A60079269C3122002F
:103CE800D60020006B1C0800B12EA901AA01AB0167
:103CF800952E26082A020318992E2A08A700A8013B
:103D0800240786002808253D87000108D03EAB001F
:103D18000A30A10029088431F3249C312B07A9001B
:103D2800AA0A0A302B02031C7D2E29080800210844
:103D380086002208870001080319AE2E2108860094
:103D4800220887000108230603190800A10A03199D
:103D5800A20A9B2EA101A201080022003E08200011
:103D6800A1000E30A201A301A401A801A701A60089
:103D78001030A50086319B269C3124082100BD0007
:103D8800200023082100BC00200022082100BB00DD
:103D9800200021082100BA0022003F082000AC00C2
:103DA8003C30AD01AE00AF01833186232C082100E1
:103DB800BA0720002D082100BB3D0030BC3DBD3DA9
:103DC800220040082100BA0701300318BB07031876
:083DD800BC070318BD07080039
:020000040001F9
:04000E00CCEFFFDE56
:10E00000000000000000FF00FF00FF00FF00FF0015
:10E01000FF00FF00FF00FF00FF00FF00FF00FF0008
:10E02000FF00FF00FF00FF00FF00FF00FF00FF00F8
:10E03000FF00FF00FF00FF00FF00FF00FF00FF00E8
:10E04000FF00FF0015007000E0002200FF00150037
:10E050007000FA005900FF0015007000E000220077
:10E06000FF0015007000FA005900FF004400430053
:10E0700054004300300030003100310030003000E7
:10E080003400FF000A0001000100280094000C0089
:10E09000CF00FF00FF00FF00FF00FF00FF00FF00B8
:10E0A000FF00FF00FF00FF00FF00FF00FF00FF0078
:10E0B000FF00FF00FF00FF00FF00FF00FF00FF0068
:10E0C000FF00FF00FF00FF00FF00FF00FF00FF0058
:10E0D000FF00FF00FF00FF00FF00FF00FF00FF0048
:10E0E000FF00FF00FF00FF00FF00FF00FF00FF0038
:10E0F000FF00FF00FF00FF00FF00FF00FF00FF0028
:10E10000FF00FF00FF00FF00FF00FF00FF00FF0017
:10E11000FF00FF00FF00FF00FF00FF00FF00FF0007
:10E12000FF00FF00FF00FF00FF00FF00FF00FF00F7
:10E13000FF00FF00FF00FF00FF00FF00FF00FF00E7
:10E14000FF00FF00FF00FF00FF00FF00FF00FF00D7
:10E15000FF00FF00FF00FF00FF00FF00FF00FF00C7
:10E16000FF00FF00FF00FF00FF00FF00FF00FF00B7
:10E17000FF00FF00FF00FF00FF00FF00FF00FF00A7
:10E18000FF00FF00FF00FF00FF00FF00FF00FF0097
:10E19000FF00FF00FF00FF00FF00FF00FF00FF0087
:10E1A000FF00FF00FF00FF00FF00FF00FF00FF0077
:10E1B000FF00FF00FF00FF00FF00FF00FF00FF0067
:10E1C000FF00FF00FF00FF00FF00FF00FF00FF0057
:10E1D000FF00FF00FF00FF00FF00FF00FF00FF0047
:10E1E000FF00FF00FF00FF00FF00FF00FF00FF0037
:10E1F000FF00FF00FF00FF00FF00FF00FF00FF0027
:00000001FF
