:06000000000080316828B9
:100008007E14803123009D1C18281D120000230037
:100018001D1618282000911E1B2823001908F70018
:10002800770886310E2680312100911A0E2821008A
:10003800911C23282000911C23281C1191108B1A35
:100048000B1D3D28F90A8731132780317906031DD6
:100058002F2822008E120A307902031C362822002B
:100068008E16F901F8183C2820001508053E950061
:100078000B112100931C5D282000931C5D28FC03B4
:10008800F81C49287C08031D5B2886313C268031F2
:10009800053086315C268031781C5928033086313A
:1000A8005C2680312800171178100A30FC002000E7
:1000B80093102100111C66282000111C6628863127
:1000C800092611107E10090020000308A0008A31BB
:1000D800642A7129781F7C2801302100A802003089
:1000E800A93B28082904031D7C287813F7208031B0
:1000F80020006C1F812884208031781D08001A2B6D
:100108002100B40B902820006C1322000D128D12D0
:1001180004302100B500080002303506031DA02870
:10012800031022000D1E0314031C9D2822000D1627
:10013800080022000D12080003303506031D0800D0
:10014800031022008D1E0314031CAD2822008D16F7
:10015800080022008D1208009E3158268031B00117
:100168003A218031053A031D080000307D22803194
:10017800003021002702063003192602031CCB2871
:100188002608FD3EA800FF30273DA90008006C2185
:10019800803121002708A9002608A8000130781717
:1001A800352106308A31E12ACE2280312000A8008C
:1001B8003A218031033A031D080020002808031D56
:1001C800ED280030352180312000EC1AF02801306C
:1001D800F1280330352180310230AF2280316C2183
:1001E80004308A31E12A2829053078148A31E12A35
:1001F8006C218031E82285310425803121003008C6
:10020800031D10292000ED1D102901307D228031A9
:100218000230352180311429033035212000ED11B9
:1002280021000330B00AA8000630A9018A31E12272
:1002380078170800F81C232904308A31E12A033092
:100248007814A800A9011C293A218031053A03191C
:10025800FC28033A03191E29013A0319F8283429FE
:1002680008002000A1002100CC000800210042085D
:100278000800F81C41295F2280316C210B138B1375
:10028800210093102800171120001C1128001E11AE
:10029800200018108F310427803171218031003AF5
:1002A800031D5E2921001708C13914389700171457
:1002B800630051298B31CB238031F81869298B31A0
:1002C800BD2380318B319923803102308A31E12A74
:1002D80022000E1221009112782A99218031B10052
:1002E800B2013108031D8729B201B20A210045086D
:1002F800031996290B30C60AC7014602031C962922
:100308000330C501942921004503031996291F309C
:10031800C70AC6014702031C96290830C501C50A49
:100328008A31E12220003208080028001D08200038
:10033800AE00AF01B00122000E15F818AA29D0307E
:100348002000AC00AC0BA6291F30B42907302000D0
:10035800AD007D30AC00AC0BAF29AD0BAF29FA3046
:1003680028009D0078309E049C01200093112030C5
:100378002100EB001C30EC000230102280318F305D
:100388002100EB000230EC011022803121005408DA
:10039800D500333054060319D4292000EC16D62989
:1003A8002000EC12A7302100EB00EC0128001E15FC
:1003B800E6290230102280312100541DE629200050
:1003C800B001B00A20003008031DEC29931DDD2977
:1003D8002E0828009D001E08873908389E001E1127
:1003E800AD302100EB00023010228031210054088A
:1003F800031D012A02301022803122000E118E11B5
:100408000E1080302100540203180D2A2000AF017D
:10041800AF0A20002F0808002000A800EB30A90030
:10042800D330AA0022008E150E112000AB012B0834
:10043800A500A601A51BA6032608803AA7008030C0
:100448002702031D292A2808250203183A2A200012
:100458002A088600870129088400850100083D22B2
:1004680080318100AA0AA90AAB0A1B2A22000E15AC
:100478000800A1008030A201A300A40121082305DF
:100488000319492A22000E144B2A22000E108E113D
:100498000000000022008E15000000002000230844
:1004A8008E18A204A336A40A2408803A783E031CB6
:1004B800422A22080800F81C642A6C228031672A24
:1004C8008B31BD2380318B31992328001715080003
:1004D800FC30210099051908873938389900991393
:1004E8001A1D742AF810080023009D131D129E126D
:1004F80008002000A6002608031D8E2A2030A1002F
:100508000230A2003E30A3000130A4009722200050
:10051800ED1508003E30A1000130A2002030A300F4
:100528000230A400972A210822040319080023088E
:1005380024040319080021088600220887002000E7
:1005480023088400240885001A30A50012001E0024
:10055800A50BAA2A08002000A1002100B5000F3031
:10056800B40020006C17C22A22000D1608002200D1
:100578008D16080022000D128D1208002100350882
:100588008400053004020318080086310435E43E6F
:100598008200080018106B116A1ED52A2200BA01C1
:1005A800E52A6A19DB2A02302200BA00E02AEA1991
:1005B800D22A2200BA01BA0A8F31662780319031D7
:1005C8004C2022003A080800220020082000A10040
:1005D800220021082000A200220022082000A300F7
:1005E800220023082000A400210024082000A500E0
:1005F800210025082000A600A701A8012508A107B9
:100608002608A23D2708A33D2808A43D2408220067
:10061800A700200023082200A600200022082200AC
:10062800A500200021082200A400080020006C1E5C
:10063800222B2100DF0B222B20006C122100C00B83
:10064800402B2000ED1E332B21003F08C000200066
:10065800ED12ED1C402B8B1222008E12402B210034
:100668003E08C0002000ED16EC1D3E2B55238031BE
:100678002000EC11ED188B1601302100DA02003051
:10068800DB3B5A085B04031D080020006C1E4E2B40
:1006980002304F2B3C302100DA00DB012000EC1542
:1006A80008000030C8018B1A0130C6008B122200E6
:1006B8008E12F8186A2B06302000C5003030C400AE
:1006C800C40B642BC50B642B0000742B2A3020004C
:1006D800C5008D30C400C40B6F2BC50B6F2B0032C7
:1006E8008E312D268031C700460C031C8B1203184F
:1006F8008B16463047020318832B0130842B0030B9
:10070800C8006D0C01394806031908000310ED1CD8
:100718000314031C922B2000ED14942B2000ED10E1
:10072800ED1808008B1222008E12080021309F233A
:1007380083312108CC2BA8000030A9018B1B013084
:10074800A7008B1323004A080319BD2B4808A03EB5
:1007580086000130870001082000A9002300283006
:10076800CA03C80A48060319C8014A08031DBD2B55
:10077800C9232000270C031C8B1303188B17280888
:100788008600870129088100080007308B31512B2A
:10079800C3006B1A08006A1521005C0886005D0812
:1007A80087002000430881002100DC0A0319DD0AC4
:1007B8002000EE03EA1FFA2B2100DE035E08031D6A
:1007C800242C9C302000A1002130A2006E08523C4D
:1007D800A30056248331013A031DF62B6A16220022
:1007E8003C088D25903185208331242C6A1F022CEA
:1007F8002A304306031D242CEA17242CEA1E1C2C3D
:1008080021000630E10A6106031D242C5C088600DD
:100818005D0887009C3081012000A6002130A700D8
:10082800B8248331013A031DF62B6A17EA15242CE4
:1008380024304306031DF62BEA162100E101E10AE4
:1008480020006E08031D2B2C903185208331200059
:10085800EB186B1C0800EB106B1021000A30CD0A56
:100868004D02031C0800CD032000EB1A422CEB15A7
:10087800A0258331042583312000EB1621003D0893
:100888002000A40021003C082000A30021003B0810
:100898002000A20021003A082000A100B22506305D
:1008A8008C31B62CA601A701A10A0319A20AAA0134
:1008B800AA0A2308FD3EA400FF3003180030A50053
:1008C800803A803C031D6A2C24082A020318772CDE
:1008D800200021088600220887000108A606A10A30
:1008E8000319A20A5C2C2000AA01A10A0319A20A72
:1008F8002108860022088700473001022A08031CC5
:100908008F2C283E86008701210884002208850054
:100918000008DF39972C283E8600870121088400CB
:10092800220885000008D03E81002A08283E86005B
:100938000A3087010102031CAB2C2A08283E8600D6
:100948002A08283E840085010008F93E810002300B
:10095800AA0A2A02031C792C280EF0392904A700B8
:100968002606031901340034AC01AB01AC01270899
:10097800A2002608A1002C08A800CB30A901A835A0
:10098800A90D280784009830293D8500003FA30061
:10099800013FA400E224833121082204031DDA2C3C
:1009A800AB01AB0A2C082200BC00DF2C0530AC0AD6
:1009B8002C02031CBB2C20002B080800F02C21085B
:1009C80086002208870001080319FE2CA10A0319D2
:1009D800A20AA30A0319A40A21088600220887008C
:1009E800230884002408850000080102A5002508C2
:1009F8000319E32C2508A100A201A11BA2030800EA
:100A08002000BE01BF01C001C10122002308270246
:100A1800031D182D22082602031D182D2108250262
:100A2800031D182D2008240203183E2D80302000B5
:100A3800BA005130BB000130BC000430BD01203E7B
:100A4800860001308700403FBA07413FBB3D423F27
:100A5800BC3D433FBD3D3D082200A70020003C08A7
:100A68002200A60020003B082200A50020003A082A
:100A78002200A400200824022000BA002200210835
:100A8800253B2000BB0022003D35283E8600013072
:100A9800870020003A08C03F3B08C13F22003D358F
:100AA800283E8600403FB600413FB7002000C20103
:100AB8004235283E860001308700403FBA00413F5A
:100AC800BB003A08BE073B08BF3D0030C03DC13DF2
:100AD8000630C20A4202031C5C2D0630AD00AE018E
:100AE800AF01B0014108B4004008B3003F08B200AC
:100AF8003E08B1008D31CC252E082200B50020001B
:100B08002D082200B4000630BD0A3D020318BD01BD
:100B180008002000B600952D9B31942BCF2D0100A5
:100B280008003608840005300402031808008631DE
:100B38000435DA3E82000800973115272408220080
:100B4800A700200023082200A60020002208220077
:100B5800A500200021082200A400080000308B1BFB
:100B68000130A5008B1324082100B90020002308B8
:100B78002100B800200022082100B7002000210829
:100B88002100B6007816FA012000251CCD2D8B1700
:100B980008008B1308009C30EB10A1002130A20044
:100BA8002C30A3009D31742583312208A50021082B
:100BB800A400A40A0319A50A2408860025088700AA
:100BC8004D300106031DEB2D2100CA010800250840
:100BD800A2002408A1002C30A3009D317425833184
:100BE8002208A5002108A400A40A0319A50A2408BC
:100BF80086002508870033300106031D08000330EE
:100C08002100CB002000EB140800FD037D08031D24
:100C18000800232EF60028304A060319202E49081A
:100C2800A03E860001308700760881002830CA0A75
:100C3800C90A49060319C90107305C2608002E2E87
:100C4800F815392E0E305C268631392E22008D1289
:100C58000D12392E7B08003A0319242E013A031984
:100C6800262E033A03192A2E392E200018100800C0
:100C7800FA0A05307A02031C0800FA0104305C26DF
:100C8800863101302100B6070030B73DB83DB93D87
:100C98003908031D572E803036025130373B01305A
:100CA800383B031C0800B601B701B801B9010800B8
:100CB800F40000308B1B0130F5008B137408F00032
:100CC800AB30F101F035F10D700784009830713DBB
:100CD8008500003FF200013FF30072082100C804BC
:100CE8007308C904751C7A2E8B1708008B1308002B
:100CF800FA3406340D3407340A3407340734073419
:100D08001034073404340734F53406340134073416
:100D1800FE340634453446344434423438343934A5
:100D28003634373431349934373499343D3499343E
:100D380043349934303431343334353436343734F9
:100D4800383439343034333430343734323430345E
:100D580000343C3400349C34213402343C340A34AA
:100D680001343C343C340D340A34003458340D34E6
:100D78000A340034AD34003400340034FE0012006C
:100D88001E000130FE020030FF3B7F087E0403197D
:100D98000034C32E6400013080010131FE020030AE
:100DA800FF3B7F087E0403190034CF2E8531902D38
:100DB8008531902D8531922D8531922D8531932D58
:100DC8008231B82A8231BB2A8231B82A8231BB2AC1
:100DD8008231BE2A883149202100171402308A3115
:100DE800E12A0C308C31B6248F31042F2100C30145
:100DF800C201080002308C31B62C0B308C31B62C75
:100E080008308C31B62C08308C31B62C0A308C3135
:100E1800B62C00308C31B62C09308C31B62C210020
:060E28004108080008006B
:101004002100C801C901F8180B28BD238831992390
:1010140088310A2F0330C901C801652188311C15A4
:1010240005305A218831FA2188313F281926883120
:10103400013A031D3D28C80AFE218831C700FA2160
:1010440088312C2802302A28C901C90A37280330DC
:10105400C900372847086E3A031929281C3A03198E
:101064002428053A031926283728490803193F2854
:10107400CF2188313F280430C90020004908031DCE
:10108400472805304802031C1828490808005C2634
:1010940088315A30352188310230CE000430CD00F9
:1010A400BA30CC00CC0B5428CD0B5428CE0B54288A
:1010B40000000330C42088310030EC218831CF2176
:1010C4008831111420001814AF282330B22188313C
:1010D400013A031DBE2823309E218831003A031DA6
:1010E400BE28A42688310030C4208831BE280430AC
:1010F400B2218831013A031DBE2804309E21883173
:10110400003A031DBE2864268831013A031DA7282E
:10111400CF014F089C3E860021308701873D01089E
:10112400A1004F08A13E840098300318013E8500B9
:101134000008DA24883120000330CF0A4F02031C50
:101144008B280130C4208831BE280230C420883165
:10115400BE280030C4208831BE280C208831013AD2
:1011640003196728033A0319AB28013A03197928AC
:10117400073A0319BE28BE281810210011102000B8
:101184001C1108002000A6000030A701A901652158
:1011940088311C1514305A21883101306521883179
:1011A4002529A8012808893E840098300318013EA7
:1011B400850000088D2488312000A900A706352168
:1011C40088312230A80A280203183329D428A80118
:1011D4002808A13E840098300318013E85000008C9
:1011E4008D2488312000A900A706352188310330D9
:1011F400A80A280203183329EA286530A7063521EE
:101204008831A93084009830850000088D24883105
:101214002000A900A706352188315530A7063521BD
:1012240088313329A8012808683E860001308700E8
:101234000108A900A706352188310630A80A28022A
:101244000318332915292608003A0319D328013A2B
:101254000319E928033A0319FF28013A0319142949
:10126400332927083529A4001C119A0191101C1553
:1012740022008E1606305A218831A5012408A300C5
:10128400250A4529A336890B442923184C29220011
:101294008E164E2922008E1206305A2188310830CB
:1012A400A50A2502031C402922008E1206305A2961
:1012B4002000A100A200220803190800911C602943
:1012C400A20391105D29A100FA2188318F291C08FD
:1012D400FC3901389C001C08873970389C00FA30AE
:1012E4009B0008001C08FC3901389C0087309C05D1
:1012F40071291C08FC3901389C007D309B00873023
:101304009C0508001C08FC3901389C0060309B00D7
:101314001C08873938389C0008002108003A031952
:101324006929013A03197429033A03197B29013AFB
:10133400031984299D290800A100A301A201A30186
:10134400210823020318B02923089C3E860021307B
:101354008701873D0108A206A30AA22922080800E2
:10136400CA00CB01CB014A084B02031801341926E9
:101374008831013A031D0034FE218831C7004B082F
:101384009C3EC8002130C901C93D4808860049086F
:10139400870047088100CB0AB529003018180130AE
:1013A400A10000302100111801302000A200181003
:1013B400F8116F08FD00111097019601210C031C10
:1013C400181003181814220C2100031C1110031800
:1013D400111408002000A10018181810FB00D93EB1
:1013E400840098300318013E85000008EF000800CF
:1013F4001C119A0191100800C501C401CF21883144
:1014040020001C1505305A218831C6010A305A21A2
:1014140088312D268831C4009B304402031C142AD1
:10142400C536162A0314C50C0830C60A4602031C26
:10143400082A450808002000CA00FB248831CB0094
:1014440002308D2488312000CE0096248831230870
:10145400CD002208CC0004304A06031D392A73301B
:101464004B02031C4E0B08000230A101DA2C793028
:101474004B02031C08004E08031D08000230A101A2
:10148400A10ADA2488312F3020004D028630031956
:101494004C02031C552A0130A101DA2488312000B2
:1014A4000030A101DA2CCC0A0319CD0A4D08CE0074
:1014B400A1000130DA24883120004C08CE00A100BC
:1014C4000030DA2C0330FB000A30FC001E30FD0033
:1014D4005230EE001E30EF00AD30840086308500BF
:1014E400DA308600003087000030FF001530863186
:1014F400C2268831963084008630850058308600B4
:10150400013087000030FF0017308631C226883151
:101514007C30840086308500CB3086000130870023
:101524000030FF001A308631C22688319C30840096
:10153400213085005430FE000030FF008631CE2675
:101544008831F801F901FA01EA01EB01EC01ED013E
:10155400A0308400003085003A30FE000030FF00E7
:101564008631CE2688312030840001308500383021
:10157400FE000030FF008631CE268831A030840082
:10158400013085002B30FE000030FF008631CE266E
:10159400883120308400023085001A30FE0000308B
:1015A400FF008631CE2688317E102000D92A772389
:1015B40088310130E1228831F62280316828200008
:1015C400A70021004208C30020002735CB3E860037
:1015D40001308700413F8A00403F0A008A312000E1
:1015E40027082100C200080020001F30E501E601A1
:1015F4003F00ED002000E701E70AE801E9012100CE
:1016040048084904031D082B6400012B49082000E5
:10161400E600210048082000E50067086505E100B0
:1016240068086605E2006104031D1C2BE735E80D1C
:10163400E90A0F2B6908AC000330AD01AE00AF011D
:101644003C232D0885002C0884005D3084079830E5
:10165400853D003FE300013FE4008A0063080A007F
:1016640007308B31200069060319FC2A69085123CD
:101674008831FC2AB001B1012C1C442B2E08B00780
:101684002F08B13DAE35AF0DAD36AC0C2C082D0492
:10169400031D3E2B3108AD003008AC0008002000CB
:1016A400A50000308B1B0130A6008B132508A10078
:1016B400AB30A201A135A20D210784009830223D50
:1016C4008500003FA300013FA400A309A409230847
:1016D4002100C805200024082100C9052000261C7B
:1016E400752B8B1708008B1308006400BD23883109
:1016F40007302000D0007D30CF00CF0B7F2BD00BE4
:101704007F2B0130EA2388310E268831D823883193
:101714000B26883104248831DA23883199238831CF
:10172400D2238831CB238831592788310A2F2800C6
:101734001711F81CAD2B1708FC390238970017084D
:101744008739483897007D3096000A302100E00040
:101754008230950008001708FC39023897001708F2
:101764008739503897008E30960001302100E00010
:10177400883095000800FC30210099051908873944
:101784006838990099131A1EC52B9A1DC72BF81493
:10179400080021001708C1391C38970017100800E9
:1017A40002302100C500C601C70108000030E12A4B
:1017B40023008C0109308D00042721008C0109309D
:1017C4008D0082308E0024008D01083090000800C6
:1017D4002000A10028001E111E08873908389E0029
:1017E400FC309E0568309D0020002108031DFD2B60
:1017F4000C3028009D002000931121000D132200BD
:101804000D1708002000C301ED01C40144083E3E49
:101814008D2488310F392000C1000A30A10043080B
:10182400A92488314107C3000330C40A4402031CBD
:10183400082C43082100AC0042308D24883121005B
:10184400AE0043308D2488312100AF0047308D2411
:1018540088312100AD002E082000AC00AD0121002C
:101864002D082000AE00AF013C2388312D08210053
:10187400A50020002C082100A40048308D248831C4
:101884002000C100C201C135C20DC135C20D4108DD
:10189400B9004208BA00BF2688312100B100053ED4
:1018A400B20044308D2488312100C10045308D249C
:1018B40088312000C5002100BF000F30BF05200083
:1018C400450E0F392100BE000F30BE053F08C00091
:1018D40046308D2488312000C500451C6D15C5187F
:1018E4006D16451AF816C51E78156D1E7C2C013030
:1018F400B6248831962488312F3023028730031987
:101904002202031C08000130A101DA2488312000DE
:101914000030A101DA2C2000A100230091009201E3
:10192400951315141308080001308D248831200004
:10193400A600A5000030A4018D242000A600A40761
:101944000318A50A2508A3002408A2000800200003
:10195400A300A20121082318A207A135A336230856
:10196400031DAC2C220808002000A50000308B1BAE
:101974000130A6008B132508A100AB30A201A135CC
:10198400A20D210784009830223D8500003FA3006A
:10199400013FA40023082100C804200024082100DA
:1019A400C9042000261CD82C8B1708008B130800B0
:1019B400A20023009100920120002108230093003B
:1019C4009513151500308B1B01302000A3008B13D9
:1019D400553023009600AA30960095142000230C5D
:1019E400031C8B1303188B1723009518F62C151161
:1019F4000800823022009700171FFE2C1F302000A1
:101A0400B9000130472588313A08C9003908C800AF
:101A1400220097130C302000B9000130472588318B
:101A24003A08C4003908C3004808490403193C2D86
:101A34004808AD004908AE00AF01B0014308A10059
:101A44004408A2002030A301A401A801A701A60014
:101A54000C30A500372688312408B4002308B300CD
:101A64002208B2002108B100CC2588312E08C60016
:101A74002D08C5006430B200B3014608B50045081E
:101A8400B400A7253208C7000800BC00C201C20A7E
:101A9400BD01BE0121001E088F3910389E00FC30A4
:101AA4009E051E1120003908BB00BB0DBB0D210093
:101AB4001D0820003B0683393B0621009D002000C1
:101AC4003C0C2100031C9E1303189E171D14533055
:101AD4002000BB00BB0B6C2D0C3020003906031911
:101AE400772D1F303906031D7F2DF930BB00BB0B4A
:101AF400792D003204302000C200C10142084102A5
:101B04000318932D21009D14000021009D18872D9A
:101B14001B082000BD0721001C082000BE3DC10A8F
:101B2400802D21001D1020004208B200B3013E08A0
:101B3400B5003D08B400A7253308C0003208BF0033
:101B44004008BA003F08B9000800B601B7013208DE
:101B540033040319C72DB801B80AB31BB42DB23529
:101B6400B30DAE2DB635B70D33083502031DBC2DAC
:101B740032083402031CC32D3208B4023308B53BC7
:101B84003614B336B20CB80BB42D3708B30036088C
:101B9400B2000800B501B601B701B80130082F043E
:101BA4002E042D040319022EB901B90AB01BDF2D2E
:101BB400AD35AE0DAF0DB00DD72DB535B60DB70D96
:101BC400B80D30083402031DF12D2F083302031D14
:101BD400F12D2E083202031DF12D2D083102031CB4
:101BE400FC2D2D08B1022E08B23B2F08B33B300860
:101BF400B43B3514B036AF0CAE0CAD0CB90BDF2DC5
:101C04003808B0003708AF003608AE003508AD001C
:101C14000800C801C9010800CF3020009805181039
:101C24002100111020001110970196010800F819E5
:101C340000342D268831C4009A304402031C2A2E15
:101C4400192E2D268831C4009B3044020318013418
:101C5400F819192E232E09302000B9000030472529
:101C640021001C082000C3000800A901AA01AB013F
:101C7400AC01211C452E2508A9072608AA3D2708E2
:101C8400AB3D2808AC3DA535A60DA70DA80DA4367F
:101C9400A30CA20CA10C2408230422042104031D78
:101CA4003B2E2C08A4002B08A3002A08A200290814
:101CB400A10008002F00910121001113200011132D
:101CC40001306529A930B401B601B7018400983008
:101CD400850000088D2488312000B400B80138083C
:101CE4009C3E860021308701873D0108D03EB50027
:101CF4000A303502031800343708AD003608AC004A
:101D04000A30AE00AF013C2388312D08B7002C08FF
:101D1400B6003508B6070318B70A0330B80A380204
:101D2400031C712E3408B200B30137083302031DBB
:101D34009D2E36083202031C003436083704031D76
:101D440001340034A401A40124089C3E86002130FF
:101D54008701873D0108A1002408893E840098304A
:101D64000318013E85000008DA248831200022305F
:101D7400A40A240203180800A62E0930BB01BC01E2
:101D8400BD01BE01B200B3013A08AD003908AC0090
:101D94000530AE00AF013C2388312D08B5002C0876
:101DA400B400A72588313308C0003208BF000230D0
:101DB400BF070318C00A3030B200B3013A08AD00BF
:101DC4003908AC001130AE00AF013C2388312C0837
:101DD400313EB40000302D3DB500A72588313308CD
:101DE400BC003208BB000730B200B3013B083F0718
:101DF400B4003C08403DB500A7253308BE003208B6
:101E0400BD00080022008C018D0104308E00080002
:101E14002000EC01D22388313827883178127813D6
:101E240030278831B001232788310B118B120B170F
:101E34008B172000931021009314280017150230EB
:101E44001D2A20000230ED10ED126C162100DA007C
:101E5400DB013F08C0003C30DF0008002100B60170
:101E6400B701B801B9010A30FC0008002000EB11E9
:101E74002200BD01A001A101A201A301A401A501A9
:101E8400A601A7012000A1012135283E86000130CA
:101E940087001E30C03F0030C13F0630A10A210236
:101EA400031C462F1E302200B400B5010800612730
:101EB400883122000E16662722000E120800230025
:101EC4009D171D169E16080080302000A1000430C6
:101ED400A2009F31C127883182302000AC00DD3060
:101EE400AB00AB0B732FAC0B732F0032743020009C
:101EF400A2009930A300DC2788318230AC00DD30A9
:101F0400AB00AB0B832FAC0B832F003222000E12DD
:101F140006302000AD001330AC00B130AB00AB0B89
:101F2400912FAC0B912FAD0B912F003222000E1686
:101F340060302000A100A2019F31C1278831823086
:101F44002000AC00DD30AB00AB0BA62FAC0BA62FF2
:101F540000329431082488318230AC00DD30AB008B
:101F6400AB0BB22FAC0BB22F00325A302000A200C0
:101F74009930A300DC2788310630AD001330AC0063
:101F8400B130AB00AB0BC42FAC0BC42FAD0BC42FC3
:101F940000328B302000A2009930A300DC27883166
:101FA4008230AC00DD30AB00AB0BD62FAC0BD62FA0
:101FB40000320800A5012308A7002208A60026086D
:101FC40084002708850012000319080080302502C8
:101FD4000318080026088400270885000008F9274C
:101FE40088312000A60A0319A70AA50AE12FA10037
:0C1FF400111EFA2F210823009A0008009B
:1020840000308131352190310030AD209031640031
:10209400200042282000EA01EB01852023001D16C0
:1020A4002100911622000E1621000130CD01893144
:1020B400EC2190318931CF21903111142000181472
:1020C4006B15152724082200A300200023082200F2
:1020D400A200200022082200A100200021082200E2
:1020E400A0008B302000A2009930A3008F31DC27A0
:1020F40090318230AB00DD30AA00AA0B7F28AB0BF5
:102104007F280032080020009C30EA126A13EA1388
:102114002100DC002130DD0052302000EE000230CE
:102124002100DE000800210017100030AD2004302B
:102134008A311D22903121001714C4279031033AAB
:10214400031DA72805308A31E12A07308A31E122AC
:1021540090318F31042F432390312000DC00003074
:10216400E0012100111801302000DD0021001110D0
:1021740000308B1A01302000DE008B12EC13082390
:1021840090317C2290310530200060020318DC2855
:10219400172190317E219031013A031DD428053056
:1021A400E000C52822008D142000E00AEC1722006C
:1021B4008D10C5289927903122000D150D3020006F
:1021C400DA00FB30D900D90BE528DA0BE528003218
:1021D40022000C128C162000DF015C085F02031839
:1021E40003290630DB001330DA00B130D900D90BF3
:1021F400F928DA0BF928DB0BF92800322000DF0A72
:10220400EF289722903122008C1672229031AE274B
:102214005D0C2100031C11100318111420005E0C26
:10222400031C8B1203188B160800003018229031FF
:10223400D821903149302000A4009930A500053000
:10224400A6005621903153302000A4009930A500F7
:102254000430A600562190312000AB012B0818222F
:102264009031D821903120002B35583E8600013022
:102274008700403FA400413FA5000630A600562138
:10228400903120002B0853229031CE30A40000302E
:10229400A5000530A6005621903120000230AB0A7B
:1022A4002B0203180800302922000C132000AA0175
:1022B4002A08A700A801A71BA8032808803AA90098
:1022C40080302902031D68292608270203187B2968
:1022D40020002A08A700A801A71BA8032408270791
:1022E40084002508283D8500000835229031AA0A7B
:1022F4005A2922000C17D8290030AC01AC0A182244
:102304009031D821903149302000A4009930A500A3
:102314000530A600E2219031003A031D93292000E4
:10232400AC01D821903153302000A4009930A5008D
:102334000430A600E2219031003A031DA3292000B5
:10234400AC01D82190312000AD012D081822903124
:10235400D821903120002D35583E86000130870069
:10236400403FA400413FA5000630A600E221903181
:10237400003A031DBF292000AC0120002D08532280
:102384009031CE30A4000030A5000530A600E22133
:102394009031003A031DD0292000AC012000023006
:1023A400AD0A2D02031CA7292C08080020001C15C7
:1023B40022008C1520001C19DC2922008C11080035
:1023C400240884002508850000088038AA00A90193
:1023D400A90A22000C1320002A083522903121007A
:1023E4008C172000AB01AB0A26082B020318112A14
:1023F4002B239031AA002508A8002408A7002B0845
:102404002707840028080318280A850000082A06DC
:102414000319F52922000C1721008C130034220023
:102424000C1721008C132000290808002000A200AA
:1024340022360139A100A10E22000C082000210639
:10244400EF39210622008C00200022080139A10066
:10245400A10EA10D22000C0820002106DF3921065F
:1024640022008C000800A1008030A200A3012200F9
:102474000C112000210822050319432A22008C177D
:10248400452A22008C130000000022000C150000D5
:10249400000020000830A236A30A23020318080013
:1024A400392AA200D53E840098300318013E8500E5
:1024B4000008A3000B302100CE002000A401240852
:1024C400CF3E86008701230824078C318D24903168
:1024D400810020000430A40A240203180800612AA1
:1024E4000C100D118D100C138C130C118C118C12FB
:1024F4000C12080020001C1187309C05FC309C0540
:1025040014309B009A0191102100911422000C14A4
:102514008F302000A200DA30A100A10B8F2AA20B79
:102524008F2A000022008D100800F1239031AB00A7
:10253400EE308600213087002B088100E230A500B0
:102544000030A6000430A700BB2290319C30A500C7
:102554002130A600EE308600213087000108A70054
:10256400BB229031E730A5000030A6000330A7005D
:10257400BB2AAA01AA0127082A02031808002A086C
:10258400A800A901250786002908263D870001081F
:10259400003E840098300318013E85000008D522CF
:1025A4009031AA0ABD2AA1008030A2002108A3000C
:1025B400FF30A306F81AE42AFC309C051C0887396E
:1025C4006838EB2A1C08873930389C001C08FC3911
:1025D40001389C00EE309B009A0191102100911467
:1025E4002000A401230822050319FB2A22008C16CB
:1025F400FD2A22008C122000A2361C151C19002B67
:102604000830A40A240203180800F42A8C31FB249D
:1026140090312100B30020006D1F192B21003208D6
:102624003302031C192B20006D13ED13232B200000
:102634006D1B232B210033083102031C232B2000A4
:102644006D17513021003302031808002000ED17E4
:1026540008008030A101A200A30122000C11000097
:10266400000022000C1500000000200022088C1B32
:10267400A1040830A236A30A2302031C2F2B21082D
:1026840008002F0808002000D701A1249031B3309E
:10269400A1002130A200F730A3009830A4006924DF
:1026A4009031F1239031D800232590312000D700B8
:1026B400303ED10058089C3ED2002130D301D33D96
:1026C4005208860053088700510881005808013ECB
:1026D400262590315808D1009E30D201D3002130F4
:1026E400D40051085307D5005208543DD60055086C
:1026F4008600560887003C3081005808D1009F307E
:10270400D201D3002130D40051085307D500520818
:10271400543DD600550886005608870020308100B5
:10272400F1239031D8009C30A1002130A200580838
:10273400A1070318A20ADC30A3009830A40069247E
:102744009031F1239031A62B1130C1000230C20028
:102754008C31962490312308BF002208BE00F12357
:10276400BD00C0014208B3004108B2003F08B500F3
:102774003E08B4008D31A72590313208BC00413E9B
:10278400B9003D089C3EBA002130BB01BB3D3A086C
:1027940086003B08870039088100BD0A4208A20070
:1027A4004108A1003F08A4003E08A3008124220898
:1027B400BF002108BE001730B200B3014208B500C3
:1027C4004108B4008D31A72590313308C200320886
:1027D400C1000330C00A400203180800B42B9C3027
:1027E400A301A1002130A200FF2B523023020318C1
:1027F400062CA30AA10A0319A20A210886002208AA
:1028040087000108031DF72B230808008B302000E4
:10281400A2009930A3008F31DC2790318230A900C7
:10282400DD30A800A80B142CA90B142C00329C300A
:102834002000A1002130A2000430A3009930A4009C
:1028440069249031A630A1002130A2004E30A300AB
:102854009930A40069249031AB30A1002130A2004A
:102864005730A3009930A4006924AA012A08603EC5
:102874008600013087000108A800A53086002130B9
:102884008700280881002A08DD3E86000130870081
:102894000108A800AA30860021308700280881009A
:1028A4009C30A2002130A3008F31DC27903182308C
:1028B400A900DD30A800A80B5D2CA90B5D2C00320B
:1028C40020000830AA0A2A0203180800382C22081B
:1028D400A6002108A50025088600260887002308ED
:1028E4008400240885000008C03F890803190800F3
:1028F400A50A0319A60AA30A0319A40A6D2C210820
:10290400220403199C2CA501A50AA21B8C2CA13519
:10291400A20D862C22082402031D922C21082302D6
:10292400031C982C2108A3022208A43BA236A10C64
:10293400A50B8C2C2408A2002308A1000800022562
:10294400CF014F08363E8C318D2490312000C800D1
:102954004F089C3EC9002130CA01CA3D490886007F
:102964004A088700480881000430CF0A4F02031C3C
:10297400A32CD00150083A3E8C318D249031200094
:10298400C8005008C900A130CA01CB002130CC00D6
:1029940049084B07CD004A084C3DCE004D0886003F
:1029A4004E088700480881000730D00A5002031CF3
:1029B400BC2CA0308600213087003E308100AE3030
:1029C40086003E308100A83086002C308100A9307A
:1029D40086003C308100B13086003C308100AC3050
:1029E40086002E308100AF30860056308100B03032
:1029F400860042308100B230860020308100080019
:102A0400210033082000C4004530B9000030BA006A
:102A14004408BB000330BC00BD014726AA30860031
:102A240021308700450881004608C300AB3086008A
:102A3400430881004708C300AD3086004308810085
:102A4400080022003A080800A4009C3EA10021309E
:102A5400A201A23D210886002208870030308100AF
:102A64006D1F402D24089C3EA1002130A201A23DEF
:102A7400210886002208870031308100ED1F4E2D89
:102A840024089C3EA1002130A201A23D2108860019
:102A94002208870032308100EC1F080024089C3E85
:102AA400860021308701873D0108033EA1002408E8
:102AB4009C3EA2002130A301A33D220886002308E6
:102AC4008700210881000800A1249031BE308600CF
:102AD400213087003E308100CE3086003E308100B8
:102AE400D83086003E308100B23086002C30810020
:102AF400BD3086002C308100C13086002C3081002E
:102B0400CD3086002C308100D13086002C308100FD
:102B1400C03086003C308100D03086003C308100DB
:102B2400B83086002E308100C83086002E308100F7
:102B3400B53086003A308100C53086003A308100D5
:102B4400D930860048308100BF3086004E30810085
:102B54002200470BB12DBF30860053308100CF30A7
:102B6400860021308700453081004D0BBD2DCF30CC
:102B7400860057308100B3302000B9002130BA00FC
:102B8400220043082000BB000230BC00BD014726E0
:102B94009031B630B9002130BA0022004408200038
:102BA400BB000230BC00BD0147269031C230B900E1
:102BB4002130BA00220049082000BB000330BC00C9
:102BC400BD0147269031C630B9002130BA00220039
:102BD4004A082000BB000230BC00BD0147269031EA
:102BE400152790312408BD002308BC002208BB002F
:102BF4002108BA0039279031D2302000B9002130A1
:102C0400BA00210057082000BB000230BC00BD01FF
:102C140047269031D430B9002130BA002100580839
:102C24002000BB000230BC00BD0147269031D630E5
:102C3400B9002130BA00210059082000BB0002303D
:102C4400BC00BD0147269031B930C3002130C40017
:102C5400220046082000C600220045082000C500C6
:102C64000430C700C801CC269031C930C3002130DC
:102C7400C40022004C082000C60022004B0820009B
:102C8400C5000430C700C801CC2E64303B02031CCD
:102C94004F2E03303C020318622E64303B020A308C
:102CA40003185C2E3B02031C5B2E02303C0203180B
:102CB400622E0A303B02031808003C08031908007E
:102CC4003D0B6D2E3C08BE00BF01390786003F084E
:102CD4003A3D8700810102303C020A30031C8F2EEA
:102CE400BC03A1003B089C269031C2000A30A1001D
:102CF4003B08B4269031BB003030C2073C08BE000C
:102D0400BF013907C0003F083A3DC10040088600B2
:102D140041088700420881006D2EA1003B089C26D3
:102D2400C2003030C207390886003A0887004208DA
:102D340081000800A3000830A400A5012308A20014
:102D44000730A236890BA32E25352204A500A3350E
:102D540021082502031CB02E2108A502A40BA02ED5
:102D640025080800A200A40121080319CA2EA30102
:102D7400A30AA11BBF2EA135BA2EA4352108220215
:102D8400031CC72E2108A2022414A136A30BBF2EB4
:102D94002408080027304602103003194502031C9A
:102DA400D72E053047020318E22E27304602103092
:102DB400031945020318080004304702031C0800E5
:102DC4004408BA004308B9006430B200B3014608AD
:102DD400B5004508B4008D31A72590313208BB00F9
:102DE4004708FE3EBC004808BD0047269031440811
:102DF400BA004308B9004708B9070318BA0AFE30F5
:102E0400B907031CBA036430A100A2014608A40058
:102E14004508A300812490312108BB000230BC0086
:102E24004808BD00472E00308B1B0130A9008B13CE
:102E3400210039082000A800210038082000A7003C
:102E4400210037082000A600210036082000A50034
:102E5400291C2E2F8B172F2F8B1320002808A4003A
:102E64002708A3002608A2002508A10008003D08A1
:102E7400C5003C08C4003B08C3003A08C2000E3039
:102E8400B001AF01AE001030AD004508B4004408F5
:102E9400B3004308B2004208B1008D31CC25903113
:102EA4002D082100D7003C302000AD00AE01AF0159
:102EB400B001210057082000A100FF30A201A301A6
:102EC400A401A800A700F130A600F030A5008E31BF
:102ED4003726903121084207BE002208433DBF0037
:102EE4002308443DC0002408453DC100B400400807
:102EF400B3003F08B2003E08B1008D31CC259031BB
:102F04002D082100D800C4302000A1002100580859
:102F14008C31A9249031BE00F030A1002100570863
:102F24008C31A9243E0742072100D9000800AE27AE
:102F3400903121004C08003A0319AA2F013A0319D1
:102F4400AB2F033A0319AB2F013A0319AC2FAD2F62
:102F5400C62F662D452B08002000A1012108803AC8
:102F6400313E0318BE2F21089C3E86002130870184
:102F7400873D8101A10AB02FEE3086002130870001
:102F84008101080043080800A1249031B330A10056
:102F94002130A200EA30A3009830A40069249031C3
:102FA400F1239031D3009C30A1002130A2005308BA
:102FB400A1070318A20ADC30A3009830A4006924F6
:102FC4009031A6239031F123D3009C3ED1002130CF
:102FD400D201D23D5108860052088700203081007A
:102FE400D30A53089C3ED1002130D201D23D51086E
:102FF4008600520887002030810008000334003422
:1030040000340034003400340034533400340034C9
:103014002334003400340B340034003400340034DE
:1030240000340034003400340034003400340034FC
:1030340000340034003400340034003413345B347E
:10304400473417344B3400342F346B347B342734F7
:10305400003400341B3463341F345F343734773422
:10306400673443342B3407345734733433340F34D4
:103074003B343F347F3400346F344F340034633492
:103084004F343B344B3443345B342F3417343334B0
:103094006B347B3427341F341B340F343734773488
:1030A4002B345334073473343F3467345F34573428
:1030B400473400340034EE340634013442341034DE
:1030C40002343D34013403345F34023404346E3446
:1030D400003405346D3400340634B034003407341D
:1030E4009A3403340834C9341D3409349534103403
:1030F4000A34023408340B34E2341D340C341634EC
:1031040007340D34163407340E34D83400342234E2
:103114002334243425342734283429342A342C34D1
:103124002D342E342F343134323433343434363471
:103134003734383439343A343B343C343D343E3417
:103144003F344034423443344434453446344734C1
:103154004834013400340234003404340034083474
:1031640000341034003420340034403400348034CB
:1031740000340034013400340234003404340034A4
:103184000834003410340034203400344034003423
:1031940080342A3499341C349934233499341534C2
:1031A40099340E349934223427342C3431341E3477
:1031B4003C34963456343E34323435343C34523410
:1031C4003E34363437343C342034433420340034F1
:1031D4004134433454344934563441344E34443401
:1031E4004F3453344534203400344E344F34543443
:1031F4004934433445342034473450345334203430
:103204003E3400342434503441344934523430345C
:10321400363432342C340034243445344534533475
:103224004C3466340034243447344E3447345334F5
:1032340041340034243447344E3452344D3443340E
:103244000034243447345034473453344134003444
:1032540024344734503452344D3443340034073426
:1032640000340034003400340034083400340034B2
:103274000134043400340934003400340234083492
:1032840000340A340034003403340C340034003481
:1032940080340034003440342C3430342A34333411
:1032A400003401341834083424340D340A3400341E
:1032B400243450344134493452343034363436347E
:1032C4002C3431342C3430342C3431342C343134E7
:1032D4002C3431342C3430342A34333441340D34E6
:1032E4000A340034243450344134493452343834A8
:1032F400363434342C3430342C3430342C343934A3
:103304003634303430342A34313433340D340A34DE
:103314000034243450344134493452343034363453
:1033240037342A34333442340D340A3400344534C7
:1033340030340034453431340034453432340034CC
:10334400453433340034453434340034453435346E
:10335400003445343634003445343734003445348D
:0A33640038340034453439340034A5
:103728009C30A1002130A2002C30A30074259B31CD
:103738002208B5002108B400B40A0319B50A6B10B1
:103748002200C201C80120003508A5003408A400E1
:103758000230A60052259B312200BE00200034080A
:10376800023EA4000030353DA5000230A6005225D7
:103778009B312200BF0020003408043EA400003022
:10378800353DA5000230A60052259B312200C0001D
:1037980020003508A2003408A1002C30A3007425AD
:1037A8009B312208B5002108B400B40A0319B50AF0
:1037B800340886003508870056300106031DE82BBB
:1037C8002200C101C10AF42B34088600350887009D
:1037D80041300106031DF42B2200C10120006B14A7
:1037E80020003508A2003408A1002C30A30074255D
:1037F8009B312208B5002108B400B40A0319B50AA0
:1038080034088600350887002C30010603194E2C31
:103818002200C201C20A20003508A5003408A4000D
:103828000230A60052259B312200C3002000340834
:10383800023EA4000030353DA5000230A600522506
:103848009B312200C40020003408073EA400003049
:10385800353DA5000230A60052259B31B20002304A
:10386800B301A6003408053EA4000030353DA5008C
:103878005225AC006430AD01AE00AF018B313C2362
:103888009B3132082C072200C500200033082D3D4B
:103898002200C60020003508A2003408A1002C3000
:1038A800A30074259B312208B5002108B400B40A8E
:1038B8000319B50A2200420B782C20003408860030
:1038C800350887004E300106031D6D2C2200C70104
:1038D800782C340886003508870053300106031D0C
:1038E800782C2200C701C70A20003508A200340836
:1038F800A1002C30A30074259B312208B5002108B3
:10390800B400B40A0319B50A3408860035088700DC
:103918002C3001060319D22C2200C801C80A200045
:103928003508A5003408A4000330A60052259B31B1
:103938002200C90020003408033EA4000030353DB1
:10394800A5000230A60052259B312200CA002000A3
:103958003408083EA4000030353DA5000230A6001A
:1039680052259B31B2000230B301A6003408063E4E
:10397800A4000030353DA5005225AC006430AD01EF
:10398800AE00AF018B313C239B3132082C0722005B
:10399800CB00200033082D3D2200CC002000350844
:1039A800A2003408A1002C30A30074259B31220802
:1039B800B5002108B400B40A0319B50A2200480B5F
:1039C800FC2C200034088600350887005730010693
:1039D800031DF22C2200CD01CD0AFC2C34088600F0
:1039E8003508870045300106031DFC2C2200CD0157
:1039F80020003508A2003408A1002C30A30074254B
:103A08009B312208B5002108B400B40A0319B50A8D
:103A18003508A2003408A1002C30A30074259B317E
:103A28002208B5002108B400B40A0319B50A3508FC
:103A3800A2003408A1002C30A30074259B31220871
:103A4800B5002108B400B40A0319B50A3508A50061
:103A58003408A4000230A60052259B312200D4006D
:103A680020003408023EA4000030353DA500023095
:103A7800A60052259B312200D50020003408043EC0
:103A8800A4000030353DA5000230A60052259B3128
:103A98002200D60020006B1C08008A2DA901AA016B
:103AA800AB016E2D26082A020318722D2A08A700DA
:103AB800A801240786002808253D87000108D03E74
:103AC800AB000A30A10029088C31A9249B312B07AF
:103AD800A900AA0A0A302B02031C562D290808003F
:103AE800210886002208870001080319872D21086C
:103AF8008600220887000108230603190800A10A86
:103B08000319A20A742DA101A201080022003E088F
:103B18002000A1000E30A201A301A401A801A70161
:103B2800A6001030A5008E3137269B3124082100CD
:103B3800BD00200023082100BC002000220821002D
:103B4800BB00200021082100BA0022003F08200005
:103B5800AC003C30AD01AE00AF018B313C232C08EA
:103B68002100BA0720002D082100BB3D0030BC3DD4
:103B7800BD3D220040082100BA0701300318BB07E9
:103B88000318BC070318BD070800781ED52D582652
:103B98009D31003027020430031926020318DA2D5C
:103BA800E02D58302100A6000230A7002608FD3E6F
:103BB800A800FF30273DA9007817B62FAD272208A7
:103BC800CF002108CE000A30B200B3014F08AD0083
:103BD8004E08AC000F30AE00AF018B313C239D3155
:103BE8002D08B5002C08B4008D31A7259D31330868
:103BF800CF003208CE0000304F021E3003194E02AB
:103C08000318092E1E30CE00CF0158269D31200002
:103C18006D1B6D1D1E2EA430860006308701A03E48
:103C280084008501403F00072100A6000131413F83
:103C3800003DA7002000ED1F342E4F08CB004E0892
:103C4800CA001030CA35CB0DCC000E30CD004A0862
:103C58004C022100A60020004B084D3B2100A70084
:103C68002100270820004F02031D3E2E21002608B0
:103C780020004E0203184E2E4E0821002602A800EE
:103C880020004F082100273BA90005307814A827F9
:103C98009D31562E21002708A9002608A8000530C6
:103CA8008A31E12278170800973115279D312408B9
:103CB800C8002308C7002208C6002108C500BA01A9
:103CC80021002E080F3C2000B900031CBA03BB00DA
:103CD8003A08BC000030BC1BFF30BD00BE003B08EA
:103CE800C5073C08C63D3D08C73D3E08C83D210004
:103CF80024082000A100210025082000A200A3011B
:103D0800A4014808A8004708A7004608A6004508D7
:103D1800A50072272208C3002108C20021002E082E
:103D28002000B200B3014308B5004208B4008D3149
:103D3800A7259D313208C90021002D082000A100C7
:103D4800A2014908A300A401A31BA40339279D319C
:103D58002108013EC90021002D082000A100A20170
:103D68004908A300A401A31BA403392721082100A3
:103D78002C02FF3E2000C40021002E082000A100D4
:103D8800A2014308A4004208A300943181249D3174
:103D9800210821002E022000C100B900BA01440800
:103DA800AC00AD01AC1BAD0321002E082000AE0015
:103DB800AF018B313C239D3139082C072100A60027
:103DC80020003A082D3D2100A7002000C41FFB2E2B
:103DD800A430860006308701A03E84008501403F5C
:103DE80000072100A6000131413F003DA700200047
:103DF8004508B9004608BA004708BB004808BC0097
:103E0800210026082000BD00210027082000BE0050
:103E1800BF01C0013D08B9073E08BA3D3F08BB3D98
:103E28004008BC3D3C082100A30020003B082100BD
:103E3800A20020003A082100A10020003908210032
:103E4800A0002308031D302F813020025130213B70
:103E58000130223B031C08008030A007AE30A13D92
:103E6800FE30A23DFF30A33D0800A601A41F432F4A
:103E7800A309A409A30A0319A40AA601A60AA21F52
:103E88004A2FA109A209A10A0319A20A210822049A
:103E98000319652FA501A50AA21B552FA135A20D4F
:103EA8004F2F22082402031D5B2F21082302031C25
:103EB800612F2108A3022208A43BA236A10CA50B5E
:103EC800552F260803196D2FA309A409A30A03195E
:103ED800A40A2408A2002308A10008002408230437
:103EE8002204210403199F2FA901A90AA41B812FC9
:103EF800A135A20DA30DA40D792F24082802031DB6
:103F08008F2F23082702031D8F2F22082602031D47
:103F18008F2F21082502031C992F2108A5022208AA
:103F2800A63B2308A73B2408A83BA436A30CA20C55
:103F3800A10CA90B812F2808A4002708A300260894
:103F4800A2002508A10008002000A1002100C4004B
:103F58000800220035082000A200220034082000B2
:103F6800A100080060302000A100A201C1278F3104
:103F780061272200BB0190314C2823001E129F1597
:103F88001E15D72F23009C016730D52F23009C01D5
:103F98001030D52F23009C010830D52F23009C0119
:103FA8000C309B00F52F20002208003A0319E32F5C
:103FB800023A0319E82F063A0319ED2FF52F2108C5
:103FC800603A0319C62FF52F2108403A0319CA2F62
:103FD800F52F2108803A0319CE2F013A0319D22F61
:103FE800F52F82302000A400DD30A300A30BFA2FA8
:083FF800A40BFA2F00320800AF
:020000040001F9
:04000E00CCEFFFDE56
:10E00000000000000000FF00FF00FF00FF00FF0015
:10E01000FF00FF00FF00FF00FF00FF00FF00FF0008
:10E02000FF00FF00FF00FF00FF00FF00FF00FF00F8
:10E03000FF00FF00FF00FF00FF00FF00FF00FF00E8
:10E04000FF00FF0015007000E0002200FF00150037
:10E050007000FA005800FF0015007000E000220078
:10E06000FF0015007000FA005800FF004400430054
:10E0700054004300300030003100310030003100E6
:10E080003000FF0006000100010028009400140089
:10E09000CF00FF00FF00FF00FF00FF00FF00FF00B8
:10E0A000FF00FF00FF00FF00FF00FF00FF00FF0078
:10E0B000FF00FF00FF00FF00FF00FF00FF00FF0068
:10E0C000FF00FF00FF00FF00FF00FF00FF00FF0058
:10E0D000FF00FF00FF00FF00FF00FF00FF00FF0048
:10E0E000FF00FF00FF00FF00FF00FF00FF00FF0038
:10E0F000FF00FF00FF00FF00FF00FF00FF00FF0028
:10E10000FF00FF00FF00FF00FF00FF00FF00FF0017
:10E11000FF00FF00FF00FF00FF00FF00FF00FF0007
:10E12000FF00FF00FF00FF00FF00FF00FF00FF00F7
:10E13000FF00FF00FF00FF00FF00FF00FF00FF00E7
:10E14000FF00FF00FF00FF00FF00FF00FF00FF00D7
:10E15000FF00FF00FF00FF00FF00FF00FF00FF00C7
:10E16000FF00FF00FF00FF00FF00FF00FF00FF00B7
:10E17000FF00FF00FF00FF00FF00FF00FF00FF00A7
:10E18000FF00FF00FF00FF00FF00FF00FF00FF0097
:10E19000FF00FF00FF00FF00FF00FF00FF00FF0087
:10E1A000FF00FF00FF00FF00FF00FF00FF00FF0077
:10E1B000FF00FF00FF00FF00FF00FF00FF00FF0067
:10E1C000FF00FF00FF00FF00FF00FF00FF00FF0057
:10E1D000FF00FF00FF00FF00FF00FF00FF00FF0047
:10E1E000FF00FF00FF00FF00FF00FF00FF00FF0037
:10E1F000FF00FF00FF00FF00FF00FF00FF00FF0027
:00000001FF
