:10000000000080316B2808007E14803123009D1C85
:1000100018281D12000023001D1618282000911E0C
:100020001B2823001908F7007708873165278031DE
:100030002100911A0E282100911C23282000911CD8
:1000400023281C1191108B1A0B1D3D28FD0A9B3192
:10005000B12380317D06031D2F2822008E120A3025
:100060007D02031C362822008E16FD01FB183C2859
:1000700020001508053E95000B112100931C5F28F8
:100080002000931C5F282100E503FB1C4A2865081B
:10009000031D5D2887319327803105308731B327D1
:1000A00080317B1C5A2803308731B32780312800E8
:1000B00017117B100A302100E50020009310210069
:1000C000111C69282000111C692887315F27200036
:1000D00011107E10090020000308A00083316F2B4F
:1000E0006730A1009A30A200F0248031FB1C7A28EE
:1000F00080218031A72080310B138B1321009310B6
:100100002800171120001C1128001E1120001810B3
:10011000AC208031B3208031003A031D96281708A7
:10012000C13914389700171463008A28D625803106
:10013000FB189E28C8258031A425803102306A250D
:100140008031C0302000A1009A30A200F02C2200A3
:100150000E12210091129D2922008C0140308D0049
:1001600004308E000800BC208031210045080319AE
:1001700008000330C5016A2D28001D082000AE00CC
:10018000AF01B00122000E15FB18CD28D0302000A1
:10019000AC00AC0BC9281F30D72807302000AD00B9
:1001A0007D30AC00AC0BD228AD0BD228FA30280041
:1001B0009D0078309E049C01200093112030210086
:1001C000E9001C30EA000230312180318F302100FB
:1001D000E9000230EA013121803121005408D500C4
:1001E000333054060319F628FA16F728FA12A73006
:1001F0002100E900EA0128001E15072902303121FB
:1002000080312100541D07292000B001B00A2000D0
:100210003008031D0D29931DFE282E0828009D007F
:100220001E08873908389E001E11AD302100E900F4
:1002300002303121803121005408031D222902306F
:100240003121803122000E118E110E1080302100DC
:10025000540203182E292000AF01AF0A20002F08F6
:1002600008002000A800E930A900D330AA0022002D
:100270008E150E112000AB012B08A500A601A51BB1
:10028000A6032608803AA70080302702031D4A29CA
:100290002808250203185B2920002A088600870108
:1002A00029088400850100085E2180318100AA0AA6
:1002B000A90AAB0A3C2922000E150800A1008030D3
:1002C000A201A300A4012108230503196A29220021
:1002D0000E146C2922000E108E1100000000220066
:1002E0008E1500000000200023088E18A204A336FB
:1002F000A40A2408803A783E031C632922080800D7
:10030000FB1C8B291F30A1009A30A200F024803101
:10031000912180318D29C8258031A4252800171509
:100320000800FC30210099051908873938389900F0
:1003300099131A1D9929FB10080023009D131D1203
:100340009E1208000030AC01AC0AFD228031F3227D
:10035000803137302000A4009930A5000530A60078
:100360001A238031003A031DB7292000AC01F32283
:10037000803141302000A4009930A5000430A6004F
:100380001A238031003A031DC7292000AC01F32253
:1003900080312000AD012D08FD228031F322803113
:1003A00020002D35583E860001308700403FA400D4
:1003B000413FA5000630A6001A238031003A031DF4
:1003C000E3292000AC0120002D08E1268031CE3049
:1003D000A4000030A5000530A6001A238031003AA1
:1003E000031DF4292000AC0120000230AD0A2D02CB
:1003F000031CCB292C08080054272000DC00003007
:10040000E0012100111801302000DD002100111051
:1004100000308B1A01302000DE008B12FA139C3161
:100420000F24803139278031053020006002031805
:10043000322A8C228031A2218031013A031D232AE5
:100440000530E000142A22008D142000E00AFA177B
:1004500022008D10B3302000A1009A30A200F024B9
:100460008031142A9D316325803122000D150D3015
:100470002000DA00FB30D900D90B3C2ADA0B3C2AE9
:10048000003222000C128C162000DF015C085F0293
:1004900003185A2A0730DB001730DA006F30D90012
:1004A000D90B502ADA0B502ADB0B502A000020000F
:1004B000DF0A462A9D31D325803122008C16822204
:1004C00080316C302000A1009930A200F0248031EE
:1004D0009C30A1002130A200F02480316C30A100BA
:1004E0009930A200F0249D317E255D0C2100031C73
:1004F00011100318111420005E0C031C8B1203183A
:100500008B1608000C100D118D100C138C130C1190
:100510008C118C120C1208000030FD228031F32265
:10052000803137302000A4009930A5000530A600A6
:10053000CB22803141302000A4009930A500043046
:10054000A600CB2280312000AB012B08FD22803198
:10055000F322803120002B35583E86000130870081
:10056000403FA400413FA5000630A600CB228031C9
:1005700020002B08E1268031CE30A4000030A500F9
:100580000530A600CB22803120000230AB0A2B02BE
:1005900003180800A52A22000C132000AA012A082B
:1005A000A700A801A71BA8032808803AA90080304B
:1005B0002902031DDD2A260827020318F02A20003D
:1005C0002A08A700A801A71BA8032408270784005E
:1005D0002508283D8500000851238031AA0ACF2A2A
:1005E00022000C17F32A20001C1522008C15200075
:1005F0001C19F72A22008C1108002000A2002236C4
:100600000139A100A10E22000C0820002106EF39BB
:10061000210622008C00200022080139A100A10E31
:10062000A10D22000C0820002106DF39210622003E
:100630008C00080024088400250885000008803804
:10064000AA00A901A90A22000C1320002A0851239C
:10065000803121008C172000AB01AB0A26082B0249
:1006600003184A2B9B31F7238031AA002508A800E4
:100670002408A7002B082707840028080318280A45
:10068000850000082A0603192D2B22000C172100D3
:100690008C13003422000C1721008C132000290831
:1006A0000800A1008030A200A30122000C1120004C
:1006B0002108220503195F2B22008C17612B2200D1
:1006C0008C130000000022000C1500000000200028
:1006D0000830A236A30A230203180800552BE43081
:1006E00084009B308500DA308600003087000030BF
:1006F000FF0013309B31C7238031003084008830E5
:10070000850058308600013087000030FF0011302E
:100710009B31C7238031D330840087308500CB30B4
:100720008600013087000030FF0022309B31C72354
:1007300080319C308400213085005430FE00003030
:10074000FF009B31BB238031F801F901FA01FB0165
:10075000FC01FD01A0308400003085003A30FE002D
:100760000030FF009B31BB238031203084000130FA
:1007700085003830FE000030FF009B31BB23803104
:10078000A0308400013085002B30FE000030FF00D7
:100790009B31BB23803120308400023085001A3029
:1007A000FE000030FF009B31BB2380317E10200013
:1007B000D92BE9238031BA302000A1009830A20063
:1007C000F024803101306A259231822280318031DB
:1007D0006B286400C825803107302000D0007D30B0
:1007E000CF00CF0BF12BD00BF12B01309031052036
:1007F00080318731F52780315430A1009A30A20032
:10080000F0248031E730A1009930A200F02480313B
:10081000E430A1009A30A200F02480318B30A10096
:100820009A30A200F02480318230A1009A30A200D8
:10083000F02480316C30A1009930A200F024803186
:10084000DC268031DE268E319E2680319B31D323FB
:100850008031A4258031DC258031D6259C3161246E
:1008600080319C31AF2C562780312208E3002108CB
:10087000E2000A30B200B3016308AD006208AC00C8
:100880000F30AE00AF01E22580312D08B5002C08F5
:10089000B4007F2580313308E3003208E2000030E5
:1008A00063023230031962020318592C3230E2001D
:1008B000E301F72580317C1B7C1D6C2CA430860065
:1008C00006308701A03E84008501403F0007A60056
:1008D0000131413F003DA700FC1F822C200063082E
:1008E000DF006208DE001030DE35DF0DE0000E3084
:1008F000E1005E0860022100A60020005F08613B65
:100900002100A700270820006302031D8B2C210073
:100910002608200062020318A22C62082100260289
:10092000A800200063082100273BA9001430200004
:10093000A1009A30A200F024803105307B14D82623
:100940008031AA2C21002708A9002608A80005301C
:100950006A25803179302000A1009A30A200F0246D
:100960008031210026082000CF0021002708200028
:10097000D000D101D201582580316C30A1009930CE
:10098000A200F02480312A30A1009A30A200F02485
:1009900080316208CF006308D000D101D201582510
:1009A00080316C30A1009930A200F0248031DB301E
:1009B000A1009930A200F0248031210028082000F5
:1009C000CF00210029082000D000D101D2015825F4
:1009D00080316C30A1009930A200F0247B17080010
:1009E000B001B201FB18F62C0C30F72C683028004F
:1009F0009D002000A401AD01AD0A21088400220859
:100A00008500120003190800603030020318080046
:100A100021088400220885000008AE00B101B10A57
:100A2000B201B20A2E08310503191D2D3208243EE9
:100A3000860087018101810A222D3208243E86002A
:100A4000870181010930B135B20A3202031C122D2F
:100A500028001E119C0100308B1B01302000AF00CC
:100A60008B13931128001E152000B2013208243E7A
:100A700086008701010C2200031C0D1303180D17BB
:100A800020009311931D422D0A30B20A3202031C3A
:100A9000362D28001E11200093112F1C512D8B176D
:100AA000522D8B132000A10A0319A20AB00AFD2CB3
:100AB0005208BD005108BC005008BB004F08BA00E6
:100AC0005330BE009E31452680315330A1000030A6
:100AD000A200F02C2000A70021004208C300200043
:100AE0002735CB3E860001308700413F8A00403FDA
:100AF0000A008531200027082100C2000800B60145
:100B0000B7013208330403199F2DB801B80AB31B8B
:100B10008C2DB235B30D862DB635B70D33083502A1
:100B2000031D942D32083402031C9B2D3208B4029D
:100B30003308B53B3614B336B20CB80B8C2D3708DE
:100B4000B3003608B200080028001711FB1CB82DAE
:100B50001708FC390238970017088739483897007A
:100B60007D3096000A302100E400823095000800B4
:100B70001708FC3902389700170887395038970052
:100B80008E30960001302100E40088309500080086
:100B9000FC302100990519088739683899009913A4
:100BA0001A1ED02D9A1DD22DFB1408001708C1392A
:100BB0001C3897001710080002302100C500C6013C
:100BC000C7010800B001B1012C1CEA2D2E08B007A6
:100BD0002F08B13DAE35AF0DAD36AC0C2C082D0451
:100BE000031DE42D3108AD003008AC0008008B3146
:100BF0005F2380312408C8002308C7002208C600EC
:100C00002108C500BA0121002E080F3C2000B900C0
:100C1000031CBA03BB003A08BC000030BC1BFF3009
:100C2000BD00BE003B08C5073C08C63D3D08C73DAA
:100C30003E08C83D210024082000A100210025080D
:100C40002000A200A301A4014808A8004708A700AB
:100C50004608A6004508A5009E31BA268031220824
:100C6000C3002108C20021002E082000B200B301F9
:100C70004308B5004208B4007F2580313208C9001E
:100C800021002D082000A100A2014908A300A40111
:100C9000A31BA403002780312108013EC9002100C5
:100CA0002D082000A100A2014908A300A401A31B54
:100CB000A4030027210821002C02FF3E2000C400CD
:100CC00021002E082000A100A2014308A400420830
:100CD000A300973192278031210821002E022000A5
:100CE000C100B900BA014408AC00AD01AC1BAD03B2
:100CF00021002E082000AE00AF01E2258031390826
:100D00002C072100A60020003A082D3D2100A70055
:100D10002000C41F9A2EA430860006308701A03E12
:100D200084008501403F00072100A6000131413FBA
:100D3000003DA70020004508B9004608BA00470852
:100D4000BB004808BC00210026082000BD0021008F
:100D500027082000BE00BF01C0013D08B9073E08BA
:100D6000BA3D3F08BB3D4008BC3D3C082100A30004
:100D700020003B082100A20020003A082100A10029
:100D8000200039082100A0002308031DCF2E813048
:100D900020025130213B0130223B031C08008030EF
:100DA000A007AE30A13DFE30A23DFF30A33D0800BC
:100DB000A1002100C400080000306A2DC801C9014B
:100DC0000800A200B33E840098300318013E85005D
:100DD0000008A3000B302100CE002000A40124084D
:100DE000CF3E86008701230824078F3133278031C7
:100DF000810020000430A40A240203180800EF2E0A
:100E0000A601A41F0A2FA309A409A30A0319A40A6F
:100E1000A601A60AA21F112FA109A209A10A03195E
:100E2000A20A2108220403192C2FA501A50AA21B3E
:100E30001C2FA135A20D162F22082402031D222FDC
:100E400021082302031C282F2108A3022208A43B07
:100E5000A236A10CA50B1C2F26080319342FA309B9
:100E6000A409A30A0319A40A2408A2002308A100C4
:100E7000080020001C1187309C05FC309C051430B4
:100E80009B009A0191102100911422000C148F30C4
:100E90002000A200DA30A100A10B4C2FA20B4C2F96
:100EA000000022008D1008002F08080022003508DD
:100EB0002000A200220034082000A1000800210028
:100EC000E7036708031D08007A2FF60028304A065A
:100ED0000319772F4908A03E860001308700760865
:100EE00081002830CA0AC90A49060319C901073016
:100EF000B3270800852FFB15902F0E30B3278731BD
:100F0000902F22008D120D12902F6308003A0319C2
:100F10007B2F013A03197D2F033A0319812F902F5C
:100F2000200018100800CD0A05304D02031C0800EF
:100F3000CD010430B327873101302100B6070030DE
:100F4000B73DB83DB93D3908031DAE2F803036029C
:100F50005130373B0130383B031C0800B601B70164
:100F6000B801B9010800F40000308B1B0130F50016
:100F70008B137408F0008930F101F035F10D700722
:100F800084009830713D8500003FF200013FF3007E
:100F900072082100C8047308C904751CD12F8B176F
:100FA00008008B130800B7341B3419340934173484
:100FB0000934153409341B340934133409341D340D
:100FC000093411340934B4341B34303431343334FB
:100FD000353436343734383439344534463444348F
:100FE00042343834393436343734CF302000980521
:100FF000181021001110200011109701960108000F
:101000001F349934253499342B349934313499343C
:101010003C343C340D340A34003458340D340A3432
:1010200000347B1D142816208031B3287A1E352801
:10103000BA30A1009A30A2008431F0248831210016
:101040005C082000CF0021005D082000D000D10105
:10105000D20185315825883101302100DC02003071
:10106000DD3B5C085D0403197A12FC1C4728210053
:10107000C00B4728FC1E43283F08C0008B12FC12FF
:1010800022008E1247283E08C0008B16FC16013045
:101090002100DA020030DB3B5A085B04031D080024
:1010A0007A1E56280A30DA00DB015A282C30DA0082
:1010B0000130DB005B2820000030E1018B1A013099
:1010C000E0008B1222008E1227302000DF00F53066
:1010D000DE00DE0B6928DF0B6928A6208831E200DC
:1010E000600C031C8B1203188B1646306202031827
:1010F0007B2801307C280030E100AC30A1009A3020
:10110000A2008431F02488316208CF00D001D101DF
:10111000D2018531582588316C30A1009930A20068
:101120008431F02488317C0C0139610603190800F0
:101130000310FC1C0314031C9F28FC14A028FC10A3
:10114000FC1808008B1222008E12080009302000C3
:10115000B9000030B02021001C082000C3000800A6
:10116000BC00C201C20ABD01BE0121001E088F39A8
:1011700010389E00FC309E051E1120003908BB006F
:10118000BB0DBB0D21001D0820003B0683393B062B
:1011900021009D0020003C0C2100031C9E1303181D
:1011A0009E171D1453302000BB00BB0BD5280C30FC
:1011B000200039060319E0281F303906031DE828EE
:1011C000F930BB00BB0BE228003204302000C20023
:1011D000C101420841020318FC2821009D140000AF
:1011E00021009D18F0281B082000BD0721001C08C5
:1011F0002000BE3DC10AE92821001D102000420840
:10120000B200B3013E08B5003D08B40085317F252A
:101210003308C0003208BF004008BA003F08B900D8
:1012200008000B303C2F08303C2F08303C2F0A3090
:101230003C2F00303C2F09303C2F0C303C278031B4
:10124000AC283D2189312000A800A3248931033A2C
:10125000031D080020002808031D352900306D24D7
:101260008931FA1A38290130392903306D2489313E
:101270000230D021043085316A2D18107911781E82
:10128000482922008B30BA012000A10099306A2938
:1012900078195A2902302200BA007D302000A100BE
:1012A0009930A2008431F0248931FE2189317021E6
:1012B00089316D29F819642922006F30BA01BA0A00
:1012C0002000A100993051292200B530BA01200038
:1012D000A1009930A2008431F02422003A080800CD
:1012E000F801F901B421893123001D16210091165E
:1012F00022000E160130C121893194218931111447
:101300002000181479155F2324082200A300200070
:1013100023082200A200200022082200A1002000B1
:1013200021082200A0000800003020001818013019
:10133000A10000302100111801302000A200181077
:10134000FB1121006208E7002000111097019601AF
:10135000210C031C181003181814220C2100031C64
:1013600011100318111408009C30F8127813F813A8
:101370002100DE002130DF005230E1000230E000C9
:1013800008002000A100181818102100E300B73E43
:10139000840098300318013E85000008E200080030
:1013A0002000B3002100B5000F30B4007A173508D3
:1013B000840005300402031808009A310435F33E16
:1013C0008200080022000D16A4302000A1009A30EF
:1013D000A2008431F02C22008D169C302000A10048
:1013E0009A30A2008431F02C22000D128D1294301C
:1013F0002000A1009A30A2008431F02C803020001F
:10140000A1000430A2005322893182302000B700AD
:10141000DD30B600B60B0A2AB70B0A2A0032483074
:101420002000A2009930A300922289318230B700B7
:10143000DD30B600B60B1A2AB70B1A2A003222008A
:101440000E1206302000B8001330B700B130B600DD
:10145000B60B282AB70B282AB80B282A00322200FC
:101460000E1660302000A100A20153228931823083
:101470002000B700DD30B600B60B3C2AB70B3C2A83
:101480000032B62289318230B700DD30B600B60BAB
:10149000472AB70B472A0032A7302000A100993015
:1014A000A2008431F02C23001E129F151E15692AFC
:1014B00023009C016730672A23009C011030672AB3
:1014C00023009C010830672A23009C010C309B00FC
:1014D000872A20002208003A0319752A023A0319C4
:1014E0007A2A063A03197F2A872A2108603A0319C3
:1014F000582A872A2108403A03195C2A872A21089A
:10150000803A0319602A013A0319642A872A823033
:101510002000A400DD30A300A30B8C2AA40B8C2A8E
:1015200000320800A5012308A7002208A60026080B
:101530008400270885001200031908008030250266
:101540000318080026088400270885000008AF2239
:1015500089312000A60A0319A70AA50A972AA10023
:10156000111EB02A210823009A0008006C302000C8
:10157000A1009930A2008431F02489319C30A1006F
:101580002130A200F230A3009830A4001823893142
:10159000A630A1002130A2003C30A3009930A40065
:1015A00018238931AB30A1002130A2004530A300BF
:1015B0009930A4001823B5013508DD3E86000130BE
:1015C00087000108B300A53086002130870033086A
:1015D00081003508E53E8600013087000108B30030
:1015E000AA30860021308700330881009C30A1009A
:1015F0002130A2008431F02489319C30A2002130B6
:10160000A300922289318230B400DD30B300B30BE5
:10161000072BB40B072B003220000830B50A350227
:10162000031CDC2AC230A1009930A2008431F02CC6
:101630002208A6002108A5002508860026088700A4
:1016400023088400240885000008C03F8908031986
:101650000800A50A0319A60AA30A0319A40A1C2B49
:101660002100171000308131FC2189310430F3252D
:101670008931210017146E268931033A031D452B49
:10168000053085316A2589314C2B073085316A2533
:1016900089318031AC2089315F2389312408BD0034
:1016A0002308BC002208BB002108BA00842389312A
:1016B0007026CF30A1009930A2008431F02C003088
:1016C0008B1B01302000A9008B132100390820005A
:1016D000A800210038082000A700210037082000BA
:1016E000A600210036082000A500291C792B8B17A5
:1016F0007A2B8B1320002808A4002708A3002608B3
:10170000A2002508A10008003D08C5003C08C4004F
:101710003B08C3003A08C2000E30B001AF01AE0072
:101720001030AD004508B4004408B3004308B200CF
:101730004208B100822589312D082100D7003C30B4
:101740002000AD00AE01AF01B0012100570820001C
:10175000A100FF30A201A301A401A800A700F1305D
:10176000A600F030A500CE25893121084207BE0031
:101770002208433DBF002308443DC0002408453DE6
:10178000C100B4004008B3003F08B2003E08B100F9
:10179000822589312D082100D800C4302000A10005
:1017A00021005808C1258931BE00F030A100210078
:1017B0005708C1253E0742072100D90008008031A3
:1017C000A7208931A6248531F72589314A302000A8
:1017D000A1009A30A2008431F02489312100B001A7
:1017E000A3248931053A031D080000307224893191
:1017F000003021002702063003192602031C102C9A
:101800002608FD3EA800FF30273DA9000930200032
:10181000A1009A30A2008431F02489317B14142C69
:101820002708A9002608A80001307B176D24063080
:1018300085316A2D602CF3302000A1009930A20080
:101840008431F024893105307B1485316A2D803153
:10185000A720893150258931A624893121003008FB
:101860000319FC1D3A2C01307224893102306D2499
:1018700089313D2C03306D24FC110330B00AA800DF
:101880000630A90185316A25893140307B17200057
:10189000A1009A30A2008431F02CFB1C522C0430A1
:1018A00085316A2DFE302000A1009930A2008431DC
:1018B000F02403307B142100A800A9017B17080045
:1018C000A3248931053A0319272C033A03194D2C17
:1018D000013A03191B2C6C2C08002000A1002100E8
:1018E000CC0008002000A6002608031D822C203012
:1018F000A1000230A2003E30A3000130A4008B24DE
:10190000FC1508003E30A1000130A2002030A300E9
:101910000230A4008B2C210822040319080023089C
:1019200024040319080021088600220887002000EB
:1019300023088400240885001A30A50012001E0028
:10194000A50B9E2C08002100420808002000E2019F
:10195000E301E401E501220023082702031DBA2C5C
:1019600022082602031DBA2C21082502031DBA2CC9
:10197000200824020318E02C80302000DE005130C3
:10198000DF000130E0000430E101203E860001303C
:101990008700403FDE07413FDF3D423FE03D433FA0
:1019A000E13D61082200A700200060082200A60097
:1019B00020005F082200A50020005E082200A4008D
:1019C000200824022000DE0022002108253B200000
:1019D000DF0022003D35283E8600013087002000D0
:1019E0005E08C03F5F08C13F22003D35283E8600AB
:1019F000403FB600413FB70099302000A100993028
:101A0000A2008431F024893122003D35283E860031
:101A100001308700403F2000DE00413FDF005E08CC
:101A2000CF005F08D000D101D2018531582589311E
:101A30006C30A1009930A2008431F0248931E60194
:101A40006635283E860001308700403FDE00413F7A
:101A5000DF005E08E2075F08E33D0030E43DE53D5E
:101A60000630E60A6602031C202D0630AD00AE01EA
:101A7000AF01B0016508B4006408B3006308B200A8
:101A80006208B10082252E082200B50020002D0832
:101A90002200B4000630BD0A3D020318BD01080053
:101AA000220020082000A100220021082000A2001E
:101AB000220022082000A300220023082000A40006
:101AC000210024082000A500210025082000A600F0
:101AD000A701A8012508A1072608A23D2708A33DC4
:101AE0002808A43D24082200A70020002308220083
:101AF000A600200022082200A500200021082200C4
:101B0000A4000800B501B601B701B80130082F04E0
:101B10002E042D040319B82DB901B90AB01B952D57
:101B2000AD35AE0DAF0DB00D8D2DB535B60DB70D74
:101B3000B80D30083402031DA72D2F083302031DF2
:101B4000A72D2E083202031DA72D2D083102031CDC
:101B5000B22D2D08B1022E08B23B2F08B33B30083E
:101B6000B43B3514B036AF0CAE0CAD0CB90B952DA3
:101B70003808B0003708AF003608AE003508AD00B1
:101B800008002000A300A20121082318A207A13504
:101B9000A3362308031DC42D22080800A901AA01A9
:101BA000AB01AC01211CDC2D2508A9072608AA3DA4
:101BB0002708AB3D2808AC3DA535A60DA70DA80DFF
:101BC000A436A30CA20CA10C240823042204210493
:101BD000031DD22D2C08A4002B08A3002A08A20064
:101BE0002908A10008002000CA00AA278931CB00DB
:101BF0000230332789312000CE005B26893123084B
:101C0000CD002208CC0004304A06031D0F2E73308D
:101C10004B02031C4E0B08000230A1013A2E793012
:101C20004B02031C08004E08031D08000230A101EE
:101C3000A10A3A2689312F3020004D02863003193F
:101C40004C02031C2B2E0130A1013A2689312000C1
:101C50000030A1013A2ECC0A0319CD0A4D08CE005E
:101C6000A10001303A26893120004C08CE00A100A5
:101C700000303A2EA200230091009201200021089A
:101C8000230093009513151500308B1B01302000A5
:101C9000A3008B13553023009600AA3096009514AC
:101CA0002000230C031C8B1303188B17230095189B
:101CB000562E151108000130332789312000A60067
:101CC000A5000030A40133272000A600A4070318B4
:101CD000A50A2508A3002408A2000800430808005C
:101CE00043302000B9000030BA002100570820001E
:101CF000BB000230BC00BD019631022689313A306A
:101D0000C500C8004630B9000030BA0021005808AC
:101D10002000BB000230BC00BD0196310226893193
:101D20004930B9000030BA00210059082000BB003A
:101D30000230BC00BD01BD0A9631022E2000C30155
:101D4000FC01C40144083E3E332789310F3920008D
:101D5000C1000A30A1004308C12589314107C300F1
:101D60000330C40A4402031CA22E43082100AC0025
:101D70004230332789312100AE0043303327893187
:101D80002100AF00473033272100AD002E0820008E
:101D9000AC00AD0121002D082000AE00AF0185315F
:101DA000E22589312D082100A50020002C08210002
:101DB000A4004830332789312000C100C201C13559
:101DC000C20DC135C20D4108B9004208BA006027F2
:101DD00089312100B100053EB200443033278931FA
:101DE0002100C1004530332789312000C50005306E
:101DF000A10045080F39C12589312100BF000530F8
:101E00002000A1004508C1000430C136890B052F10
:101E100041080F39C12589312100BE003F08C000AB
:101E20004630332789312000C500451C7C15C51874
:101E30007C16451AFB16C51E7B157C1E222F013011
:101E40003C2789315B2689312F30230287300319E3
:101E50002202031C08000130A1013A26893120002A
:101E60000030A1013A2E2000A10023009100920130
:101E700095131514130808002000A50000308B1BD3
:101E80000130A6008B132508A1008930A201A135DD
:101E9000A20D210784009830223D8500003FA30059
:101EA000013FA40023082100C804200024082100C9
:101EB000C9042000261C5E2F8B1708008B13080016
:101EC0000930BB01BC01BD01BE01B200B3013A083B
:101ED000AD003908AC000530AE00AF018531E22518
:101EE00089312D08B5002C08B40085317F25893152
:101EF0003308C0003208BF000230BF070318C00A11
:101F00003030B200B3013A08AD003908AC001130EE
:101F1000AE00AF018531E22589312C08313EB40095
:101F200000302D3DB50085317F2589313308BC0057
:101F30003208BB000730B200B3013B083F07B400D2
:101F40003C08403DB50085317F253308BE0032088E
:101F5000BD000800823022009700171FAD2F1F30F0
:101F60002000B90001308831B02089313A08C90019
:101F70003908C800220097130C302000B900013046
:101F80008831B02089313A08C7003908C6004808AE
:101F900049040319EC2F4808AD004908AE00AF0111
:101FA000B0014608A1004708A2002030A301A40107
:101FB000A801A701A6000C30A500CE258931240870
:101FC000B4002308B3002208B2002108B100822522
:101FD0002E08C4002D08C30047082100AB002000D4
:101FE00046082100AA0064302000B200B301440872
:101FF000B5004308B40085317F253208C5000800CC
:1020000021001714023085316A2D2000A10028001C
:102010001E111E08873908389E00FC309E05683066
:102020009D0020002108031D18280C3028009D0069
:102030002000931121000D1322000D1708009C3081
:10204000A1002130A2002C30A300FD2190312208F4
:10205000B5002108B400B40A0319B50A79102200AA
:10206000C201C80120003508A5003408A4000230D0
:10207000A600DB2190312200BE0020003408023E81
:10208000A4000030353DA5000230A600DB219031D0
:102090002200BF0020003408043EA4000030353D7B
:1020A000A5000230A600DB2190312200C0002000F4
:1020B0003508A2003408A1002C30A300FD21903186
:1020C0002208B5002108B400B40A0319B50A34087F
:1020D00086003508870056300106031D732822004C
:1020E000C101C10A7E2834088600350887004130C6
:1020F0000106031D7E282200C10179142000350845
:10210000A2003408A1002C30A300FD219031220848
:10211000B5002108B400B40A0319B50A34088600D2
:10212000350887002C3001060319D8282200C20187
:10213000C20A20003508A5003408A4000230A60019
:10214000DB2190312200C30020003408023EA400AD
:102150000030353DA5000230A600DB219031220081
:10216000C40020003408073EA4000030353DA5001F
:102170000230A600DB219031B2000230B301A6008C
:102180003408053EA4000030353DA500DB21AC003D
:102190006430AD01AE00AF018531E22590313208E7
:1021A0002C072200C500200033082D3D2200C60068
:1021B00020003508A2003408A1002C30A300FD2126
:1021C00090312208B5002108B400B40A0319B50AF9
:1021D0002200420B022920003408860035088700BF
:1021E0004E300106031DF7282200C70102293408DA
:1021F00086003508870053300106031D022922009E
:10220000C701C70A20003508A2003408A1002C30FD
:10221000A300FD2190312208B5002108B400B40AC2
:102220000319B50A34088600350887002C300106EA
:1022300003195C292200C801C80A20003508A5003E
:102240003408A4000330A600DB2190312200C9002D
:1022500020003408033EA4000030353DA5000230C4
:10226000A600DB2190312200CA0020003408083E7D
:10227000A4000030353DA5000230A600DB219031DE
:10228000B2000230B301A6003408063EA4000030BC
:10229000353DA500DB21AC006430AD01AE00AF01DF
:1022A0008531E225903132082C072200CB00200036
:1022B00033082D3D2200CC0020003508A200340850
:1022C000A1002C30A300FD2190312208B500210887
:1022D000B400B40A0319B50A2200480B862920006D
:1022E000340886003508870057300106031D7C2915
:1022F0002200CD01CD0A86293408860035088700E2
:1023000045300106031D86292200CD012000350835
:10231000A2003408A1002C30A300FD219031220836
:10232000B5002108B400B40A0319B50A3508A200A3
:102330003408A1002C30A300FD2190312208B50003
:102340002108B400B40A0319B50A3508A2003408FC
:10235000A1002C30A300FD2190312208B5002108F6
:10236000B400B40A0319B50A3508A5003408A4005E
:102370000230A600DB2190312200D4002000340876
:10238000023EA4000030353DA5000230A600DB214E
:1023900090312200D50020003408043EA400003013
:1023A000353DA5000230A600DB2190312200D60089
:1023B000791C0800132AA901AA01AB01F7292608F4
:1023C0002A020318FB292A08A700A801240786006F
:1023D0002808253D87000108D03EAB000A30A10047
:1023E00029088D31C12590312B07A900AA0A0A308E
:1023F0002B02031CDF292908080021088600220877
:10240000870001080319102A210886002208870086
:102410000108230603190800A10A0319A20AFD29CD
:10242000A101A20108003E082000A1000E30A20177
:10243000A301A401A801A701A6001030A5008D31B9
:10244000CE25903124082100BD0020002308210062
:10245000BC00200022082100BB0020002108210030
:10246000BA0022003F082000AC003C30AD01AE00B5
:10247000AF018531E2252C082100BA0720002D0884
:102480002100BB3D0030BC3DBD3D22004008210085
:10249000BA0701300318BB070318BC070318BD07B0
:1024A00008002130562292312108F02AA80000307D
:1024B000A9018B1B0130A7008B1323004A080319C5
:1024C000742A4808A03E86000130870001082000D9
:1024D000A90023002830CA03C80A48060319C80106
:1024E0004A08031D742A80222000270C031C8B132A
:1024F00003188B1728088600870129088100080027
:102500000730CA2A20001F30EB01EC013F00ED002C
:102510002000ED01ED0AEE01EF0121004808490419
:10252000031D942A64008D2A49082000EC00210034
:1025300048082000EB006D086B05E7006E086C058D
:10254000E8006704031DA82AED35EE0DEF0A9B2A6B
:102550006F08AC000330AD01AE00AF018531E2255C
:1025600092312D0885002C0884005D308407983056
:10257000853D003FE900013FEA008A0069080A0042
:102580000730923120006F060319882A6F08CA228B
:102590009231882A2000A50000308B1B0130A60054
:1025A0008B132508A1008930A201A135A20D2107B6
:1025B00084009830223D8500003FA300013FA40025
:1025C000A309A40923082100C8052000240821002C
:1025D000C9052000261CEE2A8B1708008B13080063
:1025E000B700791A0800781521005E0886005F0898
:1025F00087002000370881002100DE0A0319DF0A66
:10260000E103F81F242BE0036008031D4F2B9C30CF
:102610002000A1002130A20021006108523C2000CE
:10262000A3007B239231013A031D202B7816210051
:102630005E0886005F088700810122003C0846246E
:102640008931B42192314F2B781F2D2B2A30200055
:102650003706031D4F2BF8174F2BF81E462B06305D
:10266000E80A6806031D4F2B5E0886005F08870096
:102670009C3081012000A6002130A700DD2392318B
:10268000013A031D202B7817F8154F2B243020001A
:102690003706031D202BF8162100E801E80A210067
:1026A0006108031D562B8931B4219231F918791C28
:1026B00008005E302000A1009A30A2008431F0248E
:1026C0009231F9155924923121003D082000A400CF
:1026D00021003C082000A30021003B082000A200AC
:1026E00021003A082000A100292406308F313C2720
:1026F000F91079100800A601A701A10A0319A20A7E
:10270000AA01AA0A2308FD3EA400FF3003180030E6
:10271000A500803A803C031D8F2B24082A02031851
:102720009C2B200021088600220887000108A606AD
:10273000A10A0319A20A812B2000AA01A10A0319E8
:10274000A20A2108860022088700473001022A08D1
:10275000031CB42B283E8600870121088400220830
:1027600085000008DF39BC2B283E86008701210840
:102770008400220885000008D03E81002A08283EF7
:1027800086000A3087010102031CD02B2A08283E4C
:1027900086002A08283E840085010008F93E810051
:1027A0000230AA0A2A02031C9E2B280EF0392904A3
:1027B000A7002606031901340034AC01AB01AC01BB
:1027C0002708A2002608A1002C08A800A930A9010A
:1027D000A835A90D280784009830293D8500003FC1
:1027E000A300013FA4000724923121082204031D05
:1027F000FF2BAB01AB0A2C082200BC00042C0530D7
:10280000AC0A2C02031CE02B20002B080800152C1E
:10281000210886002208870001080319232CA10A39
:102820000319A20AA30A0319A40A21088600220890
:102830008700230884002408850000080102A50001
:1028400025080319082C2508A100A201A11BA20339
:10285000080000308B1B0130A5008B1324082100D9
:10286000B900200023082100B80020002208210020
:10287000B700200021082100B6007B16CD01200002
:10288000251C442C8B1708008B1308002000B60071
:102890004E2C90311F286B2C010008003608840054
:1028A00005300402031808009A310435E93E82001D
:1028B00008008B315F2324082200A7002000230892
:1028C0002200A600200022082200A50020002108E6
:1028D0002200A40008009C30F910A1002130A200C1
:1028E0002C30A3009131FD2192312208A50021084E
:1028F000A400A40A0319A50A240886002508870055
:102900004D300106031D872C2100CA01080025084F
:10291000A2002408A1002C30A3009131FD219231A6
:102920002208A5002108A400A40A0319A50A240866
:1029300086002508870033300106031D0800033098
:102940002100CB00F91408002000D7018726B330FE
:10295000A1002130A200E530A3009830A4008B3103
:102960001823943105259431D800B22794312000E2
:10297000D700303ED10058089C3ED2002130D30110
:10298000D33D52088600530887005108810058083B
:10299000013E092794315808D1009E30D201D3005E
:1029A0002130D40051085307D5005208543DD600B9
:1029B00055088600560887003C3081005808D10031
:1029C0009F30D201D3002130D40051085307D500E5
:1029D0005208543DD600550886005608870020301E
:1029E00081000525D8009C30A1002130A2005808A4
:1029F000A1070318A20ACA30A3009830A4008B31A3
:102A00001823943105259431B52F9C30A301A100E2
:102A10002130A200132D5230230203181A2DA30ACD
:102A2000A10A0319A20A21088600220887000108CA
:102A3000031D0B2D230808002000D10087269431A8
:102A4000BE308600213087003E308100CE308600C7
:102A50003E308100D83086003E308100B2308600A2
:102A60002C308100BD3086002C308100C1308600C2
:102A70002C308100CD3086002C308100D130860092
:102A80002C308100C03086003C308100D030860080
:102A90003C308100B83086002E308100C83086007E
:102AA0002E308100B53086003A308100C530860076
:102AB0003A308100D930860048308100BF3086002E
:102AC0004E3081002200470B692DBF308600533005
:102AD0008100CF30860021308700453081004D0BCA
:102AE000752DCF30860057308100B3302000B900FB
:102AF0002130BA00220043082000BB000230BC0095
:102B0000BD0102269431B630B9002130BA0022004E
:102B100044082000BB000230BC00BD0102269431F5
:102B2000C230B9002130BA00220049082000BB00A1
:102B30000330BC00BD0102269431C630B9002130FB
:102B4000BA0022004A082000BB000230BC00BD01D0
:102B500002268B315F2394312408BD002308BC007A
:102B60002208BB002108BA008B3184239431D23073
:102B70002000B9002130BA00210057082000BB0016
:102B80000230BC00BD0102269431D430B90021309E
:102B9000BA00210058082000BB000230BC00BD0173
:102BA00002269431D63086002130870030308100F3
:102BB000510BDE2DD6308600313081003B300927A5
:102BC0009431B930C3002130C400220046082000EF
:102BD000C600220045082000C5000430C700C80117
:102BE00049279431C930C3002130C40022004C0869
:102BF0002000C60022004B082000C5000430C7009A
:102C0000C801492F64303B02031C0A2E03303C02EA
:102C100003181D2E64303B020A300318172E3B02A6
:102C2000031C162E02303C0203181D2E0A303B02F4
:102C3000031808003C08031908003D0B282E3C0827
:102C4000BE00BF01390786003F083A3D8700810179
:102C500002303C020A30031C4A2EBC03A1003B0890
:102C600057269431C2000A30A1003B086F269431E8
:102C7000BB003030C2073C08BE00BF013907C000AE
:102C80003F083A3DC10040088600410887004208DD
:102C90008100282EA1003B085726C2003030C20711
:102CA000390886003A088700420881000800A3001E
:102CB0000830A400A5012308A2000730A236890B22
:102CC0005E2E25352204A500A33521082502031C0C
:102CD0006B2E2108A502A40B5B2E25080800A2007C
:102CE000A40121080319852EA301A30AA11B7A2E92
:102CF000A135752EA43521082202031C822E21083D
:102D0000A2022414A136A30B7A2E24080800E82678
:102D1000CF014F08363E8F31332794312000C80051
:102D20004F089C3EC9002130CA01CA3D49088600AF
:102D30004A088700480881000430CF0A4F02031C6C
:102D4000892ED00150083A3E8F313327943120002C
:102D5000C8005008C900A130CA01CB002130CC0006
:102D600049084B07CD004A084C3DCE004D0886006F
:102D70004E088700480881000730D00A5002031C23
:102D8000A22EA0308600213087003E308100AE3078
:102D900086003E308100A83086002C308100A930AA
:102DA00086003C308100B13086003C308100AC3080
:102DB00086002E308100AF30860056308100B03062
:102DC000860042308100B230860020308100080049
:102DD000210033082000C4004530B9000030BA009B
:102DE0004408BB000330BC00BD010226AA308600A7
:102DF00021308700450881004608C300AB308600BB
:102E0000430881004708C300AD30860043088100B5
:102E10000800A4009C3EA1002130A201A23D21088F
:102E2000860022088700303081007C1F232F240871
:102E30009C3EA1002130A201A23D2108860022086B
:102E4000870031308100FC1F312F24089C3EA100F7
:102E50002130A201A23D21088600220887003230DD
:102E60008100FA1F080024089C3E8600213087015B
:102E7000873D0108033EA10024089C3EA2002130AA
:102E8000A301A33D220886002308870021088100B2
:102E9000080027304602103003194502031C542F46
:102EA0000530470203185F2F273046021030031900
:102EB00045020318080004304702031C08004408B8
:102EC000BA004308B9006430B200B3014608B50047
:102ED0004508B40085317F2594313208BB0047088E
:102EE000FE3EBC004808BD00022694314408BA00EA
:102EF0004308B9004708B9070318BA0AFE30B907F2
:102F0000031CBA036430A100A2014608A4004508CE
:102F1000A300922794312108BB000230BC0048086E
:102F2000BD00022E210822040319AD2FA501A50A18
:102F3000A21B9D2FA135A20D972F22082402031D4D
:102F4000A32F21082302031CA92F2108A302220872
:102F5000A43BA236A10CA50B9D2F2408A200230898
:102F6000A100080022003A0808001130C100023018
:102F7000C2008E315B2694312308BF002208BE00B8
:102F80000525BD00C0014208B3004108B2003F085A
:102F9000B5003E08B40085317F2594313208BC006D
:102FA000413EB9003D089C3EBA002130BB01BB3D0B
:102FB0003A0886003B08870039088100BD0A4208AC
:102FC000A2004108A1003F08A4003E08A3009227E8
:102FD0002208BF002108BE001730B200B30142082A
:102FE000B5004108B40085317F2594313308C20013
:102FF0003208C1000330C00A400203180800C32F82
:1030000003340034003400340034003400345334CA
:10301000003400342334003400340B3400340034E2
:103020000034003400340034003400340034003400
:1030300000340034003400340034003400340034F0
:1030400013345B34473417344B3400342F346B342F
:103050007B342734003400341B3463341F345F3432
:1030600037347734673443342B340734573473346C
:1030700033340F343B343F347F3400346F344F34B7
:10308000003463344F343B344B3443345B342F349B
:10309000173433346B347B3427341F341B340F34F0
:1030A000373477342B345334073473343F34673434
:1030B0005F34573447340034003400341034013462
:1030C00029341C3402347034003403348034013425
:1030D0000434FD341C340534113408340634DF3430
:1030E0000B34073451341234083469341C34093435
:1030F00030340B340A349C341C340B3433340434F1
:103100000C34033400340D34033400340E342134D1
:1031100009340134003402340034043400340834F7
:10312000003410340034203400344034003480340F
:1031300000340034013400340234003404340034E8
:103140000834003410340034203400344034003467
:103150008034183499340A3499341134993403344E
:103160009934FC349834223427342C3431341E34CE
:103170003C34963447345034533444345F347634DA
:103180002E3431342E3430345F34643462340D34B0
:103190000A34003456343E34323434343C3444340B
:1031A0003E34363437343C34203443342034003415
:1031B0004134433454344934563441344E34443425
:1031C0004F3453344534203400344E344F34543467
:1031D0004934433445342034473450345334203454
:1031E0003E34003424345034413449345234303481
:1031F000363432342C34003424344534453453349A
:103200004C3466340034243447344E344734533419
:1032100041340034243447344E3452344D34433432
:103220000034243447345034473453344134003468
:1032300024344734503452344D344334003407344A
:1032400000340034003400340034083400340034D6
:1032500001340434003409340034003402340834B6
:1032600000340A340034003403340C3400340034A5
:1032700080340034003440342C3430342A34333435
:10328000003401341834083424340D340A34003442
:10329000243450344134493452343834363434349C
:1032A0002C3430342C3430342C34393436343034FB
:1032B00030342A34313433340D340A3400340D348C
:1032C0000A34203455344434203445345234523492
:1032D0004F345234203421340D340A3400340D3448
:1032E0000A34473450345334203442342034453483
:1032F000523452340D340A3400340D340A34473415
:10330000503453342034463420344534523452340B
:103310000D340A3400340D340A34473450345334F5
:10332000203457346F3472346B3473340D340A34B0
:1033300000340D340A344C346F3463346B345F34EE
:10334000743469346D3465343A34203400340D34C7
:103350000A346334663467345F34733465346E34EE
:1033600074340D340A34623400340D340A34473472
:103370005034533420344F342E344B342E340D34E7
:103380000A3400340D340A34533465346E347434E2
:1033900020346334663467340D340A3400340D3419
:1033A0000A34543478345F3464346F346E346534A2
:1033B0000D340A3400347234743463345F3461344D
:1033C0006C34613472346D343A3420340034413416
:1033D0007034723420343034393420343234303460
:1033E0003234353400340D340A3443344C344334ED
:1033F0004B345F3431340D340A3400340D340A3424
:1034000043344C3443344B345F3432340D340A3457
:1034100000340D340A3443344C3443344B345F3479
:1034200033340D340A3400340D340A3443344C340C
:1034300043344B345F3434340D340A3400340D34A7
:103440000A3443344C3443344B345F344C340D34FD
:103450000A34003453345F346C346F3463346B3467
:10346000653472343A3420340034473444345F34A1
:103470007334743461347234743475347034003499
:103480004E346F34203470346F3473342E340D3432
:103490000A3400344734503453345F344F344634A4
:1034A00046340D340A3400340D340A344234553471
:1034B00049344C3444343A34203400340D340A3422
:1034C000533479346E3463340D340A340034473461
:1034D000443420344F34463446340D340A340034F6
:1034E0004734503453345F344F344E340D340A343F
:1034F000003453345F3432345F34743478343A34C3
:10350000203400340D340A344D34493450345334AB
:103510003A3420340034313432343A3431343834AB
:103520003A343034373400344C345F344F3446341A
:1035300046340D340A3400344C3447345F344F344D
:103540004E340D340A3400344C3452345F344F342A
:103550004E340D340A34003449346C3475346D34CF
:103560003A34203400340D340A344434653472342F
:10357000723400340D340A344C343A34203400347C
:103580005334553450340D340A3400344534303417
:103590000034453431340034453432340034453459
:1035A0003334003445343434003445343534003455
:1035B00045343634003445343734003445343834F7
:1035C00000344534393400342034203400342E346F
:1035D00000349431492C9431492C94314B2C943142
:1035E0004B2C94314C2C8931E2298931EB298931DA
:0A35F000E2298931EB298931F42921
:1037620021004108080002308F313C2F2100C301A3
:10377200C20108006400013080010131FE02003004
:10378200FF3B7F087E0403190034BC2BFE001200AD
:103792001E000130FE020030FF3B7F087E04031949
:1037A2000034C82B23008C0109308D008031AC20FD
:1037B20021008C0109308D0082308E0024008D01A1
:1037C2000830900008002C3401342C3401349C342D
:1037D2002134023452341E3403340A340A340A3493
:1037E2001E340134AD340034003400348030A10181
:1037F200A200A30122000C110000000022000C15FF
:1038020000000000200022088C1BA1040830A23610
:10381200A30A2302031CFB2B210808008F31AA27CD
:103822009C312100B3007C1F1D2C32083302031C83
:103832001D2C7C13FC13242C7C1B242C33083102FA
:10384200031C242C7C1751303302031CFC17080084
:1038520000308C316D249C3100308131FC219C314F
:10386200640006302000E3001330E200B130E100D2
:10387200E10B392CE20B392CE30B392C00320430EA
:103882008D31F3259C3103308C316D249C31003015
:103892008131FC219C31640006302000E3001330AA
:1038A200E200B130E100E10B542CE20B542CE30BAB
:1038B200542C003202308D31F3259C312000292C0A
:1038C200972422000E168931FE2122000E120800D2
:1038D2007030A1009A30A2008431F0249C317B1E0A
:1038E2007D2C8531F7259C310030270204300319E5
:1038F20026020318822C882C58302100A6000230A0
:10390200A7002608FD3EA800FF30273DA9007B172F
:103912008A2C80302000A1002530A2008A31532257
:103922009C3197242200BB018931702923009D1705
:103932001D169E1608002100C801C901FB18A72CFC
:103942008531C8259C318531A4259C31AF24353081
:103952002000A1009A30A2008431F02CFA018531B6
:10396200DC259C31D0249C317B127B13C8249C31F2
:10397200B001F0240B118B120B178B172000931040
:10398200210093142800171502308D31F32D2100E8
:10399200B601B701B801B9010A30E5000800F91112
:1039A2002200BD01A001A101A201A301A401A50160
:1039B200A601A7012000A1012135283E8600013081
:1039C20087003230C03F0030C13F0630A10A2102D9
:1039D200031CDD2C32302200B400B50108000A308D
:1039E200FC10FC127A16DA00DB013F08C0002C3012
:1039F200DC000130DD0008007B1F2F2D013021008B
:103A0200A8020030A93BE7302000A1009A30A200B2
:103A12008431F0249C312100E60B262D6C302000ED
:103A2200A1009930A2008431F0249C310A30210097
:103A3200E60028082000CF00210029082000D0003D
:103A4200D101D201853158259C3121002808290451
:103A5200031D2F2D7B138C311A249C317A1F0800F1
:103A6200322D2100B40B432D7A1322000D128D1238
:103A720004302100B50094302000A1009A30A20049
:103A82008431F02C02303506031D532D0310220021
:103A92000D1E0314031C502D22000D1608002200D7
:103AA2000D12080003303506031D08000310220022
:103AB2008D1E0314031C602D22008D1608002200A7
:103AC2008D1208007E259D3121004C08003A031911
:103AD200742D013A0319752D033A0319782D013A11
:103AE20003197B2D7D2D932D003095311C2D013036
:103AF20095311C2D9431A42C0800A1012108803A93
:103B0200313E03188D2D21089C3E8600213087010D
:103B1200873D8101A10A7F2DEE308600213087008A
:103B220081010800963187269D31B330A1002130F2
:103B3200A200D830A3009830A4008B3118239D3105
:103B4200953105259D31D3009C30A1002130A20082
:103B52005308A1070318A20ACA30A3009830A40090
:103B62008B3118239D319731B5279D31953105252C
:103B7200D3009C3ED1002130D201D23D51088600B3
:103B82005208870020308100D30A53089C3ED1009E
:103B92002130D201D23D51088600520887002030E0
:103BA20081000800953105259D31AB00EE3086007D
:103BB200213087002B0881006030A5000130A6006B
:103BC2000430A700F8259D319C30A5002130A600C5
:103BD200EE308600213087000108A700F8259D31CC
:103BE2006530A5000130A6000330A700F82DAA0118
:103BF200AA0127082A02031808002A08A800A90116
:103C0200250786002908263D87000108003E84001A
:103C120098300318013E8500000812269D31AA0A39
:103C2200FA2DA1008030A2002108A300FF30A306D4
:103C3200FB1A212EFC309C051C0887396838282E77
:103C42001C08873930389C001C08FC3901389C005C
:103C5200EE309B009A019110210091142000A401E2
:103C6200230822050319382E22008C163A2E220030
:103C72008C122000A2361C151C193D2E0830A40AF5
:103C8200240203180800312ECD01CE013D083C0468
:103C92003B043A04031D8B2E3E0886003030870118
:103CA2008100CD0A0319CE0A4D083E07BF008600E7
:103CB200810108004D08403E86000A308701A100BC
:103CC200A201A301A4013D08A8003C08A7003B08EB
:103CD200A6003A08A500BA262108303E8100CD0A86
:103CE2000319CE0A0A30AD00AE01AF01B0013D08A2
:103CF200B4003C08B3003B08B2003A08B1008D3171
:103D020082259E313008BD002F08BC002E08BB0062
:103D12002D08BA003D083C043B043A04031D5B2E07
:103D2200CB01CC014E08803ABF0080303F02031D18
:103D32009C2E01304D02031CB22E20004B083E0780
:103D4200BF008600FF308701CD07031CCE034D085C
:103D5200403E8400850100088100CB0A0319CC0A89
:103D6200932E20004B083E07BF0086008701810189
:103D7200080024082304220421040319E72EA901C0
:103D8200A90AA41BC92EA135A20DA30DA40DC12EF3
:103D920024082802031DD72E23082702031DD72E2D
:103DA20022082602031DD72E21082502031CE12E1C
:103DB2002108A5022208A63B2308A73B2408A83B0A
:103DC200A436A30CA20CA10CA90BC92E2808A4008E
:0E3DD2002708A3002608A2002508A10008006B
:020000040001F9
:04000E00CCEFFFDE56
:10E00000000000000000FF00FF00FF00FF00FF0015
:10E01000FF00FF00FF00FF00FF00FF00FF00FF0008
:10E02000FF00FF00FF00FF00FF00FF00FF00FF00F8
:10E03000FF00FF00FF00FF00FF00FF00FF00FF00E8
:10E04000FF00FF0015007000E0002200FF00150037
:10E050007000FA005900FF0015007000E000220077
:10E06000FF0015007000FA005900FF004400430053
:10E0700054004300300030003100310030003000E7
:10E080003400FF000A00010001001A0094000C0097
:10E09000CF00FF00FF00FF00FF00FF00FF00FF00B8
:10E0A000FF00FF00FF00FF00FF00FF00FF00FF0078
:10E0B000FF00FF00FF00FF00FF00FF00FF00FF0068
:10E0C000FF00FF00FF00FF00FF00FF00FF00FF0058
:10E0D000FF00FF00FF00FF00FF00FF00FF00FF0048
:10E0E000FF00FF00FF00FF00FF00FF00FF00FF0038
:10E0F000FF00FF00FF00FF00FF00FF00FF00FF0028
:10E10000FF00FF00FF00FF00FF00FF00FF00FF0017
:10E11000FF00FF00FF00FF00FF00FF00FF00FF0007
:10E12000FF00FF00FF00FF00FF00FF00FF00FF00F7
:10E13000FF00FF00FF00FF00FF00FF00FF00FF00E7
:10E14000FF00FF00FF00FF00FF00FF00FF00FF00D7
:10E15000FF00FF00FF00FF00FF00FF00FF00FF00C7
:10E16000FF00FF00FF00FF00FF00FF00FF00FF00B7
:10E17000FF00FF00FF00FF00FF00FF00FF00FF00A7
:10E18000FF00FF00FF00FF00FF00FF00FF00FF0097
:10E19000FF00FF00FF00FF00FF00FF00FF00FF0087
:10E1A000FF00FF00FF00FF00FF00FF00FF00FF0077
:10E1B000FF00FF00FF00FF00FF00FF00FF00FF0067
:10E1C000FF00FF00FF00FF00FF00FF00FF00FF0057
:10E1D000FF00FF00FF00FF00FF00FF00FF00FF0047
:10E1E000FF00FF00FF00FF00FF00FF00FF00FF0037
:10E1F000FF00FF00FF00FF00FF00FF00FF00FF0027
:00000001FF
