:1000000000008031682808007E14803123009D1C88
:1000100018281D12000023001D1618282000911E0C
:100020001B2823001908F700770887316E278031D5
:100030002100911A0E282100911C23282000911CD8
:1000400023281C1191108B1A0B1D3D28FA0A9031A0
:10005000012080317A06031D2F2822008E120A30DB
:100060007A02031C362822008E16FA01F9183C2861
:1000700020001508053E95000B112100931C5D28FA
:100080002000931C5D28FC03F91C49287C08031DF3
:100090005B2887319C27803105308731BD2780312F
:1000A000791C592803308731BD278031280017116A
:1000B00079100A30FC00200093102100111C6628E2
:1000C0002000111C66288731692711107E10090055
:1000D00020000308A0008A31D22A0230EE2E0B3015
:1000E000EE2E0830EE2E0830EE2E0A30EE2E0030C6
:1000F000EE2E0930EE2E0C30EE268931DC2921302F
:100100008420803121080B29A8000030A9018B1B15
:100110000130A7008B1323004A080319A2284808BE
:10012000A03E86000130870001082000A9002300BE
:100130002830CA03C80A48060319C8014A08031D23
:10014000A228AE202000270C031C8B1303188B174A
:100150002808860087012908810008000730B02898
:100160002000A50000308B1B0130A6008B13250852
:10017000A1008930A201A135A20D21078400983089
:10018000223D8500003FA300013FA400A309A4096C
:1001900023082100C805200024082100C9052000EB
:1001A000261CD4288B1708008B13080000308831D8
:1001B0008620803100309331C523803164000630C1
:1001C0002000E3001330E200B130E100E10BE6284B
:1001D000E20BE628E30BE6280032043085260330E4
:1001E00088318620803100309331C523803164000E
:1001F00006302000E3001330E200B130E100E10BF3
:10020000FF28E20BFF28E30BFF280032023085268F
:1002100080312000D628E7006E1A08006D152100F5
:100220005D0886005E0887002000670881002100C5
:10023000DD0A0319DE0AE1032000ED1F4129210038
:10024000DF035F08031D6B299C302000A1002130D3
:10025000A20021006108523C2000A300A4218031AB
:10026000013A031D3D296D1621005D0886005E08D8
:100270008700810122003C08522292315A228031AB
:100280006B296D1F49292A306706031D6B29ED175D
:100290006B29ED1E632921000630E60A6606031D60
:1002A0006B295D0886005E0887009C308101200074
:1002B000A6002130A70006228031013A031D3D2906
:1002C0006D17ED156B2924306706031D3D29ED16CA
:1002D0002100E601E60A21006108031D722992311E
:1002E0005A2280312000EE186E1C0800EE106E10AD
:1002F00021000A30CE0A4E02031C0800CE03200063
:10030000EE1A9029A730A1009A30A2008C31512416
:100310008031EE1564228831C02080312000EE1635
:1003200021003D082000A40021003C082000A3007B
:1003300021003B082000A20021003A082000A10073
:10034000762280310630EE2EA601A701A10A0319FC
:10035000A20AAA01AA0A2308FD3EA400FF3003183E
:100360000030A500803A803C031DB82924082A02E9
:100370000318C529200021088600220887000108EB
:10038000A606A10A0319A20AAA292000AA01A10A05
:100390000319A20A210886002208870047300102BB
:1003A0002A08031CDD29283E8600870121088400D5
:1003B000220885000008DF39E529283E86008701EC
:1003C00021088400220885000008D03E81002A0808
:1003D000283E86000A3087010102031CF9292A08F9
:1003E000283E86002A08283E840085010008F93E40
:1003F00081000230AA0A2A02031CC729280EF039FC
:100400002904A7002606031901340034AC01AB010E
:10041000AC012708A2002608A1002C08A800A930DA
:10042000A901A835A90D280784009830293D850029
:10043000003FA300013FA4003022803121082204A4
:10044000031D282AAB01AB0A2C082200BC002D2A70
:100450000530AC0A2C02031C092A20002B080800D6
:100460003E2A2108860022088700010803194C2A29
:10047000A10A0319A20AA30A0319A40A21088600E3
:100480002208870023088400240885000008010250
:10049000A50025080319312A2508A100A201A11BE6
:1004A000A20308002000B600592ACB2A932A010093
:1004B00008003608840005300402031808009B3148
:1004C00004351F3E820008008E3198262408220041
:1004D000A700200023082200A600200022082200F6
:1004E000A500200021082200A400080000308B1B7A
:1004F0000130A5008B1324082100B9002000230837
:100500002100B800200022082100B70020002108A7
:100510002100B6007916CD012000251C912A8B17E9
:1005200008008B1308009C30EE10A1002130A200BF
:100530002C30A300AB2480312208A5002108A400A0
:10054000A40A0319A50A24088600250887004D304F
:100550000106031DAE2A2100CA0108002508A200D9
:100560002408A1002C30A300AB2480312208A50070
:100570002108A400A40A0319A50A24088600250856
:10058000870033300106031D080003302100CB0033
:100590002000EE1408009C30A1002130A2002C3075
:1005A000A300AB2480312208B5002108B400B40AAE
:1005B0000319B50A6E102200C201C80120003508D7
:1005C000A5003408A4000230A6008924803122004E
:1005D000BE0020003408023EA4000030353DA500D6
:1005E0000230A600892480312200BF002000340898
:1005F000043EA4000030353DA5000230A600892449
:1006000080312200C00020003508A2003408A1007B
:100610002C30A300AB2480312208B5002108B4009F
:10062000B40A0319B50A3408860035088700563025
:100630000106031D1F2B2200C101C10A2B2B340808
:1006400086003508870041300106031D2B2B220050
:10065000C10120006E1420003508A2003408A1005A
:100660002C30A300AB2480312208B5002108B4004F
:10067000B40A0319B50A34088600350887002C30FF
:1006800001060319852B2200C201C20A2000350889
:10069000A5003408A4000230A6008924803122007D
:1006A000C30020003408023EA4000030353DA50000
:1006B0000230A600892480312200C40020003408C2
:1006C000073EA4000030353DA5000230A600892475
:1006D0008031B2000230B301A6003408053EA40008
:1006E0000030353DA5008924AC006430AD01AE007A
:1006F000AF018D314B25803132082C072200C50017
:10070000200033082D3D2200C60020003508A2003D
:100710003408A1002C30A300AB2480312208B5009E
:100720002108B400B40A0319B50A2200420BAF2B0A
:10073000200034088600350887004E300106031D6E
:10074000A42B2200C701AF2B340886003508870090
:1007500053300106031DAF2B2200C701C70A20003A
:100760003508A2003408A1002C30A300AB2480314E
:100770002208B5002108B400B40A0319B50A3408E8
:100780008600350887002C3001060319092C220049
:10079000C801C80A20003508A5003408A4000330A9
:1007A000A600892480312200C90020003408033EBD
:1007B000A4000030353DA5000230A6008924803118
:1007C0002200CA0020003408083EA4000030353D55
:1007D000A5000230A60089248031B2000230B301A6
:1007E000A6003408063EA4000030353DA50089244B
:1007F000AC006430AD01AE00AF018D314B258031CE
:1008000032082C072200CB00200033082D3D2200A7
:10081000CC0020003508A2003408A1002C30A30031
:10082000AB2480312208B5002108B400B40A0319B2
:10083000B50A2200480B332C200034088600350806
:10084000870057300106031D292C2200CD01CD0A57
:10085000332C340886003508870045300106031D17
:10086000332C2200CD0120003508A2003408A1005D
:100870002C30A300AB2480312208B5002108B4003D
:10088000B40A0319B50A3508A2003408A1002C30B7
:10089000A300AB2480312208B5002108B400B40ABB
:1008A0000319B50A3508A2003408A1002C30A300B2
:1008B000AB2480312208B5002108B400B40A031922
:1008C000B50A3508A5003408A4000230A600892422
:1008D00080312200D40020003408023EA400003001
:1008E000353DA5000230A600892480312200D500C4
:1008F00020003408043EA4000030353DA50002303D
:10090000A600892480312200D60020006E1C080039
:10091000C12CA901AA01AB01A52C26082A020318A3
:10092000A92C2A08A700A801240786002808253D2D
:1009300087000108D03EAB000A30A100290893319E
:10094000932380312B07A900AA0A0A302B02031C2B
:100950008D2C29080800210886002208870001083C
:100960000319BE2C210886002208870001082306EF
:1009700003190800A10A0319A20AAB2CA101A201C4
:10098000080022003E082000A1000E30A201A301B1
:10099000A401A801A701A6001030A5009331A0234F
:1009A000803124082100BD00200023082100BC0064
:1009B000200022082100BB00200021082100BA00ED
:1009C00022003F082000AC003C30AD01AE00AF017A
:1009D0008D314B252C082100BA0720002D0821005D
:1009E000BB3D0030BC3DBD3D220040082100BA07A0
:1009F00001300318BB070318BC070318BD07080024
:100A00002100C801C901F9180B2D8D31282580312D
:100A10008D310425803113257E302000A1009A30CD
:100A2000A2008C31512CF8018D31452580313425BF
:100A30008031791279132C258031B0015C27803107
:100A40000B118B120B178B1720009310210093149E
:100A5000280017150230852E2100B601B701B80114
:100A6000B9010A30FC0008002000EE112200BD018F
:100A7000A001A101A201A301A401A501A601A70152
:100A80002000A1012135283E8600013087001E305C
:100A9000C03F0030C13F0630A10A2102031C422D95
:100AA0001E302200B400B501080097310D278031B7
:100AB000B330A1002130A200D830A3009830A400A8
:100AC0009231F0228031963135268031D3009C302E
:100AD000A1002130A2005308A1070318A20ACA30BE
:100AE000A3009830A4009231F022803193259631F2
:100AF0003526D3009C3ED1002130D201D23D510891
:100B000086005208870020308100D30A53089C3E9B
:100B1000D1002130D201D23D510886005208870011
:100B20002030810008001130C1000230C200E025F1
:100B30002308BF002208BE00963135268031BD0053
:100B4000C0014208B3004108B2003F08B5003E08AA
:100B5000B4008C31DF2480313208BC00413EB90042
:100B60003D089C3EBA002130BB01BB3D3A088600DF
:100B70003B08870039088100BD0A4208A2004108ED
:100B8000A1003F08A4003E08A3008E3178268031E2
:100B90002208BF002108BE001730B200B30142088E
:100BA000B5004108B4008C31DF2480313308C20025
:100BB0003208C1000330C00A400203180800A12D0A
:100BC00001307C2680312000A600A5000030A40161
:100BD0007C262000A600A4070318A50A2508A30068
:100BE0002408A20008002000C301EF01C40144084A
:100BF0003E3E7C260F392000C1000A30A100430888
:100C00009331932380314107C3000330C40A440267
:100C1000031CF72D43082100AC0042307C268031B4
:100C20002100AE0043307C2680312100AF004730E8
:100C30007C262100AD002E082000AC00AD01210073
:100C40002D082000AE00AF018D314B2580312D08DD
:100C50002100A50020002C082100A40048307C269B
:100C600080312000C100C201C135C20DC135C20DA5
:100C70004108B9004208BA00122780312100B100B2
:100C8000053EB20044307C2680312100C100453051
:100C90007C2680312000C5002100BF000F30BF0539
:100CA0002000450E0F392100BE000F30BE053F0861
:100CB000C00046307C2680312000C500451C6F15E1
:100CC000C5186F16451AF916C51E79156F1E6B2EBD
:100CD0000130EE268031E02580312F30230287302D
:100CE00003192202031C08000130A101CD26803126
:100CF00020000030A101CD2E2000A1002300910092
:100D0000920195131514130808002000CA009631AB
:100D10006E268031CB0002307C2680312000CE0050
:100D2000E02580312308CD002208CC0004304A069B
:100D3000031DA22E73304B02031C4E0B0800023021
:100D4000A101CD2E79304B02031C08004E08031D73
:100D500008000230A101A10ACD2680312F302000E9
:100D60004D02863003194C02031CBE2E0130A10136
:100D7000CD26803120000030A101CD2ECC0A0319F0
:100D8000CD0A4D08CE00A1000130CD2680312000D3
:100D90004C08CE00A1000030CD2EA200230091000F
:100DA00092012000210823009300951315150030AF
:100DB0008B1B01302000A3008B13553023009600BD
:100DC000AA30960095142000230C031C8B130318E3
:100DD0008B1723009518E92E151108002000A50097
:100DE00000308B1B0130A6008B132508A100893031
:100DF000A201A135A20D210784009830223D850073
:100E0000003FA300013FA40023082100C8042000E4
:100E100024082100C9042000261C102F8B1708006D
:100E20008B1308000930BB01BC01BD01BE01B2003B
:100E3000B3013A08AD003908AC000530AE00AF018F
:100E40008D314B2580312D08B5002C08B4008C3134
:100E5000DF2480313308C0003208BF000230BF07F2
:100E60000318C00A3030B200B3013A08AD003908A7
:100E7000AC001130AE00AF018D314B2580312C0814
:100E8000313EB40000302D3DB5008C31DF2480317F
:100E90003308BC003208BB000730B200B3013B0886
:100EA0003F07B4003C08403DB5008C31DF243308D7
:100EB000BE003208BD00080020000230EF10EF1223
:100EC00078162100DB00DC013F08C0003C30E00068
:100ED0000800FD037D08031D0800832FF60028305D
:100EE0004A060319802F4908A03E8600013087007A
:100EF000760881002830CA0AC90A49060319C901BF
:100F00000730BD2708008E2FF915992F0E30BD2709
:100F10008731992F22008D120D12992F7B08003AEC
:100F20000319842F013A0319862F033A03198A2FD4
:100F3000992F2000181008002100CD0A05304D021D
:100F4000031C0800CD010430BD278731013021008A
:100F5000B6070030B73DB83DB93D3908031DB82F7D
:100F6000803036025130373B0130383B031C0800DB
:100F7000B601B701B801B9010800F40000308B1BBD
:100F80000130F5008B137408F0008930F101F03561
:100F9000F10D700784009830713D8500003FF2002C
:100FA000013FF30072082100C8047308C904751CCE
:100FB000DB2F8B1708008B130800FC3407347734C1
:100FC00000347534003473340034793400347134AF
:100FD00000347B3400346F3400346D3400344534D5
:100FE00046344434423438343934363437342100CA
:100FF000171402308C31CA2C2100C301C201080031
:10100200F030A1009A30A200512488316025883145
:10101200B001BD208831053A031D080000308B2045
:101022008831003021002702063003192602031CF2
:1010320021282608FD3EA800FF30273DA900080010
:10104200D021883193302000A1009A30A20051248F
:10105200883121002708A9002608A8000130791745
:10106200862088310630CA2C792847302000A1001A
:101072009A30A2005124883105307914CA2CD0212B
:10108200883167218831C020883121003008031D52
:1010920054282000EF1D542801308B208831023063
:1010A2008620883159280330862088312000EF11AC
:1010B20021000330B00AA8000630A901CA248831F1
:1010C200893079172000A1009A30A200512CF91C16
:1010D2006C280430CA2C52302000A1009A30A200A1
:1010E2005124033079142100A800A90179170800BE
:1010F200BD208831053A03194028033A03196828AC
:10110200013A03193628852808002000A100210091
:10111200CC0008002000A6002608031D9C282030D1
:10112200A1000230A2003E30A3000130A400A5209D
:101132002000EF1508003E30A1000130A20020304F
:10114200A3000230A400A5282108220403190800E4
:1011520023082404031908002108860022088700B6
:10116200200023088400240885001A30A5001200FC
:101172001E00A50BB8280800210042080800200024
:10118200E201E301E401E501220023082702031D35
:10119200D42822082602031DD42821082502031D73
:1011A200D428200824020318FA2880302000DE0008
:1011B2005130DF000130E0000430E101203E8600C2
:1011C20001308700403FDE07413FDF3D423FE03DC7
:1011D200433FE13D61082200A70020006008220091
:1011E200A60020005F082200A50020005E08220061
:1011F200A400200824022000DE0022002108253B52
:101202002000DF0022003D35283E860001308700A5
:1012120020005E08C03F5F08C13F22003D35283EE6
:101222008600403FB600413FB700E0302000A100F9
:101232009930A2005124883122003D35283E860093
:1012420001308700403F2000DE00413FDF005E08A2
:10125200CF005F08D000D101D201B9248831963085
:10126200A1009930A20051248831E6016635283E5A
:10127200860001308700403FDE00413FDF005E080C
:10128200E2075F08E33D0030E43DE53D0630E60A53
:101292006602031C37290630AD00AE01AF01B00172
:1012A2006508B4006408B3006308B2006208B100C4
:1012B20077272E082200B50020002D082200B40056
:1012C2000630BD0A3D020318BD01080022002008B5
:1012D2002000A100220021082000A20022002208F2
:1012E2002000A300220023082000A40021002408DB
:1012F2002000A500210025082000A600A701A801C2
:101302002508A1072608A23D2708A33D2808A43DD9
:1013120024082200A700200023082200A6002000A3
:1013220022082200A500200021082200A4000800B3
:10133200B030A1009A30A20051248831F91CA329AF
:10134200B0228831D02188310B138B1321009310E6
:101352002800171120001C1128001E11200018104F
:10136200DC218831E3218831003A031DBF291708A7
:10137200C1391438970017146300B3293F25883107
:10138200F918C72928258831042588310230CA2452
:101392008831E5302000A1009A30A200512C16308D
:1013A2002000A1009A30A2005124883122000E129E
:1013B20021009112CD2A22008C0140308D00043090
:1013C2008E000800EC21883121004508031908002D
:1013D2000330C501CA2C28001D082000AE00AF0151
:1013E200B00122000E15F918FD29D0302000AC0002
:1013F200AC0BF9291F30072A07302000AD007D30E1
:10140200AC00AC0B022AAD0B022AFA3028009D0078
:1014120078309E049C012000931120302100EB00C3
:101422001C30EC000230612288318F302100EB0049
:101432000230EC016122883121005508D600333098
:1014420055060319262AF816272AF812A730210072
:10145200EB00EC0128001E15372A02306122883188
:101462002100551D372A2000B001B00A20003008A3
:10147200031D3D2A931D2E2A2E0828009D001E08BA
:10148200873908389E001E11AD302100EB00023072
:101492006122883121005508031D522A023061223F
:1014A200883122000E118E110E108030210055025B
:1014B20003185E2A2000AF01AF0A20002F0808009F
:1014C2002000A800EB30A900D430AA0022008E151B
:1014D2000E112000AB012B08A500A601A51BA60337
:1014E2002608803AA70080302702031D7A2A28089E
:1014F200250203188B2A20002A0886008701290862
:101502008400850100088E2288318100AA0AA90A76
:10151200AB0A6C2A22000E150800A1008030A2013D
:10152200A300A4012108230503199A2A22000E14FC
:101532009C2A22000E108E110000000022008E153F
:1015420000000000200023088E18A204A336A40A7B
:101552002408803A783E031C932A22080800F91CCA
:10156200BB2A6830A1009A30A20051248831C122DE
:101572008831BD2A2825883104252800171508003E
:10158200FC302100990519088739383899009913D8
:101592001A1DC92AF910080023009D131D129E125C
:1015A20008000330FB000A30FC001E30FD006130F1
:1015B20084009C308500DB308600003087000030DC
:1015C200FF001430903104208831753084009C3043
:1015D200850058308600013087000030FF0015304A
:1015E200903104208831DD30840087308500CB3093
:1015F2008600013087000030FF001A30903104204D
:1016020088319C308400213085005430FE00003047
:10161200FF009C3144248831F801F901FA01ED01FF
:10162200EE01EF01A0308400003085003B30FE0067
:101632000030FF009C314424883120308400013086
:1016420085003830FE000030FF009C314424883190
:10165200A0308400013085002B30FE000030FF00F6
:101662009C314424883120308400023085001A30B5
:10167200FE000030FF009C31442488317E1020009F
:10168200422B51238831BA302000A1009830A200A9
:10169200512488310130CA248831B6278031682824
:1016A2006400282501309C318A2488319C313924F8
:1016B20088319D30A1009A30A200512488313B30FC
:1016C200A1009A30A200512488311A30A1009B3027
:1016D200A20051248831D430A1009A30A2005124B2
:1016E2008831CB30A1009A30A20051248831963043
:1016F200A1009930A20051248831CA268831FD27E1
:101702008531F32588319C31502488310425883174
:10171200452588313F259C31A42488318531132DFC
:10172200C12688312208E3002108E2000A30B20013
:10173200B3016308AD006208AC000F30AE00AF0128
:101742004B2588312D08B5002C08B400DF248831E0
:101752003308E3003208E200003063021E3003194E
:1017620062020318B72B1E30E200E30160258831C4
:1017720020006F1B6F1DCC2BA43086000630870122
:10178200A03E84008501403F00072100A6000131F0
:10179200413F003DA7002000EF1FE22B6308DF005E
:1017A2006208DE001030DE35DF0DE0000E30E100B1
:1017B2005E0860022100A60020005F08613B210054
:1017C200A7002100270820006302031DEC2B210043
:1017D2002608200062020318032C62082100260258
:1017E200A800200063082100273BA9005D302000EB
:1017F200A1009A30A2005124883105307914BD2607
:1018020088310B2C21002708A9002608A8000530E2
:10181200CA248831C2302000A1009A30A20051248B
:101822008831210026082000CF002100270820004F
:10183200D000D101D201B92488319630A10099306B
:10184200A200512488317330A1009A30A2005124A1
:1018520088316208CF006308D000D101D201B924D7
:1018620088319630A1009930A200512488312F305E
:10187200A1009A30A20051248831210028082000BA
:10188200CF00210029082000D000D101D201B924C3
:1018920088319630A1009930A200512479170800AE
:1018A200B001B201F918572C0C30582C68302800BE
:1018B2009D002000A401AD01AD0A21088400220888
:1018C2008500120003190800603030020318080076
:1018D20021088400220885000008AE00B101B10A87
:1018E200B201B20A2E08310503197E2C3208243EB9
:1018F200860087018101810A832C3208243E8600FA
:10190200870181010930B135B20A3202031C732CFE
:1019120028001E119C0100308B1B01302000AF00FB
:101922008B13931128001E152000B2013208243EA9
:1019320086008701010C2200031C0D1303180D17EA
:1019420020009311931DA32C0A30B20A3202031C09
:10195200972C28001E11200093112F1CB22C8B17DC
:10196200B32C8B132000A10A0319A20AB00A5E2C21
:101972005208BD005108BC005008BB004F08BA0015
:101982005330BE00022788315330A1000030A2003C
:10199200512C2000A70021004208C3002000273557
:1019A200CB3E860001308700413F8A00403F0A005B
:1019B2008C31200027082100C2000800B601B701BF
:1019C200320833040319FF2CB801B80AB31BEC2CFC
:1019D200B235B30DE62CB635B70D33083502031D0B
:1019E200F42C32083402031CFB2C3208B4023308F4
:1019F200B53B3614B336B20CB80BEC2C3708B30037
:101A02003608B200080028001711F91C182D170813
:101A1200FC390238970017088739483897007D301B
:101A220096000A302100E300823095000800170872
:101A3200FC390238970017088739503897008E30E2
:101A4200960001302100E300883095000800FC3048
:101A520021009905190887396838990099131A1EC7
:101A6200302D9A1D322D0730F9142000A2007D304E
:101A7200A100A10B3A2DA20B3A2D08001708C1397B
:101A82001C3897001710080002302100C500C6015B
:101A9200C7010800B001B1012C1C532D2E08B0075C
:101AA2002F08B13DAE35AF0DAD36AC0C2C082D0470
:101AB200031D4D2D3108AD003008AC0008009826FA
:101AC20088312408C8002308C7002208C60021085C
:101AD200C500BA0121002E080F3C2000B900031CEA
:101AE200BA03BB003A08BC000030BC1BFF30BD008B
:101AF200BE003B08C5073C08C63D3D08C73D3E0841
:101B0200C83D210024082000A10021002508200052
:101B1200A200A301A4014808A8004708A70046089C
:101B2200A6004508A500CC2688312208C30021085A
:101B3200C20021002E082000B200B3014308B50004
:101B42004208B400DF2488313208C90021002D0880
:101B52002000A100A2014908A300A401A31BA40321
:101B62003F2688312108013EC90021002D082000AE
:101B7200A100A2014908A300A401A31BA4033F26BC
:101B82008831210821002C02FF3E2000C4002100E0
:101B92002E082000A100A2014308A4004208A300CD
:101BA20078268831210821002E022000C100B900C8
:101BB200BA014408AC00AD01AC1BAD0321002E08F4
:101BC2002000AE00AF014B25883139082C072100D7
:101BD200A60020003A082D3D2100A7002000C41FC6
:101BE200012EA430860006308701A03E84008501C4
:101BF200403F00072100A6000131413F003DA70000
:101C020020004508B9004608BA004708BB0048084A
:101C1200BC00210026082000BD002100270820006A
:101C2200BE00BF01C0013D08B9073E08BA3D3F08EA
:101C3200BB3D4008BC3D3C082100A30020003B08FE
:101C42002100A20020003A082100A100200039084A
:101C52002100A0002308031D362E813020025130BE
:101C6200213B0130223B031C08008030A007AE302C
:101C7200A13DFE30A23DFF30A33D0800A601A41FF6
:101C8200492EA309A409A30A0319A40AA601A60AB4
:101C9200A21F502EA109A209A10A0319A20A210812
:101CA200220403196B2EA501A50AA21B5B2EA135E6
:101CB200A20D552E22082402031D612E21082302A3
:101CC200031C672E2108A3022208A43BA236A10C02
:101CD200A50B5B2E26080319732EA309A409A30AD8
:101CE2000319A40A2408A2002308A100080021085D
:101CF20022040319932EA501A50AA21B832EA13546
:101D0200A20D7D2E22082402031D892E2108230202
:101D1200031C8F2E2108A3022208A43BA236A10C89
:101D2200A50B832E2408A2002308A100080000307E
:101D32008B1B01302000A9008B13210039082000E1
:101D4200A800210038082000A70021003708200041
:101D5200A600210036082000A500291CB22E8B17F0
:101D6200B32E8B1320002808A4002708A3002608FE
:101D7200A2002508A1000800A1002100C40008005B
:101D8200220035082000A200220034082000A10011
:101D920008000030CA2C2408230422042104031959
:101DA200F92EA901A90AA41BDB2EA135A20DA30DB0
:101DB200A40DD32E24082802031DE92E230827028E
:101DC200031DE92E22082602031DE92E2108250201
:101DD200031CF32E2108A5022208A63B2308A73BD9
:101DE2002408A83BA436A30CA20CA10CA90BDB2E41
:101DF2002808A4002708A3002608A2002508A1009D
:101E02000800CD01CE013D083C043B043A04031D09
:101E1200482F3E088600303087018100CD0A031921
:101E2200CE0A4D083E07BF008600810108004D081A
:101E3200403E86000A308701A100A201A301A4014D
:101E42003D08A8003C08A7003B08A6003A08A500E8
:101E5200CC2688312108303E8100CD0A0319CE0AF2
:101E62000A30AD00AE01AF01B0013D08B4003C083C
:101E7200B3003B08B2003A08B10077278831300836
:101E8200BD002F08BC002E08BB002D08BA003D087B
:101E92003C043B043A04031D182FCB01CC014E082D
:101EA200803ABF0080303F02031D592F01304D029E
:101EB200031C6F2F20004B083E07BF008600FF3037
:101EC2008701CD07031CCE034D08403E84008501E7
:101ED20000088100CB0A0319CC0A502F20004B08BE
:101EE2003E07BF008600870181010800B501B601E7
:101EF200B701B80130082F042E042D040319AD2FA9
:101F0200B901B90AB01B8A2FAD35AE0DAF0DB00DB8
:101F1200822FB535B60DB70DB80D30083402031D4A
:101F22009C2F2F083302031D9C2F2E083202031D03
:101F32009C2F2D083102031CA72F2D08B1022E0859
:101F4200B23B2F08B33B3008B43B3514B036AF0C6C
:101F5200AE0CAD0CB90B8A2F3808B0003708AF00B1
:101F62003608AE003508AD00080020001F30E80139
:101F7200E9013F00ED002000EA01EA0AEB01EC0171
:101F8200210048084904031DC82F6400C12F4908D5
:101F92002000E900210048082000E8006A086805DE
:101FA200E4006B086905E5006404031DDC2FEA35D3
:101FB200EB0DEC0ACF2F6C08AC000330AD01AE0084
:101FC200AF014B252D0885002C0884005D30840765
:101FD2009830853D003FE600013FE7008A00660831
:101FE2000A0007308F3120006C060319BC2F6C08E1
:0E1FF2008031B0208831BC2FC801C901080021
:10200200210041080800FE0012001E000130FE02FD
:102012000030FF3B7F087E040319003405282000AE
:10202200D7010D279031B330A1002130A200E53055
:10203200A3009830A400F022903135269031D800C8
:10204200902790312000D700303ED10058089C3EA6
:10205200D2002130D301D33D5208860053088700B5
:10206200510881005808013E932790315808D10049
:102072009E30D201D3002130D40051085307D5003D
:102082005208543DD60055088600560887003C3059
:1020920081005808D1009F30D201D3002130D400F2
:1020A20051085307D5005208543DD6005508860002
:1020B200560887002030810035269031D8009C30A8
:1020C200A1002130A2005808A1070318A20ACA30B1
:1020D200A3009830A400F022903135268531932D4B
:1020E200AE202000B3008831BD209031033A031D99
:1020F200080020003308031D86280030883186201E
:102102009031F81A8A2801308B28033088318620D2
:102112009031023091208931D02104308C31CA2C87
:102122002000A1002100B5000F30B4007817A328C9
:1021320022000D16080022008D16080022000D1242
:102142008D120800350884000530040203180800C7
:102152009B310435293E8200080018106E116D1E55
:10216200B9282200D230BA012000A1009930E32818
:102172006D19CB2802302200BA00C4302000A10021
:102182009930A2008C31512490313C219031E920C8
:102192009031E628ED19DD282200B630BA01BA0ADC
:1021A2002000A1009930A2008C31512490313C21B1
:1021B2009031E9209031E6282200FC30BA0120005B
:1021C200A1009930A2008C31512422003A08080063
:1021D20099302000A1009930A2008C315124903115
:1021E200ED01EE015A22903123001D1621009116B5
:1021F20022000E1603302000B5008A30B40056309B
:10220200B300B30B0229B40B0229B50B0229003229
:1022120021000130CE016F2290313A2211142000A8
:1022220018146E158E319826903124082200A300CE
:10223200200023082200A200200022082200A10080
:10224200200021082200A000A8302000A20099301E
:10225200A300C921A830A1009930A2008C315124D9
:1022620090318230B400DD30B300B30B3629B40BA9
:1022720036290032080080302000B3000430B40058
:10228200E621903182302000B800DD30B700B70B74
:102292004829B80B4829003262302000A200993048
:1022A200A300C9216230A1009930A2008C315124CF
:1022B20090318230B800DD30B700B70B5E29B80B21
:1022C2005E29003222000E1203302000B9008A304B
:1022D200B8005630B700B70B6C29B80B6C29B90B94
:1022E2006C29003222000E1603302000B9008A3019
:1022F200B8005630B700B70B7C29B80B7C29B90B54
:102302007C29003260302000B300B401E621903114
:1023120082302000B800DD30B700B70B8E29B80B31
:102322008E2900327E2290318230B800DD30B70033
:10233200B70B9929B80B9929003248302000A20026
:102342009930A300C92190310330B9008A30B80016
:102352005630B700B70BAB29B80BAB29B90BAB2979
:102362000032A8302000A2009930A300C921903188
:102372008230B800DD30B700B70BBD29B80BBD29DC
:102382000032EE302000A1009930A2008C31512C95
:10239200A5012308A7002208A60026088400270812
:1023A2008500120003190800803025020318080076
:1023B2002608840027088500000868229031200042
:1023C200A60A0319A70AA50ACE2923001E129F15E1
:1023D2001E15112AF430A1009A30A2008C3151242A
:1023E200903123009C0167300F2AF830A1009A3007
:1023F200A2008C315124903123009C0110300F2A0D
:10240200EB30A1009A30A2008C315124903123008C
:102412009C0108300F2A23009C010C309B002F2ABC
:1024220020003408003A03191D2A023A0319222A0D
:10243200063A0319272A2F2A3308603A0319EB298F
:102442002F2A3308403A0319F6292F2A3308803AF3
:102452000319012A013A03190C2A2F2A823020007B
:10246200B600DD30B500B50B342AB60B342A003283
:1024720008000030200018180130A10000302100AF
:10248200111801302000A2001810F9112100620871
:10249200FD002000111097019601210C031C181059
:1024A20003181814220C2100031C11100318111414
:1024B200080020009C30ED126D13ED132100DD00A9
:1024C2002130DE005230E1000230DF000800A100BE
:1024D200111E692A210823009A0008002000A10089
:1024E20018181810FB00B73E840098300318013EFC
:1024F200850000082100E2000800A8302000A200A8
:102502009930A300C92190318230B400DD30B3008C
:10251200B30B892AB40B892A003296302000A1001D
:102522009930A2008C31512490319C30A10021308D
:10253200A200F230A3009830A400F0229031A6301D
:10254200A1002130A2003C30A3009930A400F02267
:102552009031AB30A1002130A2004530A300993068
:10256200A400F022B5013508603E860001308700E4
:102572000108B300A53086002130870033088100AE
:102582003508DD3E8600013087000108B300AA301D
:10259200860021308700330881009C30A100213061
:1025A200A2008C31512490319C30A2002130A30032
:1025B200C92190318230B400DD30B300B30BDF2A81
:1025C200B40BDF2A003220000830B50A3502031CA2
:1025D200B42A0930A1009A30A2008C31512C220871
:1025E200A6002108A50025088600260887002308E2
:1025F2008400240885000008C03F890803190800E8
:10260200A50A0319A60AA30A0319A40AF42A210097
:1026120017100030C5230430863185269031210001
:102622001714F6269031033A031D1C2B05308C310A
:10263200CA249031232B07308C31CA24903189313E
:10264200DC2190318E31982690312408BD00230878
:10265200BC002208BB002108BA0037239031D327DF
:102662002330A1009A30A2008C31512C3D08C500C4
:102672003C08C4003B08C3003A08C2000E30B00157
:10268200AF01AE001030AD004508B4004408B300FD
:102692004308B2004208B1008F31772790312D08EC
:1026A2002100D8003C302000AD00AE01AF01B001E6
:1026B200210058082000A100FF30A201A301A401BB
:1026C200A800A700F130A600F030A500A023210841
:1026D2004207BE002208433DBF002308443DC0001C
:1026E2002408453DC100B4004008B3003F08B200D1
:1026F2003E08B1008F31772790312D082100D90093
:10270200C4302000A1002100590893239031BE005B
:10271200F030A1002100580893233E074207210010
:10272200DA0008002000A300A20121082318A20752
:10273200A135A3362308031D962B22080800A90100
:10274200AA01AB01AC01211CAE2B2508A907260862
:10275200AA3D2708AB3D2808AC3DA535A60DA70D1F
:10276200A80DA436A30CA20CA10C24082304220455
:102772002104031DA42B2C08A4002B08A3002A0863
:10278200A2002908A1000800DD2690312000DC000B
:102792000030E0012100111801302000DD0021008D
:1027A200111000308B1A01302000DE008B12F8135A
:1027B2004C269031A9259031053020006002031883
:1027C200F42B4E249031B5249031013A031DEC2BA9
:1027D2000530E000DD2B22008D142000E00AF817FE
:1027E20022008D10DD2BDF26903122000D150D30D9
:1027F2002000DA00FB30D900D90BFD2BDA0BFD2BC0
:10280200003222000C128C162000DF015C085F02ED
:1028120003181B2C0730DB001730DA006F30D900A9
:10282200D90B112CDA0B112CDB0B112C0000200020
:10283200DF0A072CC425903122008C164424DD3097
:102842002000A1009A30A2008C31512490319C309A
:10285200A1002130A2008C31512490319630A10088
:102862009930A2008C3151249031F8265D0C210060
:10287200031C11100318111420005E0C031C8B1290
:1028820003188B1608000C100D118D100C138C13ED
:102892000C118C118C120C12080000304F25903153
:1028A2000F25903137302000A4009930A500053063
:1028B200A6008D24903141302000A4009930A5005B
:1028C2000430A6008D2490312000AB012B084F2547
:1028D20090310F25903120002B35583E8600013073
:1028E2008700403FA400413FA5000630A6008D248A
:1028F200903120002B088A259031CF30A40000307F
:10290200A5000530A6008D24903120000230AB0ACC
:102912002B0203180800672C22000C132000AA01C6
:102922002A08A700A801A71BA8032808803AA90023
:1029320080302902031D9F2C260827020318B22C7F
:1029420020002A08A700A801A71BA803240827071C
:1029520084002508283D850000086C259031AA0ACC
:10296200912C22000C170F2D0030AC01AC0A4F2520
:1029720090310F25903137302000A4009930A50006
:102982000530A60019259031003A031DCA2C2000FB
:10299200AC010F25903141302000A4009930A500F0
:1029A2000430A60019259031003A031DDA2C2000CC
:1029B200AC010F2590312000AD012D084F2590313B
:1029C2000F25903120002D35583E860001308700BA
:1029D200403FA400413FA5000630A60019259031D2
:1029E200003A031DF62C2000AC0120002D088A2598
:1029F2009031CF30A4000030A5000530A600192583
:102A02009031003A031D072D2000AC012000023056
:102A1200AD0A2D02031CDE2C2C08080020001C1518
:102A220022008C1520001C19132D22008C11080085
:102A3200240884002508850000088038AA00A9011E
:102A4200A90A22000C1320002A086C2590312100CB
:102A52008C172000AB01AB0A26082B020318482D65
:102A6200C5269031AA002508A8002408A7002B0833
:102A72002707840028080318280A850000082A0668
:102A820003192C2D22000C1721008C130034220074
:102A92000C1721008C132000290808002000A20036
:102AA20022360139A100A10E22000C0820002106C5
:102AB200EF39210622008C00200022080139A100F2
:102AC200A10EA10D22000C0820002106DF392106EB
:102AD20022008C000800A1008030A200A301220085
:102AE2000C1120002108220503197A2D22008C17CF
:102AF2007C2D22008C130000000022000C15000027
:102B0200000020000830A236A30A2302031808009E
:102B1200702DA200B33E840098300318013E850058
:102B22000008A3000B302100CF002000A4012408DC
:102B3200D03E860087012308240786317C26903107
:102B4200810020000430A40A240203180800982DF2
:102B520020001C1187309C05FC309C0514309B0022
:102B62009A0191102100911422000C148F30200040
:102B7200A200DA30A100A10BBC2DA20BBC2D0000DB
:102B820022008D10080035269031AB00EE30860011
:102B9200213087002B0881006830A5000130A60093
:102BA2000430A700E82590319C30A5002130A60012
:102BB200EE308600213087000108A700E825903119
:102BC200E730A5000030A6000330A700E82DAA01D7
:102BD200AA0127082A02031808002A08A800A90146
:102BE200250786002908263D87000108003E84004B
:102BF20098300318013E8500000802269031AA0A87
:102C0200EA2DA1008030A2002108A300FF30A30614
:102C1200F91A112EFC309C051C0887396838182EC9
:102C22001C08873930389C001C08FC3901389C008C
:102C3200EE309B009A019110210091142000A40112
:102C4200230822050319282E22008C162A2E220080
:102C52008C122000A2361C151C192D2E0830A40A35
:102C6200240203180800212E9C30A301A100213068
:102C7200A200432E5230230203184A2EA30AA10AAD
:102C82000319A20A21088600220887000108031DF1
:102C92003B2E230808006E2690312100B30020004D
:102CA2006F1F5C2E210032083302031C5C2E2000B1
:102CB2006F13EF13662E20006F1B662E2100330860
:102CC2003102031C662E20006F175130210033029F
:102CD200031808002000EF17080082302200970036
:102CE200171F712E1F302000B90001309D31EE25D3
:102CF20090313A08C9003908C800220097130C30F5
:102D02002000B90001309D31EE2590313A08C7000C
:102D12003908C600480849040319B12E4808AD0015
:102D22004908AE00AF01B0014608A1004708A20061
:102D32002030A301A401A801A701A6000C30A50020
:102D4200A0232408B4002308B3002208B2002108FB
:102D5200B1008F31772790312E08C4002D08C300AF
:102D620047082100AB00200046082100AA00643079
:102D72002000B200B3014408B5004308B4008C310E
:102D8200DF243208C50008008030A101A200A3019F
:102D920022000C110000000022000C1500000000AF
:102DA200200022088C1BA1040830A236A30A2302A9
:102DB200031CC92E210808002F080800F8269031AC
:102DC20021004C08003A0319F02E013A0319F22EA1
:102DD200033A0319F22E013A0319F42EF52E853126
:102DE200552D9E314F2E1028080043080800A101DE
:102DF2002108803A313E0318072F21089C3E8600A5
:102E020021308701873D8101A10AF92EEE3086002B
:102E120021308700810108006E27CF014F08363E1E
:102E220086317C2690312000C8004F089C3EC900A4
:102E32002130CA01CA3D490886004A08870048086D
:102E420081000430CF0A4F02031C0F2FD00150081B
:102E52003A3E86317C2690312000C8005008C900D5
:102E6200A130CA01CB002130CC0049084B07CD006C
:102E72004A084C3DCE004D0886004E08870048089F
:102E820081000730D00A5002031C282FA030860090
:102E9200213087003E308100AE3086003E30810016
:102EA200A83086002C308100A93086003C30810099
:102EB200B13086003C308100AC3086002E3081007B
:102EC200AF30860056308100B0308600423081003B
:102ED200B230860020308100080021003308200033
:102EE200C4004530B9000030BA004408BB000330CA
:102EF200BC00BD019F313227AA30860021308700F5
:102F0200450881004608C300AB30860043088100B3
:102F12004708C300AD308600430881000800220044
:102F22003A080800A4009C3EA1002130A201A23D63
:102F32002108860022088700303081006F1FAD2FE4
:102F420024089C3EA1002130A201A23D2108860056
:102F52002208870031308100EF1FBB2F24089C3EDE
:102F6200A1002130A201A23D21088600220887008B
:102F720032308100F81F080024089C3E8600213070
:102F82008701873D0108033EA10024089C3EA20060
:102F92002130A301A33D22088600230887002108CF
:102FA2008100080043302000B9000030BA0021003F
:102FB20058082000BB000230BC00BD019F313227FF
:102FC20090313A30C500C8004630B9000030BA002E
:102FD200210059082000BB000230BC00BD019F3116
:102FE20032274930B9000030BA0021005A082000C7
:102FF200BB000230BC00BD01BD0A9F31322F033439
:1030020000340034003400340034003453340034CB
:1030120000342334003400340B34003400340034E0
:1030220000340034003400340034003400340034FE
:1030320000340034003400340034003400341334DB
:103042005B34473417344B3400342F346B347B34C5
:103052002734003400341B3463341F345F34373474
:103062007734673443342B3407345734733433346E
:103072000F343B343F347F3400346F344F340034E8
:1030820063344F343B344B3443345B342F34173482
:1030920033346B347B3427341F341B340F343734CE
:1030A20077342B345334073473343F3467345F340A
:1030B2005734473400340034F73407340134D634FB
:1030C20000340234993409340334B0340A340434F9
:1030D200FE341C34053437341C34063401340834CD
:1030E20007347F3400340834C5341C3409340834BE
:1030F20013340A34003405340B3491340B340C3459
:10310200033400340D34033400340E34713410347B
:1031120001340034023400340434003408340034FE
:10312200103400342034003440340034803400340D
:1031320000340134003402340034043400340834DE
:1031420000341034003420340034403400348034ED
:10315200183499340A349934113499340334993433
:10316200FC349834223427342C3431341E343C3429
:10317200963447345034533444345F3476342E34E6
:1031820031342E3430345F34643462340D340A34D2
:10319200003456343E34323435343C3444343E34D4
:1031A200363437343C342034433420340034413410
:1031B200433454344934563441344E3444344F3415
:1031C20053344534203400344E344F34543449346B
:1031D20043344534203447345034533420343E345D
:1031E2000034243450344134493452343034363487
:1031F20032342C34003424344534453453344C3482
:1032020066340034243447344E3447345334413422
:103212000034243447344E3452344D344334003471
:103222002434473450344734533441340034243442
:103232004734503452344D3443340034073400346C
:1032420000340034003400340834003400340134D3
:1032520004340034093400340034023408340034B5
:103262000A340034003403340C3400340034803423
:103272000034003440342C3430342A3433340034B3
:1032820001341834083424340D340A34003424341C
:1032920050344134493452343034363436342C3498
:1032A20031342C3430342C3431342C3431342C3409
:1032B20031342C3430342A34333441340D340A342A
:1032C200003424345034413449345234383436349E
:1032D20034342C3430342C3430342C3439343634C5
:1032E200303430342A34313433340D340A34003437
:1032F2000D340A346734703473345F347334743485
:10330200613472347434753470340D340A340034D8
:103312000D340A3420345534443420344534523484
:1033220052344F345234203421340D340A340034B0
:103332000D340A346734703473345F347234653454
:1033420069346E34693474340D340A3400342434EC
:1033520050344134493452343034363437342A34D8
:10336200333442340D340A3400340D340A344734D1
:10337200503453342034423420344534523452349D
:103382000D340A3400340D340A3447345034533483
:103392002034463420344534523452340D340A3405
:1033A20000340D340A344734503453342034573403
:1033B2006F3472346B3473340D340A3400340D3488
:1033C2000A344C346F3463346B345F34743469348C
:1033D2006D3465343A34203400340D340A346334A5
:1033E200663467345F34733465346E3474340D3448
:1033F2000A34623400340D340A34473450345334BE
:1034020020344F342E344B342E340D340A340034ED
:103412000D340A34533465346E34743420346334D6
:10342200663467340D340A3400340D340A34673498
:10343200703473345F34733474346F3470340D34D5
:103442000A3400340D340A34543478345F3464342A
:103452006F346E3465340D340A340034723474348B
:1034620063345F3461346C34613472346D343A34B1
:10347200203400344A3475346C34203432343234DB
:103482002034323430343234353400340D340A349A
:1034920043344C3443344B345F3431340D340A34C6
:1034A20000340D340A3443344C3443344B345F34E7
:1034B20032340D340A3400340D340A3443344C347B
:1034C20043344B345F3434340D340A3400340D3415
:1034D2000A3443344C3443344B345F344C340D346B
:1034E2000A34003453345F346C346F3463346B34D5
:1034F200653472343A3420340034473444345F340F
:103502007334743461347234743475347034003406
:103512004E346F34203470346F3473342E340D349F
:103522000A3400344734503453345F344F34463411
:1035320046340D340A3400340D340A3442345534DE
:1035420049344C3444343A34203400340D340A348F
:10355200533479346E3463340D340A3400344734CE
:10356200443420344F34463446340D340A34003463
:103572004734503453345F344F344E340D340A34AC
:10358200003453345F3432345F34743478343A3430
:10359200203400340D340A344D3449345034533419
:1035A2003A3420340034313433343A34303435341C
:1035B2003A343134373400340D340A344D34533410
:1035C20047343A34203400345334553450340D34B3
:1035D2000A34003455343134313435340034203433
:1035E20046342034003455343934363400345534BA
:1035F20035343734003445343034003445343134D2
:1036020000344534323400344534333400344534E4
:1036120034340034453435340034453436340034DF
:103622004534373400344534383400344534393481
:1036320000342034203400342E3400348231552AB0
:103642008231552A8231562A8231562A8231572AAC
:103652009031992890319C289031992890319C285A
:0436620090319F28DC
:10386E008931E329CF30200098051810210011105E
:10387E0020001110970196010800640001308001AC
:10388E000131FE020030FF3B7F087E040319003435
:10389E00452C23008C0109308D008931DC2121005B
:1038AE008C0109308D0082308E0024008D0108308D
:1038BE00900008003C3400349C34213402343C34F3
:1038CE0052341E340A340A340A34013458340D3456
:1038DE000A340034AD340034003400341F349934CB
:1038EE00253499342B34993431349934303431347D
:1038FE003334353436343734383439343C343C345C
:10390E000D340A3400342000A10028001E111E08B8
:10391E00873908389E00FC309E0568309D002000D7
:10392E002108031D9D2C0C3028009D0020009311B2
:10393E0021000D1322000D17080080302000B30067
:10394E000430B4009131E6219C31F9249C312200DF
:10395E000E1603302000BC008A30BB005630BA0071
:10396E00BA0BB72CBB0BB72CBC0BB72C003291315A
:10397E003C219C3122000E128A31CD2AB930A10091
:10398E009A30A2008C3151249C31791ED92C8D3164
:10399E0060259C31003027020430031926020318DB
:1039AE00DE2CE42C58302100A6000230A700260899
:1039BE00FD3EA800FF30273DA9007917E62C79308F
:1039CE002000A1009930A2008C3151249C3160302E
:1039DE00B300B4019131E6219C31F9242200BB01E0
:1039EE009031E92823009D171D169E160800791F99
:1039FE00302D01302100A8020030A93B1D302000DF
:103A0E00A1009B30A2008C3151249C312100E50B8A
:103A1E00272D96302000A1009930A2008C31512420
:103A2E009C310A302100E50028082000CF0021003B
:103A3E0029082000D000D101D2018C31B9249C314B
:103A4E00210028082904031D302D791388313520D3
:103A5E009C31781F342D37259C31791D0800622D3D
:103A6E002100B40B422D781322000D128D1204305A
:103A7E002100B500080002303506031D522D03103B
:103A8E0022000D1E0314031C4F2D22000D160800DC
:103A9E0022000D12080003303506031D0800031026
:103AAE0022008D1E0314031C5F2D22008D160800AC
:103ABE0022008D120800781E6C2D2100E40B692D5A
:103ACE000A30E400E00B6C2D78122100C00B8D2D16
:103ADE002000EF1E7E2D21003F08C0002000EF12B7
:103AEE00EF1C8D2D8B1222008E128D178D2D210025
:103AFE003E08C0002000EF16F81D8A2D22008D13FF
:103B0E009F259C31F8112000EF188B1601302100F3
:103B1E00DB020030DC3B5B085C04031D0800781EF2
:103B2E009A2D02309B2D3C30DB00DC01F81508008D
:103B3E0020000030C8018B1A0130C6008B12220003
:103B4E008E12F918B52D06302000C5003030C40095
:103B5E00C40BAF2DC50BAF2D0000BF2D2A3020009A
:103B6E00C5008D30C400C40BBA2DC50BBA2D003262
:103B7E00E4259C31C700460C031C8B1203188B16D0
:103B8E00463047020318CD2D0130CE2D0030C8002F
:103B9E006F0C01394806031908000310EF1C0314BB
:103BAE00031CDC2D2000EF14DE2D2000EF10EF188B
:103BBE0008008B1222008E12080009302000B90076
:103BCE000030EE2521001C082000C3000800BC00B8
:103BDE00C201C20ABD01BE0121001E088F39103874
:103BEE009E00FC309E051E1120003908BB00BB0D47
:103BFE00BB0D21001D0820003B0683393B0621002A
:103C0E009D0020003C0C2100031C9E1303189E17E0
:103C1E001D1453302000BB00BB0B132E0C302000A4
:103C2E00390603191E2E1F303906031D262EF930B4
:103C3E00BB00BB0B202E003204302000C200C1019D
:103C4E004208410203183A2E21009D140000210063
:103C5E009D182E2E1B082000BD0721001C082000D9
:103C6E00BE3DC10A272E21001D1020004208B200C1
:103C7E00B3013E08B5003D08B4008C31DF24330893
:103C8E00C0003208BF004008BA003F08B900080063
:103C9E0097310D279E31BE308600213087003E3091
:103CAE008100CE3086003E308100D83086003E3016
:103CBE008100B23086002C308100BD3086002C3061
:103CCE008100C13086002C308100CD3086002C3032
:103CDE008100D13086002C308100C03086003C300F
:103CEE008100D03086003C308100B83086002E3006
:103CFE008100C83086002E308100B53086003A3003
:103D0E008100C53086003A308100D93086004830B7
:103D1E008100BF3086004E3081002200470B9B2E63
:103D2E00BF30860053308100CF30860021308700AF
:103D3E00453081004D0BA72ECF30860057308100C5
:103D4E00B3302000B9002130BA0022004308200011
:103D5E00BB000230BC00BD0132279E31B630B90027
:103D6E002130BA00220044082000BB000230BC0003
:103D7E00BD0132279E31C230B9002130BA00220077
:103D8E0049082000BB000330BC00BD0132279E3124
:103D9E00C630B9002130BA0022004A082000BB000C
:103DAE000230BC00BD0132278E3198269E31240888
:103DBE00BD002308BC002208BB002108BA009331C5
:103DCE0037239E31D2302000B9002130BA002100B5
:103DDE0058082000BB000230BC00BD0132279E31C6
:103DEE00D430B9002130BA00210059082000BB00A0
:103DFE000230BC00BD0132279E31D630B9002130D1
:103E0E00BA0021005A082000BB000230BC00BD01E0
:103E1E0032279E31B930C3002130C400220046083B
:103E2E002000C600220045082000C5000430C7004F
:103E3E00C801B7279E31C930C3002130C40022000B
:103E4E004C082000C60022004B082000C50004309C
:103E5E00C700C801B72F64303B02031C3A2F033052
:103E6E003C0203184D2F64303B020A300318472FD3
:103E7E003B02031C462F02303C0203184D2F0A3022
:103E8E003B02031808003C08031908003D0B582F8D
:103E9E003C08BE00BF01390786003F083A3D870047
:103EAE00810102303C020A30031C7A2FBC03A100B0
:103EBE003B0887279E31C2000A30A1003B089F278E
:103ECE009E31BB003030C2073C08BE00BF0139072F
:103EDE00C0003F083A3DC1004008860041088700F7
:103EEE0042088100582FA1003B088727C2003030BE
:103EFE00C207390886003A08870042088100080088
:103F0E00A3000830A400A5012308A2000730A236A2
:103F1E00890B8E2F25352204A500A33521082502F5
:103F2E00031C9B2F2108A502A40B8B2F250808002C
:103F3E00A200A40121080319B52FA301A30AA11BF6
:103F4E00AA2FA135A52FA43521082202031CB22FBA
:103F5E002108A2022414A136A30BAA2F24080800BC
:103F6E0027304602103003194502031CC22F0530BC
:103F7E0047020318CD2F2730460210300319450291
:103F8E000318080004304702031C08004408BA0056
:103F9E004308B9006430B200B3014608B5004508C5
:103FAE00B4008C31DF249E313208BB004708FE3E40
:103FBE00BC004808BD0032274408BA004308B900C7
:103FCE004708B9070318BA0AFE30B907031CBA032B
:103FDE006430A100A2014608A4004508A3008E315A
:103FEE0078269E312108BB000230BC004808BD0077
:023FFE00322F60
:020000040001F9
:04000E00CCEFFFDE56
:10E00000000000000000FF00FF00FF00FF00FF0015
:10E01000FF00FF00FF00FF00FF00FF00FF00FF0008
:10E02000FF00FF00FF00FF00FF00FF00FF00FF00F8
:10E03000FF00FF00FF00FF00FF00FF00FF00FF00E8
:10E04000FF00FF0015007000E0002200FF00150037
:10E050007000FA005800FF0015007000E000220078
:10E06000FF0015007000FA005800FF004400430054
:10E0700054004300300030003100310030003100E6
:10E080003000FF0006000100010028009400140089
:10E09000CF00FF00FF00FF00FF00FF00FF00FF00B8
:10E0A000FF00FF00FF00FF00FF00FF00FF00FF0078
:10E0B000FF00FF00FF00FF00FF00FF00FF00FF0068
:10E0C000FF00FF00FF00FF00FF00FF00FF00FF0058
:10E0D000FF00FF00FF00FF00FF00FF00FF00FF0048
:10E0E000FF00FF00FF00FF00FF00FF00FF00FF0038
:10E0F000FF00FF00FF00FF00FF00FF00FF00FF0028
:10E10000FF00FF00FF00FF00FF00FF00FF00FF0017
:10E11000FF00FF00FF00FF00FF00FF00FF00FF0007
:10E12000FF00FF00FF00FF00FF00FF00FF00FF00F7
:10E13000FF00FF00FF00FF00FF00FF00FF00FF00E7
:10E14000FF00FF00FF00FF00FF00FF00FF00FF00D7
:10E15000FF00FF00FF00FF00FF00FF00FF00FF00C7
:10E16000FF00FF00FF00FF00FF00FF00FF00FF00B7
:10E17000FF00FF00FF00FF00FF00FF00FF00FF00A7
:10E18000FF00FF00FF00FF00FF00FF00FF00FF0097
:10E19000FF00FF00FF00FF00FF00FF00FF00FF0087
:10E1A000FF00FF00FF00FF00FF00FF00FF00FF0077
:10E1B000FF00FF00FF00FF00FF00FF00FF00FF0067
:10E1C000FF00FF00FF00FF00FF00FF00FF00FF0057
:10E1D000FF00FF00FF00FF00FF00FF00FF00FF0047
:10E1E000FF00FF00FF00FF00FF00FF00FF00FF0037
:10E1F000FF00FF00FF00FF00FF00FF00FF00FF0027
:00000001FF
