:06000000000080316828B9
:100008007E14803123009D1C18281D120000230037
:100018001D1618282000911E1B2823001908F70018
:1000280077088631732680312100911A0E28210025
:10003800911C23282000911C23281C1191108B1A35
:100048000B1D3D28FA0A8731EC2780317A06031DFB
:100058002F2822008E120A307A02031C362822002A
:100068008E16FA01F9183C2820001508053E95005F
:100078000B112100931C5D282000931C5D28FC03B4
:10008800F91C49287C08031D5B288631A22680318B
:1000980005308631C7268031791C592803308631CE
:1000A800C72680312800171179100A30FC0020007B
:1000B80093102100111C66282000111C6628863127
:1000C8006E2611107E10090020000308A0008A3156
:1000D800762A9C30EE10A1002130A2002C30A3001B
:1000E800852280312208A5002108A400A40A03194A
:1000F800A50A24088600250887004D300106031D3F
:1001080088282100CA0108002508A2002408A100A7
:100118002C30A300852280312208A5002108A400E4
:10012800A40A0319A50A2408860025088700333085
:100138000106031D080003302100CB002000EE1447
:1001480008009C30A1002130A2002C30A300852299
:1001580080312208B5002108B400B40A0319B50A91
:100168006E102200C201C80120003508A50034081D
:10017800A4000230A600632280312200BE002000C5
:100188003408023EA4000030353DA5000230A60028
:10019800632280312200BF0020003408043EA400FE
:1001A8000030353DA5000230A600632280312200D0
:1001B800C00020003508A2003408A1002C30A3009C
:1001C800852280312208B5002108B400B40A031939
:1001D800B50A340886003508870056300106031D25
:1001E800F9282200C101C10A05293408860035080A
:1001F800870041300106031D05292200C1012000A6
:100208006E1420003508A2003408A1002C30A30089
:10021800852280312208B5002108B400B40A0319E8
:10022800B50A34088600350887002C300106031902
:100238005F292200C201C20A20003508A50034083F
:10024800A4000230A600632280312200C3002000EF
:100258003408023EA4000030353DA5000230A60057
:10026800632280312200C40020003408073EA40025
:100278000030353DA5000230A60063228031B2006F
:100288000230B301A6003408053EA4000030353D15
:10029800A5006322AC006430AD01AE00AF018B3124
:1002A8005A23803132082C072200C5002000330869
:1002B8002D3D2200C60020003508A2003408A10008
:1002C8002C30A300852280312208B5002108B40013
:1002D800B40A0319B50A2200420B89292000340800
:1002E8008600350887004E300106031D7E2922004E
:1002F800C70189293408860035088700533001066C
:10030800031D89292200C701C70A20003508A20059
:100318003408A1002C30A300852280312208B500C2
:100328002108B400B40A0319B50A34088600350850
:1003380087002C3001060319E3292200C801C80AE6
:1003480020003508A5003408A4000330A600632265
:1003580080312200C90020003408033EA400003088
:10036800353DA5000230A600632280312200CA0074
:1003780020003408083EA4000030353DA5000230B6
:10038800A60063228031B2000230B301A60034080F
:10039800063EA4000030353DA5006322AC00643061
:1003A800AD01AE00AF018B315A23803132082C07E2
:1003B8002200CB00200033082D3D2200CC00200075
:1003C8003508A2003408A1002C30A3008522803112
:1003D8002208B5002108B400B40A0319B50A22009E
:1003E800480B0D2A2000340886003508870057304E
:1003F8000106031D032A2200CD01CD0A0D2A340867
:1004080086003508870045300106031D0D2A2200A5
:10041800CD0120003508A2003408A1002C30A3002B
:10042800852280312208B5002108B400B40A0319D6
:10043800B50A3508A2003408A1002C30A300852293
:1004480080312208B5002108B400B40A0319B50A9E
:100458003508A2003408A1002C30A3008522803181
:100468002208B5002108B400B40A0319B50A3508F2
:10047800A5003408A4000230A600632280312200BF
:10048800D40020003408023EA4000030353DA50009
:100498000230A600632280312200D50020003408F3
:1004A800043EA4000030353DA5000230A6006322BA
:1004B80080312200D60020006E1C08009B2AA9016A
:1004C800AA01AB017F2A26082A020318832A2A08D0
:1004D800A700A801240786002808253D87000108F1
:1004E800D03EAB000A30A10029088C31E9248031C4
:1004F8002B07A900AA0A0A302B02031C672A29081D
:100508000800210886002208870001080319982A94
:10051800210886002208870001082306031908001D
:10052800A10A0319A20A852AA101A2010800220032
:100538003E082000A1000E30A201A301A401A801D9
:10054800A701A6001030A5008E319D268031240811
:100558002100BD00200023082100BC002000220843
:100568002100BB00200021082100BA0022003F081A
:100578002000AC003C30AD01AE00AF018B315A23F6
:100588002C082100BA0720002D082100BB3D0030AF
:10059800BC3DBD3D220040082100BA0701300318C8
:1005A800BB070318BC070318BD0708000334003451
:1005B8000034003400340034003453340034003440
:1005C8002334003400340B34003400340034003455
:1005D8000034003400340034003400340034003473
:1005E80000340034003400340034003413345B34F5
:1005F800473417344B3400342F346B347B3427346E
:10060800003400341B3463341F345F343734773498
:10061800673443342B3407345734733433340F344A
:100628003B343F347F3400346F344F340034633408
:100638004F343B344B3443345B342F341734333426
:100648006B347B3427341F341B340F3437347734FE
:100658002B345334073473343F3467345F3457349E
:10066800473400340034073408340134FB341B3475
:1006780002347834183403349C3419340434B434D0
:1006880005340534373418340634513418340734F3
:1006980003341034083438341834093472341C34B0
:1006A8000A340D3408340B34B43419340C34EF34B0
:1006B80007340D34EF3407340E34DD341B34223460
:1006C8002334243425342734283429342A342C3448
:1006D8002D342E342F3431343234333434343634E8
:1006E8003734383439343A343B343C343D343E348E
:1006F8003F34403442344334443445344634473438
:1007080048340134003402340034043400340834EA
:100718000034103400342034003440340034803441
:10072800003400340134003402340034043400341A
:100738000834003410340034203400344034003499
:10074800803406348434F8348334FF348334F13409
:100758008334EA3483340D348434223427342C34FB
:1007680031341E343C34963456343E3432343934C1
:100778003C3454343E34363439343C3420344334F5
:1007880020340034413443345434493456344134E9
:100798004E3444344F3453344534203400344E34CA
:1007A8004F34543449344334453420344734503476
:1007B800533420343E3400342434503441344934E2
:1007C80052343034363432342C3400342434453402
:1007D800453453344C3466340034243447344E346E
:1007E8004734533441340034243447344E3452347B
:1007F8004D3443340034243447345034473453346C
:100808004134003424344734503452344D34433462
:1008180000342434503441344934523430340034B0
:100828000734003400340034003400340834003411
:100838000034013404340034093400340034023400
:10084800083400340A340034003403340C340034DF
:10085800003480340034003440342C3430342A34AA
:100868003334003401341834083424340D340A3451
:10087800003424345034413449345234303436341A
:1008880036342C3431342C3430342C3431342C3448
:1008980031342C3431342C3430342A343334413428
:1008A8000D340A3400342434503441344934523439
:1008B8003834363434342C3430342C3430342C340A
:1008C80039343634303430342A34313433340D3416
:1008D8000A340034243450344134493452343034E6
:1008E800363437342A34333442340D340A3400343D
:1008F8002D343234313434343734343438343334B6
:100908003634343438340034203450346334653465
:10091800203400342034413420340034203442342C
:10092800203400342034433420340034203450340C
:100938002034003445343034003445343134003404
:100948004534323400344534333400344534343497
:1009580000344534353400344534363400344534B5
:1009680037340034453438340034453439340034AD
:100978009C308600213087003030463101069C309B
:10098800860021308700031D312D313047310106A3
:100998009C30860021308700031D312D2C304831D2
:1009A80001069C30860021308700031D312D2C3034
:1009B8004C3101069C30860021308700031D312D03
:1009C80030304D3101069C30860021308700031DF0
:1009D800312D3030493101069C30860021308700A6
:1009E800031D112D36304A3101069C308600213016
:1009F8008700031D112D36304B310106031D0D2DC7
:100A080021008E304C142000A2008430A3009331C2
:100A1800192B9C308600213087003030493101067F
:100A2800031D08009C3086002130870036304A318B
:100A38000106031D08009C308600213087003730EE
:100A48004B310106031D080021009230CC14200010
:100A5800A2008430A3009331192B363046310106A9
:100A6800031D08009C30860021308700373047314D
:100A78000106031D08009C308600213087002C30B9
:100A880048310106031D08009C308600213087008C
:100A9800313049310106031D08009C3086002130A1
:100AA80087002C304A310106031D08009C3086005F
:100AB8002130870030304B310106031D08009C307F
:100AC8008600213087002C304C310106031D0800B8
:100AD8009C3086002130870031304D310106031DDE
:100AE80008009C308600213087002C304E310106EA
:100AF800031D08009C3086002130870031304F31BB
:100B08000106031D08009C308600213087002C3028
:100B180050310106031D08009C30860021308700F3
:100B2800313051310106031D08009C308600213008
:100B380087002C3052310106031D08009C308600C6
:100B480021308700303053310106031D0800210091
:100B580096304C152000A2008430A3009331192B45
:100B6800791FC22D0130A8020030A93B28082904AA
:100B7800031DC22D79139C312F248531781FC62D72
:100B8800C9258531791D0800F32DB40BD32D7813B1
:100B980022000D128D1204302100B5000800023029
:100BA8003506031DE32D031022000D1E0314031C3C
:100BB800E02D22000D16080022000D120800033057
:100BC8003506031D0800031022008D1E0314031CA4
:100BD800F02D22008D16080022008D120800781EC4
:100BE800F92D2100DD0BF92D78122100C00B172EED
:100BF8002000EF1E0A2E21003F08C0002000EF123F
:100C0800EF1C172E8B1222008E12172E21003E0881
:100C1800C0002000EF16F81D142E29268531F81182
:100C28002000EF188B1601302100D8020030D93B84
:100C380058085904031D0800781E242E0230252E5A
:100C48003C30D800D901F81508000030D0018B1AC3
:100C58000130CE008B1222008E12F9183E2E06307B
:100C68002000CD003030CC00CC0B382ECD0B382EE8
:100C78000000482E2A302000CD008D30CC00CC0B4F
:100C8800432ECD0B432E00328E312F268531CF00D7
:100C98004E0C031C8B1203188B1646304F02031898
:100CA800572E0130582E0030D0006F0C01395006F5
:100CB800031908000310EF1C0314031C662E200000
:100CC800EF14682E2000EF10EF1808008B12220096
:100CD8008E120800FD037D08031D0800882EF6000B
:100CE80028304A060319852E4908A03E860001309F
:100CF8008700760881002830CA0AC90A49060319FC
:100D0800C9010730C7260800932EF9159F2E0E300B
:100D1800C72686319F2E22008D120D129F2E21008C
:100D28006008003A0319892E013A03198B2E033AF9
:100D380003198F2E9F2E2000181008002100CE0ABC
:100D480005304E02031C0800CE010430C726863148
:100D580001302100B6070030B73DB83DB93D39082C
:100D68008030031DBF2E36025130373B0130383BEF
:100D7800031C08008030B607AE30B73DFE30B83DE2
:100D8800FF30B93D0800F40000308B1B0130F5003E
:100D98008B137408F0008530F101F035F10D700700
:100DA80084008330713D8500003FF200013FF3006D
:100DB80072082100C8047308C904751CE52E8B1736
:100DC80008008B130800273046021030031945022B
:100DD800031CF22E053047020318FD2E2730460269
:100DE8001030031945020318080004304702031C99
:100DF80008004408BA004308B9006430B200B301DF
:100E08004608B5004508B4008E31392686313208C7
:100E1800BB004708FE3EBC004808BD0097316F275D
:100E280086314408BA004308B9004708B9070318CF
:100E3800BA0AFE30B907031CBA036430A100A20144
:100E48004608A4004508A300923111222108BB00DE
:100E58000230BC004808BD0097316F2F2000A80061
:100E68000030A9018B1B0130A7008B1323004A080F
:100E78000319512F4808A03E860001308700010859
:100E88002000A90023002830CA03C80A480603190D
:100E9800C8014A08031D512F5D272000270C031C99
:100EA8008B1303188B1728088600870129088100EF
:100EB800080007308B316F2B3034313433343534FC
:100EC800363437343834393445344634443442348B
:100ED80038343934363437343034333430343734C2
:100EE800323430340034D6340734E9340734E63445
:100EF8000734E334073401340834E0340734033466
:100F08000834DD340734DA340734143484341A34BA
:100F1800843420348434263484343C343C340D34D2
:100F28000A34003458340D340A3400343C34003464
:100F38009C34213402343C34FF341E3403340A34E4
:100F4800AD34003400340034FE0012001E000130BD
:100F5800FE020030FF3B7F087E0403190034A92FEE
:100F68006400013080010131FE020030FF3B7F0840
:100F78007E0403190034B52F9531812D9531812DCB
:100F88009531882D9531882D95318A2D95318C2D67
:100F98009F31E12F9F31E42F9F31E12F9F31E42FC3
:100FA8009F31E72F2100C301C201080002308E31B2
:100FB800C22E0B308E31C22E08308E31C22E083030
:100FC8008E31C22E0A308E31C22E00308E31C22EA2
:080FD800210041080800080097
:101002000930C22E0C30C2268831152E5320883169
:10101200210017140230FC2AC801C901F918152849
:10102200D2238831AE2388318E2F0330D101D001F3
:10103200722188311C150530672188310C228831D4
:1010420049281B268831013A031D4728D00A10225D
:101052008831CF000C228831362802303428D10161
:10106200D10A41280330D10041284F086E3A0319B2
:1010720033281C3A03192E28053A0319302841282F
:10108200510803194928DD21883149280430D1004B
:1010920020005108031D512805305002031C22284C
:1010A20051080800E62688315A3042218831023040
:1010B200D6000430D500BA30D400D40B5E28D50B4C
:1010C2005E28D60B5E2800000330D1208831003024
:1010D200FD218831DD218831111420001814BB282C
:1010E2002330BF218831013A031DCA282330AB21A6
:1010F2008831003A031DCA282E2788310030D120BA
:1011020088310100CA280430BF218831013A031D09
:10111200CA280430AB218831003A031DCA28EE26C2
:101122008831013A031DB328D70157089C3E860037
:1011320021308701873D0108A10057087B3E8400CA
:1011420083300318013E85000008F6248831200010
:101152000330D70A5702031C96280130D120883168
:101162000100CA280230D1208831CA280030D1209B
:101172008831CA2816208831013A03197128033AA6
:101182000319B728013A03198428073A0319CA2810
:10119200CA28200018102100111020001C1108007C
:1011A2002000A6000030A701A901722188311C1578
:1011B2001430672188310130722188313229A80127
:1011C2002808633E840083300318013E850000082E
:1011D200CD2488312000A900A7064221883122307F
:1011E200A80A280203184029E128A80128087B3E02
:1011F200840083300318013E85000008CD24883125
:101202002000A900A706422188310330A80A28023B
:1012120003184029F7286530A70642218831833018
:101222008400833085000008CD2488312000A90085
:10123200A706422188315530A7064221883140292C
:10124200A8012808DB3E8600013087000108A900BA
:10125200A706422188310630A80A2802031840292D
:1012620022292608003A0319E028013A0319F62830
:10127200033A03190C29013A0319212940292708A5
:101282004229A4001C119A0191101C1522008E16ED
:10129200063067218831A5012408A300250A5229B6
:1012A200A336890B51292318592922008E165B294E
:1012B20022008E120630672188310830A50A2502E5
:1012C200031C4D2922008E12063067292000A1003E
:1012D200A200220803190800911C6D29A203911093
:1012E2006A29A1000C2288319C291C08FC3901388A
:1012F2009C001C08873970389C00FA309B0008005B
:101302001C08FC3901389C0087309C057E291C088A
:10131200FC3901389C007D309B0087309C05080019
:101322001C08FC3901389C0060309B001C0887397E
:1013320038389C0008002108003A03197629013A3E
:1013420003198129033A03198829013A03199129BA
:10135200AA290800A100A301A201A30121082302D6
:101362000318BD2923089C3E860021308701873D52
:101372000108A206A30AAF29220808002000D20011
:10138200D301D30152085302031801341B268831BA
:10139200013A031D003410228831CF0053089C3ECD
:1013A200D0002130D101D13D50088600510887007C
:1013B2004F088100D30AC3290030200018180130D9
:1013C200A10000302100111801302000A2001810E5
:1013D200F91121005F08FD0020001110970196010C
:1013E200210C031C181003181814220C2100031CD2
:1013F20011100318111408002000A1001818181069
:101402002100E000B53E840083300318013E8500D0
:101412000008DF0008001C119A0191100800CD019C
:10142200CC01DD21883120001C150530672188316F
:10143200CE010A30672188312F268831CC009B30BB
:101442004C02031C262ACD36282A0314CD0C083060
:10145200CE0A4E02031C1A2A4D0808002000D200B0
:1014620017258831D3000230CD2488312000D600E0
:10147200D62488312308D5002208D400043052062D
:10148200031D4B2A73305302031C560B0800023013
:10149200A101F62C79305302031C08005608031DE3
:1014A20008000230A101A10AF62488312F30200061
:1014B2005502863003195402031C672A0130A10128
:1014C200F624883120000030A101F62CD40A031939
:1014D200D50A5508D600A1000130F6248831200033
:1014E2005408D600A1000030F62C5230FB000A301E
:1014F200FC001E30FD009A30840087308500D83011
:101502008600003087000030FF000E308731A827A8
:10151200883189308400873085005D308600013053
:1015220087000030FF0011308731A82788316030F2
:10153200840087308500CB30860001308700003080
:10154200FF0017308731A827883177308400873031
:1015520085003A308600023087000030FF001230EA
:101562008731A82788319C3084002130850054308F
:10157200FE000030FF008731B4278831F801F901FD
:10158200FA01ED01EE01EF01A03084000030850088
:101592003830FE000030FF008731B4278831203018
:1015A2008400013085003D30FE000030FF008731AD
:1015B200B4278831A0308400013085002B30FE0032
:1015C2000030FF008731B427883120308400023098
:1015D20085001A30FE000030FF008731B4278831C1
:1015E2007E102000F42A952388310130FC228831B4
:1015F2001123803168282000A70021004208C3007F
:10160200200027353A3E860002308700413F8A009B
:10161200403F0A008B31200027082100C200080049
:101622001F30E801E9013F00ED002100EA01EA0A6A
:10163200EB01EC01210048084904031D222B640040
:101642001B2B4908E9004808E8006A0868052000E1
:10165200EB0021006B0869052000EC006B04031D00
:10166200372B2100EA35EB0DEC0A262B21006C0802
:101672002000AC000330AD01AE00AF015A232D08AB
:1016820085002C088400373084078330853D003F75
:101692002100E600013FE7008A0066080A000730E1
:1016A2008B3121006C060319162B6C086F238831CD
:1016B200162BB001B1012C1C622B2E08B0072F088B
:1016C200B13DAE35AF0DAD36AC0C2C082D04031D6B
:1016D2005C2B3108AD003008AC0008002000A500EA
:1016E20000308B1B0130A6008B132508A10085302A
:1016F200A201A135A20D210784008330223D85007D
:10170200003FA300013FA400A309A409230821006C
:10171200C805200024082100C9052000261C932B9F
:101722008B1708008B1308006400D2238831013024
:10173200082488310A268831F62388310726883121
:1017420023248831F8238831AE238831F02388316D
:10175200E9238831DC2788318E2F28001711F91CE4
:10176200C22B1708FC390238970017088739483806
:1017720097007D3096000A302100E100823095000A
:1017820008001708FC3902389700170887395038C3
:1017920097008E30960001302100E10088309500DC
:1017A2000800FC302100990519088739683899002A
:1017B20099131A1EDA2B9A1DDC2B0730F91420001C
:1017C200A2007D30A100A10BE42BA20BE42B0800A8
:1017D20021001708C1391C38970017100800023081
:1017E2002100C500C601C70108000030FC2A230001
:1017F2008C0109308D00152621008C0109308D00E5
:1018020082308E0024008D010830900008002000F4
:10181200A10028001E111E08873908389E00FC30DE
:101822009E0568309D0020002108031D1B2C0C30F2
:1018320028009D002000931121000D138D17220016
:101842000D1708002000C301EF01C40144083E3E09
:10185200CD2488310F392000C1000A30A10043088D
:10186200E92488314107C3000330C40A4402031C3F
:10187200272C43082100AC004230CD2488312100BE
:10188200AE004330CD2488312100AF004730CD2453
:1018920088312100AD002D080319612C2E0803198F
:1018A200612C10302E020318612C64302D020318B3
:1018B200612C2C080319612C2C082D020318632CAF
:1018C20020006F1421002E082000AC00AD01210081
:1018D2002D082000AE00AF015A2388312D082100C7
:1018E200A50020002C082100A4002504031D7F2C44
:1018F20020000A306F142100A400A5014830CD2435
:1019020088312000C100C201C135C20DC135C20DEE
:101912004108B9004208BA00492788312100B100C4
:10192200053EB2004430CD2488312100C10045304B
:10193200CD2488312000C5002100BF000F30BF0533
:101942002000450E0F392100BE000F30BE053F08B2
:10195200C0004630CD2488312000C500451C6F15DB
:10196200C5186F16451AF916C51E79156F1EBC2CBF
:101972000130C2268831D62488312F3023028730A5
:1019820003192202031C08000130A101F624883148
:1019920020000030A101F62C2000A10023009100BC
:1019A200920195131514130808000130CD248831D3
:1019B2002000A600A5000030A401CD242000A6002E
:1019C200A4070318A50A2508A3002408A2000800FA
:1019D2002000A300A20121082318A207A135A336E3
:1019E2002308031DEC2C22080800A200230091000A
:1019F2009201200021082300930095131515003051
:101A02008B1B01302000A3008B135530230096005E
:101A1200AA30960095142000230C031C8B13031884
:101A22008B1723009518122D151108008230220001
:101A32009700171F1A2D1F302000B90001306325AF
:101A420088313A08D1003908D000220097130C30AF
:101A52002000B9000130632588313A08CC003908EA
:101A6200CB00500851040319582D5008AD005108FD
:101A7200AE00AF01B0014B08A1004C08A20020301B
:101A8200A301A401A801A701A6000C30A5009D2670
:101A920088312408B4002308B3002208B2002108C8
:101AA200B1005E2688312E08CE002D08CD006430AC
:101AB200B200B3014E08B5004D08B4003926320811
:101AC200CF000800BD00FF30C801C80AC101C20131
:101AD200C301C401C500C6001030C70121009E0029
:101AE20020003D0C2100031C9E1303189E172000AA
:101AF2003908BB00BB0DBB0D21001D0820003B06B1
:101B020083393B0621009D001D1408302000BB00D4
:101B1200BB0B892D0C30200039060319942D1F3080
:101B22003906031D9D2D0830BB00BB0B962D1230CC
:101B32002000C800C701C70AC001480840020318B4
:101B4200D62D0330BB00BB0BA42D21009D14000039
:101B520021009D18A92D1C082000CA00C9012100DE
:101B62001B082000C9070318CA0A470BD02D4A08D0
:101B72004402031DBE2D490843020318C42D4A081E
:101B8200C4004908C30046084A02031DCA2D45087D
:101B920049020318D02D4A08C6004908C500490861
:101BA200C1074A08C23DC00A9E2D21001D10200017
:101BB200470BF62D43084507BB004408463DBC00D1
:101BC200BB09BC09BB0A0319BC0A3B08B4003C08A8
:101BD200B5004108B4074208B53D4808B200FE30DE
:101BE200B301B207FF30B33DFD2D4808B200B30187
:101BF2004208B5004108B40039263308BF00320854
:101C0200BE003F08BA003E08B9000800C801C90179
:101C12000800CF3020009805181021001110200074
:101C2200111097019601080022008C018D010430E9
:101C32008E000800F91900342F268831CC009A3022
:101C42004C02031C2C2E1B2E2F268831CC009B30DD
:101C52004C0203180134F9191B2E252E09302000DD
:101C6200B9000030632521001C082000CB000800C9
:101C7200B601B701320833040319592EB801B80A64
:101C8200B31B462EB235B30D402EB635B70D330811
:101C92003502031D4E2E32083402031C552E320823
:101CA200B4023308B53B3614B336B20CB80B462E29
:101CB2003708B3003608B2000800B501B601B70113
:101CC200B80130082F042E042D040319942EB901F3
:101CD200B90AB01B712EAD35AE0DAF0DB00D692E28
:101CE200B535B60DB70DB80D30083402031D832E7D
:101CF2002F083302031D832E2E083202031D832E6A
:101D02002D083102031C8E2E2D08B1022E08B23B83
:101D12002F08B33B3008B43B3514B036AF0CAE0CD1
:101D2200AD0CB90B712E3808B0003708AF00360879
:101D3200AE003508AD000800A901AA01AB01AC0153
:101D4200211CAB2E2508A9072608AA3D2708AB3D72
:101D52002808AC3DA535A60DA70DA80DA436A30CE9
:101D6200A20CA10C2408230422042104031DA12E89
:101D72002C08A4002B08A3002A08A2002908A1000D
:101D820008002000A50000308B1B0130A6008B1339
:101D92002508A1008530A201A135A20D21078400EA
:101DA2008330223D8500003FA300013FA4002308A9
:101DB2002100C804200024082100C9042000261C98
:101DC200E42E8B1708008B1308002F0091012100CD
:101DD200111320001113013072298330B401B601AE
:101DE200B7018400833085000008CD2488312000AB
:101DF200B400B80138089C3E860021308701873D37
:101E02000108D03EB5000A30350203180034370805
:101E1200AD003608AC000A30AE00AF015A2388315B
:101E22002D08B7002C08B6003508B6070318B70A04
:101E32000330B80A3802031CFB2E3408B200B30187
:101E420037083302031D272F36083202031C0034E1
:101E520036083704031D01340034A401A401240808
:101E62009C3E860021308701873D0108A10024089D
:101E7200633E840083300318013E85000008F62487
:101E8200883120002230A40A240203180800302FCF
:101E92000930BB01BC01BD01BE01B200B3013A0869
:101EA200AD003908AC000530AE00AF015A238831CD
:101EB2002D08B5002C08B400392688313308C0003B
:101EC2003208BF000230BF070318C00A3030B20028
:101ED200B3013A08AD003908AC001130AE00AF01D1
:101EE2005A2388312C08313EB40000302D3DB50014
:101EF200392688313308BC003208BB000730B200F3
:101F0200B3013B083F07B4003C08403DB500392609
:101F12003308BE003208BD000800F801F023883102
:101F2200BB27883179127913B3278831B001A627EC
:101F320088310B118B120B178B1720009310210085
:101F420093142800171502302F2A20000230EF10B8
:101F5200EF1278162100D800D9013F08C0003C30AA
:101F6200DD0008002100B601B701B801B9010A304D
:101F7200FC0008002000EE112200BD01A001A10119
:101F8200A201A301A401A501A601A7012000A101AC
:101F92002135283E8600013087001E30C03F0030C8
:101FA200C13F0630A10A2102031CC92F1E302200A4
:101FB200B400B501080080302000A1000430A20066
:101FC200933136238831FB27883122000E160330E5
:101FD2002000D1008A30D0005630CF00CF0BEF2F37
:101FE200D00BEF2FD10BEF2F00329231952222002E
:0E1FF2000E12080023009D171D169E160800F3
:1020060044308731322790314408292C0030A221F0
:102016009031B330A1002130A200C630A300833036
:10202600A400862190311F219031D9009C30A10057
:102036002130A2005908A1070318A20AB830A3004C
:102046008330A400862190319E2190312000D20059
:102056005908D300A130D401D5002130D600530849
:102066005507D7005408563DD8005708860058082B
:10207600870052088100D42090311F21D9009C3E50
:10208600D2002130D301D33D520886005308870081
:1020960020308100D90A59089C3ED2002130D30154
:1020A600D33D52088600530887002030810008007F
:1020B60020000030D901A2219031B330A100213097
:1020C600A200D330A3008330A400862190311F21C3
:1020D6009031DA00522290312000D900303ED200F1
:1020E6005A089C3ED3002130D401D43D53088600C3
:1020F60054088700520881005A08013E5522903143
:102106005A08D2009E30D301D4002130D50052089F
:102116005407D6005308553DD70056088600570881
:1021260087003C3081005A08D2009F30D301D4008A
:102136002130D50052085407D6005308553DD70024
:102146005608860057088700203081001F219031ED
:10215600DA009C30A1002130A2005A08A10703181A
:10216600A20AB830A3008330A400862190319E21B4
:1021760090312000D2005A08D300A130D401D500F6
:102186002130D60053085507D7005408563DD800CD
:102196005708860058088700520881001F21903191
:1021A600D4281130C1000230C2008C31D6249031BF
:1021B6002308BF002208BE001F21BD00C00142083F
:1021C600B3004108B2003F08B5003E08B4008E31A6
:1021D600392690313208BC00413EB9003D089C3E8C
:1021E600BA002130BB01BB3D3A0886003B08870098
:1021F60039088100BD0A4208A2004108A1003F0833
:10220600A4003E08A30011222208BF002108BE0038
:102216001730B200B3014208B5004108B4008E3150
:10222600392690313308C2003208C1000330C00A93
:10223600400203180800E2289C30A301A1002130C7
:10224600A2002D295230230203183429A30AA10A19
:102256000319A20A21088600220887000108031D27
:102266002529230808009C302000A1002130A20067
:10227600E030A3008330A40086219031A630A1006F
:102286002130A2003130A3008430A4008621903191
:10229600AB30A1002130A2003A30A3008430A40064
:1022A60086219031AA012A08CB3E8600013087009C
:1022B6000108A800A5308600213087002808810083
:1022C6002A08D33E8600013087000108A800AA30FC
:1022D600860021308700280881009C30A20021302A
:1022E600A300192390318230A900DD30A800A80B85
:1022F6007A29A90B7A29003220000830AA0A2A0274
:102306000318080056292208A6002108A50025085A
:102316008600260887002308840024088500000814
:10232600C03F890803190800A50A0319A60AA30ACB
:102336000319A40A8A29BF230739413E0800200051
:10234600CF003122D0015008363E8C31CD24903159
:102356002000C80050089C3EC9002130CA01CA3D71
:10236600490886004A088700480881000430D00AD8
:102376005002031CA629D10151083A3E8C31CD24C6
:1023860090312000C8005108C900A130CA01CB0015
:102396002130CC0049084B07CD004A084C3DCE0001
:1023A6004D0886004E088700480881000730D10A8C
:1023B6005102031CBF29A0308600213087003E3021
:1023C6008100AE3086003E308100A83086002C3079
:1023D6008100A93086003C308100B13086003C3057
:1023E6008100AC3086002E308100AF30860056303A
:1023F6008100B0308600423081004F0B0A2AAF3090
:10240600860042308100B030860056308100B230FE
:102416008600213087002030810008002108220430
:1024260003192C2AA501A50AA21B1C2AA135A20D57
:10243600162A22082402031D222A21082302031C2D
:10244600282A2108A3022208A43BA236A10CA50B28
:102456001C2A2408A2002308A10008002100330832
:102466002000C4004530B9000030BA004408BB0063
:102476000330BC00BD016F27AA30860021308700DB
:10248600450881004608C300AB308600430881003A
:102496004708C300AD3086004308810008002200CB
:1024A6003A080800A4009C3EA1002130A201A23DEA
:1024B6002108860022088700303081006F1F6F2AAE
:1024C60024089C3EA1002130A201A23D21088600DD
:1024D6002208870031308100EF1F7D2A24089C3EA8
:1024E600A1002130A201A23D210886002208870012
:1024F60032308100F81F080024089C3E86002130F7
:102506008701873D0108033EA10024089C3EA200E6
:102516002130A301A33D2208860023088700210855
:102526008100080080302000A1000430A20036237C
:10253600903182302000CD00DD30CC00CC0BA12ABA
:10254600CD0BA12A003257302000A2008430A30010
:10255600192390318230CD00DD30CC00CC0BB12A6E
:10256600CD0BB12A003222000E1203302000CE001D
:102576008A30CD005630CC00CC0BBF2ACD0BBF2AFB
:10258600CE0BBF2A003222000E1603302000CE00EA
:102596008A30CD005630CC00CC0BCF2ACD0BCF2ABB
:1025A600CE0BCF2A003260302000A100A2013623D4
:1025B600903182302000CD00DD30CC00CC0BE12AFA
:1025C600CD0BE12A0032362190318230CD00DD304C
:1025D600CC00CC0BEC2ACD0BEC2A00322100CC012E
:1025E600942490313D302000A2008430A3001923AA
:1025F6009031DC30C4000530C500752390316E3053
:102606002000A2008430A30019239031DC30C400DE
:102616000530C5007523903107304C0603190800B4
:1026260088302000A2008430A300192BA5012308BE
:10263600A7002208A60026088400270885001200A5
:1026460003190800803025020318080026088400B4
:10265600270885000008B82390312000A60A031930
:10266600A70AA50A1E2B23001E129F151E154C2B0A
:1026760023009C0167304A2B23009C0110304A2B13
:1026860023009C0108304A2B23009C010C309B0040
:102696006A2B20002208003A0319582B023A031924
:1026A6005D2B063A0319622B6A2B2108603A03193F
:1026B6003B2B6A2B2108403A03193F2B6A2B210832
:1026C600803A0319432B013A0319472B6A2B8230B0
:1026D6002000A400DD30A300A30B6F2BA40B6F2BEF
:1026E6000032080000302100911A01302000CB0092
:1026F6004508AD004408AC001430AE00AF018B3184
:102706005A2390312D08CA002C08C900C80121009F
:102716009112A42B23009D1C942B1D120000230054
:102726001D161908292490312000911A8D2B10307E
:10273600C600C60B9C2B000001302000C9020030E9
:10274600CA3B200049084A040319AE2B972B2300E5
:102756001908292490312000911AAA2B4B0C21002C
:10276600031C9112031891160800A100111EB92B23
:10277600210823009A00080021004C0808002000C8
:10278600ED01EE0194248F31FB2790311D162100B7
:10279600911622000E1603302000AC008A30AB00E2
:1027A6005630AA00AA0BD52BAB0BD52BAC0BD52BD1
:1027B600003221000130D0018931FD21903189316B
:1027C600DD2190311114200018146E150524903166
:1027D60024082200A300200023082200A2002000D3
:1027E60022082200A100200021082200A000823039
:1027F6002000AB00DD30AA00AA0BFF2BAB0BFF2B92
:102806000032080000308B1B0130A9008B13210019
:1028160039082000A800210038082000A700210060
:1028260037082000A600210036082000A500291C34
:102836001E2C8B171F2C8B1320002808A40027089A
:10284600A3002608A2002508A10008002000C30056
:102856006E1A080024306D154306031D432C94247C
:102866002000ED1621005A0886005B08870020002C
:10287600430881002100DA0A0319DB0AFB0308007A
:10288600ED1E080021005A0886005B08870020001C
:10289600430881002100DA0A0319DB0AFB03200042
:1028A600ED1F6F2C2100DC035C08031D902C9C306F
:1028B6002000A1002130A2007B08523CA300A224E4
:1028C6009031013A031D6C2C6D1622003C087525CB
:1028D6009031942490318E2D6D1F772C2A3043062B
:1028E600031D902CED17902C4C307B06031D902C6D
:1028F60021005A0886005B0887009C308101200071
:10290600A8002130A90004259031013A031D8E2C20
:102916006D17ED15902C942490317B08031D08004B
:10292600942C20009C30ED126D13ED132100DA007B
:102936002130DB005230FB000230DC000800A6012B
:10294600A701A10A0319A20AAA01AA0A2308FD3EA1
:10295600A400FF3003180030A500803A803C031D18
:10296600B62C24082A020318C32C2000210886004E
:10297600220887000108A606A10A0319A20AA82CA4
:102986002000AA01A10A0319A20A2108860022082A
:102996008700473001022A08031CDB2C283E8600EC
:1029A600870121088400220885000008DF39E32C0E
:1029B600283E860087012108840022088500000839
:1029C600D03E81002A08283E86000A30870101028F
:1029D600031CF72C2A08283E86002A08283E840075
:1029E60085010008F93E81000230AA0A2A02031C6A
:1029F600C52C280EF0392904A70026060319013430
:102A06000034AE01AD01AE012908A2002808A100DC
:102A16002E08AA00A530AB01AA35AB0D2A07840003
:102A260083302B3D8500003FA300013FA4005325C2
:102A3600903121082204031D262DAD01AD0A2E0872
:102A46002200BC002B2D0630AE0A2E02031C072DD9
:102A5600053022003C06031D372D9A302000A200C7
:102A66008430A3001923903120002D08031D502D1A
:102A76002808860029088700473041310106031DD2
:102A8600502D28088600290887004C30423101065F
:102A9600031D502D2100CF01CF0A20002D0808006C
:102AA600612D2108860022088700010803196F2D71
:102AB600A10A0319A20AA30A0319A40A2108860077
:102AC60022088700230884002408850000080102E4
:102AD600A50025080319542D2508A100A201A11B54
:102AE600A20308002000B600840006300402031882
:102AF600080087310435C03E820008008031A520D9
:102B0600200036082100DE00080080316D28010013
:102B160008008431BC2C2000EE186E1C0800EE1054
:102B26006E1021000A30D00A5002031C0800D003A0
:102B36002000EE1AA52DEE155F269031B9259031AD
:102B46002000EE1621003D082000A40021003C08CC
:102B56002000A30021003B082000A20021003A0823
:102B66002000A100422606308E31C22E2000BE0172
:102B7600BF01C001C101220023082702031DCD2D7C
:102B860022082602031DCD2D21082502031DCD2D69
:102B9600200824020318F32D80302000BA0051309B
:102BA600BB000130BC000430BD01203E8600013070
:102BB6008700403FBA07413FBB3D423FBC3D433FD4
:102BC600BD3D3D082200A70020003C082200A600CB
:102BD60020003B082200A50020003A082200A4009D
:102BE600200824022000BA0022002108253B2000EC
:102BF600BB0022003D35283E8600013087002000BC
:102C06003A08C03F3B08C13F22003D35283E8600BA
:102C1600403FB600413FB7002000C2014235283E82
:102C2600860001308700403FBA00413FBB003A08AA
:102C3600BE073B08BF3D0030C03DC13D0630C20A5D
:102C46004202031C112E0630AD00AE01AF01B001E9
:102C56004108B4004008B3003F08B2003E08B10086
:102C66008E315E262E082200B50020002D08220097
:102C7600B4000630BD0A3D020318BD01080000304D
:102C86008B1B0130A5008B1324082100B9002000FE
:102C960023082100B800200022082100B7002000E8
:102CA60021082100B6007916CE012000251C5D2ED4
:102CB6008B1708008B130800052424082200A700A0
:102CC600200023082200A600200022082200A500DA
:102CD600200021082200A40008002000D200FD27C1
:102CE60090312000D300F4279031013A031D7D2E48
:102CF6000330D3005208A2219031BE308600213025
:102D060087003E308100CE3086003E308100D830CC
:102D160086003E308100B23086002C308100BD3006
:102D260086002C308100C13086002C308100CD30E9
:102D360086002C308100D13086002C308100C030D6
:102D460086003C308100D03086003C308100B830AF
:102D560086002E308100C83086002E308100B530C6
:102D660086003A308100C53086003A308100D9307D
:102D7600860048308100BF3086004E308100220038
:102D8600470BDD2EBF30860053308100DD2ECF305D
:102D96008600213087005030DB2ECF308600213070
:102DA60087004E30DB2ECF30860021308700523030
:102DB6008100E62E20005308003A0319CA2E013A74
:102DC6000319D02ED62EB330B9002130BA00220016
:102DD60043082000BB000230BC00BD016F279031C4
:102DE600B630B9002130BA00220044082000BB00EA
:102DF6000230BC00BD016F279031C230B9002130CE
:102E0600BA00220049082000BB000330BC00BD0107
:102E16006F279031C630B9002130BA0022004A0827
:102E26002000BB000230BC00BD016F279031052495
:102E36002408BD002308BC002208BB002108BA00F4
:102E46009B310C239031D2302000B9002130BA00DA
:102E5600210055082000BB000230BC00BD016F27D1
:102E66009031D430B9002130BA0021005608200034
:102E7600BB000230BC00BD016F279031D630B900CF
:102E86002130BA00210057082000BB000230BC00E8
:102E9600BD016F27B930C3002130C40022004608A7
:102EA6002000C600220045082000C5000430C700E7
:102EB600C8018631E726C930C3002130C40022008C
:102EC6004C082000C60022004B082000C500043034
:102ED600C700C8018631E72E64303B02031C772FFA
:102EE60003303C0203188A2F64303B020A30031871
:102EF600842F3B02031C832F02303C0203188A2FC7
:102F06000A303B02031808003C08031908003D0B71
:102F1600952F3C08BE00BF01390786003F083A3DA1
:102F26008700810102303C020A30031CB72FBC0324
:102F3600A1003B08C4279031C2000A30A1003B081B
:102F4600DC279031BB003030C2073C08BE00BF0111
:102F56003907C0003F083A3DC100400886004108D5
:102F6600870042088100952FA1003B08C427C200B4
:102F76003030C207390886003A08870042088100C7
:102F86000800A3000830A400A5012308A20007300A
:102F9600A236890BCB2F25352204A500A33521089F
:102FA6002502031CD82F2108A502A40BC82F25082B
:102FB6000800A200A40121080319F22FA301A30A05
:102FC600A11BE72FA135E22FA43521082202031CFD
:102FD600EF2F2108A2022414A136A30BE72F240801
:102FE600080021004F082000A1002100CF01200089
:0A2FF6002108080021005E08080011
:10306E00AA28791E452829229831003021002702EE
:10307E00043003192602031849284F285830A60099
:10308E000230A7002608FD3EA800FF30273DA9000C
:10309E007917F62F292298312100B001892798310E
:1030AE00053A031D080000305727983100302100E3
:1030BE002702063003192602031C6C282608FD3E43
:1030CE00A800FF30273DA9000800A5209831270849
:1030DE00A9002608A800013079176D2406308A3120
:1030EE00FC2AF91C7C289C219831A5200B138B13EC
:1030FE0093102800171120001C1128001E1120000B
:10310E0018108E3115269831AA209831003A031DD9
:10311E00982821001708C139143897001714630036
:10312E008B288B31E9239831F918A2288B31D223C1
:10313E0098318B31AE2302308A31FC2A22000E12D6
:10314E00210091120800D2209831B000B101300850
:10315E00031DC028B101B10A210045080319CF286B
:10316E000B30C60AC7014602031CCF280330C50127
:10317E00CD28210045030319CF281F30C70AC601E9
:10318E004702031CCF280830C501C50A8A31FC222C
:10319E0020003108080028001D082000AE01AF01F4
:1031AE0022000E1520001C11F918EE280430AD0077
:1031BE003D30AC00AC0BE128AD0BE1280032FC3009
:1031CE0020009C051C08873908389C00FB28073016
:1031DE00AD007D30AC00AC0BF228AD0BF228FC300C
:1031EE0020009C0578309C04FA309B009A019110C7
:1031FE0020302100E2001C30E30002304D219831D6
:10320E008F302100E2000230E3014D219831210080
:10321E005208D3003330520603191729F81618290D
:10322E00F812A7302100E200E301911420001C15D2
:10323E00292902304D2198312100521D29292000C3
:10324E00AF01AF0A20002F08031D2F291C192029BA
:10325E001C1121009110AD30E20002304D21983149
:10326E0021005208031D3E2902304D2198312200C3
:10327E000E118E110E1080302100520203184A29B1
:10328E002000AE01AE0A20002E0808002000A80083
:10329E00E230A900D130AA0022008E150E112000B6
:1032AE00AB012B08A500A601A51BA6032608803A94
:1032BE00A70080302702031D66292808250203185F
:1032CE00772920002A0886008701290884008501B5
:1032DE0000087A2198318100AA0AA90AAB0A582956
:1032EE0022000E150800A1008030A201A300A40147
:1032FE00210823050319862922000E14882922008D
:10330E000E108E110000000022008E15000000002D
:10331E00200023088E18A204A336A40A2408803A9B
:10332E00783E031C7F2922080800F91CA129A92137
:10333E009831A4298B31D22398318B31AE232800BA
:10334E0017150800FC309905190887393838990087
:10335E0099131A1DB029F9100800D4232208EA0087
:10336E002108E9000A30B200B3016A08AD0069080D
:10337E00AC000F30AE00AF018B315A2398312D08BF
:10338E00B5002C08B4008E31392698313308EA0086
:10339E003208E90000306A021E3003196902031870
:1033AE00DB291E30E900EA01292298316F1B6F1DBF
:1033BE00EF29A430860006308701A03E84008501E7
:1033CE00403F00072100A6000131413F003DA7000C
:1033DE002000EF1F052A6A08E6006908E500103094
:1033EE00E535E60DE7000E30E800650867022100BE
:1033FE00A60020006608683B2100A70021002708D0
:10340E0020006A02031D0F2A2100260820006902EF
:10341E0003181F2A690821002602A80020006A0846
:10342E002100273BA90005307914CF239831272A94
:10343E0021002708A9002608A80005308A31FC22A1
:10344E00791708002000E101E201E301E401943163
:10345E00052498312408E4002308E3002208E20042
:10346E002108E1000F30CE0021002E0820004E0270
:10347E00D800D901031CD903DA01D91BDA035A0883
:10348E00DB006108D8076208D93D6308DA3D64089D
:10349E00DB3DBD006308BC006208BB006108BA00DA
:1034AE000C2398316C239831210024082000A100B0
:1034BE00210025082000A200A301A4015B08A8009A
:1034CE005A08A7005908A6005808A50099232208F3
:1034DE00DF002108DE0021002E082000B200B3011B
:1034EE005F08B5005E08B4008E3139269831320877
:1034FE00013ED60021002C02FF3E2000E0002100FC
:10350E002E082000A100A2015F08A4005E08A300FF
:10351E00923111229831210821002E022000D7006D
:10352E006008AC00AD01AC1BAD0321002E082000DD
:10353E00AE00AF018B315A2398312D08DD002C08D7
:10354E00DC005708DC070318DD0AE01FB62A21004D
:10355E0024082000DC07210025082000DD3D5D0841
:10356E002100A70020005C082100A60020006108B1
:10357E00CE006208CF006308D0006408D10021009D
:10358E0026082000D200210027082000D300D401F5
:10359E00D5015208CE075308CF3D5408D03D5508EB
:1035AE00D13D51082100A300200050082100A200A7
:1035BE0020004F082100A10020004E082100A0008D
:1035CE0023088030031DF32A20025130213B0130A5
:1035DE00223B031CFA2A8030A007AE30A13DFE30FC
:1035EE00A23DFF30A33D23082000BD00210022088C
:1035FE002000BC00210021082000BB002100200873
:10360E002000BA000C2398316C2B3D08C5003C08F5
:10361E00C4003B08C3003A08C2000E30B001AF012F
:10362E00AE001030AD004508B4004408B3004308A6
:10363E00B2004208B1008E315E2698312D0821006D
:10364E00D5003C302000AD00AE01AF01B00121002D
:10365E0055082000A100FF30A201A301A401A8007B
:10366E00A700F130A600F030A5008E319D269831CE
:10367E0021084207BE002208433DBF002308443DF7
:10368E00C0002408453DC100B4004008B3003F0807
:10369E00B2003E08B1008E315E2698312D08210011
:1036AE00D600C4302000A100210056088C31E92438
:1036BE009831BE00F030A100210055088C31E9246C
:1036CE003E0742072100D700080043302000B90012
:1036DE000030BA00210055082000BB000230BC00AB
:1036EE00BD0197316F2798313A30C500C80046307A
:1036FE00B9000030BA00210056082000BB0002308D
:10370E00BC00BD0197316F274930B9000030BA00B7
:10371E00210057082000BB000230BC00BD01BD0ACD
:10372E0097316F2F24082304220421040319C62B7A
:10373E00A901A90AA41BA82BA135A20DA30DA40DA6
:10374E00A02B24082802031DB62B23082702031DD5
:10375E00B62B22082602031DB62B21082502031CB8
:10376E00C02B2108A5022208A63B2308A73B24084C
:10377E00A83BA436A30CA20CA10CA90BA82B2808BD
:10378E00A4002708A3002608A2002508A10008000F
:10379E002000A1002100C4000800220035082000EE
:1037AE00A200220034082000A1000800BE27983194
:1037BE002000A80089279831033A031D0800200035
:1037CE002808031DF12B00306D249831F81AF42BC4
:1037DE000130F52B03306D2498310230D927983102
:1037EE00A52004308A31FC2A00306D249831003037
:1037FE0089249831640006302000E5001330E4007F
:10380E00B130E300E30B092CE40B092CE50B092C7A
:10381E00003204308A312F22983103306D249831D2
:10382E00003089249831640006302000E500133002
:10383E00E400B130E300E30B222CE40B222CE50B69
:10384E00222C003202308A312F2298312100FB2B9C
:10385E00602C053079148A31FC2AA52098318C27EA
:10386E009531B925983121003008031D482C2000D0
:10387E00EF1D482C01305727983102306D249831B6
:10388E004C2C03306D242000EF1121000330B00AC0
:10389E00A8000630A9018A31FC2279170800F91C0C
:1038AE005B2C04308A31FC2A03307914A800A9015C
:1038BE00542C89279831053A0319342C033A0319ED
:1038CE00562C013A0319302C6C2C08002000A10054
:1038DE002100CD00080017100030892404308A31F1
:1038EE002F2298312100171455279831033A031DC2
:1038FE00832C05308A31FC2A07308A31FC2298311C
:10390E008E31152E212798312000DE000030E20185
:10391E002100111801302000DF00210011100030AD
:10392E008B1A01302000E0008B12F813E626983136
:10393E00592698310530200062020318B82CF32462
:10394E0098315A259831013A031DB02C0530E2000A
:10395E00A12C22008D142000E20AF81722008D10EF
:10396E00A12C2327983122000D150D302000DC00EC
:10397E00FB30DB00DB0BC12CDC0BC12C0032220038
:10398E000C128C162000E1015E0861020318DF2C78
:10399E000730DD001730DC006F30DB00DB0BD52C81
:1039AE00DC0BD52CDD0BD52C00002000E10ACB2C36
:1039BE007426983122008C164F2698313F275F0CC3
:1039CE002100031C1110031811142000600C031C9D
:1039DE008B1203188B1608000030F4259831B4258D
:1039EE0098312C302000A4008430A5000530A600AC
:1039FE003225983136302000A4008430A5000430E2
:103A0E00A600322598312000AB012B08F425983101
:103A1E00B425983120002B355D3E8600013087009D
:103A2E00403FA400413FA5000630A6003225983144
:103A3E0020002B082F2698315830A4000130A50005
:103A4E000530A6003225983120000230AB0A2B0239
:103A5E00031808000C2D22000C132000AA012A08BE
:103A6E00A700A801A71BA8032808803AA900803048
:103A7E002902031D442D260827020318572D200066
:103A8E002A08A700A801A71BA8032408270784005B
:103A9E002508283D8500000811269831AA0A362DE2
:103AAE0022000C17B42D0030AC01AC0AF42598316D
:103ABE00B42598312C302000A4008430A5000530A8
:103ACE00A600BE259831003A031D6F2D2000AC01D3
:103ADE00B425983136302000A4008430A50004307F
:103AEE00A600BE259831003A031D7F2D2000AC01A3
:103AFE00B42598312000AD012D08F4259831B42558
:103B0E00983120002D355D3E860001308700403F04
:103B1E00A400413FA5000630A600BE259831003A0C
:103B2E00031D9B2D2000AC0120002D082F2698315F
:103B3E005830A4000130A5000530A600BE259831EE
:103B4E00003A031DAC2D2000AC0120000230AD0A5E
:103B5E002D02031C832D2C08080020001C152200AA
:103B6E008C1520001C19B82D22008C110800240879
:103B7E0084002508850000088038AA00A901A90A3A
:103B8E0022000C1320002A081126983121008C17D0
:103B9E002000AB01AB0A26082B020318ED2D0927D6
:103BAE009831AA002508A8002408A7002B0827078B
:103BBE00840028080318280A850000082A0603191D
:103BCE00D12D22000C1721008C13003422000C176B
:103BDE0021008C132000290808002000A2002236A4
:103BEE000139A100A10E22000C0820002106EF3998
:103BFE00210622008C00200022080139A100A10E0E
:103C0E00A10D22000C0820002106DF39210622001A
:103C1E008C000800A1008030A200A30122000C112C
:103C2E0020002108220503191F2E22008C17212E99
:103C3E0022008C130000000022000C150000000072
:103C4E0020000830A236A30A230203180800152EFE
:103C5E00A200B13E840083300318013E85000008A7
:103C6E00A3000B302200D8002000A4012408593EE6
:103C7E00860001308700230824078C31CD2498312B
:103C8E00810020000430A40A2402031808003D2EEF
:103C9E000C100D118D100C138C130C118C118C1229
:103CAE000C12080020001C1187309C05FC309C056E
:103CBE0014309B009A0191102100911422000C14D3
:103CCE008F302000A200DA30A100A10B6C2EA20BC7
:103CDE006C2E000022008D10080091311F219831AA
:103CEE00AB00EE308600213087002B088100653056
:103CFE00A5000130A6000430A700992698319C300B
:103D0E00A5002130A600EE30860021308700010884
:103D1E00A700992698316A30A5000130A60003301D
:103D2E00A700992EAA01AA0127082A020318080043
:103D3E002A08A800A901250786002908263D870024
:103D4E000108DA3E840082300318013E8500000827
:103D5E00B3269831AA0A9B2EA1008030A20021081A
:103D6E00A300FF30A306F91AC22EFC309C051C08D6
:103D7E0087396838C92E1C08873930389C001C08D2
:103D8E00FC3901389C00EE309B009A019110210005
:103D9E0091142000A401230822050319D92E220014
:103DAE008C16DB2E22008C122000A2361C151C193C
:103DBE00DE2E0830A40A240203180800D22E8D31FC
:103DCE00172598312100B30020006F1FF72E210018
:103DDE0032083302031CF72E20006F13EF13012F4E
:103DEE0020006F1B012F210033083102031C012F0D
:103DFE0020006F17513021003302031808002000F5
:103E0E00EF1708008030A101A200A30122000C11BF
:103E1E000000000022000C15000000002000220807
:103E2E008C1BA1040830A236A30A2302031C0D2FFB
:103E3E00210808002F0808003F27983121004D085F
:103E4E00003A0319342F013A0319362F033A031996
:103E5E00392F013A03193C2F3E2F9031092800309B
:103E6E009631702E01309631702E90315B280800FD
:103E7E002000A1012108803A313E03184F2F21085E
:103E8E009C3E860021308701873D8101A10A412F8A
:103E9E00EE308600213087008101080043080800BB
:103EAE002000A6002608031D682F2030A100023036
:103EBE00A2003E30A3000130A40071272000EF15B0
:103ECE0008003E30A1000130A2002030A3000230D5
:103EDE00A400712F210822040319080023082404CA
:103EEE0003190800210886002208870020002308F5
:103EFE008400240885001A30A50012001E00A50BB0
:103F0E00842F08002100420808002200200820000B
:103F1E00A100220021082000A20022002208200079
:103F2E00A300220023082000A40021002408200062
:103F3E00A500210025082000A600A701A80125083C
:103F4E00A1072608A23D2708A33D2808A43D240862
:103F5E002200A700200023082200A600200022082D
:103F6E002200A500200021082200A4000800200045
:103F7E0018106E116D1EC62F2200BA01D62F6D19A4
:103F8E00CC2F02302200BA00D12FED19C32F220000
:103F9E00BA01BA0A9231952298319331C223220086
:103FAE003A0808002000A1002100B5000F30B4002F
:103FBE007817EB2F22000D16080022008D16080030
:103FCE0022000D128D1208003508840005300402FF
:103FDE000318080087310435CC3E8200080060309B
:103FEE002000A100A201933136232200BB019331A0
:023FFE00C22BD4
:020000040001F9
:04000E00CCEFFFDE56
:10E00000000000000000FF00FF00FF00FF00FF0015
:10E01000FF00FF00FF00FF00FF00FF00FF00FF0008
:10E02000FF00FF00FF00FF00FF00FF00FF00FF00F8
:10E03000FF00FF00FF00FF00FF00FF00FF00FF00E8
:10E04000FF00FF0015007000E0002200FF00150037
:10E050007000FA005900FF0015007000E000220077
:10E06000FF0015007000FA005800FF004400430054
:10E0700054004300300030003100310030003000E7
:10E080003600FF0006000100010028009400140083
:10E09000CF00FF00FF00FF00FF00FF00FF00FF00B8
:10E0A000FF00FF00FF00FF00FF00FF00FF00FF0078
:10E0B000FF00FF00FF00FF00FF00FF00FF00FF0068
:10E0C000FF00FF00FF00FF00FF00FF00FF00FF0058
:10E0D000FF00FF00FF00FF00FF00FF00FF00FF0048
:10E0E000FF00FF00FF00FF00FF00FF00FF00FF0038
:10E0F000FF00FF00FF00FF00FF00FF00FF00FF0028
:10E10000FF00FF00FF00FF00FF00FF00FF00FF0017
:10E11000FF00FF00FF00FF00FF00FF00FF00FF0007
:10E12000FF00FF00FF00FF00FF00FF00FF00FF00F7
:10E13000FF00FF00FF00FF00FF00FF00FF00FF00E7
:10E14000FF00FF00FF00FF00FF00FF00FF00FF00D7
:10E15000FF00FF00FF00FF00FF00FF00FF00FF00C7
:10E16000FF00FF00FF00FF00FF00FF00FF00FF00B7
:10E17000FF00FF00FF00FF00FF00FF00FF00FF00A7
:10E18000FF00FF00FF00FF00FF00FF00FF00FF0097
:10E19000FF00FF00FF00FF00FF00FF00FF00FF0087
:10E1A000FF00FF00FF00FF00FF00FF00FF00FF0077
:10E1B000FF00FF00FF00FF00FF00FF00FF00FF0067
:10E1C000FF00FF00FF00FF00FF00FF00FF00FF0057
:10E1D000FF00FF00FF00FF00FF00FF00FF00FF0047
:10E1E000FF00FF00FF00FF00FF00FF00FF00FF0037
:10E1F000FF00FF00FF00FF00FF00FF00FF00FF0027
:00000001FF
