:06000000000080316828B9
:100008007E14803123009D1C18281D120000230037
:100018001D1618282000911E1B2823001908F70018
:1000280077089D31482580312100911A0E2821003A
:10003800911C23282000911C23281C1191108B1A35
:100048000B1D3D28FA0A9A31562280317A06031D83
:100058002F2822008E120A307A02031C362822002A
:100068008E16FA01F9183C2820001508053E95005F
:100078000B112100931C5D282000931C5D28FC03B4
:10008800F91C49287C08031D5B289D3177258031A0
:1000980005309D319C258031791C592803309D31CC
:1000A8009C2580312800171179100A30FC002000A7
:1000B80093102100111C66282000111C66289D3110
:1000C800432511107E10090020000308A0008B3181
:1000D800922B8720803121004D08003A03197E2891
:1000E800013A03197F28033A03198228013A0319B0
:1000F800852886281129003091313C290130913119
:100108003C2964290800A1012108803A313E0318DE
:10011800962821089C3E860021308701873D810171
:10012800A10A8828EE308600213087008101080066
:1001380065232208EA002108E9000A30B200B30169
:100148006A08AD006908AC000F30AE00AF018C3111
:10015800682480312D08B5002C08B400F5228031C0
:100168003308EA003208E90000306A021E30031939
:1001780069020318C2281E30E900EA0190312E20D6
:1001880080316F1B6F1DD728A43086000630870189
:10019800A03E84008501403F00072100A6000131F0
:1001A800413F003DA7002000EF1FED286A08E60048
:1001B8006908E5001030E535E60DE7000E30E80087
:1001C800650867022100A60020006608683B210038
:1001D800A7002100270820006A02031DF728210034
:1001E8002608200069020318072969082100260249
:1001F800A80020006A082100273BA90005307914CF
:10020800602380310F2921002708A9002608A800AB
:1002180005308C310A247917080000309631C4263D
:100228008031B330A1002130A200CA30A300983039
:10023800A40048228031DE218031D9009C30A10001
:100248002130A2005908A1070318A20ABC30A30054
:100258009830A40048228031602280312000D200EA
:100268005908D300A130D401D5002130D600530855
:100278005507D7005408563DD80057088600580837
:1002880087005208810064228031DE21D9009C3E1B
:10029800D2002130D301D33D52088600530887008D
:1002A80020308100D90A59089C3ED2002130D30160
:1002B800D33D52088600530887002030810008008B
:1002C80020000030D9019631C4268031B330A10016
:1002D8002130A200D730A3009830A40048228031F2
:1002E800DE218031DA001A2380312000D900303E27
:1002F800D2005A089C3ED3002130D401D43D530883
:10030800860054088700520881005A08013E1D23C0
:1003180080315A08D2009E30D301D4002130D50054
:1003280052085407D6005308553DD7005608860092
:10033800570887003C3081005A08D2009F30D3010B
:10034800D4002130D50052085407D6005308553D33
:10035800D700560886005708870020308100DE2124
:100368008031DA009C30A1002130A2005A08A10790
:100378000318A20ABC30A3009830A4004822803198
:10038800602280312000D2005A08D300A130D40165
:10039800D5002130D60053085507D7005408563DDC
:1003A800D800570886005808870052088100DE21C7
:1003B8008031642A9C30A301A1002130A200EC29DD
:1003C800523023020318F329A30AA10A0319A20A27
:1003D80021088600220887000108031DE429230854
:1003E80008009C302000A1002130A200E430A300C6
:1003F8009830A40048228031A630A1002130A20004
:100408003530A3009930A40048228031AB30A100D8
:100418002130A2003E30A3009930A4004822AB014D
:100428002B08DD3E8600013087000108A800A530B2
:10043800860021308700280881002B08E53E8600C9
:10044800013087000108A800AA3086002130870003
:10045800280881009C30A2002130A3009431DD24BB
:1004680080310530AA000F30A900F430A800A80B8D
:100478003B2AA90B3B2AAA0B3B2A20000830AB0ACF
:100488002B0203180800142A2208A6002108A50038
:10049800250886002608870023088400240885008C
:1004A8000008C03F890803190800A50A0319A60A0D
:1004B800A30A0319A40A4C2A5D230739413E080000
:1004C8001130C1000230C2008E3169268031230804
:1004D800BF002208BE00DE218031BD00C0014208F5
:1004E800B3004108B2003F08B5003E08B400F52249
:1004F8003208BC00413EB9003D089C3EBA0021309C
:10050800BB01BB3D3A0886003B08870039088100DB
:10051800BD0A4208A2004108A1003F08A4003E0805
:10052800A30096318C2680312208BF002108BE0026
:100538001730B200B3014208B5004108B400F522F3
:1005480080313308C2003208C1000330C00A4002BB
:1005580003180800732A0930BB01BC01BD01BE01A4
:10056800B200B3013A08AD003908AC000530AE005E
:10057800AF018C31682480312D08B5002C08B400F7
:10058800F5223308C0003208BF000230BF07031845
:10059800C00A3030B200B3013A08AD003908AC00E7
:1005A8001130AE00AF018C31682480312C08313E07
:1005B800B40000302D3DB500F52280313308BC0071
:1005C8003208BB000730B200B3013B083F07B40054
:1005D8003C08403DB500F5223308BE003208BD0096
:1005E8000800B601B701320833040319152BB80106
:1005F800B80AB31B022BB235B30DFC2AB635B70DBA
:1006080033083502031D0A2B32083402031C112B50
:100618003208B4023308B53B3614B336B20CB80B03
:10062800022B3708B3003608B200080022003A0847
:100638000800A4009C3EA1002130A201A23D21088F
:10064800860022088700303081006F1F372B24086E
:100658009C3EA1002130A201A23D2108860022086B
:10066800870031308100EF1F452B24089C3EA100F4
:100678002130A201A23D21088600220887003230DD
:100688008100F81F080024089C3E8600213087015D
:10069800873D0108033EA10024089C3EA2002130AA
:1006A800A301A33D220886002308870021088100B2
:1006B800080021004C0808002000A1002100C40007
:1006C8000800220035082000A2002200340820007B
:1006D800A10008009C30EE10A1002130A2002C30AF
:1006E800A300862583312208A5002108A400A40AB6
:1006F8000319A50A24088600250887004D3001063D
:10070800031D892B2100CA0108002508A20024081E
:10071800A1002C30A300862583312208A5002108DA
:10072800A400A40A0319A50A24088600250887003E
:1007380033300106031D080003302100CB002000E0
:10074800EE1408009C30A1002130A2002C30A30038
:10075800862583312208B5002108B400B40A03199C
:10076800B50A6E102200C201C80120003508A50094
:100778003408A4000230A600642583312200BE009C
:1007880020003408023EA4000030353DA5000230A8
:10079800A600642583312200BF0020003408043EEF
:1007A800A4000030353DA5000230A6006425833141
:1007B8002200C00020003508A2003408A1002C3017
:1007C800A300862583312208B5002108B400B40AA5
:1007D8000319B50A34088600350887005630010623
:1007E800031DFA2B2200C101C10A062C3408860019
:1007F8003508870041300106031D062C2200C1017F
:1008080020006E1420003508A2003408A1002C3006
:10081800A300862583312208B5002108B400B40A54
:100828000319B50A34088600350887002C300106FC
:100838000319602C2200C201C20A20003508A50055
:100848003408A4000230A600642583312200C300C6
:1008580020003408023EA4000030353DA5000230D7
:10086800A600642583312200C40020003408073E16
:10087800A4000030353DA5000230A6006425833170
:10088800B2000230B301A6003408053EA4000030CF
:10089800353DA5006425AC006430AD01AE00AF0164
:1008A8008C316824833132082C072200C5002000CF
:1008B80033082D3D2200C60020003508A200340868
:1008C800A1002C30A300862583312208B500210819
:1008D800B400B40A0319B50A2200420B8A2C20007E
:1008E80034088600350887004E300106031D7F2C2A
:1008F8002200C7018A2C3408860035088700533047
:100908000106031D8A2C2200C701C70A20003508EA
:10091800A2003408A1002C30A300862583312208C8
:10092800B5002108B400B40A0319B50A34088600D2
:10093800350887002C3001060319E42C2200C80171
:10094800C80A20003508A5003408A4000330A60012
:10095800642583312200C90020003408033EA40026
:100968000030353DA5000230A60064258331220001
:10097800CA0020003408083EA4000030353DA50018
:100988000230A60064258331B2000230B301A6000C
:100998003408063EA4000030353DA5006425AC00AF
:1009A8006430AD01AE00AF018C3168248331320868
:1009B8002C072200CB00200033082D3D2200CC005C
:1009C80020003508A2003408A1002C30A300862599
:1009D80083312208B5002108B400B40A0319B50A06
:1009E8002200480B0E2D20003408860035088700A9
:1009F80057300106031D042D2200CD01CD0A0E2D0E
:100A0800340886003508870045300106031D0E2D81
:100A18002200CD0120003508A2003408A1002C30A6
:100A2800A300862583312208B5002108B400B40A42
:100A38000319B50A3508A2003408A1002C30A30018
:100A4800862583312208B5002108B400B40A0319A9
:100A5800B50A3508A2003408A1002C30A300862569
:100A680083312208B5002108B400B40A0319B50A75
:100A78003508A5003408A4000230A6006425833197
:100A88002200D40020003408023EA4000030353D86
:100A9800A5000230A600642583312200D50020007D
:100AA8003408043EA4000030353DA5000230A600FD
:100AB800642583312200D60020006E1C08009C2D7E
:100AC800A901AA01AB01802D26082A020318842D4A
:100AD8002A08A700A801240786002808253D8700C2
:100AE8000108D03EAB000A30A10029088E317C26CF
:100AF80083312B07A900AA0A0A302B02031C682D90
:100B0800290808002108860022088700010803191F
:100B1800992D210886002208870001082306031959
:100B28000800A10A0319A20A862DA101A201080042
:100B380022003E082000A1000E30A201A301A4015A
:100B4800A801A701A6001030A50037262408210017
:100B5800BD00200023082100BC002000220821003D
:100B6800BB00200021082100BA0022003F08200015
:100B7800AC003C30AD01AE00AF018C3168242C08CC
:100B88002100BA0720002D082100BB3D0030BC3DE4
:100B9800BD3D220040082100BA0701300318BB07F9
:100BA8000318BC070318BD0708003D08C5003C082A
:100BB800C4003B08C3003A08C2000E30B001AF01C0
:100BC800AE001030AD004508B4004408B300430837
:100BD800B2004208B1008F31012783312D0821006E
:100BE800D5003C302000AD00AE01AF01B0012100BE
:100BF80055082000A100FF30A201A301A401A8000C
:100C0800A700F130A600F030A500372621084207DA
:100C1800BE002208433DBF002308443DC00024080D
:100C2800453DC100B4004008B3003F08B2003E088B
:100C3800B1008F31012783312D082100D600C4303F
:100C48002000A100210056088E317C268331BE0089
:100C5800F030A100210055088E317C263E0742075E
:100C68002100D7000800A901AA01AB01AC01211C91
:100C7800452E2508A9072608AA3D2708AB3D2808C0
:100C8800AC3DA535A60DA70DA80DA436A30CA20C46
:100C9800A10C2408230422042104031D3B2E2C0844
:100CA800A4002B08A3002A08A2002908A100080014
:100CB800791F6E2E0130A8020030A93BE30B662E87
:100CC8000A30E30028082904031D6E2E7913923197
:100CD800B0228631781F722E75268631791D08005C
:100CE8009F2EB40B7F2E781322000D128D12043024
:100CF8002100B500080002303506031D8F2E0310B1
:100D080022000D1E0314031C8C2E22000D16080051
:100D180022000D12080003303506031D08000310D9
:100D280022008D1E0314031C9C2E22008D16080021
:100D380022008D120800781EA92E2100E20BA62E93
:100D48000A30E200DD0BA92E78122100C00BCA2E52
:100D58002000EF1EBB2E21003F08C0002000EF122C
:100D6800EF1CCA2E8B1222008E128D17CA2E21005C
:100D78003E08C0002000EF16F81DC72E22008D1374
:100D8800DC268631F8112000EF188B16013021007F
:100D9800D8020030D93B58085904031D0800781EB2
:100DA800D72E0230D82E3C30D800D901F8150800CB
:100DB80020000030D1018B1A0130CF008B122200A5
:100DC8008E12F918F22E2A302000CD008D30CC007A
:100DD800CC0BEC2ECD0BEC2E0032002F0230200075
:100DE800CE004D30CD007430CC00CC0BF92ECD0B9D
:100DF800F92ECE0BF92E000025278631D0004F0C96
:100E0800031C8B1203188B164630500203180E2F42
:100E180001300F2F0030D1006F0C01395106031932
:100E280008000310EF1C0314031C1D2F2000EF14EF
:100E38001F2F2000EF10EF1808008B1222008E12CF
:100E4800080009302000B90000302F2721001C08B5
:100E58002000CB000800BD00FF30C801C80AC1014E
:100E6800C201C301C401C500C6001030C70121007A
:100E78009E0020003D0C2100031C9E1303189E17A2
:100E880020003908BB00BB0DBB0D21001D08200048
:100E98003B0683393B0621009D001D14423020008B
:100EA800BB00BB0B552F00000C302000390603197E
:100EB800612F1F303906031D6B2F4230BB00BB0B5F
:100EC800632F000012302000C800C701C70AC00104
:100ED800480840020318A52F1A30BB00BB0B722F1D
:100EE800000021009D14000021009D18782F1C0887
:100EF8002000CA00C90121001B082000C9070318E7
:100F0800CA0A470B9F2F4A084402031D8D2F490820
:100F180043020318932F4A08C4004908C30046082F
:100F28004A02031D992F4508490203189F2F4A08B2
:100F3800C6004908C5004908C1074A08C23DC00A99
:100F48006C2F21001D102000470BC52F43084507B3
:100F5800BB004408463DBC00BB09BC09BB0A0319D9
:100F6800BC0A3B08B4003C08B5004108B407420875
:100F7800B53D4808B200FE30B301B207FF30B33DBB
:100F8800CC2F4808B200B3014208B5004108B400AC
:100F98008231F5223308BF003208BE003F08BA008C
:100FA8003E08B90008008E31AA2687312100B30017
:100FB80020006F1FE82F210032083302031CE82F9E
:100FC80020006F13EF13F22F20006F1BF22F210068
:100FD80033083102031CF22F20006F175130210013
:100FE8003302031808002000EF1708001714023016
:060FF8008C310A2C0800F8
:101004003228F91C0728272188312D2088310B1319
:101014008B1393102800171120001C1128001E1197
:10102400200018104327883132208831003A031DEC
:10103400232821001708C1391438970017146300B6
:1010440016287C258831F9182B28642588314225F7
:10105400883102300A2C22000E122100911208005D
:1010640059208831B000B1013008031D4828B1016E
:10107400B10A21004508031956280B30C60AC701D6
:101084004602031C56280330C50155282100450398
:10109400031956281F30C70AC6014702031C5628E5
:1010A4000830C501C50A0A242000310808002800B8
:1010B4001D082000AE01AF0122000E1520001C11F6
:1010C400F91876280430AD003C30AC00AC0B68282D
:1010D400AD0B68280000FC3020009C051C088739F3
:1010E40008389C00FA3087283430AD00F130AC0069
:1010F400AC0B7A28AD0B7A28003220001C08FC398E
:1011040002389C0078309C047D309B009A01911039
:1011140020302100E4001C30E5000230D820883162
:101124008F302100E4000230E501D820883121000D
:101134005208D300333052060319A228F816A32804
:10114400F812A7302100E400E501911420001C15D9
:10115400B4280230D82088312100521DB428200040
:10116400AF01AF0A20002F08031DBA281C19AB28B1
:101174001C1121009110AD30E4000230D8208831D8
:1011840021005208031DC9280230D82088312200CA
:101194000E118E110E108030210052020318D52832
:1011A4002000AE01AE0A20002E0808002000A8008E
:1011B400E430A900D130AA0022008E150E112000BF
:1011C400AB012B08A500A601A51BA6032608803A9F
:1011D400A70080302702031DF128280825020318E0
:1011E400022920002A088600870129088400850135
:1011F4000008052188318100AA0AA90AAB0AE3285C
:1012040022000E150800A1008030A201A300A40151
:10121400210823050319112922000E141329220081
:101224000E108E110000000022008E150000000038
:10123400200023088E18A204A336A40A2408803AA6
:10124400783E031C0A2922080800F91C2C293221A3
:1012540088312E2964258831422528001715080075
:10126400FC309905190887393838990099131A1DE3
:101274003929F9100800171000308621883104300C
:101284004B23883121001714FE278831033A031DAC
:101294004F2905300A248831542907300A2488311B
:1012A4004327883161212408BD002308BC0022089B
:1012B400BB002108BA008531D925913111290030AC
:1012C4008B1B01302000A9008B132100390820005A
:1012D400A800210038082000A700210037082000BA
:1012E400A600210036082000A500291C7B298B17A5
:1012F4007C298B1320002808A4002708A3002608B3
:10130400A2002508A1000800FC272000DE00003010
:10131400E2012100111801302000DF00210011102A
:1013240000308B1A01302000E0008B12F813873153
:10133400D7278831692788310530200062020318D5
:10134400B5290E22883175228831013A031DAD2951
:101354000530E2009E2922008D142000E20AF817CD
:1013640022008D109E2980316D20883122000D15B8
:1013740068302000DC00E430DB00DB0BBF29DC0B31
:10138400BF29000022000C128C162000E1015E0827
:1013940061020318DD293130DD00B430DC00943003
:1013A400DB00DB0BD329DC0BD329DD0BD329003283
:1013B4002000E10AC9298827883122008C160422DA
:1013C4008831AE302000A1009930A200DA2488319F
:1013D4009C30A1002130A200DA2488316F30A100B2
:1013E4009930A200DA24803187205F0C2100031C8D
:1013F4001110031811142000600C031C8B12031825
:101404008B1608000C100D118D100C138C130C117D
:101414008C118C120C120800003010238831CF225A
:10142400883130302000A4009930A5000530A60092
:101434004D2288313A302000A4009930A5000430B0
:10144400A6004D2288312000AB012B0810238831DF
:10145400CF22883120002B355D3E86000130870085
:10146400403FA400413FA5000630A6004D2288312C
:1014740020002B084A2788315830A4000130A500E9
:101484000530A6004D22883120000230AB0A2B0221
:1014940003180800272A22000C132000AA012A0896
:1014A400A700A801A71BA8032808803AA900803038
:1014B4002902031D5F2A260827020318722A200026
:1014C4002A08A700A801A71BA8032408270784004B
:1014D4002508283D850000082D238831AA0A512AB1
:1014E40022000C17CF2A0030AC01AC0A102388313B
:1014F400CF22883130302000A4009930A500053077
:10150400A600D9228831003A031D8A2A2000AC01A2
:10151400CF2288313A302000A4009930A50004304D
:10152400A600D9228831003A031D9A2A2000AC0172
:10153400CF2288312000AD012D0810238831CF221D
:10154400883120002D355D3E860001308700403F04
:10155400A400413FA5000630A600D9228831003AF4
:10156400031DB62A2000AC0120002D084A2788312B
:101574005830A4000130A5000530A600D9228831D6
:10158400003A031DC72A2000AC0120000230AD0A36
:101594002D02031C9E2A2C08080020001C15220082
:1015A4008C1520001C19D32A22008C110800240851
:1015B40084002508850000088038AA00A901A90A2A
:1015C40022000C1320002A082D23883121008C17B7
:1015D4002000AB01AB0A26082B020318092B9C310F
:1015E4000A248831AA002508A8002408A7002B088B
:1015F4002707840028080318280A850000082A06FB
:101604000319EC2A22000C1721008C130034220049
:101614000C1721008C132000290808002000A200C8
:1016240022360139A100A10E22000C082000210657
:10163400EF39210622008C00200022080139A10084
:10164400A10EA10D22000C0820002106DF3921067D
:1016540022008C000800A1008030A200A301220017
:101664000C1120002108220503193B2B22008C17A2
:101674003D2B22008C130000000022000C150000FA
:10168400000020000830A236A30A23020318080031
:10169400312B2000D200AA268831D30002306026E4
:1016A40088312000D600692688312308D500220815
:1016B400D40004305206031D672B73305302031CFD
:1016C400560B08000230A101892E79305302031C05
:1016D40008005608031D08000230A101A10A89264A
:1016E40088312F3020005502863003195402031C20
:1016F400832B0130A1018926883120000030A1010B
:10170400892ED40A0319D50A5508D600A100013040
:101714008926883120005408D600A1000030892E83
:101724005230FB000A30FC001E30FD0023308400E0
:101734009A308500D8308600003087000030FF00E2
:1017440010309A3133228831123084009A30850067
:101754005D308600013087000030FF0011309A317F
:1017640033228831223084009C308500CB308600BF
:10177400013087000030FF0022309A313322883153
:101784009C308400213085005430FE000030FF007E
:101794009A313F228831F801F901FA01ED01EE0195
:1017A400EF01A0308400003085003830FE000030A6
:1017B400FF009A313F2288312030840001308500B7
:1017C4003D30FE000030FF009A313F228831A030C6
:1017D4008400013085002B30FE000030FF009A3178
:1017E4003F22883120308400023085001A30FE0008
:1017F4000030FF009A313F2288317E102000022CF5
:10180400A324883101300A2488311F2480316828B8
:101814002000A70021004208C30020002735CB3E4A
:10182400860001308700413F8A00403F0A008C3126
:10183400200027082100C20008001F30EA01EB0144
:101844003F00ED002100EC01EC0AED01EE01210066
:1018540048084904031D302C6400292C4908EB0076
:101864004808EA006C086A052000EB0021006D08B6
:101874006B052000EC006B04031D452C2100EC35A6
:10188400ED0DEE0A342C21006E082000AC0003306C
:10189400AD01AE00AF0168242D0885002C0884003A
:1018A4005D3084079830853D003F2100E800013F0A
:1018B400E9008A0068080A0007308C3121006E06AE
:1018C4000319242C6E087D248831242CB001B10125
:1018D4002C1C702C2E08B0072F08B13DAE35AF0D6F
:1018E400AD36AC0C2C082D04031D6A2C3108AD0058
:1018F4003008AC0008002000A50000308B1B01302C
:10190400A6008B132508A1008930A201A135A20DE0
:10191400210784009830223D8500003FA300013F49
:10192400A400A309A40923082100C8052000240851
:101934002100C9052000261CA12C8B1708008B133D
:10194400080064006425883101309A259A314B22BD
:1019540088318030A1009930A200DA248831B63071
:10196400A1009930A200DA2488319930A10099307D
:10197400A200DA248831F230A1009930A200DA24DE
:101984008831A530A1009930A200DA248831882555
:10199400883140278831B52588318A258831422508
:1019A4008831832588317C259C3182249E31E42E24
:1019B400B001B201F918E02C0C30E12C34302800CD
:1019C4009D002000A401AD01AD0A21088400220875
:1019D4008500120003190800603030020318080063
:1019E40021088400220885000008AE00B101B10A74
:1019F400B201B20A2E0831050319072D3208243E1C
:101A0400860087018101810A0C2D3208243E86005C
:101A1400870181010930B135B20A3202031CFC2C62
:101A240028001E119C0100308B1B01302000AF00E8
:101A34008B13931128001E152000B2013208243E96
:101A440086008701010C2200031C0D1303180D17D7
:101A540020009311931D2C2D0A30B20A3202031C6C
:101A6400202D28001E11200093112F1C3B2D8B17B5
:101A74003C2D8B132000A10A0319A20AB00AE72CFB
:101A840028001711F91C542D0330970417088739BF
:101A940048389700FA3096000A302100E10085307A
:101AA400950008001708FC39023897001708873991
:101AB400503897008E30960001302100E1008830C4
:101AC40095000800FC302100990519088739703801
:101AD400990099171A1E6C2D9A1D6E2D3430F91425
:101AE4002000A200F130A100A10B762DA20B762DCF
:101AF4000032080021001708C1391C38970017105C
:101B040008000230C500C601C701080000300A2CD5
:101B140023008C0109308D00432721008C010930FA
:101B24008D0082308E0024008D0108309000080062
:101B34002000A10028001E111E08873908389E00C5
:101B4400FC309E0534309D0020002108031DAD2D7E
:101B54000C3028009D002000931121000D138D17D7
:101B640022000D1708002000C301EF01C40144083E
:101B74003E3E602688310F392000C1000A30A100A2
:101B840043087C2688314107C3000330C40A440259
:101B9400031CB92D43082100AC0042306026883173
:101BA4002100AE004330602688312100AF00473069
:101BB400602688312100AD002D080319F32D2E086D
:101BC4000319F32D10302E020318F32D64302D0267
:101BD4000318F32D2C080319F32D2C082D020318D8
:101BE400F52D20006F1421002E082000AC00AD015B
:101BF40021002D082000AE00AF01682488312D0893
:101C04002100A50020002C082100A4002504031DA8
:101C1400112E20000A306F142100A400A5014830C1
:101C240060262000C100C201C135C20DC135C20DFC
:101C34004108B9004208BA008231AF22883121003C
:101C4400B100053EB2004430602688312100C10055
:101C54004530602688312000C5002100BF000F30C8
:101C6400BF052000450E0F392100BE000F30BE0510
:101C74003F08C0004630602688312000C500451C5E
:101C84006F15C5186F16451AF916C51E79156F1EFE
:101C94004F2E01309E3128268831692688312F3015
:101CA4002302873003192202031C08000130A1011A
:101CB4008926883120000030A101892E2000A1004E
:101CC40023009100920195131514130808000130A4
:101CD400602688312000A600A5000030A4016026FB
:101CE4002000A600A4070318A50A2508A3002408B9
:101CF400A20008002000A300A20121082318A207C3
:101D0400A135A3362308031D7F2E22080800A20054
:101D140023009100920120002108230093009513D1
:101D2400151500308B1B01302000A3008B13553098
:101D340023009600AA30960095142000230C031C5F
:101D44008B1303188B1723009518A52E1511080063
:101D5400823022009700171FAD2E1F302000B900DB
:101D6400013087312F2788313A08D1003908D00053
:101D7400220097130C302000B900013087312F273F
:101D840088313A08CF003908CE00500851040319AD
:101D9400ED2E5008AD005108AE00AF01B0014E0861
:101DA400A1004F08A2002030A301A401A801A701AB
:101DB400A6000C30A5008631372688312408B400EB
:101DC4002308B3002208B2002108B10001272E081D
:101DD400CC002D08CB004F082100AB0020004E089A
:101DE4002100AA0064302000B200B3014C08B50001
:101DF4004B08B4008231F5223208CD000800B50149
:101E0400B601B701B80130082F042E042D040319BC
:101E1400372FB901B90AB01B142FAD35AE0DAF0D74
:101E2400B00D0C2FB535B60DB70DB80D3008340212
:101E3400031D262F2F083302031D262F2E083202DE
:101E4400031D262F2D083102031C312F2D08B1024A
:101E54002E08B23B2F08B33B3008B43B3514B036E0
:101E6400AF0CAE0CAD0CB90B142F3808B00037080A
:101E7400AF003608AE003508AD000800C801C9013E
:101E8400080022008C0140308D0004308E000800D0
:101E9400A200B53E840098300318013E8500000876
:101EA400A3000B302200D8002000A4012408593ECE
:101EB40086000130870023082407602688318100CA
:101EC40020000430A40A240203180800582F20001C
:101ED4001C1187309C05FC309C05A0309B009A01A6
:101EE40091102100911422000C1405302000A3004D
:101EF4007730A200D930A100A10B7E2FA20B7E2F38
:101F0400A30B7E2F000022008D1008008131DE21FA
:101F14008831AB00EE308600213087002B08810029
:101F24006530A5000130A6000430A700AD27883134
:101F34009C30A5002130A600EE30860021308700B9
:101F44000108A700AD2788316A30A5000130A6003A
:101F54000330A700AD2FAA01AA0127082A020318FB
:101F640008002A08A800A901250786002908263D9B
:101F740087000108003E840098300318013E850064
:101F84000008C7278831AA0AAF2FA1008030A20019
:101F94002108A300FF30A306F91AD82F1C08FC3926
:101FA40002389C001C0887393038DF2F1C08873919
:101FB40068389C001C08FC3902389C00EE309B00F9
:101FC4009A019110210091142000A40123082205F4
:101FD4000319EF2F22008C16F12F22008C122000FF
:101FE400A2361C151C19F42F0830A40A2402031865
:0C1FF4000800E82F2F0808004308080030
:102004002100C301C20108002E2090312100B0013B
:1020140058239031053A031D0800003026239031DF
:10202400003021002702063003192602031C212850
:102034002608FD3EA800FF30273DA900080088318E
:102044002D2090312708A9002608A800013079170F
:10205400212306308C310A2C2000E101E201E30146
:10206400E4018931612190312408E4002308E3006C
:102074002208E2002108E1000F30CE0021002E08E2
:1020840020004E02D800D901031CD903DA01D91B60
:10209400DA035A08DB006108D8076208D93D6308EF
:1020A400DA3D6408DB3DBD006308BC006208BB0088
:1020B4006108BA008531D925903111219031210070
:1020C40024082000A100210025082000A200A3016B
:1020D400A4015B08A8005A08A7005908A6005808DC
:1020E400A500A9272208DF002108DE0021002E0810
:1020F4002000B200B3015F08B5005E08B40082316D
:10210400F52290313208013ED60021002C02FF3E18
:102114002000E00021002E082000A100A2015F0899
:10212400A4005E08A3008C26210821002E022000B2
:10213400D7006008AC00AD01AC1BAD0321002E0834
:102144002000AE00AF018C31682490312D08DD00F1
:102154002C08DC005708DC070318DD0AE01FBA2846
:10216400210024082000DC07210025082000DD3D93
:102174005D082100A70020005C082100A6002000C3
:102184006108CE006208CF006308D0006408D10063
:10219400210026082000D200210027082000D300B7
:1021A400D401D5015208CE075308CF3D5408D03D81
:1021B4005508D13D51082100A300200050082100FA
:1021C400A20020004F082100A10020004E08210099
:1021D400A00023088030031DF72820025130213B42
:1021E4000130223B031CFE288030A007AE30A13D05
:1021F400FE30A23DFF30A33D23082000BD00210096
:1022040022082000BC00210021082000BB0021007E
:1022140020082000BA008531D92590311129433096
:102224002000B9000030BA00210055082000BB008E
:102234000230BC00BD013C2290313A30C500C800D8
:102244004630B9000030BA00210056082000BB0017
:102254000230BC00BD013C2290314930B90000304D
:10226400BA00210057082000BB000230BC00BD01A9
:10227400BD0A3C2A2000D200A62790312000D300BA
:102284009D279031013A031D49290330D300520898
:10229400C4269031BE308600213087003E30810054
:1022A400CE3086003E308100D83086003E3081003A
:1022B400B23086002C308100BD3086002C30810085
:1022C400C13086002C308100CD3086002C30810056
:1022D400D13086002C308100C03086003C30810033
:1022E400D03086003C308100B83086002E3081002A
:1022F400C83086002E308100B53086003A30810027
:10230400C53086003A308100D930860048308100DB
:10231400BF3086004E3081002200470BA929BF3010
:10232400860053308100A929CF30860021308700F0
:102334005030A729CF308600213087004E30A7299E
:10234400CF3086002130870052308100B22920002E
:102354005308003A03199629013A03199C29A22922
:10236400B330B9002130BA00220043082000BB007A
:102374000230BC00BD013C229031B630B90021309E
:10238400BA00220044082000BB000230BC00BD019A
:102394003C229031C230B9002130BA0022004908F1
:1023A4002000BB000330BC00BD013C229031C6308C
:1023B400B9002130BA0022004A082000BB000230D4
:1023C400BC00BD013C228931612190312408BD004B
:1023D4002308BC002208BB002108BA008531D92596
:1023E4009031D2302000B9002130BA0021005508C4
:1023F4002000BB000230BC00BD013C229031D4302F
:10240400B9002130BA00210056082000BB00023078
:10241400BC00BD013C229031D630B9002130BA0055
:10242400210057082000BB000230BC00BD013C2243
:102434009031B930C3002130C40022004608200086
:10244400C600220045082000C5000430C700C801AA
:1024540054279031C930C3002130C40022004C08F5
:102464002000C60022004B082000C5000430C7002D
:10247400C801542F64303B02031C442A03303C023D
:102484000318572A64303B020A300318512A3B02CE
:10249400031C502A02303C020318572A0A303B021C
:1024A400031808003C08031908003D0B622A3C0885
:1024B400BE00BF01390786003F083A3D870081010D
:1024C40002303C020A30031C842ABC03A1003B08EE
:1024D40074269031C2000A30A1003B08AC2690312A
:1024E400BB003030C2073C08BE00BF013907C00042
:1024F4003F083A3DC1004008860041088700420871
:102504008100622AA1003B087426C2003030C20751
:10251400390886003A0887004208810008003324FD
:1025240090312000A80058239031033A031D08007D
:1025340020002808031DA52A003021239031F81A11
:10254400A82A0130A92A033021239031023016240D
:1025540088312D20903104308C310A2CE22A053048
:1025640079148C310A2C88312D209031E423903158
:102574005B23903121003008031DCA2A2000EF1D7F
:10258400CA2A013026239031023021239031CE2AE9
:10259400033021232000EF1121000330B00AA800EA
:1025A4000630A9018C310A2479170800F91CDD2AA8
:1025B40004308C310A2C03307914A800A901D62ADE
:1025C40058239031053A0319B52A033A0319D82A36
:1025D400013A0319B12AEE2A080000302123003001
:1025E400893186219031640029302000E50096303D
:1025F400E400A630E300E30BFD2AE40BFD2AE50B1F
:10260400FD2A04308B314B239031033021230030D9
:10261400893186219031640029302000E50096300C
:10262400E400A630E300E30B152BE40B152BE50BBC
:10263400152B02308B314B2390312100EF2A2000DF
:10264400A1002100CD0008002000A6002608031DDB
:10265400372B2030A1000230A2003E30A30001300D
:10266400A40040232000EF1508003E30A1000130F3
:10267400A2002030A3000230A400402B2108220431
:1026840003190800230824040319080021088600FC
:1026940022088700200023088400240885001A30BB
:1026A400A50012001E00A50B532B080021004208B0
:1026B40008002000BE01BF01C001C101220023089F
:1026C4002702031D6F2B22082602031D6F2B2108EE
:1026D4002502031D6F2B200824020318952B80303C
:1026E4002000BA005130BB000130BC000430BD01F1
:1026F400203E860001308700403FBA07413FBB3D82
:10270400423FBC3D433FBD3D3D082200A7002000A1
:102714003C082200A60020003B082200A50020005F
:102724003A082200A400200824022000BA00220053
:102734002108253B2000BB0022003D35283E8600B1
:102744000130870020003A08C03F3B08C13F220007
:102754003D35283E8600403FB600413FB70020008B
:10276400C2014235283E860001308700403FBA004E
:10277400413FBB003A08BE073B08BF3D0030C03DA7
:10278400C13D0630C20A4202031CB32B0630AD0021
:10279400AE01AF01B0014108B4004008B3003F08E6
:1027A400B2003E08B1008F3101272E082200B50087
:1027B40020002D082200B4000630BD0A3D02031893
:1027C400BD010800220020082000A10022002108E9
:1027D4002000A200220022082000A30022002308D7
:1027E4002000A400210024082000A50021002508C1
:1027F4002000A600A701A8012508A1072608A23DDC
:102804002708A33D2808A43D24082200A70020008F
:1028140023082200A600200022082200A500200090
:1028240021082200A40008002000A1002100B50016
:102834000F30B4007817282C22000D16080022004F
:102844008D16080022000D128D1208003508840030
:10285400053004020318080099310435F53E82005E
:102864000800200018106E116D1E3B2C2200BA01C6
:10287400492C6D19412C02302200BA00462CED1966
:10288400382C2200BA01BA0A4C249E317026220048
:102894003A08080080302000A1000430A200FA2485
:1028A400903105302000D0000F30CF00F430CE003E
:1028B400CE0B5A2CCF0B5A2CD00B5A2C5B30200049
:1028C400A2009930A300DD2490310530D0000F30F0
:1028D400CF00F430CE00CE0B6D2CCF0B6D2CD00B73
:1028E4006D2C22000E1215302000D0004B30CF008A
:1028F400D130CE00CE0B7C2CCF0B7C2CD00B7C2C7F
:10290400000022000E1615302000D0004B30CF00FE
:10291400D130CE00CE0B8C2CCF0B8C2CD00B8C2C2E
:10292400000060302000A100A201FA24903105309B
:102934002000D0000F30CF00F430CE00CE0BA02CFE
:10294400CF0BA02CD00BA02C8131F5219031053078
:10295400D0000F30CF00F430CE00CE0BAF2CCF0B15
:10296400AF2CD00BAF2C2100CC01FD259031413090
:102974002000A2009930A300DD249031DC30C60091
:102984000530C7003D25903172302000A2009930F7
:10299400A300DD249031DC30C6000530C7003D259E
:1029A400903107304C0603190800BE302000A20005
:1029B4009930A300DD2CA5012308A7002208A60056
:1029C40026088400270885001200031908008030B7
:1029D400250203180800260884002708850000083B
:1029E4006D2690312000A60A0319A70AA50AE22C35
:1029F40023001E129F151E15112D033023009C0069
:102A040040300F2D23009C018A300F2D23009C01A0
:102A140044300F2D23009C010C309B002F2D2000EF
:102A24002208003A03191D2D023A0319222D063AF1
:102A34000319272D2F2D2108603A0319FF2C2F2D60
:102A44002108403A0319042D2F2D2108803A031937
:102A5400082D013A03190C2D2F2D05302000A50057
:102A64000F30A400F430A300A30B362DA40B362D95
:102A7400A50B362D080000302100911A01302000EA
:102A8400CD004708AD004608AC001430AE00AF01DD
:102A94008C31682490312D08CC002C08CB00CA015D
:102AA400210091126B2D23009D1C5C2D1D12000032
:102AB40023001D1619087F2590312000911A552DE9
:102AC4008530C800C80B642D01302000CB020030D3
:102AD400CC3B20004B084C040319752D5F2D2300BB
:102AE40019087F2590312000911A712D4D0C210079
:102AF400031C91120318911608002000C500C4019C
:102B04006E1A0800C3004330A1000030A2008C31CB
:102B1400DA24903124306D154506031DA22DFD25C0
:102B24002000ED1621005A0886005B08870020006B
:102B3400450881002100DA0A0319DB0AFB030800B7
:102B4400ED1E080021005A0886005B08870020005B
:102B5400450881002100DA0A0319DB0AFB0320007F
:102B6400ED1FD72D2100DC035C08031DF92D9C30DB
:102B74002000A1002130A2007B08523CA3000B26B8
:102B84009031013A031DD42D6D167B080319D02D05
:102B940021005A0886005B088700810122003C0856
:102BA400DF279031FD259D31CE2D6D1FDF2D2A307D
:102BB4004506031DF92DED17F92D4C307B06031D39
:102BC400F92D21005A0886005B0887009C3081019A
:102BD4002000A8002130A9009C31D1249031013A71
:102BE400031DF72D6D17ED15F92DFD2590317B088B
:102BF400031D0800FD2D20009C30ED126D13ED1314
:102C04002100DA002130DB005230FB000230DC000E
:102C14000800A601A701A10A0319A20AAA01AA0A87
:102C24002308FD3EA400FF3003180030A500803ABD
:102C3400803C031D1F2E24082A0203182C2E20007A
:102C440021088600220887000108A606A10A0319A4
:102C5400A20A112E2000AA01A10A0319A20A21081E
:102C6400860022088700473001022A08031C442EEC
:102C7400283E860087012108840022088500000878
:102C8400DF394C2E283E8600870121088400220863
:102C940085000008D03E81002A08283E86000A30BC
:102CA40087010102031C602E2A08283E86002A0898
:102CB400283E840085010008F93E81000230AA0AFA
:102CC4002A02031C2E2E280EF0392904A7002606FA
:102CD400031901340034A100111E6E2E21082300B3
:102CE4009A000800A3000830A400A5012308A2004C
:102CF4000730A236890B7B2E25352204A500A33587
:102D040021082502031C882E2108A502A40B782E75
:102D140025080800210822040319A72EA501A50AE5
:102D2400A21B972EA135A20D912E22082402031D69
:102D34009D2E21082302031CA32E2108A30222088E
:102D4400A43BA236A10CA50B972E2408A2002308AD
:102D5400A1000800A200A40121080319C22EA301A6
:102D6400A30AA11BB72EA135B22EA4352108220235
:102D7400031CBF2E2108A2022414A136A30BB72ED4
:102D8400240808002000CF003327D0015008363E25
:102D94008E31602690312000C80050089C3EC90046
:102DA4002130CA01CA3D490886004A0887004808FC
:102DB40081000430D00A5002031CC82ED1015108EE
:102DC4003A3E8E31602690312000C8005108C90077
:102DD400A130CA01CB002130CC0049084B07CD00FB
:102DE4004A084C3DCE004D0886004E08870048082E
:102DF40081000730D10A5102031CE12EA030860065
:102E0400213087003E308100AE3086003E308100A4
:102E1400A83086002C308100A93086003C30810027
:102E2400B13086003C308100AC3086002E30810009
:102E3400AF30860056308100B030860042308100C9
:102E44004F0B2C2FAF30860042308100B03086000B
:102E540056308100B2308600213087002030810056
:102E64000800210033082000C4004530B9000030B8
:102E7400BA004408BB000330BC00BD013C22AA30A8
:102E8400860021308700450881004608C300AB3026
:102E94008600430881004708C300AD30860043081C
:102EA4008100080027304602103003194502031C34
:102EB4005F2F0530470203186A2F2730460210306F
:102EC400031945020318080004304702031C0800D4
:102ED4004408BA004308B9006430B200B30146089C
:102EE400B5004508B4008231F52290313208BB00A8
:102EF4004708FE3EBC004808BD003C22903144080F
:102F0400BA004308B9004708B9070318BA0AFE30E3
:102F1400B907031CBA036430A100A2014608A40047
:102F24004508A3008C2690312108BB000230BC0068
:102F34004808BD003C2A21004F082000A1002100C0
:102F4400CF0120002108080021005E0808002408A1
:102F54002304220421040319D62FA901A90AA41BBE
:102F6400B82FA135A20DA30DA40DB02F240828025B
:102F7400031DC62F23082702031DC62F220826027D
:102F8400031DC62F21082502031CD02F2108A502EA
:102F94002208A63B2308A73B2408A83BA436A30C7D
:102FA400A20CA10CA90BB82F2808A4002708A30081
:102FB4002608A2002508A10008002000B600F52F6D
:102FC4008331A62B83316E2B010008009F31082F1B
:102FD400791408000310F91F0314031CF32FF917C5
:102FE4000800F913080036088400093004020318A5
:102FF40008009A310435003E82000800033400348E
:1030040000340034003400340034533400340034C9
:103014002334003400340B340034003400340034DE
:1030240000340034003400340034003400340034FC
:1030340000340034003400340034003413345B347E
:10304400473417344B3400342F346B347B342734F7
:10305400003400341B3463341F345F343734773422
:10306400673443342B3407345734733433340F34D4
:103074003B343F347F3400346F344F340034633492
:103084004F343B344B3443345B342F3417343334B0
:103094006B347B3427341F341B340F343734773488
:1030A4002B345334073473343F3467345F34573428
:1030B400473400340034FA3407340134EF34123422
:1030C40002340334083403342734093404345C34BC
:1030D4000634053402340834063406341034073414
:1030E40044341C3408344C341E3409343D3409341B
:1030F4000A3477341C340B349C3400340C34FE34DE
:1031040007340D34FE3407340E3491341234013450
:1031140000340234003404340034083400341034ED
:10312400003420340034403400348034003400341B
:1031340001340034023400340434003408340034DC
:1031440010340034203400344034003480340A34E1
:103154009934FC34983403349934F5349834EE3487
:10316400983411349934223427342C3431341E34B5
:103174003C34963456343E34323439343C3454344A
:103184003E34363439343C3420344334203400342F
:103194004134433454344934563441344E34443441
:1031A4004F3453344534203400344E344F34543483
:1031B4004934433445342034473450345334203470
:1031C4003E3400342434503441344934523430349D
:1031D400363432342C3400342434453445345334B6
:1031E4004C3466340034243447344E344734533436
:1031F40041340034243447344E3452344D3443344F
:103204000034243447345034473453344134003484
:1032140024344734503452344D3443340034243449
:103224005034413449345234303400340734003497
:1032340000340034003400340834003400340134E1
:1032440004340034093400340034023408340034C3
:103254000A340034003403340C3400340034803431
:103264000034003440342C3430342A3433340034C1
:1032740001341834083424340D340A34003424342A
:1032840050344134493452343034363436342C34A6
:1032940031342C3430342C3430342C3430342C3419
:1032A40030342C3430342A34333442340D340A3438
:1032B40000342434503441344934523438343634AC
:1032C40034342C3430342C3430342C3439343634D3
:1032D400303430342A34313433340D340A34003445
:1032E400243450344134493452343034363437344D
:1032F4002A34333442340D340A3400340D340A345D
:103304002D342D342D342034523445345334453443
:103314005434203400342D3432343134343437349A
:1033240034343834333436343434383400344F3469
:10333400633474342034303431342034323430340F
:10334400323436340034303436343A343234373468
:103354003A343334383400340D340A344D3453346D
:1033640047343A34203400344234553449344C34EC
:1033740044343A34203400342034503463346534D3
:103384002034003420344134203400342034423496
:103394002034003420344334203400342034503476
:1033A400203400344534303400344534313400346E
:1033B4004534323400344534333400344534343401
:1033C400003445343534003445343634003445341F
:1033D4003734003445343834003445343934003417
:1033E40020342034003494311E2C9431212C943117
:0A33F4001E2C9431212C9431242C5E
:103400009731E22F9731E22F9731E42F9731E42F54
:103410009731E62F9731E82F9731EA2F9731FF2F19
:103420009731EC2F183499341E349934243499345C
:103430002A3499343C343C340D340A340034583442
:103440000D340A3400343C3400349C3421340234CA
:103450003C34FF341E3403340A340A340A34AD34A5
:10346000003400340034FE0012001E000130FE0261
:103470000030FF3B7F087E0403190034342A6400C7
:10348000013080010131FE020030FF3B7F087E04E5
:1034900003190034402A303020009804181021000D
:1034A0001110200011109701960108002100410819
:0234B000080012
:103814008030A101A200A30122000C1100000000CD
:1038240022000C1500000000200022088C1BA104BB
:103834000830A236A30A2302031C0E2C2108080018
:1038440002341034C6341D34C4341D34C2341D341F
:10385400C8341D34C0341D34CA341D34BE341D3440
:10386400BC341D34303431343334353436343734A5
:1038740038343934453446344434423438343934B1
:103884003634373446304924460895317F2D20009C
:10389400A8000030A9018B1B0130A7008B13230063
:1038A4004A080319682C4808A03E860001308700A6
:1038B40001082000A90023002830CA03C80A4806CA
:1038C4000319C8014A08031D682C74242000270C1E
:1038D400031C8B1303188B172808860087012908FB
:1038E4008100080007308C317D2CC801C901F9180A
:1038F400812C8D3164259C318D3142259C31822C63
:10390400F8018D3183259C31A3249C3179127913DC
:103914009B249C31B001C4240B118B120B178B1701
:1039240020009310210093142800171502308B31C6
:103934004B2B2100B601B701B801B9010A30FC00D4
:1039440008002000EE112200BD01A001A101A20186
:10395400A301A401A501A601A7012000A10121350D
:10396400283E8600013087001E30C03F0030C13F32
:103974000630A10A2102031CB12C1E302200B4001F
:10398400B501080020000230EF10EF127816210074
:10399400D800D9013F08C0003C30DD000800AE016A
:1039A400AD01AE012908A2002808A1002E08AA0032
:1039B400A930AB01AA35AB0D2A07840098302B3D02
:1039C4008500003FA300013FA40021259C3121086C
:1039D4002204031DF32CAD01AD0A2E082200BC0005
:1039E400F82C0630AE0A2E02031CD42C053022001B
:1039F4003C06031D052DD0302000A2009930A30001
:103A04009431DD249C3120002D08031D1E2D28082F
:103A1400860029088700473041310106031D1E2D09
:103A240028088600290887004C3042310106031D0E
:103A34001E2D2100CF01CF0A20002D0808002F2DB4
:103A44002108860022088700010803193D2DA10AD8
:103A54000319A20AA30A0319A40A2108860022084A
:103A64008700230884002408850000080102A500BB
:103A740025080319222D2508A100A201A11BA203D8
:103A84000800FD037D08031D08005D2DF6002830A5
:103A94004A0603195A2D4908A03E860001308700C2
:103AA400760881002830CA0AC90A49060319C901DF
:103AB40007309C250800682DF915742D0E309C25BF
:103AC4009D31742D22008D120D12742D2100600879
:103AD400003A03195E2D013A0319602D033A0319C4
:103AE400642D742D2000181008002100CE0A053022
:103AF4004E02031C0800CE0104309C259D31013088
:103B04002100B6070030B73DB83DB93D39088030D3
:103B1400031D942D36025130373B0130383B031CD2
:103B240008008030B607AE30B73DFE30B83DFF30F8
:103B3400B93D0800F40000308B1B0130F5008B13F5
:103B44007408F0008930F101F035F10D700784003C
:103B54009830713D8500003FF200013FF300720888
:103B64002100C8047308C904751CBA2D8B170800FA
:103B74008B1308000230282E0B30282E0830282EF4
:103B84000830282E0A30282E0030282E0930282EFE
:103B94000C3028268F31432F2000EE186E1C0800AD
:103BA400EE106E1021000A30D00A5002031C0800E7
:103BB400D0032000EE1AE52DEE15F92593315B2391
:103BC4009D312000EE1621003D082000A4002100B4
:103BD4003C082000A30021003B082000A200210093
:103BE4003A082000A1000B269D310630282E893189
:103BF400612124082200A700200023082200A60037
:103C0400200022082200A500200021082200A40090
:103C1400080000308B1B0130A5008B132408210001
:103C2400B900200023082100B80020002208210048
:103C3400B700200021082100B6007916CE0120002B
:103C4400251C262E8B1708008B1308002000A500C6
:103C540000308B1B0130A6008B132508A10089308E
:103C6400A201A135A20D210784009830223D8500D0
:103C7400003FA300013FA40023082100C804200042
:103C840024082100C9042000261C4A2E8B17080092
:103C94008B130800791E5A2E90312E209E3100304D
:103CA4002100270204300319260203185E2E642E15
:103CB4005830A6000230A7002608FD3EA800FF30B9
:103CC400273DA9007917662E60302000A100A201CB
:103CD4009431FA249E312200BB01702E2000ED01A4
:103CE400EE019531FD259E3103279E311D162100DD
:103CF400911622000E1615302000AC004B30AB009C
:103D0400D130AA00AA0B842EAB0B842EAC0B842ECC
:103D1400000021000130D001D5269E31B5261114B2
:103D2400200018146E15893161219E312408220067
:103D3400A300200023082200A20020002208220061
:103D4400A100200021082200A00005302000AC00C2
:103D54000F30AB00F430AA00AA0BAE2EAB0BAE2E84
:103D6400AC0BAE2E08000030200018180130A10062
:103D740000302100111801302000A2001810F911A0
:103D840021005F08FD002000111097019601210C0D
:103D9400031C181003181814220C2100031C111002
:103DA4000318111408002000A1001818181021008D
:103DB400E000B93E840098300318013E85000008F5
:103DC400DF00080080302000A1000430A2009431FC
:103DD400FA249E3103279E3122000E16153020004E
:103DE400D3004B30D200D130D100D10BF72ED20BFF
:103DF400F72ED30BF72E000094314C2422000E1220
:103E0400080023009D171D169E1608009C3086008E
:103E1400213087003030463101069C308600213045
:103E24008700031D7D2F3130473101069C30860009
:103E340021308700031D7D2F2C30483101069C3032
:103E4400860021308700031D7D2F2C304C31010664
:103E54009C30860021308700031D7D2F30304D318A
:103E640001069C30860021308700031D7D2F3030F1
:103E7400493101069C30860021308700031D5D2FE7
:103E840036304A3101069C30860021308700031DFC
:103E94005D2F36304B310106031D592F2100C430EC
:103EA4004C142000A2009930A3009431DD2C9C30E6
:103EB400860021308700303049310106031D080097
:103EC4009C3086002130870036304A310106031DBC
:103ED40008009C3086002130870037304B310106C2
:103EE400031D08002100C830CC142000A200993022
:103EF400A3009431DD2C363046310106031D080041
:103F04009C30860021308700373047310106031D7D
:103F140008009C308600213087002C30483101068F
:103F2400031D08009C308600213087003130493160
:103F34000106031D08009C308600213087002C30C8
:103F44004A310106031D08009C3086002130870099
:103F540030304B310106031D08009C3086002130AF
:103F640087002C304C310106031D08009C3086006C
:103F74002130870030304D310106031D08009C308C
:103F84008600213087002C304E310106031D0800C5
:103F94009C3086002130870030304F310106031DEC
:103FA40008009C308600213087002C3050310106F7
:103FB400031D08009C3086002130870030305131C9
:103FC4000106031D08009C308600213087002C3038
:103FD40052310106031D08009C3086002130870001
:103FE400303053310106031D08002100CC304C153C
:0C3FF4002000A2009930A3009431DD2CC5
:020000040001F9
:04000E00CCEFFFDE56
:10E00000000000000000FF00FF00FF00FF00FF0015
:10E01000FF00FF00FF00FF00FF00FF00FF00FF0008
:10E02000FF00FF00FF00FF00FF00FF00FF00FF00F8
:10E03000FF00FF00FF00FF00FF00FF00FF00FF00E8
:10E04000FF00FF0015007000E0002200FF00150037
:10E050007000FA005900FF0015007000E000220077
:10E06000FF0015007000FA005800FF004400430054
:10E0700054004300300030003100310030003100E6
:10E080003900FF0006000100010028009400140080
:10E09000CF00FF00FF00FF00FF00FF00FF00FF00B8
:10E0A000FF00FF00FF00FF00FF00FF00FF00FF0078
:10E0B000FF00FF00FF00FF00FF00FF00FF00FF0068
:10E0C000FF00FF00FF00FF00FF00FF00FF00FF0058
:10E0D000FF00FF00FF00FF00FF00FF00FF00FF0048
:10E0E000FF00FF00FF00FF00FF00FF00FF00FF0038
:10E0F000FF00FF00FF00FF00FF00FF00FF00FF0028
:10E10000FF00FF00FF00FF00FF00FF00FF00FF0017
:10E11000FF00FF00FF00FF00FF00FF00FF00FF0007
:10E12000FF00FF00FF00FF00FF00FF00FF00FF00F7
:10E13000FF00FF00FF00FF00FF00FF00FF00FF00E7
:10E14000FF00FF00FF00FF00FF00FF00FF00FF00D7
:10E15000FF00FF00FF00FF00FF00FF00FF00FF00C7
:10E16000FF00FF00FF00FF00FF00FF00FF00FF00B7
:10E17000FF00FF00FF00FF00FF00FF00FF00FF00A7
:10E18000FF00FF00FF00FF00FF00FF00FF00FF0097
:10E19000FF00FF00FF00FF00FF00FF00FF00FF0087
:10E1A000FF00FF00FF00FF00FF00FF00FF00FF0077
:10E1B000FF00FF00FF00FF00FF00FF00FF00FF0067
:10E1C000FF00FF00FF00FF00FF00FF00FF00FF0057
:10E1D000FF00FF00FF00FF00FF00FF00FF00FF0047
:10E1E000FF00FF00FF00FF00FF00FF00FF00FF0037
:10E1F000FF00FF00FF00FF00FF00FF00FF00FF0027
:00000001FF
