:1000000000008031682808007E14803123009D1C88
:1000100018281D12000023001D1618282000911E0C
:100020001B2823001908F70077089D31C925803166
:100030002100911A0E282100911C23282000911CD8
:1000400023281C1191108B1A0B1D3D28FA0A9031A0
:10005000002080317A06031D2F2822008E120A30DC
:100060007A02031C362822008E16FA01F9183C2861
:1000700020001508053E95000B112100931C5D28FA
:100080002000931C5D28FC03F91C49287C08031DF3
:100090005B289D31F825803105309E311D26803149
:1000A000791C592803309E311D26803128001711F4
:1000B00079100A30FC00200093102100111C6628E2
:1000C0002000111C66289D31C42511107E100900E6
:1000D00020000308A0008B31F72B0230ED2B0B30F2
:1000E000ED2B0830ED2B0830ED2B0A30ED2B0030D6
:1000F000ED2B0930ED2B0C30ED238F31A72F791F1D
:100100008C280130A8020030A93B28082904031DCF
:100110008C287913F1218031781F90289420803128
:10012000791D08009E31C82E2100B40B9F2878133A
:1001300022000D128D1204302100B500080002309B
:100140003506031DAF28031022000D1E0314031CE7
:10015000AC2822000D16080022000D120800033002
:100160003506031D0800031022008D1E0314031C16
:10017000BC2822008D16080022008D1208002430B1
:100180002000A1009A30A2008D313F258031791ED8
:10019000D5289231A322803100302100270204307B
:1001A000031926020318DA28E02858302100A60097
:1001B0000230A7002608FD3EA800FF30273DA90019
:1001C0007917E22880302000A1000430A200973186
:1001D000632780312200BB01742B2000EE186E1CB7
:1001E0000800EE106E1021000A30D00A5002031CE5
:1001F0000800D0032000EE1A0429EE1518218031E2
:10020000822280312000EE1621003D082000A4004B
:1002100021003C082000A30021003B082000A20090
:1002200021003A082000A1002A2180310630ED2B60
:100230008931D52124082200A700200023082200AC
:10024000A600200022082200A5002000210822008C
:10025000A400080000308B1B0130A5008B1324087C
:100260002100B900200023082100B8002000220846
:100270002100B700200021082100B6007916CE0128
:100280002000251C45298B1708008B13080080309F
:100290002000A1000430A200973163278031B923E8
:1002A000803122000E1615302000D4004B30D300D0
:1002B000D130D200D20B5A29D30B5A29D40B5A2948
:1002C00000009131E82122000E1208005A238031EB
:1002D0002000A8007F228031033A031D080020007F
:1002E0002808031D7A29003048228031F81A7D2918
:1002F00001307E2903304822803102303D2388318D
:100300009320803104308C316F2C62302000A100AA
:100310009A30A2008D313F2580319231A322803165
:100320002100B0017F228031053A031D0800003012
:100330004D228031003021002702063003192602A9
:10034000031CA9292608FD3EA800FF30273DA9006F
:10035000080088319320803111302000A1009A30AC
:10036000A2008D313F25803121002708A9002608F1
:10037000A80001307917482206308C316F2C0030EC
:10038000482200308A317A228031640029302000EE
:10039000E5009630E400A630E300E30BCD29E40B42
:1003A000CD29E50BCD2904308B31B02380310330CA
:1003B000482200308A317A228031640029302000BE
:1003C000E5009630E400A630E300E30BE529E40BFA
:1003D000E529E50BE52902308B31B023803121007E
:1003E000BF293B2ADA302000A1009930A2008D31CC
:1003F0003F258031053079148C316F2C8831932062
:1004000080310B2380318222803121003008031D8E
:10041000132A2000EF1D132A01304D2280310230B3
:1004200048228031172A033048222000EF11210092
:100430000330B00AA8000630A9018C316F24803146
:10044000AA3079172000A1009930A2008D313F2DEC
:10045000F91C2D2A04308C316F2CE5302000A100CE
:100460009930A2008D313F25033079142100A80076
:10047000A901791708007F228031053A0319FE2966
:10048000033A0319282A013A0319F229472A0800D6
:100490002000A1002100CD0008002000A6002608B1
:1004A000031D5E2A2030A1000230A2003E30A300CE
:1004B0000130A40067222000EF1508003E30A100A3
:1004C0000130A2002030A3000230A400672A2108D6
:1004D0002204031908002308240403190800210832
:1004E0008600220887002000230884002408850055
:1004F0001A30A50012001E00A50B7A2A0800210060
:10050000420808002000BE01BF01C001C101220055
:1005100023082702031D962A22082602031D962A75
:1005200021082502031D962A200824020318BC2A4C
:1005300080302000BA005130BB000130BC000430D4
:10054000BD01203E860001308700403FBA07413F91
:10055000BB3D423FBC3D433FBD3D3D082200A7009F
:1005600020003C082200A60020003B082200A50035
:1005700020003A082200A400200824022000BA002B
:1005800022002108253B2000BB0022003D35283EEB
:1005900086000130870020003A08C03F3B08C13F79
:1005A00022003D35283E8600403FB600413FB7005F
:1005B0002000C2014235283E860001308700403FBE
:1005C000BA00413FBB003A08BE073B08BF3D0030C0
:1005D000C03DC13D0630C20A4202031CDA2A063081
:1005E000AD00AE01AF01B0014108B4004008B30056
:1005F0003F08B2003E08B1008F3165272E08220067
:10060000B50020002D082200B4000630BD0A3D02CE
:100610000318BD010800220020082000A1002200CC
:1006200021082000A200220022082000A3002200AE
:1006300023082000A400210024082000A500210098
:1006400025082000A600A701A8012508A107260863
:10065000A23D2708A33D2808A43D24082200A700A6
:10066000200023082200A600200022082200A50066
:10067000200021082200A40008002000A100210081
:10068000B5000F30B40078174F2B22000D1608006C
:1006900022008D16080022000D128D120800350868
:1006A0008400053004020318080087310435F63E43
:1006B00082000800200018106E116D1E622B2200AF
:1006C000BA01712B6D19682B02302200BA006D2B14
:1006D000ED195F2B2200BA01BA0A9131E82180316D
:1006E000742322003A0808002000ED01EE01973142
:1006F00055278031B92380311D1621009116220023
:100700000E1615302000AC004B30AB00D130AA00E3
:10071000AA0B882BAB0B882BAC0B882B000021007D
:100720000130D001DE238031BE23111420001814C3
:100730006E158931D521803124082200A3002000C4
:1007400023082200A200200022082200A10020008D
:1007500021082200A00005302000AC000F30AB00C3
:10076000F430AA00AA0BB22BAB0BB22BAC0BB22B02
:10077000080023009D171D169E160800003020005B
:1007800018180130A100003021001118013020009C
:10079000A2001810F91121005F08FD0020001110BF
:1007A00097019601210C031C181003181814220C31
:1007B0002100031C11100318111408002000A100CF
:1007C000181818102100E000B93E84009830031872
:1007D000013E85000008DF0008002000A500003071
:1007E0008B1B0130A6008B132508A1008930A201C4
:1007F000A135A20D210784009830223D8500003FDD
:10080000A300013FA40023082100C80420002408FD
:100810002100C9042000261C0F2C8B1708008B1305
:1008200008002000B600242C672C2F2C01000800A3
:100830009C2E791408000310F91F0314031C222CAA
:10084000F9170800F913080036088400093004027B
:10085000031808009A310435873E820008009C3056
:10086000EE10A1002130A2002C30A30047268431D5
:100870002208A5002108A400A40A0319A50A240837
:100880008600250887004D300106031D4A2C2100F3
:10089000CA0108002508A2002408A1002C30A300EA
:1008A000472684312208A5002108A400A40A0319C0
:1008B000A50A240886002508870033300106031D99
:1008C000080003302100CB002000EE1408009C300B
:1008D000A1002130A2002C30A30047268431220839
:1008E000B5002108B400B40A0319B50A6E1022003D
:1008F000C201C80120003508A5003408A400023058
:10090000A600252684312200BE0020003408023EC5
:10091000A4000030353DA5000230A6002526843114
:100920002200BF0020003408043EA4000030353D02
:10093000A5000230A600252684312200C000200038
:100940003508A2003408A1002C30A30047268431CA
:100950002208B5002108B400B40A0319B50A340806
:1009600086003508870056300106031DBB2C220087
:10097000C101C10AC72C3408860035088700413000
:100980000106031DC72C2200C10120006E142000A7
:100990003508A2003408A1002C30A300472684317A
:1009A0002208B5002108B400B40A0319B50A3408B6
:1009B0008600350887002C3001060319212D2200FE
:1009C000C201C20A20003508A5003408A400023084
:1009D000A600252684312200C30020003408023EF0
:1009E000A4000030353DA5000230A6002526843144
:1009F0002200C40020003408073EA4000030353D2A
:100A0000A5000230A60025268431B2000230B301D1
:100A1000A6003408053EA4000030353DA50025267B
:100A2000AC006430AD01AE00AF018C31CD24843117
:100A300032082C072200C500200033082D3D22007B
:100A4000C60020003508A2003408A1002C30A30005
:100A5000472684312208B5002108B400B40A0319DE
:100A6000B50A2200420B4B2D2000340886003508C1
:100A700087004E300106031D402D2200C7014B2D7B
:100A8000340886003508870053300106031D4B2DBE
:100A90002200C701C70A20003508A2003408A100BF
:100AA0002C30A300472684312208B5002108B40069
:100AB000B40A0319B50A34088600350887002C30BB
:100AC00001060319A52D2200C801C80A2000350817
:100AD000A5003408A4000330A60025268431220096
:100AE000C90020003408033EA4000030353DA500B5
:100AF0000230A600252684312200CA0020003408D6
:100B0000083EA4000030353DA5000230A600252691
:100B10008431B2000230B301A6003408063EA400BE
:100B20000030353DA5002526AC006430AD01AE0097
:100B3000AF018C31CD24843132082C072200CB0048
:100B4000200033082D3D2200CC0020003508A200F3
:100B50003408A1002C30A300472684312208B500B8
:100B60002108B400B40A0319B50A2200480BCF2D9E
:100B70002000340886003508870057300106031D21
:100B8000C52D2200CD01CD0ACF2D340886003508B1
:100B9000870045300106031DCF2D2200CD01200026
:100BA0003508A2003408A1002C30A3004726843168
:100BB0002208B5002108B400B40A0319B50A3508A3
:100BC000A2003408A1002C30A3004726843122085B
:100BD000B5002108B400B40A0319B50A3508A2000B
:100BE0003408A1002C30A300472684312208B50028
:100BF0002108B400B40A0319B50A3508A500340861
:100C0000A4000230A600252684312200D400200052
:100C10003408023EA4000030353DA5000230A60095
:100C2000252684312200D50020003408043EA4008B
:100C30000030353DA5000230A60025268431220073
:100C4000D60020006E1C08005D2EA901AA01AB0190
:100C5000412E26082A020318452E2A08A700A801BB
:100C6000240786002808253D87000108D03EAB00F8
:100C70000A30A10029088E31E12684312B07A90012
:100C8000AA0A0A302B02031C292E29080800210871
:100C9000860022088700010803195A2E21088600C1
:100CA000220887000108230603190800A10A031976
:100CB000A20A472EA101A201080022003E0820003E
:100CC000A1000E30A201A301A401A801A701A60062
:100CD0001030A5008A315522843124082100BD003E
:100CE000200023082100BC00200022082100BB00B6
:100CF000200021082100BA0022003F082000AC009B
:100D00003C30AD01AE00AF018C31CD242C08210068
:100D1000BA0720002D082100BB3D0030BC3DBD3D81
:100D2000220040082100BA0701300318BB0703184E
:100D3000BC070318BD0708009C30860021308700DF
:100D40003030463101069C30860021308700031D7B
:100D5000112F3130473101069C3086002130870049
:100D6000031D112F2C30483101069C3086002130A4
:100D70008700031D112F2C304C3101069C3086005A
:100D800021308700031D112F30304D3101069C307A
:100D9000860021308700031D112F303049310106B4
:100DA0009C30860021308700031DF12E36304A31F9
:100DB00001069C30860021308700031DF12E36305D
:100DC0004B310106031DED2E210052304C14200042
:100DD000A2009A30A3009231862A9C3086002130EE
:100DE0008700303049310106031D08009C30860021
:100DF0002130870036304A310106031D08009C303F
:100E000086002130870037304B310106031D080072
:100E100021005630CC142000A2009A30A300923159
:100E2000862A363046310106031D08009C308600B4
:100E300021308700373047310106031D08009C3000
:100E40008600213087002C3048310106031D080040
:100E50009C30860021308700313049310106031D66
:100E600008009C308600213087002C304A31010672
:100E7000031D08009C3086002130870030304B3144
:100E80000106031D08009C308600213087002C30AD
:100E90004C310106031D08009C308600213087007C
:100EA00030304D310106031D08009C308600213092
:100EB00087002C304E310106031D08009C3086004F
:100EC0002130870030304F310106031D08009C306F
:100ED0008600213087002C3050310106031D0800A8
:100EE0009C30860021308700303051310106031DCF
:100EF00008009C308600213087002C3052310106DA
:100F0000031D08009C3086002130870030305331AB
:100F10000106031D080021005A304C152000A200D4
:100F20009A30A3009231862AA601A701A10A0319CB
:100F3000A20AAA01AA0A2308FD3EA400FF30031852
:100F40000030A500803A803C031DA82F24082A0207
:100F50000318B52F20002108860022088700010809
:100F6000A606A10A0319A20A9A2F2000AA01A10A23
:100F70000319A20A210886002208870047300102CF
:100F80002A08031CCD2F283E8600870121088400F3
:100F9000220885000008DF39D52F283E860087010A
:100FA00021088400220885000008D03E81002A081C
:100FB000283E86000A3087010102031CE92F2A0817
:100FC000283E86002A08283E840085010008F93E54
:100FD00081000230AA0A2A02031CB72F280EF0391A
:100FE0002904A70026060319013400348331452B58
:100FF0008331482B8331452B8331482B83314B2B55
:101000000030AC01AC0A752388316B238831303055
:101010002000A4009930A5000530A600AE27883135
:10102000003A031D15282000AC016B2388313A30AB
:101030002000A4009930A5000430A600AE27883116
:10104000003A031D25282000AC016B2388312000C5
:10105000AD012D08752388316B23883120002D3593
:101060005D3E860001308700403FA400413FA5005F
:101070000630A600AE278831003A031D4128200023
:10108000AC0120002D089B31BF2388315830A400CB
:101090000130A5000530A600AE278831003A031DB7
:1010A00053282000AC0120000230AD0A2D02031CA1
:1010B00029282C0808001B302000A1009A30A2002B
:1010C0003F258831F91C66288D218831932088318D
:1010D0000B138B1393102800171120001C112800EC
:1010E0001E1120001810A727883198208831003A57
:1010F000031D822821001708C139143897001714DE
:1011000063007528E1258831F9188A28C9258831B6
:10111000A725883102306F2488314C302000A1008F
:101120009A30A2003F2D22000E12210091120800D9
:10113000BF208831B000B1013008031DAE28B101D5
:10114000B10A210045080319BC280B30C60AC701A3
:101150004602031CBC280330C501BB2821004503FF
:101160000319BC281F30C70AC6014702031CBC284C
:101170000830C501C50A6F24200031080800280086
:101180001D082000AE01AF0122000E1520001C1129
:10119000F918DC280430AD003C30AC00AC0BCE2894
:1011A000AD0BCE280000FC3020009C051C088739C0
:1011B00008389C00FA30ED283430AD00F130AC0036
:1011C000AC0BE028AD0BE028003220001C08FC39F5
:1011D00002389C0078309C047D309B009A0191106D
:1011E00020302100E3001C30E40002303E21883131
:1011F0008F302100E3000230E4013E2188312100DC
:101200005208D3003330520603190829F816092969
:10121000F812A7302100E300E401911420001C150E
:101220001A2902303E2188312100521D1A2920003E
:10123000AF01AF0A20002F08031D20291C19112916
:101240001C1121009110AD30E30002303E218831A5
:1012500021005208031D2F2902303E21883122002F
:101260000E118E110E1080302100520203183B29FE
:101270002000AE01AE0A20002E0808002000A800C1
:10128000E330A900D130AA0022008E150E112000F3
:10129000AB012B08A500A601A51BA6032608803AD2
:1012A000A70080302702031D5729280825020318AC
:1012B000682920002A088600870129088400850102
:1012C00000086B2188318100AA0AA90AAB0A4929C2
:1012D00022000E150800A1008030A201A300A40185
:1012E000210823050319772922000E1479292200E9
:1012F0000E108E110000000022008E15000000006C
:10130000200023088E18A204A336A40A2408803AD9
:10131000783E031C702922080800F91C9929FB302B
:101320002000A1009930A2003F2588319F218831FB
:101330009B29C9258831A725280017150800FC30EE
:1013400021009905190887393838990099131A1D11
:10135000A729F9100800171000307A2288310430CC
:10136000B023883121001714FE278831033A031D6A
:10137000BD2905306F248831C22907306F24883198
:10138000A7278831D52188312408BD002308BC0057
:101390002208BB002108BA00FA2193318523883145
:1013A000B630A1009930A2003F2D00308B1B0130D8
:1013B0002000A9008B13210039082000A80021007B
:1013C00038082000A700210037082000A6002100CF
:1013D00036082000A500291CEF298B17F0298B1354
:1013E00020002808A4002708A3002608A20025083A
:1013F000A10008003D08C5003C08C4003B08C3002C
:101400003A08C2000E30B001AF01AE001030AD009E
:101410004508B4004408B3004308B2004208B100D4
:10142000652788312D082100D5003C302000AD0013
:10143000AE01AF01B001210055082000A100FF302E
:10144000A201A301A401A800A700F130A600F0307A
:10145000A5005522883121084207BE002208433DDD
:10146000BF002308443DC0002408453DC100B4002E
:101470004008B3003F08B2003E08B100652788313C
:101480002D082100D600C4302000A10021005608FC
:10149000E1268831BE00F030A10021005508E12688
:1014A0003E0742072100D7000800A901AA01AB01AD
:1014B000AC01211C632A2508A9072608AA3D270894
:1014C000AB3D2808AC3DA535A60DA70DA80DA4364B
:1014D000A30CA20CA10C2408230422042104031D44
:1014E000592A2C08A4002B08A3002A08A2002908C6
:1014F000A1000800FC272000DE000030E2012100EE
:10150000111801302000DF002100111000308B1A6B
:1015100001302000E0008B12F8139C312324883125
:101520009B31A02388310530200062020318AA2ACB
:101530000423883100208831013A031DA22A053096
:10154000E200932A22008D142000E20AF8172200FC
:101550008D10932A9C317424883122000D15683037
:101560002000DC00E430DB00DB0BB42ADC0BB42A07
:10157000000022000C128C162000E1015E086102BE
:101580000318D22A3130DD00B430DC009430DB00A7
:10159000DB0BC82ADC0BC82ADD0BC82A003220006E
:1015A000E10ABE2A9D315025883122008C16FA228C
:1015B000883136302000A1009A30A2003F258831C2
:1015C0009C30A1002130A2003F2588319E30A1002F
:1015D0009930A2003F259C3190245F0C2100031C10
:1015E0001110031811142000600C031C8B12031837
:1015F0008B1608000C100D118D100C138C130C1190
:101600008C118C120C1208000030752388316B236A
:10161000883130302000A4009930A5000530A600A4
:10162000432388313A302000A4009930A5000430CB
:10163000A600432388312000AB012B087523883195
:101640006B23883120002B355D3E860001308700FA
:10165000403FA400413FA5000630A60043232000E0
:101660002B089B31BF2388315830A4000130A500DE
:101670000530A6004323883120000230AB0A2B023C
:10168000031808001D2B22000C132000AA012A08B1
:10169000A700A801A71BA8032808803AA90080304A
:1016A0002902031D552B260827020318682B20004A
:1016B0002A08A700A801A71BA8032408270784005D
:1016C0002508283D8500000892238831AA0A472B67
:1016D00022000C176B2B20001C1522008C152000FB
:1016E0001C196F2B22008C1108002000A20022364A
:1016F0000139A100A10E22000C0820002106EF39BB
:10170000210622008C00200022080139A100A10E30
:10171000A10D22000C0820002106DF39210622003D
:101720008C000800A1008030A200A30122000C114F
:101730002000210822050319A02B22008C17A22BC0
:1017400022008C130000000022000C150000000095
:1017500020000830A236A30A230203180800962BA3
:101760002000D2000F278831D3000230C5268831EF
:101770002000D600CE2688312308D5002208D400C8
:1017800004305206031DCC2B73305302031C560B3E
:1017900008000230A101EE2E79305302031C08002C
:1017A0005608031D08000230A101A10AEE26883167
:1017B0002F3020005502863003195402031CE82BF9
:1017C0000130A101EE26883120000030A101EE2E6B
:1017D000D40A0319D50A5508D600A1000130EE2617
:1017E000883120005408D600A1000030EE2E52307F
:1017F000FB000A30FC001E30FD00803084009B306E
:101800008500D8308600003087000030FF000F30A0
:101810009B31742388318F3084009B3085005D308C
:101820008600013087000030FF0011309B317423A7
:101830008831013084009C308500CB308600013037
:1018400087000030FF0022309B31742388319C30A8
:101850008400213085005430FE000030FF009B31B1
:1018600068238831F801F901FA01ED01EE01EF0179
:10187000A0308400003085003830FE000030FF00CA
:101880009B316823883120308400013085003D3051
:10189000FE000030FF009B3168238831A0308400B7
:1018A000013085002B30FE000030FF009B316823A3
:1018B000883120308400023085001A30FE0000306C
:1018C000FF009B31682388317E102000672C08259B
:1018D000883101306F2488318424803168282000C9
:1018E000A70021004208C30020002735CB3E860018
:1018F00001308700413F8A00403F0A008C312000C0
:1019000027082100C20008001F30E901EA013F005A
:10191000ED002100EB01EB0AEC01ED01210048088C
:101920004904031D952C64008E2C4908EA004808E0
:10193000E9006B0869052000EB0021006C086A05CE
:101940002000EC006B04031DAA2C2100EB35EC0DEC
:10195000ED0A992C21006D082000AC000330AD0188
:10196000AE00AF01CD242D0885002C0884005D3029
:1019700084079830853D003F2100E700013FE800E3
:101980008A0067080A0007308C3121006D060319B0
:10199000892C6D08E2248831892CB001B1012C1CFE
:1019A000D52C2E08B0072F08B13DAE35AF0DAD36A2
:1019B000AC0C2C082D04031DCF2C3108AD003008D1
:1019C000AC0008002000A50000308B1B0130A600F1
:1019D0008B132508A1008930A201A135A20D210792
:1019E00084009830223D8500003FA300013FA40001
:1019F000A309A40923082100C80520002408210008
:101A0000C9052000261C062D8B1708008B13080023
:101A10006400C92588310130FF259B315D23883161
:101A20009130A1009930A2003F2588313E30A100BD
:101A30009A30A2003F258831CE30A1009930A20013
:101A40003F2588318430A1009A30A2003F2588319B
:101A50002D30A1009A30A2003F258831ED25883134
:101A6000A42788311A268831EF258831A7258831A7
:101A7000E8258831E1259D31012581314729B001D3
:101A8000B201F918452D0C30462D343028009D0048
:101A90002000A401AD01AD0A2108840022088500C0
:101AA00012000319080060303002031808002108F2
:101AB0008400220885000008AE00B101B10AB2011D
:101AC000B20A2E08310503196C2D3208243E860017
:101AD00087018101810A712D3208243E8600870129
:101AE00081010930B135B20A3202031C612D280090
:101AF0001E119C0100308B1B01302000AF008B13A6
:101B0000931128001E152000B2013208243E8600E1
:101B10008701010C2200031C0D1303180D17200070
:101B20009311931D912D0A30B20A3202031C852DA8
:101B300028001E11200093112F1CA02D8B17A12D02
:101B40008B132000A10A0319A20AB00A4C2D280009
:101B50001711F91CB92D0330970417088739483835
:101B60009700FA3096000A302100E1008530950098
:101B700008001708FC3902389700170887395038D1
:101B800097008E30960001302100E10088309500EA
:101B90000800FC3021009905190887397038990030
:101BA00099171A1ED12D9A1DD32D3430F914200007
:101BB000A200F130A100A10BDB2DA20BDB2D003226
:101BC000080021001708C1391C38970017100800B9
:101BD0000230C500C601C701080000306F2C230089
:101BE0008C0109308D00A72721008C0109308D0060
:101BF00082308E0024008D01083090000800200003
:101C0000A10028001E111E08873908389E00FC30EC
:101C10009E0534309D0020002108031D122E0C303B
:101C200028009D002000931121000D138D17220024
:101C30000D1708002000C301EF01C40144083E3E17
:101C4000C52688310F392000C1000A30A1004308A1
:101C5000E12688314107C3000330C40A4402031C53
:101C60001E2E43082100AC004230C52688312100D9
:101C7000AE004330C52688312100AF004730C5266D
:101C800088312100AD002D080319582E2E080319A4
:101C9000582E10302E020318582E64302D020318CF
:101CA000582E2C080319582E2C082D0203185A2ED2
:101CB00020006F1421002E082000AC00AD0121008F
:101CC0002D082000AE00AF01CD2488312D08210061
:101CD000A50020002C082100A4002504031D762E59
:101CE00020000A306F142100A400A5014830C52649
:101CF0002000C100C201C135C20DC135C20D41086D
:101D0000B9004208BA009C31A52488312100B100F5
:101D1000053EB2004430C52688312100C10045305F
:101D2000C52688312000C5002100BF000F30BF0547
:101D30002000450E0F392100BE000F30BE053F08C0
:101D4000C0004630C52688312000C500451C6F15EF
:101D5000C5186F16451AF916C51E79156F1EB42ED3
:101D600001308331ED238831CE2688312F30230294
:101D7000873003192202031C08000130A101EE265E
:101D8000883120000030A101EE2E2000A1002300A8
:101D90009100920195131514130808000130C5260F
:101DA00088312000A600A5000030A401C52620002F
:101DB000A600A4070318A50A2508A3002408A2006A
:101DC00008002000A300A20121082318A207A135C2
:101DD000A3362308031DE42E22080800A2002300D6
:101DE00091009201200021082300930095131515FE
:101DF00000308B1B01302000A3008B1355302300D3
:101E00009600AA30960095142000230C031C8B1317
:101E100003188B17230095180A2F1511080082301C
:101E200022009700171F122F1F302000B900013029
:101E30009F31582788313A08D1003908D000220054
:101E400097130C302000B90001309F31582788319A
:101E50003A08CF003908CE00500851040319512F19
:101E60005008AD005108AE00AF01B0014E08A1000E
:101E70004F08A2002030A301A401A801A701A600D9
:101E80000C30A500552288312408B4002308B30083
:101E90002208B2002108B10065272E08CC002D08C9
:101EA000CB004F082100AB0020004E082100AA0003
:101EB00064302000B200B3014C08B5004B08B400F8
:101EC00095311D253208CD000800B501B601B701D6
:101ED000B80130082F042E042D0403199B2FB901DB
:101EE000B90AB01B782FAD35AE0DAF0DB00D702F08
:101EF000B535B60DB70DB80D30083402031D8A2F65
:101F00002F083302031D8A2F2E083202031D8A2F49
:101F10002D083102031C952F2D08B1022E08B23B6B
:101F20002F08B33B3008B43B3514B036AF0CAE0CC1
:101F3000AD0CB90B782F3808B0003708AF00360861
:101F4000AE003508AD000800C801C9010800220034
:101F50008C0140308D0004308E000800240884007D
:101F60002508850000088038AA00A901A90A2200D6
:101F70000C1320002A089223883121008C1720009E
:101F8000AB01AB0A26082B020318DD2FE4278831AA
:101F9000AA002508A8002408A7002B08270784000A
:101FA00028080318280A850000082A060319C12FEB
:101FB00022000C1721008C13003422000C17210082
:101FC0008C132000290808008030A101A200A30181
:101FD00022000C110000000022000C15000000007F
:101FE000200022088C1BA1040830A236A30A230279
:101FF000031CE82F210808002F08080043080800E8
:1020000021004108080046309C31462490314608A2
:10201000D62E00307A259031B330A1002130A200B5
:10202000CA30A3009830A400892190311F2190313B
:10203000D9009C30A1002130A2005908A107031843
:10204000A20ABC30A3009830A40089219031A121BC
:1020500090312000D2005908D300A130D401D5001E
:102060002130D60053085507D7005408563DD800F4
:10207000570886005808870052088100D420903104
:102080001F21D9009C3ED2002130D301D33D5208FC
:1020900086005308870020308100D90A59089C3EE9
:1020A000D2002130D301D33D520886005308870067
:1020B00020308100080020000030D9017A259031BD
:1020C000B330A1002130A200D730A3009830A40083
:1020D000892190311F219031DA00A5219031200013
:1020E000D900303ED2005A089C3ED3002130D401A2
:1020F000D43D5308860054088700520881005A08CE
:10210000013EA82190315A08D2009E30D301D4005C
:102110002130D50052085407D6005308553DD7004A
:1021200056088600570887003C3081005A08D200C4
:102130009F30D301D4002130D50052085407D60077
:102140005308553DD70056088600570887002030B1
:1021500081001F219031DA009C30A1002130A200C3
:102160005A08A1070318A20ABC30A3009830A400A3
:1021700089219031A12190312000D2005A08D3004A
:10218000A130D401D5002130D60053085507D7001F
:102190005408563DD8005708860058088700520852
:1021A00081001F219031D4281130C1000230C200BB
:1021B0008E31CE2690312308BF002208BE001F2199
:1021C0009031BD00C0014208B3004108B2003F0891
:1021D000B5003E08B4001D2590313208BC00413ED8
:1021E000B9003D089C3EBA002130BB01BB3D3A0816
:1021F00086003B08870039088100BD0A4208A2001A
:102200004108A1003F08A4003E08A30042259031E8
:102210002208BF002108BE001730B200B3014208F7
:10222000B5004108B4001D2590313308C2003208C2
:10223000C1000330C00A400203180800E3289C30A4
:10224000A301A1002130A2002D295230230203183E
:102250003429A30AA10A0319A20A21088600220828
:1022600087000108031D2529230808009C30200051
:10227000A1002130A200E430A3009830A4008921FD
:102280009031A630A1002130A2003530A300993052
:10229000A40089219031AB30A1002130A2003E3052
:1022A000A3009930A40089219031AB012B08DD3EB9
:1022B0008600013087000108A800A5308600213083
:1022C0008700280881002B08E53E86000130870042
:1022D0000108A800AA308600213087002808810064
:1022E0009C30A2002130A300862290310530AA0044
:1022F0000F30A900F430A800A80B7C29A90B7C2979
:10230000AA0B7C2920000830AB0A2B020318080016
:1023100056292208A6002108A500250886002608BF
:10232000870023088400240885000008C03F89082E
:1023300003190800A50A0319A60AA30A0319A40A87
:102340008D29FD270739413E080022003A08080080
:10235000A4009C3EA1002130A201A23D21088600DC
:1023600022088700303081006F1FC22924089C3E5C
:10237000A1002130A201A23D210886002208870089
:1023800031308100EF1FD02924089C3EA10021306C
:10239000A201A23D21088600220887003230810078
:1023A000F81F080024089C3E860021308701873DE5
:1023B0000108033EA10024089C3EA2002130A30195
:1023C000A33D220886002308870021088100080019
:1023D0002000D101D1015108003A0319F629013A30
:1023E0000319F629033A0319F629F6290530D00016
:1023F0000F30CF00F430CE00CE0BFC29CF0BFC29E0
:10240000D00BFC295B302000A2009930A30086226B
:1024100090310530D0000F30CF00F430CE00CE0B1D
:102420000F2ACF0B0F2AD00B0F2A22000E121530C5
:102430002000D0004B30CF00D130CE00CE0B1E2A72
:10244000CF0B1E2AD00B1E2A000022000E161530BC
:102450002000D0004B30CF00D130CE00CE0B2E2A42
:10246000CF0B2E2AD00B2E2A000020000330D10AD9
:102470005102031CEB294030A1000230A200632767
:10248000903105302000D0000F30CF00F430CE0066
:10249000CE0B482ACF0B482AD00B482A3621903140
:1024A0000530D0000F30CF00F430CE00CE0B562ACE
:1024B000CF0B562AD00B562A2100CC01552790313C
:1024C00041302000A2009930A30086229031DC30F8
:1024D000C6000530C7009426903183302000A2004A
:1024E0009930A30086229031DC30C6000530C70049
:1024F0009426903107304C060319852A4630200077
:10250000A2009A30A300862290313629A501230823
:10251000A7002208A60026088400270885001200CC
:1025200003190800803025020318080026088400DB
:10253000270885000008A62790312000A60A031965
:10254000A70AA50A8B2AE101E201E301E40189312E
:10255000D52190312408E4002308E3002208E2009A
:102560002108E1000F30CE0021002E0820004E028D
:10257000D800D901031CD903DA01D91BDA035A08A0
:10258000DB006108D8076208D93D6308DA3D6408BA
:10259000DB3DBD006308BC006208BB006108BA00F7
:1025A0008931FA21903185239031210024082000BF
:1025B000A100210025082000A200A301A4015B08BE
:1025C000A8005A08A7005908A6005808A5005E26CA
:1025D00090312208DF002108DE0021002E082000B3
:1025E000B200B3015F08B5005E08B4001D2590314C
:1025F0003208013ED60021002C02FF3E2000E00000
:1026000021002E082000A100A2015F08A4005E089E
:10261000A3004225210821002E022000D7006008D7
:10262000AC00AD01AC1BAD0321002E082000AE00B4
:10263000AF018C31CD2490312D08DD002C08DC0059
:102640005708DC070318DD0AE01F2E2B21002408A1
:102650002000DC07210025082000DD3D5D08210069
:10266000A70020005C082100A60020006108CE0021
:102670006208CF006308D0006408D100210026085A
:102680002000D200210027082000D300D401D5016A
:102690005208CE075308CF3D5408D03D5508D13DD0
:1026A00051082100A300200050082100A2002000B2
:1026B0004F082100A10020004E082100A00023089F
:1026C0008030031D6B2B20025130213B0130223B17
:1026D000031C722B8030A007AE30A13DFE30A23D1E
:1026E000FF30A33D23082000BD0021002208200068
:1026F000BC00210021082000BB0021002008200090
:10270000BA008931FA219031852B43302000B9007D
:102710000030BA00210055082000BB000230BC0088
:10272000BD01B02490313A30C500C8004630B90030
:102730000030BA00210056082000BB000230BC0067
:10274000BD01B02490314930B9000030BA002100F9
:1027500057082000BB000230BC00BD01BD0AB02CF0
:102760002000D2005B2690312000D3005226903109
:10277000013A031DBD2B0330D30052087A25903156
:10278000BE308600213087003E308100CE3086008A
:102790003E308100D83086003E308100B230860065
:1027A0002C308100BD3086002C308100C130860085
:1027B0002C308100CD3086002C308100D130860055
:1027C0002C308100C03086003C308100D030860043
:1027D0003C308100B83086002E308100C830860041
:1027E0002E308100B53086003A308100C530860039
:1027F0003A308100D930860048308100BF308600F1
:102800004E3081002200470B1D2CBF308600533014
:1028100081001D2CCF3086002130870050301B2CCA
:10282000CF308600213087004E301B2CCF30860001
:102830002130870052308100262C20005308003AB6
:1028400003190A2C013A0319102C162CB330B900C5
:102850002130BA00220043082000BB000230BC0037
:10286000BD01B0249031B630B9002130BA00220049
:1028700044082000BB000230BC00BD01B0249031F0
:10288000C230B9002130BA00220049082000BB0044
:102890000330BC00BD01B0249031C630B9002130F6
:1028A000BA0022004A082000BB000230BC00BD0173
:1028B000B0248931D52190312408BD002308BC0003
:1028C0002208BB002108BA008931FA219031D230A8
:1028D0002000B9002130BA00210055082000BB00BB
:1028E0000230BC00BD01B0249031D430B900213099
:1028F000BA00210056082000BB000230BC00BD0118
:10290000B0249031D630B9002130BA0021005708E8
:102910002000BB000230BC00BD01B0249031B930B2
:10292000C3002130C400220046082000C600220057
:1029300045082000C5000430C700C8010A269031B0
:10294000C930C3002130C40022004C082000C6005A
:1029500022004B082000C5000430C700C8010A2E21
:1029600064303B02031CB82C03303C020318CB2C10
:1029700064303B020A300318C52C3B02031CC42CF4
:1029800002303C020318CB2C0A303B02031808002B
:102990003C08031908003D0BD62C3C08BE00BF01C3
:1029A000390786003F083A3D8700810102303C022A
:1029B0000A30031CF82CBC03A1003B08052590310C
:1029C000C2000A30A1003B0862259031BB003030C4
:1029D000C2073C08BE00BF013907C0003F083A3DAE
:1029E000C100400886004108870042088100D62CBB
:1029F000A1003B080525C2003030C2073908860017
:102A00003A088700420881000800A3000830A400AB
:102A1000A5012308A2000730A236890B0C2D25350D
:102A20002204A500A33521082502031C192D210825
:102A3000A502A40B092D25080800B601B70132082C
:102A4000330403193D2DB801B80AB31B2A2DB23542
:102A5000B30D242DB635B70D33083502031D322DC5
:102A600032083402031C392D3208B4023308B53B56
:102A70003614B336B20CB80B2A2D3708B30036081B
:102A8000B20008002108220403195D2DA501A50A42
:102A9000A21B4D2DA135A20D472D22082402031D96
:102AA000532D21082302031C592D2108A3022208BB
:102AB000A43BA236A10CA50B4D2D2408A20023088F
:102AC000A1000800A200A40121080319782DA30188
:102AD000A30AA11B6D2DA135682DA4352108220262
:102AE000031C752D2108A2022414A136A30B6D2D01
:102AF000240808002000CF00E925D0015008363E08
:102B00008E31C52690312000C80050089C3EC90077
:102B10002130CA01CA3D490886004A088700480892
:102B200081000430D00A5002031C7E2DD1015108CF
:102B30003A3E8E31C52690312000C8005108C900A8
:102B4000A130CA01CB002130CC0049084B07CD0091
:102B50004A084C3DCE004D0886004E0887004808C4
:102B600081000730D10A5102031C972DA030860046
:102B7000213087003E308100AE3086003E3081003B
:102B8000A83086002C308100A93086003C308100BE
:102B9000B13086003C308100AC3086002E308100A0
:102BA000AF30860056308100B03086004230810060
:102BB0004F0BE22DAF30860042308100B0308600EE
:102BC00056308100B23086002130870020308100ED
:102BD0000800210033082000C4004530B90000304F
:102BE000BA004408BB000330BC00BD01B024AA30C9
:102BF000860021308700450881004608C300AB30BD
:102C00008600430881004708C300AD3086004308B2
:102C10008100080027304602103003194502031CCA
:102C2000152E053047020318202E2730460210309B
:102C3000031945020318080004304702031C08006A
:102C40004408BA004308B9006430B200B301460832
:102C5000B5004508B4001D2590313208BB00470877
:102C6000FE3EBC004808BD00B02490314408BA00C4
:102C70004308B9004708B9070318BA0AFE30B90774
:102C8000031CBA036430A100A2014608A400450851
:102C9000A300422590312108BB000230BC00480847
:102CA000BD00B02C21004F082000A1002100CF0161
:102CB00020002108080021005E08080024082304E1
:102CC0002204210403198B2EA901A90AA41B6D2E2D
:102CD000A135A20DA30DA40D652E24082802031D05
:102CE0007B2E23082702031D7B2E22082602031DAC
:102CF0007B2E21082502031C852E2108A50222080F
:102D0000A63B2308A73B2408A83BA436A30CA20C8F
:102D1000A10CA90B6D2E2808A4002708A3002608E3
:102D2000A2002508A100080000302100911A0130FE
:102D30002000CD004708AD004608AC001430AE00BE
:102D4000AF018C31CD2490312D08CC002C08CB0064
:102D5000CA0121009112C22E23009D1CB32E1D1208
:102D6000000023001D161908D62690312000911A64
:102D7000AC2E8530C800C80BBB2E01302000CB0222
:102D80000030CC3B20004B084C040319CC2EB62E4F
:102D900023001908D62690312000911AC82E4D0C18
:102DA0002100031C91120318911608002000C50091
:102DB000C4016E1A0800C3004330A1000030A20015
:102DC0008D313F25903124306D154506031DF92EB8
:102DD00055272000ED1621005A0886005B08870061
:102DE0002000450881002100DA0A0319DB0AFB03F1
:102DF0000800ED1E080021005A0886005B088700C5
:102E00002000450881002100DA0A0319DB0AFB03D0
:102E10002000ED1F302F2100DC035C08031D512F23
:102E20009C302000A1002130A2007B08523CA3006E
:102E3000873194279031013A031D2D2F6D167B08A1
:102E40000319282F21005A0886005B08870081019A
:102E500022003C0884311124903155278031ED281F
:102E60006D1F382F2A304506031D512FED17512FA6
:102E70004C307B06031D512F21005A0886005B0849
:102E800087009C3081012000A8002130A900AD27D7
:102E90009031013A031D4F2F6D17ED15512F552716
:102EA00090317B08031D0800552F20009C30ED1247
:102EB0006D13ED132100DA002130DB005230FB00EE
:102EC0000230DC00080023001E129F151E157A2F09
:102ED000033023009C004030782F23009C018A306F
:102EE000782F23009C014430782F23009C010C3064
:102EF0009B00982F20002208003A0319862F023ADF
:102F000003198B2F063A0319902F982F2108603A46
:102F10000319682F982F2108403A03196D2F982F15
:102F20002108803A0319712F013A0319752F982F40
:102F300005302000A5000F30A400F430A300A30B3F
:102F40009F2FA40B9F2FA50B9F2F0800A100111EE0
:102F5000A72F210823009A000800AE01AD01AE01A1
:102F60002908A2002808A1002E08AA00A930AB0158
:102F7000AA35AB0D2A07840098302B3D8500003F11
:102F8000A300013FA4009B31DF23903121082204DC
:102F9000031DD02FAD01AD0A2E082200BC00D52F95
:102FA0000630AE0A2E02031CB02F053022003C066C
:102FB000031DE12F5E302000A2009A30A30086227C
:102FC000903120002D08031DFA2F280886002908BB
:102FD0008700473041310106031DFA2F280886007B
:102FE000290887004C3042310106031DFA2F2100C9
:102FF000CF01CF0A20002D08080021004C0808004E
:1030000003340034003400340034003400345334CA
:10301000003400342334003400340B3400340034E2
:103020000034003400340034003400340034003400
:1030300000340034003400340034003400340034F0
:1030400013345B34473417344B3400342F346B342F
:103050007B342734003400341B3463341F345F3432
:1030600037347734673443342B340734573473346C
:1030700033340F343B343F347F3400346F344F34B7
:10308000003463344F343B344B3443345B342F349B
:10309000173433346B347B3427341F341B340F34F0
:1030A000373477342B345334073473343F34673434
:1030B0005F34573447340034003459341B340134FE
:1030C000BF34013402345B34083403348D340934A2
:1030D00004347F340034053453341B3406348534CF
:1030E00001340734033410340834BF340034093455
:1030F000AB3409340A34EF341C340B343D341E3401
:103100000C34033400340D34033400340E3466348C
:1031100001340134003402340034043400340834FF
:10312000003410340034203400344034003480340F
:1031300000340034013400340234003404340034E8
:103140000834003410340034203400344034003467
:1031500080340A349934FC34983403349934F53487
:103160009834EE34983411349934223427342C3482
:1031700031341E343C34963456343E34323439348F
:103180003C3454343E34363439343C3420344334C3
:1031900020340034413443345434493456344134B7
:1031A0004E3444344F3453344534203400344E3498
:1031B0004F34543449344334453420344734503444
:1031C000533420343E3400342434503441344934B0
:1031D00052343034363432342C34003424344534D0
:1031E000453453344C3466340034243447344E343C
:1031F0004734533441340034243447344E34523449
:103200004D34433400342434473450344734533439
:103210004134003424344734503452344D34433430
:10322000003424345034413449345234303400347E
:1032300007340034003400340034003408340034DF
:1032400000340134043400340934003400340234CE
:10325000083400340A340034003403340C340034AD
:10326000003480340034003440342C3430342A3478
:103270003334003401341834083424340D340A341F
:1032800000342434503441344934523430343634E8
:1032900036342C3431342C3430342C3430342C3417
:1032A00030342C3430342C3430342A3433344234F7
:1032B0000D340A3400342434503441344934523407
:1032C0003834363434342C3430342C3430342C34D8
:1032D000353437343634303430342A3432343834B8
:1032E0000D340A3400340D340A3420345534443457
:1032F00020344534523452344F3452342034213443
:103300000D340A34003424345034413449345234B6
:103310003034363437342A34333442340D340A34BA
:1033200000340D340A342D342D342D3420345234ED
:103330004534533445345434203400340D340A3485
:103340004D3453344734203445344E3444340D34F2
:103350000A3400340D340A344E346F34203470345F
:103360006F3473342E340D340A3400340D340A347F
:10337000543478345F3464346F346E3465340D34CF
:103380000A3400342D343234313434343734343464
:103390003834333436343434383400344F346334CE
:1033A00074342034303431342034323430343234D4
:1033B000363400340D340A3443344C3443344B3403
:1033C0005F3431340D340A3400340D340A3443345C
:1033D0004C3443344B345F3432340D340A340034CB
:1033E0000D340A3443344C3443344B345F34343476
:1033F0000D340A3400340D340A3443344C3443342D
:103400004B345F344C340D340A3400344734443484
:103410005F3473347434613472347434753470349A
:1034200000344734503453345F344F3446344634D8
:103430000D340A3400344734443420344F34463495
:1034400046340D340A3400344734503453345F3436
:103450004F344E340D340A340034303438343A3476
:10346000313435343A343334383400340D340A349A
:103470004D34533447343A342034003442345534D4
:1034800049344C3444343A342034003420345034F9
:1034900063346534203400345334553450340D349F
:1034A0000A3400342034413420340034203442348F
:1034B0002034003420344334203400342034503459
:1034C0002034003420344634203400344534303441
:1034D000003445343134003445343234003445341A
:1034E0003334003445343434003445343534003416
:1034F00045343634003445343734003445343834B8
:1035000000344534393400342034203400348431DC
:10351000142C8431142C8431152C8431152C8431D5
:10352000162C8431182C8431192C84312E2C8431A2
:023530001B2C52
:1036A600883198282100C301C2010800171402308E
:1036B6008C316F2C30302000980418102100111026
:1036C6002000111097019601080064000130800166
:1036D6000131FE020030FF3B7F087E0403190034EF
:1036E600692BFE0012001E000130FE020030FF3B77
:1036F6007F087E0403190034752B3C3400349C3457
:10370600213402343C34FF341E3403340A340A3480
:10371600AD34003400340034183499341E349934EE
:10372600243499342A3499343C343C340D340A34E4
:10373600003458340D340A34003420001C1187300C
:103746009C05FC309C05A0309B009A01911021003D
:10375600911422000C1405302000A3007730A2003B
:10376600D930A100A10BB52BA20BB52BA30BB52B02
:10377600000022008D100800A200B53E840098309B
:103786000318013E85000008A3000B302200D80074
:103796002000A4012408593E860001308700230832
:1037A60024078E31C5269B31810020000430A40AEF
:1037B600240203180800CD2BED2B210886002208D1
:1037C600870001080319FB2BA10A0319A20AA30A01
:1037D6000319A40A2108860022088700230884000A
:1037E6002408850000080102A50025080319E02B1E
:1037F6002508A100A201A11BA203080055341B3411
:10380600773400347534003473340034793400343A
:10381600713400347B3400346F3400346D3400343A
:10382600303431343334353436343734383439344B
:1038360045344634443442343834393436343734F3
:103846008F310F279C312100B30020006F1F342CCD
:10385600210032083302031C342C20006F13EF13AF
:103866003E2C20006F1B3E2C210033083102031C26
:103876003E2C20006F175130210033020318080038
:103886002000EF1708002000A8000030A9018B1BBC
:103896000130A7008B1323004A080319652C48083A
:1038A600A03E86000130870001082000A900230001
:1038B6002830CA03C80A48060319C8014A08031D66
:1038C600652C71242000270C031C8B1303188B17FF
:1038D60028088600870129088100080007308C31F6
:1038E600E22C90249C3121004D08003A0319852CC6
:1038F600013A0319872C033A03198A2C013A031952
:103906008D2C8F2C9031092800309331B02B01304B
:103916009331B02B90315B280800A1012108803A31
:10392600313E03189F2C21089C3E860021308701DA
:10393600873D8101A10A912CEE3086002130870057
:10394600810108000930BB01BC01BD01BE01B20006
:10395600B3013A08AD003908AC000530AE00AF013E
:103966008C31CD249C312D08B5002C08B40095313E
:103976001D259C313308C0003208BF000230BF0746
:103986000318C00A3030B200B3013A08AD00390856
:10399600AC001130AE00AF018C31CD249C312C0827
:1039A600313EB40000302D3DB50095311D259C31CA
:1039B6003308BC003208BB000730B200B3013B0835
:1039C6003F07B4003C08403DB50095311D2533083E
:1039D600BE003208BD000800C801C901F918F92C5B
:1039E6008D31C9259C318D31A7259C3101250630A5
:1039F6002000A1009A30A2008D313F2DF8018D31B3
:103A0600E8259C3122259C31791279131A259C319F
:103A1600B00143250B118B120B178B172000931047
:103A2600210093142800171502308B31B02B21008A
:103A3600B601B701B801B9010A30FC000800200040
:103A4600EE112200BD01A001A101A201A301A40162
:103A5600A501A601A7012000A1012135283E860067
:103A6600013087001E30C03F0030C13F0630A10A3A
:103A76002102031C302D1E302200B400B5010800BF
:103A860020000230EF10EF1278162100D800D9017D
:103A96003F08C0003C30DD00080091311F219D31F8
:103AA600AB00EE308600213087002B0881006530A0
:103AB600A5000130A6000430A70075259D319C3075
:103AC600A5002130A600EE308600213087000108CF
:103AD600A70075259D316A30A5000130A600033088
:103AE600A700752DAA01AA0127082A0203180800B3
:103AF6002A08A800A901250786002908263D87006F
:103B06000108003E840098300318013E8500000835
:103B16008F259D31AA0A772DA1008030A2002108A9
:103B2600A300FF30A306F91AA02D1C08FC390238A1
:103B36009C001C0887393038A72D1C08873968383F
:103B46009C001C08FC3902389C00EE309B009A0150
:103B56009110210091142000A401230822050319C5
:103B6600B72D22008C16B92D22008C122000A23609
:103B76001C151C19BC2D0830A40A240203180800C1
:103B8600B02DFD037D08031D0800DE2DF60028304C
:103B96004A060319DB2D4908A03E8600013087003E
:103BA600760881002830CA0AC90A49060319C901DC
:103BB60007301D260800E92DF915F52D0E301D26B6
:103BC6009D31F52D22008D120D12F52D2100600874
:103BD600003A0319DF2D013A0319E12D033A0319BF
:103BE600E52DF52D2000181008002100CE0A05301D
:103BF6004E02031C0800CE0104301D269D31013003
:103C06002100B6070030B73DB83DB93D39088030D0
:103C1600031D152E36025130373B0130383B031C4D
:103C260008008030B607AE30B73DFE30B83DFF30F5
:103C3600B93D0800F40000308B1B0130F5008B13F2
:103C46007408F0008930F101F035F10D7007840039
:103C56009830713D8500003FF200013FF300720885
:103C66002100C8047308C904751C3B2E8B17080075
:103C76008B130800BF262208EA002108E9000A3053
:103C8600B200B3016A08AD006908AC000F30AE009F
:103C9600AF018C31CD249E312D08B5002C08B4001F
:103CA60095311D259E313308EA003208E9000030BF
:103CB6006A021E30031969020318642E1E30E900D9
:103CC600EA019231A3229E316F1B6F1D792EA4301B
:103CD600860006308701A03E84008501403F00072C
:103CE6002100A6000131413F003DA7002000EF1F43
:103CF6008F2E6A08E6006908E5001030E535E60D06
:103D0600E7000E30E800650867022100A6002000E3
:103D16006608683B2100A7002100270820006A02E8
:103D2600031D992E21002608200069020318B12ED2
:103D3600690821002602A80020006A082100273B06
:103D4600A900F0302000A1009930A2008D313F2556
:103D56009E3105307914BB269E31B92E21002708E5
:103D6600A9002608A80005308C316F2479170800B1
:103D7600A1002100C4000800220035082000A2008E
:103D8600220034082000A1000800781ED22E21004F
:103D9600E20BCF2E0A30E200DD0BD22E7812210084
:103DA600C00BF32E2000EF1EE42E21003F08C000BA
:103DB6002000EF12EF1CF32E8B1222008E128D17AD
:103DC600F32E21003E08C0002000EF16F81DF02E4D
:103DD60022008D1305279E31F8112000EF188B164F
:103DE60001302100D8020030D93B58085904031D80
:103DF6000800781E002F0230012F3C30D800D90170
:103E0600F815080020000030D1018B1A0130CF00D0
:103E16008B1222008E12F9181B2F2A302000CD009B
:103E26008D30CC00CC0B152FCD0B152F0032292F42
:103E360002302000CE004D30CD007430CC00CC0BCB
:103E4600222FCD0B222FCE0B222F00004E279E3184
:103E5600D0004F0C031C8B1203188B1646305002F1
:103E66000318372F0130382F0030D1006F0C01397D
:103E76005106031908000310EF1C0314031C462FF8
:103E86002000EF14482F2000EF10EF1808008B12C7
:103E960022008E12080009302000B9000030582791
:103EA60021001C082000CB000800BD00FF30C8011F
:103EB600C80AC101C201C301C401C500C600103051
:103EC600C70121009E0020003D0C2100031C9E130B
:103ED60003189E1720003908BB00BB0DBB0D21003F
:103EE6001D0820003B0683393B0621009D001D145A
:103EF60042302000BB00BB0B7E2F00000C302000A0
:103F0600390603198A2F1F303906031D942F4230B4
:103F1600BB00BB0B8C2F000012302000C800C7016D
:103F2600C70AC001480840020318CE2F1A30BB004A
:103F3600BB0B9B2F000021009D14000021009D1843
:103F4600A12F1C082000CA00C90121001B0820005F
:103F5600C9070318CA0A470BC82F4A084402031D9B
:103F6600B62F490843020318BC2F4A08C400490863
:103F7600C30046084A02031DC22F4508490203181A
:103F8600C82F4A08C6004908C5004908C1074A089B
:103F9600C23DC00A952F21001D102000470BEE2FB1
:103FA60043084507BB004408463DBC00BB09BC09A5
:103FB600BB0A0319BC0A3B08B4003C08B50041081B
:103FC600B4074208B53D4808B200FE30B301B20757
:103FD600FF30B33DF52F4808B200B3014208B500E3
:103FE6004108B40095311D253308BF003208BE00D4
:0A3FF6003F08BA003E08B9000800B9
:020000040001F9
:04000E00CCEFFFDE56
:10E00000000000000000FF00FF00FF00FF00FF0015
:10E01000FF00FF00FF00FF00FF00FF00FF00FF0008
:10E02000FF00FF00FF00FF00FF00FF00FF00FF00F8
:10E03000FF00FF00FF00FF00FF00FF00FF00FF00E8
:10E04000FF00FF0015007000E0002200FF00150037
:10E050007000FA005900FF0015007000E000220077
:10E06000FF0015007000FA005800FF004400430054
:10E0700054004300300030003100310030003100E6
:10E080003900FF0006000100010028009400140080
:10E09000CF00FF00FF00FF00FF00FF00FF00FF00B8
:10E0A000FF00FF00FF00FF00FF00FF00FF00FF0078
:10E0B000FF00FF00FF00FF00FF00FF00FF00FF0068
:10E0C000FF00FF00FF00FF00FF00FF00FF00FF0058
:10E0D000FF00FF00FF00FF00FF00FF00FF00FF0048
:10E0E000FF00FF00FF00FF00FF00FF00FF00FF0038
:10E0F000FF00FF00FF00FF00FF00FF00FF00FF0028
:10E10000FF00FF00FF00FF00FF00FF00FF00FF0017
:10E11000FF00FF00FF00FF00FF00FF00FF00FF0007
:10E12000FF00FF00FF00FF00FF00FF00FF00FF00F7
:10E13000FF00FF00FF00FF00FF00FF00FF00FF00E7
:10E14000FF00FF00FF00FF00FF00FF00FF00FF00D7
:10E15000FF00FF00FF00FF00FF00FF00FF00FF00C7
:10E16000FF00FF00FF00FF00FF00FF00FF00FF00B7
:10E17000FF00FF00FF00FF00FF00FF00FF00FF00A7
:10E18000FF00FF00FF00FF00FF00FF00FF00FF0097
:10E19000FF00FF00FF00FF00FF00FF00FF00FF0087
:10E1A000FF00FF00FF00FF00FF00FF00FF00FF0077
:10E1B000FF00FF00FF00FF00FF00FF00FF00FF0067
:10E1C000FF00FF00FF00FF00FF00FF00FF00FF0057
:10E1D000FF00FF00FF00FF00FF00FF00FF00FF0047
:10E1E000FF00FF00FF00FF00FF00FF00FF00FF0037
:10E1F000FF00FF00FF00FF00FF00FF00FF00FF0027
:00000001FF
