:10000000000080316B2808007E14803123009D1C85
:1000100018281D12000023001D1618282000911E0C
:100020001B2823001908F70077089C3142248031EF
:100030002100911A0E282100911C23282000911CD8
:1000400023281C1191108B1A0B1D3D28FC0A9B3193
:10005000512380317C06031D2F2822008E120A3086
:100060007C02031C362822008E16FC01FB183C285B
:1000700020001508053E95000B112100931C5F28F8
:100080002000931C5F282100DF03FB1C4A285F0827
:10009000031D5D289C317024803105309C319424EF
:1000A00080317B1C5A2803309C31942480312800F5
:1000B00017117B100A302100DF002000931021006F
:1000C000111C69282000111C69289C313C24200047
:1000D00011107E10090020000308A0009231CF2AE1
:1000E0000230462B0B30462B0830462B0830462B6F
:1000F0000A30462B0030462B0930462B0C30462365
:100100009631A72E2000EE186E1C0800EE106E101F
:1001100021000A30CE0A4E02031C0800CE03200044
:10012000EE1A9928EE15AD209031C42080312000C0
:10013000EE1621003D082000A40021003C0820000C
:10014000A30021003B082000A20021003A08200063
:10015000A100BF2080310630462B8B318623240836
:100160002200A700200023082200A6002000220869
:100170002200A500200021082200A4000800003071
:100180008B1B0130A5008B1324082100B90020002F
:1001900023082100B800200022082100B700200019
:1001A00021082100B6007B16CD012000251CDA288D
:1001B0008B1708008B130800003090318A208031A3
:1001C00000308C3177248031640029302000E30036
:1001D0009630E200A630E100E10BEC28E20BEC28BF
:1001E000E30BEC280430DD22033090318A2080318B
:1001F00000308C3177248031640029302000E30006
:100200009630E200A630E100E10B0429E20B04295C
:10021000E30B04290230DD2280312100DC2820009C
:10022000D7017321B330A1002130A200D530A30043
:100230009830A4008A31612280318E31EE268031DF
:10024000D8009A2280312000D700303ED1005808D3
:100250009C3ED2002130D301D33D52088600530882
:100260008700510881005808013E9D225808D1009E
:100270009E30D201D3002130D40051085307D5005D
:100280005208543DD60055088600560887003C3079
:1002900081005808D1009F30D201D3002130D40012
:1002A00051085307D5005208543DD6005508860022
:1002B00056088700203081008E31EE268031D8002C
:1002C0009C30A1002130A2005808A1070318A20AFF
:1002D000BA30A3009830A4008A31612280318E3177
:1002E000EE268031B42B78228031CF014F08363E84
:1002F0005C2280312000C8004F089C3EC90021309C
:10030000CA01CA3D490886004A088700480881009A
:100310000430CF0A4F02031C7629D00150083A3E20
:100320005C2280312000C8005008C900A130CA01F9
:10033000CB002130CC0049084B07CD004A084C3D8A
:10034000CE004D0886004E0887004808810007301F
:10035000D00A5002031C8E29A0308600213087006D
:100360003E308100AE3086003E308100A8308600ED
:100370002C308100A93086003C308100B1308600ED
:100380003C308100AC3086002E308100AF308600DA
:1003900056308100B030860042308100B230860095
:1003A0002030810008002000C301EF01C40144088F
:1003B0003E3E5C220F392000C1000A30A1004308F4
:1003C0008C31452480314107C3000330C40A440204
:1003D000031CD72943082100AC0042305C22803145
:1003E0002100AE0043305C2280312100AF00473055
:1003F0005C222100AD002E082000AC00AD012100E0
:100400002D082000AE00AF019331B22380312D08BA
:100410002100A50020002C082100A40048305C2207
:1004200080312000C100C201C135C20DC135C20DED
:100430004108B9004208BA006A2380312100B100A6
:10044000053EB20044305C2280312100C1004530BD
:100450005C2280312000C5002100BF000F30BF05A5
:100460002000450E0F392100BE000F30BE053F08A9
:10047000C00046305C2280312000C500451C6F154D
:10048000C5186F16451AFB16C51E7B156F1E4B2A25
:10049000013046238031652280312F30230287309E
:1004A00003192202031C08000130A1012523803119
:1004B00020000030A101252B2000A1002300910085
:1004C0009201951315141308080001305C22803145
:1004D0002000A600A5000030A4015C222000A60098
:1004E000A4070318A50A2508A3002408A2000800F1
:1004F000210033082000C4004530B9000030BA00A4
:100500004408BB000330BC00BD019F313227AA3034
:10051000860021308700450881004608C300AB30C3
:100520008600430881004708C300AD3086004308B9
:100530008100080022003A080800A4009C3EA100A7
:100540002130A201A23D2108860022088700303018
:1005500081006F1FB72A24089C3EA1002130A20110
:10056000A23D210886002208870031308100EF1F5C
:10057000C52A24089C3EA1002130A201A23D2108E9
:1005800086002208870032308100FA1F0800240804
:100590009C3E860021308701873D0108033EA10073
:1005A00024089C3EA2002130A301A33D220886001E
:1005B000230887002108810008002000D2008F3125
:1005C00043278031D30002305C2280312000D600E6
:1005D000652280312308D5002208D4000430520659
:1005E000031DFA2A73305302031C560B0800023015
:1005F000A101252B79305302031C08005608031D66
:1006000008000230A101A10A252380312F302000EB
:100610005502863003195402031C162B0130A10128
:100620002523803120000030A101252BD40A031995
:10063000D50A5508D600A1000130252380312000BD
:100640005408D600A1000030252BA2002300910001
:100650009201200021082300930095131515003006
:100660008B1B01302000A3008B1355302300960014
:10067000AA30960095142000230C031C8B1303183A
:100680008B1723009518412B151108002000A50099
:1006900000308B1B0130A6008B132508A100893088
:1006A000A201A135A20D210784009830223D8500CA
:1006B000003FA300013FA40023082100C80420003C
:1006C00024082100C9042000261C682B8B17080071
:1006D0008B1308000930BB01BC01BD01BE01B20093
:1006E000B3013A08AD003908AC000530AE00AF01E7
:1006F0009331B22380312D08B5002C08B400953118
:10070000D62580313308C0003208BF000230BF0751
:100710000318C00A3030B200B3013A08AD003908FE
:10072000AC001130AE00AF019331B22380312C0800
:10073000313EB40000302D3DB5009531D6258031D5
:100740003308BC003208BB000730B200B3013B08DD
:100750003F07B4003C08403DB5009531D62533082D
:10076000BE003208BD0008001130C1000230C200D6
:1007700065222308BF002208BE008E31EE2680319C
:10078000BD00C0014208B3004108B2003F08B500F7
:100790003E08B4009531D62580313208BC00413E78
:1007A000B9003D089C3EBA002130BB01BB3D3A0870
:1007B00086003B08870039088100BD0A4208A20074
:1007C0004108A1003F08A4003E08A3009731D327A9
:1007D00080312208BF002108BE001730B200B301EB
:1007E0004208B5004108B4009531D6258031330860
:1007F000C2003208C1000330C00A400203180800DA
:10080000C22B9C30EE10A1002130A2002C30A3009E
:10081000192684312208A5002108A400A40A03197E
:10082000A50A24088600250887004D300106031D0F
:100830001C2C2100CA0108002508A2002408A100E0
:100840002C30A300192684312208A5002108A40019
:10085000A40A0319A50A2408860025088700333056
:100860000106031D080003302100CB002000EE1418
:1008700008009C30A1002130A2002C30A3001926D2
:1008800084312208B5002108B400B40A0319B50A5E
:100890006E102200C201C80120003508A5003408EE
:1008A000A4000230A600F72584312200BE002000FB
:1008B0003408023EA4000030353DA5000230A600F9
:1008C000F72584312200BF0020003408043EA40034
:1008D0000030353DA5000230A600F7258431220006
:1008E000C00020003508A2003408A1002C30A3006D
:1008F000192684312208B5002108B400B40A03196E
:10090000B50A340886003508870056300106031DF5
:100910008D2C2200C101C10A992C340886003508AB
:10092000870041300106031D992C2200C1012000DF
:100930006E1420003508A2003408A1002C30A3005A
:10094000192684312208B5002108B400B40A03191D
:10095000B50A34088600350887002C3001060319D3
:10096000F32C2200C201C20A20003508A500340879
:10097000A4000230A600F72584312200C300200025
:100980003408023EA4000030353DA5000230A60028
:10099000F72584312200C40020003408073EA4005B
:1009A0000030353DA5000230A600F7258431B200A5
:1009B0000230B301A6003408053EA4000030353DE6
:1009C000A500F725AC006430AD01AE00AF01933156
:1009D000B223843132082C072200C50020003308DE
:1009E0002D3D2200C60020003508A2003408A100D9
:1009F0002C30A300192684312208B5002108B40048
:100A0000B40A0319B50A2200420B1D2D2000340838
:100A10008600350887004E300106031D122D220086
:100A2000C7011D2D340886003508870053300106A4
:100A3000031D1D2D2200C701C70A20003508A20092
:100A40003408A1002C30A300192684312208B500F7
:100A50002108B400B40A0319B50A34088600350821
:100A600087002C3001060319772D2200C801C80A1F
:100A700020003508A5003408A4000330A600F7259F
:100A800084312200C90020003408033EA400003055
:100A9000353DA5000230A600F72584312200CA00AA
:100AA00020003408083EA4000030353DA500023087
:100AB000A600F7258431B2000230B301A600340845
:100AC000063EA4000030353DA500F725AC0064309B
:100AD000AD01AE00AF019331B223843132082C074F
:100AE0002200CB00200033082D3D2200CC00200046
:100AF0003508A2003408A1002C30A3001926843147
:100B00002208B5002108B400B40A0319B50A22006E
:100B1000480BA12D20003408860035088700573087
:100B20000106031D972D2200CD01CD0AA12D340809
:100B300086003508870045300106031DA12D2200DF
:100B4000CD0120003508A2003408A1002C30A300FC
:100B5000192684312208B5002108B400B40A03190B
:100B6000B50A3508A2003408A1002C30A3001926CC
:100B700084312208B5002108B400B40A0319B50A6B
:100B80003508A2003408A1002C30A30019268431B6
:100B90002208B5002108B400B40A0319B50A3508C3
:100BA000A5003408A4000230A600F72584312200F5
:100BB000D40020003408023EA4000030353DA500DA
:100BC0000230A600F72584312200D5002000340829
:100BD000043EA4000030353DA5000230A600F725F4
:100BE00084312200D60020006E1C08002F2EA9019F
:100BF000AA01AB01132E26082A020318172E2A0871
:100C0000A700A801240786002808253D87000108C1
:100C1000D03EAB000A30A10029088C314524843134
:100C20002B07A900AA0A0A302B02031CFB2D290856
:100C300008002108860022088700010803192C2ECD
:100C400021088600220887000108230603190800EE
:100C5000A10A0319A20A192EA101A201080022006B
:100C60003E082000A1000E30A201A301A401A801AA
:100C7000A701A6001030A5008C315224843124082D
:100C80002100BD00200023082100BC002000220814
:100C90002100BB00200021082100BA0022003F08EB
:100CA0002000AC003C30AD01AE00AF019331B22367
:100CB0002C082100BA0720002D082100BB3D003080
:100CC000BC3DBD3D220040082100BA070130031899
:100CD000BB070318BC070318BD070800C501C60100
:100CE000C101C201B21F922E8030C101C10AC201EE
:100CF00032062F0430043104031D872E3308A1006F
:100D0000C230A201A3009930A4008A31612AAF0940
:100D1000B009B109B209AF0A0319B00A0319B10A3F
:100D20000319B20A3208310430042F04031DD62EF1
:100D300033088600303087018100C50A0319C60ACE
:100D400045083307B4008600810108004508353E98
:100D500086000A308701A100A201A301A401320884
:100D6000A8003108A7003008A6002F08A5007E279C
:100D700086312108303E8100C50A0319C60A0A30AF
:100D8000A100A201A301A4013208A8003108A70014
:100D90003008A6002F08A500122786312408B200CB
:100DA0002308B1002208B0002108AF003208310446
:100DB00030042F04031DA62E410842040319E92E16
:100DC0004508353E86002D3087018100C50A03198C
:100DD000C60AC301C4014608803AB4008030340218
:100DE000031DF42E01304502031C0A2F2000430886
:100DF0003307B4008600FF308701C507031CC60314
:100E00004508353E8400850100088100C30A0319A6
:100E1000C40AEB2E200043083307B4008600870184
:100E200081010800AA01A41F222FA109A209A30978
:100E3000A409A10A0319A20A0319A30A0319A40AFF
:100E4000AA01AA0AA81F312FA509A609A709A8095E
:100E5000A50A0319A60A0319A70A0319A80A01304B
:100E6000AA06AB01AC01AD01AE01240823042204A3
:100E700021040319672FA901A90AA41B442FA13536
:100E8000A20DA30DA40D3C2FAB35AC0DAD0DAE0DD9
:100E900024082802031D562F23082702031D562F5E
:100EA00022082602031D562F21082502031C612F4C
:100EB0002108A5022208A63B2308A73B2408A83B3B
:100EC0002B14A436A30CA20CA10CA90B442F2A08A6
:100ED0000319752FAB09AC09AD09AE09AB0A0319AB
:100EE000AC0A0319AD0A0319AE0A2E08A4002D0896
:100EF000A3002C08A2002B08A1000800AA01A81F2B
:100F00008E2FA509A609A709A809A50A0319A60AEB
:100F10000319A70A0319A80AAA01AA0AA41F9B2F4A
:100F2000A109A209A309A409A10A0319A20A031984
:100F3000A30A0319A40A2408230422042104031980
:100F4000C82FA901A90AA41BAA2FA135A20DA30D80
:100F5000A40DA22F24082802031DB82F230827025E
:100F6000031DB82F22082602031DB82F21082502D1
:100F7000031CC22F2108A5022208A63B2308A73B79
:100F80002408A83BA436A30CA20CA10CA90BAA2FE1
:100F90002A080319D62FA509A609A709A809A50A91
:100FA0000319A60A0319A70A0319A80A2808A40006
:100FB0002708A3002608A2002508A1000800200099
:100FC000EE112200BD01A001A101A201A301A40113
:100FD000A501A601A7012000A1012135283E860018
:100FE000013087001E30C03F0030C13F0630A10AEB
:100FF0002102031CED2F1E302200B400B5010800B1
:1010040060302000A1009A30A20095314825883133
:101014007B1E18289631C72688310030210027020C
:1010240004300319260203181D28232858302100F0
:10103400A6000230A7002608FD3EA800FF30273D89
:10104400A9007B17252802309431E324883122003B
:10105400BB018E29C500C4016E1A080024306D1529
:101064004506031D4628F2212000ED1621005808EC
:101074008600590887002000450881002100D80A0D
:101084000319D90AFD030800ED1E080021005808C1
:101094008600590887002000450881002100D80AED
:1010A4000319D90AFD032000ED1F72282100DA0379
:1010B4005A08031D93289C302000A1002130A2006F
:1010C4007D08523CA30079228831013A031D6F2820
:1010D4006D1622003C0827238831F22180318228B2
:1010E4006D1F7A282A304506031D9328ED1793288F
:1010F4004C307D06031D93282100580886005908AA
:1011040087009C3081012000A6002130A700DB224B
:101114008831013A031D91286D17ED159328F221AA
:1011240088317D08031D0800F229D4202000A8007E
:101134009031C1208831033A031D0800200028089B
:10114400031DAC28003090318A208831FA1AB02867
:101154000130B128033090318A2088310230B72021
:101164009131B72104309331532B2000A100210089
:10117400B5000F30B4007A17C92822000D160800F4
:1011840022008D16080022000D128D120800350869
:10119400840005300402031808009A310435CF3E58
:1011A40082000800200018106E116D1EDC28220039
:1011B400BA01EA286D19E22802302200BA00E728B1
:1011C400ED19D9282200BA01BA0AED2088318E21FE
:1011D40022003A0808002000BE01BC01BD01BE0186
:1011E4003E29BC01FA28BC01BC0AFA280230BC0022
:1011F400BD013C089431E324883152302000A20020
:101204009930A3006A21DA30A1009930A200953107
:10121400482588311130BB003C30BA00DA30B900BF
:10122400B90B1229BA0B1229BB0B122922000E1278
:1012340009302000BB001E30BA00EB30B900B90BF6
:101244002129BA0B2129BB0B2129000022000E16EB
:1012540015302000BB004B30BA00D130B900B90BB7
:101264003129BA0B3129BB0B31290000200003308E
:10127400BE0A3E0203184A293E08003A0319F3281D
:10128400013A0319F528033A0319F828FB28FB2827
:1012940002309431E324883138302000A2009930A0
:1012A400A3006A2188311530BB004B30BA00D1301D
:1012B400B900B90B5B29BA0B5B29BB0B5B29000096
:1012C40090302000A2009930A3006A2188310F2AAF
:1012D400A5012308A7002208A600260884002708E1
:1012E4008500120003190800803025020318080045
:1012F40026088400270885000008872188312000FB
:10130400A60A0319A70AA50A6F29A100111E882994
:10131400210823009A0008002000ED01EE01F221CB
:1013240096316B2688311D162100911622000E1667
:1013340015302000AC004B30AB00D130AA00AA0B12
:10134400A129AB0BA129AC0BA1290000210001307C
:10135400CE0100228831D2218831111420001814C2
:101364006E158623883124082200A3002000230858
:101374002200A200200022082200A100200021084F
:101384002200A00005302000AC000F30AB00F43088
:10139400AA00AA0BCB29AB0BCB29AC0BCB29080099
:1013A4000030200018180130A1000030210011186D
:1013B40001302000A2001810FB1121005C08E2009B
:1013C4002000111097019601210C031C181003181A
:1013D4001814220C2100031C111003181114080006
:1013E40020009C30ED126D13ED132100D800213044
:1013F400D9005230FD000230DA0008002000A100BC
:10140400181818102100DD00B73E84009830031826
:10141400013E85000008DC0008009C30A10021305A
:10142400A200E230A3009830A40061228831A630E3
:10143400A1002130A2002C30A3009930A400612225
:101444008831AB30A1002130A2003530A30099309F
:10145400A40061228831AB012B08D03E8600013004
:1014640087000108A800A5308600213087002808DD
:1014740081002B08D83E8600013087000108A800AF
:10148400AA30860021308700280881009C30A20001
:101494002130A3006A2188310530AA000F30A90049
:1014A400F430A800A80B542AA90B542AAA0B542AD6
:1014B40020000830AB0A2B02031808002E2A220849
:1014C400A6002108A5002508860026088700230811
:1014D4008400240885000008C03F89080319080017
:1014E400A50A0319A60AA30A0319A40A652AA601D0
:1014F400A701A10A0319A20AAA01AA0A2308FD3E08
:10150400A400FF3003180030A500803A803C031D7E
:101514008D2A24082A0203189A2A2000210886000A
:10152400220887000108A606A10A0319A20A7F2A35
:101534002000AA01A10A0319A20A21088600220890
:101544008700473001022A08031CB22A283E86007D
:10155400870121088400220885000008DF39BA2A9F
:10156400283E86008701210884002208850000089F
:10157400D03E81002A08283E86000A3087010102F5
:10158400031CCE2A2A08283E86002A08283E840006
:1015940085010008F93E81000230AA0A2A02031CD0
:1015A4009C2A280EF0392904A700260603190134C1
:1015B4000034AC01AB01AC012708A2002608A1004D
:1015C4002C08A800A930A901A835A90D2807840072
:1015D4009830293D8500003FA300013FA400052366
:1015E400883121082204031DFD2AAB01AB0A2C0813
:1015F4002200BC00022B0530AC0A2C02031CDE2A9C
:1016040020002B080800132B2108860022088700DD
:1016140001080319212BA10A0319A20AA30A031919
:10162400A40A2108860022088700230884002408CD
:10163400850000080102A50025080319062B2508CA
:10164400A100A201A11BA20308002000B6004E2B9A
:101654008431392488314E302000A1009A30A20010
:101664009531482D8431012445302000A1009A3061
:10167400A2009531482D01000800EE11EE106E1005
:1016840008007B1408000310FB1F0314031C4C2BDD
:10169400FB170800FB130800360884000930040215
:1016A400031808009A310435BD3E82000800171063
:1016B4000030772404308231DD2288312100171470
:1016C40041278831033A031D6C2B05309331532392
:1016D4008831732B07309331532388319631A726F1
:1016E4008831862388312408BD002308BC002208E1
:1016F400BB002108BA00AB239731A6279E30A10076
:101704009930A2009531482D00308B1B0130200008
:10171400A9008B13210039082000A80021003808F3
:101724002000A700210037082000A6002100360869
:101734002000A500291CA02B8B17A12B8B132000A4
:101744002808A4002708A3002608A2002508A10051
:1017540008003D08C5003C08C4003B08C3003A0823
:10176400C2000E30B001AF01AE001030AD0045082C
:10177400B4004408B3004308B2004208B100062490
:1017840088312D082100D3003C302000AD00AE018B
:10179400AF01B001210053082000A100FF30A201D5
:1017A400A301A401A800A700F130A600F030A50011
:1017B4005224883121084207BE002208433DBF005D
:1017C4002308443DC0002408453DC100B40040083E
:1017D400B3003F08B2003E08B100062488312D084A
:1017E4002100D400C4302000A10021005408452465
:1017F4008831BE00F030A1002100530845243E0783
:1018040042072100D5000800B501B601B701B801AF
:1018140030082F042E042D0403193C2CB901B90AF5
:10182400B01B192CAD35AE0DAF0DB00D112CB53567
:10183400B60DB70DB80D30083402031D2B2C2F083C
:101844003302031D2B2C2E083202031D2B2C2D08D2
:101854003102031C362C2D08B1022E08B23B2F088E
:10186400B33B3008B43B3514B036AF0CAE0CAD0C02
:10187400B90B192C3808B0003708AF003608AE0091
:101884003508AD0008002000A300A2012108231898
:10189400A207A135A3362308031D482C22080800FB
:1018A400A901AA01AB01AC01211C602C2508A907E0
:1018B4002608AA3D2708AB3D2808AC3DA535A60D52
:1018C400A70DA80DA436A30CA20CA10C2408230474
:1018D40022042104031D562C2C08A4002B08A30069
:1018E4002A08A2002908A10008003F278831200007
:1018F400DC000030E0012100111801302000DD007F
:101904002100111000308B1A01302000DE008B12F0
:10191400FA13052788315C268831053020006002DF
:101924000318A62C0025883167258831013A031D48
:101934009E2C0530E0008F2C22008D142000E00A3C
:10194400FA1722008D108F2C9927883122000D154B
:1019540068302000DA00E430D900D90BAF2CDA0B60
:10196400AF2C000022000C128C162000DF015C0852
:101974005F020318CD2C3130DB00B430DA00943030
:10198400D900D90BC32CDA0BC32CDB0BC32C0032CC
:101994002000DF0AB92C7B26883122008C16F6241D
:1019A4007B302000A1009A30A2009531482588316F
:1019B4009C30A1002130A2009531482588318D301A
:1019C400A1009930A200953148258831B0275D0CDB
:1019D4002100031C11100318111420005E0C031CB9
:1019E4008B1203188B1608000C100D118D100C139C
:1019F4008C130C118C118C120C120800003001266F
:101A04008831C125883127302000A4009930A500F1
:101A14000530A6003F25883131302000A4009930DC
:101A2400A5000430A6003F2588312000AB012B0817
:101A340001268831C125883120002B355D3E860082
:101A440001308700403FA400413FA5000630A600B6
:101A54003F25883120002B083C2688315830A400CB
:101A64000130A5000530A6003F2588312000023052
:101A7400AB0A2B0203180800192D22000C132000B6
:101A8400AA012A08A700A801A71BA8032808803ACE
:101A9400A90080302902031D512D260827020318AE
:101AA400642D20002A08A700A801A71BA803240866
:101AB400270784002508283D850000081E26883154
:101AC400AA0A432D22000C17C12D0030AC01AC0A28
:101AD40001268831C125883127302000A40099309F
:101AE400A5000530A600CB258831003A031D7C2DC6
:101AF4002000AC01C125883131302000A400993088
:101B0400A5000430A600CB258831003A031D8C2D96
:101B14002000AC01C12588312000AD012D0801262B
:101B24008831C125883120002D355D3E8600013085
:101B34008700403FA400413FA5000630A600CB2506
:101B44008831003A031DA82D2000AC0120002D0887
:101B54003C2688315830A4000130A5000530A60089
:101B6400CB258831003A031DB92D2000AC0120009B
:101B74000230AD0A2D02031C902D2C080800200011
:101B84001C1522008C1520001C19C52D22008C1157
:101B94000800240884002508850000088038AA006D
:101BA400A901A90A22000C1320002A081E26883144
:101BB40021008C172000AB01AB0A26082B02031866
:101BC400FA2D27278831AA002508A8002408A70091
:101BD4002B082707840028080318280A8500000812
:101BE4002A060319DE2D22000C1721008C13003461
:101BF40022000C1721008C13200029080800200063
:101C0400A20022360139A100A10E22000C082000F6
:101C14002106EF39210622008C0020002208013918
:101C2400A100A10EA10D22000C0820002106DF391D
:101C3400210622008C000800A1008030A200A3012C
:101C440022000C1120002108220503192C2E220049
:101C54008C172E2E22008C130000000022000C157D
:101C64000000000020000830A236A30A2302031853
:101C74000800222EA200B33E840098300318013ECF
:101C840085000008A3000B302200D8002000A40126
:101C94002408593E86000130870023082407823136
:101CA4005C228831810020000430A40A2402031835
:101CB40008004A2E20001C1187309C05FC309C052E
:101CC400A0309B009A0191102100911422000C1461
:101CD40005302000A3007730A200D930A100A10B69
:101CE400712EA20B712EA30B712E000022008D10F9
:101CF4000800EE268831AB00EE30860021308700E4
:101D04002B0881006530A5000130A6000430A7002F
:101D14009F2688319C30A5002130A600EE30860035
:101D2400213087000108A7009F2688316A30A5006A
:101D34000130A6000330A7009F2EAA01AA0127089C
:101D44002A02031808002A08A800A901250786000A
:101D54002908263D87000108003E840098300318B6
:101D6400013E85000008B9268831AA0AA12EA100E7
:101D74008030A2002108A300FF30A306FB1ACA2E5C
:101D84001C08FC3902389C001C0887393038D12ED5
:101D94001C08873968389C001C08FC3902389C00F0
:101DA400EE309B009A019110210091142000A401AF
:101DB400230822050319E12E22008C16E32E2200AB
:101DC4008C122000A2361C151C19E62E0830A40A19
:101DD400240203180800DA2E9C30A301A10021304C
:101DE400A200FC2E523023020318032FA30AA10AD7
:101DF4000319A20A21088600220887000108031D8E
:101E0400F42E23080800432788312100B300200062
:101E14006F1F152F210032083302031C152F2000D9
:101E24006F13EF131F2F20006F1B1F2F2100330888
:101E34003102031C1F2F20006F1751302100330281
:101E4400031808002000EF1708008030A101A20049
:101E5400A30122000C110000000022000C15000058
:101E64000000200022088C1BA1040830A236A30A1B
:101E74002302031C2B2F210808002F080800430805
:101E84000800823022009700171F462F1F302000C1
:101E9400B90001309D31A72588313A08D1003908AD
:101EA400D000220097130C302000B90001309D317E
:101EB400A72588313A08CF003908CE0050085104CC
:101EC4000319852F5008AD005108AE00AF01B001D1
:101ED4004E08A1004F08A2002030A301A401A801CC
:101EE400A701A6000C30A500522488312408B400B0
:101EF4002308B3002208B2002108B10006242E08EA
:101F0400CC002D08CB004F082100AB0020004E0868
:101F14002100AA0064302000B200B3014C08B500CF
:101F24004B08B4009531D6253208CD000800B027FF
:101F3400883121004C08003A0319AA2F013A0319E9
:101F4400AB2F033A0319AB2F013A0319AD2FAF2F6F
:101F5400C52F9E314F2E81310F290800A101210880
:101F6400803A313E0318BF2F21089C3E8600213061
:101F74008701873D8101A10AB12FEE30860021300F
:101F8400870081010800813173218831B330A100B9
:101F94002130A200C830A3009830A4006122883107
:101FA400EE268831D3009C30A1002130A2005308D2
:101FB400A1070318A20ABA30A3009830A400612232
:101FC4008331B4238831EE26D3009C3ED1002130E6
:101FD400D201D23D5108860052088700203081008A
:101FE400D30A53089C3ED1002130D201D23D51087E
:0C1FF400860052088700203081000800A1
:10200400BC298E302000A1009A30A20048259031CE
:10201400C72690312100B001C1209031053A031D3B
:10202400080000308F209031003021002702063054
:1020340003192602031C25282608FD3EA800FF30AC
:10204400273DA9000800B721903131302000A100BC
:102054009A30A2004825903121002708A9002608BB
:10206400A80001307B178A2090310630532B7D283D
:10207400E5302000A1009930A200482590310530B8
:102084007B14532BB72190314D219031C4209031D2
:1020940021003008031D58282000EF1D5828013066
:1020A4008F20903102308A2090315D2803308A20BD
:1020B40090312000EF1121000330B00AA80006304F
:1020C400A9015323903127307B172000A1009A30B7
:1020D400A200482DFB1C70280430532BF030200044
:1020E400A1009930A200482503307B142100A800E8
:1020F400A9017B170800C1209031053A031944282F
:10210400033A03196C28013A03193A28892808006C
:102114002000A1002100CC0008002000A600260811
:10212400031DA0282030A1000230A2003E30A300ED
:102134000130A400A9202000EF1508003E30A100C2
:102144000130A2002030A3000230A400A9282108F5
:102154002204031908002308240403190800210891
:1021640086002208870020002308840024088500B4
:102174001A30A50012001E00A50BBC28080021007F
:10218400420808002000BE01BF01C001C1012200B5
:1021940023082702031DD82822082602031DD82855
:1021A40021082502031DD828200824020318FE282C
:1021B40080302000BA005130BB000130BC00043034
:1021C400BD01203E860001308700403FBA07413FF1
:1021D400BB3D423FBC3D433FBD3D3D082200A700FF
:1021E40020003C082200A60020003B082200A50095
:1021F40020003A082200A400200824022000BA008B
:1022040022002108253B2000BB0022003D35283E4A
:1022140086000130870020003A08C03F3B08C13FD8
:1022240022003D35283E8600403FB600413FB700BE
:102234002000C2014235283E860001308700403F1D
:10224400BA00413FBB003A08BE073B08BF3D00301F
:10225400C03DC13D0630C20A4202031C1C2906309F
:10226400AD00AE01AF01B0014108B4004008B300B5
:102274003F08B2003E08B1008C3106242E0822002B
:10228400B50020002D082200B4000630BD0A3D022E
:102294000318BD010800220020082000A10022002C
:1022A40021082000A200220022082000A30022000E
:1022B40023082000A400210024082000A5002100F8
:1022C40025082000A600A701A8012508A1072608C3
:1022D400A23D2708A33D2808A43D24082200A70006
:1022E400200023082200A600200022082200A500C6
:1022F400200021082200A400080057302000A1007B
:102304009A30A20048259031FB1C8A29B1229031D1
:10231400B72190310B138B13931028001711200051
:102324001C1128001E1120001810A7269031BC2172
:102334009031003A031DA62921001708C139143829
:10234400970017146300992935269031FB18AE299C
:102354001D269031FB259031023053239031833078
:102364002000A1009A30A200482D22000E12210064
:1023740091120800E3219031B000B1013008031D2F
:10238400D229B101B10A210045080319E0290B3013
:10239400C60AC7014602031CE0290330C501DF2930
:1023A400210045030319E0291F30C70AC60147026B
:1023B400031CE0290830C501C50A53232000310855
:1023C400080028001D082000AE01AF0122000E15F0
:1023D40020001C11FB18002A0430AD003C30AC0076
:1023E400AC0BF229AD0BF2290000FC3020009C0557
:1023F4001C08873908389C00FA30112A3430AD00A3
:10240400F130AC00AC0B042AAD0B042A00322000DE
:102414001C08FC3902389C0078309C047D309B00F9
:102424009A01911020302100E3001C30E4000230B6
:10243400622290318F302100E3000230E4016222F5
:10244400903121005008D1003330500603192C2A52
:10245400FA162D2AFA12A7302100E300E4019114A0
:1024640020001C153E2A0230622290312100501DAA
:102474003E2A2000AF01AF0A20002F08031D442A82
:102484001C19352A1C1121009110AD30E3000230D3
:102494006222903121005008031D532A0230622227
:1024A400903122000E118E110E1080302100500246
:1024B40003185F2A2000AE01AE0A20002E0808008F
:1024C4002000A800E330A900CF30AA0022008E1516
:1024D4000E112000AB012B08A500A601A51BA60325
:1024E4002608803AA70080302702031D7B2A28088B
:1024F400250203188C2A20002A088600870129084F
:102504008400850100088F2290318100AA0AA90A5B
:10251400AB0A6D2A22000E150800A1008030A2012A
:10252400A300A4012108230503199B2A22000E14E9
:102534009D2A22000E108E110000000022008E152C
:1025440000000000200023088E18A204A336A40A69
:102554002408803A783E031C942A22080800FB1CB5
:10256400BD2A06302000A1009A30A20048259031EF
:10257400C3229031BF2A1D269031FB252800171550
:102584000800FC302100990519088739383899006A
:1025940099131A1DCB2AFB1008005230FD009D3000
:1025A40084009B308500D6308600003087000030E0
:1025B400FF0011309B31702390318C3084009B30AC
:1025C40085005D308600013087000030FF00113047
:1025D4009B31702390317C3084009B308500D03057
:1025E4008600013087000030FF0010309B317023DB
:1025F4009031AE3084009B3085003A308600023042
:1026040087000030FF0012309B31702390319C30E2
:102614008400213085005430FE000030FF009B31DF
:1026240064239031F801F901FA01FB01FC01ED0189
:10263400EE01EF01A0308400003085003630FE004A
:102644000030FF009B31642390312030840001303E
:1026540085003D30FE000030FF009B316423903143
:10266400A0308400013085003030FE000030FF00CF
:102674009B316423903120308400023085001A306D
:10268400FE000030FF009B31642390317E10200057
:102694004B2BED239031013053239031682380314B
:1026A4006B282000A70021004208C3002000273522
:1026B4003A3E860002308700413F8A00403F0A00CC
:1026C4009331200027082100C20008001F30E901CF
:1026D400EA013F00ED002100EB01EB0AEC01ED0102
:1026E4006400210048084904031D7A2B6400732BFD
:1026F4004908EA004808E9006B0869052000EB0076
:1027040021006C086A052000EC006B04031D8F2B6C
:102714002100EB35EC0DED0A7E2B21006D08200025
:10272400AC000330AD01AE00AF01B2232D0885002B
:102734002C0884005D3084079830853D003F2100DB
:10274400E700013FE8008A0067080A000730933178
:1027540021006D0603196D2B6D08C72390316D2B75
:10276400B001B1012C1CBA2B2E08B0072F08B13DC3
:10277400AE35AF0DAD36AC0C2C082D04031DB42BB7
:102784003108AD003008AC0008002000A50000307E
:102794008B1B0130A6008B132508A1008930A201F0
:1027A400A135A20D210784009830223D8500003F09
:1027B400A300013FA400A309A40923082100C8051C
:1027C400200024082100C9052000261CEB2B8B17B0
:1027D40008008B13080064001D2690310130802608
:1027E40090319C2690316B30A1009930A20048258D
:1027F4009031CE30A1009930A20048259031B830F4
:10280400A1009A30A200482590317230A1009A307C
:10281400A200482590318D30A1009930A2004825AE
:1028240090314F26903199268131D32190317026F1
:102834009031FB2590313C2690313526903151263C
:102844009031AE2E462690312208EA002108E90094
:102854000A30B200B3016A08AD006908AC000F3059
:10286400AE00AF01B22390312D08B5002C08B4009E
:10287400D62590313308EA003208E90000306A02B4
:102884001E300319690203184A2C1E30E900EA01BC
:10289400C72690316F1B6F1D5E2CA4308600063056
:1028A4008701A03E84008501403F00072100A60067
:1028B4000131413F003DA7002000EF1F742C6A083E
:1028C400E6006908E5001030E535E60DE7000E3056
:1028D400E800650867022100A60020006608683B3E
:1028E4002100A7002100270820006A02031D7E2C76
:1028F40021002608200069020318952C690821008C
:102904002602A80020006A082100273BA900FB300A
:102914002000A1009930A2004825903105307B1495
:10292400422690319D2C21002708A9002608A800E2
:1029340005305323903169302000A1009A30A20061
:1029440048259031210026082000C70021002708CF
:102954002000C800C901CA01C42590318D30A100EE
:102964009930A200482590311130A1009A30A2007C
:10297400482590316908C7006A08C800C901CA011E
:10298400C42590318D30A1009930A20048259031A2
:10299400AA30A1009930A2004825903121002808CE
:1029A4002000C700210029082000C800C901CA016D
:1029B400C42590318D30A1009930A20048257B17A1
:1029C40008002000B80023001E129F151E15B63003
:1029D4002000A1009930A20048259031262D923084
:1029E400A1009A30A20048259031033023009C00B6
:1029F4004030132D9630A1009A30A2004825903122
:102A040023009C018A30132D8930A1009A30A20042
:102A14004825903123009C014430132D23009C0150
:102A24000C309B00342D3B30A1009A30A200482585
:102A34009031B7013808303EB6003630A10000307E
:102A4400A20048259031342D3808003A0319F12C9E
:102A5400013A0319FC2C033A0319062D013A031910
:102A6400102D152D8D302000A1009930A20048258D
:102A740090310530B5000F30B400F430B300B30B1F
:102A8400412DB40B412DB50B412D08002030A6017A
:102A9400B20128009D002000A8010130B1002108E6
:102AA4008400220885001200031908006030260201
:102AB4000318080021088400220885000008A400E7
:102AC400A701A70AB201B20A240827050319712D28
:102AD4003208283E8600013087018100762D3208B5
:102AE400283E8600870181010930A735B20A3202E7
:102AF400031C662D28001E119C0100308B1B013025
:102B04002000A5008B139311F900080E2300CC00BC
:102B1400030ECB000408CD000508CE000A08CF0040
:102B240028308400003085000A30F80095312800F0
:102B34001E151200090C2200031C0D1303180D1797
:102B440020009311931DA42DF80B9B2D23004D08F9
:102B540084004E0885004F088A004B0E83004C0EFB
:102B64008800F90E790E28001E1120009311251CEF
:102B7400BD2D8B17BE2D8B132000A10A0319A20AA9
:102B8400A60A512D4A08B2004908B1004808B0000D
:102B94004708AF004B30B30086316E2690314B307E
:102BA400A1000030A200482DB601B7013208330459
:102BB4000319F62DB801B80AB31BE32DB235B30DD2
:102BC400DD2DB635B70D33083502031DEB2D320864
:102BD4003402031CF22D3208B4023308B53B361418
:102BE400B336B20CB80BE32D3708B3003608B20085
:102BF400080028001711FB1C0D2E0330970417083A
:102C0400873948389700FA3096000A302100DE00F0
:102C14008530950008001708FC390238970017081A
:102C24008739503897008E30960001302100DE003D
:102C3400883095000800FC3021009905190887396F
:102C44007038990099171A1E252E9A1D272E343094
:102C5400FB142000A200F130A100A10B2F2EA20B27
:102C64002F2E0032080021001708C1391C389700A4
:102C74001710080002302100C500C601C701080072
:102C8400A1002100C4000800220035082000A20091
:102C9400220034082000A10008000030532B023029
:102CA400E32490316B26903122000E16153020005B
:102CB400C1004B30C000D130BF00BF0B5F2EC00B32
:102CC4005F2EC10B5F2E00008831ED2022000E1212
:102CD400080023009D171D169E16080023008C0172
:102CE40009308D00A72621008C0109308D00823027
:102CF4008E0024008D010830900008002000A100FF
:102D040028001E1187309E05FC309E0520309D0052
:102D140020002108031D912E203028009D00200052
:102D2400931121000D138D1722000D170800C801FF
:102D3400C901080030302000980418102100111037
:102D44002000111097019601080022008C014030E8
:102D54008D0004308E000800FA013C268731DF27FD
:102D640090317B127B139B315C239031B001F327AC
:102D74000B118B120B178B17200093102100931447
:102D84002800171502308231DD2AE101E201E30156
:102D9400E4018B31862390312408E4002308E30006
:102DA4002208E2002108E1000F30CE0021002E08A5
:102DB40020004E02D800D901031CD903DA01DB013B
:102DC4006108D8076208D93D6308DA3D6408DB3D31
:102DD400BD006308BC006208BB006108BA008B3107
:102DE400AB239031A627210024082000A100210054
:102DF40025082000A200A301A4015B08A8005A082A
:102E0400A7005908A6005808A5009C310624903153
:102E14002208DF002108DE0021002E082000B20075
:102E2400B3015F08B5005E08B400D62590313208BE
:102E3400013ED60021002C02FF3E2000E0002100CC
:102E44002E082000A100A2015F08A4005E08A300D0
:102E5400D3279031210821002E022000D7006008DA
:102E6400AC00AD01AC1BAD0321002E082000AE0068
:102E7400AF01B22390312D08DD002C08DC00570887
:102E8400DC070318DD0AE01F4F2F2100240820006F
:102E9400DC07210025082000DD3D5D082100A70096
:102EA40020005C082100A60020006108CE00620812
:102EB400CF006308D0006408D10021002608200058
:102EC400D200210027082000D300D401D5015208E4
:102ED400CE075308CF3D5408D03D5508D13D510885
:102EE4002100A300200050082100A20020004F0868
:102EF4002100A10020004E082100A00023088030FA
:102F0400031D8C2F20025130213B0130223B031C36
:102F1400932F8030A007AE30A13DFE30A23DFF309C
:102F2400A33D23082000BD00210022082000BC008E
:102F3400210021082000BB00210020082000BA0045
:102F44008B31AB239031A62F43302000B9000030E1
:102F5400BA00210053082000BB000230BC00BD01B0
:102F64009F31322790313A30C500C8004630B9004D
:102F74000030BA00210054082000BB000230BC001D
:102F8400BD019F3132274930B9000030BA00210019
:102F940055082000BB000230BC00BD01BD0A9F31B2
:102FA400322F210822040319EE2FA501A50AA21B22
:102FB400DE2FA135A20DD82F22082402031DE42FF1
:102FC40021082302031CEA2F2108A3022208A43BA0
:102FD400A236A10CA50BDE2F2408A2002308A10011
:102FE400080020000230EF10EF127A162100D600FC
:102FF400D7013F08C0003C30DB0008000334003434
:1030040000340034003400340034533400340034C9
:103014002334003400340B340034003400340034DE
:1030240000340034003400340034003400340034FC
:1030340000340034003400340034003413345B347E
:10304400473417344B3400342F346B347B342734F7
:10305400003400341B3463341F345F343734773422
:10306400673443342B3407345734733433340F34D4
:103074003B343F347F3400346F344F340034633492
:103084004F343B344B3443345B342F3417343334B0
:103094006B347B3427341F341B340F343734773488
:1030A4002B345334073473343F3467345F34573428
:1030B40047340034003458341B340134DC340034D5
:1030C40002347F3411340334B13412340434B4344C
:1030D4001C340534023410340634033410340734F9
:1030E400D3341B34083402340834093459340B34CF
:1030F4000A34C0341B340B34243414340C340334F5
:1031040000340D34033400340E349734083401345D
:1031140000340234003404340034083400341034ED
:10312400003420340034403400348034003400341B
:1031340001340034023400340434003408340034DC
:1031440010340034203400344034003480340834E3
:103154009934FA34983401349934F3349834EC348F
:103164009834223427342C3431341E343C3496348D
:1031740056343E34333431343C3454343E343634AF
:1031840039343C342034433420340034413443341F
:1031940054344934563441344E3444344F34533423
:1031A4004534203400344E344F3454344934433499
:1031B4004534203447345034533420343E340034BE
:1031C4002434503441344934523430343634323473
:1031D4002C34003424344534453453344C3466346C
:1031E4000034243447344E344734533441340034A7
:1031F400243447344E3452344D344334003424346C
:10320400473450344734533441340034243447343D
:10321400503452344D3443340034073400340034D1
:1032240000340034003408340034003401340434ED
:1032340000340934003400340234083400340A34CD
:103244000034003403340C3400340034803400344B
:10325400003440342C3430342A34333400340134D0
:103264001834083424340D340A34003424345034EB
:103274004134493452343034363436342C343134D5
:103284002C3430342C3431342C3431342C34313427
:103294002C3430342A34333441340D340A34003479
:1032A4002434503441344934523438343634343488
:1032B4002C3430342C3430342C34313431343534EF
:1032C4003234303430342A34313442340D340A3414
:1032D40000340D340A342D342D342D34203452343A
:1032E4004534533445345434203420344234553432
:1032F40049344C3444343A34203400340D340A34E0
:1033040020345534443420344534523452344F3408
:103314005234203421340D340A34003424345034EB
:103324004134493452343034363437342A34333423
:1033340042340D340A3400340D340A3454347834AD
:103344005F3464346F346E3465340D340A340034BD
:103354007234743463345F3461346C346134723481
:103364006D343A34203400340D340A345534413445
:10337400523454345F3443344634473420340034B4
:103384002D343234313434343734343438343334FF
:1033940036343434383400344F34633474342034A1
:1033A400303432342034323430343234363400342D
:1033B4000D340A3431343134353432343034303429
:1033C4000D340A3400340D340A3443344C34433459
:1033D4004B345F3431340D340A3400340D340A3440
:1033E40043344C3443344B345F3432340D340A3474
:1033F40000340D340A3443344C3443344B345F3496
:1034040034340D340A3400340D340A3443344C3427
:1034140043344B345F344C340D340A340034533465
:103424005F346C346F3463346B34653472343A34DF
:1034340020340034473444345F3473347434613496
:10344400723474347534703400344E346F34203430
:1034540070346F3473342E340D340A3400344734EA
:10346400503453345F344F34463446340D340A34C4
:10347400003455346E346B346E346F3477346E34B8
:103484003A34203400340D340A342034673473342D
:1034940061340D340A3400340D340A342034723467
:1034A4006D3463340D340A340034473444342034E6
:1034B4004F34463446340D340A34003447345034DF
:1034C40053345F344F344E340D340A34003453349F
:1034D4005F3432345F34743478343A342034003412
:1034E400303437343A34343436343A34303434348F
:1034F40000340D340A344D34533447343A342034D0
:1035040000345334553450340D340A3400345534B3
:1035140031343134353400342034463420340034EA
:103524005534393436340034553435343734003472
:103534004534303400344534313400344534323485
:1035440000344534333400344534343400344534A1
:10355400353400344534363400344534373400349B
:10356400453438340034453439340034203420347C
:1035740000342E3400348B312A2B8B312A2B8B319F
:10358400342B8B31342B8B313D2B8B313F2B8B31B7
:10359400432B8B31582B8B31452B8831BF288831F5
:0E35A400C2288831BF288831C2288831C52846
:1036A2002100410808002100C301C20108001714CB
:1036B20002309331532B2100B601B701B801B90191
:1036C2000A30DF0008006400013080010131FE028F
:1036D2000030FF3B7F087E0403190034652BFE0097
:1036E20012001E000130FE020030FF3B7F087E0404
:1036F20003190034712B30343134333435343634D9
:103702003734383439344534463444344234383426
:103712003934363437340F349934153499341B34F0
:103722009934213499343C343C340D340A34003415
:1037320058340D340A3400343C3400349C3421347F
:1037420002343C341E3403340A340A340A340A3450
:103752001E34AD3400340034003454341B347A3413
:10376200003478340034763400347C3400347434D9
:1037720000347E3400347234003470340034C801B2
:10378200C901FB18CA2B96311D269B319531FB25A9
:103792009B319631AE261C302000A1009A30A20047
:1037A2009531482D2130D823210888312C2820003A
:1037B200A8000030A9018B1B0130A7008B13230046
:1037C2004A080319F72B4808A03E860001308700FB
:1037D20001082000A90023002830CA03C80A4806AD
:1037E2000319C8014A08031DF72B03242000270CE4
:1037F200031C8B1303188B172808860087012908DE
:103802008100080007309331C72B240823042204C7
:1038120021040319332CA901A90AA41B152CA135D3
:10382200A20DA30DA40D0D2C24082802031D232C88
:1038320023082702031D232C22082602031D232C02
:1038420021082502031C2D2C2108A5022208A63BD3
:103852002308A73B2408A83BA436A30CA20CA10C66
:10386200A90B152C2808A4002708A3002608A200EB
:103872002508A10008002100E2036208031D0800D8
:10388200572CF60028304A060319542C4908A03E4A
:10389200860001308700760881002830CA0AC90AEA
:1038A20049060319C901073094240800622CFB154C
:1038B2006D2C0E3094249C316D2C22008D120D1231
:1038C2006D2C5D08003A0319582C013A03195A2C41
:1038D200033A03195E2C6D2C200018100800CD0A43
:1038E20005304D02031C0800CD01043094249C31A4
:1038F20001302100B6070030B73DB83DB93D390867
:103902008030031D8C2C36025130373B0130383B5E
:10391200031C08008030B607AE30B73DFE30B83D1C
:10392200FF30B93D0800F40000308B1B0130F50078
:103932008B137408F0008930F101F035F10D700736
:1039420084009830713D8500003FF200013FF30092
:1039520072082100C8047308C904751CB22C8B17A5
:1039620008008B1308007B1FE52C0130A8020030F1
:10397200A93BBB302000A1009A30A2009531482516
:103982009C312100E10BDC2C8D302000A10099300C
:10399200A200953148259C310A302100E100280817
:1039A2002000C700210029082000C800C901CA015F
:1039B2009531C4259C31210028082904031DE52CDA
:1039C2007B13903139209C317A1FE92CEC249C31F5
:1039D2007B1D0800172D2100B40BF72C7A1322004F
:1039E2000D128D1204302100B50008000230350698
:1039F200031D072D031022000D1E0314031C042DAA
:103A020022000D16080022000D12080003303506B0
:103A1200031D0800031022008D1E0314031C142D25
:103A220022008D16080022008D1208007A1E212D18
:103A32002100E00B1E2D0A30E000DB0B212D7A1253
:103A42002100C00B422D2000EF1E332D21003F0824
:103A5200C0002000EF12EF1C422D8B1222008E12AA
:103A62008D17422D21003E08C0002000EF16FA1DDE
:103A72003F2D22008D1354259C31FA112000EF189E
:103A82008B1601302100D6020030D73B560857046E
:103A9200031D08007A1E4F2D0230502D3C30D600F7
:103AA200D701FA15080020000030D1018B1A01302D
:103AB200CF008B1222008E12FB186A2D2A302000B2
:103AC200CD008D30CC00CC0B642DCD0B642D00329B
:103AD200782D02302000CE004D30CD007430CC0065
:103AE200CC0B712DCD0B712DCE0B712D00009D25B0
:103AF2009C31D0004F0C031C8B1203188B164630DE
:103B020050020318862D0130872D0030D1006F0C32
:103B120001395106031908000310EF1C0314031C9A
:103B2200952D2000EF14972D2000EF10EF180800BC
:103B32008B1222008E12080009302000B9000030DA
:103B4200A72521001C082000CB000800BD00FF3083
:103B5200C801C80AC101C201C301C401C500C6002F
:103B62006030C70121009E0020003D0C2100031C93
:103B72009E1303189E1720003908BB00BB0DBB0D16
:103B820021001D0820003B0683393B0621009D00D1
:103B92001D1442302000BB00BB0BCD2D00000C30A9
:103BA200200039060319D92D1F303906031DE32DD4
:103BB2004230BB00BB0BDB2D000012302000C800DE
:103BC200C701C70AC0014808400203181D2E1A3057
:103BD200BB00BB0BEA2D000021009D140000210058
:103BE2009D18F02D1C082000CA00C90121001B08E5
:103BF2002000C9070318CA0A470B172E4A084402B5
:103C0200031D052E4908430203180B2E4A08C4005F
:103C12004908C30046084A02031D112E45084902FD
:103C22000318172E4A08C6004908C5004908C107EB
:103C32004A08C23DC00AE42D21001D102000470B96
:103C42003D2E43084507BB004408463DBC00BB0966
:103C5200BC09BB0A0319BC0A3B08B4003C08B50006
:103C62004108B4074208B53D4808B200FE30B3012E
:103C7200B207FF30B33D442E4808B200B3014208F8
:103C8200B5004108B4009531D6253308BF0032088B
:103C9200BE003F08BA003E08B90008008131732116
:103CA2009E31BE308600213087003E308100CE300A
:103CB20086003E308100D83086003E308100B2302E
:103CC20086002C308100BD3086002C308100C1304E
:103CD20086002C308100CD3086002C308100D1301E
:103CE20086002C308100C03086003C308100D0300C
:103CF20086003C308100B83086002E308100C8300A
:103D020086002E308100B53086003A308100C53001
:103D120086003A308100D930860048308100BF30B9
:103D220086004E3081002200470B9B2EBF3086005A
:103D320053308100CF30860021308700453081002A
:103D42004D0BA72ECF30860057308100B3302000B4
:103D5200B9002130BA00220043082000BB00023023
:103D6200BC00BD0132279E31B630B9002130BA0005
:103D7200220044082000BB000230BC00BD013227F3
:103D82009E31C230B9002130BA0022004908200019
:103D9200BB000330BC00BD0132279E31C630B900E2
:103DA2002130BA0022004A082000BB000230BC00C9
:103DB200BD0132278B3186239E312408BD002308A2
:103DC200BC002208BB002108BA008B31AB239E3114
:103DD200D2302000B9002130BA002100530820005F
:103DE200BB000230BC00BD0132279E31D430B90085
:103DF2002130BA00210054082000BB000230BC0070
:103E0200BD0132279E31D630B9002130BA002100DF
:103E120055082000BB000230BC00BD0132279E3194
:103E2200B930C3002130C400220046082000C60079
:103E3200220045082000C5000430C700C801B7278A
:103E42009E31C930C3002130C40022004C0820003A
:103E5200C60022004B082000C5000430C700C8017C
:103E6200B72F64303B02031C3A2F03303C02031885
:103E72004D2F64303B020A300318472F3B02031CCC
:103E8200462F02303C0203184D2F0A303B02031822
:103E920008003C08031908003D0B582F3C08BE00DF
:103EA200BF01390786003F083A3D87008101023091
:103EB2003C020A30031C7A2FBC03A1003B0887276F
:103EC2009E31C2000A30A1003B089F279E31BB00F1
:103ED2003030C2073C08BE00BF013907C0003F08AE
:103EE2003A3DC1004008860041088700420881002F
:103EF200582FA1003B088727C2003030C20739087B
:103F020086003A088700420881000800A3000830B2
:103F1200A400A5012308A2000730A236890B8E2F28
:103F220025352204A500A33521082502031C9B2F59
:103F32002108A502A40B8B2F25080800A200A401CA
:103F420021080319B52FA301A30AA11BAA2FA1358A
:103F5200A52FA43521082202031CB22F2108A20298
:103F62002414A136A30BAA2F2408080027304602E6
:103F7200103003194502031CC22F053047020318F3
:103F8200CD2F2730460210300319450203180800CE
:103F920004304702031C08004408BA004308B90071
:103FA2006430B200B3014608B5004508B40095314B
:103FB200D6259E313208BB004708FE3EBC004808A9
:103FC200BD0032274408BA004308B9004708B907C0
:103FD2000318BA0AFE30B907031CBA036430A10001
:103FE200A2014608A4004508A3009731D3279E31B9
:0E3FF2002108BB000230BC004808BD00322F81
:020000040001F9
:04000E00CCEFFFDE56
:10E00000000000000000FF00FF00FF00FF00FF0015
:10E01000FF00FF00FF00FF00FF00FF00FF00FF0008
:10E02000FF00FF00FF00FF00FF00FF00FF00FF00F8
:10E03000FF00FF00FF00FF00FF00FF00FF00FF00E8
:10E04000FF00FF0015007000E0002200FF00150037
:10E050007000FA005900FF0015007000E000220077
:10E06000FF0015007000FA005800FF004400430054
:10E0700054004300300030003100310030003000E7
:10E080003200FF0006000100010028009400140087
:10E09000CF00FF00FF00FF00FF00FF00FF00FF00B8
:10E0A000FF00FF00FF00FF00FF00FF00FF00FF0078
:10E0B000FF00FF00FF00FF00FF00FF00FF00FF0068
:10E0C000FF00FF00FF00FF00FF00FF00FF00FF0058
:10E0D000FF00FF00FF00FF00FF00FF00FF00FF0048
:10E0E000FF00FF00FF00FF00FF00FF00FF00FF0038
:10E0F000FF00FF00FF00FF00FF00FF00FF00FF0028
:10E10000FF00FF00FF00FF00FF00FF00FF00FF0017
:10E11000FF00FF00FF00FF00FF00FF00FF00FF0007
:10E12000FF00FF00FF00FF00FF00FF00FF00FF00F7
:10E13000FF00FF00FF00FF00FF00FF00FF00FF00E7
:10E14000FF00FF00FF00FF00FF00FF00FF00FF00D7
:10E15000FF00FF00FF00FF00FF00FF00FF00FF00C7
:10E16000FF00FF00FF00FF00FF00FF00FF00FF00B7
:10E17000FF00FF00FF00FF00FF00FF00FF00FF00A7
:10E18000FF00FF00FF00FF00FF00FF00FF00FF0097
:10E19000FF00FF00FF00FF00FF00FF00FF00FF0087
:10E1A000FF00FF00FF00FF00FF00FF00FF00FF0077
:10E1B000FF00FF00FF00FF00FF00FF00FF00FF0067
:10E1C000FF00FF00FF00FF00FF00FF00FF00FF0057
:10E1D000FF00FF00FF00FF00FF00FF00FF00FF0047
:10E1E000FF00FF00FF00FF00FF00FF00FF00FF0037
:10E1F000FF00FF00FF00FF00FF00FF00FF00FF0027
:00000001FF
