:1000000000008031682808007E14803123009D1C88
:1000100018281D12000023001D1618282000911E0C
:100020001B2823001908F70077089D3159258031D6
:100030002100911A0E282100911C23282000911CD8
:1000400023281C1191108B1A0B1D3D28F90A9C3195
:10005000CC2480317906031D2F2822008E120A300D
:100060007902031C362822008E16F901F8183C2864
:1000700020001508053E95000B112100931C5D28FA
:100080002000931C5D28FC03F81C49287C08031DF4
:100090005B289D318725803105309D31AB2580312E
:1000A000781C592803309D31AB2580312800171169
:1000B00078100A30FC00200093102100111C6628E3
:1000C0002000111C66289D31542511107E10090056
:1000D00020000308A0008A31802A3F2C781F7C284A
:1000E00001302100A8020030A93B28082904031D83
:1000F0007C287813C723803120006C1F812884203E
:100100008031781D0800712F2100B40B9028200049
:100110006C1322000D128D1204302100B50008006E
:1001200002303506031DA028031022000D1E031403
:10013000031C9D2822000D16080022000D12080045
:1001400003303506031D0800031022008D1E031422
:10015000031CAD2822008D16080022008D12080015
:10016000781EBC285F268031003027020430031936
:1001700026020318C128C72858302100A6000230E3
:10018000A7002608FD3EA800FF30273DA9007817EC
:10019000662F00300524803120006C1BD3282200FC
:1001A0008D160D12D62822000D168D120310200078
:1001B0006C1F0314031CDF2820006C17E1282000AB
:1001C0006C130030E720803164002000C9287F23B1
:1001D00080312000DC000030E001210011180130E6
:1001E0002000DD002100111000308B1A01302000AA
:1001F000DE008B12EC1344238031B72280310530AE
:10020000200060020318162952218031B921803163
:10021000013A031D0E290530E000FF2822008D144D
:100220002000E00AEC1722008D10FF2890311D20DD
:10023000803122000D150D302000DA00FB30D9008E
:10024000D90B2029DA0B2029003222000C128C163F
:100250002000DF015C085F0203183E290630DB0046
:100260001330DA00B130D900D90B3429DA0B342934
:10027000DB0B342900322000DF0A2A29D222803108
:1002800022008C16AD229731EA275D0C2100031C59
:1002900011100318111420005E0C031C8B1203189C
:1002A0008B160800003053228031132280314930F0
:1002B0002000A4009930A5000530A60091218031CE
:1002C00053302000A4009930A5000430A6009121ED
:1002D00080312000AB012B08532280311322803162
:1002E00020002B35583E860001308700403FA40097
:1002F000413FA5000630A6009121803120002B0847
:100300008E228031CE30A4000030A5000530A6003A
:100310009121803120000230AB0A2B020318080023
:100320006B2922000C132000AA012A08A700A801AB
:10033000A71BA8032808803AA90080302902031DC2
:10034000A329260827020318B62920002A08A70097
:10035000A801A71BA8032408270784002508283D17
:100360008500000870228031AA0A952922000C1706
:10037000132A0030AC01AC0A5322803113228031A1
:1003800049302000A4009930A5000530A6001D22A8
:100390008031003A031DCE292000AC0113228031A8
:1003A00053302000A4009930A5000430A6001D227F
:1003B0008031003A031DDE292000AC011322803178
:1003C0002000AD012D0853228031132280312000FE
:1003D0002D35583E860001308700403FA400413F44
:1003E000A5000630A6001D228031003A031DFA291F
:1003F0002000AC0120002D088E228031CE30A400D8
:100400000030A5000530A6001D228031003A031DF2
:100410000B2A2000AC0120000230AD0A2D02031C83
:10042000E2292C08080020001C1522008C15200051
:100430001C19172A22008C110800240884002508A2
:10044000850000088038AA00A901A90A22000C131F
:1004500020002A087022803121008C172000AB0177
:10046000AB0A26082B0203184C2A67238031AA0006
:100470002508A8002408A7002B08270784002808BF
:100480000318280A850000082A060319302A2200CA
:100490000C1721008C13003422000C1721008C1340
:1004A0002000290808002000A20022360139A100FE
:1004B000A10E22000C0820002106EF39210622009F
:1004C0008C00200022080139A100A10EA10D2200FC
:1004D0000C0820002106DF39210622008C000800CC
:1004E000A1008030A200A30122000C1120002108ED
:1004F000220503197E2A22008C17802A22008C13E1
:100500000000000022000C15000000002000083050
:10051000A236A30A230203180800742AA200D53EBB
:10052000840098300318013E85000008A3000B30BA
:100530002100CE002000A4012408CF3E86008701C0
:10054000230824078C318C24803181002000043062
:10055000A40A2402031808009C2A0C100D118D1007
:100560000C138C130C118C118C120C12080020002F
:100570001C1187309C05FC309C0514309B009A01AF
:1005800091102100911422000C148F302000A20041
:10059000DA30A100A10BCA2AA20BCA2A000022004D
:1005A0008D1008009131EA218031AB00EE308600D9
:1005B000213087002B088100E230A5000030A60022
:1005C0000430A700F72280319C30A5002130A6001E
:1005D000EE308600213087000108A700F722803125
:1005E000E730A5000030A6000330A700F72AAA01D3
:1005F000AA0127082A02031808002A08A800A9014E
:10060000250786002908263D87000108003E840052
:1006100098300318013E8500000811238031AA0A92
:10062000F92AA1008030A2002108A300FF30A30610
:10063000F81A202BFC309C051C0887396838272BBA
:100640001C08873930389C001C08FC3901389C0094
:10065000EE309B009A019110210091142000A4011A
:10066000230822050319372B22008C16392B220070
:100670008C122000A2361C151C193C2B0830A40A31
:10068000240203180800302B8C31FA248031210019
:10069000B30020006D1F552B210032083302031CCC
:1006A000552B20006D13ED135F2B20006D1B5F2B6E
:1006B000210033083102031C5F2B20006D175130DD
:1006C00021003302031808002000ED1708008030D5
:1006D000A101A200A30122000C11000000002200D1
:1006E0000C1500000000200022088C1BA10408301B
:1006F000A236A30A2302031C6B2B21080800210049
:100700002F0808005F268031B0010A248031053AA5
:10071000031D080000304C258031003021002702E5
:10072000063003192602031C9C2B2608FD3EA80058
:10073000FF30273DA90008003A2480312708A9008E
:100740002608A80001307817052406308A31FD2AD2
:100750009D2580312000A8000A248031033A031D22
:10076000080020002808031DBD2B0030052480311F
:100770002000EC1AC02B0130C12B0330052480313E
:1007800002307E2580313A2404308A31FD2AF82B4C
:10079000053078148A31FD2A3A248031B725973103
:1007A0000327803121003008031DE02B2000ED1DC0
:1007B000E02B01304C258031023005248031E42BC0
:1007C000033005242000ED1121000330B00AA800F9
:1007D0000630A9018A31FD2278170800F81CF32B96
:1007E00004308A31FD2A03307814A800A901EC2BCB
:1007F0000A248031053A0319CC2B033A0319EE2B56
:10080000013A0319C82B042C08002000A100210084
:10081000CC000800210042080800F81C112C3325E8
:1008200080313A240B138B139310280017112000EA
:100830001C1128001E11200018108F31472780310D
:100840003F248031003A031D2D2C21001708C139A7
:100850001438970017146300202C8B31E423803167
:10086000F818372C8B31CD2380318B31A9230230FE
:100870008A31FD2A22000E122100911208006724FD
:100880008031B000B1013008031D552CB101B10A0F
:10089000210045080319642C0B30C60AC701460223
:1008A000031C642C0330C501622C2100450303198D
:1008B000642C1F30C70AC6014702031C642C083091
:1008C000C501C50A8A31FD22200031080800280030
:1008D0001D082000AE01AF0122000E1520001C11E2
:1008E000F818832C0430AD003D30AC00AC0B762CF6
:1008F000AD0B762C0032FC3020009C051C0887399B
:1009000008389C00902C0730AD007D30AC00AC0B5B
:10091000872CAD0B872CFC3020009C0578309C0484
:10092000FA309B009A01911020302100EB001C301E
:10093000EC000230E42480318F302100EB000230E3
:10094000EC01E424803121005408D50033305406F2
:100950000319AD2C2000EC16AF2C2000EC12A730B0
:100960002100EB00EC01911420001C15C02C02307A
:10097000E42480312100541DC02C2000AF01AF0AB7
:1009800020002F08031DC62C1C19B72C1C11210098
:100990009110AD30EB000230E42480312100540886
:1009A000031DD52C0230E424803122000E118E115B
:1009B0000E108030210054020318E12C2000AE01FB
:1009C000AE0A20002E0808002000A800EB30A90085
:1009D000D330AA0022008E150E112000AB012B0887
:1009E000A500A601A51BA6032608803AA700803013
:1009F0002702031DFD2C2808250203180E2D2000B8
:100A00002A0886008701290884008501000811252D
:100A100080318100AA0AA90AAB0AEF2C22000E1528
:100A20000800A1008030A201A300A4012108230531
:100A300003191D2D22000E141F2D22000E108E11E1
:100A40000000000022008E15000000002000230896
:100A50008E18A204A336A40A2408803A783E031C08
:100A6000162D22080800F81C382D402580313B2D1A
:100A70008B31CD2380318B31A92328001715080035
:100A8000FC302100990519088739383899009913E5
:100A90001A1D482DF81008002000A6002608031D86
:100AA0005D2D2030A1000230A2003E30A3000130B5
:100AB000A40066252000ED1508003E30A10001309D
:100AC000A2002030A3000230A400662D21082204D9
:100AD00003190800230824040319080021088600CC
:100AE00022088700200023088400240885001A308B
:100AF000A50012001E00A50B792D08002000A10002
:100B00002100B5000F30B40020006C17912D220099
:100B10000D16080022008D16080022000D128D12FD
:100B2000080021003508840005300402031808007D
:100B300099310435CD3E8200080018106B116A1EF1
:100B4000A42D2200BA01B42D6A19AA2D0230220068
:100B5000BA00AF2DEA19A12D2200BA01BA0A9331C9
:100B60004E2380319031BB2022003A080800220039
:100B700020082000A100220021082000A20022005D
:100B800022082000A300220023082000A400210046
:100B900024082000A500210025082000A600A701A8
:100BA000A8012508A1072608A23D2708A33D28087B
:100BB000A43D24082200A700200023082200A6004C
:100BC000200022082200A500200021082200A40005
:100BD00008005D272208D5002108D4000A30B200A1
:100BE000B3015508AD005408AC000F30AE00AF01A2
:100BF0008B31582380312D08B5002C08B4008D317D
:100C0000EA2580313308D5003208D400003055027F
:100C10001E30031954020318102E1E30D400D501C3
:100C20005F26803120006D1B6D1D252EA4308600AF
:100C300006308701A03E84008501403F0007210067
:100C4000A6000131413F003DA7002000ED1F3B2ED3
:100C50005508D1005408D0001030D035D10DD20045
:100C60000E30D300500852022100A6002000510887
:100C7000533B2100A7002100270820005502031D37
:100C8000452E21002608200054020318552E540832
:100C900021002602A800200055082100273BA900BA
:100CA00005307814582780315D2E21002708A900CF
:100CB0002608A80005308A31FD2278170800CB01EC
:100CC000CC01CD01CE019331F52380312408CE0033
:100CD0002308CD002208CC002108CB000F30B9003A
:100CE00021002E0820003902C300C401031CC403E4
:100CF000C501C6014B08C3074C08C43D4D08C53D9E
:100D00004E08C63D210024082000A100210025082E
:100D10002000A200A301A4014608A8004508A700DE
:100D20004408A6004308A50022272208CA0021087B
:100D3000C90021002E082000B200B3014A08B50006
:100D40004908B4008D31EA2580313208013EC100E6
:100D500021002C02FF3E2000CF0021002E082000A1
:100D6000A100A2014A08A4004908A3009231CA22A6
:100D70008031210821002E022000C2004F08AC0063
:100D8000AD01AC1BAD0321002E082000AE00AF0169
:100D90008B31582380312D08C8002C08C700420829
:100DA000C7070318C80ACF1FDD2E21002408200022
:100DB000C707210025082000C83D48082100A700DA
:100DC000200047082100A60020004B08B9004C086D
:100DD000BA004D08BB004E08BC00210026082000C8
:100DE000BD00210027082000BE00BF01C0013D0852
:100DF000B9073E08BA3D3F08BB3D4008BC3D3C0832
:100E00002100A30020003B082100A20020003A0896
:100E10002100A100200039082100A0002308803013
:100E2000031D1A2F20025130213B0130223B031CAD
:100E300008008030A007AE30A13DFE30A23DFF305B
:100E4000A33D0800240823042204210403194F2F82
:100E5000A901A90AA41B312FA135A20DA30DA40D30
:100E6000292F24082802031D3F2F23082702031DD2
:100E70003F2F22082602031D3F2F21082502031CB5
:100E8000492F2108A5022208A63B2308A73B2408D6
:100E9000A83BA436A30CA20CA10CA90B312F280847
:100EA000A4002708A3002608A2002508A100080026
:100EB0002000A1002100C400080022003508200005
:100EC000A200220034082000A100080060302000A9
:100ED000A100A2018F31BF2780312200BB019031D8
:100EE000BB2820006C1E792F2100DF0B792F2000FA
:100EF0006C122100C00B972F2000ED1E8A2F2100BD
:100F00003F08C0002000ED12ED1C972F8B1222002D
:100F10008E12972F21003E08C0002000ED16EC1D18
:100F2000952FAC2780312000EC11ED188B16013085
:100F30002100DA020030DB3B5A085B04031D080085
:100F400020006C1EA52F0230A62F3C302100DA00B5
:100F5000DB012000EC1508000030D0018B1A0130B5
:100F6000CE008B1222008E12F818C12F06302000FE
:100F7000CD003030CC00CC0BBB2FCD0BBB2F0000F5
:100F8000CB2F2A302000CD008D30CC00CC0BC62FCB
:100F9000CD0BC62F00328E314B268031CF004E0C48
:100FA000031C8B1203188B1646304F020318DA2FDE
:100FB0000130DB2F0030D0006D0C013950060319D1
:100FC00008000310ED1C0314031CE92F2000ED148E
:100FD000EB2F2000ED10ED1808008B1222008E126E
:100FE0000800FE0012001E000130FE020030FF3B30
:100FF0007F087E0403190034F22F02308C31B52CA7
:101002000C30B5248831472F2100C801C901F818D6
:101012000E28CD238831A92388314D2F21001710A6
:1010220000308031E72088310430392288312100B4
:101032001714FE278831033A031D21280530FD2AA3
:101042000730FD228831472F0330D101D0018121A1
:1010520088311C15053076218831162288315828AE
:1010620037268831013A031D5628D00A1A228831C0
:10107200CF0016228831452802304328D101D10AF7
:1010820050280330D10050284F086E3A03194228E5
:101092001C3A03193D28053A03193F2850285108E4
:1010A20003195828EB21883158280430D100200038
:1010B2005108031D602805305002031C31285108D5
:1010C2000800942688315A30512188310230D600E6
:1010D2000430D500BA30D400D40B6D28D50B6D285E
:1010E200D60B6D2800000330E02088310030082242
:1010F2008831EB218831111420001814CA282330BA
:10110200CE218831013A031DD9282330BA218831F2
:10111200003A031DD928DC2688310030E0208831CE
:101122000100D9280430CE218831013A031DD92883
:101132000430BA218831003A031DD9289C2688310F
:10114200013A031DC228D70157089C3E8600213070
:101152008701873D0108A1005708A13E840098300D
:101162000318013E85000008D9248831200003308D
:10117200D70A5702031CA5280130E020883101005C
:10118200D9280230E0208831D9280030E020883187
:10119200D92825208831013A03198028033A0319F6
:1011A200C628013A03199328073A0319D928D928DE
:1011B200200018102100111020001C11080020002E
:1011C200A6000030A701A901812188311C15143025
:1011D200762188310130812188314129A8012808EE
:1011E200893E840098300318013E850000088C2453
:1011F20088312000A900A706512188312230A80A8F
:10120200280203184F29F028A8012808A13E8400CB
:1012120098300318013E850000088C248831200094
:10122200A900A706512188310330A80A2802031811
:101232004F2906296530A70651218831A93084003B
:101242009830850000088C2488312000A900A70668
:10125200512188315530A706512188314F29A801E3
:101262002808683E8600013087000108A900A70609
:10127200512188310630A80A280203184F29312942
:101282002608003A0319EF28013A03190529033AFF
:1012920003191B29013A031930294F29270851291B
:1012A200A4001C119A0191101C1522008E16063002
:1012B20076218831A5012408A300250A6129A336D5
:1012C200890B60292318682922008E166A292200B8
:1012D2008E120630762188310830A50A2502031CB9
:1012E2005C2922008E12063076292000A100A2007D
:1012F200220803190800911C7C29A2039110792964
:10130200A10016228831AB291C08FC3901389C0047
:101312001C08873970389C00FA309B0008001C08B2
:10132200FC3901389C0087309C058D291C08FC394A
:1013320001389C007D309B0087309C0508001C080A
:10134200FC3901389C0060309B001C088739383812
:101352009C0008002108003A03198529013A031963
:101362009029033A03199729013A0319A029B929A7
:101372000800A100A301A201A3012108230203186E
:10138200CC2923089C3E860021308701873D010835
:10139200A206A30ABE2922080800D200D301D30163
:1013A200520853020318013437268831013A031DCB
:1013B20000341A228831CF0053089C3ED0002130DD
:1013C200D101D13D50088600510887004F088100A5
:1013D200D30AD129003018180130A10000302100B1
:1013E200111801302000A2001810F8116F08FD003A
:1013F200111097019601210C031C181003181814E0
:10140200220C2100031C11100318111408002000E3
:10141200A10018181810FB00D93E84009830031858
:10142200013E85000008EF0008001C119A0191108E
:101432000800CD01CC01EB21883120001C150530BC
:1014420076218831CE010A30762188314B268831C7
:10145200CC009B304C02031C302ACD36322A0314B6
:10146200CD0C0830CE0A4E02031C242A4D08080077
:101472002000D200FA248831D30002308C24883133
:101482002000D600952488312308D5002208D400F4
:1014920004305206031D552A73305302031C560BA7
:1014A20008000230A101D92C79305302031C080034
:1014B2005608031D08000230A101A10AD92488316F
:1014C2002F3020005502863003195402031C712A62
:1014D2000130A101D924883120000030A101D92C8A
:1014E200D40A0319D50A5508D600A1000130D9241F
:1014F200883120005408D600A1000030D92C0330D6
:10150200FB000A30FC001E30FD005230EE001E309F
:10151200EF00F83084009C308500DA30860000301D
:1015220087000030FF0015308731F1278831003005
:1015320084009030850058308600013087000030EA
:10154200FF0017308731F12788310D3084009D303C
:101552008500CB308600013087000030FF001A3052
:101562008731F12788319C30840021308500543046
:10157200FE000030FF009C31EC248831F801F901B3
:10158200FA01EA01EB01EC01ED01A0308400003028
:1015920085003A30FE000030FF009C31EC24883197
:1015A20020308400013085003830FE000030FF001A
:1015B2009C31EC248831A0308400013085002B302E
:1015C200FE000030FF009C31EC2488312030840082
:1015D200023085001A30FE000030FF009C31EC24FE
:1015E20088317E102000F52A932388310130FD22B4
:1015F20088311223803168282000A7002100420888
:10160200C30020002735CB3E860001308700413FD2
:101612008A00403F0A008B31200027082100C200C7
:10162200080020001F30E501E6013F00ED00200028
:10163200E701E70AE801E901210048084904031D1E
:10164200242B64001D2B49082000E60021004808D5
:101652002000E50067086505E10068086605E2000C
:101662006104031D382BE735E80DE90A2B2B6908C5
:10167200AC000330AD01AE00AF0158232D08850048
:101682002C0884005D3084079830853D003FE300DC
:10169200013FE4008A0063080A0007308B31200012
:1016A20069060319182B69086D238831182BB001BC
:1016B200B1012C1C602B2E08B0072F08B13DAE35AE
:1016C200AF0DAD36AC0C2C082D04031D5A2B31087E
:1016D200AD003008AC0008002000A50000308B1BD4
:1016E2000130A6008B132508A100AB30A201A13561
:1016F200A20D210784009830223D8500003FA300FF
:10170200013FA400A309A40923082100C805200061
:1017120024082100C9052000261C912B8B170800E4
:101722008B1308006400CD2388313C278831F123D4
:1017320088313426883103248831F3238831A92360
:101742008831EB238831E42388319C2788314D2F5F
:1017520028001711F81CBD2B1708FC390238970016
:1017620017088739483897007D3096000A302100E3
:10177200E0008230950008001708FC390238970013
:1017820017088739503897008E30960001302100B3
:10179200E000883095000800FC3021009905190806
:1017A20087396838990099131A1ED52B9A1DD72BA1
:1017B2000730F8142000A2007D30A100A10BDF2B1E
:1017C200A20BDF2B080021001708C1391C38970033
:1017D2001710080002302100C500C601C701080029
:1017E2000030FD2A23008C0109308D00472721009B
:1017F2008C0109308D0082308E0024008D0108306A
:10180200900008002000C301ED01C40144083E3EDF
:101812008C2488310F392000C1000A30A10043080E
:10182200A82488314107C3000330C40A4402031CC0
:10183200072C43082100AC0042308C24883121005F
:10184200AE0043308C2488312100AF0047308C2415
:1018520088312100AD002E082000AC00AD0121002E
:101862002D082000AE00AF01582388312D08210039
:10187200A50020002C082100A40048308C248831C7
:101882002000C100C201C135C20DC135C20D4108DF
:10189200B9004208BA00F72688312100B100053E9E
:1018A200B20044308C2488312100C10045308C24A0
:1018B20088312000C5002100BF000F30BF05200085
:1018C200450E0F392100BE000F30BE053F08C00093
:1018D20046308C2488312000C500451C6D15C51882
:1018E2006D16451AF816C51E78156D1E7B2C013033
:1018F200B5248831952488312F302302873003198B
:101902002202031C08000130A101D92488312000E1
:101912000030A101D92C2000A100230091009201E6
:10192200951315141308080001308C248831200007
:10193200A600A5000030A4018C242000A600A40764
:101942000318A50A2508A3002408A2000800200005
:10195200A300A20121082318A207A135A336230858
:10196200031DAB2C220808002000A50000308B1BB1
:101972000130A6008B132508A100AB30A201A135CE
:10198200A20D210784009830223D8500003FA3006C
:10199200013FA40023082100C804200024082100DC
:1019A200C9042000261CD72C8B1708008B130800B3
:1019B200A20023009100920120002108230093003D
:1019C2009513151500308B1B01302000A3008B13DB
:1019D200553023009600AA30960095142000230C5F
:1019E200031C8B1303188B1723009518F52C151164
:1019F2000800823022009700171FFD2C1F302000A4
:101A0200B9000130462588313A08D1003908D000A2
:101A1200220097130C302000B9000130462588318E
:101A22003A08CC003908CB005008510403193B2D69
:101A32005008AD005108AE00AF01B0014B08A10043
:101A42004C08A2002030A301A401A801A701A6000E
:101A52000C30A5000F2688312408B4002308B300F7
:101A62002208B2002108B100552688312E08CE0086
:101A72002D08CD006430B200B3014E08B5004D0808
:101A8200B400EA253208CF000800BD00FF30C801CB
:101A9200C80AC101C201C301C401C500C600103099
:101AA200C70121009E0020003D0C2100031C9E1353
:101AB20003189E1720003908BB00BB0DBB0D210087
:101AC2001D0820003B0683393B0621009D001D14A2
:101AD20008302000BB00BB0B6C2D0C3020003906F7
:101AE2000319772D1F303906031D802D0830BB00E6
:101AF200BB0B792D12302000C800C701C70AC001F4
:101B0200480840020318B92D0330BB00BB0B872DD8
:101B120021009D14000021009D188C2D1C0820001E
:101B2200CA00C90121001B082000C9070318CA0AFC
:101B3200470BB32D4A084402031DA12D4908430255
:101B42000318A72D4A08C4004908C30046084A02E0
:101B5200031DAD2D450849020318B32D4A08C600DE
:101B62004908C5004908C1074A08C23DC00A812D7B
:101B720021001D102000470BD92D43084507BB004B
:101B82004408463DBC00BB09BC09BB0A0319BC0A98
:101B92003B08B4003C08B5004108B4074208B53D13
:101BA2004808B200FE30B301B207FF30B33DE02D6A
:101BB2004808B200B3014208B5004108B400EA2562
:101BC2003308BF003208BE003F08BA003E08B90021
:101BD2000800B601B7013208330403190A2EB8010E
:101BE200B80AB31BF72DB235B30DF12DB635B70DCB
:101BF20033083502031DFF2D32083402031C062E62
:101C02003208B4023308B53B3614B336B20CB80B03
:101C1200F72D3708B3003608B2000800A901AA015F
:101C2200AB01AC01211C1D2E2508A9072608AA3DDF
:101C32002708AB3D2808AC3DA535A60DA70DA80D7C
:101C4200A436A30CA20CA10C240823042204210410
:101C5200031D132E2C08A4002B08A3002A08A2009F
:101C62002908A1000800C801C9010800F8190034B8
:101C72004B268831CC009A304C02031C482E372E5A
:101C82004B268831CC009B304C0203180134F819E2
:101C9200372E412E09302000B900003046252100A0
:101CA2001C082000CB000800B501B601B701B8013D
:101CB20030082F042E042D0403198B2EB901B90A02
:101CC200B01B682EAD35AE0DAF0DB00D602EB53523
:101CD200B60DB70DB80D30083402031D7A2E2F0849
:101CE2003302031D7A2E2E083202031D7A2E2D088E
:101CF2003102031C852E2D08B1022E08B23B2F089B
:101D0200B33B3008B43B3514B036AF0CAE0CAD0C5F
:101D1200B90B682E3808B0003708AF003608AE009D
:101D22003508AD0008002F00910121001113200099
:101D3200111301308129A930B401B601B701840021
:101D42009830850000088C2488312000B400B80146
:101D520038089C3E860021308701873D0108D03E2D
:101D6200B5000A303502031800343708AD003608D2
:101D7200AC000A30AE00AF01582388312D08B700FD
:101D82002C08B6003508B6070318B70A0330B80A9C
:101D92003802031CA92E3408B200B30137083302FB
:101DA200031DD52E36083202031C003436083704D0
:101DB200031D01340034A401A40124089C3E8600C2
:101DC20021308701873D0108A1002408893E840053
:101DD20098300318013E85000008D924883120007C
:101DE2002230A40A240203180800DE2E0930BB01A7
:101DF200BC01BD01BE01B200B3013A08AD00390811
:101E0200AC000530AE00AF01582388312D08B50073
:101E12002C08B400EA2588313308C0003208BF001C
:101E22000230BF070318C00A3030B200B3013A08CB
:101E3200AD003908AC001130AE00AF015823883133
:101E42002C08313EB40000302D3DB500EA25883122
:101E52003308BC003208BB000730B200B3013B08B4
:101E62003F07B4003C08403DB500EA253308BE00F8
:101E72003208BD000800CF3020009805181021005C
:101E820011102000111097019601080022008C0108
:101E92008D0104308E0008002000EC01EB23883114
:101EA2007B2788317812781373278831B00166272F
:101EB20088310B118B120B178B1720009310210006
:101EC2009314280017150230392A20000230ED1031
:101ED200ED126C162100DA00DB013F08C0003C3035
:101EE200DF0008002100B601B701B801B9010A30CC
:101EF200FC0008002000EB112200BD01A001A1019D
:101F0200A201A301A401A501A601A7012000A1012C
:101F12002135283E8600013087001E30C03F003048
:101F2200C13F0630A10A2102031C892F1E30220064
:101F3200B400B501080080302000A1000430A200E6
:101F4200BF278831BA27883122000E1603302000BD
:101F5200B0008A30AF005630AE00AE0BAE2FAF0BE2
:101F6200AE2FB00BAE2F003293314E2322000E1251
:101F7200080023009D171D169E16080023001E123E
:101F82009F151E15D52F23009C016730D32F2300E8
:101F92009C011030D32F23009C010830D32F230043
:101FA2009C010C309B00F32F20002208003A0319F9
:101FB200E12F023A0319E62F063A0319EB2FF32F0A
:101FC2002108603A0319C42FF32F2108403A03195C
:101FD200C82FF32F2108803A0319CC2F013A031995
:101FE200D02FF32F82302000A400DD30A300A30BFA
:101FF200F82FA40BF82F00320800430808003134F0
:102002009934373499343D349934433499343034E3
:102012003134333435343634373438343934303477
:1020220033343034373432343034003421309D315B
:102032002725903121083228EA27903121004C08C7
:10204200003A03192E28013A03192F28033A0319DB
:102052002F28013A0319302831280429292C3E2936
:102062000800C3006B1A08006A1521005C0886008C
:102072005D0887002000430881002100DC0A031963
:10208200DD0A2000EE03EA1F60282100DE035E085D
:10209200031D8A289C302000A1002130A2006E0876
:1020A200523CA30038269031013A031D5D286A167E
:1020B20022003C088C279031192490318A286A1F0B
:1020C20068282A304306031D8A28EA178A28EA1E4E
:1020D200822821000630E10A6106031D8A285C0875
:1020E20086005D0887009C3081012000A600213017
:1020F200A7009A269031013A031D5D286A17EA1556
:102102008A2824304306031D5D28EA162100E101D6
:10211200E10A20006E08031D902819249031200046
:10212200EB186B1C0800EB106B1021000A30CD0A73
:102132004D02031C0800CD032000EB1AA728EB1563
:102142009F279031032790312000EB1621003D0894
:102152002000A40021003C082000A30021003B082D
:102162002000A20021003A082000A100E626063045
:102172008C31B52C2000EA01EB0119248F31BA27EA
:1021820090311D162100911622000E1603302000F8
:10219200AC008A30AB005630AA00AA0BCE28AB0B9B
:1021A200CE28AC0BCE28003221000130CD018A317D
:1021B200082290318931EB2190311114200018143A
:1021C2006B15F523903124082200A3002000230878
:1021D2002200A200200022082200A10020002108E3
:1021E2002200A0008B302000A2009930A300D1234E
:1021F20090318230AB00DD30AA00AA0BFE28AB0B77
:10220200FE280032080069229031B330A10021304B
:10221200A200EA30A3009830A40051229031EA21B2
:102222009031D3009C30A1002130A2005308A107B5
:102232000318A20ADC30A3009830A4005122903186
:102242009F219031EA21D3009C3ED1002130D2015E
:10225200D23D510886005208870020308100D30AFF
:1022620053089C3ED1002130D201D23D5108860054
:10227200520887002030810008002000D70169221F
:102282009031B330A1002130A200F730A300983082
:10229200A40051229031EA219031D8000B239031D1
:1022A2002000D700303ED10058089C3ED200213099
:1022B200D301D33D5208860053088700510881009C
:1022C2005808013E0E2390315808D1009E30D201A9
:1022D200D3002130D40051085307D5005208543D91
:1022E200D60055088600560887003C308100580801
:1022F200D1009F30D201D3002130D40051085307BE
:10230200D5005208543DD60055088600560887006D
:1023120020308100EA219031D8009C30A100213088
:10232200A2005808A1070318A20ADC30A3009830C3
:10233200A40051229031EA2190319F291130C1002D
:102342000230C2008C31952490312308BF0022084C
:10235200BE00EA21BD00C0014208B3004108B2003C
:102362003F08B5003E08B4008D31EA2590313208AD
:10237200BC00413EB9003D089C3EBA002130BB0181
:10238200BB3D3A0886003B08870039088100BD0A38
:102392004208A2004108A1003F08A4003E08A30091
:1023A200CA222208BF002108BE001730B200B301C2
:1023B2004208B5004108B4008D31EA259031330856
:1023C200C2003208C1000330C00A400203180800EC
:1023D200AD299C30A301A1002130A200F82952307E
:1023E20023020318FF29A30AA10A0319A20A21083A
:1023F2008600220887000108031DF029230808002F
:102402009C302000A1002130A2000430A3009930AA
:10241200A40051229031A630A1002130A2004E30FA
:10242200A3009930A40051229031AB30A100213099
:10243200A2005730A3009930A40051229031AA0182
:102442002A08603E8600013087000108A800A530F6
:10245200860021308700280881002A08DD3E860098
:10246200013087000108A800AA30860021308700C9
:10247200280881009C30A2002130A300D123903192
:102482008230A900DD30A800A80B452AA90B452AF5
:10249200003220000830AA0A2A0203180800212A62
:1024A2002208A6002108A500250886002608870024
:1024B20023088400240885000008C03F8908031906
:1024C2000800A50A0319A60AA30A0319A40A552A91
:1024D200EA22CF014F08363E8C318C249031200005
:1024E200C8004F089C3EC9002130CA01CA3D4908B4
:1024F20086004A088700480881000430CF0A4F024C
:10250200031C6B2AD00150083A3E8C318C24903146
:102512002000C8005008C900A130CA01CB002130F8
:10252200CC0049084B07CD004A084C3DCE004D086F
:1025320086004E088700480881000730D00A500202
:10254200031C842AA0308600213087003E3081009F
:10255200AE3086003E308100A83086002C308100EB
:10256200A93086003C308100B13086003C308100C9
:10257200AC3086002E308100AF30860056308100AC
:10258200B030860042308100B230860020308100B7
:102592000800210822040319E52AA501A50AA21BA5
:1025A200D52AA135A20DCF2A22082402031DDB2A37
:1025B20021082302031CE12A2108A3022208A43BCA
:1025C200A236A10CA50BD52A2408A2002308A1003B
:1025D2000800210033082000C4004530B900003053
:1025E200BA004408BB000330BC00BD010A25AA3072
:1025F200860021308700450881004608C300AB30C1
:102602008600430881004708C300AD3086004308B6
:102612008100080022003A080800A4009C3EA100A4
:102622002130A201A23D2108860022088700303015
:1026320081006D1F282B24089C3EA1002130A2019D
:10264200A23D210886002208870031308100ED1F5B
:10265200362B24089C3EA1002130A201A23D210874
:1026620086002208870032308100EC1F080024080F
:102672009C3E860021308701873D0108033EA10070
:1026820024089C3EA2002130A301A33D220886001B
:102692002308870021088100080080302000A10063
:1026A2000430A2008F31BF27903182302000AC006D
:1026B200DD30AB00AB0B5B2BAC0B5B2B0032743011
:1026C2002000A2009930A300D12390318230AC00C7
:1026D200DD30AB00AB0B6B2BAC0B6B2B0032220053
:1026E2000E1203302000AD008A30AC005630AB0031
:1026F200AB0B792BAC0B792BAD0B792B0032220073
:102702000E1603302000AD008A30AC005630AB000C
:10271200AB0B892BAC0B892BAD0B892B00326030B4
:102722002000A100A2018F31BF279031823020000A
:10273200AC00DD30AB00AB0B9C2BAC0B9C2B003206
:10274200012290318230AC00DD30AB00AB0BA72B05
:10275200AC0BA72B00325A302000A2009930A30004
:10276200D12390310330AD008A30AC005630AB003B
:10277200AB0BB92BAC0BB92BAD0BB92B00328B3099
:102782002000A2009930A300D12390318230AC0006
:10279200DD30AB00AB0BCB2BAC0BCB2B00320800EC
:1027A200A5012308A7002208A600260884002708FE
:1027B2008500120003190800803025020318080062
:1027C20026088400270885000008EE2390312000A7
:1027D200A60A0319A70AA50AD62BA100111EEF2BE0
:1027E200210823009A00080000308B1B0130A90049
:1027F2008B13210039082000A8002100380820008E
:10280200A700210037082000A6002100360820007A
:10281200A500291C0E2C8B170F2C8B1320002808C7
:10282200A4002708A3002608A2002508A10008008A
:1028320020009C30EA126A13EA132100DC002130E6
:10284200DD0052302000EE0002302100DE000800E0
:1028520069229031BE308600213087003E308100EF
:10286200CE3086003E308100D83086003E30810076
:10287200B23086002C308100BD3086002C308100C1
:10288200C13086002C308100CD3086002C30810092
:10289200D13086002C308100C03086003C3081006F
:1028A200D03086003C308100B83086002E30810066
:1028B200C83086002E308100B53086003A30810063
:1028C200C53086003A308100D93086004830810018
:1028D200BF3086004E3081002200470B742CBF307F
:1028E200860053308100CF3086002130870045308A
:1028F20081004D0B802CCF30860057308100B330E1
:102902002000B9002130BA00220043082000BB0099
:102912000230BC00BD010A259031B630B900213029
:10292200BA00220044082000BB000230BC00BD01F6
:102932000A259031C230B9002130BA00220049087C
:102942002000BB000330BC00BD010A259031C63017
:10295200B9002130BA0022004A082000BB00023030
:10296200BC00BD010A259031F52390312408BD0039
:102972002308BC002208BB002108BA00D8259031E8
:10298200D2302000B9002130BA00210057082000BF
:10299200BB000230BC00BD010A259031D430B90021
:1029A2002130BA00210058082000BB000230BC00D0
:1029B200BD010A259031D630B9002130BA0021007C
:1029C20059082000BB000230BC00BD010A2590312D
:1029D200B930C3002130C400220046082000C600DE
:1029E200220045082000C5000430C700C8018F2519
:1029F2009031C930C3002130C40022004C082000AD
:102A0200C60022004B082000C5000430C700C801E0
:102A12008F2D64303B02031C122D03303C0203183D
:102A2200252D64303B020A3003181F2D3B02031C84
:102A32001E2D02303C020318252D0A303B020318DA
:102A420008003C08031908003D0B302D3C08BE006D
:102A5200BF01390786003F083A3D870081010230F5
:102A62003C020A30031C522DBC03A1003B085F2527
:102A72009031C2000A30A1003B0877259031BB009B
:102A82003030C2073C08BE00BF013907C0003F0812
:102A92003A3DC10040088600410887004208810093
:102AA200302DA1003B085F25C2003030C207390833
:102AB20086003A088700420881000800A300083017
:102AC200A400A5012308A2000730A236890B662DB7
:102AD20025352204A500A33521082502031C732DE8
:102AE2002108A502A40B632D25080800A200A40159
:102AF200210803198D2DA301A30AA11B822DA13543
:102B02007D2DA43521082202031C8A2D2108A20250
:102B12002414A136A30B822D240808002730460274
:102B2200103003194502031C9A2D05304702031881
:102B3200A52D27304602103003194502031808005C
:102B420004304702031C08004408BA004308B900D5
:102B52006430B200B3014608B5004508B4008D31B7
:102B6200EA2590313208BB004708FE3EBC00480807
:102B7200BD000A2590314408BA004308B90047084D
:102B8200B9070318BA0AFE30B907031CBA03643046
:102B9200A100A2014608A4004508A300CA22903160
:102BA2002108BB000230BC004808BD000A2D3D08C8
:102BB200C5003C08C4003B08C3003A08C2000E30FE
:102BC200B001AF01AE001030AD004508B4004408BA
:102BD200B3004308B2004208B1008E31552690314D
:102BE2002D082100D7003C302000AD00AE01AF011E
:102BF200B001210057082000A100FF30A201A3016B
:102C0200A401A800A700F130A600F030A5008E3183
:102C12000F26903121084207BE002208433DBF0023
:102C22002308443DC0002408453DC100B4004008CB
:102C3200B3003F08B2003E08B1008E3155269031F4
:102C42002D082100D800C4302000A100210058081E
:102C52008C31A8249031BE00F030A1002100570829
:102C62008C31A8243E0742072100D9000800A601A2
:102C7200A701A10A0319A20AAA01AA0A2308FD3E72
:102C8200A400FF3003180030A500803A803C031DE9
:102C92004C2E24082A020318592E200021088600EF
:102CA200220887000108A606A10A0319A20A3E2EDD
:102CB2002000AA01A10A0319A20A210886002208FB
:102CC2008700473001022A08031C712E283E860025
:102CD200870121088400220885000008DF39792E47
:102CE200283E86008701210884002208850000080A
:102CF200D03E81002A08283E86000A308701010260
:102D0200031C8D2E2A08283E86002A08283E8400AD
:102D120085010008F93E81000230AA0A2A02031C3A
:102D22005B2E280EF0392904A70026060319013468
:102D32000034AC01AB01AC012708A2002608A100B7
:102D42002C08A800CB30A901A835A90D28078400BA
:102D52009830293D8500003FA300013FA400C4260E
:102D6200903121082204031DBC2EAB01AB0A2C08B2
:102D72002200BC00C12E0530AC0A2C02031C9D2E81
:102D820020002B080800D22E210886002208870086
:102D920001080319E02EA10A0319A20AA30A0319C2
:102DA200A40A210886002208870023088400240838
:102DB200850000080102A50025080319C52E250873
:102DC200A100A201A11BA203080000308B1B01304D
:102DD200A5008B1324082100B9002000230821003C
:102DE200B800200022082100B7002000210821009D
:102DF200B6007816FA012000251C012F8B17080057
:102E02008B1308002000BE01BF01C001C1012200D6
:102E120023082702031D172F22082602031D172F3E
:102E220021082502031D172F2008240203183D2F15
:102E320080302000BA005130BB000130BC000430A9
:102E4200BD01203E860001308700403FBA07413F66
:102E5200BB3D423FBC3D433FBD3D3D082200A70074
:102E620020003C082200A60020003B082200A5000A
:102E720020003A082200A400200824022000BA0000
:102E820022002108253B2000BB0022003D35283EC0
:102E920086000130870020003A08C03F3B08C13F4E
:102EA20022003D35283E8600403FB600413FB70034
:102EB2002000C2014235283E860001308700403F93
:102EC200BA00413FBB003A08BE073B08BF3D003095
:102ED200C03DC13D0630C20A4202031C5B2F0630D0
:102EE200AD00AE01AF01B0014108B4004008B3002B
:102EF2003F08B2003E08B1008E3155262E0822004E
:102F0200B50020002D082200B4000630BD0A3D02A3
:102F12000318BD0108002000B600942F9D31CB2D6F
:102F2200B02F01000800360884000530040203189F
:102F3200080099310435C33E82000800F5232408B5
:102F42002200A700200023082200A6002000220859
:102F52002200A500200021082200A40008009C30C5
:102F6200EB10A1002130A2002C30A3009F31AB272F
:102F720090312208A5002108A400A40A0319A50A79
:102F820024088600250887004D300106031DCC2F3A
:102F92002100CA0108002508A2002408A1002C3043
:102FA200A3009F31AB2790312208A5002108A4007D
:102FB200A40A0319A50A24088600250887003330CD
:102FC2000106031D080003302100CB002000EB1492
:102FD20008002000A1012108803A313E0318FA2F8F
:102FE20021089C3E860021308701873D8101A10A8C
:102FF200EC2FEE3086002130870081010800033477
:1030020000340034003400340034003453340034CB
:1030120000342334003400340B34003400340034E0
:1030220000340034003400340034003400340034FE
:1030320000340034003400340034003400341334DB
:103042005B34473417344B3400342F346B347B34C5
:103052002734003400341B3463341F345F34373474
:103062007734673443342B3407345734733433346E
:103072000F343B343F347F3400346F344F340034E8
:1030820063344F343B344B3443345B342F34173482
:1030920033346B347B3427341F341B340F343734CE
:1030A20077342B345334073473343F3467345F340A
:1030B2005734473400340034E5341C340134C93405
:1030C200003402340D34043403343334053404340C
:1030D2006E34003405346D340034063482340334E3
:1030E2000734173410340834B034003409340F3440
:1030F20008340A34053408340B34E93405340C340A
:10310200033400340D34033400340E34A834033451
:1031120022342334243425342734283429342A34DD
:103122002C342D342E342F3431343234333434347D
:1031320036343734383439343A343B343C343D3421
:103142003E343F34403442344334443445344634CC
:103152004734483401340034023400340434003437
:103162000834003410340034203400344034003445
:103172008034003400340134003402340034043426
:103182000034083400341034003420340034403425
:10319200003480342A3499341C34993423349934D9
:1031A200153499340E349934223427342C34313482
:1031B2001E343C34963456343E34323438343C3443
:1031C20052343E34363437343C34203443342034A1
:1031D20000344134433454344934563441344E3447
:1031E20044344F3453344534203400344E344F3455
:1031F20054344934433445342034473450345334FE
:1032020020343E340034243450344134493452346E
:103212003034363432342C3400342434453445349A
:1032220053344C3466340034243447344E344734F7
:10323200533441340034243447344E3452344D3400
:103242004334003424344734503447345334413403
:10325200003424344734503452344D34433400342F
:1032620007340034003400340034003408340034AD
:10327200003401340434003409340034003402349C
:10328200083400340A340034003403340C3400347B
:10329200003480340034003440342C3430342A3446
:1032A2003334003401341834083424340D340A34ED
:1032B20000342434503441344934523430343634B6
:1032C20036342C3431342C3430342C3431342C34E4
:1032D20031342C3431342C3430342A3433344134C4
:1032E2000D340A34003424345034413449345234D5
:1032F2003834363434342C3430342C3430342C34A6
:1033020039343634303430342A34313433340D34B1
:103312000A34003424345034413449345234303481
:10332200363437342A34333442340D340A340034D8
:103332002D34323431343434373434343834333451
:10334200363434343834003445343034003445347F
:1033520031340034453432340034453433340034AB
:10336200453434340034453435340034453436344D
:10337200003445343734003445343834003445346D
:103382003934003497318F2F97318F2F9731912F06
:103392009731912F9731922F8531872D85318A2D43
:0C33A2008531872D85318A2D85318D2DD8
:1039980021004108080009308C31B52C00308C31E9
:1039A800B52C0A308C31B52C08308C31B52C083048
:1039B8008C31B52C0B308C31B52C2100C301C201E0
:1039C8000800883162202100171402308A31FD2A4C
:1039D8006400013080010131FE020030FF3B7F08A6
:1039E8007E0403190034ED2C3C3400349C3421341B
:1039F80002343C340A3401343C343C340D340A3447
:103A0800003458340D340A340034AD3400340034F2
:103A18000034E1341C34D2341C34D5341C34D8344A
:103A28001C34CF341C34DB341C3401340834DE3409
:103A38001C34FD3407344534463444344234383475
:103A4800393436343734A8000030A9018B1B0130D3
:103A5800A7008B1323004A080319452D4808A03EE8
:103A680086000130870001082000A90023002830C3
:103A7800CA03C80A48060319C8014A08031D452D88
:103A880051252000270C031C8B1303188B172808BB
:103A98008600870129088100080007308B316D2BCB
:103AA800FD037D08031D08006E2DF60028304A0628
:103AB80003196B2D4908A03E86000130870076085F
:103AC80081002830CA0AC90A49060319C901073002
:103AD800AB250800792DF815842D0E30AB259D31C6
:103AE800842D22008D120D12842D7B08003A0319B3
:103AF8006F2D013A0319712D033A0319752D842D81
:103B0800200018100800FA0A05307A02031C080081
:103B1800FA010430AB259D3101302100B607003091
:103B2800B73DB83DB93D39088030031DA32D360295
:103B38005130373B0130383B031C08008030B60752
:103B4800AE30B73DFE30B83DFF30B93D0800F40057
:103B580000308B1B0130F5008B137408F000AB307C
:103B6800F101F035F10D700784009830713D850042
:103B7800003FF200013FF30072082100C8047308F7
:103B8800C904751CC92D8B1708008B1308009C30BD
:103B9800A1002130A2002C30A300AB279D312208C0
:103BA800B5002108B400B40A0319B50A6B10220045
:103BB800C201C80120003508A5003408A40002305D
:103BC800A60089279D312200BE0020003408023E4D
:103BD800A4000030353DA5000230A60089279D319C
:103BE8002200BF0020003408043EA4000030353D08
:103BF800A5000230A60089279D312200C0002000C0
:103C08003508A2003408A1002C30A300AB279D3151
:103C18002208B5002108B400B40A0319B50A34080B
:103C280086003508870056300106031D1F2E220026
:103C3800C101C10A2B2E340886003508870041309F
:103C48000106031D2B2E2200C10120006B14200049
:103C58003508A2003408A1002C30A300AB279D3101
:103C68002208B5002108B400B40A0319B50A3408BB
:103C78008600350887002C3001060319852E22009E
:103C8800C201C20A20003508A5003408A400023089
:103C9800A60089279D312200C30020003408023E77
:103CA800A4000030353DA5000230A60089279D31CB
:103CB8002200C40020003408073EA4000030353D2F
:103CC800A5000230A60089279D31B2000230B30159
:103CD800A6003408053EA4000030353DA50089271C
:103CE800AC006430AD01AE00AF018B3158239D317B
:103CF80032082C072200C500200033082D3D220081
:103D0800C60020003508A2003408A1002C30A3000A
:103D1800AB279D312208B5002108B400B40A031965
:103D2800B50A2200420BAF2E200034088600350861
:103D380087004E300106031DA42E2200C701AF2EB6
:103D4800340886003508870053300106031DAF2E5E
:103D58002200C701C70A20003508A2003408A100C4
:103D68002C30A300AB279D312208B5002108B400F0
:103D7800B40A0319B50A34088600350887002C30C0
:103D880001060319092F2200C801C80A20003508B6
:103D9800A5003408A4000330A60089279D3122001D
:103DA800C90020003408033EA4000030353DA500BA
:103DB8000230A60089279D312200CA00200034085D
:103DC800083EA4000030353DA5000230A600892732
:103DD8009D31B2000230B301A6003408063EA400AB
:103DE8000030353DA5008927AC006430AD01AE0038
:103DF800AF018B3158239D3132082C072200CB00AC
:103E0800200033082D3D2200CC0020003508A200F8
:103E18003408A1002C30A300AB279D312208B5003F
:103E28002108B400B40A0319B50A2200480B332F3D
:103E38002000340886003508870057300106031D26
:103E4800292F2200CD01CD0A332F340886003508EA
:103E5800870045300106031D332F2200CD012000C5
:103E68003508A2003408A1002C30A300AB279D31EF
:103E78002208B5002108B400B40A0319B50A3508A8
:103E8800A2003408A1002C30A300AB279D312208E2
:103E9800B5002108B400B40A0319B50A3508A20010
:103EA8003408A1002C30A300AB279D312208B500AF
:103EB8002108B400B40A0319B50A3508A500340866
:103EC800A4000230A60089279D312200D4002000DA
:103ED8003408023EA4000030353DA5000230A6009B
:103EE80089279D312200D50020003408043EA40013
:103EF8000030353DA5000230A60089279D312200FB
:103F0800D60020006B1C0800C12FA901AA01AB0133
:103F1800A52F26082A020318A92F2A08A700A801F6
:103F2800240786002808253D87000108D03EAB00FD
:103F38000A30A10029088C31A8249D312B07A9003B
:103F4800AA0A0A302B02031C8D2F29080800210811
:103F580086002208870001080319BE2F2108860061
:103F6800220887000108230603190800A10A03197B
:103F7800A20AAB2FA101A201080022003E082000DE
:103F8800A1000E30A201A301A401A801A701A60067
:103F98001030A5008E310F269D3124082100BD0068
:103FA800200023082100BC00200022082100BB00BB
:103FB800200021082100BA0022003F082000AC00A0
:103FC8003C30AD01AE00AF018B3158232C082100E5
:103FD800BA0720002D082100BB3D0030BC3DBD3D87
:103FE800220040082100BA0701300318BB07031854
:083FF800BC070318BD07080017
:020000040001F9
:04000E00CCEFFFDE56
:10E00000FF00FF00FF00FF00FF00FF00FF00FF0018
:10E01000FF00FF00FF00FF00FF00FF00FF00FF0008
:10E02000FF00FF00FF00FF00FF00FF00FF00FF00F8
:10E03000FF00FF00FF00FF00FF00FF00FF00FF00E8
:10E04000FF00FF001400CE00AC0086000B0014009F
:10E05000CE00C600BC000B001400CE00AC00860051
:10E060000B001400CE00C600BC00FF0044004300BB
:10E0700054004300300030003100310030003000E7
:10E080003300000006000100050028009000140085
:10E09000D700FF00FF00FF00FF00FF00FF00FF00B0
:10E0A000FF00FF00FF00FF00FF00FF00FF00FF0078
:10E0B000FF00FF00FF00FF00FF00FF00FF00FF0068
:10E0C000FF00FF00FF00FF00FF00FF00FF00FF0058
:10E0D000FF00FF00FF00FF00FF00FF00FF00FF0048
:10E0E000FF00FF00FF00FF00FF00FF00FF00FF0038
:10E0F000FF00FF00FF00FF00FF00FF00FF00FF0028
:10E10000FF00FF00FF00FF00FF00FF00FF00FF0017
:10E11000FF00FF00FF00FF00FF00FF00FF00FF0007
:10E12000FF00FF00FF00FF00FF00FF00FF00FF00F7
:10E13000FF00FF00FF00FF00FF00FF00FF00FF00E7
:10E14000FF00FF00FF00FF00FF00FF00FF00FF00D7
:10E15000FF00FF00FF00FF00FF00FF00FF00FF00C7
:10E16000FF00FF00FF00FF00FF00FF00FF00FF00B7
:10E17000FF00FF00FF00FF00FF00FF00FF00FF00A7
:10E18000FF00FF00FF00FF00FF00FF00FF00FF0097
:10E19000FF00FF00FF00FF00FF00FF00FF00FF0087
:10E1A000FF00FF00FF00FF00FF00FF00FF00FF0077
:10E1B000FF00FF00FF00FF00FF00FF00FF00FF0067
:10E1C000FF00FF00FF00FF00FF00FF00FF00FF0057
:10E1D000FF00FF00FF00FF00FF00FF00FF00FF0047
:10E1E000FF00FF00FF00FF00FF00FF00FF00FF0037
:10E1F000FF00FF00FF00FF00FF00FF00FF00FF0027
:00000001FF