:06000000000080315528CC
:100008007E14803123009D1C18281D120000230037
:100018001D1618282000911E1B2823001908F70018
:1000280077088431722480312100911A0E2821002A
:10003800911C23282000911C23281C1191108B1A35
:100048000B1D27280B112100931C49282000931C05
:1000580049282100EB03FD1C34286B08031D4728A1
:1000680084319F24803105308431CB2480317D1C3C
:10007800442803308431CB248031280017117D10A7
:100088000A302100EB00200093102100111C532896
:100098002000111C532884316C24200011107E107C
:1000A800090020000308A0008B31112B0034F5341F
:1000B800063401347B3418340234023408340334EF
:1000C8002A3406340434563405340534E13406340D
:1000D800063488340A3407347734123408340E343A
:1000E80010340934743414340A34383418340B3462
:1000F800F1341E340C34AF340C340D340734073467
:100108000E34073407340F34C9341434013400343E
:100118000234003404340034083400341034003419
:100128002034003440340034803400340034013446
:1001380000340234003404340034083400341034F9
:10014800003420340034403400348034593481344D
:100158004B34813452348134443481343D348134D5
:10016800223427342C34313404343C3496344B3420
:1001780024345034413449345234303436343634EB
:100188002C3431342C3430342C3431342C34313454
:100198002C3431342C3430342A34333441340D3453
:1001A8000A34003424345034413449345234383415
:1001B800363434342C3430342C3430342C34313418
:1001C800313435343234303430342A3431344234F2
:1001D8000D340A34003456343E34333433343C342A
:1001E80054343E34363436343C34203443342034AA
:1001F80000342434503441344934523430343634A1
:1002080037342A34333442340D340A340034243435
:1002180050344134493452343534313433342A3447
:10022800333444340D340A340034413443345434C0
:100238004934563441344E3444344F3453344534BD
:10024800203400344E344F34543449344334453424
:10025800203447345034533420343E34003424346A
:1002680050344134493452343034363432342C34F6
:10027800003424344534453453344C346634003423
:10028800243447344E34473453344134003424340E
:1002980047344E3452344D344334003424344734D4
:1002A80050344734533441340034243447345034C0
:1002B80052344D34433400340734003400340034AD
:1002C8000034003408340034003401340434003479
:1002D8000934003400340234083400340A34003459
:1002E800003403340C3400340034803400340034D7
:1002F80040342C3430342A34333400340134183444
:10030800083424340D340A3400340D340A342D34BE
:100318002D342D3420345234453453344534543438
:10032800203420344234553449344C3444343A343B
:10033800203400340D340A34203455344434203405
:100348004534523452344F345234203421340D342D
:100358000A3400340D340A344734503453342034CA
:10036800423420344534523452340D340A34003483
:100378000D340A344734503453342034463420344E
:100388004534523452340D340A3400340D340A34AE
:10039800473450345334203457346F3472346B3408
:1003A80073340D340A3400340D340A344C346F3449
:1003B80063346B345F34743469346D3465343A347F
:1003C800203400340D340A34473450345334203444
:1003D8004F342E344B342E340D340A340034203448
:1003E8002E3420342E3420342E3464346F346E345A
:1003F80065340D340A3400340D340A3467347034EB
:1004080073345F34733474346F3470340D340A3495
:1004180000347234743463345F3461346C3461345E
:1004280072346D343A34203400340D340A3455347F
:100438004134523454345F344334463447342034DE
:1004480000342D343234313434343734343438349D
:10045800333436343434383400344F3463347434F9
:100468002034303439342034323430343234363471
:10047800003455346E346B346E346F3477346E34E4
:100488003A34203400340D340A34533459344E3459
:1004980043340D340A3400344734443420344F3460
:1004A800463446340D340A34003453345F346C34E3
:1004B8006F3463346B343A3420340034313432349A
:1004C8003A34303436343A343234343400340D3437
:1004D8000A344D34533447343A34203400340D341C
:1004E8000A347334673464340D340A3400342034E5
:1004F80053345F3463346634673420340034203432
:100508006734703473345F347334203400340D34FA
:100518000A34433433340D340A3400340D340A3485
:10052800433434340D340A34003447344F344634B9
:1005380046340D340A340034473444345F34733459
:100548000D340A3400340D340A34413453343A3407
:100558002034003453343234743478343A34203408
:1005680000345334553450340D340A3400342034B4
:10057800473432343434203400345534313431344F
:10058800353400342034463420340034553439347A
:100598003634003455343534373400344534303447
:1005A8000034453431340034453432340034453471
:1005B800333400344534343400344534353400346D
:1005C800453436340034453437340034453438340F
:1005D80000344534393400344334313400344E3433
:1005E800503400342034203400342E340034C50113
:1005F800C601C101C201B21F1F2B8030C101C10A4F
:10060800C20132062F0430043104031D142B3308B1
:10061800A1002530A201A3008230A4009631A72EA4
:10062800AF09B009B109B209AF0A0319B00A031931
:10063800B10A0319B20A3208310430042F04031D29
:10064800632B33088600303087018100C50A0319FF
:10065800C60A45083307B40086008101080045082A
:10066800353E86000A308701A100A201A301A4013A
:100678003208A8003108A7003008A6002F08A500F6
:100688000B2482312108303E8100C50A0319C60AAD
:100698000A30A100A201A301A4013208A800310870
:1006A800A7003008A6002F08A5009F238231240840
:1006B800B2002308B1002208B0002108AF003208B8
:1006C800310430042F04031D332B4108420403195D
:1006D800762B4508353E86002D3087018100C50AF6
:1006E8000319C60AC301C4014608803AB400803021
:1006F8003402031D812B01304502031C972B200077
:1007080043083307B4008600FF308701C507031C80
:10071800C6034508353E8400850100088100C30AE8
:100728000319C40A782B200043083307B400860055
:10073800870181010800AA01A41FAF2BA109A20902
:10074800A309A409A10A0319A20A0319A30A0319F0
:10075800A40AAA01AA0AA81FBE2BA509A609A709C7
:10076800A809A50A0319A60A0319A70A0319A80ABA
:100778000130AA06AB01AC01AD01AE012408230487
:10078800220421040319F42BA901A90AA41BD12BC3
:10079800A135A20DA30DA40DC92BAB35AC0DAD0D24
:1007A800AE0D24082802031DE32B23082702031D8E
:1007B800E32B22082602031DE32B21082502031C34
:1007C800EE2B2108A5022208A63B2308A73B2408F4
:1007D800A83B2B14A436A30CA20CA10CA90BD12B5B
:1007E8002A080319022CAB09AC09AD09AE09AB0AFA
:1007F8000319AC0A0319AD0A0319AE0A2E08A4009E
:100808002D08A3002C08A2002B08A1000800AA01AB
:10081800A81F1B2CA509A609A709A809A50A031939
:10082800A60A0319A70A0319A80AAA01AA0AA41F53
:10083800282CA109A209A309A409A10A0319A20A3B
:100848000319A30A0319A40A24082304220421046F
:100858000319552CA901A90AA41B372CA135A20DEF
:10086800A30DA40D2F2C24082802031D452C2308B2
:100878002702031D452C22082602031D452C2108AA
:100888002502031C4F2C2108A5022208A63B230899
:10089800A73B2408A83BA436A30CA20CA10CA90BC7
:1008A800372C2A080319632CA509A609A709A80942
:1008B800A50A0319A60A0319A70A0319A80A2808EA
:1008C800A4002708A3002608A2002508A100080004
:1008D8002100EE036E08031D0800872CF60028305F
:1008E8004A060319842C4908A03E86000130870077
:1008F800760881002830CA0AC90A49060319C901BD
:100908000830CB2408008E2CFD159C2C0F30CB24EE
:1009180084319C2C6908003A0319882C013A031980
:100928008A2C033A03199C2C013A0319882C9C2C15
:10093800200018100800CF0A05304F02031C0800D9
:10094800CF010430CB24843101302100B6070030B8
:10095800B73DB83DB93D0130E2020030E33B6208E3
:10096800630403197C1139088030031DC32C360237
:100978005130373B0130383B031C08008030B60744
:10098800AE30B73DFE30B83DFF30B93D0800F40049
:1009980000308B1B0130F5008B137408F0008A308F
:1009A800F101F035F10D700784008030713D85004C
:1009B800003FF200013FF30072082100C8047308E9
:1009C800C904751CE92C8B1708008B130800973194
:1009D800752784312408B1002308B0002208AF002D
:1009E8002108AE00310821003D02031D0B2D200017
:1009F800300821003C02031D0B2D20002F08210088
:100A08003B02031D0B2D20002E0821003A0203187B
:100A1800262D20003108AD003008AC002F08AB00AF
:100A28002E08AA0021003A082000AA0221003B084B
:100A38002000AB3B21003C082000AC3B21003D08D6
:100A480020003C2D3D082000AD0021003C0820007E
:100A5800AC0021003B082000AB0021003A08200030
:100A6800AA002E08AA022F08AB3B3008AC3B31087D
:100A7800AD3B2D08031D4A2D2C08031D4A2D2B08BC
:100A8800031D4A2D13302A02031C01342D08031DAF
:100A980001346E302A0251302B3B01302C3B0318B5
:100AA800013400347D1F882D01302100A802003058
:100AB800A93BF9302000A1008230A2008D316025C9
:100AC80085312100ED0B7F2DAB302000A100813056
:100AD800A2008D31602585310A302100ED002808FB
:100AE8002000C700210029082000C800C901CA0148
:100AF8008D31DC258531210028082904031D882D26
:100B08007D138A31D22285317C1F08008B2D21006C
:100B1800B4033408031D080004307C13B500080032
:100B280024082304220421040319C12DA901A90AB8
:100B3800A41BA32DA135A20DA30DA40D9B2D240844
:100B48002802031DB12D23082702031DB12D2208F9
:100B58002602031DB12D21082502031CBB2D2108E7
:100B6800A5022208A63B2308A73B2408A83BA436D5
:100B7800A30CA20CA10CA90BA32D2808A4002708DC
:100B8800A3002608A2002508A1000800A4009C3E96
:100B9800A1002130A201A23D210886002208870079
:100BA8003030810021004C1FE62D200024089C3E97
:100BB800A1002130A201A23D210886002208870059
:100BC80031308100FC1F0800200024089C3E86006C
:100BD80021308701873D0108033EA10024089C3E7F
:100BE800A2002130A301A33D220886002308870024
:100BF800210881000800A8000030A9018B1B0130E2
:100C0800A7008B1323004A0803191E2E4808A03E8C
:100C180086000130870001082000A9002300283041
:100C2800CA03C80A48060319C8014A08031D1E2E2C
:100C380088314E202000270C031C8B1303188B17B8
:100C4800280886008701290881000800FD1C362E27
:100C58008B30A1008230A2008D31602586313E267E
:100C68008631392E8E314A2686318E312826280043
:100C780017150800FC3021009905190887393838FC
:100C8800990099131A1D462EFD100800A10028008E
:100C98001E1187309E05FC309E0520309D002000E7
:100CA8002108031D5A2E203028009D002000931192
:100CB80021000D138D1322000D178D1708006034C5
:100CC8008134663481346C348134723481346034D4
:100CD80054349C34213402345234043403340A34F6
:100CE8000A340A340A340434FA3406340634103424
:100CF8000434103402341034083410340434073403
:100D08000A34103401340734FE3406342830230002
:100D18008C008D0188313120283021008C00013071
:100D28008D0080308E0024008D010830900008006E
:100D38009231582A9231582A92315A2A92315A2A93
:100D480092315B2A92315D2A9231612A9231762A58
:100D58009231632A303431343334353436343734CD
:100D680038343934453446344434423438343934E8
:100D780036343734FE0012001E000130FE02003007
:100D8800FF3B7F087E0403190034BF2E6400013046
:100D980080010131FE020030FF3B7F087E04031909
:100DA8000034CB2E30302000980418102100111088
:100DB80020001110970196010800E22E0D0821006D
:100DC8004508031908000330C5018B31832B943182
:100DD800FA2C9431FA2C9431FA2C9431FA2C94315F
:100DE800FA2C2100171402308B31832B2100C30108
:100DF800C201080002309131F1290C309131F129FA
:080E080009309131F1290800C5
:10100400FD1808284A2688312826883150302000C7
:10101400A1008230A20060258831372088310B136B
:101024008B139310280017113120883121001517D4
:101034000B168B101708C1392438970017148B1816
:101044002528630021285D2688310B120230832372
:101054008831B5302000A1008230A200602D4030DC
:1010640022008C008D008E01080000302000A100B9
:101074008230A2006025883122008E122100911254
:1010840045208831502823001D12C901C801CA0116
:101094004E2023001D1608000830DF2B9C30F81268
:1010A4007813F8132100E4002130E5005230E70002
:1010B4000230E60008009C30B501B50AA1002130D9
:1010C400A2002C30A300352288312208B700210861
:1010D400B600B60A0319B70A79102200C401CA017E
:1010E40020003708A5003608A4000230A600142208
:1010F40088312200C00020003608023EA4000030DF
:10110400373DA5000230A600142288312200C10018
:1011140020003608043EA4000030373DA50002300C
:10112400A600142288312200C20020003708A20041
:101134003608A1002C30A300352288312208B700DC
:101144002108B600B60A0319B70A3608860037081C
:10115400870056300106031DB3282200C301C30AC9
:10116400BE28360886003708870041300106031D73
:10117400BE282200C301791418302200400203184B
:10118400CB283C3041020318CB283C304202031CDC
:10119400CE282000B501791020003708A2003608B7
:1011A400A1002C30A300352288312208B700210881
:1011B400B600B60A0319B70A36088600370887004E
:1011C4002C300106031928292200C401C40A200076
:1011D4003708A5003608A4000230A600142288317E
:1011E4002200C50020003608023EA4000030373D2E
:1011F400A5000230A600142288312200C600200077
:101204003608073EA4000030373DA5000230A60092
:1012140014228831B3000230B401A6003608053E1A
:10122400A4000030373DA50014228831AC0064309E
:10123400AD01AE00AF010524883133082C0722002C
:10124400C700200034082D3D2200C80020003708C4
:10125400A2003608A1002C30A300352288312208D0
:10126400B7002108B600B60A0319B70A2200440BD6
:101274005229200036088600370887004E300106C0
:10128400031D47292200C901522936088600370860
:10129400870053300106031D52292200C901C90ADF
:1012A40020003708A2003608A1002C30A300352204
:1012B40088312208B7002108B600B60A0319B70A14
:1012C40036088600370887002C3001060319AC293C
:1012D4002200CA01CA0A20003708A5003608A40063
:1012E4000330A600142288312200CB0020003608E7
:1012F400033EA4000030373DA5000230A6001422AE
:1013040088312200CC0020003608083EA4000030BA
:10131400373DA5000230A60014228831B300023004
:10132400B401A6003608063EA4000030373DA500EF
:1013340014228831AC006430AD01AE00AF01052445
:10134400883133082C072200CD00200034082D3DBD
:101354002200CE0020003708A2003608A1002C305D
:10136400A300352288312208B7002108B600B60A46
:101374000319B70A22004A0BD62920003608860032
:101384003708870057300106031DCC292200CF01FE
:10139400CF0AD6293608860037088700453001066B
:1013A400031DD6292200CF017C1DF7292000350B0F
:1013B400F7294B228431EB248831013A031DFB29A0
:1013C40021003D082000A40021003C082000A300C7
:1013D40021003B082000A20021003A082000A100BF
:1013E400923115228831FC14FB29791CFB294B22EC
:1013F400883121000A30EC0A6C02031C0800AB306F
:10140400EC012000A1008130A200602588319C30CD
:10141400A1002130A20060258831AB30A1008130C9
:10142400A200602DA901AA01AB012F2A26082A02D5
:101434000318332A2A08A700A801240786002808CD
:10144400253D87000108D03EAB000A30A1002908E1
:10145400BA2788312B07A900AA0A0A302B02031CD9
:10146400182A290808002108860022088700010894
:101474000319482A21088600220887000108230648
:1014840003190800A10A0319A20A352AA101A2011D
:101494000800220040082000A1000E30A201A30190
:1014A400A401A801A701A6001030A500C727883110
:1014B40024082100BD00200023082100BC002000D6
:1014C40022082100BB00200021082100BA002200CC
:1014D40041082000AC003C30AD01AE00AF01052452
:1014E4002C082100BA0720002D082100BB3D003044
:1014F400BC3DBD3D220042082100BA07013003185B
:10150400BB070318BC070318BD070800C630A100B9
:101514008230A200602588316A268831053A031D8D
:1015240008007F2621000030B0019231D02288319A
:1015340000307C1421002702043003192602031C06
:10154400AF2A27082000D800210026082000D70051
:10155400FD30D707FF30D83DEE2D37208831993044
:101564002000A1008230A2006025883121002608D5
:101574002704031DC32A01307D136D2688310430EE
:10158400832B27082000D800210026082000D7003C
:10159400EE25883101307D176D2688310630832B86
:1015A400AB302000A1008130A20060258831FF2AE1
:1015B400F0302000A1008230A2006025883105307F
:1015C4007D14832388310B2B9231B0228831033070
:1015D4002000D700D801EE258831063083238831D6
:1015E400F3307D172000A1008230A20060258831ED
:1015F4000B2B0430832388310B2B6A268831053A60
:101604000319E62A033A0319FB2A013A0319DA2AD1
:101614000B2BAB302000A1008130A200602D633081
:10162400840086308500DA30860000308700003080
:10163400FF0015308631BE268831AE3084008630F6
:1016440085005A308600013087000030FF001030DA
:101654008631BE2688317830840086308500CB30D0
:101664008600013087000030FF0012308631BE262C
:1016740088319C308400213085005430FE000030D5
:10168400FF008631CA268831F801F901FA01FB010D
:10169400FC01FD01A0308400003085003A30FE00DA
:1016A4000030FF008631CA268831203084000130A2
:1016B40085003A30FE000030FF008631CA268831AA
:1016C400A0308400013085002B30FE000030FF0084
:1016D4008631CA26883120308400023085001A30D1
:1016E400FE000030FF008631CA2688317E102000BB
:1016F4007B2B1A248831013083238831982380314D
:1017040055282000A70021004208C30020002735E7
:10171400CB3E860001308700413F8A00403F0A00EB
:101724008B31200027082100C200080020001F3050
:10173400EB01EC013F00ED002000ED01ED0AEE01AC
:10174400EF016400210048084904031DAB2B640029
:10175400A42B49082000EC00210048082000EB00DD
:101764006D086B05E7006E086C05E8006704031D4F
:10177400BF2BED35EE0DEF0AB22B6F08AC00033032
:10178400AD01AE00AF0105242D0885002C088400AE
:101794005B3084078030853D003FE900013FEA006B
:1017A4008A0069080A0008308B3120006F0603198B
:1017B4009E2B6F08DF2388319E2B2000A50000306C
:1017C4008B1B0130A6008B132508A1008A30A201CF
:1017D400A135A20D210784008030223D8500003F01
:1017E400A300013FA400A309A40923082100C805FC
:1017F400200024082100C9052000261C032C8B1777
:1018040008008B130800B001B1012C1C0D2C2E080C
:10181400B0072F08B13DAE35AF0DAD36AC0C2C087A
:101824002D04031D072C3108AD003008AC0008005E
:1018340064004A26013086314A2688318631D6260C
:1018440088318930A1008130A2006025883131308F
:10185400A1008230A20060258831F630A1008230D8
:10186400A200602588316230A1008230A200602588
:101874008831AB30A1008130A20060258831EC278B
:101884008831FD279E314226883186318A26883167
:1018940028268831642688315D268831EE279F31D9
:1018A400042F2000B90023001E129F151E151930A5
:1018B4002000A1008230A20060258831962CCA3015
:1018C400A1008230A20060258831033023009C00EF
:1018D4004030832CCE30A1008230A20060258831B4
:1018E40023009C018A30832CC130A1008230A200E5
:1018F4006025883123009C014430832C23009C0103
:101904000C309B00A42C3D30A1008230A200602545
:101914008831B8013908303EB7003730A1000030B3
:10192400A20060258831A42C3908003A0319612CDF
:10193400013A03196C2C033A0319762C013A031962
:10194400802C852CAB302000A1008130A2006025C2
:101954006430AD00AE019531A02D76268831220881
:10196400E6002108E5000A30B200B3016608AD00C4
:101974006508AC000F30AE00AF01052488312D0896
:10198400B5002C08B400032688313308E600320879
:10199400E500003066021E30031965020318D52CD9
:1019A4001E30E500E6017F26883121004C1B4C1DCA
:1019B400E92CA430860006308701A03E840085010E
:1019C400403F0007A6000131413F003DA700270822
:1019D40020006602031DF22C210026082000650267
:1019E40003180D2D210027082000D8002100260807
:1019F4002000D7006508D7026608D83BEE25883159
:101A04009230A1008230A2006025883105307D1417
:101A1400722688311A2D210027082000D8002100C1
:101A240026082000D700EE2588310530832388312D
:101A3400AE302000A1008230A20060258831210050
:101A440026082000C700210027082000C800C9017B
:101A5400CA01DC258831AB30A1008130A2006025A9
:101A640088315930A1008230A20060258831650890
:101A7400C7006608C800C901CA01DC258831AB303B
:101A8400A1008130A200602588310D30A100823090
:101A9400A20060258831210028082000C700210009
:101AA40029082000C800C901CA01DC258831AB30EF
:101AB400A1008130A20060257D1708002030A60116
:101AC400B20128009D002000A8010130B1002108C6
:101AD40084002208850012000319080060302602E1
:101AE4000318080021088400220885000008A400C7
:101AF400A701A70AB201B20A240827050319892DF0
:101B04003208283E86000130870181008E2D32087C
:101B1400283E8600870181010930A735B20A3202C6
:101B2400031C7E2D28001E119C0100308B1B0130EC
:101B34002000A5008B139311FB00080E2200BC00AB
:101B4400030EBB000408BD000508BE000A08BF0060
:101B540028308400003085000A30FA008D312800D6
:101B64001E151200090C2200031C0D1303180D1777
:101B740020009311931DBC2DFA0BB32D22003D08B8
:101B840084003E0885003F088A003B0E83003C0E1B
:101B94008800FB0E7B0E28001E1120009311251CCB
:101BA400D52D8B17D62D8B132000A10A0319A20A59
:101BB400A60A692D4A08B2004908B1004808B000D5
:101BC4004708AF004B30B3008231FB2288314B30E1
:101BD400A1000030A200602D58082100A9002000B7
:101BE40057082100A800A7302000A1008230A200DD
:101BF400602588315708C7005808C800C901CA01C0
:101C0400DC2DB601B701320833040319232EB801C1
:101C1400B80AB31B102EB235B30D0A2EB635B70D64
:101C240033083502031D182E32083402031C1F2EFC
:101C34003208B4023308B53B3614B336B20CB80BD1
:101C4400102E3708B3003608B20008002800171118
:101C5400FD1C3A2E0330970417088739483897003B
:101C6400FA3096000A302100EA0085309500080019
:101C74001708FC390238970017088739503897003D
:101C84008E30960001302100EA008830950008006B
:101C9400FC30210099051908873970389900991783
:101CA4001A1E522E9A1D542E0530FD142000AD002C
:101CB400AE019531A02D21001708C1391C389700B9
:101CC4001710080002302100C500C601C701080032
:101CD4002100420808002000A1002100CD000800D6
:101CE400A1002100C4000800220035082000A20041
:101CF400220034082000A10008002000E101E201D4
:101D0400E301E4019731752788312408E4002308AE
:101D1400E3002208E2002108E1000F30CE00210098
:101D24002E0820004E02D800D901031CD903DA0181
:101D3400DB016108D8076208D93D6308DA3D64080D
:101D4400DB3DBD006308BC006208BB006108BA004B
:101D54005E27983150208831210024082000A100FA
:101D6400210025082000A200A301A4015B08A8000B
:101D74005A08A7005908A6005808A50085319425DB
:101D840088312208DF002108DE0021002E0820000F
:101D9400B200B3015F08B5005E08B4000326320840
:101DA400013ED60021002C02FF3E2000E00021006D
:101DB4002E082000A100A2015F08A4005E08A30071
:101DC4009A31DA228831210821002E022000D7001E
:101DD4006008AC00AD01AC1BAD0321002E0820004F
:101DE400AE00AF01052488312D08DD002C08DC008D
:101DF4005708DC070318DD0AE01F082F2100240818
:101E04002000DC07210025082000DD3D5D082100BD
:101E1400A70020005C082100A60020006108CE0075
:101E24006208CF006308D0006408D10021002608AE
:101E34002000D200210027082000D300D401D501BE
:101E44005208CE075308CF3D5408D03D5508D13D24
:101E540051082100A300200050082100A200200006
:101E64004F082100A10020004E082100A0002308F3
:101E74008030031D452F20025130213B0130223B8D
:101E8400031C4C2F8030A007AE30A13DFE30A23D94
:101E9400FF30A33D23082000BD00210022082000BC
:101EA400BC00210021082000BB00210020082000E4
:101EB400BA005E27983150283D08C5003C08C4008C
:101EC4003B08C3003A08C2000E30B001AF01AE00B7
:101ED4001030AD004508B4004408B3004308B20014
:101EE4004208B1009331DE2388312D082100D70048
:101EF4003C302000AD00AE01AF01B0012100570815
:101F04002000A100FF30A201A301A401A800A700A2
:101F1400F130A600F030A500C72721084207BE0013
:101F24002208433DBF002308443DC0002408453D2A
:101F3400C100B4004008B3003F08B2003E08B1003D
:101F44009331DE2388312D082100D800C4302000CD
:101F5400A10021005808BA278831BE00F030A10042
:101F640021005708BA273E0742072100D90008007C
:101F74002000A300A20121082318A207A135A3363B
:101F84002308031DBD2F22080800A901AA01AB01E3
:101F9400AC01211CD52F2508A9072608AA3D27082E
:101FA400AB3D2808AC3DA535A60DA70DA80DA4365C
:101FB400A30CA20CA10C2408230422042104031D55
:101FC400CB2F2C08A4002B08A3002A08A200290860
:101FD400A10008000030832B023053248831F827F5
:101FE40022008E1695312E258E12080023009D178F
:0C1FF4001D169E160800C801C901080057
:102004000930F1290B30F1290030F1290A30F12986
:102014000D30F1218831312863308531FF2590312D
:1020240063088D282000D7019A279031B330A1008E
:102034002130A2002630A3008130A400A7269031CD
:1020440076209031D800FD272000D700303ED10003
:1020540058089C3ED2002130D301D33D520886005B
:1020640053088700510881005808013E8531CA256C
:10207400903120005808D1009E30D201D300213085
:10208400D40051085307D5005208543DD6005508D2
:102094008600560887003C3081005808D1009F30E4
:1020A400D201D3002130D40051085307D50052087F
:1020B400543DD6005508860056088700203081001C
:1020C40076209031D8009C30A1002130A20058081D
:1020D400A1070318A20AEF30A3008030A400A726AA
:1020E400903176209A318F2A9C30A301A1002130AF
:1020F400A20084285230230203188B28A30AA10AC1
:102104000319A20A21088600220887000108031D7A
:102114007C2823080800E200E101F91908002430B2
:1021240078156206031DA62888315020F816640825
:102134008600650887002000620881002100E40A07
:102144000319E50AE7030800F81E080021006408E3
:102154008600650887002000620881002100E40AE7
:102164000319E50AE703F81FE528E6036608031DDB
:1021740007299C30FC102000A1002130A20021007E
:102184006708523C2000A3000D219031013A031D41
:10219400D8287816210067080319D5286408860012
:1021A40065088700810122003908552288315020B2
:1021B4009031BB219031003A0319FC1CE32807300D
:1021C400F121FC100800781FEE282A302000620656
:1021D400031D0729F81707294C306706031D072933
:1021E40064088600650887009C3081012000A600F1
:1021F4002130A7006F219031013A031D042978177B
:10220400F815072988315020903121006708031DF3
:10221400080088315028A601A701A10A0319A20ABF
:10222400AA01AA0A2308FD3EA400FF3003180030C7
:10223400A500803A803C031D212924082A020318A2
:102244002E29200021088600220887000108A606FE
:10225400A10A0319A20A13292000AA01A10A031939
:10226400A20A2108860022088700473001022A08B2
:10227400031C4629283E8600870121088400220881
:1022840085000008DF394E29283E86008701210891
:102294008400220885000008D03E81002A08283ED8
:1022A40086000A3087010102031C62292A08283E9D
:1022B40086002A08283E840085010008F93E810032
:1022C4000230AA0A2A02031C3029280EF0392904F4
:1022D400A7002606031901340034AC01AB01AC019C
:1022E4002708A2002608A1002C08A800AA30A901EA
:1022F400A835A90D280784008030293D8500003FBA
:10230400A300013FA4009921903121082204031D58
:102314009129AB01AB0A2C082200B900962905309B
:10232400AC0A2C02031C722920002B080800A729E0
:10233400210886002208870001080319B529A10A8B
:102344000319A20AA30A0319A40A21088600220871
:102354008700230884002408850000080102A500E2
:10236400250803199A292508A100A201A11BA2038B
:102374000800F918791C00340A30F9107910D00AD1
:102384005002031C0034D003322290317C15791A98
:10239400D92947302000A1008230A2008D31602568
:1023A4009031791544229031022390317916FC182A
:1023B400ED2921003D082000A40021003C08200054
:1023C400A30021003B082000A20021003A082000BD
:1023D400A100152290310630FC10F12101342000B7
:1023E400A50000308B1B0130A6008B132508A1002B
:1023F4008A30A201A135A20D210784008030223D3C
:102404008500003FA300013FA40023082100C80465
:10241400200024082100C9042000261C132A8B173D
:1024240008008B13080000308B1B0130A5008B13B0
:1024340024082100B900200023082100B80020004E
:1024440022082100B700200021082100B6007D16D3
:10245400CF012000251C302A8B1708008B1308009D
:1024640000308B1B01302000A1008B136030210051
:10247400E2005430E3002000211C422A8B1708009C
:102484008B130800752724082200A70020002308C6
:102494002200A600200022082200A5002000210816
:1024A4002200A40008002000B8006C2A88315D28AE
:1024B4001D2C010008007911F910791008007D1411
:1024C40008000310FD1F0314031C6A2AFD170800EB
:1024D400FD130800380884000930040203180800BA
:1024E400863104359C3E820008008E316A26903184
:1024F400053A031D08008E317F26903100302100FB
:102504002702043003192602031C972A27082000F7
:10251400D800210026082000D700FD30D707FF305F
:10252400D83D8D31EE257D1708007D13B022903102
:1025340026082704031DA12A04308B31832B270886
:102544002000D800210026082000D7008D31EE2578
:10255400903106308B3183239031952A883137208E
:1025640090317C1CBA2A0130D02201308E316D2E7C
:10257400AC23903102239031210030080319CC1D83
:10258400CA2A0130D02202308E316D269031CE2AF3
:1025940003308E316D26CC11B00A08002000A6004D
:1025A4002608031DE12A2030A1000230A200403099
:1025B400A3000130A400EA222100CC150800403019
:1025C400A1000130A2002030A3000230A400EA2AB6
:1025D400210822040319080023082404031908000D
:1025E400210886002208870020002308840024088C
:1025F40085001A30A50012001E00A50BFD2A080054
:102604002000DB01DC01DD01DE01220023082702BA
:10261400031D162B22082602031D162B2108250252
:10262400031D162B2008240203183C2B80302000A5
:10263400D7005130D8000130D9000430DA01203EEF
:10264400860001308700403FD707413FD83D423FD5
:10265400D93D433FDA3D5A082200A700200059081B
:102664002200A600200058082200A50020005708D8
:102674002200A400200824022000D7002200210800
:10268400253B2000D80022003A35283E8600013040
:10269400870020005708C03F5808C13F22003A3540
:1026A400283E8600403FB600413FB700D8302000A6
:1026B400A1008130A2008D316025903122003A358D
:1026C400283E860001308700403F2000D700413F6C
:1026D400D8005708C7005808C800C901CA018D317D
:1026E400DC259031AB30A1008130A2008D31602512
:1026F4009031DF015F35283E860001308700403F7E
:10270400D700413FD8005708DB075808DC3D0030AC
:10271400DD3DDE3D0630DF0A5F02031C7C2B063004
:10272400AD00AE01AF01B0015E08B4005D08B300B6
:102734005C08B2005B08B100DE232E082200B5005D
:1027440020002D082200B4000630BA0A3A02031809
:10275400BA010800220020082000A100220021085C
:102764002000A200220022082000A3002200230847
:102774002000A400210024082000A5002100250831
:102784002000A600A701A8012508A1072608A23D4C
:102794002708A33D2808A43D24082200A700200000
:1027A40023082200A600200022082200A500200001
:1027B40021082200A4000800B501B601B701B80140
:1027C40030082F042E042D040319142CB901B90A5E
:1027D400B01BF12BAD35AE0DAF0DB00DE92BB535FA
:1027E400B60DB70DB80D30083402031D032C2F08A5
:1027F4003302031D032C2E083202031D032C2D0863
:102804003102031C0E2C2D08B1022E08B23B2F08F6
:10281400B33B3008B43B3514B036AF0CAE0CAD0C42
:10282400B90BF12B3808B0003708AF003608AE00FA
:102834003508AD00080021000B30D10A5102031CF9
:102844003A2CAB30D1012000A1008130A2008D319F
:10285400602590319C30A1002130A2008D3160258B
:102864009031AB30A1008130A2008D3160259031D0
:102874009C30F9102000A1002130A2002C30A300CC
:102884008A31352290312208B4002108B300B30AFA
:102894000319B40A33088600340887004D30010652
:1028A400031D572C2100CA0108003408A200330874
:1028B400A1002C30A3008A31352290312208B400C3
:1028C4002108B300B30A0319B40A33088600340894
:1028D400870033300106031D080003302100CB00BC
:1028E400F91408007C107D1EA22C8E317F269031B5
:1028F400003021002702043003192602031C8A2C0D
:1029040027082000D800210026082000D700992C91
:10291400A630860004308701A03E84008501403F34
:1029240000072000D7000131413F003DD800FD30B1
:10293400D707FF30D83D8D31EE2590317D17BC2C63
:1029440078302100A600A70127082000D800210024
:1029540026082000D700FD30D707FF30D83D8D3141
:10296400EE259031BB307D17A1008230A2008D315D
:1029740060259031BD2C8330A1008230A2008D31BE
:102984006025903102308C3153249031452FFB2443
:102994002000BD008E316A269031033A031D0800E1
:1029A40020003D08031DDE2C00308E316D26903151
:1029B400FC1AE22C0130E32C03308E316D26903169
:1029C4000230E9248831372004308B31832B2000F6
:1029D400A1002100B5000F30B4007C173508840035
:1029E400053004020318080086310435EB3E8200EA
:1029F40008004D269031781E062D2200CA30B801F9
:102A04002000A1008130282D7819182D02302200D1
:102A1400B800BC302000A1008130A2008D316025B7
:102A240090312E259031452790312B2DF819222DE8
:102A34002200AE30B801B80A2000A10081300F2D69
:102A44002200E630B8012000A1008130A2008D31BF
:102A5400602522003808080002302000BA00BB01BB
:102A64008B177330A1008230A2008D316025903124
:102A7400033027269031DE2590316400DE25903125
:102A840064002000BC01702DBA014D2DBA01BA0AB0
:102A94004D2D0230BA00BB013A088C3153249031D9
:102AA400D630A2008030A30005269031DE25903177
:102AB40004302000AD00AE01A025903122008E121A
:102AC40064302000AD00AE01A025903122008E16A6
:102AD40020000330BC0A3C0203187C2D3C08003A59
:102AE4000319462D013A0319482D033A03194B2DB6
:102AF4004E2D4E2D02308C3153249031E830AD00F0
:102B04000330AE00A02590313D269031E830AD0071
:102B14000330AE00A0259031522690310B30A20034
:102B24008130A30005269031D030AD000730AE00CF
:102B3400A0259031DE2522008E1208002D08A10068
:102B44002E08A2000330A301A401A801A701A60036
:102B5400E830A5008F31C72790312408B600230838
:102B6400B5002208B4002108B300FD18D52D20308B
:102B7400AF00B001B101B2013308AF073408B03D72
:102B84003508B13D3608B23D0630B236B10CB00C52
:102B9400AF0C890BC72D3208B6003108B5003008D8
:102BA400B4002F08B3003608A4003508A300340885
:102BB400A2003308A100BF2E00308B1B013020007F
:102BC400B3008B170B1722008C1722269031FD19A6
:102BD400F42D20008E1FF12D22008D17E92D2200E7
:102BE4008D13E92D4D2622008C13F3302000A10013
:102BF4008130A2008D3160259031331C032E8B1758
:102C040008008B130800A5012308A7002208A600CA
:102C14002608840027088500120003190800803064
:102C240025020318080026088400270885000008E8
:102C3400362690312000A60A0319A70AA50A0A2EEF
:102C4400252711142000181408002000A1001818CA
:102C540018102100E900B83E840080300318013EBA
:102C640085000008E8000800A100111E372E210885
:102C740023009A000800BC30A2008030A30005267F
:102C840090313230AD00AE01A0259031FD30A2006C
:102C94008030A300052E2000181021001110080018
:102CA4009C30A1002130A2003330A3008130A40065
:102CB400A7269031A630A1002130A2007D30A300C8
:102CC4008130A400A7269031AB30A1002130A200AE
:102CD4008630A3008130A400A726B80138085A3EE4
:102CE4008600013087000108B700A5308600213036
:102CF4008700370881003808623E8600013087006B
:102D04000108B700AA308600213087003708810007
:102D14009C30A1002130A2008D31602590319C307F
:102D2400A2002130A300052690316430AD00AE012D
:102D3400A02590310830B80A3802031C702E7B306D
:102D4400A1008230A2008D31602D2208A600210846
:102D5400A500250886002608870023088400240887
:102D640085000008C03F890803190800A50A031953
:102D7400A60AA30A0319A40AAB2E2408031DCB2E0A
:102D84002308031DCB2EE83021020330223B031C11
:102D9400EB2E0B30A6006230A500A50BCF2EA60BA0
:102DA400CF2E0000E8302000A1020330A23B003007
:102DB400A33BA43BBF2EC730A5000000A50BDF2E0C
:102DC4000032000064302000A1020030A23BA33B8B
:102DD400A43B2408031DDD2E2308031DDD2E220839
:102DE400031DDD2E64302102031C052FDD2E1A3055
:102DF400A500A50BFB2E00000A302000A102003024
:102E0400A23BA33BA43B2408031DF92E2308031D66
:102E1400F92E2208031DF92E0A302102031C1E2F4D
:102E2400F92E003200320032003201302000A102BB
:102E34000030A23BA33BA43B240823042204210426
:102E440003190800132F0030200018180130A100C6
:102E540000302100111801302000A2001810FD11CB
:102E640021006808EE002000111097019601210C42
:102E7400031C181003181814220C2100031C111031
:102E8400031811140800F801F90188315020903119
:102E94008F31F82790312100911622008E16E830E8
:102EA4002000AD000330AE00A02590312100013098
:102EB400D00127269031222690317527903124089D
:102EC4002200A300200023082200A20020002208E0
:102ED4002200A100200021082200A000643020006C
:102EE400AD00AE01A02D00308B1B01302000A900E5
:102EF4008B13210039082000A80021003808200085
:102F0400A700210037082000A60021003608200071
:102F1400A500291C8F2F8B17902F8B1320002808B6
:102F2400A4002708A3002608A2002508A100080081
:102F3400983117209031CF014F08363E9E31D52667
:102F440090312000C8004F089C3EC9002130CA01BE
:102F5400CA3D490886004A088700480881000430B1
:102F6400CF0A4F02031C9E2FD00150083A3E9E31D7
:102F7400D52690312000C8005008C900A130CA01EC
:102F8400CB002130CC0049084B07CD004A084C3D0A
:102F9400CE004D0886004E0887004808810007309F
:102FA400D00A5002031CB72FA030860021308700BE
:102FB4003E308100AE3086003E308100A83086006D
:102FC4002C308100A93086003C308100B13086006D
:102FD4003C308100AC3086002E308100AF3086005A
:102FE40056308100B030860042308100B230860015
:0C2FF4002030810008002200380808008E
:10302E00210033082000C4004530B9000030BA003A
:10303E004408BB000330BC00BD018321AA308600CA
:10304E0021308700450881004608C300AB3086005A
:10305E00430881004708C300AD3086004308810055
:10306E000800210017100030FA229831043046274C
:10307E00983121001714FE279831033A031D4A2870
:10308E0005308B31832B07308B3183239831883178
:10309E00312843302000B9000030BA002100570813
:1030AE002000BB000230BC00BD01832198313A30B4
:1030BE00C500C8004630B9000030BA0021005808DB
:1030CE002000BB000230BC00BD0183219831493085
:1030DE00B9000030BA00210059082000BB000230B0
:1030EE00BC00BD01BD0A832900308E316D2698319A
:1030FE000030FA226400E8302000AD000330AE004C
:10310E009531A02598310430462703308E316D2637
:10311E0098310030FA226400E8302000AD00033010
:10312E00AE009531A0259831023046279831200007
:10313E007B2897319A279831BE3086002130870040
:10314E003E308100CE3086003E308100D830860081
:10315E003E308100B23086002C308100BD308600BA
:10316E002C308100C13086002C308100CD3086009D
:10317E002C308100D13086002C308100C03086008A
:10318E003C308100D03086003C308100B830860063
:10319E002E308100C83086002E308100B53086007A
:1031AE003A308100C53086003A308100D930860031
:1031BE0048308100BF3086004E3081002200490B1E
:1031CE00EC28BF30860053308100CF30860021308E
:1031DE008700453081004F0BF828CF3086005730DE
:1031EE008100B3302000B9002130BA00220045081A
:1031FE002000BB000230BC00BD0183219831B630E7
:10320E00B9002130BA00220046082000BB0002306F
:10321E00BC00BD0183219831C230B9002130BA0003
:10322E0022004B082000BB000330BC00BD018321EF
:10323E009831C630B9002130BA0022004C08200067
:10324E00BB000230BC00BD01832197317527983138
:10325E002408BD002308BC002208BB002108BA00C8
:10326E008F315E279831D2302000B9002130BA005C
:10327E00210057082000BB000230BC00BD01832195
:10328E009831D430B9002130BA00210058082000FE
:10329E00BB000230BC00BD0183219831D630B9008D
:1032AE002130BA00210059082000BB000230BC00BA
:1032BE00BD0183219831B930C3002130C4002200F2
:1032CE0048082000C600220047082000C500043030
:1032DE00C700C80108229831C930C3002130C4008C
:1032EE0022004E082000C60022004D082000C50016
:1032FE000430C700C801082A64303B02031C8B2926
:10330E0003303C0203189E2964303B020A30031836
:10331E0098293B02031C972902303C0203189E2970
:10332E000A303B02031808003C08031908003D0B45
:10333E00A9293C08BE00BF01390786003F083A3D67
:10334E008700810102303C020A30031CCB29BC03EA
:10335E00A1003B08D8219831C2000A30A1003B08D9
:10336E00F0219831BB003030C2073C08BE00BF01CF
:10337E003907C0003F083A3DC100400886004108A9
:10338E00870042088100A929A1003B08D821C2006C
:10339E003030C207390886003A088700420881009B
:1033AE000800A3000830A400A5012308A2000730DE
:1033BE00A236890BDF2925352204A500A335210865
:1033CE002502031CEC292108A502A40BDC292508E3
:1033DE000800A200A40121080319062AA301A30ACA
:1033EE00A11BFB29A135F629A43521082202031CB5
:1033FE00032A2108A2022414A136A30BFB292408B8
:10340E00080027304602103003194502031C132A08
:10341E000530470203181E2A2730460210300319C2
:10342E0045020318080004304702031C0800440834
:10343E00BA004308B9006430B200B3014608B500C3
:10344E004508B4008E31032698313208BB00470878
:10345E00FE3EBC004808BD00832198314408BA00E6
:10346E004308B9004708B9070318BA0AFE30B9076E
:10347E00031CBA036430A100A2014608A40045084B
:10348E00A300DA2298312108BB000230BC004808A4
:10349E00BD00832997319A279831B330A10021308E
:1034AE00A2001930A3008130A4009631A7269831CE
:1034BE00903176209831D3009C30A1002130A200AB
:1034CE005308A1070318A20AEF30A3008030A4000E
:1034DE009631A72698318F2290317620D3009C3ECC
:1034EE00D1002130D201D23D51088600520887000A
:1034FE0020308100D30A53089C3ED1002130D201E6
:10350E00D23D510886005208870020308100080005
:10351E001130C1000230C200DE262308BF0022088F
:10352E00BE00903176209831BD00C0014208B30034
:10353E004108B2003F08B5003E08B4008E310326A4
:10354E0098313208BC00413EB9003D089C3EBA009D
:10355E002130BB01BB3D3A0886003B088700390885
:10356E008100BD0A4208A2004108A1003F08A40044
:10357E003E08A300DA222208BF002108BE00173041
:10358E00B200B3014208B5004108B4008E310326E3
:10359E0098313308C2003208C1000330C00A40021D
:1035AE00031808009D2A210822040319F52AA501F3
:1035BE00A50AA21BE52AA135A20DDF2A22082402A4
:1035CE00031DEB2A21082302031CF12A2108A30262
:1035DE002208A43BA236A10CA50BE52A2408A200C2
:1035EE002308A1000800152698312000D9000030CC
:1035FE00DD012100111801302000DA002100111028
:10360E0000308B1A01302000DB008B12FC13EB24F0
:10361E009831CA249831053020005D020318292BF9
:10362E0070239831D6239831013A031D212B053092
:10363E00DD00122B22000E152000DD0AFC172200E1
:10364E000E11122B1726983122008D110D15200008
:10365E00DC0159085C0203183D2BB030AD0004307C
:10366E00AE009531A0259831DC0A302BE12498313B
:10367E0022000D1566236B302000A1008230A200BF
:10368E008D31602598319C30A1002130A2008D3102
:10369E0060259831AB30A1008130A2008D316025BC
:1036AE0098312D265A0C2100031C111003181114E9
:1036BE0020005B0C031C8B1203188B1608000C12D7
:1036CE000C170E110C108C100C110D120D118D11FA
:1036DE00080000306F2498312F2498317830200064
:1036EE00A4008130A5000530A600AE2398318230AB
:1036FE002000A4008130A5000430A600AE2398312E
:10370E002000AB012B086F2498312F249831200014
:10371E002B35DA3E86008701403FA400413FA500CD
:10372E000630A600AE23983120002B08AC24983129
:10373E00D230A4000030A5000530A600AE2398318B
:10374E0020000230AB0A2B0203180800892B22003E
:10375E000C102000AA012A08A700A801A71BA80385
:10376E002808803AA90080302902031DC02B2608A4
:10377E0027020318D32B20002A08A700A801A71B95
:10378E00A8032408270784002508283D8500000883
:10379E008E249831AA0AB22B22000C142F2C003042
:1037AE00AC01AC0A6F2498312F2498317830200068
:1037BE00A4008130A5000530A60039249831003AC6
:1037CE00031DEB2B2000AC012F24983182302000FA
:1037DE00A4008130A5000430A60039249831003AA7
:1037EE00031DFB2B2000AC012F2498312000AD01CE
:1037FE002D086F2498312F24983120002D35DA3E74
:10380E0086008701403FA400413FA5000630A60078
:10381E0039249831003A031D162C2000AC012000EB
:10382E002D08AC249831D230A4000030A50005300C
:10383E00A60039249831003A031D272C2000AC0134
:10384E0020000230AD0A2D02031CFF2B2C080800AD
:10385E0020001C1522000D1620001C19332C2200EE
:10386E000D12080024088400250885000008803801
:10387E00AA00A901A90A22000C1020002A088E24F1
:10388E00983121008C142000AB01AB0A26082B02C4
:10389E000318682CFD259831AA002508A8002408D5
:1038AE00A7002B082707840028080318280A85007C
:1038BE0000082A0603194C2C22000C1421008C102F
:1038CE00003422000C1421008C102000290808005E
:1038DE002000A20022360139A100A10DA10DA10DDB
:1038EE0022000D0820002106F739210622008D0046
:1038FE00200022080139A100A10DA10D22000D0802
:10390E0020002106FB39210622008D000800A100AF
:10391E008030A200A30122000C11200021082205F4
:10392E0003199C2C22008C149E2C22008C1000005B
:10393E00000022000C150000000020000830A23606
:10394E00A30A230203180800922CA200B43E84009E
:10395E0080300318013E85000008A3000B302100C3
:10396E00D2002000A4012408D33E8600870123083C
:10397E002407D5269831810020000430A40A2402A1
:10398E0003180800BA2C20001C1187309C05FC304F
:10399E009C05A0309B009A019110210091142200E9
:1039AE000C166E302000AD00AE019531A025220020
:1039BE000E11080090317620A400EE3086002130E2
:1039CE008700240881000800FE2498312100B300EE
:1039DE004C1FF72C32083302031CF72C4C13080033
:1039EE004C1B08003308310203184C1708008230B4
:1039FE0022009700171F012D1F302000B900013043
:103A0E00552598313A08D1003908D0002200971375
:103A1E0004302000B9000130552598313A08CF0006
:103A2E003908CE00500851040319412D5008AD003D
:103A3E005108AE00AF01B0014E08A1004F08A20020
:103A4E002030A301A401A801A701A6000C30A500F7
:103A5E008F31C72798312408B4002308B3002208F9
:103A6E00B2002108B1009331DE2398312E08CC002C
:103A7E002D08CB004F082100AB0020004E0821007E
:103A8E00AA0064302000B200B3014C08B5004B0808
:103A9E00B4008E3103263208CD000800BD00FF3081
:103AAE00C801C80AC101C201C301C401C500C600D4
:103ABE006030C70121009E0020003D0C2100031C38
:103ACE009E1303189E1720003908BB00BB0DBB0DBB
:103ADE0021001D0820003B0683393B0621009D0076
:103AEE001D1442302000BB00BB0B7B2D00000430A8
:103AFE00200039060319872D1F303906031D912D1D
:103B0E004230BB00BB0B892D000012302000C800D4
:103B1E00C701C70AC001480840020318CB2D1A304E
:103B2E00BB00BB0B982D000021009D14000021004E
:103B3E009D189E2D1C082000CA00C90121001B08DB
:103B4E002000C9070318CA0A470BC52D4A084402AC
:103B5E00031DB32D490843020318B92D4A08C400AA
:103B6E004908C30046084A02031DBF2D45084902F5
:103B7E000318C52D4A08C6004908C5004908C107E3
:103B8E004A08C23DC00A922D21001D102000470B8D
:103B9E00EB2D43084507BB004408463DBC00BB095E
:103BAE00BC09BB0A0319BC0A3B08B4003C08B500AB
:103BBE004108B4074208B53D4808B200FE30B301D3
:103BCE00B207FF30B33DF22D4808B200B3014208F0
:103BDE00B5004108B4008E3103263308BF00320809
:103BEE00BE003F08BA003E08B90008008030A101AF
:103BFE00A200A30122000C110000000022000C15EF
:103C0E0000000000200022088C18A1040830A23603
:103C1E00A30A2302031C012E210808002F08080006
:103C2E002D26983121004D08003A0319282E013A0D
:103C3E000319292E033A0319292E013A03192A2EA4
:103C4E002C2E512AA028903114280800A1012108F9
:103C5E00803A313E03183C2E21089C3E86002130CE
:103C6E008701873D8101A10A2E2EEE30860021307C
:103C7E008700810108002000C3012100CC01200033
:103C8E00C40144083E3ED5260F392000C1000A303B
:103C9E00A10043088F31BA2798314107C300033082
:103CAE00C40A4402031C482E43082100AC004230D3
:103CBE00D52698312100AE004330D526983121000B
:103CCE00AF004730D5262100AD002E082000AC00F5
:103CDE00AD0121002D082000AE00AF018C3105246E
:103CEE0098312D082100A50020002C082100A400E9
:103CFE004830D52698312000C100C201C135C20D11
:103D0E00C135C20D4108B9004208BA00B427983136
:103D1E002100B100053EB2004430D5269831210075
:103D2E00C1004530D52698312000C5002100BF00C6
:103D3E000F30BF052000450E0F392100BE000F3099
:103D4E00BE053F08C0004630D52698312000C5007C
:103D5E004518B32E21004C152000C51CB82E21008D
:103D6E004C162000451AFD16C51E7D1521004C1E51
:103D7E00C42E01309131F1219831DE2698312F3049
:103D8E002302873003192202031C08000130A1010F
:103D9E008D27983120000030A1018D2F2000A10029
:103DAE002300910092019513151413080800013099
:103DBE00D52698312000A600A5000030A401D526F6
:103DCE002000A600A4070318A50A2508A3002408AE
:103DDE00A20008002100C801C901FD18FC2E8E3179
:103DEE004A2698318E31282698310427A03020009B
:103DFE00A1008230A2008D31602DFC018E3164262F
:103E0E009831262798317D127D131D279831B001E8
:103E1E00AE2798310B118B120B178B1720009310B6
:103E2E0021009314280017150230462F2100B601E9
:103E3E00B701B801B9010A30EB007C110800791105
:103E4E002200BA01A001A101A201A301A401A501B2
:103E5E00A601A7012000A1012135283E86000130D0
:103E6E0087001E30C03F0030C13F0630A10A21023C
:103E7E00031C332F1E302200B400B50108002000B1
:103E8E00D200FE249831D3000230D526983120007E
:103E9E00D600DE2698312308D5002208D40004303F
:103EAE005206031D622F73305302031C560B08007B
:103EBE000230A1018D2F79305302031C08005608E1
:103ECE00031D08000230A101A10A8D2798312F3061
:103EDE0020005502863003195402031C7E2F013038
:103EEE00A1018D27983120000030A1018D2FD40A19
:103EFE000319D50A5508D600A10001308D27983137
:103F0E0020005408D600A10000308D2FA2002300FF
:103F1E00910092012000210823009300951315159E
:103F2E0000308B1B01302000A3008B135530230073
:103F3E009600AA30960095142000230C031C8B13B8
:103F4E0003188B1723009518A92F15110800CC10F4
:103F5E00CC127C163F08C00008000930BB01BC0122
:103F6E00BD01BE01B200B3013A08AD003908AC0084
:103F7E000530AE00AF018C31052498312D08B50007
:103F8E002C08B4008E31032698313308C000320855
:103F9E00BF000230BF070318C00A3030B200B301B1
:103FAE003A08AD003908AC001130AE00AF018C31CB
:103FBE00052498312C08313EB40000302D3DB5005B
:103FCE008E31032698313308BC003208BB0007300F
:103FDE00B200B3013B083F07B4003C08403DB500BA
:103FEE008E3103263308BE003208BD000800430898
:023FFE000800B9
:020000040001F9
:04000E00CCEFFFDE56
:10E00000000000000000FF00FF00FF00FF00FF0015
:10E01000FF00FF00FF00FF00FF00FF00FF00FF0008
:10E02000FF00FF00FF00FF00FF00FF00FF00FF00F8
:10E03000FF00FF00FF00FF00FF00FF00FF00FF00E8
:10E04000FF00FF0015007000E0002200FF00150037
:10E050007000FA005900FF0015007000E000220077
:10E06000FF0015007000FA005800FF004400430054
:10E0700054004300300030003100310030003000E7
:10E080003200FF0006000100010028009400140087
:10E09000CF00FF00FF00FF00FF00FF00FF00FF00B8
:10E0A000FF00FF00FF00FF00FF00FF00FF00FF0078
:10E0B000FF00FF00FF00FF00FF00FF00FF00FF0068
:10E0C000FF00FF00FF00FF00FF00FF00FF00FF0058
:10E0D000FF00FF00FF00FF00FF00FF00FF00FF0048
:10E0E000FF00FF00FF00FF00FF00FF00FF00FF0038
:10E0F000FF00FF00FF00FF00FF00FF00FF00FF0028
:10E10000FF00FF00FF00FF00FF00FF00FF00FF0017
:10E11000FF00FF00FF00FF00FF00FF00FF00FF0007
:10E12000FF00FF00FF00FF00FF00FF00FF00FF00F7
:10E13000FF00FF00FF00FF00FF00FF00FF00FF00E7
:10E14000FF00FF00FF00FF00FF00FF00FF00FF00D7
:10E15000FF00FF00FF00FF00FF00FF00FF00FF00C7
:10E16000FF00FF00FF00FF00FF00FF00FF00FF00B7
:10E17000FF00FF00FF00FF00FF00FF00FF00FF00A7
:10E18000FF00FF00FF00FF00FF00FF00FF00FF0097
:10E19000FF00FF00FF00FF00FF00FF00FF00FF0087
:10E1A000FF00FF00FF00FF00FF00FF00FF00FF0077
:10E1B000FF00FF00FF00FF00FF00FF00FF00FF0067
:10E1C000FF00FF00FF00FF00FF00FF00FF00FF0057
:10E1D000FF00FF00FF00FF00FF00FF00FF00FF0047
:10E1E000FF00FF00FF00FF00FF00FF00FF00FF0037
:10E1F000FF00FF00FF00FF00FF00FF00FF00FF0027
:00000001FF
