:06000000000080316828B9
:100008007E14803123009D1C18281D120000230037
:100018001D1618282000911E1B2823001908F70018
:1000280077089131052180312100911A0E2821008D
:10003800911C23282000911C23281C1191108B1A35
:100048000B1D3D28F90A9031272080317906031DC0
:100058002F2822008C130A307902031C362822002C
:100068008C17F901F8183C2820001508053E950062
:100078000B112100931C5D282000931C5D28FC03B4
:10008800F81C49287C08031D5B2891312F218031F9
:10009800053091314F218031781C59280330913136
:1000A8004F2180312800171178100A30FC002000F9
:1000B80093102100111C66282000111C662891311C
:1000C800002111107E10090020000308A0008231D1
:1000D800AA2A0C300C259231DA2A0030C901C8014D
:1000E800CA2180311C150530BF2180315F22803143
:1000F800A4284E268031013A031DA228C80A3026BA
:100108008031C7005F228031912802308F28C901D1
:10011800C90A9C280330C9009C2847086E3A03196D
:100128008E281C3A03198928053A03198B289C281C
:1001380049080319A42834228031A4280430C900AE
:1001480020004908031DAC2805304802031C7D28FF
:1001580049080800D02680315A309A21803102306F
:10016800CE000430CD00BA30CC00CC0BB928CD0B72
:10017800B928CE0BB928000003302921803100307E
:10018800512280313422803111142000181414298E
:10019800233017228031013A031D232923300322FB
:1001A8008031003A031D2329182780310030292186
:1001B80080312329043017228031013A031D232975
:1001C800043003228031003A031D2329D8268031C8
:1001D800013A031D0C29CF014F089C3E86002130AF
:1001E8008701873D0108A1004F08A13E840098308F
:1001F8000318013E850000083025803120000330B7
:10020800CF0A4F02031CF02801302921803123290D
:1002180002302921803123290030292180312329E6
:1002280071208031013A0319CC28033A03191029A7
:10023800013A0319DE28073A03192329232918103C
:100248002100111020001C1108002000A600003019
:10025800A701A901CA2180311C151430BF218031A2
:100268000130CA2180318A29A8012808893E8400E2
:1002780098300318013E85000008E32480312000EF
:10028800A900A7069A2180312230A80A280203185B
:1002980098293929A8012808A13E84009830031814
:1002A800013E85000008E32480312000A900A7064C
:1002B8009A2180310330A80A2802031898294F2967
:1002C8006530A7069A218031A930840098308500CE
:1002D8000008E32480312000A900A7069A21803174
:1002E8005530A7069A2180319829A8012808383E58
:1002F8008600013087000108A900A7069A218031ED
:100308000630A80A2802031898297A292608003AEC
:1003180003193829013A03194E29033A03196429A4
:10032800013A03197929982927089A29A4001C1148
:100338009A0191101C1522008C170630BF218031BC
:10034800A5012408A300250AAA29A336890BA929EF
:100358002318B12922008C17B32922008C130630E8
:10036800BF2180310830A50A2502031CA5292200D7
:100378008C130630BF292000A100A200220803190F
:100388000800911CC529A2039110C229A1005F226F
:100398008031F4291C08FC3901389C001C08873975
:1003A80070389C00FA309B0008001C08FC390138A2
:1003B8009C0087309C05D6291C08FC3901389C0014
:1003C8007D309B0087309C0508001C08FC390138EB
:1003D8009C0060309B001C08873938389C00080056
:1003E8002108003A0319CE29013A0319D929033AF9
:1003F8000319E029013A0319E929022A0800A10092
:10040800A301A201A301210823020318152A230826
:100418009C3E860021308701873D0108A206A30A79
:10042800072A22080800CA00CB01CB014A084B0260
:10043800031801344E268031013A031D003430265A
:100448008031C7004B089C3EC8002130C901C93D16
:10045800480886004908870047088100CB0A1A2AFD
:10046800003018180130A1000030210011180130A7
:100478002000A2001810F8116F08FD001110970154
:100488009601210C031C181003181814220C2100C3
:10049800031C11100318111408002000A1001818DB
:1004A8001810FB00D93E840098300318013E8500DF
:1004B8000008EF0008001C119A01911008002000A4
:1004C800CA0051258031CB000230E324803120005E
:1004D800CE00F92480312308CD002208CC00043056
:1004E8004A06031D7F2A73304B02031C4E0B08007B
:1004F8000230A101302D79304B02031C08004E0850
:10050800031D08000230A101A10A302580312F30D7
:1005180020004D02863003194C02031C9B2A01302F
:10052800A1013025803120000030A101302DCC0AF6
:100538000319CD0A4D08CE00A100013030258031C5
:1005480020004C08CE00A1000030302D0330FB0005
:100558000A30FC001E30FD005230EE001E30EF0065
:1005680021009C30EA002130EB000230EC00E13041
:10057800ED000A30EE000130EF008E30840090303C
:10058800850020308600013087000030FF002830C9
:100598009031572080316330840090308500CB3013
:1005A8008600013087000030FF001230903157205C
:1005B80080319C308400213085005430FE000030AA
:1005C800FF0090314B208031F801F901FA01200039
:1005D800EA01EB01EC01ED01A03084000030850058
:1005E8004A30FE000030FF0090314B208031483007
:1005F8008400013085002330FE000030FF00903178
:100608004B208031A0308400013085002B30FE0063
:100618000030FF0090314B208031203084000230C0
:1006280085001A30FE000030FF0090314B208031E9
:100638007E1020001F2BBD238031013027238031FD
:100648003C23803168282000A70021005C08DD00D9
:1006580020002735CB3E860001308700413F8A00C5
:10066800403F0A008331200027082100DC000800F1
:1006780020001F30E501E6013F00ED002000E70102
:10068800E70AE801E901210062086304031D4E2B13
:100698006400472B63082000E60021006208200060
:1006A800E50067086505E10068086605E200610481
:1006B800031D622BE735E80DE90A552B6908AC00E4
:1006C8000330AD01AE00AF0182232D0885002C0850
:1006D80084005D3084079830853D003FE300013F8A
:1006E800E4008A0063080A000730833120006906A5
:1006F8000319422B690897238031422BB001B101BD
:100708002C1C8A2B2E08B0072F08B13DAE35AF0D33
:10071800AD36AC0C2C082D04031D842B3108AD001C
:100728003008AC0008002000A50000308B1B013009
:10073800A6008B132508A100AB30A201A135A20D9C
:10074800210784009830223D8500003FA300013F27
:10075800A400A309A40923082100E2052000240815
:100768002100E3052000261CBB2B8B1708008B13E8
:10077800080064000324803107302000D0007D3059
:10078800CF00CF0BC52BD00BC52B013034248031C3
:10079800C52580311E248031C22580314E24803108
:1007A80020248031DF2380311824803111249331B3
:1007B8006C238031332F28001711F81CF32B1708EE
:1007C800FC390238970017088739483897007D3078
:1007D80096000A302100EE008230950008001708C4
:1007E800FC390238970017088739503897008E303F
:1007F800960001302100EE00883095000800FC309A
:1008080021009905190887396838990099131A1E23
:100818000B2C9A1D0D2CF814080021001708C1395B
:100828001C3897001710080002302100DF00E00193
:10083800E10108000030272B283023008C008D01AF
:10084800403022008C008D0104308E0028302100B9
:100858008C0001308D0080308E0024008D0108004E
:100868002000A10028001E111E08873908389E00A4
:10087800FC309E0568309D0020002108031D472C90
:100888000C3028009D002000931121000D13220038
:100898000D1708002000C301ED01C40144083E3EC5
:1008A800E32480310F392000C1000A30A100430839
:1008B800EC2480314107C3000330C40A4402031CFE
:1008C800522C43082100CA004230E3248031210021
:1008D800CC004330E32480312100CD004730E324AD
:1008E80080312100CB004C082000AC00AD01210074
:1008F8004B082000AE00AF01822380312D08210073
:10090800C30020002C082100C2004830E324200046
:10091800C100C201C135C20DC135C20D4108B900BF
:100928004208BA009031B62080312100CF00053E40
:10093800D0004430E32480312100DB004530E3243B
:1009480080312000C5000530A10045080F39EC248E
:1009580080312100D90005302000A1004508C100E0
:100968000430C136890BB52C41080F39EC2480318D
:100978002100D8005908DA004630E32480312000ED
:10098800C500451C6D15C5186D16451AF816C51E07
:1009980078156D1ED22C01300C258031F924803158
:1009A8002F302302873003192202031C080001306C
:1009B800A1013025803120000030A101302D200018
:1009C800A100230091009201951315141308080043
:1009D8002000A300A20121082318A207A135A336ED
:1009E8002308031DEF2C220808000130E32480317E
:1009F8002000A600A5000030A401E3242000A600E2
:100A0800A4070318A50A2508A3002408A2000800C3
:100A18002000A50000308B1B0130A6008B13250891
:100A2800A100AB30A201A135A20D210784009830A6
:100A3800223D8500003FA300013FA40023082100B8
:100A4800E204200024082100E3042000261C2E2DA7
:100A58008B1708008B130800A20023009100920155
:100A680020002108230093009513151500308B1BD7
:100A780001302000A3008B13553023009600AA30C4
:100A8800960095142000230C031C8B1303188B1756
:100A9800230095184C2D151108008230220097006C
:100AA800171F542D1F302000B9000130D025803188
:100AB8003A08C9003908C8002200971304302000FA
:100AC800B9000130D02580313A08C4003908C30084
:100AD800480849040319922D4808AD004908AE009A
:100AE800AF01B0014308A1004408A2002030A301CF
:100AF800A401A801A701A6000C30A5009D258031FE
:100B08002408B4002308B3002208B2002108B10069
:100B1800912680312E08C6002D08C5006430B20029
:100B2800B3014608B5004508B4006C263208C70072
:100B38000800A901AA01AB01AC01211CAB2D2508B5
:100B4800A9072608AA3D2708AB3D2808AC3DA535CE
:100B5800A60DA70DA80DA436A30CA20CA10C240861
:100B6800230422042104031DA12D2C08A4002B0812
:100B7800A3002A08A2002908A1000800E201E30155
:100B88000800CF302000980518102100111020000F
:100B98001110970196010800BC00C201C20ABD01EC
:100BA800BE0121001E088F3910389E00FC309E05BA
:100BB8001E1120003908BB00BB0DBB0D21001D080C
:100BC80020003B0683393B0621009D0020003C0C99
:100BD8002100031C9E1303189E171D145330200078
:100BE800BB00BB0BF52D0430200039060319002E7D
:100BF8001F303906031D082EF930BB00BB0B022E2F
:100C0800003204302000C200C1014208410203182A
:100C18001C2E21009D14000021009D18102E1B0879
:100C28002000BD0721001C082000BE3DC10A092E76
:100C380021001D1020004208B200B3013E08B50093
:100C48003D08B4006C263308C0003208BF004008D5
:100C5800BA003F08B9000800C501C4013422803138
:100C680020001C150530BF218031C6010A30BF2184
:100C7800803162268031C4000A3044020318462EAF
:100C8800C536472EC50C0830C60A4602031C3A2E44
:100C980045080800F819003462268031C4000B307A
:100CA800440203185F2E4E2E62268031C4000A309B
:100CB8004402031C0134F8194E2E582E033020002C
:100CC800B9000030D02521001C082000C30008000E
:100CD800B601B7013208330403198C2EB801B80ADB
:100CE800B31B792EB235B30D732EB635B70D330855
:100CF8003502031D812E32083402031C882E320867
:100D0800B4023308B53B3614B336B20CB80B792E9F
:100D18003708B3003608B2000800B501B601B701BC
:100D2800B80130082F042E042D040319C72EB90169
:100D3800B90AB01BA42EAD35AE0DAF0DB00D9C2E6B
:100D4800B535B60DB70DB80D30083402031DB62EF3
:100D58002F083302031DB62E2E083202031DB62EAD
:100D68002D083102031CC12E2D08B1022E08B23BFA
:100D78002F08B33B3008B43B3514B036AF0CAE0C7B
:100D8800AD0CB90BA42E3808B0003708AF003608F0
:100D9800AE003508AD0008002F00910121001113A5
:100DA800200011130130CA29A930B401B601B701D6
:100DB8008400983085000008E32480312000B400C6
:100DC800B80138089C3E860021308701873D01081C
:100DD800D03EB5000A303502031800343708AD009C
:100DE8003608AC000A30AE00AF01822380312D08EE
:100DF800B7002C08B6003508B6070318B70A033041
:100E0800B80A3802031CE52E3408B200B3013708CB
:100E18003302031D112F36083202031C0034360832
:100E28003704031D01340034A401A40124089C3EA6
:100E3800860021308701873D0108A1002408893EEA
:100E4800840098300318013E850000083025803161
:100E580020002230A40A2402031808001A2F2000B8
:100E6800EC0118248731DA27803178127813552756
:100E78008031CE014C2780310B118B120B178B1749
:100E88002000931021009314280017150230632ABC
:100E980020001930ED10ED122100ED005908DA009C
:100EA8000800D401D501D601D7010A30FC0008009A
:100EB800781D602F61278731B62FED1C782F210010
:100EC800DA0B782F2000ED1E722F21005908DA0066
:100ED8008B122000ED1222008C13782F2100580865
:100EE800DA008B162000ED162100ED0B0800E1302A
:100EF800ED007E2F20000030C8018B1A0130C6009B
:100F08008B1222008C1327302000C500F530C40056
:100F1800C40B8C2FC50B8C2F863162268731C700F6
:100F2800460C031C8B1203188B16E7304702031C70
:100F38009F2F0130A02F0030C8006D0C01394806E2
:100F4800031908000310ED1C0314031CAE2F200026
:100F5800ED14B02F2000ED10ED1808008B122200C0
:100F68008C130800003020000D180130A900290B4F
:100F7800CB2F21005F08031908000B30E00AE101BC
:100F88006002031C08000330DF018331272B210096
:100F98005F03031908001F30E10AE0016102031C26
:100FA80008000830DF01DF0A8331272B2000EB110E
:100FB8002100BD01A001A101A201A301A401A50175
:100FC800A601A7012000A1012135A83E86003230E4
:100FD8008701C03F0030C13F0630A10A2102031C2F
:100FE800E82F32302100B400B50108002100DD01EE
:060FF800DC010800080006
:101004008031AE202100171402308331272B2000B9
:10101400D1008E319F268831BE3086002130870072
:101024003E308100CE3086003E308100D8308600CC
:101034003E308100B23086002C308100BD30860005
:101044002C308100C13086002C308100CD308600E8
:101054002C308100D13086002C308100C0308600D5
:101064003C308100D03086003C308100B8308600AE
:101074002E308100C83086002E308100B5308600C5
:101084003A308100C53086003A308100D93086007C
:1010940048308100BF3086004E3081002200550B5D
:1010A4005728BF30860053308100CF30860021306E
:1010B4008700453081005B0B6328CF3086005730B2
:1010C4008100B3302000B9002130BA002200510859
:1010D4002000BB000230BC00BD01F0208831B630D6
:1010E400B9002130BA00220052082000BB000230AF
:1010F400BC00BD01F0208831C230B9002130BA00F3
:10110400220057082000BB000330BC00BD01F020C2
:101114008831C630B9002130BA00220058082000B6
:10112400BB000230BC00BD01F02095311B25883185
:101134002408BD002308BC002208BB002108BA0013
:10114400BE218831D2302000B9002130BA002100FC
:1011540067082000BB000230BC00BD01F0208831CC
:10116400D430B9002130BA00210068082000BB0047
:101174000230BC00BD01F0208831D6308600213019
:10118400870030308100510BCB28D63086003130B7
:1011940081003B308F3145278831B930C30021307D
:1011A400C400220054082000C60022005308200076
:1011B400C5000430C700C80175218831C930C30097
:1011C4002130C40022005A082000C6002200590819
:1011D4002000C5000430C700C801752964303B02F3
:1011E400031CF82803303C0203180B2964303B022B
:1011F4000A30031805293B02031C042902303C026F
:1012040003180B290A303B02031808003C08031991
:1012140008003D0B16293C08BE00BF0139078600B3
:101224003F083A3D8700810102303C020A30031C2A
:101234003829BC03A1003B0845218831C2000A308B
:10124400A1003B085D218831BB003030C2073C0857
:10125400BE00BF013907C0003F083A3DC100400845
:10126400860041088700420881001629A1003B0836
:101274004521C2003030C207390886003A08870089
:10128400420881000800A3000830A400A501230837
:10129400A2000730A236890B4C2925352204A5006B
:1012A400A33521082502031C59292108A502A40BF2
:1012B400492925080800A200A4012108031973295B
:1012C400A301A30AA11B6829A1356329A435210818
:1012D4002202031C70292108A2022414A136A30BA4
:1012E40068292408080027304602103003194502F3
:1012F400031C80290530470203188B292730460236
:101304001030031945020318080004304702031C77
:1013140008004408BA004308B9006430B200B301BD
:101324004608B5004508B40086316C268831320879
:10133400BB004708FE3EBC004808BD00F02044083E
:10134400BA004308B9004708B9070318BA0AFE30BF
:10135400B907031CBA036430A100A2014608A40023
:101364004508A3008F31002788312108BB000230D3
:10137400BC004808BD00F0283D08C5003C08C40076
:101384003B08C3003A08C2000E30B001AF01AE0002
:101394001030AD004508B4004408B3004308B2005F
:1013A4004208B1008631912688312D082100E700DA
:1013B4003C302000AD00AE01AF01B0012100670850
:1013C4002000A100FF30A201A301A401A800A700EE
:1013D400F130A600F030A50085319D258831210823
:1013E4004207BE002208433DBF002308443DC0001D
:1013F4002408453DC100B4004008B3003F08B200D2
:101404003E08B1008631912688312D082100E8007C
:10141400C4302000A100210068088431EC24883104
:10142400BE00F030A100210067088431EC243E079F
:1014340042072100E900080021001710003036227D
:101444000430823163228A3121001714FE278A3145
:10145400033A031D302A05308331272B07308331AB
:1014640027238A319231DA2ACF248A312000DC0002
:101474000030E0012100111801302000DD002100BE
:10148400111000308B1A01302000DE008B12EC1397
:1014940094248A3108248A3105302000600203181C
:1014A400652AA0228A3107238A31013A031D5D2A65
:1014B4000530E0004E2A22000E152000E00AEC1749
:1014C40022000E114E2AD1248A3122000C130D3031
:1014D4002000DA00FB30D900D90B6E2ADA0B6E2A11
:1014E400003222008D110D152000DF015C085F021F
:1014F40003188C2A0630DB001330DA00B130D9002F
:10150400D90B822ADA0B822ADB0B822A00322000D2
:10151400DF0A782A23248A3122000D15FE238A311A
:10152400E8275D0C2100031C11100318111420007E
:101534005E0C031C8B1203188B1608000030A123C9
:101544008A3161238A3149302000A4009930A500F2
:101554000530A600DF228A3153302000A4009930E0
:10156400A5000430A600DF228A312000AB012B083D
:10157400A1238A3161238A3120002B35203E860045
:1015840001308700403FA400413FA5000630A6007B
:10159400DF228A3120002B08DE238A316630A40042
:1015A4000130A5000530A600DF228A312000023078
:1015B400AB0A2B0203180800B92A22000C102000E1
:1015C400AA012A08A700A801A71BA8032808803A93
:1015D400A90080302902031DF12A260827020318D6
:1015E400042B20002A08A700A801A71BA80324088D
:1015F400270784002508283D85000008C0238A3178
:10160400AA0AE32A22000C14612B0030AC01AC0AB4
:10161400A1238A3161238A3149302000A400993002
:10162400A5000530A6006B238A31003A031D1C2B4C
:101634002000AC0161238A3153302000A40099308A
:10164400A5000430A6006B238A31003A031D2C2B1D
:101654002000AC0161238A312000AD012D08A123B3
:101664008A3161238A3120002D35203E86000130E5
:101674008700403FA400413FA5000630A6006B232D
:101684008A31003A031D482B2000AC0120002D08AC
:10169400DE238A316630A4000130A5000530A6009F
:1016A4006B238A31003A031D592B2000AC01200022
:1016B4000230AD0A2D02031C302B2C080800200038
:1016C4001C1522000D1620001C19652B22000D127A
:1016D4000800240884002508850000088038AA0032
:1016E400A901A90A22000C1020002A08C0238A316B
:1016F40021008C142000AB01AB0A26082B0203182E
:101704009A2BB7248A31AA002508A8002408A70028
:101714002B082707840028080318280A85000008D6
:101724002A0603197E2B22000C1421008C1000348D
:1017340022000C1421008C1020002908080020002D
:10174400A20022360139A100A10DA10DA10D220094
:101754000D0820002106F739210622008D00200003
:1017640022080139A100A10DA10D22000D082000BD
:101774002106FB39210622008D000800A1008030DB
:10178400A200A30122000C11200021082205031944
:10179400CE2B22008C14D02B22008C1000000000D1
:1017A40022000C150000000020000830A236A30A15
:1017B400230203180800C42BA200D53E84009830ED
:1017C4000318013E85000008A3000B302200E60048
:1017D4002000A4012408673E860001308700230806
:1017E40024078431E3248A31810020000430A40AD0
:1017F400240203180800EC2B0C120C170E110C1009
:101804008C100C110D120D118D11080020001C11EB
:1018140087309C05FC309C0514309B009A01911084
:101824002100911422000C168F302000A200DA301F
:10183400A100A10B1B2CA20B1B2C000022000E11DB
:10184400080020268A31AB00EE3086002130870064
:101854002B0881003F30A5000130A6000430A7000A
:1018640047248A319C30A5002130A600EE30860042
:10187400213087000108A70047248A314430A5009D
:101884000130A6000330A700472CAA01AA012708AB
:101894002A02031808002A08A800A90125078600BF
:1018A4002908263D87000108003E8400983003186B
:1018B400013E8500000861248A31AA0A492CA1004E
:1018C4008030A2002108A300FF30A306F81A702C70
:1018D400FC309C051C0887396838772C1C0887392C
:1018E40030389C001C08FC3901389C00EE309B0009
:1018F4009A019110210091142000A40123082205CB
:101904000319872C22000D15892C22000D112000AB
:10191400A2361C151C198C2C0830A40A24020318A6
:101924000800802C853151258A312100D100200006
:101934006D1FA52C210050085102031CA52C20006A
:101944006D13ED13AF2C20006D1BAF2C210051083B
:101954004F02031CAF2C20006D175130210051029F
:10196400031808002000ED1708008030A101A20030
:10197400A30122000C110000000022000C1500003D
:101984000000200022088C18A1040830A236A30A03
:101994002302031CBB2C210808004D080800E8277B
:1019A4008A3121006608003A0319E22C013A03192E
:1019B400E32C033A0319E62C013A0319E92CEA2C27
:1019C4003A2D003088310928013088310928742DD6
:1019D400080080302000A1000430A200A9278A3129
:1019E40082302000AC00DD30AB00AB0BF72CAC0B2D
:1019F400F72C00325A302000A2009930A30085272A
:101A04008A318230AC00DD30AB00AB0B072DAC0B60
:101A1400072D003222008E1206302000AD00133054
:101A2400AC00B130AB00AB0B152DAC0B152DAD0BD1
:101A3400152D003222008E1660302000A100A20174
:101A4400A9278A3182302000AC00DD30AB00AB0B1B
:101A5400292DAC0B292D003237268A318230AC0077
:101A6400DD30AB00AB0B342DAC0B342D0032080051
:101A74009F268A31B330A1002130A200EA30A300AE
:101A84009830A40087268A3120268A31D3009C30DE
:101A9400A1002130A2005308A1070318A20ADC30D8
:101AA400A3009830A40087268A31D5258A312026C0
:101AB400D3009C3ED1002130D201D23D5108860092
:101AC4005208870020308100D30A53089C3ED1007D
:101AD4002130D201D23D51088600520887002030BF
:101AE400810008002000D7019F268A31B330A1006D
:101AF4002130A200F730A3009830A40087268A3151
:101B040020268A31D80042278A312000D700303E6F
:101B1400D10058089C3ED2002130D301D33D520855
:101B2400860053088700510881005808013E452764
:101B34008A315808D1009E30D201D3002130D4001C
:101B440051085307D5005208543DD6005508860065
:101B5400560887003C3081005808D1009F30D201DC
:101B6400D3002130D40051085307D5005208543D06
:101B7400D6005508860056088700203081002026AC
:101B84008A31D8009C30A1002130A2005808A10756
:101B94000318A20ADC30A3009830A40087268A31F7
:101BA40020268A31D52D1130C1000230C200843183
:101BB400F9248A312308BF002208BE002026BD0074
:101BC400C0014208B3004108B2003F08B5003E0816
:101BD400B40086316C268A313208BC00413EB9001B
:101BE4003D089C3EBA002130BB01BB3D3A0886004B
:101BF4003B08870039088100BD0A4208A200410859
:101C0400A1003F08A4003E08A30000272208BF004B
:101C14002108BE001730B200B3014208B5004108E4
:101C2400B40086316C268A313308C2003208C10000
:101C34000330C00A400203180800E32D9C30A301BE
:101C4400A1002130A2002E2E523023020318352E7B
:101C5400A30AA10A0319A20A210886002208870000
:101C64000108031D262E230808009C302000A10033
:101C74002130A2000430A3009930A40087268A31C1
:101C8400A630A1002130A2004E30A3009930A40058
:101C940087268A31AB30A1002130A2005730A3003F
:101CA4009930A40087268A31AA012A08283E860092
:101CB400013087000108A800A53086002130870084
:101CC400280881002A08303E860001308700010878
:101CD400A800AA30860021308700280881009C30A3
:101CE400A2002130A30085278A318230A900DD308B
:101CF400A800A80B7B2EA90B7B2E003220000830F5
:101D0400AA0A2A0203180800572E2208A60021084E
:101D1400A5002508860026088700230884002408D7
:101D240085000008C03F890803190800A50A0319A3
:101D3400A60AA30A0319A40A8B2E2027CF014F0851
:101D4400363E8431E3248A312000C8004F089C3E8B
:101D5400C9002130CA01CA3D490886004A088700E3
:101D6400480881000430CF0A4F02031CA12ED00181
:101D740050083A3E8431E3248A312000C8005008D8
:101D8400C900A130CA01CB002130CC0049084B075F
:101D9400CD004A084C3DCE004D0886004E08870011
:101DA400480881000730D00A5002031CBA2EA03024
:101DB4008600213087003E308100AE3086003E3000
:101DC4008100A83086002C308100A93086003C3088
:101DD4008100B13086003C308100AC3086002E306A
:101DE4008100AF30860056308100B030860042302A
:101DF4008100B230860020308100080021082204CE
:101E040003191B2FA501A50AA21B0B2FA135A20D97
:101E1400052F22082402031D112F21082302031C6D
:101E2400172F2108A3022208A43BA236A10CA50B5C
:101E34000B2F2408A2002308A10008002100510848
:101E44002000C4004530B9000030BA004408BB008B
:101E54000330BC00BD018831F020AA308600213057
:101E64008700450881004608C300AB30860043085C
:101E740081004708C300AD30860043088100080094
:101E840021003A080800A4009C3EA1002130A201D0
:101E9400A23D2108860022088700303081006D1F92
:101EA4005F2F24089C3EA1002130A201A23D2108FD
:101EB40086002208870031308100ED1F6D2F240831
:101EC4009C3EA1002130A201A23D210886002208E7
:101ED400870032308100EC1F080024089C3E8600F5
:101EE40021308701873D0108033EA10024089C3E60
:101EF400A2002130A301A33D220886002308870005
:101F0400210881000800A5012308A7002208A600D3
:101F14002608840027088500120003190800803071
:101F240025020318080026088400270885000008F5
:101F3400A2278A312000A60A0319A70AA50A8A2F14
:101F4400A100111EA32F210823009A0008002300DA
:101F54001E129F151E15BF2F23009C016730BD2F35
:101F640023009C011030BD2F23009C010830BD2F9D
:101F740023009C010C309B00DD2F20002208003A36
:101F84000319CB2F023A0319D02F063A0319D52F80
:101F9400DD2F2108603A0319AE2FDD2F2108403AC6
:101FA4000319B22FDD2F2108803A0319B62F013A05
:101FB4000319BA2FDD2F82302000A400DD30A300E6
:101FC400A30BE22FA40BE22F003208002000A10192
:101FD4002108803A313E0318F82F21089C3E8600E0
:101FE40021308701873D8101A10AEA2FEE30860066
:101FF40021308700810108005D0808009E31A02E71
:102004009E31A02E9E31A22E9E31A22E9E31A42E50
:102014009331152B9331152B9331152B9331152BAC
:042024009331152BB4
:10204E0021005B080800093085310C2D00308531E8
:10205E000C2D0A3085310C2D083085310C2D0830B1
:10206E0085310C2D0B3085310C2D023085310C2D28
:10207E002100E201E301F81849288431032490314C
:10208E008331DF238731332F64000130800101312A
:10209E00FE020030FF3B7F087E04031900344C28FB
:1020AE00FE0012001E000130FE020030FF3B7F08D2
:1020BE007E04031900345828FA3407342D341034B2
:1020CE0030341034333410342A341034363410345F
:1020DE006D340034393410343C341034F81C7A2802
:1020EE00822090317D288431032490318331DF2387
:1020FE00280017150800FC302100990519088739AA
:10210E003838990099131A1D8A28F81008003134AE
:10211E009934373499343D349934433499343034C6
:10212E003134333435343634373438343934453445
:10213E004634443442343834393436343734313416
:10214E003534303430343034303400343C343C3474
:10215E000D340A34003458340D340A340034093046
:10216E00BB01BC01BD01BE01B200B3013A08AD0016
:10217E003908AC000530AE00AF01833182239031B7
:10218E002D08B5002C08B40086316C26903133082A
:10219E00C0003208BF000230BF070318C00A30303B
:1021AE00B200B3013A08AD003908AC001130AE00F0
:1021BE00AF018331822390312C08313EB4000030C0
:1021CE002D3DB50086316C2690313308BC003208A7
:1021DE00BB000730B200B3013B083F07B4003C0818
:1021EE00403DB50086316C263308BE003208BD0076
:1021FE000800FD037D08031D08001A29F60028308B
:10220E004A06031917294908A03E860001308700A7
:10221E00760881002830CA0AC90A49060319C9017D
:10222E0007304F2108002129F8152C290E304F2197
:10223E0091312C297B08003A03191B29013A031905
:10224E001D29033A03192C292C29200018100800E7
:10225E00FA0A05307A02031C0800FA0104304F21F5
:10226E00913101302100D4070030D53DD63DD73D08
:10227E005708031D4A29803054025130553B013016
:10228E00563B031C0800D401D501D601D701080026
:10229E00F40000308B1B0130F5008B137408F00036
:1022AE00AB30F101F035F10D700784009830713DBF
:1022BE008500003FF200013FF30072082100E204A6
:1022CE007308E304751C6D298B1708008B13080027
:1022DE0000300D2200308A31362291316400200008
:1022EE006F29781F862901302100C6020030C73BB6
:1022FE0046084704031D86297813D021913120000A
:10230E006C1F0800612BE02291312F2294310224A0
:10231E009131CE0112229131053A031D0800003091
:10232E001522913100302100450206300319440276
:10233E00031CA9294408FD3EC600FF30453DC700D9
:10234E007814AD294508C7004408C6000130781737
:10235E000D2206308331272B162391312000AE003B
:10236E0012229131033A031D080020002E08031D8E
:10237E00C82900300D2291312000EC1ACB290130F2
:10238E00CC2903300D2291310230022304308331E7
:10239E00272B002A053078148331272BE022913128
:1023AE002F2391312F2291314E08031DE829200051
:1023BE00ED1DE82901301522913102300D229131A7
:1023CE00EC2903300D222000ED1121000330CE0A3E
:1023DE00C6000630C7018331272378170800F81C82
:1023EE00FB2904308331272B03307814C600C70134
:1023FE00F42912229131053A0319D529033A03190A
:10240E00F629013A0319D1290C2A08002000A1004F
:10241E002100E600080021005C0808002000A6004C
:10242E002608031D262A2030A1000230A2004C30BF
:10243E00A3000130A400EA222000ED1508004C3064
:10244E00A1000130A2002030A3000230A400EA2A2D
:10245E002000BE01BF01C001C101210023082702D7
:10246E00031D432A22082602031D432A21082502A2
:10247E00031D432A200824020318682A80302000F6
:10248E00BA005130BB000130BC000430BD01A03E8B
:10249E0086008701403FBA07413FBB3D423FBC3DEE
:1024AE00433FBD3D3D082100A70020003C08210010
:1024BE00A60020003B082100A50020003A082100BC
:1024CE00A400200824022000BA0021002108253B88
:1024DE002000BB0021003D35A83E8600870120006C
:1024EE003A08C03F3B08C13F21003D35A83E86005B
:1024FE00403FB600413FB7002000C2014235A83E22
:10250E0086008701403FBA00413FBB003A08BE0734
:10251E003B08BF3D0030C03DC13D0630C20A4202FD
:10252E00031C852A0630AD00AE01AF01B001410893
:10253E00B4004008B3003F08B2003E08B100863137
:10254E0091262E082100B50020002D082100B40090
:10255E000630BD0A3D020318BD010800F818BD2A59
:10256E008431032491318331DF239131E022913183
:10257E000B138B132100931028001711DA229131BF
:10258E00210015170B168B101708C1392438970028
:10259E0017148B18D42A6300D02A843111240B12FD
:1025AE0002308331272B403022008C008D018E01AA
:1025BE00080022008E1221009112E52A23009D139D
:1025CE001D129E1208002108220403190800230878
:1025DE002404031908002108860022088700200021
:1025EE0023088400240885001A30A50012001E005E
:1025FE00A50BFD2A08002000A1002100D3000A30FF
:10260E00D20020006C17210053088400053004020C
:10261E0003180800903104350A3E82000800181095
:10262E006B116A1E1D2B2100BA012D2B6A19232B4B
:10263E0002302100BA00282BEA191A2B2100BA0108
:10264E00BA0A8C31EB2491319D311E253A080800CF
:10265E00210020082000A100210021082000A20056
:10266E00210022082000A300210023082000A4003E
:10267E00210042082000A500210043082000A600EA
:10268E00A701A8012508A1072608A23D2708A33DFA
:10269E002808A43D24082100A700200023082100BB
:1026AE00A600200022082100A500200021082100FC
:1026BE00A40008002100D2035208031D08002000C8
:1026CE0004306C132100D3000800912522008E16D1
:1026DE008C31EB2422008E120800781E802B0224EF
:1026EE009331003045020430031944020318852B40
:1026FE008B2B58302100C4000230C5004408FD3E2B
:10270E00C600FF30453DC7007817842D7B25220873
:10271E00CF002108CE000A30B200B3014F08AD0041
:10272E004E08AC000F30AE00AF01833182239331DF
:10273E002D08B5002C08B40086316C269331330871
:10274E00CF003208CE0000304F02323003194E0255
:10275E000318B42B3230CE00CF0102249331200067
:10276E006D1FC82BC230860006308701BE3E840026
:10277E008501403F00072100C4000131413F003D6B
:10278E00C5002000ED1FDE2B4F08CB004E08CA00FF
:10279E001030CA35CB0DCC000E30CD004A084C029D
:1027AE002100C40020004B084D3B2100C500210034
:1027BE00450820004F02031DE82B2100440820008D
:1027CE004E020318F82B4E0821004402C6002000CA
:1027DE004F082100453BC70005307814762593310C
:1027EE00002C21004508C7004408C600053083317F
:1027FE002723781708001B2593312408C8002308C7
:10280E00C7002208C6002108C500BA0121004C08E5
:10281E000F3C2000B900031CBA03BB003A08BC00F1
:10282E000030BC1BFF30BD00BE003B08C5073C0896
:10283E00C63D3D08C73D3E08C83D21004208200068
:10284E00A100210043082000A200A301A401480812
:10285E00A8004708A7004608A6004508A500402581
:10286E002208C3002108C20021004C082000B2003B
:10287E00B3014308B5004208B40086316C2693318B
:10288E003208C90021004B082000A100A20149080E
:10289E00A300A401A31BA403E22493312108013E4B
:1028AE00C90021004B082000A100A2014908A30085
:1028BE00A401A31BA403E224210821004A02FF3E27
:1028CE002000C40021004C082000A100A2014308F2
:1028DE00A4004208A3008F31002793312108210064
:1028EE004C022000C100B900BA014408AC00AD0191
:1028FE00AC1BAD0321004C082000AE00AF018331AC
:10290E008223933139082C072100C40020003A0895
:10291E002D3D2100C5002000C41FA42CC23086000E
:10292E0006308701BE3E84008501403F000721002E
:10293E00C4000131413F003DC50020004508B900EB
:10294E004608BA004708BB004808BC0021004408EE
:10295E002000BD00210045082000BE00BF01C001BF
:10296E003D08B9073E08BA3D3F08BB3D4008BC3D97
:10297E003C082100C10020003B082100C0002000BF
:10298E003A082100BF00200039082100BE0041088E
:10299E00031DD92C81303E0251303F3B0130403B6C
:1029AE00031C08008030BE07AE30BF3DFE30C03D78
:1029BE00FF30C13D0800A601A41FEC2CA309A409F9
:1029CE00A30A0319A40AA601A60AA21FF32CA109A1
:1029DE00A209A10A0319A20A2108220403190E2D25
:1029EE00A501A50AA21BFE2CA135A20DF82C2208CA
:1029FE002402031D042D21082302031C0A2D210885
:102A0E00A3022208A43BA236A10CA50BFE2C26087D
:102A1E000319162DA309A409A30A0319A40A24084D
:102A2E00A2002308A100080000308B1B01302000FB
:102A3E00A9008B13210057082000A800210056087A
:102A4E002000A700210055082000A60021005408F0
:102A5E002000A500291C352D8B17362D8B13200039
:102A6E002808A4002708A3002608A2002508A10014
:102A7E000800240823042204210403196D2DA90142
:102A8E00A90AA41B4F2DA135A20DA30DA40D472DF0
:102A9E0024082802031D5D2D23082702031D5D2D2A
:102AAE0022082602031D5D2D21082502031C672D19
:102ABE002108A5022208A63B2308A73B2408A83B11
:102ACE00A436A30CA20CA10CA90B4F2D2808A40010
:102ADE002708A3002608A2002508A1000800200050
:102AEE00A1002100DE000800210035082000A20010
:102AFE00210034082000A100080080302000A10031
:102B0E002530A2008F31A927933191252100BB01D9
:102B1E009D311E2D23009D171D169E1608009C30FC
:102B2E00EB10A1002130A2002C30A300AE2795316E
:102B3E002208A5002108A400A40A0319A50A240846
:102B4E008600250887004D300106031DB12D21009A
:102B5E00E40108002508A2002408A1002C30A300DF
:102B6E00AE2795312208A5002108A400A40A031956
:102B7E00A50A240886002508870033300106031DA8
:102B8E00080003302100E5002000EB1408009C3003
:102B9E00A1002130A2002C30A300AE2795312208CF
:102BAE00B5002108B400B40A0319B50A6B1022004F
:102BBE00D001D60120003508A5003408A40002304B
:102BCE00A6008C2795312200CC0020003408023E4E
:102BDE00A4000030353DA5000230A6008C279531AB
:102BEE002200CD0020003408043EA4000030353D04
:102BFE00A5000230A6008C2795312200CE002000C1
:102C0E003508A2003408A1002C30A300AE27953160
:102C1E002208B5002108B400B40A0319B50A340815
:102C2E0086003508870056300106031D222E22002D
:102C3E00CF01CF0A2E2E340886003508870041308A
:102C4E000106031D2E2E2200CF0120006B14200042
:102C5E003508A2003408A1002C30A300AE27953110
:102C6E002208B5002108B400B40A0319B50A3408C5
:102C7E008600350887002C3001060319882E2200A5
:102C8E00D001D00A20003508A5003408A400023077
:102C9E00A6008C2795312200D10020003408023E78
:102CAE00A4000030353DA5000230A6008C279531DA
:102CBE002200D20020003408073EA4000030353D2B
:102CCE00A5000230A6008C279531B2000230B30168
:102CDE00A6003408053EA4000030353DA5008C2723
:102CEE00AC006430AD01AE00AF018331822395316B
:102CFE0032082C072200D300200033082D3D22007D
:102D0E00D40020003508A2003408A1002C30A30006
:102D1E00AE2795312208B5002108B400B40A031974
:102D2E00B50A2200500BB22E20003408860035085A
:102D3E0087004E300106031DA72E2200D501B22EAC
:102D4E00340886003508870053300106031DB22E65
:102D5E002200D501D50A20003508A2003408A100B2
:102D6E002C30A300AE2795312208B5002108B400FF
:102D7E00B40A0319B50A34088600350887002C30CA
:102D8E00010603190C2F2200D601D60A20003508A1
:102D9E00A5003408A4000330A6008C27953122002C
:102DAE00D70020003408033EA4000030353DA500B6
:102DBE000230A6008C2795312200D800200034085E
:102DCE00083EA4000030353DA5000230A6008C2739
:102DDE009531B2000230B301A6003408063EA400BD
:102DEE000030353DA5008C27AC006430AD01AE003F
:102DFE00AF0183318223953132082C072200D9008E
:102E0E00200033082D3D2200DA0020003508A200F4
:102E1E003408A1002C30A300AE2795312208B5004E
:102E2E002108B400B40A0319B50A2200560B362F36
:102E3E002000340886003508870057300106031D30
:102E4E002C2F2200DB01DB0A362F340886003508D2
:102E5E00870045300106031D362F2200DB012000BE
:102E6E003508A2003408A1002C30A300AE279531FE
:102E7E002208B5002108B400B40A0319B50A3508B2
:102E8E00A2003408A1002C30A300AE2795312208F1
:102E9E00B5002108B400B40A0319B50A3508A2001A
:102EAE003408A1002C30A300AE2795312208B500BE
:102EBE002108B400B40A0319B50A3508A500340870
:102ECE00A4000230A6008C2795312200E2002000DB
:102EDE003408023EA4000030353DA5000230A600A5
:102EEE008C2795312200E30020003408043EA40014
:102EFE000030353DA5000230A6008C27953122000A
:102F0E00E40020006B1C0800C42FA901AA01AB012C
:102F1E00A82F26082A020318AC2F2A08A700A801FA
:102F2E00240786002808253D87000108D03EAB0007
:102F3E000A30A10029088431EC2495312B07A90011
:102F4E00AA0A0A302B02031C902F29080800210818
:102F5E0086002208870001080319C12F2108860068
:102F6E00220887000108230603190800A10A031985
:102F7E00A20AAE2FA101A201080022004C082000D7
:102F8E00A1000E30A201A301A401A801A701A60071
:102F9E001030A50085319D25953124082200CB00E7
:102FAE00200023082200CA00200022082200C900A7
:102FBE00200021082200C8004D082000AC003C3043
:102FCE00AD01AE00AF01833182232C082200C80769
:102FDE0020002D082200C93D0030CA3DCB3D4E08D1
:102FEE00C80701300318C9070318CA070318CB070F
:102FFE00080003340034003400340034003400344C
:10300E005334003400342334003400340B34003491
:10301E000034003400340034003400340034003402
:10302E0000340034003400340034003400340034F2
:10303E00003413345B34473417344B3400342F349C
:10304E006B347B342734003400341B3463341F3428
:10305E005F3437347734673443342B340734573482
:10306E00733433340F343B343F347F3400346F3495
:10307E004F34003463344F343B344B3443345B347D
:10308E002F34173433346B347B3427341F341B34D2
:10309E000F34373477342B345334073473343F348E
:1030AE0067345F3457344734003400340234083404
:1030BE0001346F3411340234B534123403347534A0
:1030CE00103404347834113405345C340734063447
:1030DE008A341134073419341D34083474341334DB
:1030EE0009341E340A340A343F3410340B348D3410
:1030FE0013340C34FE3407340D34FE3407340E34DE
:10310E00B334113422342334243425342734283470
:10311E0029342A342C342D342E342F343134323495
:10312E003334343436343734383439343A343B3437
:10313E003C343D343E343F344034423443344434E2
:10314E0045344634473448340134003402340034B4
:10315E000434003408340034103400342034003485
:10316E0040340034803400340034013400340234EE
:10317E000034043400340834003410340034203465
:10318E0000344034003480342A3499341C34993459
:10319E0023349934153499340E3499342234273427
:1031AE002C3431341E343C34963456343E3432345E
:1031BE0032343C3452343E34363436343C3420349B
:1031CE004334203400344134433454344934563477
:1031DE0041344E3444344F34533445342034003467
:1031EE004E344F3454344934433445342034473408
:1031FE005034533420343E3400342434503441346B
:10320E00493452343034363432342C34003424348D
:10321E004534453453344C34663400342434473406
:10322E004E344734533441340034243447344E340E
:10323E0052344D34433400342434473450344734FC
:10324E0053344134003424344734503452344D34E2
:10325E004334003407340034003400340034003476
:10326E00083400340034013404340034093400349A
:10327E0000340234083400340A3400340034033489
:10328E000C340034003480340034003440342C3498
:10329E0030342A34333400340134183408342434AE
:1032AE000D340A3400342434503441344934523409
:1032BE003834363434342C3430342C3430342C34DA
:1032CE0039343634303430342A34313433340D34E6
:1032DE000A3400344534303400344534313400344B
:1032EE0045343234003445343334003445343434C8
:1032FE0000344534353400344534363400344534E6
:10330E0037340034453438340034453439340034DD
:103A32003830C3269D313808452D2000EA01EB01BC
:103A4200C22523001D162100911622008E16013078
:103A5200823151229D31823134229D311114200054
:103A620018146B1595311B2524082100A300200092
:103A720023082100A200200022082100A10020002A
:103A820021082100A0000800B7006B1A08006A157F
:103A920021006A0886006B08870020003708810031
:103AA2002100EA0A0319EB0A2000EE03EA1F732D34
:103AB2002100EC036C08031D9D2D9C302000A10009
:103AC2002130A2006E08523CA300D2259D31013A5A
:103AD200031D702D6A1621003C089D269D31C225CA
:103AE2009D319D2D6A1F7B2D2A303706031D9D2D8A
:103AF200EA179D2DEA1E952D21000630EF0A6F066A
:103B0200031D9D2D6A0886006B0887009C30810189
:103B12002000A6002130A70034269D31013A031D62
:103B2200702D6A17EA159D2D24303706031D702D5E
:103B3200EA162100EF01EF0A20006E08031DA32DF3
:103B4200C2259D312000EB186B1C0800EB15B12635
:103B52009D3122004B082000A40022004A082000C8
:103B6200A300220049082000A200220048082000E9
:103B7200A1008026063085310C252000EB106B1049
:103B8200080020009C30EA126A13EA132100EA00BE
:103B92002130EB0052302000EE0002302100EC0018
:103BA2000800A601A701A10A0319A20AAA01AA0AEA
:103BB2002308FD3EA400FF3003180030A500803A20
:103BC200803C031DE62D24082A020318F32D200051
:103BD20021088600220887000108A606A10A031907
:103BE200A20AD82D2000AA01A10A0319A20A2108BB
:103BF200860022088700473001022A08031C0B2E88
:103C0200283E8600870121088400220885000008DA
:103C1200DF39132E283E86008701210884002208FE
:103C220085000008D03E81002A08283E86000A301E
:103C320087010102031C272E2A08283E86002A0833
:103C4200283E840085010008F93E81000230AA0A5C
:103C52002A02031CF52D280EF0392904A700260696
:103C6200031901340034AC01AB01AC012708A200F6
:103C72002608A1002C08A800CB30A901A835A90D5F
:103C8200280784009830293D8500003FA300013FAA
:103C9200A4005E269D3121082204031D562EAB018D
:103CA200AB0A2C082100BC005B2E0530AC0A2C02AA
:103CB200031C372E20002B0808006C2E21088600DA
:103CC20022088700010803197A2EA10A0319A20A01
:103CD200A30A0319A40A21088600220887002308E0
:103CE20084002408850000080102A50025080319A4
:103CF2005F2E2508A100A201A11BA203080000302B
:103D02008B1B0130A5008B1324082100D700200053
:103D120023082100D600200022082100D50020001F
:103D220021082100D4007816FA012000251C9B2EC0
:103D32008B1708008B1308002000B600A62E9531C1
:103D4200CE2D9531962D01000800360884000530ED
:103D520004020318080090310435003E8200080076
:103D620095311B2524082100A700200023082100EB
:103D7200A600200022082100A50020002108210021
:103D8200A4000800A8000030A9018B1B0130A70085
:103D92008B1323004A080319E12E4808A03E86002F
:103DA2000130870001082000A90023002830CA033F
:103DB200C80A48060319C8014A08031DE12EED2668
:103DC2002000270C031C8B1303188B17280886006E
:0E3DD200870129088100080007308331972BF4
:020000040001F9
:04000E00CCEFFFDE56
:10E00000000000000000FF00FF00FF00FF00FF0015
:10E01000FF00FF00FF00FF00FF00FF00FF00FF0008
:10E02000FF00FF00FF00FF00FF00FF00FF00FF00F8
:10E03000FF00FF00FF00FF00FF00FF00FF00FF00E8
:10E04000FF00FF00150039002B007F00FF001500C6
:10E0500039004500B600FF00150039002B007F0095
:10E06000FF00150039004500B600FF0044004300E2
:10E0700054004300390039003900380030003000C6
:10E080003200FF000A00010001001A0090000C009D
:10E09000CF00FF00FF00FF00FF00FF00FF00FF00B8
:10E0A000FF00FF00FF00FF00FF00FF00FF00FF0078
:10E0B000FF00FF00FF00FF00FF00FF00FF00FF0068
:10E0C000FF00FF00FF00FF00FF00FF00FF00FF0058
:10E0D000FF00FF00FF00FF00FF00FF00FF00FF0048
:10E0E000FF00FF00FF00FF00FF00FF00FF00FF0038
:10E0F000FF00FF00FF00FF00FF00FF00FF00FF0028
:10E10000FF00FF00FF00FF00FF00FF00FF00FF0017
:10E11000FF00FF00FF00FF00FF00FF00FF00FF0007
:10E12000FF00FF00FF00FF00FF00FF00FF00FF00F7
:10E13000FF00FF00FF00FF00FF00FF00FF00FF00E7
:10E14000FF00FF00FF00FF00FF00FF00FF00FF00D7
:10E15000FF00FF00FF00FF00FF00FF00FF00FF00C7
:10E16000FF00FF00FF00FF00FF00FF00FF00FF00B7
:10E17000FF00FF00FF00FF00FF00FF00FF00FF00A7
:10E18000FF00FF00FF00FF00FF00FF00FF00FF0097
:10E19000FF00FF00FF00FF00FF00FF00FF00FF0087
:10E1A000FF00FF00FF00FF00FF00FF00FF00FF0077
:10E1B000FF00FF00FF00FF00FF00FF00FF00FF0067
:10E1C000FF00FF00FF00FF00FF00FF00FF00FF0057
:10E1D000FF00FF00FF00FF00FF00FF00FF00FF0047
:10E1E000FF00FF00FF00FF00FF00FF00FF00FF0037
:10E1F000FF00FF00FF00FF00FF00FF00FF00FF0027
:00000001FF
