:1000000000008031682808007E14803123009D1C88
:1000100018281D12000023001D1618282000911E0C
:100020001B2823001908F70077088631FC26803149
:100030002100911A0E282100911C23282000911CD8
:1000400023281C1191108B1A0B1D3D28FB0A9C3193
:10005000DB2480317B06031D2F2822008C130A30FD
:100060007B02031C362822008C17FB01FA183C285F
:1000700020001508053E95000B112100931C5D28FA
:100080002000931C5D28FC03FA1C49287C08031DF2
:100090005B28873126278031053087314A27803118
:1000A0007A1C5928033087314A27803128001711DC
:1000B0007A100A30FC00200093102100111C6628E1
:1000C0002000111C66288631F72611107E100900C9
:1000D00020000308A0008A318F2A0030E3228031FB
:1000E000031020006B1F0314031C792820006B17DA
:1000F0007B2820006B1300303A24803164002000FC
:100100006D287A1F8F2801302100A8020030A93BFA
:1001100028082904031D8F287A13E120803120004C
:100120006B1F9428972080317A1D0800AE2B210088
:10013000B4033408031D0800200004306B132100B1
:10014000B50008007A1EAE28DC218031003027027D
:100150000430031926020318B328C02858302100A0
:10016000A6000230A70027082000A20021002608D0
:100170002000A100FD30A107FF30A23DD421803135
:100180007A17A62B8C2380312000BD001A238031E2
:10019000033A031D080020003D08031DD728003046
:1001A000E32280312000EB1ADA280130DB2803300B
:1001B000E3228031023078238031412304308B31B7
:1001C0000E2B182905307A148B310E2B41238031E8
:1001D000462396313626803121003008031DFA2847
:1001E0002000EC1DFA280130E82280310230E322A1
:1001F0008031FF280330E32280312000EC11210000
:100200000330B00A2000A100A201D42106308B31B6
:100210000E237A170800FA1C102904308B310E2B9C
:1002200003307A142000A100A201D42180310929D1
:100230001A238031053A0319E628033A03190B29DA
:10024000013A0319E22824290800DC218031B00199
:100250001A238031053A031D08000030E82280315E
:10026000003021002702063003192602031C44290E
:1002700027082000A200210026082000A100FD3050
:10028000A107FF30A23DD429412380312708200057
:10029000A200210026082000A100D42180310130D5
:1002A0007A17E32206308B310E2BDA222208D50092
:1002B0002108D4000A30B200B3015508AD0054083B
:1002C000AC000F30AE00AF018B31672380312D08B9
:1002D000B5002C08B4008E31422680313308D50099
:1002E0003208D400003055021E300319540203189E
:1002F0007C291E30D400D501DC21803120006C1B0C
:100300006C1D9129A430860006308701A03E840030
:100310008501403F00072100A6000131413F003D1B
:10032000A7002000EC1FA7295508D1005408D000D1
:100330001030D035D10DD2000E30D300500852020B
:100340002100A60020005108533B2100A7002100F6
:10035000270820005502031DB1292100260820008E
:1003600054020318C629210027082000A2002100FA
:1003700026082000A1005408A1025508A23BD42160
:10038000803105307A14D5228031D2292100270806
:100390002000A200210026082000A100D421053061
:1003A0008B310E237A17080022082100A9002000B3
:1003B00021082100A8000800CB01CC01CD01CE010D
:1003C0009531262580312408CE002308CD0022084F
:1003D000CC002108CB000F30B90021002E082000EE
:1003E0003902C300C401031CC403C501C6014B0884
:1003F000C3074C08C43D4D08C53D4E08C63D21000D
:1004000024082000A100210025082000A200A3014B
:10041000A4014608A8004508A7004408A600430810
:10042000A5009F222208CA002108C90021002E0829
:100430002000B200B3014A08B5004908B4008E316B
:10044000422680313208013EC10021002C02FF3ECD
:100450002000CF0021002E082000A100A2014A08A0
:10046000A4004908A30092315322803121082100C1
:100470002E022000C2004F08AC00AD01AC1BAD0342
:1004800021002E082000AE00AF018B3167238031A0
:100490002D08C8002C08C7004208C7070318C80A5F
:1004A000CF1F5A2A210024082000C7072100250851
:1004B0002000C83D48082100A7002000470821006F
:1004C000A60020004B08B9004C08BA004D08BB003C
:1004D0004E08BC00210026082000BD00210027088E
:1004E0002000BE00BF01C0013D08B9073E08BA3D6B
:1004F0003F08BB3D4008BC3D3C082100A300200054
:100500003B082100A20020003A082100A1002000A1
:1005100039082100A00023088030031D972A2002FB
:100520005130213B0130223B031C08008030A007E2
:10053000AE30A13DFE30A23DFF30A33D08002408AF
:100540002304220421040319CC2AA901A90AA41B0B
:10055000AE2AA135A20DA30DA40DA62A24082802B7
:10056000031DBC2A23082702031DBC2A22082602D9
:10057000031DBC2A21082502031CC62A2108A50246
:100580002208A63B2308A73B2408A83BA436A30CBB
:10059000A20CA10CA90BAE2A2808A4002708A300CE
:1005A0002608A2002508A10008002000A1002100C3
:1005B000C4000800220035082000A20022003408F0
:1005C0002000A10008002000A1002100CA000800AE
:1005D0002000A6002608031DF92A2030A1000230C1
:1005E000A2004330A3000130A40002232000EC1538
:1005F00008004330A1000130A2002030A3000230E7
:10060000A400022B21082204031908002308240453
:10061000031908002108860022088700200023080B
:100620008400240885001A30A50012001E00A50BC6
:10063000152B0800210042080800FA18252B8B31E1
:10064000D92380318B31B723803141230B138B1396
:100650009310280017118E313C2680312100151788
:100660000B168B101708C1392438970017148B18F4
:100670003B2B6300372B8B31EB230B1202308B317A
:100680000E2B22008E122100911208002200200859
:100690002000A100220021082000A2002200220840
:1006A0002000A300220023082000A4002100240829
:1006B0002000A500210025082000A600A701A80110
:1006C0002508A1072608A23D2708A33D2808A43D28
:1006D00024082200A700200023082200A6002000F2
:1006E00022082200A500200021082200A400080002
:1006F0002000A1002100B5000F30B40020006B17CE
:1007000021003508840005300402031808009931DF
:100710000435DA3E8200080018106A11691E932B16
:100720002200BA01A32B6919992B02302200BA00CA
:100730009E2BE919902B2200BA01BA0A913143216C
:1007400080319431DB2422003A08080002309131D4
:10075000B72180312200BB019431DB2C20006B1EBD
:10076000B62B2100E10BB62B20006B122100C00B31
:10077000D42B2000EC1EC72B21003F08C000200016
:10078000EC12EC1CD42B8B1222008C13D42B2100E6
:100790003E08C0002000EC16EB1DD22BE92380316F
:1007A0002000EB11EC188B1601302100DC02003028
:1007B000DD3B5C085D04031D080020006B1EE22B7E
:1007C0000230E32B3C302100DC00DD012000EB1582
:1007D00008000030CE018B1A0130CC008B122200B1
:1007E0008C13FA18F52B0430F62B20302000AD00C6
:1007F000AE018931D72180318F3120278031CD0062
:100800004C0C031C8B1203188B16E7304D02031C93
:100810000B2C01300C2C0030CE006C0C01394E0634
:10082000031908000310EC1C0314031C1A2C2000ED
:10083000EC141C2C2000EC10EC1808008B12220089
:100840008C1308002100171000303A2404308A313C
:100850004822803121001714F5268031033A031D08
:10086000342C05308B310E2B07308B310E23803129
:100870008E313C2EC42680312000D9000030DD01AD
:100880002100111801302000DA0021001110003081
:100890008B1A01302000DB008B12EB13892680318C
:1008A000FE258031053020005D020318692C992453
:1008B0008031FF248031013A031D612C0530DD00B9
:1008C000522C22000E152000DD0AEB1722000E111B
:1008D000522CC72622000C130A302000AD00AE01B6
:1008E0008931D721803122008D110D152000DC01C6
:1008F00059085C020318852CE830AD000330AE00C7
:100900008931D7218031DC0A782C152680312200EC
:100910000D15F4258031DF265A0C2100031C11101F
:100920000318111420005B0C031C8B1203188B1688
:10093000080000309825803158258031493020004A
:10094000A4009930A5000530A600D724803153308B
:100950002000A4009930A5000430A600D7248031DF
:100960002000AB012B0898258031582580312000CC
:100970002B35D43E86008701403FA400413FA500AF
:100980000630A600D724803120002B08D5258031E1
:10099000CC30A4000030A5000530A600D72480315B
:1009A00020000230AB0A2B0203180800B22C2200F0
:1009B0000C102000AA012A08A700A801A71BA80361
:1009C0002808803AA90080302902031DE92C260856
:1009D00027020318FC2C20002A08A700A801A71B47
:1009E000A8032408270784002508283D850000085F
:1009F000B7258031AA0ADB2C22000C14582D0030B8
:100A0000AC01AC0A9825803158258031493020004E
:100A1000A4009930A5000530A60062258031003A77
:100A2000031D142D2000AC015825803153302000C7
:100A3000A4009930A5000430A60062258031003A58
:100A4000031D242D2000AC01582580312000AD016C
:100A50002D08982580315825803120002D35D43E31
:100A600086008701403FA400413FA5000630A60054
:100A700062258031003A031D3F2D2000AC0120008B
:100A80002D08D5258031CC30A4000030A5000530DC
:100A9000A60062258031003A031D502D2000AC01D4
:100AA00020000230AD0A2D02031C282D2C0808005E
:100AB00020001C1522000D1620001C195C2D2200A0
:100AC0000D120800240884002508850000088038DD
:100AD000AA00A901A90A22000C1020002A08B725A3
:100AE000803121008C142000AB01AB0A26082B02B8
:100AF0000318912DAC268031AA002508A8002408EF
:100B0000A7002B082707840028080318280A850057
:100B100000082A060319752D22000C1421008C10E0
:100B2000003422000C1421008C1020002908080039
:100B30002000A20022360139A100A10DA10DA10DB6
:100B400022000D0820002106F739210622008D0021
:100B5000200022080139A100A10DA10D22000D08DD
:100B600020002106FB39210622008D000800A1008B
:100B70008030A200A30122000C11200021082205D0
:100B80000319C52D22008C14C72D22008C100000E3
:100B9000000022000C150000000020000830A236E2
:100BA000A30A230203180800BB2DA200D53E84002F
:100BB00098300318013E85000008A3000B30210087
:100BC000CC002000A4012408CD3E86008701230824
:100BD00024078C31AB248031810020000430A40A2A
:100BE000240203180800E32D0C120C170E110C1030
:100BF0008C100C110D120D118D11080020001C110C
:100C000087309C05FC309C05A0309B009A01911018
:100C10002100911422000C166E302000AD00AE01B0
:100C20008931D72122000E11080091312C21803109
:100C3000AB00EE308600213087002B088100E430C5
:100C4000A5000030A6000430A7003A2680319C3071
:100C5000A5002130A600EE30860021308700010873
:100C6000A7003A268031E930A5000030A600033005
:100C7000A7003A2EAA01AA0127082A020318080091
:100C80002A08A800A901250786002908263D870013
:100C90000108003E840098300318013E85000008DA
:100CA00054268031AA0A3C2EA1008030A2002108DF
:100CB000A300FF30A306FA1A652E1C08FC3902387F
:100CC0009C001C08873930386C2E1C08873968381E
:100CD0009C001C08FC3902389C00EE309B009A01F5
:100CE0009110210091142000A4012308220503196A
:100CF0007C2E22000D157E2E22000D112000A23622
:100D00001C151C19812E0830A40A2402031808009F
:100D1000752E8D31152580312100B30020006C1F08
:100D20009A2E210032083302031C9A2E20006C13E5
:100D3000EC13A42E20006C1BA42E210033083102DA
:100D4000031CA42E20006C1751302100330203181D
:100D500008002000EC1708008030A101A200A301C8
:100D600022000C110000000022000C150000000001
:100D7000200022088C18A1040830A236A30A2302FE
:100D8000031CB02E2108080021002F080800DF26D0
:100D9000803121004A08003A0319D82E013A03197C
:100DA000DA2E033A0319DA2E013A0319DC2EDE2E6D
:100DB000903146289331382B90318028080020004C
:100DC000A1012108803A313E0318EF2E21089C3EF4
:100DD000860021308701873D8101A10AE12EEE3096
:100DE0008600213087008101080043080800FD03C8
:100DF0007D08031D0800112FF60028304A0603194C
:100E00000E2F4908A03E8600013087007608810039
:100E10002830CA0AC90A49060319C90107304A27F6
:100E20000800182FFA15232F0E304A278631232F5A
:100E30006F08003A0319122F013A0319142F033ACD
:100E40000319232F232F200018100800ED0A053066
:100E50006D02031C0800ED0104304A278631013081
:100E60002100B6070030B73DB83DB93D39088030A4
:100E7000031D422F36025130373B0130383B031CF3
:100E800008008030B607AE30B73DFE30B83DFF30C9
:100E9000B93D0800F40000308B1B0130F5008B13C6
:100EA0007408F000AB30F101F035F10D70078400EB
:100EB0009830713D8500003FF200013FF300720859
:100EC0002000E7047308E804751C682F8B170800DE
:100ED0008B1308002408031D762F2308031D762F8B
:100EE000E83021020330223B031C962F0B30A60072
:100EF0006230A500A50B7A2FA60B7A2F0000E830F0
:100F00002000A1020330A23B0030A33BA43B6A2F88
:100F1000C730A5000000A50B8A2F00320000643006
:100F20002000A1020030A23BA33BA43B2408031DE8
:100F3000882F2308031D882F2208031D882F643063
:100F40002102031CB02F882F1A30A500A50BA62F55
:100F500000000A302000A1020030A23BA33BA43BCA
:100F60002408031DA42F2308031DA42F2208031DFA
:100F7000A42F0A302102031CC92FA42F00320032F3
:100F80000032003201302000A1020030A23BA33B1E
:100F9000A43B240823042204210403190800BE2FC3
:100FA000D12F00300D180130A900290BE52F2100A9
:100FB0004508031908000B30C60AC7014602031C86
:100FC00008000330C5018B310E2B210045030319A6
:100FD00008001F30C70AC6014702031C080008307A
:100FE000C501C50A8B310E2BFE0012001E00013018
:100FF000FE020030FF3B7F087E0403190034F52F0A
:101002000930D42C4F2088312100171402300E2BC6
:10101200E701E801FA181128D9238831B72388316A
:10102200D22F0030D101D0016D2188311C1505303D
:10103200622188314422883145280C278831013ABF
:10104200031D4328D00AEE268831CF00442288317E
:10105200322802303028D101D10A3D280330D10094
:101062003D284F086E3A03192F281C3A03192A28E3
:10107200053A03192C283D28510803194528152241
:10108200883145280430D10020005108031D4D2825
:1010920005305002031C1E2851080800A52788317C
:1010A200A6268831A730A1009930A20029278831CD
:1010B2005A303D2188311930AD00AE01D721883137
:1010C2000330CD2088310030352288311522883115
:1010D200111420001814B7282330BA218831013A9C
:1010E200031DC6282330A6218831003A031DC628D5
:1010F200B72788310030CD2088310100C62804305E
:10110200BA218831013A031DC6280430A62188314C
:10111200003A031DC628AE268831013A031DAF28C6
:10112200D40154089C3E860021308701873D010886
:10113200A1005408A13E840098300318013E8500A6
:101142000008F424883120000330D40A5402031C1E
:1011520092280130CD2088310100C6280230CD20EE
:101162008831C6280030CD208831C6281220883127
:10117200013A03196D28033A0319B328013A0319F6
:101182008028073A0319C628C62820001810210013
:10119200111020001C11D92BA6000030A701A901B3
:1011A2006D2188311C1514306221883101306D2186
:1011B20088312D29A8012808893E84009830031817
:1011C200013E85000008AB2488312000A900A70653
:1011D2003D2188312230A80A280203183B29DC2845
:1011E200A8012808A13E840098300318013E85001A
:1011F2000008AB2488312000A900A7063D218831D0
:101202000330A80A280203183B29F2286530A706F2
:101212003D218831A9308400983085000008AB2434
:1012220088312000A900A7063D2188315530A70644
:101232003D2188313B29A8012808653E86000130FE
:1012420087000108A900A7063D2188310630A80AB7
:10125200280203183B291D292608003A0319DB2816
:10126200013A0319F128033A03190729013A03192C
:101272001C293B2927083D29A4001C119A01911021
:101282001C1522008C17063062218831A501240822
:10129200A300250A4D29A336890B4C29231854296A
:1012A20022008C17562922008C13063062218831C5
:1012B2000830A50A2502031C482922008C13063097
:1012C20062292000A100A200220803190800911C33
:1012D2006829A20391106529A10044228831972927
:1012E2001C08FC3901389C001C08873970389C00A6
:1012F200FA309B0008001C08FC3901389C0087303A
:101302009C0579291C08FC3901389C007D309B0022
:1013120087309C0508001C08FC3901389C006030AD
:101322009B001C08873938389C0008002108003AC5
:1013320003197129013A03197C29033A03198329F4
:10134200013A03198C29A5290800A100A301A201D1
:10135200A301210823020318B82923089C3E860012
:1013620021308701873D0108A206A30AAA29220883
:101372000800D200D301D3015208530203180134EA
:101382000C278831013A031D0034EE268831CF0044
:1013920053089C3ED0002130D101D13D5008860037
:1013A200510887004F088100D30ABD292D08A100EA
:1013B2002E08A2000330A301A401A801A701A600E0
:1013C200E830A500082688312408B6002308B500B5
:1013D2002208B4002108B300FA180B2A2030AF000B
:1013E200B001B101B2013308AF073408B03D35088E
:1013F200B13D3608B23D0630B236B10CB00CAF0C7E
:10140200890BFD293208B6003108B5003008B40056
:101412002F08B3003608A4003508A3003408A20040
:101422003308A10087316A2F0030200018180130DC
:10143200A10000302100111801302000A200181074
:10144200FA1121006208FD00200011109701960197
:10145200210C031C181003181814220C2100031C61
:1014620011100318111408002000A10018181810F8
:10147200EF00D93E840098300318013E8500000831
:101482002100E20008001C119A01911008002000BE
:10149200D20015258831D3000230AB2488312000D8
:1014A200D600B42488312308D5002208D4000430A1
:1014B2005206031D642A73305302031C560B0800A4
:1014C2000230A101F42C79305302031C08005608A3
:1014D200031D08000230A101A10AF42488312F3033
:1014E20020005502863003195402031C802A013061
:1014F200A101F424883120000030A101F42CD40A87
:101502000319D50A5508D600A1000130F424883108
:1015120020005408D600A1000030F42C0A30FC0050
:101522000430FD005230EE000330EF002D30840015
:101532009D308500D4308600003087000030FF00E7
:1015420019308731F4278831053084009D308500B9
:101552005D308600013087000030FF000F30873198
:10156200F4278831463084009D308500CB308600D8
:10157200013087000030FF001A308731F4278831AC
:101582009C308400213085005430FE000030FF0082
:101592009C31F9248831F801F901FA01FB01E701D4
:1015A200E801E901EA01EB01EC01ED01A030840060
:1015B200003085003430FE000030FF009C31F924F9
:1015C200883120308400013085003D30FE0000303B
:1015D200FF009C31F9248831A0308400013085005D
:1015E2002B30FE000030FF009C31F924883120307E
:1015F2008400023085001A30FE000030FF009C316A
:10160200F92488317E102000062B9E238831013078
:101612000E2388312323803168282000A70021006F
:101622004208C30020002735CB3E860001308700E8
:10163200413F8A00403F0A008B31200027082100E9
:10164200C200080020001F30E201E3013F00ED006C
:101652002000E401E40AE501E601640020006708D5
:101662006804031D362B64002F2B6808E30067080B
:10167200E20064086205DE0065086305DF005E04BF
:10168200031D472BE435E50DE60A3A2B6608AC004C
:101692000330AD01AE00AF0167232D0885002C0891
:1016A20084005D3084079830853D003FE000013FB3
:1016B200E1008A0060080A0007308B3120006606CC
:1016C2000319292B66087C238831292BB001B1012B
:1016D2002C1C6F2B2E08B0072F08B13DAE35AF0D75
:1016E200AD36AC0C2C082D04031D692B3108AD005E
:1016F2003008AC0008002000A50000308B1B013030
:10170200A6008B132508A100AB30A201A135A20DC2
:10171200210784009830223D8500003FA300013F4D
:10172200A400A309A4092308E7052408E805261C48
:101732009C2B8B1708008B1308006400D923883177
:1017420001300B24883131268831F82388312D2647
:10175200883123248831FA238831B7238831F22350
:101762008831EB23903134208831D22F2800171191
:10177200FA1CC92B03309704170887394838970099
:10178200FA3096000A302100E30085309500080007
:101792001708FC3902389700170887395038970024
:1017A2008E30960001302100E30088309500080059
:1017B200FC3021009905190887397038990099176A
:1017C2001A1EE12B9A1DE32B0530FA142000AD00FE
:1017D200AE01D72921001708C1391C38970017100C
:1017E200080002302100C500C601C7010800003010
:1017F2000E2B283023008C008D013C26283021003E
:101802008C0001308D0080308E0024008D01083064
:1018120090000800A10028001E1187309E05FC30B0
:101822009E0520309D0020002108031D1B2C203026
:1018320028009D002000931121000D138D17220016
:101842000D170800C301EC01C40144083E3EAB245D
:1018520088310F392000C1000A30A1004308C72493
:1018620088314107C3000330C40A4402031C262CFA
:1018720043082100AC004230AB2488312100AE0085
:101882004330AB2488312100AF004730AB2488318C
:101892002100AD002E082000AC00AD0121002D0872
:1018A2002000AE00AF01672388312D082100A5007A
:1018B20020002C082100A4004830AB242000C100E5
:1018C200C201C135C20DC135C20D4108B90042087D
:1018D200BA009D31812588312100B100053EB20058
:1018E2004430AB2488312100C1004530AB2488311B
:1018F2002000C5002100BF000F30BF052000450EAB
:101902000F392100BE000F30BE053F08C00046302F
:10191200AB2488312000C500451C6C15C5186C1617
:10192200451AFA16C51E7A156C1E9A2C0130D4245B
:101932008831B42488312F302302873003192202E0
:10194200031C08000130A101F4248831200000307A
:10195200A101F42C2000A100230091009201951313
:101962001514130808000130AB2488312000A600AA
:10197200A5000030A401AB242000A600A407031890
:10198200A50A2508A3002408A20008002000A3003D
:10199200A20121082318A207A135A3362308031D9B
:1019A200CA2C220808002000A50000308B1B013041
:1019B200A6008B132508A100AB30A201A135A20D10
:1019C200210784009830223D8500003FA300013F9B
:1019D200A4002308E7042408E804261CF22C8B1731
:1019E20008008B130800A20023009100920120003E
:1019F2002108230093009513151500308B1B01302D
:101A02002000A3008B13553023009600AA309600C5
:101A120095142000230C031C8B1303188B1723002F
:101A22009518102D15110800823022009700171FFB
:101A3200182D1F302000B9000130612588313A0885
:101A4200D1003908D0002200971304302000B900D9
:101A52000130612588313A08CC003908CB005008A2
:101A620051040319562D5008AD005108AE00AF01C4
:101A7200B0014B08A1004C08A2002030A301A40130
:101A8200A801A701A6000C30A50008268831240869
:101A9200B4002308B3002208B2002108B10067266F
:101AA20088312E08CE002D08CD006430B200B3017B
:101AB2004E08B5004D08B40042263208CF00080097
:101AC200BD00FF30C801C80AC101C201C301C4017F
:101AD200C500C6006030C70121009E0020003D0CF9
:101AE2002100031C9E1303189E1720003908BB0017
:101AF200BB0DBB0D21001D0820003B0683393B06B0
:101B020021009D001D1442302000BB00BB0B872D1D
:101B120000000430200039060319932D1F303906C6
:101B2200031D9D2D4230BB00BB0B952D00001230D2
:101B32002000C800C701C70AC001480840020318B4
:101B4200D72D1A30BB00BB0BA42D000021009D1421
:101B5200000021009D18AA2D1C082000CA00C901FE
:101B620021001B082000C9070318CA0A470BD12D00
:101B72004A084402031DBF2D490843020318C52D1C
:101B82004A08C4004908C30046084A02031DCB2D77
:101B9200450849020318D12D4A08C6004908C50064
:101BA2004908C1074A08C23DC00A9E2D21001D10E6
:101BB2002000470BF72D43084507BB004408463D6C
:101BC200BC00BB09BC09BB0A0319BC0A3B08B40030
:101BD2003C08B5004108B4074208B53D4808B200C8
:101BE200FE30B301B207FF30B33DFE2D4808B2000C
:101BF200B3014208B5004108B40042263308BF00D1
:101C02003208BE003F08BA003E08B9000800A90128
:101C1200AA01AB01AC01211C162E2508A907260832
:101C2200AA3D2708AB3D2808AC3DA535A60DA70D5A
:101C3200A80DA436A30CA20CA10C24082304220490
:101C42002104031D0C2E2C08A4002B08A3002A0833
:101C5200A2002908A10008002000E701E80108000D
:101C620030302000980418102100111020001110AB
:101C7200970196010800403022008C008D018E01F0
:101C82000800B601B701320833040319622EB80105
:101C9200B80AB31B4F2EB235B30D492EB635B70D68
:101CA20033083502031D572E32083402031C5E2E00
:101CB2003208B4023308B53B3614B336B20CB80B53
:101CC2004F2E3708B3003608B2000800B501B6013E
:101CD200B701B80130082F042E042D0403199D2EDC
:101CE200B901B90AB01B7A2EAD35AE0DAF0DB00DEC
:101CF200722EB535B60DB70DB80D30083402031D7E
:101D02008C2E2F083302031D8C2E2E083202031D47
:101D12008C2E2D083102031C972E2D08B1022E089D
:101D2200B23B2F08B33B3008B43B3514B036AF0C8E
:101D3200AE0CAD0CB90B7A2E3808B0003708AF00E4
:101D42003608AE003508AD0008002F0091012100D1
:101D520011132000111301306D29A930B401B6010D
:101D6200B7018400983085000008AB248831200038
:101D7200B400B80138089C3E860021308701873DB7
:101D82000108D03EB5000A30350203180034370886
:101D9200AD003608AC000A30AE00AF0167238831CF
:101DA2002D08B7002C08B6003508B6070318B70A85
:101DB2000330B80A3802031CBB2E3408B200B30148
:101DC20037083302031DE72E36083202031C0034A3
:101DD20036083704031D01340034CD01CC0115222D
:101DE200883120001C15053062218831CE010A306D
:101DF2006221883120278831CC000A304C02031836
:101E0200042FCD36052FCD0C0830CE0A4E02031C0E
:101E1200F82E4D080800FA19003420278831CC002A
:101E22000B304C0203181D2F0C2F20278831CC00B9
:101E32000A304C02031C0134FA190C2F162F0330FE
:101E4200B9000030612521001C082000CB000800E9
:101E52002030A601B20128009D002000A801013017
:101E6200B10021088400220885001200031908002D
:101E72006030260203180800210884002208850029
:101E82000008A400A701A70AB201B20A2408270584
:101E92000319522F3208283E860001308701810043
:101EA200572F3208283E8600870181010930A73565
:101EB200B20A3202031C472F28001E119C01003077
:101EC2008B1B01302000A5008B139311F900080E23
:101ED2002200BF00030EBE000408C0000508C100B6
:101EE2000A08C20028308400003085000A30F80059
:101EF2008F3128001E151200090C2200031C0D133D
:101F020003180D1720009311931D852FF80B7C2FBA
:101F12002200400884004108850042088A003E0EE3
:101F220083003F0E8800F90E790E28001E11200052
:101F32009311251C9E2F8B179F2F8B132000A10A14
:101F42000319A20AA60A322FFC30210099051908AA
:101F520087396838990099131A1EAD2F9A1DAF2F31
:101F6200FA142000AD01AD0AAE01D729A401A401E3
:101F720024089C3E860021308701873D0108A1008C
:101F82002408893E840098300318013E8500000829
:101F9200F424883120002230A40A24020318080005
:101FA200B92F2000EB01F2239D31602588317A128E
:101FB2007A13F8278831B001EB2788310B118B1285
:101FC2000B178B172000931021009314280017156C
:101FD2000230482A20000230EC10EC126B1621006D
:101FE200DC00DD013F08C0003C30E10008002100B8
:0E1FF200B601B701B801B9010A30FC000800C1
:1020040046300720903146086E2CA8000030A90104
:102014008B1B0130A7008B1323004A0803192528C2
:102024004808A03E86000130870001082000A9006E
:1020340023002830CA03C80A48060319C8014A08FD
:10204400031D252831202000270C031C8B130318A3
:102054008B172808860087012908810008000730AB
:102064008B317C2B0230B7219031112522008E1642
:10207400F4302000AD000130AE008931D721903119
:10208400432122008E12080073229031B330A10044
:102094002130A200EA30A3009830A4003B22903102
:1020A4002C219031D3009C30A1002130A200530890
:1020B400A1070318A20ADC30A3009830A4003B2235
:1020C4009031E12090312C21D3009C3ED10021306D
:1020D400D201D23D51088600520887002030810089
:1020E400D30A53089C3ED1002130D201D23D51087D
:1020F4008600520887002030810008002000D701A4
:1021040073229031B330A1002130A200F730A30034
:102114009830A4003B2290312C219031D800F52234
:1021240090312000D700303ED10058089C3ED200A8
:102134002130D301D33D520886005308870051084B
:1021440081005808013EF82290315808D1009E3091
:10215400D201D3002130D40051085307D5005208CE
:10216400543DD60055088600560887003C3081004F
:102174005808D1009F30D201D3002130D400510837
:102184005307D5005208543DD6005508860056081A
:102194008700203081002C219031D8009C30A10090
:1021A4002130A2005808A1070318A20ADC30A300BA
:1021B4009830A4003B2290312C219031E128113039
:1021C400C1000230C2008C31B42490312308BF0016
:1021D4002208BE002C21BD00C0014208B300410802
:1021E400B2003F08B5003E08B4008E31422690315B
:1021F4003208BC00413EB9003D089C3EBA00213083
:10220400BB01BB3D3A0886003B08870039088100C2
:10221400BD0A4208A2004108A1003F08A4003E08EC
:10222400A30053222208BF002108BE001730B200C9
:10223400B3014208B5004108B4008E314226903102
:102244003308C2003208C1000330C00A4002031838
:102254000800EF289C30A301A1002130A2003A29F4
:102264005230230203184129A30AA10A0319A20A1E
:1022740021088600220887000108031D322923084B
:1022840008002000BC01BA01BB01BC017829BA01D5
:102294005029BA01BA0A50290230BA00BB013A08DF
:1022A400B72190317430A2009930A3009A21903064
:1022B400AD000130AE008931D721903122008E1259
:1022C400C8302000AD00AE018931D7219031220001
:1022D4008E16F4302000AD000130AE008931D721D4
:1022E40090310330BC0A3C02031884293C08003AAC
:1022F40003194929013A03194B29033A03194E29B1
:10230400512951290230B72190315A30A200993015
:10231400A3009A21F430AD000130AE008931D721F9
:1023240090318D30A2009930A3009A219031F12987
:10233400A5012308A7002208A60026088400270870
:1023440085001200031908008030250203180800D4
:1023540026088400270885000008EA21903120001F
:10236400A60A0319A70AA50A9F292000B900230079
:102374001E129F151E15D529033023009C004030E2
:10238400CE2923009C018A30CE2923009C014430AD
:10239400CE2923009C010C309B00E429B8013908A4
:1023A400303EB700E42920003908003A0319BE2959
:1023B400013A0319C329033A0319C729013A031936
:1023C400CB29D02964302000AD00AE018931D72952
:1023D400A100111EEB29210823009A0008009C305B
:1023E400A1002130A2000430A3009930A4003B22B4
:1023F4009031A630A1002130A2004E30A3009930C4
:10240400A4003B229031AB30A1002130A200573010
:10241400A3009930A4003B229031B80138085D3EF6
:102424008600013087000108B700A53086002130FE
:102434008700370881003808DD3E860001308700B8
:102444000108B700AA3086002130870037088100D0
:102454009C30A2002130A3009A216430AD00AE016B
:102464008931D72190310830B80A3802031808009E
:10247400102A2208A6002108A5002508860026089F
:10248400870023088400240885000008C03F8908C9
:1024940003190800A50A0319A60AA30A0319A40A22
:1024A4003F2A2108220403196E2AA501A50AA21BAA
:1024B4005E2AA135A20D582A22082402031D642A8B
:1024C40021082302031C6A2A2108A3022208A43B30
:1024D400A236A10CA50B5E2A2408A2002308A100A1
:1024E4000800D422CF014F08363E8C31AB24903102
:1024F4002000C8004F089C3EC9002130CA01CA3DD3
:10250400490886004A088700480881000430CF0A39
:102514004F02031C752AD00150083A3E8C31AB247B
:1025240090312000C8005008C900A130CA01CB0076
:102534002130CC0049084B07CD004A084C3DCE0061
:102544004D0886004E088700480881000730D00AED
:102554005002031C8E2AA0308600213087003E30B2
:102564008100AE3086003E308100A83086002C30D9
:102574008100A93086003C308100B13086003C30B7
:102584008100AC3086002E308100AF30860056309A
:102594008100B030860042308100B23086002030A5
:1025A40081000800210033082000C4004530B90030
:1025B4000030BA004408BB000330BC00BD0119243C
:1025C400AA30860021308700450881004608C300F0
:1025D400AB308600430881004708C300AD30860055
:1025E40043088100080022003A080800A4009C3E29
:1025F400A1002130A201A23D210886002208870003
:10260400303081006C1F122B24089C3EA100213025
:10261400A201A23D210886002208870031308100F2
:10262400EC1F202B24089C3EA1002130A201A23DD6
:10263400210886002208870032308100EB1F080041
:1026440024089C3E860021308701873D0108033E13
:10265400A10024089C3EA2002130A301A33D22082E
:102664008600230887002108810008007322903126
:10267400BE308600213087003E308100CE30860097
:102684003E308100D83086003E308100B230860072
:102694002C308100BD3086002C308100C130860092
:1026A4002C308100CD3086002C308100D130860062
:1026B4002C308100C03086003C308100D030860050
:1026C4003C308100B83086002E308100C83086004E
:1026D4002E308100B53086003A308100C530860046
:1026E4003A308100D930860048308100BF308600FE
:1026F4004E30810022004C0B832BBF3086005330B8
:102704008100CF3086002130870045308100520B94
:102714008F2BCF30860057308100B3302000B900B2
:102724002130BA00220048082000BB000230BC005F
:10273400BD0119249031B630B9002130BA0022000D
:1027440049082000BB000230BC00BD0119249031AF
:10275400C230B9002130BA0022004E082000BB006C
:102764000330BC00BD0119249031C630B9002130BA
:10277400BA0022004F082000BB000230BC00BD019B
:1027840019249031262590312408BD002308BC006B
:102794002208BB002108BA00A0279031D2302000C3
:1027A400B9002130BA00210051082000BB000230DA
:1027B400BC00BD0119249031D430B9002130BA00D5
:1027C400210052082000BB000230BC00BD011924C6
:1027D4009031D630B9002130BA00210053082000CE
:1027E400BB000230BC00BD0119249031B930C300D4
:1027F4002130C40022004B082000C60022004A08F1
:102804002000C5000430C700C80157279031C930E3
:10281400C3002130C400220051082000C600220059
:1028240050082000C5000430C700C801572F643089
:102834003B02031C212C03303C020318342C64306B
:102844003B020A3003182E2C3B02031C2D2C0230B1
:102854003C020318342C0A303B02031808003C08DD
:10286400031908003D0B3F2C3C08BE00BF0139078B
:1028740086003F083A3D8700810102303C020A305D
:10288400031C612CBC03A1003B0827279031C20024
:102894000A30A1003B083F279031BB003030C2070B
:1028A4003C08BE00BF013907C0003F083A3DC100E3
:1028B4004008860041088700420881003F2CA1009F
:1028C4003B082727C2003030C207390886003A087F
:1028D4008700420881000800C500C4016A1A080084
:1028E400243069154506031D892C16252000E91698
:1028F40021005E0886005F088700200045088100EB
:102904002100DE0A0319DF0A2000EE030800E91E95
:10291400080021005E0886005F0887002000450843
:1029240081002100DE0A0319DF0A2000EE03E91FFB
:10293400B52C2100E0036008031DD62C9C30200038
:10294400A1002130A2006E08523CA3004A25903118
:10295400013A031DB22C691622003C08F825903177
:10296400162590310B2E691FBD2C2A304506031DF8
:10297400D62CE917D62C4C306E06031DD62C21001C
:102984005E0886005F0887009C3081012000A60055
:102994002130A700AC259031013A031DD42C6917CE
:1029A400E915D62C1625903120006E08031D080069
:1029B400162D2000E901EA011625903111251D1676
:1029C4002100911622008E16F4302000AD00013053
:1029D400AE008931D721903121000130CB018A31F9
:1029E400352290318A3115229031111420001814A7
:1029F4006A15262524082200A300200023082200AB
:102A0400A200200022082200A100200021082200A8
:102A1400A00064302000AD00AE018931D729230025
:102A24009D171D169E16080020009C30E91269139C
:102A3400E9132100DE002130DF0052302000EE00D7
:102A440002302100E000080000308B1B0130A90097
:102A54008B13210039082000A80021003808200029
:102A6400A700210037082000A60021003608200016
:102A7400A500291C3F2D8B17402D8B1320002808FF
:102A8400A4002708A3002608A2002508A100080026
:102A9400A601A701A10A0319A20AAA01AA0A2308E6
:102AA400FD3EA400FF3003180030A500803A803CAE
:102AB400031D5E2D24082A0203186B2D2000210813
:102AC4008600220887000108A606A10A0319A20AA3
:102AD400502D2000AA01A10A0319A20A2108860088
:102AE40022088700473001022A08031C832D283E50
:102AF4008600870121088400220885000008DF3948
:102B04008B2D283E86008701210884002208850039
:102B14000008D03E81002A08283E86000A3087013A
:102B24000102031C9F2D2A08283E86002A08283EFD
:102B3400840085010008F93E81000230AA0A2A02B5
:102B4400031C6D2D280EF0392904A700260603194D
:102B540001340034AC01AB01AC012708A200260803
:102B6400A1002C08A800CB30A901A835A90D28077D
:102B740084009830293D8500003FA300013FA40054
:102B8400D625903121082204031DCE2DAB01AB0ABA
:102B94002C082200BC00D32D0530AC0A2C02031CE7
:102BA400AF2D20002B080800E42D21088600220800
:102BB400870001080319F22DA10A0319A20AA30A26
:102BC4000319A40A21088600220887002308840028
:102BD4002408850000080102A50025080319D72D43
:102BE4002508A100A201A11BA20308002000B60031
:102BF400002E9D31CB2DED2E0100080036088400F7
:102C0400053004020318080099310435D03E8200CF
:102C140008002000EA186A1C0800EA106A10210063
:102C24000A30CB0A4B02031C0800CB032000EA1A2B
:102C3400222EEA15DC269031362690312000EA1641
:102C440021003D082000A40021003C082000A3002E
:102C540021003B082000A20021003A082000A10026
:102C6400BF2606308C31D42C2000BE01BF01C00128
:102C7400C101220023082702031D4A2E220826022E
:102C8400031D4A2E21082502031D4A2E2008240272
:102C94000318702E80302000BA005130BB00013080
:102CA400BC000430BD01203E860001308700403F57
:102CB400BA07413FBB3D423FBC3D433FBD3D3D089C
:102CC4002200A70020003C082200A60020003B08A8
:102CD4002200A50020003A082200A40020082402B3
:102CE4002000BA0022002108253B2000BB0022005E
:102CF4003D35283E86000130870020003A08C03F59
:102D04003B08C13F22003D35283E8600403FB600C7
:102D1400413FB7002000C2014235283E8600013001
:102D24008700403FBA00413FBB003A08BE073B085A
:102D3400BF3D0030C03DC13D0630C20A4202031C03
:102D44008E2E0630AD00AE01AF01B0014108B400D3
:102D54004008B3003F08B2003E08B1008E31672638
:102D64002E082200B50020002D082200B4000630F1
:102D7400BD0A3D020318BD01080000308B1B013061
:102D8400A5008B1324082100B9002000230821008A
:102D9400B800200022082100B700200021082100EB
:102DA400B6007A162000ED01251CDA2E8B170800D8
:102DB4008B130800262524082200A70020002308DE
:102DC4002200A600200022082200A50020002108DD
:102DD4002200A40008009C30EA10A1002130A200C7
:102DE4002C30A3009F31AB2790312208A500210885
:102DF400A400A40A0319A50A24088600250887004C
:102E04004D300106031D092F2100C80108002508C3
:102E1400A2002408A1002C30A3009F31AB279031DD
:102E24002208A5002108A400A40A0319A50A24085D
:102E340086002508870033300106031D080003308F
:102E44002100C9002000EA140800A3000830A400EF
:102E5400A5012308A2000730A236890B2E2F2535A1
:102E64002204A500A33521082502031C3B2F2108B9
:102E7400A502A40B2B2F25080800A200A4012108F9
:102E84000319552FA301A30AA11B4A2FA135452FCE
:102E9400A43521082202031C522F2108A202241463
:102EA400A136A30B4A2F240808002730460210300D
:102EB40003194502031C622F0530470203186D2FC6
:102EC4002730460210300319450203180800043065
:102ED4004702031C08004408BA004308B9006430E0
:102EE400B200B3014608B5004508B4008E3142264D
:102EF40090313208BB004708FE3EBC004808BD00C4
:102F0400192490314408BA004308B9004708B907A6
:102F14000318BA0AFE30B907031CBA036430A100CF
:102F2400A2014608A4004508A300532290312108B9
:102F3400BB000230BC004808BD00192C3D08C50088
:102F44003C08C4003B08C3003A08C2000E30B0017C
:102F5400AF01AE001030AD004508B4004408B30022
:102F64004308B2004208B1008E31672690312D0823
:102F74002100D1003C302000AD00AE01AF01B00112
:102F8400210051082000A100FF30A201A301A401E7
:102F9400A800A700F130A600F030A5008E31082665
:102FA400903121084207BE002208433DBF00230898
:102FB400443DC0002408453DC100B4004008B300AE
:102FC4003F08B2003E08B1008E31672690312D08CB
:102FD4002100D200C4302000A100210052088C310D
:102FE400C7249031BE00F030A100210051088C317B
:102FF400C7243E0742072100D300080003340034ED
:1030040000340034003400340034533400340034C9
:103014002334003400340B340034003400340034DE
:1030240000340034003400340034003400340034FC
:1030340000340034003400340034003413345B347E
:10304400473417344B3400342F346B347B342734F7
:10305400003400341B3463341F345F343734773422
:10306400673443342B3407345734733433340F34D4
:103074003B343F347F3400346F344F340034633492
:103084004F343B344B3443345B342F3417343334B0
:103094006B347B3427341F341B340F343734773488
:1030A4002B345334073473343F3467345F34573428
:1030B4004734003400340334083401346D340034AC
:1030C40002341D340334033414341D340434813481
:1030D40000340534D034073406342534013407343D
:1030E400023410340834A234003409342234043451
:1030F4000A34093408340B34553401340C340334A1
:1031040000340D34033400340E34C2340034223419
:103114002334243425342734283429342A342C34D1
:103124002D342E342F343134323433343434363471
:103134003734383439343A343B343C343D343E3417
:103144003F344034423443344434453446344734C1
:103154004834013400340234003404340034083474
:1031640000341034003420340034403400348034CB
:1031740000340034013400340234003404340034A4
:103184000834003410340034203400344034003423
:1031940080342A3499341C349934233499341534C2
:1031A40099340E349934223427342C343134043491
:1031B4003C34963456343E34333431343C34523413
:1031C4003E34363436343C342034433420340034F2
:1031D4004134433454344934563441344E34443401
:1031E4004F3453344534203400344E344F34543443
:1031F4004934433445342034473450345334203430
:103204003E3400342434503441344934523430345C
:10321400363432342C340034243445344534533475
:103224004C3466340034243447344E3447345334F5
:1032340041340034243447344E3452344D3443340E
:103244000034243447345034473453344134003444
:1032540024344734503452344D3443340034073426
:1032640000340034003400340034083400340034B2
:103274000134043400340934003400340234083492
:1032840000340A340034003403340C340034003481
:1032940080340034003440342C3430342A34333411
:1032A400003401341834083424340D340A3400341E
:1032B400243450344134493452343034363436347E
:1032C4002C3431342C3430342C3431342C343134E7
:1032D4002C3431342C3430342A34333441340D34E6
:1032E4000A340034243450344134493452343834A8
:1032F400363434342C3430342C3430342C343134AB
:10330400313435343234303430342A343134423484
:103314000D340A34003424345034413449345234A2
:103324003034363437342A34333442340D340A34A6
:1033340000342D3432343134343437343434383482
:10334400333436343434383400340D340A3452349B
:1033540058345F344C3455345A340D340A34003400
:103364004534303400344534313400344534323457
:103374000034453433340034453434340034453473
:10338400353400344534363400344534373400346D
:103394004534383400344534393400349531FB2D08
:1033A4009531FB2D9531FD2D9531FD2D9531FE2D5A
:1033B40083318B2B83318B2B83318B2B83318B2B61
:0433C40083318B2B9B
:1039B60021004108080000308C31D42C0A308C31AB
:1039C600D42C08308C31D42C08308C31D42C0B30CC
:1039D6008C31D42C02308C31D42C2100C301C2018D
:1039E60008000C308C31D4248E313C2E640001301A
:1039F60080010131FE020030FF3B7F087E0403197F
:103A06000034FA2C303431343334353436343734E8
:103A16003834393431343534303430343034303469
:103A26000034FA1C192D21259D311C2D8B31D923EB
:103A36009D318B31B723280017150800FC30210073
:103A46009905190887393838990099131A1D292DAF
:103A5600FA10080031349934373499343D349934A6
:103A6600433499343C3400349C34213402343C349D
:103A760004340A343C343C340D340A3400345834AB
:103A86000D340A340034F0341C34DE341C34E13492
:103A96001C34E4341C3401340834E7341C34F43464
:103AA6001C34EA341C34ED341C3445344634443476
:103AB600423438343934363437342000EA1122009F
:103AC600BD01A001A101A201A301A401A501A601B6
:103AD600A7012000A1012135283E8600013087007C
:103AE6001E30C03F0030C13F0630A10A2102031C30
:103AF6006E2D1E302200B400B50108000930BB014E
:103B0600BC01BD01BE01B200B3013A08AD003908DF
:103B1600AC000530AE00AF018B3167239D312D0817
:103B2600B5002C08B4008E3142269D313308C00002
:103B36003208BF000230BF070318C00A3030B20097
:103B4600B3013A08AD003908AC001130AE00AF0140
:103B56008B3167239D312C08313EB40000302D3D5A
:103B6600B5008E3142269D313308BC003208BB00B9
:103B76000730B200B3013B083F07B4003C08403DA4
:103B8600B5008E3142263308BE003208BD0008005B
:103B96009C30A1002130A2002C30A300AB279D3120
:103BA6002208B5002108B400B40A0319B50A6A1040
:103BB6002200C701CD0120003508A5003408A40065
:103BC6000230A60089279D312200C3002000340858
:103BD600023EA4000030353DA5000230A60089272C
:103BE6009D312200C40020003408043EA4000030A9
:103BF600353DA5000230A60089279D312200C5006B
:103C060020003508A2003408A1002C30A300AB2701
:103C16009D312208B5002108B400B40A0319B50A7B
:103C2600340886003508870056300106031D1F2E0E
:103C36002200C601C60A2B2E3408860035088700E6
:103C460041300106031D2B2E2200C60120006A14F6
:103C560020003508A2003408A1002C30A300AB27B1
:103C66009D312208B5002108B400B40A0319B50A2B
:103C760034088600350887002C3001060319852E86
:103C86002200C701C70A20003508A5003408A40091
:103C96000230A60089279D312200C8002000340882
:103CA600023EA4000030353DA5000230A60089275B
:103CB6009D312200C90020003408073EA4000030D0
:103CC600353DA5000230A60089279D31B20002309D
:103CD600B301A6003408053EA4000030353DA5001A
:103CE6008927AC006430AD01AE00AF018B3167238C
:103CF6009D3132082C072200CA00200033082D3DD2
:103D06002200CB0020003508A2003408A1002C3088
:103D1600A300AB279D312208B5002108B400B40AE0
:103D26000319B50A2200470BAF2E2000340886007F
:103D3600350887004E300106031DA42E2200CC0153
:103D4600AF2E340886003508870053300106031D60
:103D5600AF2E2200CC01CC0A20003508A200340880
:103D6600A1002C30A300AB279D312208B500210805
:103D7600B400B40A0319B50A34088600350887006A
:103D86002C3001060319092F2200CD01CD0A20008F
:103D96003508A5003408A4000330A60089279D3104
:103DA6002200CE0020003408033EA4000030353D3A
:103DB600A5000230A60089279D312200CF002000F1
:103DC6003408083EA4000030353DA5000230A600A8
:103DD60089279D31B2000230B301A6003408063EA1
:103DE600A4000030353DA5008927AC006430AD0144
:103DF600AE00AF018B3167239D3132082C072200BC
:103E0600D000200033082D3D2200D10020003508C7
:103E1600A2003408A1002C30A300AB279D31220854
:103E2600B5002108B400B40A0319B50A22004D0BE7
:103E3600332F2000340886003508870057300106E6
:103E4600031D292F2200D201D20A332F34088600FF
:103E56003508870045300106031D332F2200D201A5
:103E660020003508A2003408A1002C30A300AB279F
:103E76009D312208B5002108B400B40A0319B50A19
:103E86003508A2003408A1002C30A300AB279D31D1
:103E96002208B5002108B400B40A0319B50A35088A
:103EA600A2003408A1002C30A300AB279D312208C4
:103EB600B5002108B400B40A0319B50A3508A500EF
:103EC6003408A4000230A60089279D312200D900BB
:103ED60020003408023EA4000030353DA500023023
:103EE600A60089279D312200DA0020003408043E0E
:103EF600A4000030353DA5000230A60089279D317B
:103F06002200DB0020006A1C0800C12FA901AA01BB
:103F1600AB01A52F26082A020318A92F2A08A700F5
:103F2600A801240786002808253D87000108D03E01
:103F3600AB000A30A10029088C31C7249D312B071C
:103F4600A900AA0A0A302B02031C8D2F2908080093
:103F5600210886002208870001080319BE2F2108C0
:103F66008600220887000108230603190800A10A13
:103F76000319A20AAB2FA101A201080022004308DF
:103F86002000A1000E30A201A301A401A801A701EF
:103F9600A6001030A5008E3108269D312408210088
:103FA600BD00200023082100BC00200022082100BB
:103FB600BB00200021082100BA002200440820008E
:103FC600AC003C30AD01AE00AF018B3167232C084D
:103FD6002100BA0720002D082100BB3D0030BC3D62
:103FE600BD3D220045082100BA0701300318BB0772
:0A3FF6000318BC070318BD070800FC
:020000040001F9
:04000E00CCEFFFDE56
:10E00000000000000000FF00FF00FF00FF00FF0015
:10E01000FF00FF00FF00FF00FF00FF00FF00FF0008
:10E02000FF00FF00FF00FF00FF00FF00FF00FF00F8
:10E03000FF00FF00FF00FF00FF00FF00FF00FF00E8
:10E04000FF00FF0015007000E0002200FF00150037
:10E050007000FA005900FF0015007000E000220077
:10E06000FF0015007000FA005800FF004400430054
:10E0700054004300300030003100310030003000E7
:10E080003200FF0006000100010028009400140087
:10E09000CF00FF00FF00FF00FF00FF00FF00FF00B8
:10E0A000FF00FF00FF00FF00FF00FF00FF00FF0078
:10E0B000FF00FF00FF00FF00FF00FF00FF00FF0068
:10E0C000FF00FF00FF00FF00FF00FF00FF00FF0058
:10E0D000FF00FF00FF00FF00FF00FF00FF00FF0048
:10E0E000FF00FF00FF00FF00FF00FF00FF00FF0038
:10E0F000FF00FF00FF00FF00FF00FF00FF00FF0028
:10E10000FF00FF00FF00FF00FF00FF00FF00FF0017
:10E11000FF00FF00FF00FF00FF00FF00FF00FF0007
:10E12000FF00FF00FF00FF00FF00FF00FF00FF00F7
:10E13000FF00FF00FF00FF00FF00FF00FF00FF00E7
:10E14000FF00FF00FF00FF00FF00FF00FF00FF00D7
:10E15000FF00FF00FF00FF00FF00FF00FF00FF00C7
:10E16000FF00FF00FF00FF00FF00FF00FF00FF00B7
:10E17000FF00FF00FF00FF00FF00FF00FF00FF00A7
:10E18000FF00FF00FF00FF00FF00FF00FF00FF0097
:10E19000FF00FF00FF00FF00FF00FF00FF00FF0087
:10E1A000FF00FF00FF00FF00FF00FF00FF00FF0077
:10E1B000FF00FF00FF00FF00FF00FF00FF00FF0067
:10E1C000FF00FF00FF00FF00FF00FF00FF00FF0057
:10E1D000FF00FF00FF00FF00FF00FF00FF00FF0047
:10E1E000FF00FF00FF00FF00FF00FF00FF00FF0037
:10E1F000FF00FF00FF00FF00FF00FF00FF00FF0027
:00000001FF
