:06000000000080316B28B6
:100008007E14803123009D1C18281D120000230037
:100018001D1618282000911E1B2823001908F70018
:1000280077089C31A42480312100911A0E282100E0
:10003800911C23282000911C23281C1191108B1A35
:100048000B1D3D28FC0A9A319B2280317C06031D3A
:100058002F2822008E120A307C02031C3628220028
:100068008E16FC01FB183C2820001508053E95005B
:100078000B112100931C5F282000931C5F2821008E
:10008800E003FB1C4A286008031D5D289C31D2242C
:10009800803105309C31F62480317B1C5A2803308E
:1000A8009C31F6248031280017117B100A3021007A
:1000B800E000200093102100111C69282000111C69
:1000C80069289C319E24200011107E100900200010
:1000D8000308A00092318C2AC500C4016E1A0800DA
:1000E80024306D154506031D8A28B1222000ED161F
:1000F8002100590886005A08870020004508810019
:100108002100D90A0319DA0AFD030800ED1E0800C8
:100118002100590886005A088700200045088100F8
:100128002100D90A0319DA0AFD032000ED1FBF28B0
:100138002100DB035B08031DE0289C302000A100A0
:100148002130A2007D08523CA300CE228031013A22
:10015800031DBC286D167D080319B828210059080D
:1001680086005A088700810122003C087C238031E0
:10017800B12280319F2B6D1FC7282A304506031DE9
:10018800E028ED17E0284C307D06031DE02821000B
:10019800590886005A0887009C3081012000A60073
:1001A8002130A70030238031013A031DDE286D1766
:1001B800ED15E028B12280317D08031D0800B12A21
:1001C8007B1E0129903174208031003021002702E4
:1001D800043003192602031CFF2827082000D80032
:1001E800210026082000D700FD30D707FF30D83D72
:1001F8009531892580317B171B295830A60002309C
:10020800A70027082000D800210026082000D700D2
:10021800FD30D707FF30D83D953189258031FB3037
:100228007B17A1009930A20095310D2580311C293A
:1002380002309331E82380312200BB01582A602123
:100248002000A80097316E278031033A031D08006B
:1002580020002808031D382900309531B025803149
:10026800FA1A3C2901303D2903309531B0258031F7
:100278000230432196310E2604309331102B200092
:10028800A1002100B5000F30B4007A1755292200CB
:100298000D16080022008D16080022000D128D127E
:1002A80008003508840005300402031808009A3154
:1002B8000435893E82000800200018106E116D1E5A
:1002C80068292200BA0176296D196E2902302200A8
:1002D800BA007329ED1965292200BA01BA0A7921F1
:1002E8008031582222003A0808002000BC01BA01D7
:1002F800BB01BC01AF29BA018629BA01BA0A86290D
:100308000230BA00BB013A089331E82380315230F9
:10031800A2009930A300D2219030AD000130AE0088
:1003280097318927803122000E12C8302000AD0095
:10033800AE0197318927803122000E16F430200053
:10034800AD000130AE009731892780310330BC0AF7
:100358003C020318BB293C08003A03197F29013ADB
:1003680003198129033A0319842987298729023027
:100378009331E82380313830A2009930A300D2218C
:10038800F430AD000130AE009731892780319030CC
:10039800A2009930A300D2218031F629A5012308B3
:1003A800A7002208A6002608840027088500120056
:1003B8000319080080302502031808002608840065
:1003C800270885000008EF2180312000A60A0319BC
:1003D800A70AA50AD729A100111EF0292108230080
:1003E8009A0008009C30A1002130A200E230A3004E
:1003F8009830A40040228031A630A1002130A2000C
:100408002C30A3009930A40040228031AB30A100E9
:100418002130A2003530A3009930A4004022803159
:10042800B8013808D03E8600013087000108B700BF
:10043800A530860021308700370881003808D83E6B
:100448008600013087000108B700AA3086002130F5
:100458008700370881009C30A2002130A300D221F8
:100468006430AD00AE019731892780310830B80A71
:10047800380203180800152A2208A6002108A5003A
:10048800250886002608870023088400240885009C
:100498000008C03F890803190800A50A0319A60A1D
:1004A800A30A0319A40A442A2000ED01EE01B1228F
:1004B80080318C221D162100911622000E16F43070
:1004C8002000AD000130AE0097318927803121002E
:1004D8000130CE01BF22803191221114200018145E
:1004E8006E1597314A2724082200A300200023080C
:1004F8002200A200200022082200A10020002108DA
:100508002200A00064302000AD00AE019731892F91
:1005180023009D171D169E1608000030200018188D
:100528000130A10000302100111801302000A20084
:100538001810FB1121005D08E4002000111097013C
:100548009601210C031C181003181814220C210002
:10055800031C111003181114080020009C30ED1220
:100568006D13ED132100D9002130DA005230FD005F
:100578000230DB0008002000A10018181810210024
:10058800DE00B73E840098300318013E850000085D
:10059800DD000800A601A701A10A0319A20AAA0101
:1005A800AA0A2308FD3EA400FF3003180030A50066
:1005B800803A803C031DE22A24082A020318EF2A05
:1005C800200021088600220887000108A606A10A43
:1005D8000319A20AD42A2000AA01A10A0319A20A0F
:1005E8002108860022088700473001022A08031CD8
:1005F800072B283E860087012108840022088500F1
:100608000008DF390F2B283E860087012108840067
:10061800220885000008D03E81002A08283E86006E
:100628000A3087010102031C232B2A08283E860072
:100638002A08283E840085010008F93E810002301E
:10064800AA0A2A02031CF12A280EF0392904A70055
:100658002606031901340034AC01AB01AC012708AC
:10066800A2002608A1002C08A800A930A901A835D5
:10067800A90D280784009830293D8500003FA30074
:10068800013FA4005A23803121082204031D522B64
:10069800AB01AB0A2C082200BC00572B0530AC0A72
:1006A8002C02031C332B20002B080800682B210880
:1006B80086002208870001080319762BA10A03196E
:1006C800A20AA30A0319A40A21088600220887009F
:1006D800230884002408850000080102A5002508D5
:1006E80003195B2B2508A100A201A11BA203080086
:1006F8002000B700942B8C311A2C9C31462C010019
:100708000800EE11EE106E1008007B1408000310AC
:10071800FB1F0314031C922BFB170800FB13080094
:100728003708840009300402031808009A31043598
:10073800773E820008002000EE186E1C0800EE10BC
:100748006E1021000A30CE0A4E02031C0800CE03A8
:100758002000EE1ABC2BD830A1009930A2009531A8
:100768000D258031EE155B248031D2232000EE1652
:1007780021003D082000A40021003C082000A3001F
:1007880021003B082000A20021003A082000A10017
:100798009B314323803106308F31552F2000BE0115
:1007A800BF01C001C101220023082702031DE62B57
:1007B80022082602031DE62B21082502031DE62B2D
:1007C8002008240203180C2C80302000BA00513075
:1007D800BB000130BC000430BD01203E8600013062
:1007E8008700403FBA07413FBB3D423FBC3D433FC6
:1007F800BD3D3D082200A70020003C082200A600BD
:1008080020003B082200A50020003A082200A4008E
:10081800200824022000BA0022002108253B2000DD
:10082800BB0022003D35283E8600013087002000AD
:100838003A08C03F3B08C13F22003D35283E8600AC
:10084800403FB600413FB7002000C2014235283E74
:10085800860001308700403FBA00413FBB003A089C
:10086800BE073B08BF3D0030C03DC13D0630C20A4F
:100878004202031C2A2C0630AD00AE01AF01B001C4
:100888004108B4004008B3003F08B2003E08B10078
:100898009131AC212E082200B50020002D0822003D
:1008A800B4000630BD0A3D020318BD0108009731A7
:1008B8004A2724082200A700200023082200A600B7
:1008C800200022082200A500200021082200A40000
:1008D8000800962D23008C0109308D008F252100FA
:1008E8008C0109308D0082308E0024008D01083083
:1008F80090000800171000308831952084310430AA
:10090800F02484312100171495248431033A031DFF
:10091800902C05309331102B0730933110238431FC
:100928008F2D43080800C801C901FB18A12C953177
:10093800FC2584319531DA258431A9241F30200023
:10094800A1009A30A20095310D2DFA01EA248431D4
:10095800C92484317B127B13C1248431B0013F2523
:1009680084310B118B120B178B1720009310210069
:100978009314280017150230F02C2100B601B70196
:10098800B801B9010A30E00008002000EE11220089
:10099800BD01A001A101A201A301A401A501A60115
:1009A800A7012000A1012135283E860001308700DB
:1009B8001E30C03F0030C13F0630A10A2102031C8F
:1009C800D72C1E302200B400B501080002302100E7
:1009D800C500C601C70108002000D2008A31D7220D
:1009E8008431D30002308F31182784312000D6009B
:1009F8008F31212784312308D5002208D400043000
:100A08005206031D102D73305302031C560B0800A9
:100A18000230A1018F31342F79305302031C0800B2
:100A28005608031D08000230A101A10A8F3134279E
:100A380084312F3020005502863003195402031CDC
:100A48002F2D0130A1018F3134278431200000304F
:100A5800A1018F31342FD40A0319D50A5508D600BD
:100A6800A10001308F31342720005408D600A1009E
:100A780000308F31342F20000230EF10EF127A1639
:100A88002100D700D8013F08C0003C30DC00080036
:100A980018302000A1009A30A20095310D2584312C
:100AA800FB1C572D882696310E2684310B138B1389
:100AB80093102800171120001C1128001E11200077
:100AC80018108F25843196258431003A031D742D22
:100AD80021001708C1391438970017146300672DCF
:100AE80088258431FB187E2D9531FC25843195317C
:100AF800DA25843102309331102334302000A100EC
:100B08009A30A20095310D2D21001708C1391C38E3
:100B180097001710080022008C0140308D00043027
:100B28008E000800BE258431BB00BC013B08031DB4
:100B3800AC2DBC01BC0A210045080319BB2D0B30A4
:100B4800C60AC7014602031CBB2D0330C501B92DD7
:100B5800210045030319BB2D1F30C70AC6014702F0
:100B6800031CBB2D0830C501C50A93311023200092
:100B78003C08080028001D082000B901BA0122001D
:100B88000E1520001C11FB18DB2D0430B8003C307A
:100B9800B700B70BCD2DB80BCD2D0000FC302000D1
:100BA8009C051C08873908389C00FA30E82D053068
:100BB800AD00AE019731892784311C08FC39023811
:100BC8009C0078309C047D309B009A019110203065
:100BD8002100E5001C30E6000230392684318F30D0
:100BE8002100E5000230E601392684312100510850
:100BF800D200333051060319032EFA16042EFA12C6
:100C0800A7302100E500E601911420001C15152EDF
:100C18000230392684312100511D152E2000BA01D9
:100C2800BA0A20003A08031D1B2E1C190C2E1C1191
:100C380021009110AD30E5000230392684312100C1
:100C48005108031D2A2E02303926843122000E1144
:100C58008E110E108030210051020318362E20000C
:100C6800B901B90A2000390808002000A800E530B9
:100C7800A900D030AA0022008E150E112000AB0169
:100C88002B08A500A601A51BA6032608803AA700E5
:100C980080302702031D522E280825020318632ED0
:100CA80020002A0886008701290884008501000899
:100CB800662684318100AA0AA90AAB0A442E2200BA
:100CC8000E150800A1008030A201A300A40121088C
:100CD80023050319722E22000E14742E22000E1002
:100CE8008E110000000022008E1500000000200078
:100CF80023088E18A204A336A40A2408803A783E52
:100D0800031C6B2E22080800FB1C952E03302000C4
:100D1800A1009A30A20095310D2584319D26843199
:100D2800982E9531FC2584319531DA252800171540
:100D38000800FC30210099051908873938389900CE
:100D480099131A1DA52EFB1008007B1FDA2E0130FF
:100D5800A8020030A93B75302000A1009A30A200FB
:100D680095310D2586312100E30BD12E8D302000E1
:100D7800A1009930A20095310D2586310A30210055
:100D8800E30028082000C700210029082000C80027
:100D9800C901CA0195319E258631210028082904F8
:100DA800031DDA2E7B139231232286317A1FDE2E21
:100DB800E12686317B1D08000C2F2100B40BEC2E98
:100DC8007A1322000D128D1204302100B50008009C
:100DD80002303506031DFC2E031022000D1E0314DD
:100DE800031CF92E22000D16080022000D1208001F
:100DF80003303506031D0800031022008D1E03145E
:100E0800031C092F22008D16080022008D120800ED
:100E18007A1E162F2100E20B132F0A30E200DC0B9A
:100E2800162F7A122100C00B372F2000EF1E282F13
:100E380021003F08C0002000EF12EF1C372F8B1253
:100E480022008E128D17372F21003E08C000200087
:100E5800EF16FA1D342F22008D1349278631FA1117
:100E68002000EF188B1601302100D7020030D83B44
:100E780057085804031D08007A1E442F0230452FD6
:100E88003C30D700D801FA15080020000030CE0108
:100E98008B1A0130CC008B1222008E12FB18562FB1
:100EA8000430572F20302000AD00AE01973189273C
:100EB800863182278631CD004C0C031C8B12031817
:100EC8008B1646304D0203186B2F01306C2F003003
:100ED800CE006F0C01394E06031908000310EF1CF1
:100EE8000314031C7A2F2000EF147C2F2000EF102E
:100EF800EF1808008B1222008E1208000930B90082
:100F080000308B312C2321001C082000CB00080066
:100F18002408031D982F2308031D982FE830210269
:100F28000330223B031CB82F0B30A6006230A5000B
:100F3800A50B9C2FA60B9C2F0000E8302000A102D7
:100F48000330A23B0030A33BA43B8C2FC730A50045
:100F58000000A50BAC2F0032000064302000A10275
:100F68000030A23BA33BA43B2408031DAA2F23085F
:100F7800031DAA2F2208031DAA2F64302102031C77
:100F8800D22FAA2F1A30A500A50BC82F00000A30AF
:100F98002000A1020030A23BA33BA43B2408031D70
:100FA800C62F2308031DC62F2208031DC62F0A308B
:100FB8002102031CEB2FC62F003200320032003210
:100FC80001302000A1020030A23BA33BA43B24082F
:100FD80023042204210403190800E02FFE00120054
:100FE8001E000130FE020030FF3B7F087E0403191B
:060FF8000034F32F080095
:101002000230552F0B30552F0830552F0830552FF1
:101012000A30552F0030552F0930552F0C305527E7
:1010220085318F2D00309531B025883100309520E3
:101032006400E8302000AD000330AE00973189270C
:10104200883104308431F024883103309531B02561
:101052008831003095206400E8302000AD00033074
:10106200AE0097318927883102308431F0248831EB
:10107200210013280030AC01AC0A842188317A2186
:10108200883127302000A4009930A5000530A60041
:10109200A1218831003A031D50282000AC017A2199
:1010A200883131302000A4009930A5000430A60018
:1010B200A1218831003A031D60282000AC017A2169
:1010C20088312000AD012D08842188317A218831B0
:1010D20020002D355D3E860001308700403FA40090
:1010E200413FA5000630A600A1218831003A031D28
:1010F2007C282000AC0120002D08F52188315830D1
:10110200A4000130A5000530A600A1218831003AD3
:10111200031D8D282000AC0120000230AD0A2D02F3
:10112200031C64282C080800EC2388312000D90015
:101132000030DD012100111801302000DA00210009
:10114200111000308B1A01302000DB008B12FA13D1
:10115200B522883114228831053020005D0203183F
:10116200C428132188313B208831013A031DBC2851
:101172000530DD00AD2822008D142000DD0AFA17AB
:1011820022008D10AD28EE2322000D150A3020001A
:10119200AD00AE0197318927883122000C128C16DE
:1011A2002000DC0159085C020318E028B030AD00D1
:1011B2000430AE00973189278831DC0AD3282B22EC
:1011C200883122008C160921F3302000A1009930C9
:1011D200A20095310D2588319C30A1002130A2005A
:1011E20095310D2588318D30A1009930A2009531BD
:1011F2000D25883105245A0C2100031C11100318F7
:10120200111420005B0C031C8B1203188B160800B0
:101212000C100D118D100C138C130C118C118C12DF
:101222000C1208000030842188317A21883127305D
:101232002000A4009930A5000530A6005221883173
:1012420031302000A4009930A5000430A6005221BC
:1012520088312000AB012B08842188317A21883122
:1012620020002B355D3E860001308700403FA40000
:10127200413FA5000630A6005221883120002B08EC
:10128200F52188315830A4000130A5000530A600B0
:101292005221883120000230AB0A2B0203180800C9
:1012A2002C2922000C132000AA012A08A700A80159
:1012B200A71BA8032808803AA90080302902031D31
:1012C2006429260827020318772920002A08A70084
:1012D200A801A71BA8032408270784002508283D86
:1012E20085000008D7218831AA0A562922000C1746
:1012F2007A2920001C1522008C1520001C197E2939
:1013020022008C1108002000A20022360139A1001F
:10131200A10E22000C0820002106EF39210622002E
:101322008C00200022080139A100A10EA10D22008B
:101332000C0820002106DF39210622008C0008005B
:10134200240884002508850000088038AA00A90125
:10135200A90A22000C1320002A08D7218831210073
:101362008C172000AB01AB0A26082B020318D029E8
:10137200D4238831AA002508A8002408A7002B0836
:101382002707840028080318280A850000082A066F
:101392000319B42922000C1721008C1300342200F7
:1013A2000C1721008C13200029080800A1008030AE
:1013B200A200A30122000C1120002108220503191A
:1013C200E52922008C17E72922008C130000000077
:1013D20022000C150000000020000830A236A30AEB
:1013E200230203180800DB29A200B33E84009830D0
:1013F2000318013E85000008A3000B302200D8002C
:101402002000A4012408593E8600013087002308E9
:10141200240718278831810020000430A40A2402FE
:1014220003180800032A20001C1187309C05FC3099
:101432009C05A0309B009A0191102100911422007A
:101442000C146E302000AD00AE01973189272200C6
:101452008D1008009E228831AB00EE3086002130CC
:1014620087002B0881006530A5000130A6000430FA
:10147200A7004F2288319C30A5002130A600EE3013
:101482008600213087000108A7004F2288316A3088
:10149200A5000130A6000330A7004F2AAA01AA0125
:1014A20027082A02031808002A08A800A90125070C
:1014B20086002908263D87000108003E84009830F6
:1014C2000318013E8500000869228831AA0A512AC0
:1014D200A1008030A2002108A300FF30A306FB1A5E
:1014E2007A2A1C08FC3902389C001C0887393038DB
:1014F200812A1C08873968389C001C08FC3902388C
:101502009C00EE309B009A01911021009114200062
:10151200A401230822050319912A22008C16932A7A
:1015220022008C122000A2361C151C19962A0830A3
:10153200A40A2402031808008A2A9C30A301A100ED
:101542002130A200AC2A523023020318B32AA30A84
:10155200A10A0319A20A21088600220887000108AD
:10156200031DA42A23080800D72288312100B300D2
:1015720020006F1FC52A210032083302031CC52A2E
:1015820020006F13EF13CF2A20006F1BCF2A2100F8
:1015920033083102031CCF2A20006F17513021007B
:1015A2003302031808002000EF17080082302200DF
:1015B2009700171FDA2A1F302000B90001302C23B0
:1015C20088313A08D1003908D000220097130C3034
:1015D2002000B90001302C2388313A08CF003908A5
:1015E200CE00500851040319182B5008AD005108C1
:1015F200AE00AF01B0014E08A1004F08A20020309A
:10160200A301A401A801A701A6000C30A5006A2627
:101612002408B4002308B3002208B2002108B10054
:101622009131AC2188312E08CC002D08CB004F0817
:101632002100AB0020004E082100AA0064302000E7
:10164200B200B3014C08B5004B08B4009531B52582
:101652003208CD000800BD00FF30C801C80AC10130
:10166200C201C301C401C500C6006030C701210028
:101672009E0020003D0C2100031C9E1303189E17A0
:1016820020003908BB00BB0DBB0D21001D08200046
:101692003B0683393B0621009D001D144230200089
:1016A200BB00BB0B522B00000C3020003906031983
:1016B2005E2B1F303906031D682B4230BB00BB0B6B
:1016C200602B000012302000C800C701C70AC00109
:1016D200480840020318A22B1A30BB00BB0B6F2B29
:1016E200000021009D14000021009D18752B1C088C
:1016F2002000CA00C90121001B082000C9070318E5
:10170200CA0A470B9C2B4A084402031D8A2B49082C
:1017120043020318902B4A08C4004908C300460834
:101722004A02031D962B4508490203189C2B4A08BE
:10173200C6004908C5004908C1074A08C23DC00A97
:10174200692B21001D102000470BC22B43084507BF
:10175200BB004408463DBC00BB09BC09BB0A0319D7
:10176200BC0A3B08B4003C08B5004108B407420873
:10177200B53D4808B200FE30B301B207FF30B33DB9
:10178200C92B4808B200B3014208B5004108B400B1
:101792009531B5253308BF003208BE003F08BA00B4
:1017A2003E08B90008008030A101A200A301220076
:1017B2000C110000000022000C15000000002000A7
:1017C20022088C1BA1040830A236A30A2302031CA0
:1017D200D82B210808002F08080005248831210091
:1017E2004C08003A0319FF2B013A0319002C033A63
:1017F2000319002C013A0319022C042CC32F963131
:10180200132E9E31872E0800A1012108803A313E15
:101812000318142C21089C3E860021308701873D45
:101822008101A10A062CEE30860021308700810159
:1018320008009C30A1002130A2002C30A300172602
:1018420088312208B6002108B500B50A0319B60A84
:101852006E102200C201C80120003608A50035081A
:10186200A4000230A600F52588312200BE00200027
:101872003508023EA4000030363DA5000230A60025
:10188200F52588312200BF0020003508043EA4005F
:101892000030363DA5000230A600F5258831220031
:1018A200C00020003608A2003508A1002C30A30099
:1018B200172688312208B6002108B500B50A031997
:1018C200B60A350886003608870056300106031D21
:1018D2006E2C2200C101C10A7A2C35088600360816
:1018E200870041300106031D7A2C2200C10120002D
:1018F2006E1420003608A2003508A1002C30A30087
:10190200172688312208B6002108B500B50A031946
:10191200B60A35088600360887002C3001060319FE
:10192200D42C2200C201C20A20003608A5003508C4
:10193200A4000230A600F52588312200C300200051
:101942003508023EA4000030363DA5000230A60054
:10195200F52588312200C40020003508073EA40086
:101962000030363DA5000230A600F5258831B300CF
:101972000230B401A6003508053EA4000030363D11
:10198200A500F525AC006430AD01AE00AF01933186
:101992006F23883133082C072200C5002000340849
:1019A2002D3D2200C60020003608A2003508A10005
:1019B2002C30A300172688312208B6002108B50072
:1019C200B50A0319B60A2200420BFE2C2000350884
:1019D2008600360887004E300106031DF32C2200D4
:1019E200C701FE2C350886003608870053300106F1
:1019F200031DFE2C2200C701C70A20003608A200E0
:101A02003508A1002C30A300172688312208B60021
:101A12002108B500B50A0319B60A3508860036084A
:101A220087002C3001060319582D2200C801C80A6C
:101A320020003608A5003508A4000330A600F525CD
:101A420088312200C90020003508033EA40000307E
:101A5200363DA5000230A600F52588312200CA00D5
:101A620020003508083EA4000030363DA5000230B3
:101A7200A600F5258831B3000230B401A60035086E
:101A8200063EA4000030363DA500F525AC006430CA
:101A9200AD01AE00AF0193316F23883133082C07BB
:101AA2002200CB00200034082D3D2200CC00200073
:101AB2003608A2003508A1002C30A3001726883171
:101AC2002208B6002108B500B50A0319B60A220099
:101AD200480B822D200035088600360887005730D3
:101AE2000106031D782D2200CD01CD0A822D350875
:101AF20086003608870045300106031D822D22002C
:101B0200CD0120003608A2003508A1002C30A30028
:101B1200172688312208B6002108B500B50A031934
:101B2200B60A3608A2003508A1002C30A3001726F9
:101B320088312208B6002108B500B50A0319B60A91
:101B42003608A2003508A1002C30A30017268831E0
:101B52002208B6002108B500B50A0319B60A3608EC
:101B6200A5003508A4000230A600F5258831220020
:101B7200D40020003508023EA4000030363DA50006
:101B82000230A600F52588312200D5002000350854
:101B9200043EA4000030363DA5000230A600F52523
:101BA20088312200D60020006E1CD92D2D268831C6
:101BB20021000A30E10A6102031C08008D30E101B4
:101BC2002000A1009930A20095310D2588319C306A
:101BD200A1002130A20095310D2588318D30A10060
:101BE2009930A20095310D2DA901AA01AB01112E48
:101BF20026082A020318152E2A08A700A80124077E
:101C020086002808253D87000108D03EAB000A3037
:101C1200A10029089131EB2188312B07A900AA0ADA
:101C22000A302B02031CF92D29080800210886001E
:101C320022088700010803192A2E2108860022089B
:101C420087000108230603190800A10A0319A20A42
:101C5200172EA101A201080022003E082000A100C7
:101C62000E30A201A301A401A801A701A600103011
:101C7200A5006A2624082100BD00200023082100B7
:101C8200BC00200022082100BB0020002108210006
:101C9200BA0022003F082000AC003C30AD01AE008B
:101CA200AF0193316F232C082100BA0720002D08C1
:101CB2002100BB3D0030BC3DBD3D2200400821005B
:101CC200BA0701300318BB070318BC070318BD0786
:101CD2000800A901AA01AB01AC01211C782E25083C
:101CE200A9072608AA3D2708AB3D2808AC3DA53523
:101CF200A60DA70DA80DA436A30CA20CA10C2408B6
:101D0200230422042104031D6E2E2C08A4002B0898
:101D1200A3002A08A2002908A10008002000C3018C
:101D2200EF01C40144083E3E18270F392000C100CC
:101D32000A30A10043089131EB2188314107C300E9
:101D42000330C40A4402031C932E43082100AC0052
:101D52004230182788312100AE00433018278831DD
:101D62002100AF00473018272100AD002E082000C7
:101D7200AC00AD0121002D082000AE00AF0193316F
:101D82006F2388312D082100A50020002C08210096
:101D9200A4004830182788312000C100C201C13593
:101DA200C20DC135C20D4108B9004208BA007927F7
:101DB20088312100B100053EB20044301827883135
:101DC2002100C1004530182788312000C5002100BC
:101DD200BF000F30BF052000450E0F392100BE00A5
:101DE2000F30BE053F08C00046301827883120005A
:101DF200C500451C6F15C5186F16451AFB16C51E82
:101E02007B156F1E072F0130552788312127883116
:101E12002F302302873003192202031C08000130ED
:101E2200A1013427883120000030A101342F200085
:101E3200A1002300910092019513151413080800C4
:101E42000130182788312000A600A5000030A40127
:101E520018272000A600A4070318A50A2508A30036
:101E62002408A2000800A200230091009201200091
:101E72002108230093009513151500308B1B0130A8
:101E82002000A3008B13553023009600AA30960041
:101E920095142000230C031C8B1303188B172300AB
:101EA2009518502F151108002000A50000308B1B3B
:101EB2000130A6008B132508A1008930A201A135AB
:101EC200A20D210784009830223D8500003FA30027
:101ED200013FA40023082100C80420002408210097
:101EE200C9042000261C772F8B1708008B130800CB
:101EF2000930BB01BC01BD01BE01B200B3013A0809
:101F0200AD003908AC000530AE00AF0193316F234C
:101F120088312D08B5002C08B4009531B5258831DB
:101F22003308C0003208BF000230BF070318C00ADE
:101F32003030B200B3013A08AD003908AC001130BC
:101F4200AE00AF0193316F2388312C08313EB400CB
:101F520000302D3DB5009531B52588313308BC00E0
:101F62003208BB000730B200B3013B083F07B400A0
:101F72003C08403DB5009531B5253308BE00320816
:101F8200BD0008009E31EB268831B330A10021301C
:101F9200A200C830A3009830A400823140228831C8
:101FA2009E22D3009C30A1002130A2005308A10739
:101FB2000318A20ABA30A3009830A400823140224A
:101FC20088319F31B12788319E22D3009C3ED100B7
:101FD2002130D201D23D51088600520887002030BC
:101FE2008100D30A53089C3ED1002130D201D23D58
:0E1FF200510886005208870020308100080048
:102004003F302000A1009A30A2000D2590317420A9
:1020140090312100B0016E279031053A031D08006C
:10202400003042209031003021002702063003198D
:102034002602031C292827082000D800210026088E
:102044002000D700FD30D707FF30D83D892D0E265C
:10205400903111302000A1009A30A2000D2590315A
:10206400210027082000D800210026082000D700DE
:102074008925903101307B17B02590310630102B23
:102084002000A6002608031D53282030A10002309A
:10209400A2003E30A3000130A4005C202000EF1514
:1020A40008003E30A1000130A2002030A30002301D
:1020B400A4005C282108220403190800230824042E
:1020C400031908002108860022088700200023083D
:1020D4008400240885001A30A50012001E00A50BF8
:1020E4006F2808002000E101E201E301E4014A272E
:1020F40090312408E4002308E3002208E2002108C8
:10210400E1000F30CE0021002E0820004E02D8003E
:10211400D901031CD903DA01DB016108D80762087D
:10212400D93D6308DA3D6408DB3DBD006308BC00AB
:102134006208BB006108BA0051219031F8212100E6
:1021440024082000A100210025082000A200A301EA
:10215400A4015B08A8005A08A7005908A60058085B
:10216400A5009B31C52390312208DF002108DE0041
:1021740021002E082000B200B3015F08B5005E08FC
:10218400B400B52590313208013ED60021002C025E
:10219400FF3E2000E00021002E082000A100A20143
:1021A4005F08A4005E08A300C8279031210821001D
:1021B4002E022000D7006008AC00AD01AC1BAD03BB
:1021C40021002E082000AE00AF016F2390312D08AE
:1021D400DD002C08DC005708DC070318DD0AE01FCB
:1021E400FB28210024082000DC072100250820000A
:1021F400DD3D5D082100A70020005C082100A60049
:1022040020006108CE006208CF006308D000640893
:10221400D100210026082000D20021002708200038
:10222400D300D401D5015208CE075308CF3D54083A
:10223400D03D5508D13D51082100A300200050088D
:102244002100A20020004F082100A10020004E0818
:102254002100A00023088030031D382920025130BA
:10226400213B0130223B031C3F298030A007AE30C4
:10227400A13DFE30A23DFF30A33D23082000BD0058
:10228400210022082000BC00210021082000BB00FE
:10229400210020082000BA0051219031F8293D087E
:1022A400C5003C08C4003B08C3003A08C2000E3015
:1022B400B001AF01AE001030AD004508B4004408D1
:1022C400B3004308B2004208B100AC212D0821003C
:1022D400D4003C302000AD00AE01AF01B0012100BC
:1022E40054082000A100FF30A201A301A401A8000A
:1022F400A700F130A600F030A5008E316A26903197
:1023040021084207BE002208433DBF002308443D84
:10231400C0002408453DC100B4004008B3003F0894
:10232400B2003E08B100AC2190312D082100D50047
:10233400C4302000A10021005508EB219031BE00DB
:10234400F030A10021005408EB213E074207210090
:10235400D6000800B501B601B701B80130082F0452
:102364002E042D040319E229B901B90AB01BBF29AF
:10237400AD35AE0DAF0DB00DB729B535B60DB70DF2
:10238400B80D30083402031DD1292F083302031D70
:10239400D1292E083202031DD1292D083102031C34
:1023A400DC292D08B1022E08B23B2F08B33B3008BC
:1023B400B43B3514B036AF0CAE0CAD0CB90BBF2921
:1023C4003808B0003708AF003608AE003508AD0055
:1023D40008002000A300A20121082318A207A135A8
:1023E400A3362308031DEE292208080043302000E9
:1023F400B9000030BA00210054082000BB000230AC
:10240400BC00BD01F52690313A30C500C800463005
:10241400B9000030BA00210055082000BB0002308A
:10242400BC00BD01F52690314930B9000030BA0036
:10243400210056082000BB000230BC00BD01BD0ACB
:10244400F52E8D302000A1009930A2000D25903189
:102454007A2A69302000A1009A30A2000D2590311B
:1024640005307B1410239031862A0E269B3160237D
:1024740090318331D223903121003008031D4C2A3E
:102484002000EF1D4C2A0130422090310230B0254B
:102494009031512A0330B02590312000EF112100F2
:1024A4000330B00A2000D700D801892590310630C6
:1024B400102390316F307B172000A1009A30A200C6
:1024C4000D259031862AFB1C6B2A04301023903191
:1024D400862A6C302000A1009A30A2000D2590318C
:1024E40003307B14D700D801892590317B17862AC5
:1024F4006E279031053A0319372A033A0319652ADE
:10250400013A03192B2A862A8D302000A100993024
:10251400A2000D2D5230FD00033084009B30850055
:10252400D7308600003087000030FF00123087313A
:10253400F2279031E03084009A3085005D308600C7
:10254400013087000030FF0011308731F2279031CD
:10255400D03084009A308500D03086000130870066
:102564000030FF0010308731F2279031F1308400C1
:102574009A3085003A308600023087000030FF0030
:1025840012308731F22790319C308400213085004D
:102594005430FE000030FF009A31C4229031F8011B
:1025A400F901FA01FB01FC01ED01EE01EF01A0309C
:1025B4008400003085003730FE000030FF009A317F
:1025C400C422903120308400013085003D30FE006B
:1025D4000030FF009A31C4229031A03084000130D1
:1025E40085003030FE000030FF009A31C422903163
:1025F40020308400023085001A30FE000030FF00D5
:102604009A31C42290317E102000082BAA239031E5
:10261400013010239031252380316B282000A7003E
:1026240021004208C300200027353A3E86000230CC
:102634008700413F8A00403F0A0093312000270869
:102644002100C20008001F30EB01EC013F00ED0047
:102654002100ED01ED0AEE01EF01640021004808BC
:102664004904031D372B6400302B4908EC0048084B
:10267400EB006D086B052000EB0021006E086C0573
:102684002000EC006B04031D4C2B2100ED35EE0DF6
:10269400EF0A3B2B21006F082000AC000330AD0192
:1026A400AE00AF016F232D0885002C0884005D3037
:1026B40084079830853D003F2100E900013FEA008E
:1026C4008A0069080A000730933121006F06031954
:1026D4002A2B6F08842390312A2BB001B1012C1CC2
:1026E400772B2E08B0072F08B13DAE35AF0DAD36B0
:1026F400AC0C2C082D04031D712B3108AD003008DF
:10270400AC0008002000A50000308B1B0130A6009F
:102714008B132508A1008930A201A135A20D210740
:1027240084009830223D8500003FA300013FA400AF
:10273400A309A40923082100C805200024082100B6
:10274400C9052000261CA82B8B1708008B13080032
:102754006400FC2501309B312B2390319A31B9223E
:1027640090316B30A1009930A2000D259031C23018
:10277400A1009930A2000D2590317230A1009A3049
:10278400A2000D259031EA30A1009930A2000D2558
:1027940090318D30A1009930A2000D259A319E22EE
:1027A40090319A31A12290318E318F26903184312B
:1027B4006E249031DA258431EA24903185318825DC
:1027C40090319B31152390318431A92C2000B9001C
:1027D40023001E129F151E15AA302000A100993057
:1027E400A2000D2590312B2C4330A1009A30A20079
:1027F4000D259031033023009C004030182C4730C5
:10280400A1009A30A2000D25903123009C018A304A
:10281400182C3A30A1009A30A2000D2590312300E3
:102824009C014430182C23009C010C309B00392C53
:10283400CE30A1009930A2000D259031B80139089D
:10284400303EB7003730A1000030A2000D25903192
:10285400392C3908003A0319F62B013A0319012CD3
:10286400033A03190B2C013A0319152C1A2C8D3039
:102874002000A1009930A2000D2590316430AD00F4
:10288400AE01892F9A31B02290312208EA00210842
:10289400E9000A30B200B3016A08AD006908AC006F
:1028A4000F30AE00AF016F2390312D08B5002C0816
:1028B400B400B52590313308EA003208E90000304D
:1028C4006A021E300319690203186B2C1E30E900DA
:1028D400EA01742090316F1B6F1D7F2CA430860099
:1028E40006308701A03E84008501403F0007210097
:1028F400A6000131413F003DA7002000EF1F952CA9
:102904006A08E6006908E5001030E535E60DE700E1
:102914000E30E800650867022100A6002000660862
:10292400683B2100A7002100270820006A02031D3C
:102934009F2C21002608200069020318BA2C2100CC
:1029440027082000D800210026082000D7006908A5
:10295400D7026A08D83B892590310A30A1009A3001
:10296400A2000D2505307B149A31A8229031C72C82
:10297400210027082000D800210026082000D700C5
:10298400892590310530102390312D302000A1008D
:102994009A30A2000D259031210026082000C7009E
:1029A400210027082000C800C901CA019E259031D2
:1029B4008D30A1009930A2000D259031E130A100A5
:1029C4009930A2000D2590316908C7006A08C80033
:1029D400C901CA019E2590318D30A1009930A20011
:1029E4000D2590319E30A1009930A2000D25903123
:1029F400210028082000C700210029082000C80061
:102A0400C901CA019E2590318D30A1009930A200E0
:102A14000D257B1708002030A601B20128009D0077
:102A24002000A8010130B10021088400220885009B
:102A34001200031908006030260203180800210858
:102A44008400220885000008A400A701A70AB20197
:102A5400B20A240827050319362D3208283E8600B9
:102A64000130870181003B2D3208283E8600870112
:102A740081010930A735B20A3202031C2B2D28002C
:102A84001E119C0100308B1B01302000A5008B130C
:102A94009311F900080E2300CC00030ECB000408A8
:102AA400CD000508CE000A08CF002830840000308D
:102AB40085000A30F800953128001E151200090C13
:102AC4002200031C0D1303180D1720009311931DEE
:102AD400692DF80B602D23004D0884004E088500F5
:102AE4004F088A004B0E83004C0E8800F90E790EB5
:102AF40028001E1120009311251C822D8B17832D75
:102B04008B132000A10A0319A20AA60A162D58083D
:102B14002100A900200057082100A8002630200029
:102B2400A1009A30A2000D2590315708C70058081B
:102B3400C800C901CA019E2D4A08B2004908B10063
:102B44004808B0004708AF004B30B3009D3116254C
:102B540090314B30A1000030A2000D2D2000A100C7
:102B64002100CC000800B601B70132083304031970
:102B7400D52DB801B80AB31BC22DB235B30DBC2D87
:102B8400B635B70D33083502031DCA2D3208340299
:102B9400031CD12D3208B4023308B53B3614B336C6
:102BA400B20CB80BC22D3708B3003608B2000800C7
:102BB40028001711FB1CEC2D0330970417088739E4
:102BC40048389700FA3096000A302100DF0085303B
:102BD400950008001708FC39023897001708873950
:102BE400503897008E30960001302100DF00883085
:102BF40095000800FC3021009905190887397038C0
:102C0400990099171A1E042E9A1D062E0530FB14DE
:102C14002000AD00AE01892F22000E122100911276
:102C240008009E31EB269031BE30860021308700AB
:102C34003E308100CE3086003E308100D8308600A0
:102C44003E308100B23086002C308100BD308600D9
:102C54002C308100C13086002C308100CD308600BC
:102C64002C308100D13086002C308100C0308600A9
:102C74003C308100D03086003C308100B830860082
:102C84002E308100C83086002E308100B530860099
:102C94003A308100C53086003A308100D930860050
:102CA40048308100BF3086004E3081002200470B3F
:102CB4005F2EBF30860053308100CF308600213034
:102CC4008700453081004D0B6B2ECF308600573086
:102CD4008100B3302000B9002130BA00220043083B
:102CE4002000BB000230BC00BD01F5269031B63097
:102CF400B9002130BA00220044082000BB00023091
:102D0400BC00BD01F5269031C230B9002130BA00B3
:102D1400220049082000BB000330BC00BD01F52699
:102D24009031C630B9002130BA0022004A08200090
:102D3400BB000230BC00BD01F52690314A2790311A
:102D44002408BD002308BC002208BB002108BA00E7
:102D540051219031D2302000B9002130BA00210035
:102D640054082000BB000230BC00BD01F5269031A0
:102D7400D430B9002130BA00210055082000BB002E
:102D84000230BC00BD01F5269031D630B9002130A7
:102D9400BA00210056082000BB000230BC00BD016F
:102DA400F526B930C3002130C400220046082000B3
:102DB400C600220045082000C5000430C700C80131
:102DC4009B31FB23C930C3002130C40022004C08CE
:102DD4002000C60022004B082000C5000430C700B4
:102DE400C8019B31FB2B64303B02031CFD2E0330D6
:102DF4003C020318102F64303B020A3003180A2FD8
:102E04003B02031C092F02303C020318102F0A3026
:102E14003B02031808003C08031908003D0B1B2F54
:102E24003C08BE00BF01390786003F083A3D8700D1
:102E3400810102303C020A30031C3D2FBC03A10077
:102E44003B0871279031C2000A30A1003B08E827F3
:102E54009031BB003030C2073C08BE00BF013907C7
:102E6400C0003F083A3DC100400886004108870081
:102E7400420881001B2FA1003B087127C20030309B
:102E8400C207390886003A08870042088100080012
:102E940000308B1B0130A9008B132100390820005E
:102EA400A800210038082000A700210037082000CE
:102EB400A600210036082000A500291C632F8B17CB
:102EC400642F8B1320002808A4002708A3002608D9
:102ED400A2002508A1000800210042080800A30060
:102EE4000830A400A5012308A2000730A236890BEC
:102EF400782F25352204A500A33521082502031CBB
:102F0400852F2108A502A40B752F250808002D087C
:102F1400A1002E08A2000330A301A401A801A70167
:102F2400A600E830A5008E316A2690312408B60048
:102F34002308B5002208B4002108B300FB18BE2FF3
:102F44002030AF00B001B101B2013308AF0734083B
:102F5400B03D3508B13D3608B23D0630B236B10C4D
:102F6400B00CAF0C890BB02F3208B6003108B50095
:102F74003008B4002F08B3003608A4003508A300B5
:102F84003408A2003308A10087318C2F21082204C1
:102F94000319E32FA501A50AA21BD32FA135A20D66
:102FA400CD2F22082402031DD92F21082302031C3C
:102FB400DF2F2108A3022208A43BA236A10CA50BF3
:102FC400D32F2408A2002308A1000800A200A40112
:102FD40021080319FE2FA301A30AA11BF32FA13576
:102FE400EE2FA43521082202031CFB2F2108A20284
:102FF4002414A136A30BF32F24080800033400344F
:1030040000340034003400340034533400340034C9
:103014002334003400340B340034003400340034DE
:1030240000340034003400340034003400340034FC
:1030340000340034003400340034003413345B347E
:10304400473417344B3400342F346B347B342734F7
:10305400003400341B3463341F345F343734773422
:10306400673443342B3407345734733433340F34D4
:103074003B343F347F3400346F344F340034633492
:103084004F343B344B3443345B342F3417343334B0
:103094006B347B3427341F341B340F343734773488
:1030A4002B345334073473343F3467345F34573428
:1030B400473400340034AC341A3401341334083443
:1030C40002344C3405340334883406340434A934CB
:1030D400063405346D3404340634023410340734B1
:1030E40092341B340834E434003409347E34043418
:1030F4000A34973404340B34443414340C34FE341A
:1031040007340D34FE3407340E34233401340134CF
:1031140000340234003404340034083400341034ED
:10312400003420340034403400348034003400341B
:1031340001340034023400340434003408340034DC
:1031440010340034203400344034003480340834E3
:103154009934FA34983401349934F3349834EC348F
:103164009834223427342C3431341E343C3496348D
:1031740056343E34333431343C3454343E343634AF
:1031840039343C342034433420340034413443341F
:1031940054344934563441344E3444344F34533423
:1031A4004534203400344E344F3454344934433499
:1031B4004534203447345034533420343E340034BE
:1031C4002434503441344934523430343634323473
:1031D4002C34003424344534453453344C3466346C
:1031E4000034243447344E344734533441340034A7
:1031F400243447344E3452344D344334003424346C
:10320400473450344734533441340034243447343D
:10321400503452344D3443340034073400340034D1
:1032240000340034003408340034003401340434ED
:1032340000340934003400340234083400340A34CD
:103244000034003403340C3400340034803400344B
:10325400003440342C3430342A34333400340134D0
:103264001834083424340D340A34003424345034EB
:103274004134493452343034363436342C343134D5
:103284002C3430342C3431342C3431342C34313427
:103294002C3430342A34333441340D340A34003479
:1032A4002434503441344934523438343634343488
:1032B4002C3430342C3430342C34313431343534EF
:1032C4003234303430342A34313442340D340A3414
:1032D40000340D340A342D342D342D34203452343A
:1032E4004534533445345434203420344234553432
:1032F40049344C3444343A34203400340D340A34E0
:1033040020345534443420344534523452344F3408
:103314005234203421340D340A34003424345034EB
:103324004134493452343034363437342A34333423
:1033340042340D340A3400347234743463345F34E8
:1033440061346C34613472346D343A342034003472
:103354000D340A3455344134523454345F344334D4
:1033640046344734203400342D3432343134343448
:103374003734343438343334363434343834003431
:103384004F3463347434203430343234203432349F
:10339400303432343634003455346E346B346E3455
:1033A4006F3477346E343A34203400340D340A34B4
:1033B400533459344E3443340D340A3400345334C2
:1033C4005F346C346F3463346B343A3420340034F7
:1033D400313435343A34333435343A34333435349F
:1033E40000340D340A344D34533447343A342034E1
:1033F4000034203447343634303430340D340A3415
:1034040000340D340A34433433340D340A34003474
:103414000D340A34433434340D340A34003447341C
:103424004F34463446340D340A340034473444347B
:103434005F344F340D340A340034473444345F3439
:1034440073340D340A3400340D340A3441345334A3
:103454003A342034003453343234743478343A34C3
:10346400203400345334553450340D340A34003489
:103474005534313431343534003420344634203436
:103484000034553439343634003455343534373413
:103494000034453430340034453431340034453458
:1034A4003234003445343334003445343434003455
:1034B40045343534003445343634003445343734F7
:1034C400003445343834003445343934003443341A
:1034D400313400344334323400344E345034003404
:1034E4002034203400342E34003483317F2B833154
:1034F4007F2B8331812B8331812B8331832B833148
:10350400852B8331892B83319E2B83318B2B813106
:103514004B2981314E2981314B2981314E29813109
:0235240051292B
:1035360021004108080000309331102BC801C90151
:1035460008002100C301C2010800A1002100C40037
:103556000800171402309331102B22003508200082
:10356600A200220034082000A1000800303020000C
:1035760098041810210011102000111097019601CF
:1035860008006400013080010131FE020030FF3B7B
:103596007F087E0403190034C52A303431343334AD
:1035A6003534363437343834393445344634443493
:1035B600423438343934363437340F349934153488
:1035C60099341B349934213499343C343C340D34C9
:1035D6000A34003458340D340A340034A4341A340E
:1035E6000B34083409340834073408340D340834ED
:1035F600053408340F3408340334083401340834ED
:103606003C3400349C34213402343C341E340334BC
:103616000A340A340A340A340A341E34AD34003407
:103626000034003402309331E8239B3182318C22FE
:103636009B3122000E16F4302000AD000130AE00A2
:10364600973189279B318131792122000E1208009A
:10365600A10028001E1187309E05FC309E052030F3
:103666009D0020002108031D3B2B203028009D00D3
:103676002000931121000D138D1722000D1708004D
:1036860000308B1B0130A5008B1324082100B900E4
:10369600200023082100B800200022082100B700DE
:1036A600200021082100B6007B16CD012000251C34
:1036B6005E2B8B1708008B130800220020082000C1
:1036C600A100220021082000A200220022082000DA
:1036D600A300220023082000A400210024082000C3
:1036E600A500210025082000A600A701A80125089D
:1036F600A1072608A23D2708A33D2808A43D2408C3
:103706002200A700200023082200A600200022088D
:103716002200A500200021082200A4000800213074
:1037260097232108803170282000A8000030A901C5
:103736008B1B0130A7008B1323004A080319B62BF5
:103746004808A03E86000130870001082000A90035
:1037560023002830CA03C80A48060319C8014A08C4
:10376600031DB62BC2232000270C031C8B13031842
:103776008B17280886008701290881000800073072
:103786009331842B24082304220421040319F22BE9
:10379600A901A90AA41BD42BA135A20DA30DA40D22
:1037A600CC2B24082802031DE22B23082702031D25
:1037B600E22B22082602031DE22B21082502031C08
:1037C600EC2B2108A5022208A63B2308A73B2408C8
:1037D600A83BA436A30CA20CA10CA90BD42B280839
:1037E600A4002708A3002608A2002508A1000800B7
:1037F60027304602103003194502031C062C0530FB
:1038060047020318112C27304602103003194502CF
:103816000318080004304702031C08004408BA00D5
:103826004308B9006430B200B3014608B500450844
:10383600B4009531B5259B313208BB004708FE3EE2
:10384600BC004808BD009631F5269B314408BA00F5
:103856004308B9004708B9070318BA0AFE30B90782
:10386600031CBA036430A100A2014608A40045085F
:10387600A3009731C8272108BB000230BC004808C6
:10388600BD009631F52E21000A30CF0A4F02031CE7
:10389600632C8D30CF012000A1009930A200953114
:1038A6000D259C319C30A1002130A20095310D25BB
:1038B6009C318D30A1009930A20095310D259C31A7
:1038C60020009C30EE10A1002130A2002C30A30075
:1038D6008E3117269C312208B4002108B300B30AA2
:1038E6000319B40A33088600340887004D300106F0
:1038F600031D802C2100CA0108003408A2003308E9
:10390600A1002C30A3008E3117269C312208B4006A
:103916002108B300B30A0319B40A33088600340831
:10392600870033300106031D080003302100CB0059
:103936002000EE1408002100E4036408031D0800BB
:10394600B92CF60028304A060319B62C4908A03EC1
:10395600860001308700760881002830CA0AC90A25
:1039660049060319C9010730F6240800C42CFB15C3
:10397600CF2C0E30F6249C31CF2C22008D120D1246
:10398600CF2C5E08003A0319BA2C013A0319BC2C55
:10399600033A0319C02CCF2C200018100800CD0ABA
:1039A60005304D02031C0800CD010430F6249C317D
:1039B60001302100B6070030B73DB83DB93D3908A2
:1039C6008030031DEE2C36025130373B0130383B38
:1039D600031C08008030B607AE30B73DFE30B83D58
:1039E600FF30B93D0800F40000308B1B0130F500B4
:1039F6008B137408F0008930F101F035F10D700772
:103A060084009830713D8500003FF200013FF300CD
:103A160072082100C8047308C904751C142D8B177D
:103A260008008B130800C501C601C101C201B21FFF
:103A36003A2D8030C101C10AC20132062F0430047A
:103A46003104031D2F2D3308A100B630A201A300B7
:103A56009930A4008231402AAF09B009B109B209F0
:103A6600AF0A0319B00A0319B10A0319B20A3208D8
:103A7600310430042F04031D7E2D330886003030B8
:103A860087018100C50A0319C60A45083307B40031
:103A96008600810108004508353E86000A30870108
:103AA600A100A201A301A4013208A8003108A700C1
:103AB6003008A6002F08A50026269D312108303E95
:103AC6008100C50A0319C60A0A30A100A201A30192
:103AD600A4013208A8003108A7003008A6002F0864
:103AE600A500BA259D312408B2002308B10022089A
:103AF600B0002108AF003208310430042F04031D42
:103B06004E2D410842040319912D4508353E860085
:103B16002D3087018100C50A0319C60AC301C401F5
:103B26004608803AB40080303402031D9C2D0130D3
:103B36004502031CB22D200043083307B40086005B
:103B4600FF308701C507031CC6034508353E8400C0
:103B5600850100088100C30A0319C40A932D2000B9
:103B660043083307B4008600870181010800AA01D3
:103B7600A41FCA2DA109A209A309A409A10A031910
:103B8600A20A0319A30A0319A40AAA01AA0AA81FCA
:103B9600D92DA509A609A709A809A50A0319A60AE0
:103BA6000319A70A0319A80A0130AA06AB01AC013A
:103BB600AD01AE01240823042204210403190F2EAB
:103BC600A901A90AA41BEC2DA135A20DA30DA40DD4
:103BD600E42DAB35AC0DAD0DAE0D24082802031D4A
:103BE600FE2D23082702031DFE2D22082602031D93
:103BF600FE2D21082502031C092E2108A5022208F4
:103C0600A63B2308A73B2408A83B2B14A436A30CE9
:103C1600A20CA10CA90BEC2D2A0803191D2EAB0929
:103C2600AC09AD09AE09AB0A0319AC0A0319AD0A12
:103C36000319AE0A2E08A4002D08A3002C08A20022
:103C46002B08A1000800AA01A81F362EA509A6095F
:103C5600A709A809A50A0319A60A0319A70A031999
:103C6600A80AAA01AA0AA41F432EA109A209A30908
:103C7600A409A10A0319A20A0319A30A0319A40A8B
:103C860024082304220421040319702EA901A90A79
:103C9600A41B522EA135A20DA30DA40D4A2E240855
:103CA6002802031D602E23082702031D602E22080A
:103CB6002602031D602E21082502031C6A2E2108F8
:103CC600A5022208A63B2308A73B2408A83BA43646
:103CD600A30CA20CA10CA90B522E2A0803197E2EA6
:103CE600A509A609A709A809A50A0319A60A031979
:103CF600A70A0319A80A2808A4002708A30026086B
:103D0600A2002508A10008002000D701EB26B33049
:103D1600A1002130A200D530A3009830A400823142
:103D260040229E318A319E229E31D8006E279E31D6
:103D36002000D700303ED10058089C3ED2002130EA
:103D4600D301D33D520886005308870051088100ED
:103D56005808013E71275808D1009E30D201D30081
:103D66002130D40051085307D5005208543DD600DF
:103D760055088600560887003C3081005808D10057
:103D86009F30D201D3002130D40051085307D5000B
:103D96005208543DD6005508860056088700203044
:103DA60081008A319E229E31D8009C30A1002130AC
:103DB600A2005808A1070318A20ABA30A300983037
:103DC600A400823140229E318A319E229E31B12F3B
:103DD6004C27CF014F08363E8F3118279E312000E1
:103DE600C8004F089C3EC9002130CA01CA3D490897
:103DF60086004A088700480881000430CF0A4F022F
:103E0600031CED2ED00150083A3E8F3118279E3103
:103E16002000C8005008C900A130CA01CB002130DB
:103E2600CC0049084B07CD004A084C3DCE004D0852
:103E360086004E088700480881000730D00A5002E5
:103E4600031C062FA0308600213087003E308100FB
:103E5600AE3086003E308100A83086002C308100CE
:103E6600A93086003C308100B13086003C308100AC
:103E7600AC3086002E308100AF308600563081008F
:103E8600B030860042308100B2308600203081009A
:103E96000800210033082000C4004530B900003076
:103EA600BA004408BB000330BC00BD019631F526BC
:103EB600AA30860021308700450881004608C300E5
:103EC600AB308600430881004708C300AD3086004A
:103ED60043088100080022003A080800A4009C3E1E
:103EE600A1002130A201A23D2108860022088700F8
:103EF600303081006F1F8B2F24089C3EA10021309B
:103F0600A201A23D210886002208870031308100E7
:103F1600EF1F992F24089C3EA1002130A201A23D4B
:103F2600210886002208870032308100FA1F080027
:103F360024089C3E860021308701873D0108033E08
:103F4600A10024089C3EA2002130A301A33D220823
:103F56008600230887002108810008001130C1006F
:103F66000230C2008F3121279E312308BF0022086C
:103F7600BE008A319E229E31BD00C0014208B300B8
:103F86004108B2003F08B5003E08B4009531B5259A
:103F96009E313208BC00413EB9003D089C3EBA0045
:103FA6002130BB01BB3D3A0886003B088700390833
:103FB6008100BD0A4208A2004108A1003F08A400F2
:103FC6003E08A3009731C8279E312208BF0021086A
:103FD600BE001730B200B3014208B5004108B40074
:103FE6009531B5259E313308C2003208C100033031
:0A3FF600C00A400203180800C12FA2
:020000040001F9
:04000E00CCEFFFDE56
:10E00000000000000000FF00FF00FF00FF00FF0015
:10E01000FF00FF00FF00FF00FF00FF00FF00FF0008
:10E02000FF00FF00FF00FF00FF00FF00FF00FF00F8
:10E03000FF00FF00FF00FF00FF00FF00FF00FF00E8
:10E04000FF00FF0015007000E0002200FF00150037
:10E050007000FA005900FF0015007000E000220077
:10E06000FF0015007000FA005800FF004400430054
:10E0700054004300300030003100310030003000E7
:10E080003200FF0006000100010028009400140087
:10E09000CF00FF00FF00FF00FF00FF00FF00FF00B8
:10E0A000FF00FF00FF00FF00FF00FF00FF00FF0078
:10E0B000FF00FF00FF00FF00FF00FF00FF00FF0068
:10E0C000FF00FF00FF00FF00FF00FF00FF00FF0058
:10E0D000FF00FF00FF00FF00FF00FF00FF00FF0048
:10E0E000FF00FF00FF00FF00FF00FF00FF00FF0038
:10E0F000FF00FF00FF00FF00FF00FF00FF00FF0028
:10E10000FF00FF00FF00FF00FF00FF00FF00FF0017
:10E11000FF00FF00FF00FF00FF00FF00FF00FF0007
:10E12000FF00FF00FF00FF00FF00FF00FF00FF00F7
:10E13000FF00FF00FF00FF00FF00FF00FF00FF00E7
:10E14000FF00FF00FF00FF00FF00FF00FF00FF00D7
:10E15000FF00FF00FF00FF00FF00FF00FF00FF00C7
:10E16000FF00FF00FF00FF00FF00FF00FF00FF00B7
:10E17000FF00FF00FF00FF00FF00FF00FF00FF00A7
:10E18000FF00FF00FF00FF00FF00FF00FF00FF0097
:10E19000FF00FF00FF00FF00FF00FF00FF00FF0087
:10E1A000FF00FF00FF00FF00FF00FF00FF00FF0077
:10E1B000FF00FF00FF00FF00FF00FF00FF00FF0067
:10E1C000FF00FF00FF00FF00FF00FF00FF00FF0057
:10E1D000FF00FF00FF00FF00FF00FF00FF00FF0047
:10E1E000FF00FF00FF00FF00FF00FF00FF00FF0037
:10E1F000FF00FF00FF00FF00FF00FF00FF00FF0027
:00000001FF
