:1000000000008031532808007E14803123009D1C9D
:1000100018281D12000023001D1618282000911E0C
:100020001B2823001908F700770887312E27803115
:100030002100911A0E282100911C23282000911CD8
:1000400023281C1191108B1A0B1D27280B1121003E
:10005000931C47282000931C4728FD03FB1C3328D2
:100060007D08031D452887315C27803105308731A5
:10007000812780317B1C43280330873181278031E1
:10008000280017117B100A30FD002000931021007A
:10009000111C51282000111C5128873128272000CD
:1000A00011107E10090020000308A0008A31FA2AEE
:1000B00002305C2C0B305C2C08305C2C08305C2C43
:1000C0000A305C2C00305C2C09305C2C0C305C2439
:1000D0009D31752D21306F20803121080E2920009F
:1000E000A8000030A9018B1B0130A7008B1323004F
:1000F0004A0803198E284808A03E86000130870070
:1001000001082000A90023002830CA03C80A4806B5
:100110000319C8014A08031D8E289A202000270CC5
:10012000031C8B1303188B172808860087012908E6
:10013000810008000730E8281F30E701E8013F0090
:10014000ED002100E901E90AEA01EB016400210068
:1001500048084904031DAE286400A7284908E800A0
:100160004808E700690867052000EB0021006A08DD
:1001700068052000EC006B04031DC3282100E9354D
:10018000EA0DEB0AB22821006B082000AC00033016
:10019000AD01AE00AF018E31ED2680312D08850016
:1001A0002C088400013084079830853D003F2100F1
:1001B000E500013FE6008A0065080A00073080314B
:1001C00021006B060319A1286B08E8208031A128C3
:1001D0002000A50000308B1B0130A6008B132508E2
:1001E000A1002D30A201A135A20D21078400983075
:1001F000223D8500003FA300013FA400A309A409FC
:1002000023082100C805200024082100C90520007A
:10021000261C0C298B1708008B130800E200E10153
:100220006E1A0800E0006030A1000030A2008D319D
:100230007025803124306D156206031D302964223B
:100240002000ED162100580886005908870020007C
:10025000620881002100D80A0319D90AFC030800AA
:10026000ED1E08002100580886005908870020006C
:10027000620881002100D80A0319D90AFC03200072
:10028000ED1F65292100DA035A08031D86299C30D9
:100290002000A1002130A2007C08523CA300812252
:1002A0008031013A031D62296D167C0803195E290D
:1002B00021005808860059088700810122003C0867
:1002C0002F23803164228031502B6D1F6D292A30FD
:1002D0006206031D8629ED1786294C307C06031D16
:1002E0008629210058088600590887009C30810122
:1002F0002000A6002130A700E3228031013A031D2F
:1003000084296D17ED158629642280317C08031D30
:100310000800642AC7212000B3008F3102278031F2
:10032000033A031D080020003308031D9F290030F5
:100330008E312C268031FA1AA3290130A4290330EA
:100340008E312C2680310230AA21893139210430A6
:100350008D31F02D2000A1002100B5000F30B40038
:100360007A17BC2922000D16080022008D160800FD
:1003700022000D128D120800350884000530040299
:10038000031808009B310435003E8200080020005D
:1003900018106E116D1ED32922009F30BA01200063
:1003A000A1009930FF296D19E62902302200BA0018
:1003B00091302000A1009930A2008D31702580314C
:1003C00088310320803105228031022AED19F92974
:1003D00022008330BA01BA0A2000A1009930A2009D
:1003E0008D317025803188310320803105228031A4
:1003F000022A2200C930BA012000A1009930A200CF
:100400008D31702522003A0808006630A10099302D
:10041000A2008D3170258031ED01EE016422803122
:100420003F221D162100911622000E16F4302000E6
:10043000AD000130AE008E318A26803121000130BE
:10044000CF017222803144221114200018146E153D
:100450008F31522724082200A30020002308220005
:10046000A200200022082200A10020002108220072
:10047000A00064302000AD00AE018E318A2E230032
:100480009D171D169E160800003020001818013018
:10049000A10000302100111801302000A200181026
:1004A000FB1121005B08E00020001110970196016C
:1004B000210C031C181003181814220C2100031C13
:1004C000111003181114080020009C30ED126D1358
:1004D000ED132100D8002130D9005230FC00023049
:1004E000DA0008002000A100181818102100DC0014
:1004F0005B3E840098300318013E85000008DB0055
:100500000800A601A701A10A0319A20AAA01AA0AC2
:100510002308FD3EA400FF3003180030A500803AF8
:10052000803C031D952A24082A020318A22A2000D1
:1005300021088600220887000108A606A10A0319DF
:10054000A20A872A2000AA01A10A0319A20A2108E7
:10055000860022088700473001022A08031CBA2AB5
:10056000283E8600870121088400220885000008B3
:10057000DF39C22A283E860087012108840022082C
:1005800085000008D03E81002A08283E86000A30F7
:1005900087010102031CD62A2A08283E86002A0861
:1005A000283E840085010008F93E81000230AA0A35
:1005B0002A02031CA42A280EF0392904A7002606C3
:1005C000031901340034AC01AB01AC012708A200CF
:1005D0002608A1002C08A8004D30A901A835A90DB6
:1005E000280784009830293D8500003FA300013F83
:1005F000A4000D23803121082204031D052BAB012B
:10060000AB0A2C082200BC000A2B0530AC0A2C02D5
:10061000031CE62A20002B0808001B2B210886005B
:100620002208870001080319292BA10A0319A20A2D
:10063000A30A0319A40A21088600220887002308B8
:1006400084002408850000080102A500250803197C
:100650000E2B2508A100A201A11BA2030800200067
:10066000B700452BD62C802C01000800EE11EE10AF
:100670006E1008007B1408000310FB1F0314031CFA
:10068000432BFB170800FB130800370884000930D0
:100690000402031808009A310435ED3E8200080078
:1006A0002000EE186E1C0800EE106E1021000A30BB
:1006B000CF0A4F02031C0800CF032000EE1A6E2B56
:1006C0003F30A1009A30A2008D3170258031EE15A7
:1006D0004A248031822380312000EE1621003D081B
:1006E0002000A40021003C082000A30021003B08BA
:1006F0002000A20021003A082000A1002D24803112
:1007000006305C2C2000DB01DC01DD01DE01220073
:1007100023082702031D962B22082602031D962B71
:1007200021082502031D962B200824020318BC2B48
:1007300080302000D7005130D8000130D90004307B
:10074000DA01203E860001308700403FD707413F55
:10075000D83D423FD93D433FDA3D5A082200A70029
:10076000200059082200A600200058082200A500F9
:10077000200057082200A400200824022000D700EF
:1007800022002108253B2000D80022003D35283ECC
:1007900086000130870020005708C03F5808C13F3D
:1007A00022003D35283E8600403FB600413FB7005D
:1007B000AD302000A1009930A2008D31702580312C
:1007C00022003D35283E860001308700403F200052
:1007D000D700413FD8005708C7005808C800C901D2
:1007E000CA018E311A2680316330A1009930A200EF
:1007F0008D3170258031DF015F35283E8600013064
:100800008700403FD700413FD8005708DB07580812
:10081000DC3D0030DD3DDE3D0630DF0A5F02031CBB
:10082000FC2B0630AD00AE01AF01B0015E08B40094
:100830005D08B3005C08B2005B08B1008A31AE22EB
:100840002E082200B50020002D082200B40006303A
:10085000BD0A3D020318BD01080000308B1B0130AA
:10086000A5008B1324082100B900200023082100D3
:10087000B800200022082100B70020002108210034
:10088000B6007B16CE012000251C482C8B170800D3
:100890008B1308008F31522724082200A700200064
:1008A00023082200A600200022082200A500200024
:1008B00021082200A40008002000A50000308B1BA6
:1008C0000130A6008B132508A1002D30A201A1350F
:1008D000A20D210784009830223D8500003FA3002F
:1008E000013FA40023082100C8042000240821009F
:1008F000C9042000261C7E2C8B1708008B130800CF
:1009000021000B30D00A5002031C9D2C6330D00113
:100910002000A1009930A2008D31702580319C30DB
:10092000A1002130A2008D31702580316330A100FB
:100930009930A2008D317025803120009C30EE105E
:10094000A1002130A2002C30A300D3268031220840
:10095000B4002108B300B30A0319B40A33088600AF
:10096000340887004D300106031DB92C2100CA014F
:1009700008003408A2003308A1002C30A300D326BD
:1009800080312208B4002108B300B30A0319B40A65
:10099000330886003408870033300106031D080041
:1009A00003302100CB002000EE1408009C30A10091
:1009B0002130A2002C30A300D32680312208B600BB
:1009C0002108B500B50A0319B60A6E102200C70146
:1009D000CD0120003608A5003508A4000230A6008D
:1009E000B12680312200C30020003508023EA40059
:1009F0000030363DA5000230A600B126803122002D
:100A0000C40020003508043EA4000030363DA50097
:100A10000230A600B12680312200C5002000360831
:100A2000A2003508A1002C30A300D3268031220873
:100A3000B6002108B500B50A0319B60A35088600C4
:100A40003608870056300106031D2A2D2200C601F4
:100A5000C60A362D35088600360887004130010663
:100A6000031D362D2200C60120006E14200036081A
:100A7000A2003508A1002C30A300D3268031220823
:100A8000B6002108B500B50A0319B60A3508860074
:100A9000360887002C3001060319902D2200C7016B
:100AA000C70A20003608A5003508A4000230A600B9
:100AB000B12680312200C80020003508023EA40083
:100AC0000030363DA5000230A600B126803122005C
:100AD000C90020003508073EA4000030363DA500BF
:100AE0000230A600B1268031B3000230B401A60066
:100AF0003508053EA4000030363DA500B126AC0007
:100B00006430AD01AE00AF018E31ED268031330887
:100B10002C072200CA00200034082D3D2200CB0003
:100B200020003608A2003508A1002C30A300D326EF
:100B300080312208B6002108B500B50A0319B60AAB
:100B40002200470BBA2D20003508860036088700A2
:100B50004E300106031DAF2D2200CC01BA2D350801
:100B600086003608870053300106031DBA2D220087
:100B7000CC01CC0A20003608A2003508A1002C3098
:100B8000A300D32680312208B6002108B500B50A9B
:100B90000319B60A35088600360887002C3001068E
:100BA0000319142E2200CD01CD0A20003608A5001D
:100BB0003508A4000330A600B12680312200CE0003
:100BC00020003508033EA4000030363DA500023069
:100BD000A600B12680312200CF0020003508083E53
:100BE000A4000030363DA5000230A600B1268031B9
:100BF000B3000230B401A6003508063EA400003060
:100C0000363DA500B126AC006430AD01AE00AF01A9
:100C10008E31ED26803133082C072200D0002000D1
:100C200034082D3D2200D10020003608A2003508EE
:100C3000A1002C30A300D32680312208B600210861
:100C4000B500B50A0319B60A22004D0B3E2E20004E
:100C5000350886003608870057300106031D342EFC
:100C60002200D201D20A3E2E3508860036088700BF
:100C700045300106031D3E2E2200D2012000360819
:100C8000A2003508A1002C30A300D3268031220811
:100C9000B6002108B500B50A0319B60A3608A20045
:100CA0003508A1002C30A300D32680312208B600DD
:100CB0002108B500B50A0319B60A3608A20035089E
:100CC000A1002C30A300D32680312208B6002108D1
:100CD000B500B50A0319B60A3608A5003508A40000
:100CE0000230A600B12680312200D900200035084C
:100CF000023EA4000030363DA5000230A600B12619
:100D000080312200DA0020003508043EA4000030C3
:100D1000363DA5000230A600B12680312200DB005E
:100D200020006E1C952EE926803121000A30DE0A53
:100D30005E02031C08006330DE012000A100993030
:100D4000A2008D31702580319C30A1002130A2009D
:100D50008D31702580316330A1009930A2008D3132
:100D6000702DA901AA01AB01CD2E26082A02031875
:100D7000D12E2A08A700A801240786002808253DAF
:100D800087000108D03EAB000A30A10029088A3153
:100D9000ED2280312B07A900AA0A0A302B02031C7E
:100DA000B52E2908080021088600220887000108BE
:100DB0000319E62E21088600220887000108230671
:100DC00003190800A10A0319A20AD32EA101A20146
:100DD0000800220043082000A1000E30A201A30158
:100DE000A401A801A701A6001030A5008E31C826D5
:100DF000803124082100BD00200023082100BC0010
:100E0000200022082100BB00200021082100BA0098
:100E1000220044082000AC003C30AD01AE00AF0120
:100E20008E31ED262C082100BA0720002D08210064
:100E3000BB3D0030BC3DBD3D220045082100BA0746
:100E400001300318BB070318BC070318BD070800CF
:100E50002100E0036008031D0800432FF60028303E
:100E60004A060319402F4908A03E8600013087003A
:100E7000760881002830CA0AC90A49060319C9013F
:100E80000730812708004E2FFB15592F0E30812780
:100E90008731592F22008D120D12592F5C08003A0C
:100EA0000319442F013A0319462F033A03194A2F15
:100EB000592F2000181008002100CE0A05304E02DC
:100EC000031C0800CE010430812787310130210046
:100ED000B6070030B73DB83DB93D39088030031D35
:100EE000792F36025130373B0130383B031C080064
:100EF0008030B607AE30B73DFE30B83DFF30B93D6B
:100F00000800F40000308B1B0130F5008B137408CF
:100F1000F0002D30F101F035F10D700784009830AC
:100F2000713D8500003FF200013FF300720821008F
:100F3000C8047308C904751C9F2F8B1708008B13F6
:100F400008007B1FD22F0130A8020030A93BEB30F4
:100F50002000A1009A30A2008D3170258731210038
:100F6000DF0BC92F63302000A1009930A2008D3122
:100F7000702587310A302100DF0028082000C700D3
:100F8000210029082000C800C901CA018E311A2693
:100F90008731210028082904031DD22F7B138B31B0
:100FA0007D2387317A1F0800D52F2100B40BE02F55
:100FB0007A1322000D128D1204302100B5000800B2
:100FC00002303506031DF02F031022000D1E0314FE
:100FD000031CED2F22000D16080022000D12080040
:100FE00003303506031D0800031022008D1E031474
:100FF000031CFD2F22008D16080022008D12080010
:10100600BC01BA01BB01BC013B28BA010F28BA01D9
:10101600BA0A0F280230BA00BB013A08E523883124
:101026000630A2009930A300632088313430A10035
:101036009930A200702588319030AD000130AE00A5
:101046008A26883122000E12C8302000AD00AE017B
:101056008A26883122000E16F4302000AD000130B9
:10106600AE008A2688310330BC0A3C0203184728A2
:101076003C08003A03190828013A03190A28033ADA
:1010860003190D28102810280230E5238831EC308A
:10109600A2009830A30063208831F430AD000130FF
:1010A600AE008A2688317530A2009930A3006320ED
:1010B600883187208831BB30A1009930A200702D7D
:1010C600A5012308A7002208A600260884002708F1
:1010D6008500120003190800803025020318080055
:1010E6002608840027088500000880208831200013
:1010F600A60A0319A70AA50A6828A100111E8128B5
:10110600210823009A0008006330A1009930A2004C
:10111600702588319C30A1002130A2009630A300B2
:101126009830A400E1208831A630A1002130A20029
:10113600E030A3009830A400E1208831AB30A10054
:101146002130A200E930A3009830A400E1208831C4
:10115600B8013808DD3E8600013087000108B70077
:10116600A530860021308700370881003808E53E23
:101176008600013087000108B700AA3086002130BA
:101186008700370881009C30A1002130A20070251D
:1011960088319C30A2002130A3006320883164305E
:1011A600AD00AE018A2688310830B80A3802031C21
:1011B600AC28D630A1009930A200702D2208A600D6
:1011C6002108A50025088600260887002308840034
:1011D600240885000008C03F890803190800A50AED
:1011E6000319A60AA30A0319A40AE528B5302000A4
:1011F600A1009A30A200702588317621883121001D
:10120600B00102278831053A031D08000030442149
:101216008831003021002702063003192602031CFC
:10122600202927082000D800210026082000D70002
:10123600FD30D707FF30D83D052E39218831813062
:101246002000A1009A30A2007025883121002708CD
:101256002000D800210026082000D7000526883166
:1012660001307B172C2688310630F02DE330200024
:10127600A1009930A200702522000E1221009112C1
:1012860008002000A6002608031D55292030A100CD
:101296000230A2004330A3000130A4005E212000EA
:1012A600EF1508004330A1000130A2002030A30052
:1012B6000230A4005E29210822040319080023082D
:1012C600240403190800210886002208870020004C
:1012D60023088400240885001A30A50012001E0089
:1012E600A50B712908002000E101E201E301E401F8
:1012F600522788312408E4002308E3002208E2008C
:101306002108E1000F30CE0021002E0820004E02F9
:10131600D800D901031CD903DA01DB016108D8071B
:101326006208D93D6308DA3D6408DB3DBD00630809
:10133600BC006208BB006108BA0053228831052749
:101346008831210024082000A10021002508200062
:10135600A200A301A4015B08A8005A08A700590827
:10136600A6005808A5007B2788312208DF0021083F
:10137600DE0021002E082000B200B3015F08B50090
:101386005E08B400312688313208013ED6002100BD
:101396002C02FF3E2000E00021002E082000A100C4
:1013A600A2015F08A4005E08A30032278831210845
:1013B60021002E022000D7006008AC00AD01AC1B56
:1013C600AD0321002E082000AE00AF01ED268831C6
:1013D6002D08DD002C08DC005708DC070318DD0AA1
:1013E600E01FFD29210024082000DC072100250834
:1013F6002000DD3D5D082100A70020005C082100DB
:10140600A60020006108CE006208CF006308D00065
:101416006408D100210026082000D20021002708F8
:101426002000D300D401D5015208CE075308CF3D82
:101436005408D03D5508D13D51082100A300200095
:1014460050082100A20020004F082100A100200022
:101456004E082100A00023088030031D3A2A2002EE
:101466005130213B0130223B031C412A8030A0072A
:10147600AE30A13DFE30A23DFF30A33D2308200043
:10148600BD00210022082000BC0021002108200008
:10149600BB00210020082000BA0053228831052F06
:1014A6003D08C5003C08C4003B08C3003A08C2001A
:1014B6000E30B001AF01AE001030AD004508B400EB
:1014C6004408B3004308B2004208B100AE22883196
:1014D6002D082100D5003C302000AD00AE01AF0143
:1014E600B001210055082000A100FF30A201A30190
:1014F600A401A800A700F130A600F030A500C82678
:10150600883121084207BE002208433DBF00230858
:10151600443DC0002408453DC100B4004008B30066
:101526003F08B2003E08B100AE2288312D082100E6
:10153600D600C4302000A10021005608ED228831D3
:10154600BE00F030A10021005508ED223E074207FB
:101556002100D7000800B501B601B701B80130086F
:101566002F042E042D040319E42AB901B90AB01B6D
:10157600C12AAD35AE0DAF0DB00DB92AB535B60DD4
:10158600B70DB80D30083402031DD32A2F083302D5
:10159600031DD32A2E083202031DD32A2D08310239
:1015A600031CDE2A2D08B1022E08B23B2F08B33BDE
:1015B6003008B43B3514B036AF0CAE0CAD0CB90BDD
:1015C600C12A3808B0003708AF003608AE00350823
:1015D600AD0008002000A300A20121082318A207DD
:1015E600A135A3362308031DF02A2208080052302D
:1015F600FC000A30FD005C3084009B308500D8304A
:101606008600003087000030FF000D309B315023EC
:1016160088312200C330E2009830E300C930E4008C
:101626009830E500CF30E6009830E700D530E80086
:101636009830E9000330840090308500CB30860076
:10164600013087000030FF0022309B315023883163
:101656009C308400213085005430FE000030FF00AD
:101666009B3144238831F801F901FA01FB0120007E
:10167600ED01EE01EF01A030840000308500383026
:10168600FE000030FF009B31442388312030840067
:10169600013085004230FE000030FF009B314423BC
:1016A6008831A0308400013085002B30FE000030E8
:1016B600FF009B31442388312030840002308500AE
:1016C6001A30FE000030FF009B31442388317E1023
:1016D60020006D2B082588315E302000A10098304F
:1016E600A200702588310130F02580319C20883198
:1016F6008031532863302000A1009930A200702564
:101706008831D32BDF302000A1009A30A20070254B
:10171600883105307B14F0258831DF2B392188315B
:10172600BE2783318223883121003008031DA52B73
:101736002000EF1DA52B01304421883102302C26D4
:101746008831AA2B03302C2688312000EF11210086
:101756000330B00A2000D700D801052688310630AC
:10176600F0258831E5307B172000A1009A30A200D1
:1017760070258831DF2BFB1CC42B0430F025883103
:10178600DF2BE2302000A1009A30A20070258831BC
:1017960003307B14D700D801052688317B17DF2B51
:1017A60002278831053A0319912B033A0319BE2BF8
:1017B600013A0319852BDF2B63302000A1009930F5
:1017C600A200702DB90023001E129F151E15FC30B5
:1017D6002000A1009930A20070258831272CB9304D
:1017E600A1009A30A20070258831033023009C00A6
:1017F6004030142CBD30A1009A30A20070258831EB
:1018060023009C018A30142CB030A1009A30A2002B
:101816007025883123009C014430142C23009C0140
:101826000C309B00352C2B30A1009A30A20070257D
:101836008831B8013908303EB7003730A100003092
:10184600A20070258831352C3908003A0319F22B8D
:10185600013A0319FD2B033A0319072C013A031920
:10186600112C162C63302000A1009930A20070259F
:1018760088316430AD00AE018A2EB5278831220842
:10188600EA002108E9000A30B200B3016A08AD0097
:101896006908AC000F30AE00AF01ED2688312D0887
:1018A600B5002C08B400312688313308EA00320826
:1018B600E90000306A021E30031969020318662C1B
:1018C6001E30E900EA01762188316F1B6F1D7A2CE4
:1018D600A430860006308701A03E84008501403F83
:1018E60000072100A6000131413F003DA70020006E
:1018F600EF1F902C6A08E6006908E5001030E53510
:10190600E60DE7000E30E800650867022100A60034
:1019160020006608683B2100A70021002708200058
:101926006A02031D9A2C210026082000690203186A
:10193600B52C210027082000D80021002608200009
:10194600D7006908D7026A08D83B052688317A305D
:10195600A1009A30A2007025883105307B14B1278A
:101966008831C22C210027082000D8002100260833
:101976002000D700052688310530F02588319D30B6
:101986002000A1009A30A200702588312100260887
:101996002000C700210027082000C800C901CA018D
:1019A6001A2688316330A1009930A200702588314B
:1019B6004830A1009A30A200702588316908C70016
:1019C6006A08C800C901CA011A2688316330A10015
:1019D6009930A20070258831F030A1009930A2001C
:1019E60070258831210028082000C7002100290819
:1019F6002000C800C901CA011A2688316330A10037
:101A06009930A20070257B17080064007826220012
:101A16008E169D312225883101309B31692388310C
:101A2600F52788311F30A1009930A2007025883132
:101A36001430A1009A30A20070258831E830A10048
:101A46009A30A200702588315A30A1009A30A2003F
:101A560070258831AA30A1009A30A20070258831FD
:101A66006E30A1009830A200702588316330A10045
:101A76009930A200702588313530A1009A30A20035
:101A8600702588311430A1009A30A2007025883163
:101A9600E830A1009A30A200702588315A30A100A2
:101AA6009A30A200702588315130A1009A30A200E8
:101AB600702588316330A1009930A20070258831E5
:101AC600F0278831F22793319323883156268831BF
:101AD60076279D316E259C31712CA601B201FB182B
:101AE600762D2030772D1F3028009D002000A8017C
:101AF6000130B10021088400220885001200031974
:101B06000800603026020318080021088400220815
:101B160085000008A400A701A70AB201B20A24089A
:101B2600270503199D2D3208283E860001308701BE
:101B36008100A22D3208283E8600870181010930E6
:101B4600A735B20A3202031C922D28001E119C01F1
:101B560000308B1B01302000A5008B139311F90078
:101B6600080E2200BF00030EBE000408C0000508D0
:101B7600C1000A08C20028308400003085000A30FF
:101B8600F8008D3128001E151200090C2200031CD6
:101B96000D1303180D1720009311931DD02DF80B6C
:101BA600C72D2200400884004108850042088A00AB
:101BB6003E0E83003F0E8800F90E790E28001E1196
:101BC60020009311251CE92D8B17EA2D8B1320007D
:101BD600A10A0319A20AA60A7D2D2000A70021004A
:101BE6004208C30020002735CB3E8600013087001F
:101BF600413F8A00403F0A008D312000270821001E
:101C0600C200080058082100A9002000570821003A
:101C1600A80096302000A1009A30A20070258831D5
:101C26005708C7005808C800C901CA011A2E4A0831
:101C3600B2004908B1004808B0004708AF004B3071
:101C4600B3009E318F2688314B30A1000030A200B0
:101C5600702D2000A1002100CC000800B601B701BC
:101C6600320833040319512EB801B80AB31B3E2EAD
:101C7600B235B30D382EB635B70D33083502031D10
:101C8600462E32083402031C4D2E3208B4023308A5
:101C9600B53B3614B336B20CB80B3E2E3708B3003C
:101CA6003608B200080028001711FB1C682E033006
:101CB60097041708873948389700FA3096000A3093
:101CC6002100DD008530950008001708FC39023830
:101CD600970017088739503897008E3096000130E4
:101CE6002100DD00883095000800FC3021009905B0
:101CF600190887397038990099171A1E802E9A1D6F
:101D0600822E0530FB142000AD00AE018A2E2D0870
:101D1600A1002E08A2000330A301A401A801A70177
:101D2600A600E830A500C82688312408B600230896
:101D3600B5002208B4002108B300FB18BE2E2030DF
:101D4600AF00B001B101B2013308AF073408B03DAE
:101D56003508B13D3608B23D0630B236B10CB00C8E
:101D6600AF0C890BB02E3208B6003108B50030082A
:101D7600B4002F08B3003608A4003508A3003408C1
:101D8600A2003308A1009C31BB2CA901AA01AB011A
:101D9600AC01211CD62E2508A9072608AA3D27082E
:101DA600AB3D2808AC3DA535A60DA70DA80DA4365C
:101DB600A30CA20CA10C2408230422042104031D55
:101DC600CC2E2C08A4002B08A3002A08A200290860
:101DD600A1000800B001B1012C1CF52E2E08B00799
:101DE6002F08B13DAE35AF0DAD36AC0C2C082D0429
:101DF600031DEF2E3108AD003008AC0008002100AD
:101E06004208080043302000B9000030BA00210023
:101E160055082000BB000230BC00BD0197313027B9
:101E260088313A30C500C8004630B9000030BA00E3
:101E3600210056082000BB000230BC00BD019731CE
:101E460030274930B9000030BA0021005708200079
:101E5600BB000230BC00BD01BD0A9731302F2108FE
:101E6600220403194D2FA501A50AA21B3D2FA1355A
:101E7600A20D372F22082402031D432F2108230217
:101E8600031C492F2108A3022208A43BA236A10C59
:101E9600A50B3D2F2408A2002308A100080000304E
:101EA6008B1B0130A9008B13210039082000A800E4
:101EB600210038082000A700210037082000A600CE
:101EC600210036082000A500291C6B2F8B176C2FCC
:101ED6008B1320002808A4002708A3002608A200C8
:101EE6002508A10008000230C500C601C701080088
:101EF60024082304220421040319A82FA901A90AEE
:101F0600A41B8A2FA135A20DA30DA40D822F240890
:101F16002802031D982F23082702031D982F220845
:101F26002602031D982F21082502031CA22F210833
:101F3600A5022208A63B2308A73B2408A83BA436F3
:101F4600A30CA20CA10CA90B8A2F2808A400270811
:101F5600A3002608A2002508A1000800A100210070
:101F6600C4000800220035082000A2002200340820
:101F76002000A1000800220020082000A100220065
:101F860021082000A200220022082000A30022002F
:101F960023082000A400210024082000A500210019
:101FA60025082000A600A701A8012508A1072608E4
:101FB600A23D2708A33D2808A43D24082200A70027
:101FC600200023082200A600200022082200A500E7
:101FD600200021082200A40008000030F02DC801CE
:101FE600C901080030302000980418102100111093
:0A1FF6002000111097019601080069
:102006000E341B3462340034603400345E340034E1
:10201600643400345C340034663400345A3400349A
:10202600583400343034313433343534363437347C
:102036003834393445344634443442343834393407
:102046003634373417100030962090310430D325BB
:10205600903121001714FE279031033A031D3628CC
:1020660005308D31F02D07308D31F02590319D31C1
:10207600752D0030AC01AC0A7D2190317321903171
:10208600DB302000A4009830A5000530A6009A2178
:102096009031003A031D51282000AC017321903184
:1020A600E5302000A4009830A5000430A6009A214F
:1020B6009031003A031D61282000AC017321903154
:1020C6002000AD012D087D21903173219031200033
:1020D6002D35623E860001308700403FA400413F17
:1020E600A5000630A6009A219031003A031D7D28EE
:1020F6002000AC0120002D08EE2190315D30A400B7
:102106000130A5000530A6009A219031003A031D42
:102116008E282000AC0120000230AD0A2D02031CDF
:1021260065282C080800662390312000D90000306D
:10213600DD012100111801302000DA002100111004
:1021460000308B1A01302000DB008B12FA132D228F
:1021560090310D229031053020005D020318C5280C
:102166000C2190313C209031013A031DBD280530E9
:10217600DD00AE2822008D142000DD0AFA172200A9
:102186008D10AE286823903122000C128C16200088
:10219600DC0159085C020318D928B030AD000430C0
:1021A600AE008E318A269031DC0ACC28242290316A
:1021B60022008C16022163302000A1009A30A20072
:1021C6008D31702590319C30A1002130A2008D31D7
:1021D600702590316330A1009930A2008D317025B1
:1021E60090317E235A0C2100031C11100318111480
:1021F60020005B0C031C8B1203188B1608000C10B6
:102206000D118D100C138C130C118C118C120C12D9
:10221600080000307D21903173219031DB302000A1
:10222600A4009830A5000530A6004B219031E5307A
:102236002000A4009830A5000430A6004B21903160
:102246002000AB012B087D219031732190312000B5
:102256002B35623E860001308700403FA400413F97
:10226600A5000630A6004B21903120002B08EE2158
:1022760090315D30A4000130A5000530A6004B2149
:10228600903120000230AB0A2B02031808002529E2
:1022960022000C132000AA012A08A700A801A71BE8
:1022A600A8032808803AA90080302902031D5D2969
:1022B600260827020318702920002A08A700A8016B
:1022C600A71BA8032408270784002508283D8500A6
:1022D6000008D0219031AA0A4F2922000C17732931
:1022E60020001C1522008C1520001C1977292200BD
:1022F6008C1108002000A20022360139A100A10E8F
:1023060022000C0820002106EF39210622008C004D
:10231600200022080139A100A10EA10D22000C08FF
:1023260020002106DF39210622008C00080024083F
:1023360084002508850000088038AA00A901A90A9A
:1023460022000C1320002A08D021903121008C177E
:102356002000AB01AB0A26082B020318C9294E231D
:102366009031AA002508A8002408A7002B082707F3
:10237600840028080318280A850000082A0603197D
:10238600AD2922000C1721008C13003422000C17F3
:1023960021008C13200029080800A1008030A2002B
:1023A600A30122000C112000210822050319DE29B1
:1023B60022008C17E02922008C1300000000220066
:1023C6000C150000000020000830A236A30A2302E4
:1023D60003180800D429A200573E84009830031839
:1023E600013E85000008A3000B302200DD0020001E
:1023F600A40124085E3E86000130870023082407D6
:102406001D249031810020000430A40A2402031800
:102416000800FC2920001C1187309C05FC309C0517
:10242600A0309B009A0191102100911422000C14F7
:102436006E302000AD00AE018E318A2622008D104E
:102446000800D324A400EE3086002130870024083B
:10245600810008004F2290312100B30020006F1F39
:102466003D2A210032083302031C3D2A20006F1347
:10247600EF13472A20006F1B472A21003308310239
:10248600031C472A20006F1751302100330203181E
:1024960008002000EF170800823022009700171F5F
:1024A600522A1F302000B9000130A62290313A0886
:1024B600D1003908D000220097130C302000B90053
:1024C6000130A62290313A08CF003908CE005008D4
:1024D60051040319922A5008AD005108AE00AF010D
:1024E600B0014E08A1004F08A2002030A301A401AC
:1024F600A801A701A6000C30A5008E31C826903190
:102506002408B4002308B3002208B2002108B10051
:102516008A31AE2290312E08CC002D08CB004F0810
:102526002100AB0020004E082100AA0064302000E4
:10253600B200B3014C08B5004B08B4008E31312609
:102546003208CD000800BD00FF30C801C80AC1012D
:10255600C201C301C401C500C6006030C701210025
:102566009E0020003D0C2100031C9E1303189E179D
:1025760020003908BB00BB0DBB0D21001D08200043
:102586003B0683393B0621009D001D144230200086
:10259600BB00BB0BCC2A00000C3020003906031907
:1025A600D82A1F303906031DE22A4230BB00BB0B76
:1025B600DA2A000012302000C800C701C70AC0018D
:1025C6004808400203181C2B1A30BB00BB0BE92A33
:1025D600000021009D14000021009D18EF2A1C0810
:1025E6002000CA00C90121001B082000C9070318E2
:1025F600CA0A470B162B4A084402031D042B490836
:10260600430203180A2B4A08C4004908C3004608B7
:102616004A02031D102B450849020318162B4A08C7
:10262600C6004908C5004908C1074A08C23DC00A94
:10263600E32A21001D102000470B3C2B43084507C9
:10264600BB004408463DBC00BB09BC09BB0A0319D4
:10265600BC0A3B08B4003C08B5004108B407420870
:10266600B53D4808B200FE30B301B207FF30B33DB6
:10267600432B4808B200B3014208B5004108B40034
:102686008E3131263308BF003208BE003F08BA003B
:102696003E08B90008008030A101A200A301220073
:1026A6000C110000000022000C15000000002000A4
:1026B60022088C1BA1040830A236A30A2302031C9D
:1026C600522B210808002F0808007E239031210094
:1026D6004C08003A0319792B013A03197B2B033A6C
:1026E60003197B2B013A03197C2B7D2B9B31822B03
:1026F6004E2E262C0800A1012108803A313E0318EF
:102706008D2B21089C3E860021308701873D810163
:10271600A10A7F2BEE308600213087008101080058
:102726002000C301EF01C40144083E3E1D240F39B9
:102736002000C1000A30A10043088A31ED22903101
:102746004107C3000330C40A4402031C972B430805
:102756002100AC0042301D2490312100AE004330F0
:102766001D2490312100AF0047301D242100AD000B
:102776002E082000AC00AD0121002D082000AE007F
:10278600AF018E31ED2690312D082100A5002000E5
:102796002C082100A40048301D242000C100C201DD
:1027A600C135C20DC135C20D4108B9004208BA0093
:1027B6009B31C22390312100B100053EB200443066
:1027C6001D2490312100C10045301D249031200088
:1027D600C5002100BF000F30BF052000450E0F3990
:1027E6002100BE000F30BE053F08C00046301D2444
:1027F60090312000C500451C6F15C5186F16451A87
:10280600FB16C51E7B156F1E0C2C013084315C2413
:1028160090313B2690312F30230287300319220254
:10282600031C08000130A1011A2690312000003057
:10283600A1011A2E2000A1002300910092019513F8
:102846001514130808002000D701EA24B330A100AC
:102856002130A2008930A3009830A4008831E120FD
:102866009031D3249031D8006B2590312000D700C9
:10287600303ED10058089C3ED2002130D301D33DD2
:102886005208860053088700510881005808013E07
:102896006E2590315808D1009E30D201D3002130E8
:1028A600D40051085307D5005208543DD6005508A8
:1028B6008600560887003C3081005808D1009F30BA
:1028C600D201D3002130D40051085307D500520855
:1028D600543DD600550886005608870020308100F2
:1028E600D324D8009C30A1002130A2005808A107AB
:1028F6000318A20A6E30A3009830A4008831E120A4
:102906009031D3249031872C1130C1000230C2009F
:102916003B2690312308BF002208BE00D324BD0009
:10292600C0014208B3004108B2003F08B5003E08A6
:10293600B4008E31312690313208BC00413EB900D8
:102946003D089C3EBA002130BB01BB3D3A088600DB
:102956003B08870039088100BD0A4208A2004108E9
:10296600A1003F08A4003E08A3008F313227903112
:102976002208BF002108BE001730B200B30142088A
:10298600B5004108B4008E31312690313308C200BB
:102996003208C1000330C00A400203180800942C14
:1029A6009C30A301A1002130A200E12C5230230269
:1029B6000318E82CA30AA10A0319A20A2108860013
:1029C600220887000108031DD92C230808004A2580
:1029D6009031CF014F08363E1D2490312000C800AB
:1029E6004F089C3EC9002130CA01CA3D49088600ED
:1029F6004A088700480881000430CF0A4F02031CAA
:102A0600ED2CD00150083A3E1D2490312000C8001C
:102A16005008C900A130CA01CB002130CC004908BA
:102A26004B07CD004A084C3DCE004D0886004E08A7
:102A36008700480881000730D00A5002031C052D84
:102A4600A0308600213087003E308100AE308600FF
:102A56003E308100A83086002C308100A9308600E7
:102A66003C308100B13086003C308100AC308600BD
:102A76002E308100AF30860056308100B03086009F
:102A860042308100B23086002030810008002100EB
:102A960033082000C4004530B9000030BA004408AD
:102AA600BB000330BC00BD013027AA3086002130B0
:102AB6008700450881004608C300AB3086004308FE
:102AC60081004708C300AD30860043088100080036
:102AD60022003A080800A4009C3EA1002130A20171
:102AE600A23D2108860022088700303081006F1F32
:102AF600882D24089C3EA1002130A201A23D210878
:102B060086002208870031308100EF1F962D2408A9
:102B16009C3EA1002130A201A23D21088600220888
:102B2600870032308100FA1F080024089C3E860088
:102B360021308701873D0108033EA10024089C3E01
:102B4600A2002130A301A33D2208860023088700A6
:102B560021088100080000308E312C26903100308B
:102B660096206400E8302000AD000330AE008E31C0
:102B76008A2690310430D32503308E312C269031AD
:102B8600003096206400E8302000AD000330AE002F
:102B96008E318A2690310230D32590312100AE2D18
:102BA6002000D2004F229031D30002301D249031F4
:102BB6002000D6003B2690312308D5002208D400F9
:102BC60004305206031DEF2D73305302031C560BBF
:102BD60008000230A1011A2E79305302031C0800A6
:102BE6005608031D08000230A101A10A1A269031D9
:102BF6002F3020005502863003195402031C0B2E79
:102C06000130A1011A26903120000030A1011A2EB0
:102C1600D40A0319D50A5508D600A10001301A2690
:102C2600903120005408D600A10000301A2EA200D0
:102C360023009100920120002108230093009513A0
:102C4600151500308B1B01302000A3008B13553067
:102C560023009600AA30960095142000230C031C2E
:102C66008B1303188B1723009518362E15110800A1
:102C760001301D2490312000A600A5000030A401DB
:102C86001D242000A600A4070318A50A2508A300F2
:102C96002408A2000800EA249031BE3086002130C4
:102CA60087003E308100CE3086003E308100D8302D
:102CB60086003E308100B23086002C308100BD3067
:102CC60086002C308100C13086002C308100CD304A
:102CD60086002C308100D13086002C308100C03037
:102CE60086003C308100D03086003C308100B83010
:102CF60086002E308100C83086002E308100B53027
:102D060086003A308100C53086003A308100D930DD
:102D1600860048308100BF3086004E308100220098
:102D26004C0B992EBF30860053308100CF30860081
:102D36002130870045308100520BA52ECF3086000A
:102D460057308100B3302000B9002130BA0022008C
:102D560048082000BB000230BC00BD01302790317E
:102D6600B630B9002130BA00220049082000BB0065
:102D76000230BC00BD0130279031C230B90021308D
:102D8600BA0022004E082000BB000330BC00BD0183
:102D960030279031C630B9002130BA0022004F08E2
:102DA6002000BB000230BC00BD0130278F31522706
:102DB60090312408BD002308BC002208BB0021086E
:102DC600BA008A3153229031D2302000B900213026
:102DD600BA00210055082000BB000230BC00BD012E
:102DE60030279031D430B9002130BA00210056087E
:102DF6002000BB000230BC00BD0130279031D63028
:102E0600B9002130BA00210057082000BB0002306B
:102E1600BC00BD0130279031B930C3002130C40059
:102E260022004B082000C60022004A082000C500E8
:102E36000430C700C801B5279031C930C30021301E
:102E4600C400220051082000C600220050082000BD
:102E5600C5000430C700C801B52F64303B02031C0F
:102E6600382F03303C0203184B2F64303B020A30E4
:102E76000318452F3B02031C442F02303C02031863
:102E86004B2F0A303B02031808003C0803190800C0
:102E96003D0B562F3C08BE00BF01390786003F0890
:102EA6003A3D8700810102303C020A30031C782F2C
:102EB600BC03A1003B0885279031C2000A30A1005F
:102EC6003B089D279031BB003030C2073C08BE004E
:102ED600BF013907C0003F083A3DC10040088600DF
:102EE6004108870042088100562FA1003B0885272C
:102EF600C2003030C207390886003A088700420807
:102F060081000800A3000830A400A5012308A20040
:102F16000730A236890B8C2F25352204A500A33550
:102F260021082502031C992F2108A502A40B892F2D
:102F360025080800A200A40121080319B32FA30144
:102F4600A30AA11BA82FA135A32FA435210822026D
:102F5600031CB02F2108A2022414A136A30BA82F0C
:102F66002408080027304602103003194502031CC6
:102F7600C02F053047020318CB2F273046021030EA
:102F8600031945020318080004304702031C080011
:102F96004408BA004308B9006430B200B3014608D9
:102FA600B5004508B4008E31312690313208BB0099
:102FB6004708FE3EBC004808BD0030274408BA005A
:102FC6004308B9004708B9070318BA0AFE30B9071B
:102FD600031CBA036430A100A2014608A4004508F8
:102FE600A3008F31322790312108BB000230BC008C
:102FF6004808BD00302F4308080000340A341B344B
:103006000134AE341534023432341D3403346E3494
:103016001E340434A1340734053421341D340634F7
:10302600F934083407346A34003408340C341C3458
:103036000934253410340A345F341C340B344034DC
:103046000C340C34033400340D34033400340E34A1
:103056008A34013401340034023400340434003438
:103066000834003410340034203400344034003442
:103076008034003400340134003402340034043423
:103086000034083400341034003420340034403422
:1030960000348034BC349834AE349834B534983423
:1030A600A7349834A0349834223427342C3431345D
:1030B60004343C34963447345034533444345F3407
:1030C60076342E3431342E3430345F346434623402
:1030D6000D340A34003456343E34333431343C34FF
:1030E60054343E34363439343C342034433420347A
:1030F60000344134433454344934563441344E3424
:1031060044344F3453344534203400344E344F3431
:1031160054344934433445342034473450345334DA
:1031260020343E340034243450344134493452344B
:103136003034363432342C34003424344534453477
:1031460053344C3466340034243447344E344734D4
:10315600533441340034243447344E3452344D34DD
:1031660043340034243447345034473453344134E0
:10317600003424344734503452344D34433400340C
:10318600073400340034003400340034083400348A
:103196000034013404340034093400340034023479
:1031A600083400340A340034003403340C34003458
:1031B600003480340034003440342C3430342A3423
:1031C6003334003401341834083424340D340A34CA
:1031D6000034243450344134493452343034363493
:1031E60036342C3431342C3430342C3431342C34C1
:1031F60031342C3431342C3430342A3433344134A1
:103206000D340A34003424345034413449345234B1
:103216003834363434342C3430342C3430342C3482
:103226003134313435343234303430342A34313474
:1032360042340D340A3400340D340A342D342D341E
:103246002D342034523445345334453454342034E8
:1032560020344234553449344C3444343A342034DE
:1032660000340D340A3447345F34733465347434AF
:103276003A34203431343134353432343034303425
:103286000D340A3400340D340A3467347034733420
:103296005F34733474346134723474347534703416
:1032A6000D340A3400340D340A3420345534443491
:1032B60020344534523452344F345234203421347D
:1032C6000D340A3400340D340A34673470347334E0
:1032D6005F347234653469346E34693474340D3451
:1032E6000A340034243450344134493452343034AE
:1032F600363437342A34333442340D340A34003405
:103306000D340A3447345034533420344234203494
:103316004534523452340D340A3400340D340A34F0
:1033260047345034533420344634203445345234F0
:1033360052340D340A3400340D340A3447345034D0
:103346005334203457346F3472346B3473340D3441
:103356000A3400340D340A344C346F3463346B341D
:103366005F34743469346D3465343A34203400344F
:103376000D340A346334663467345F347334653429
:103386006E3474340D340A34623400340D340A3425
:1033960047345034533420344F342E344B342E3487
:1033A6000D340A3400340D340A34533465346E3423
:1033B600743420346334663467340D340A3400348C
:1033C6000D340A346734703473345F3473347434B0
:1033D6006F3470340D340A34003472347434633408
:1033E6005F3461346C34613472346D343A34203471
:1033F60000340D340A3455344134523454345F3475
:10340600433446344734203400342D343234313496
:10341600343437343434383433343634343438345A
:1034260000344F346334743420343034363420342A
:10343600323430343234363400340D340A345234B3
:1034460058345F344C3455345A340D340A3400340D
:1034560055346E346B346E346F3477346E343A349C
:10346600203400340D340A344234553449344C3453
:1034760044343A34203400340D340A345334593445
:103486004E3443340D340A34003453345F346C34D0
:103496006F3463346B343A34203400340D340A34D8
:1034A6004D344934503453343A34203400343034B3
:1034B60036343A34343433343A34333437340034EB
:1034C6000D340A344D34533447343A3420340034FE
:1034D600203447343634303430340D340A34003432
:1034E6000D340A34433433340D340A3400340D3485
:1034F6000A34433434340D340A34003447344F34F8
:10350600463446340D340A340034473444345F3488
:103516004F340D340A340034473444345F34733442
:103526000D340A3400340D340A34413453343A34F9
:103536002034003453343234743478343A342034FA
:1035460000345334553450340D340A3400342034A6
:10355600203456342E34203400345534313431344A
:10356600353400342034463420340034553439346C
:103576003634003455343534373400344534303439
:103586000034453431340034453432340034453463
:10359600333400344534343400344534353400345F
:1035A6004534363400344534373400344534383401
:1035B6000034453439340034433431340034433430
:1035C600323400344E345034003420342034003445
:1035D6002E3400348331322B8331322B8331332B1B
:1035E6008331332B8331342B8331362B83313A2B82
:0835F60083314F2B83313C2B84
:103600008131B2298131B5298131B2298131B52980
:103610008131B829171402308D31F02D2100C301FA
:04362000C2010800DB
:103688006400013080010131FE020030FF3B7F08F9
:103698007E0403190034452BFE0012001E00013081
:1036A800FE020030FF3B7F087E0403190034512BD3
:1036B8009C3421340234043403340A340A340A347E
:1036C8000434AD340034003400342000A100280054
:1036D8001E1187309E05FC309E051F309D0020007E
:1036E8002108031D7A2B203028009D00200093110B
:1036F80021000D138D1322000D1708009431EA24C0
:103708009B31B330A1002130A2007C30A300983057
:10371800A4008831E1209B319431D3249B31D3001C
:103728009C30A1002130A2005308A1070318A20A67
:103738006E30A3009830A4008831E1209B31943189
:1037480087249B319431D324D3009C3ED10021306F
:10375800D201D23D510886005208870020308100EE
:10376800D30A53089C3ED1002130D201D23D5108E2
:103778008600520887002030810008000930BB010C
:10378800BC01BD01BE01B200B3013A08AD00390861
:10379800AC000530AE00AF018E31ED269B312D080F
:1037A800B5002C08B4008E3131269B313308C00097
:1037B8003208BF000230BF070318C00A3030B20019
:1037C800B3013A08AD003908AC001130AE00AF01C2
:1037D8008E31ED269B312C08313EB40000302D3D52
:1037E800B5008E3131269B313308BC003208BB004E
:1037F8000730B200B3013B083F07B4003C08403D26
:10380800B5008E3131263308BE003208BD000800ED
:103818007B1E292C893176219C310030210027021A
:10382800043003192602031C272C27082000D8007F
:10383800210026082000D700FD30D707FF30D83DEB
:103848008E3105269C317B17432C5830A600023058
:10385800A70027082000D800210026082000D7004C
:10386800FD30D707FF30D83D8E3105269C316B30AF
:103878007B17A1009A30A2008D3170259C31442C11
:1038880046302000A1009930A2008D3170259C316E
:103898005A249C3122000E1621008D1320008E1F01
:1038A800582C22008D17522C2200512C23009D13D6
:1038B8001D129E120800C801C901FB18692C8E311F
:1038C80078269C318E3156269C3171248F30200009
:1038D800A1009A30A2008D31702DFA018F31762720
:1038E8009C3192249C317B127B138A249C31B00139
:1038F800B3240B118B120B178B1720009310210088
:1039080093142800171502309531D32D2100B601E4
:10391800B701B801B9010A30FD0008002000EE1116
:103928002200BD01A001A101A201A301A401A501DA
:10393800A601A7012000A1012135283E86000130FB
:1039480087001E30C03F0030C13F0630A10A210267
:10395800031CA02C1E302200B400B5010800200072
:10396800EF10EF127A1621003F08C0000800240863
:10397800031DC72C2308031DC72CE8302102033080
:10398800223B031CE72C0B30A6006230A500A50BD8
:10399800CB2CA60BCB2C0000E8302000A102033072
:1039A800A23B0030A33BA43BBB2CC730A5000000C2
:1039B800A50BDB2C0032000064302000A10200308F
:1039C800A23BA33BA43B2408031DD92C2308031DB9
:1039D800D92C2208031DD92C64302102031C012D87
:1039E800D92C1A30A500A50BF72C00000A302000AE
:1039F800A1020030A23BA33BA43B2408031DF52CE5
:103A08002308031DF52C2208031DF52C0A3021027A
:103A1800031C1A2DF52C003200320032003201301E
:103A28002000A1020030A23BA33BA43B24082304AE
:103A380022042104031908000F2D7C2D23008C017A
:103A480009308D00752521008C0109308D008230E8
:103A58008E0024008D010830900008008830200076
:103A6800A1009A30A2008D3170259D31FB1C3D2D9F
:103A78006E26893139219D310B138B139310280041
:103A8800171120001C1128001E1120001810752580
:103A98009D317C259D31003A031D5A2D21001708C0
:103AA800C13914389700171463004D2D6E259D31C8
:103AB800FB18642D8E3178269D318E3156269D3126
:103AC80002308D31F025A4302000A1009A30A200E8
:103AD8008D31702D21001708C1391C389700171037
:103AE800080022008C0140308D0004308E00080050
:103AF800A4259D31BB00BC013B08031D922DBC01D0
:103B0800BC0A210045080319A12D0B30C60AC701BC
:103B18004602031CA12D0330C5019F2D210045033A
:103B28000319A12D1F30C70AC6014702031CA12D86
:103B38000830C501C50A8D31F02520003C08080071
:103B480028001D082000B901BA0122000E15200026
:103B58001C11FB18C12D0430B8003C30B700B70B5E
:103B6800B32DB80BB32D0000FC3020009C051C08B9
:103B7800873908389C00FA30CE2D0530AD00AE01EB
:103B88008E318A269D311C08FC3902389C00783019
:103B98009C047D309B009A01911020302100E100A7
:103BA8001C30E20002301F269D318F302100E100D9
:103BB8000230E2011F269D3121005208D300333024
:103BC80052060319E92DFA16EA2DFA12A730210038
:103BD800E100E201911420001C15FB2D02301F2684
:103BE8009D312100521DFB2D2000BA01BA0A200088
:103BF8003A08031D012E1C19F22D1C1121009110E9
:103C0800AD30E10002301F269D3121005208031D0E
:103C1800102E02301F269D3122000E118E110E101B
:103C280080302100520203181C2E2000B901B90A65
:103C38002000390808002000A800E130A900D13090
:103C4800AA0022008E150E112000AB012B08A5003A
:103C5800A601A51BA6032608803AA70080302702E4
:103C6800031D382E280825020318492E20002A088B
:103C78008600870129088400850100084C269D31AB
:103C88008100AA0AA90AAB0A2A2E22000E150800EA
:103C9800A1008030A201A300A40121082305031973
:103CA800582E22000E145A2E22000E108E110000DB
:103CB800000022008E1500000000200023088E1846
:103CC800A204A336A40A2408803A783E031C512E85
:103CD80022080800FB1C7B2E73302000A1009A30BC
:103CE800A2008D3170259D3183269D317E2E8E3127
:103CF80078269D318E315626280017150800FC308D
:103D080021009905190887393838990099131A1D1F
:103D18008B2EFB100800C501C601C101C201B21FEC
:103D2800B32E8030C101C10AC20132062F0430040B
:103D38003104031DA82E3308A1000830A201A300F6
:103D48009A30A4008831E128AF09B009B109B20955
:103D5800AF0A0319B00A0319B10A0319B20A3208E3
:103D6800310430042F04031DF72E33088600303049
:103D780087018100C50A0319C60A45083307B4003C
:103D88008600810108004508353E86000A30870113
:103D9800A100A201A301A4013208A8003108A700CC
:103DA8003008A6002F08A5009F279E312108303E25
:103DB8008100C50A0319C60A0A30A100A201A3019D
:103DC800A4013208A8003108A7003008A6002F086F
:103DD800A50033279E312408B2002308B100220829
:103DE800B0002108AF003208310430042F04031D4D
:103DF800C72E4108420403190A2F4508353E86009C
:103E08002D3087018100C50A0319C60AC301C40100
:103E18004608803AB40080303402031D152F013063
:103E28004502031C2B2F200043083307B4008600EB
:103E3800FF308701C507031CC6034508353E8400CB
:103E4800850100088100C30A0319C40A0C2F200049
:103E580043083307B4008600870181010800AA01DE
:103E6800A41F432FA109A209A309A409A10A0319A0
:103E7800A20A0319A30A0319A40AAA01AA0AA81FD5
:103E8800522FA509A609A709A809A50A0319A60A70
:103E98000319A70A0319A80A0130AA06AB01AC0145
:103EA800AD01AE0124082304220421040319882F3C
:103EB800A901A90AA41B652FA135A20DA30DA40D64
:103EC8005D2FAB35AC0DAD0DAE0D24082802031DDA
:103ED800772F23082702031D772F22082602031DA8
:103EE800772F21082502031C822F2108A50222080A
:103EF800A63B2308A73B2408A83B2B14A436A30CF5
:103F0800A20CA10CA90B652F2A080319962FAB093F
:103F1800AC09AD09AE09AB0A0319AC0A0319AD0A1D
:103F28000319AE0A2E08A4002D08A3002C08A2002D
:103F38002B08A1000800AA01A81FAF2FA509A609F0
:103F4800A709A809A50A0319A60A0319A70A0319A4
:103F5800A80AAA01AA0AA41FBC2FA109A209A30999
:103F6800A409A10A0319A20A0319A30A0319A40A96
:103F780024082304220421040319E92FA901A90A0A
:103F8800A41BCB2FA135A20DA30DA40DC32F24086C
:103F98002802031DD92F23082702031DD92F220821
:103FA8002602031DD92F21082502031CE32F21080F
:103FB800A5022208A63B2308A73B2408A83BA43651
:103FC800A30CA20CA10CA90BCB2F2A080319F72FBD
:103FD800A509A609A709A809A50A0319A60A031984
:103FE800A70A0319A80A2808A4002708A300260876
:083FF800A2002508A100080049
:020000040001F9
:04000E00CCEFFFDE56
:10E00000000000000000FF00FF00FF00FF00FF0015
:10E01000FF00FF00FF00FF00FF00FF00FF00FF0008
:10E02000FF00FF00FF00FF00FF00FF00FF00FF00F8
:10E03000FF00FF00FF00FF00FF00FF00FF00FF00E8
:10E04000FF00FF0015007000E0002200FF00150037
:10E050007000FA005900FF0015007000E000220077
:10E06000FF0015007000FA005800FF004400430054
:10E0700054004300300030003100310030003000E7
:10E080003200FF0006000100010028009400140087
:10E09000CF00FF00FF00FF00FF00FF00FF00FF00B8
:10E0A000FF00FF00FF00FF00FF00FF00FF00FF0078
:10E0B000FF00FF00FF00FF00FF00FF00FF00FF0068
:10E0C000FF00FF00FF00FF00FF00FF00FF00FF0058
:10E0D000FF00FF00FF00FF00FF00FF00FF00FF0048
:10E0E000FF00FF00FF00FF00FF00FF00FF00FF0038
:10E0F000FF00FF00FF00FF00FF00FF00FF00FF0028
:10E10000FF00FF00FF00FF00FF00FF00FF00FF0017
:10E11000FF00FF00FF00FF00FF00FF00FF00FF0007
:10E12000FF00FF00FF00FF00FF00FF00FF00FF00F7
:10E13000FF00FF00FF00FF00FF00FF00FF00FF00E7
:10E14000FF00FF00FF00FF00FF00FF00FF00FF00D7
:10E15000FF00FF00FF00FF00FF00FF00FF00FF00C7
:10E16000FF00FF00FF00FF00FF00FF00FF00FF00B7
:10E17000FF00FF00FF00FF00FF00FF00FF00FF00A7
:10E18000FF00FF00FF00FF00FF00FF00FF00FF0097
:10E19000FF00FF00FF00FF00FF00FF00FF00FF0087
:10E1A000FF00FF00FF00FF00FF00FF00FF00FF0077
:10E1B000FF00FF00FF00FF00FF00FF00FF00FF0067
:10E1C000FF00FF00FF00FF00FF00FF00FF00FF0057
:10E1D000FF00FF00FF00FF00FF00FF00FF00FF0047
:10E1E000FF00FF00FF00FF00FF00FF00FF00FF0037
:10E1F000FF00FF00FF00FF00FF00FF00FF00FF0027
:00000001FF
